:400000000080002011000000A9000000A900000080B500AF47F2BC63C4F2000344F2FA62C4F2000212681A6000F012FC00F040F810B5054C237833B9044810B10448AFF3CC
:4000400000800121217010BD2881FF1F000000009C23000008B5064B1BB106480649AFF300800648016811B1054A02B1904708BD000000009C2300002C81FF1F0881FF1F19
:400080000000000080B500AF4FF0000001F05AFA4FF0000001F078FA4FF0000001F094FA62B600F053FBFEE780B400AFFEE700BF80B586B000AF40F20103C0F200037B61D5
:4000C00042F2A443C0F200033B6140F20103C0F200037B6142F2A443C0F200033B613BE03B691B68FB603B695B68BB603B699B683B604FF000037B600FE0FB681A68BB68EC
:400100001A60BB6803F10403BB60FB6803F10403FB607B6803F104037B607A683B689A42EBD13B69DB683B604FF000037B600BE0BB684FF000021A60BB6803F10403BB60DC
:400140007B6803F104037B607A683B689A42EFD13B6903F110033B617B69002B0CBF00230123DBB27A6902F1FF327A61002BB7D102F0D8F8FFF786FFFEE700BF80B582B0D3
:4001800000AF4EF60C53CEF200034FF48062C0F2FA521A604EF61453CEF200034EF61452CEF20002126842F400721A604FF000037B6019E07B68032B07D840F20003C0F22A
:4001C00000037A6853F8223003E040F2A903C0F2000348F20002C1F6FF72796842F821307B6803F101037B607B682F2BE2D947F2BC63C4F200031B78DAB248F20413C1F651
:40020000FF731A704EF60853CEF2000348F20002C1F6FF721A6000F037F948F20013C1F6FF734FF000021A6007F10807BD4680BD80B582B000AF7860396078684FF0000143
:400240003A6802F09EF807F10807BD4680BD00BF80B584B000AFF860B9607A60F868B9687A6802F085F807F11007BD4680BD00BF80B584B000AFF860B9607A60F868B96827
:400280007A6802F075F807F11007BD4680BD00BF80B483B000AF0346FB71FEE780B487B000AF786039604FF000033B614FF000037B612CE07B694FEA83037A68D3181B68B9
:4002C000BB60BB68FB73BB6823F0FF03BB6017E03B694FEA43033A68D3181B781A46BB68D3183A694FEA420239688A1852781A703B6903F101033B61FB7B03F1FF33FB735E
:40030000FB7B002BE4D17B6903F101037B617B690C2BCFD907F11C07BD4680BC704700BF80B582B000AF4FF48643C4F200034FF002021A704FF040234FF008021A704FF4BC
:400340008443C4F200034FF003021A7044F2A163C4F200034FF48472C4F600121278D2B21A7044F22223C4F200034FF008021A8044F22023C4F2000341F251221A804FF0D7
:400380000003FB704FF019037B6019E0FB784FEA4303DAB244F22523C4F200031B78DBB203F00103DBB21343DBB203F00303FB704FF4F07001F02CF97B6803F1FF337B6063
:4003C0007B68002B02D0FB78032BDFD17B68002B03D14FF00300FFF75BFF44F20403C4F200034FF480721A8044F20403C4F200034FF007021A7044F20603C4F200034FF094
:4004000000021A7044F20803C4F200034FF048021A7044F20403C4F200034FF000021A7044F20103C4F200034FF002021A7007F10807BD4680BD00BF80B483B000AF40F254
:40044000CF13C4F600131B78FB7145F66E03C4F20003FA7902F00702D2B21A7045F66F03C4F20003FA794FEA1212D2B21A7045F67603C4F200034FF044021A7007F10C0722
:40048000BD4680BC704700BF80B586B000AF72B644F2E863C4F2000344F2E862C4F200021278D2B242F00402D2B21A704FF00003FB7519E0FA7D13464FEA43039B184FEA99
:4004C000430342F2A032C0F200029B183B613B691A683B699B889BB210461946FFF7A8FEFB7D03F10103FB75FB7D082BE2D94FF00003FB7523E0FA7D13464FEA83039B18E5
:400500004FEA430342F2D832C0F200029B18FB60FB681B68BB60FB685B687B60FB681A7A5B7A4FEA032313437B807B88B86879681A46FFF79DFEFB7D03F10103FB75FB7D71
:40054000002BD8D042F2E430C0F2000042F21841C0F20001FFF7A2FE45F20303C4F2010345F20302C4F201021278D2B242F00202D2B21A7045F21303C4F2010345F2130247
:40058000C4F201021278D2B242F00202D2B21A7044F2A033C4F2000344F2A032C4F200021278D2B242F04002D2B21A7044F2C233C4F2000344F2C232C4F200021278D2B24A
:4005C00042F01002D2B21A7045F2C010C4F2000042F25441C0F200014FF00A02FFF748FE45F21210C4F2000042F26041C0F200014FF00802FFF73CFE45F22210C4F20000BA
:4006000042F26841C0F200014FF00802FFF730FE44F22233C4F2000344F22232C4F200021278D2B242F00802D2B21A704FF49043C4F200034FF001021A70FFF771FE4FF49C
:400640009043C4F200034FF081021A704FF00403C4F208034FF001021A70FFF7EDFE44F2B030C4F2000044F2A031C4F200014FF00E02FFF7EDFD07F11807BD4680BD00BF1F
:4006800080B485B000AF78600B467B804FF00003FB810DE07B8803F1FF337A68D3181B781A46FB89D318FB817B8803F1FF337B807B88002BEED1FB89C3F100039BB2184688
:4006C00007F11407BD4680BC704700BF80B485B000AF786039604FF00003FB730AE03B6803F1FF333B607A683B68D3181A78FB7BD318FB733B68002BF1D1FB7B184607F17E
:400700001407BD4680BC704780B485B000AF786039604FF00003FB730EE03B6803F1FF333B607A683B68D31803F1804303F500431A78FB7BD318FB733B68002BEDD1FB7B58
:40074000184607F11407BD4680BC704780B5CAB000AF00F0B9FF0346002B03D04FF0000001F0B2F83B46184600F0C0FF0346002B03D04FF0000001F0A7F848F21013C1F633
:40078000FF731B681B684FF000001946FFF79EFF034687F8273148F20C13C1F6FF731B681B7897F82721D31A87F8273197F82731C3F1000387F8273148F20C13C1F6FF7346
:4007C0001B681B7897F827219A4207D148F21013C1F6FF731B681B68002B03D14FF0000001F072F84FF0000000F05CF8C7F8200144F2FA63C4F200031B78DBB203F0C003AE
:40080000402B03D0D7F82031002B0AD044F2FA63C4F200034FF000021A704FF0000000F0D3F84FF0140000F0CFF800F005F807F59477BD4680BD00BF80B500AF44F2FA63D0
:40084000C4F200034FF080021A7001F049F880BD80B500AF44F2FA63C4F200031B78DBB203F0C003802B19D144F2FA63C4F200034FF000021A704FF001004FF0000100F0E3
:4008800027FC0346002B09D04FF001004FF0000100F01EFC0346184600F002F880BD00BF004700BF90B587B000AF0346FB71FB794FF00200194600F00BFC034603F101037F
:4008C0004FEA0324FB794FF00300194600F000FC0346E318FB604FF00003FB744FF00003BB74FB794FF00200194600F0F1FB034603F101034FEA03237B6113E07B691B7800
:40090000FB72FB7A002B05D0FB7AFF2B02D04FF00103FB74BA7CFB7AD318BB747B6903F101037B617A69FB689A42E7D3FB794FF00200194600F0CCFB034603F101034FEA14
:4009400003234FEAD3037B61FA684FF6C073C0F203039A4203D0FB684FEAD30301E04FF40043FB600BE07B6903F190431B78DAB2BB7CD318BB747B6903F101037B617A6950
:40098000FB689A42EFD3BB7CC3F10003BB74FA7913464FEA03639B1A4FEA032303F57F3303F570731B78DBB2BA7C9A4202D1FB7C002B02D14FF0060301E04FF000031846D2
:4009C00007F11C07BD4690BD80B5ADF56C7D00AF024607F107031A704FF00003A7F8AA334FF00003A7F8A8334FF00A0387F8A7334FF0000387F8A6334FF0000387F8A533F7
:400A000000F058FC62B64FF0000387F8AD3307F107031B78002B03D007F107031B7801E04FF0FF0307F5187107F28E3208464FF4967100F0B3FCC7F89C0307F107031B7807
:400A4000002B05D097F8A73303F1FF3387F8A73397F8A733002B03D0D7F89C33002BD6D1D7F89C33002B40F0CA82B7F88E33062B04D907F518731B78012B04D04FF0040394
:400A800087F8AD334EE007F51873DB784FEA03239AB207F518739B781343A7F8AA33B7F8AA3303F1050307F51872D35C4FEA03239AB2B7F8AA3303F1040307F51871CB5C9D
:400AC0001343A7F89A33B7F8AA3303F10702B7F88E339A4204D94FF0030387F8AD3321E0B7F8AA3303F1060307F51872D35C172B04D04FF0040387F8AD3313E0B7F8AA3365
:400B000003F104039BB207F5187210461946FFF7B7FD0346B7F89A239A4203D04FF0080387F8AD334FF00003A7F8AE3397F8AD33002B40F0588207F518731B7987F89933AF
:400B40004FF0040387F8AD3307F518735B78A3F131030A2B00F2358201A252F823F000BF8D0B0000CF0B0000C30F0000390C0000A30D0000C30F0000B70D0000130E000021
:400B8000390C0000650E0000A10F000097F8A533012B40F01B82B7F8AA33002B40F016824FF00000FFF77EFE0346002B14BF00230123DBB21A4607F518731A714FF001036D
:400BC000A7F8AE334FF0000387F8AD33FEE197F8A533012B40F0FC81B7F8AA33012B40F0F78197F89933032B00F2F2814FF00003A7F89633B7F89633DAB207F518731A71A7
:400C0000B7F896334FEA13239BB2DAB207F518735A7107F518734FF0FF029A7107F518734FF00302DA714FF00403A7F8AE334FF0000387F8AD33CBE107F518735B78342BEE
:400C400025D197F8A533012B40F0CD81B7F8AA33032B40F0C88197F899333F2B09D997F899335BB2002B04DB4FF01003A7F8A83303E04FF49073A7F8A833B7F8A83307F52C
:400C80009A7210464FF000011A4601F07AFB97F8A533012B40F09E81B7F8AA33022B40F29981B7F8A83307F59A72D118B7F8AA33A3F1030307F5187202F10702084611461D
:400CC0001A4601F055FBB7F8A823B7F8AA33D3189BB2A3F10303A7F8A83397F899333F2B0BD997F899335BB2002B06DB00F0CAFD4FF01003A7F8AA3303E04FF49073A7F897
:400D0000AA33B7F8A823B7F8AA339A4240D107F518739B794FEA03239AB207F518735B791343A7F8A83397F899333F2B1BD897F8A633002B17D107F10C0318464FF000019A
:400D40004FF4907201F01DFB07F10C034FF003004FF0FF011A464FF4907300F003FD4FF0010387F8A63397F89903B7F8A81307F59A72B7F8AA3300F0F5FC0346002B02D01C
:400D80004FF00A0301E04FF0000387F8AD3303E04FF0030387F8AD334FF00003A7F8A83318E197F8A533012B40F016814FF00003A7F8A83324E197F8A533012B40F00E81BC
:400DC000B7F8A823B7F8AA33D318B3F5967F1BD84FF0000387F8AD33B7F8A83307F59A72D118B7F8AA3307F5187202F10402084611461A4601F0BCFAB7F8A823B7F8AA3379
:400E0000D318A7F8A833E9E04FF0030387F8AD33E4E0B7F8AA33002B40F0E28007F5967242F27843C0F2000393E8030082E803004FF0010387F8A5334FF00803A7F8AE33DC
:400E4000B7F8AE3307F5187202F1040107F59672084611461A4601F08BFA4FF0000387F8AD33BDE097F8A533012B40F0BB80B7F8AA33032B40F0B68007F518739B794FEAB5
:400E800003239AB207F518735B791343A7F8943397F899333F2B14D997F899335BB2002B0FDBB7F894334FEA0313C7F89033D7F890034FF01001FFF727FC034687F8A433C9
:400EC00013E097F899334FEA0322B7F89433D3184FEA0323C7F89033D7F890034FF48071FFF7F4FB034687F8A43397F899333F2B27D897F8993303F510334FEA0322B7F883
:400F00009433D3184FEA4313C7F890334FF00003A7F8A23311E0B7F8A223D7F89033D3181B78DAB297F8A433D31887F8A433B7F8A23303F10103A7F8A233B7F8A2331F2BD2
:400F4000E9D997F89933032B19D1B7F89433FF2B15D14FF6D073C0F203031B78DBB297F8A423D31A87F8A4334FF6D173C0F203031B78DBB297F8A423D31A87F8A43397F834
:400F8000A433C3F10003DAB207F518731A714FF0000387F8AD334FF00103A7F8AE3321E04FF00000FFF77EFC0346002B06D144F2FA63C4F200034FF080021A7000F090FC93
:400FC00011E04FF0050387F8AD330CE000BF0AE000BF08E000BF06E000BF04E000BF02E000BF00E000BF97F8AD1307F51872B7F8AE33084611461A4600F012F800E000BFD4
:4010000007F107031B78002B3FF4FDAC97F8A533012B3FF4F8AC07F56C77BD4680BD00BF80B584B000AF396013460246FA71BB803B684FF001021A703B6803F10103FA7957
:401040001A703B6803F10203BA88D2B21A703B6803F10303BA884FEA122292B2D2B21A70BB8803F104039BB238681946FFF708FB0346FB81BB8803F104033A68D318FA89C6
:40108000D2B21A70BB8803F105033A68D318FA894FEA122292B2D2B21A70BB8803F106033A68D3184FF017021A70BB8803F107039AB207F10403386811461A464FF09603AA
:4010C00000F00EF90346184607F11007BD4680BD80B586B000AF02460B46FA71BB714FF00203FB74FB7903F1FF33062B74D801A252F823F04B1100006B1100008511000081
:4011000031110000A5110000BF11000011110000BA7913464FEA03639B1A4FEA032303F57F3303F576737B614FF00403FB745BE0BA7913464FEA03639B1A4FEA032303F5F8
:401140007F3303F2D2337B614EE0BA7913464FEA03639B1A4FEA032303F57F3303F2C1337B614FF00403FB743EE0BA7913464FEA03639B1A4FEA032303F57F3303F2C53362
:401180007B6131E0BA7913464FEA03639B1A4FEA032303F57F3303F2C9337B614FF00403FB7421E0BA7913464FEA03639B1A4FEA032303F57F3303F2D6337B6114E0BA79EC
:4011C00013464FEA03639B1A4FEA032303F57F3303F575737B6107E04FF0000000F074FB4FF000037B6100BFFB7C022B0ED17B6903F101031B78DBB2FB607B691B78DBB23D
:401200004FEA0323FA681343FB6021E07B6903F103031B78DBB2FB607B6903F102031B78DBB24FEA0323FA681343FB607B6903F101031B78DBB24FEA0343FA681343FB60E5
:401240007B691B78DBB24FEA0363FA681343FB60FB79022B04D0032B0FD0012B0DD021E0FB689BB24FEA03239AB2FB684FEA13239BB213439BB2FB6015E0FB684FEA1362AE
:40128000FB6803F47F034FEA13231A43FB6803F47F434FEA03231A43FB684FEA03631343FB6000E000BFFB68184607F11807BD4680BD00BF80B500AF48F2C410C1F6FF706D
:4012C0004FF0800100F004F948F24410C1F6FF704FF0000100F0DAF800F0FAFD80BD00BF80B586B000AFF8607A600A467A817B724FF001037B61FB68002B49D07B89002B2F
:4013000046D04FF010037B617B7A9BB21A464FEA8202D3184FEA43037B827B8948F24410C1F6FF70F9681A4601F022F87B687A891A807B89DAB248F26123C1F6FF731A709E
:4013400023E07B89DAB248F26023C1F6FF731B78DBB29A4211D148F26123C1F6FF734FF000021A7048F26023C1F6FF734FF000021A704FF000037B610AE04FF0010000F07B
:40138000C3FA7B8A03F1FF337B827B8A002BD8D17B69184607F11807BD4680BD80B586B000AFF8607A600A467A817B724FF001037B61FB68002B4FD07B89002B4CD04FF0FC
:4013C00010037B617B7A9BB21A464FEA8202D3184FEA43037B823CE048F25A23C1F6FF731B78DBB203F01003002B2AD048F25823C1F6FF731B787B747B7C9AB27B681A80D1
:401400007B7C9AB27B899A4238BF13469BB2F86848F2C411C1F6FF711A4600F0A9FF48F25A23C1F6FF734FF000021A7048F25823C1F6FF734FF000021A704FF000037B61EC
:401440000AE04FF0010000F05FFA7B8A03F1FF337B827B8A002BBFD17B69184607F11807BD4680BD80B483B000AF0346FB7144F6CA13C4F20003FA7902F07F02D2B21A70E9
:4014800007F10C07BD4680BC704700BF80B483B000AF78600B46FB707B68002B12D048F25423C1F6FF737A681A6048F26123C1F6FF73FA781A7048F26023C1F6FF734FF094
:4014C00000021A7007F10C07BD4680BC704700BF80B483B000AF78600B46FB707B68002B12D048F25C23C1F6FF737A681A6048F25923C1F6FF73FA781A7048F25823C1F681
:40150000FF734FF000021A7007F10C07BD4680BC704700BF80B400AF48F26023C1F6FF734FF000021A70BD4680BC704780B400AF48F25823C1F6FF734FF000021A70BD4695
:4015400080BC704780B485B000AF0346FB7145F21013C4F200031B78DBB223F04003FB7345F21013C4F20003FA794FEA8212D2B202F04002D1B2FA7B0A43D2B21A7007F15E
:401580001407BD4680BC704780B485B000AF0346FB7145F21013C4F200031B78DBB203F07F03FB7345F21013C4F20003FA794FEAC212D1B2FA7B0A43D2B21A7007F114073E
:4015C000BD4680BC704700BF80B485B000AF0346FB7145F22013C4F200031B78DBB223F01003FB7345F22013C4F20003FA794FEA0212D2B202F01002D1B2FA7B0A43D2B25E
:401600001A7007F11407BD4680BC7047000000000230800800F0058000BF013800467FF4FCAF7047EFF3108072B6704780F31088704700BFAFF3008080B582B000AF00F0DB
:40164000F1F94FF0FF337B6000F054FB0346002B31D14FF0010000F007FB0346072B27D148F26420C1F6FF704FF0020100F006FA0346022B12D14FF000037B6003E04FF02C
:40168000010000F065F944F22273C4F200031B78DBB203F00203002BF1D009E044F22273C4F200031B78DBB203F00203002BD7D000F064FB02E04FF004037B607B68184669
:4016C00007F10807BD4680BD80B582B000AFFFF7B3FF78607B68002B02D1FFF7ADFF78607B68184607F10807BD4680BD80B584B000AF78604FF00003FB6000F093F97B683E
:40170000002B0DD148F24423C1F6FF731A6848F24423C1F6FF731A604FF00103FB601AE000F0E8FA0346002B0DD048F24423C1F6FF731A6848F24423C1F6FF731A604FF086
:401740000403FB6007E048F24423C1F6FF737A681A6000F013FBFB68184607F11007BD4680BD00BF80B586B000AFBA600246FA730A46BA81FB8000F0BDFA0346002B78D1DA
:40178000FA7BFB881046B9681A4600F0A9F978617B69072B6AD103E04FF0010000F0D8F844F22273C4F200031B78DBB203F00203002BF1D044F22273C4F200031B78DBB28F
:4017C00003F00203002B0ED044F22273C4F200031B78DBB24FEA9303DBB2002B03D14FF000037B6102E04FF0FF337B617B69002B3CD148F26423C1F6FF731A7848F2642343
:40180000C1F6FF735B78F87BB98900F0C7F978617B69072B2AD103E04FF0010000F098F844F22273C4F200031B78DBB203F00203002BF1D044F22273C4F200031B78DBB28E
:4018400003F00203002B0ED044F22273C4F200031B78DBB24FEA9303DBB2002B03D14FF000037B6102E04FF0FF337B6100F086FA02E04FF004037B617B69184607F118074E
:40188000BD4680BD80B400AF44F2AC33C4F2000344F2AC32C4F200021278D2B242F01002D2B21A7044F2BC33C4F2000344F2BC32C4F200021278D2B242F01002D2B21A70F1
:4018C000BD4680BC704700BF80B483B000AF0346FB7101BE07F10C07BD4680BC704700BF80B400AF44F2F663C4F2000344F2F662C4F200021278D2B242F00102D2B21A7027
:40190000BD4680BC704700BF80B582B000AF78600BE048F22013C1F6FF731B681846FFF777FE7B68A3F500437B607B68B3F5004FEFD848F21813C1F6FF731B687A6802FB0D
:4019400003F31846FFF764FE07F10807BD4680BD80B582B000AF0346FB80FA8848F21C13C1F6FF731B7803FB02F31846FFF750FE07F10807BD4680BD80B584B000AF0346B6
:401980003960FB714EF60853CEF200031B68FB60FB791F2B03D94FF00000FFF795FFFB7903F01F0303F110034FEA8303FA68D3181B68BB60FB7903F01F0303F110034FEA7C
:4019C0008303FA68D3183A681A60BB68184607F11007BD4680BD00BF80B582B000AF02460B46FA71BB71BB79072B03D94FF00000FFF76AFFFB791F2B03D94FF00000FFF774
:401A000063FFFB7903F01F0303F1604303F56443BA794FEA4212D2B21A7007F10807BD4680BD00BF80B582B000AFFFF7FBFD0346FB7144F2A033C4F2000344F2A032C4F278
:401A400000021278D2B242F00802D2B21A7044F2B033C4F2000344F2B032C4F200021278D2B242F00802D2B21A70FB791846FFF7DDFD07F10807BD4680BD00BF80B584B001
:401A800000AF78600B46FB704FF00003FB731DE04FF00100FFF75CFF00E000BF44F22273C4F200031B78DBB203F00103002BEFD0FB7B7A68D21844F22073C4F200031B782A
:401AC000DBB21370FB7B03F10103FB73FA7BFB789A42E2D3FB7B184607F11007BD4680BD80B485B000AF396013460246FA71BB804FF00703FB6044F22273C4F200031B78AB
:401B0000DBB203F00203002B3ED044F22073C4F200034FF0B6021A7044F22073C4F200034FF0D5021A7044F22073C4F200034FF002021A7044F22273C4F200031B78DBB2CF
:401B400003F00203002B1BD144F22073C4F20003FA791A704FF000037B810CE044F22073C4F200037A8939688A1812781A707B8903F101037B817A89BB889A42EED306E010
:401B80004FF00903FB6002E04FF00403FB60FB68184607F11407BD4680BC704780B485B000AFF871B980BA71FB704FF00703FB6044F22273C4F200031B78DBB203F00203A2
:401BC000002B46D044F22073C4F200034FF0B6021A7044F22073C4F200034FF0D8021A7044F22073C4F200034FF005021A7044F22273C4F200031B78DBB203F00203002B63
:401C000023D144F22073C4F20003FA791A7044F22073C4F20003BA884FEA122292B2D2B21A7044F22073C4F20003BA88D2B21A7044F22073C4F20003BA791A7044F22073D4
:401C4000C4F20003FA781A7006E04FF00903FB6002E04FF00403FB60FB68184607F11407BD4680BC704700BF80B485B000AF0346FB714FF00703FB6044F22273C4F2000322
:401C80001B78DBB203F00203002B29D044F22073C4F200034FF0B6021A7044F22073C4F200034FF0E1021A7044F22073C4F200034FF00E021A7044F22273C4F200031B7845
:401CC000DBB203F00203002B06D144F22073C4F20003FA791A7006E04FF00903FB6002E04FF00403FB60FB68184607F11407BD4680BC704780B582B000AF4FF004037B60CE
:401D0000FFF790FC0346FB7048F24823C1F6FF731B78002B28D148F24823C1F6FF734FF001021A704FF000037B604FF00403C4F208031B6803F00103002B15D04FF004035A
:401D4000C4F208034FF00402C4F20802126822F001021A6000BF00BF00BF48F24C23C1F6FF734FF001021A60FB781846FFF75EFC7B68184607F10807BD4680BD80B582B0B9
:401D800000AFFFF74FFC0346FB7148F24823C1F6FF734FF000021A7048F24C23C1F6FF731B68012B15D14FF00403C4F208034FF00402C4F20802126842F001021A6000BF8A
:401DC00000BF00BF48F24C23C1F6FF734FF000021A60FB791846FFF729FC07F10807BD4680BD00BF80B500AF44F6D613C4F200034FF001021A7044F6C813C4F200034FF04C
:401E000081021A7044F6DB13C4F200034FF003021A7044F6DC13C4F200034FF000021A704EF28013CEF200034FF400421A604FF00F004FF00701FFF7CFFD4FF00F0041F6C8
:401E40000971C0F20001FFF797FD48F26623C1F6FF734FF010021A70FFF75CFBFFF766FB48F25A23C1F6FF734FF000021A704FF00800FFF7F7FA80BD80B582B000AFFFF71E
:401E8000D1FB0346FB7144F2A533C4F2000344F2A532C4F200021278D2B242F00402D2B21A7044F2B533C4F2000344F2B532C4F200021278D2B242F00402D2B21A70FB794D
:401EC0001846FFF7B3FB07F10807BD4680BD00BF80B500AF48F25023C1F6FF731B78002B08D1FFF77FFF48F25023C1F6FF734FF001021A70FFF7C0FF4FF46143CEF2000314
:401F00004FF400421A6080BD80B582B000AF44F6D713C4F200031B78FB7148F26623C1F6FF731B78DBB203F04003DBB2002B40F0F48148F26623C1F6FF731B78DBB203F0D5
:401F40001003DBB2002B00F0E181FB7903F02003002B09D1FB7903F00103002B3DD0FB7903F00803002B38D048F26623C1F6FF731B78DBB2112B30D144F6D613C4F2000348
:401F800044F6D612C4F200021278D2B222F01002D2B21A7048F25A23C1F6FF731B78DBB223F02003DAB248F25A23C1F6FF731A7048F25A23C1F6FF731B78DBB243F0100395
:401FC000DAB248F25A23C1F6FF731A7048F26623C1F6FF734FF010021A70FB7903F00103002B00F09A81FB7903F00803002B00F09E8044F6D813C4F200031B78DBB203F0E7
:402000000103002B68D048F26023C1F6FF731B78DAB248F26123C1F6FF731B78DBB29A4236D244F6D813C4F2000348F25422C1F6FF72116848F26022C1F6FF721278D2B228
:402040008A181278D2B21A7044F6D713C4F200034FF014021A7048F26023C1F6FF731B78DBB203F10103DAB248F26023C1F6FF731A7048F25A23C1F6FF731B78DBB243F03D
:402080000203DAB248F25A23C1F6FF731A701BE044F6D813C4F200034FF0FF021A7044F6D713C4F200034FF014021A7048F25A23C1F6FF731B78DBB243F00603DAB248F2C4
:4020C0005A23C1F6FF731A7048F26623C1F6FF734FF012021A7020E144F6D713C4F200034FF010021A7048F26623C1F6FF734FF011021A7048F25A23C1F6FF731B78DBB266
:4021000043F02003DAB248F25A23C1F6FF731A7044F6D613C4F2000344F6D612C4F200021278D2B242F01002D2B21A70F5E048F26623C1F6FF731B78DBB2112B4DD148F2C8
:402140005823C1F6FF731B78DAB248F25923C1F6FF731B78DBB29A4229D244F6D813C4F200031B78BB7144F6D713C4F200034FF010021A7048F25C23C1F6FF731A6848F2D3
:402180005823C1F6FF731B78DBB2D318BA791A7048F25823C1F6FF731B78DBB203F10103DAB248F25823C1F6FF731A70B5E044F6D713C4F200034FF000021A7048F25A23D5
:4021C000C1F6FF731B78DBB243F04003DAB248F25A23C1F6FF731A709FE048F26623C1F6FF731B78DBB2122B40F08B80FB7903F00203002B53D148F26023C1F6FF731B78F3
:40220000DAB248F26123C1F6FF731B78DBB29A4228D244F6D813C4F2000348F25422C1F6FF72116848F26022C1F6FF721278D2B28A181278D2B21A7044F6D713C4F20003FD
:402240004FF004021A7048F26023C1F6FF731B78DBB203F10103DAB248F26023C1F6FF731A705AE044F6D813C4F200034FF0FF021A7044F6D713C4F200034FF004021A7007
:4022800048F25A23C1F6FF731B78DBB243F00403DAB248F25A23C1F6FF731A703DE044F6D813C4F200034FF0FF021A7044F6D713C4F200034FF000021A7048F25A23C1F613
:4022C000FF731B78DBB223F00203DAB248F25A23C1F6FF731A7048F25A23C1F6FF731B78DBB243F00103DAB248F25A23C1F6FF731A7048F26623C1F6FF734FF010021A704A
:402300000BE04FF00000FFF7DFFA06E048F26623C1F6FF734FF010021A7007F10807BD4680BD00BF38B50E4D0E4B0024E81A8510AC4205D00B4951F8242090470134F7E707
:4023400000F09EF80849094A541AA5100024AC4205D0054B53F8240080470134F7E738BD8C2400008C2400008C2400009424000010B50023934203D0CC5CC4540133F9E7EF
:4023800010BD82180346934202D003F8011BFAE770470000BE000000D824000000000000C84900401900005100401000305100404000F0510040100000000140001000145B
:4023C0000140000800400140000A004C01400002005001402000000060520040702400000600000001150140011B01400242014001430140034401400145014001460140E8
:40240000014701400148014002490140084C0140064D014001510140EA01EA013E10CE20961010101420C40C9830983098309610AA10EA8010401320148078107C20983040
:40244000C40EDE0378407C8098C0AB20DC01DE0403C0000030000000300030000000000000C0C000000000000010100000000000203000003000000069E0112E0014010102
:40248000F8B500BFF8BC08BC9E467047550000007D010000F8B500BFF8BC08BC9E46704731000000B82400000881FF1F20000000400100000000000000000000942300007F
:4024C0009823000000366E01C05D0000180000000000E02E000000000000000000000000000000000000000000000000000000000000000000000000000000000000000039
:402500000080002011250000693A0000693A000008B501F0B1FA000010B5054C237833B9044B13B10448AFF300800123237010BD9081FF1F000000003C500000084B10B5B1
:402540001BB108480849AFF300800848036803B910BD074B002BFBD0BDE81040184700BF000000003C5000009481FF1F0881FF1F00000000094B712283F84620422283F820
:4025800047200A2283F84820052283F84320002283F84420032283F845207047E081FF1F10B50024054B0022234483F849200120013401F063FE142CF4D110BDE081FF1FC5
:4025C00038B501F0C5FD134B00221C46DA711A221A720E251048002100F056FD013DF9D194F849100C48890941F0040100F04CFD0A4CE51C217814F8013F890041EA931181
:402600000548C9B200F040FDAC42F3D1BDE8384001F090BDE081FF1FBC9AFF1F2982FF1F08B502F029F84FF41C70012102F030F802F070FA00F0D4FD02F008F901214FF48C
:402640001C7002F00FF902F095FB00F0D3FE044802F07AF902F0C2F9BDE8084000F02ABFE933000038B5184B1A78012A2BD100241C70164B1A681D462AB341F2F4418A4241
:4026800020DC2B689C42124B09DA124A2344A25C012083F8492001F0F1FD0134F1E70B4900220A602112D97199730B4901200A600A491C7208601978DC7341F0030119708C
:4026C0009A7038BD1C6038BD8CB4FF1F109DFF1FE081FF1F1C9DFF1FE49AFF1FB89AFF1F2DE9F843A04CA14DE378A778342B2B7094F8079094F808800CD003D8022B09D04C
:40270000052B02E0662B05D0692B0CD01AE02B78662B29D102F02AF908B9FFF781FFBDE8F84300F051BF924E33785BB19148052101F058F801F0CEFB8F4A002333701360BA
:4027400001F0C0FB08EB0926042F00F20A8101A353F827F00F270000CD270000D52700007F2800002F29000005D8022BD2D0342B40F0F780CEE7692B1DD06A2B0CD0682BC4
:4027800040F0EF80012002F06DF90C2000F0EEFB012000F095FB47E0012002F063F90A25607A012100F0CEF9013DF9D1BDE8F843002002F057B9012002F054F90A25607A70
:4027C000012101F09DF8013DF9D1EFE7BDE8F84301F0C0BE2B78062B0BD005D8042B16D0052B29D0BDE8F883343B042B32D9BDE8F883012002F036F9607A002100F0A2F989
:402800000028D3D1584B9B78022BF5D0CEE7012002F028F9FFF7C4FE0C2000F0A7FB002000F04EFB0028FAD0002002F01BF9BDE8F843012001F036BC012002F013F9607A77
:40284000002101F05DF80028B0D1474B9B78022BF5D0ABE7494B1A6832B9494B1968012902D11A6000F08CFF464C23781BB900F069FF01232370BDE8F843FFF7F3BE2B78DD
:4028800013B93A4B06221A70637A13B9364B1A225A722B78362B1FD00ED8052B26D005D8032B2DD0042B17D0BDE8F883062B30D0352B25D0BDE8F883672B21D005D8372B3E
:4028C00014D0382B25D0BDE8F883692B0ED003D36A2B1ED0BDE8F883012002F0DBF80C2000F044FB284800F0CFFA06E0012002F0D1F82548314600F075FF0020A07012E0FB
:40290000012002F0C7F8012001F0CCFBFFF758FEF3E7002002F0BEF81B48617A00F0D9F80023A3700120BDE8F84302F0B3B82B78343B042B15D8124B0127124D1F600023B7
:4029400023702B7813B900F0FDFE2F700E48314600F028FF0D4A002313600D4A13700223A370BDE8F88300BFE081FF1FCD81FF1F90B4FF1F0C81FF1F94B4FF1FB89AFF1F3B
:40298000E49AFF1FCC81FF1F2982FF1F109DFF1F8CB4FF1F70B562B601F02AFC2D4801F03FFC01F0C7FB2C4801F076FA01F01CFE2A4801F03DFE02F095FA294802F0C0FA5A
:4029C000284801F0FBFE01F0C5FC41F6D400264E0146324601F0CCFC01F0C6FA01210B460222224800F0D6FA012002F03BF8012002F050F80120002402F040F80820B47105
:402A000000F02CF9FFF7B6FD194B1A4D1C701A4B2C601C70194B1C70FFF702FE184B1C70184B1C70184B1C6002F006F8FFF758FE164B1B68012BF9D164242B68002BF5D13F
:402A40000A2001F007FC013CF7D1337843F003033370EBE70D420000E53D000011460000912A00005D470000E081FF1FBC9AFF1FD481FF1FE49AFF1FE89AFF1FCC81FF1FA6
:402A8000C4B4FF1FBCB4FF1FC0B4FF1FB89AFF1F08B5022001F006FB002002F06BFA02F061FA02F001FA02F039FABDE8084002F019BA08B5032001F0F5FABDE8084002F0F8
:402AC000EBB908B5012002F055FABDE8084002F0E3B9F0292DE9F04705468A4630DC022001F0E0FA002002F045FA052001F0B2FB05F1FF384FF000091D3518F8014F0127BB
:402B000009EB0706F6B2564507DD022001F0CAFABDE8F047002002F02DBA230602D5FFF7D0FF01E0FFF7C5FF40F206400137640001F0A4FB092FE4B2E2D1A845B146DCD1AB
:402B4000BDE8F0872DE9F04788B081460E4601F0C9F9074601F0CEF93C4B0022B9F1F00F82461A60984654DC0FB1002851D100252C468DF8005004EBC5034B453DDA87B92B
:402B8000DFF8CCA001F070FDCAF8007001F064FDDAF80030502B3CDC01F0A4F90128F7D11AE0BAF1000F18D1294F01F05DFDC7F800A001F051FD3B68502B2ADC01F09AF936
:402BC0000128F8D1C4F10703984008AB2B4413F8202C104303F8200C0134072CC1BF08AB01355B190024C8BF03F8204C01F07AF9074601F07FF98246BDE7164B4FEA292297
:402C0000DA7183F808901F462EB168464946FFF760FF002017E034461DF804203B1983F849200120013401F029FBAC42094EF3DD094B00221A603378012043F00303C8F829
:402C400000003370B27008B0BDE8F087B89AFF1FC881FF1FE081FF1FE49AFF1F10B5044610F0010018BF012001F0FCF904F0020303F0FF0003B1012001F0CAF904F004036C
:402C800003F0FF0003B1012001F0A0F804F0080202F0FF010E4B12B101221A6000E0196004F0100303F0FF0003B1012001F0EEF904F0200303F0FF0003B1012001F07AF8DB
:402CC00014F0400F034B14BF002201221A6010BDDC81FF1FD081FF1F10B501F0BBF9012814BFFE24FF2401F0A5F9012818BF04F0FD0401F099F9012818BF04F0FB042046DF
:402D000010BD000038B5174B0024187848B341F287321C70144B154D1B68934202DCAC71204638BD49F63F42A3F59C53083B934220460BD801F0A2FE204601F093FE20465A
:402D400001F0A8FEC623AB71032038BD01F096FE204601F087FE204601F09CFE9923AB71052038BDBCB4FF1FC0B4FF1FE081FF1F10B501F067F910F1FF3418BF012401F085
:402D80007DF901281CBF44F00204E4B2204610BD38B50A4C6578E9070FD5AA0702D56079FFF75CFF2B0706D500236370044B01221A6000F0E5FC0023637038BDE081FF1FC6
:402DC000E49AFF1F38B501F059F92A4C18B923688BB1002010E001F035F918B9264B1B68012BF4D001F02EF9012809D1224B1B68002BECD004E0012001F0FEF8002005E032
:402E0000206800B1012001F0F7F8012001F036FEFFF762FF194D04462B7883420ED0642001F02CFAFFF758FF844201BF144B2C701A781C7104BF42F005021A70FFF798FF2A
:402E4000104D04462B7883420ED0642001F016FAFFF78EFF844201BF094B2C701A789C7204BF42F009021A70FFF74CFF08B1044BD87238BDD081FF1FDC81FF1FD481FF1FD8
:402E8000E081FF1FE89AFF1FF8B50646002001F0E9FD002001F0FEFD1425741E06F10B0714F8010F01F09CF8BC42F9D1013DF4D1012001F0D7FDBDE8F840012001F0EABD3B
:402EC000F0B587B0064601F05DF820284FF000043FD1224F01F0C8FB25463C6001F0BCFB01F050F8202809D101F054F8022800D025B106AB2B4403F8140C01353B68B3F5D1
:402F0000FA6F28DC0B2DEBDD154BED0000241D72DC711D4601AF1EB13846FFF7B5FF18E034463A5D2B1983F849200120013401F0A5F90C2C0A4EF4D101F040F8094B0124C0
:402F40001C60094B00221A603378B27043F003033370204600E0002007B0F0BDC881FF1FE081FF1FB89AFF1FE49AFF1F38B5084B05461A781C46824209D00C2803D01A281B
:402F800004D1012000E0002001F08CF8257038BDB49AFF1F80E8060083600022022108238282C2828161C360C26102627047838A10B59BB204460BB3C369013B002BC36186
:402FC0001CDC438ADB074CBF0220032001F06AF8638AC3F34E036382A38A013B9BB2A382A38A9BB233B1A36923F00203A3610323E36103E0A36943F00203A36100F072FF57
:40300000E28A52B9002832D104232362A268E3681A4463681344E38210BD236A013B002B236224DC28B1238A6FEA43436FEA53432382238A013A5B0892B22382E282A2B9D6
:40304000A2686168C2F10702002918BF013A1341DBB26362A36913F0010FA36914BF43F0040343F00103A36110BD0323236210BD030943EA00135840C0B280EA900080EA6E
:40308000500000F001007047F8B546684A00012E054697B2846805D1C8B2FFF7E9FFBAB238B109E0022E0DD1C8B2FFF7E1FFBAB210B14FF4007301E04FF44073A3409BB210
:4030C000134306E0C36801212344994047EA01039BB2AA699207FCD572B6AA6922F00202AA6162B66B820323EB61EB681C440EB1023400E00134A4B2AC82F8BD10B501F089
:403100004DFE830643D501F043FE214A214913687F2B06DC0C78012C03D11F4CE054013300E000231360136843B9532806D11A4A01231070164A0B701360E0E70978154CFF
:403140000129DCD1022B02D1144B1870D7E7032B02D1124B9870D2E7042B0DD10F49C8704B88581F7B2803D900234B8013600CE0094A82F88030C2E7C1DD084AB2F902201E
:403180009342BCDD064B197000232370B7E710BD109DFF1F789CFF1F769BFF1F7A9CFF1F6D9BFF1F70B5054690F880200B4B802A83F85F201E4684BF802380F880300024F8
:4031C00095F880309C4208DA2A5D331983F86120012001F053F80134F2E770BDE081FF1F70B501F00BFD0024064D0026631983F861600120013401F041F8802CF4D185F80B
:403200005F6070BDE081FF1F08B5012001F0FAFA012001F003FB01F041FD0D4B032083F85D0001F017F80B480378532B06D190F8801001F011FD052001F00CF801F01EFD6E
:40324000002001F0EBFABDE80840012001F0DABAE081FF1F829CFF1F10B5104B104C93F85F101A46802986BF802384F8803084F8801094F8801000238B4205DAD01890F810
:403280006100E0540133F7E7012384F88130FFF7BBFF002384F8813010BD00BFE081FF1F829CFF1F2DE9F04101F07CFC062855D9072401F03DFC5328054603D0013CF8D1CF
:4032C000BDE8F08101F034FC254C207001F030FCA07001F02DFCE07001F02AFC618800F003030AB2062A20716371264636DD1D4B802A1D70257818715D70A5789D70E57820
:40330000DD701D4605DDFFF76BFF00236380BDE8F08183F880105C1D671BB6F90230DFF840809F420EDA01F03DFC0028F5D001F0FFFBB8F9023004F8010B013B9F42EBD172
:4033400088F806000748FFF72DFF074A92F85E3043F0020382F85E30BDE8F081BDE8F0816E9BFF1FEA9AFF1FE081FF1F013808B5062817D8DFE800F004070A0C0E1012001E
:403380004FF41C700BE040F2371008E09B2006E0332004E0192002E00C2000E00520012101F076F9BDE8084001F066B970B5064690F880300B4C002584F8E23096F880305E
:4033C0009D4208DA725D631983F8E420012000F055FF0135F2E794F85E3043F0200384F85E3070BDE081FF1F014B1B78704700BF6364004038B501F0D9FC0B4B00241D46BC
:4034000093F85E2083F8E24022F0200283F85E202B19002283F8E4200120013400F02EFF802CF5D138BD00BFE081FF1F08B5012001F07EFA012001F0FDF901F007FD032055
:4034400000F008FF0A480378532B06D190F8801001F0CAFC052000F0FDFE01F0E9FC002001F0E8F9BDE80840012001F061BA00BFF79BFF1F013808B5062817D8DFE800F039
:4034800004070A0C0E1012004FF41C700BE040F2371008E09B2006E0332004E0192002E00C2000E00520012101F0DCF9BDE8084001F0CCB910B50E4C204601F0E7FC204672
:4034C00001F0D2FC0120FFF7D5FF01F053FC01F0AFFC002001F0AEF9012001F029FA054A00231370044A1370044A136010BD00BFFD3000006D9BFF1F789CFF1F109DFF1FF6
:4035000010B5134B134A93F8E2101C46802911D800238B42084605DAE01890F8E400D0540133F6E7802803D0002313540130F9E782F8801092F880304BB1002001F092FAF1
:40354000FFF774FFBDE81040012001F08BBA10BDE081FF1FF79BFF1F90F8803010B5802B0B4C88BF802384F8803094F880200023934203DAC15CE1540133F9E7012384F87E
:403580008130FFF741FE002384F8813010BD00BF829CFF1F10B5094B1A781C46012A0BD1074B08481B78662B02D1FFF7D5FF01E0FFF7FCFE0023237010BD00BF6D9BFF1F5D
:4035C000CD81FF1F769BFF1F10B51D4C94F8E13073B1022B07D0042B0AD194F8E300FFF749FF022302E0FFF78BFF032384F8E13094F85D305BB1022B07D0042B07D1104BC1
:4036000093F86000FFF7B2FE01E0FFF725FE94F85E309A0606D40A4B93F8E130022B01D0FFF7B8FF94F85E309B0708D4044B93F85D30022B03D0BDE81040FFF733BE10BD27
:40364000E081FF1FF8B501F0A9FB830668D501F09FFB41F2F34233490B680F4693422EDC314AD0548BB912783048202A027026D004D80C2A23D00E2A21D0F8BD382A4FD3AF
:403680003A2A1CD95C2A1AD0F8BD012B17D15278274C12F0800F27480AD02370264B02F07F021A6000230360244B02321A6003E0002302322370026002230B60F8BD1C4AF3
:4036C0001C4C1278012A15D11B4E3068002811DD012B0FDD144A2568D25C013802EB05252560306030B9154A12682A4422600AB93A60F8BD2268934205DC41F2F4408342EA
:40370000DCBF01330B60002A9DD00B68934203DA41F2F342934296DD094B01221A7092E7F8BD00BF109DFF1F1C9DFF1F049DFF1F0C9DFF1F149DFF1F089DFF1F189DFF1F68
:403740008CB4FF1F10B50C4C204601F09FFB204601F08AFB0620FFF78DFE01F00BFB01F067FB002001F066F8012001F0E1F8034B00221A7010BD00BF453600008CB4FF1F57
:40378000044A00231360044A1370044A1360044A13607047109DFF1F8CB4FF1FB89AFF1F149DFF1F38B50C460546012001F042F801F02CFB01F04AFB142000F05FFDE1B27C
:4037C000284601F011FB782000F058FD01F030FB002001F02FF8FFF7D3FFBDE8384001F0E5BA00002DE9F041033114298CB0A8BF14210C46054600F06DFB3F4B4FF0000862
:4038000083F800803D4B6E46C3F8008000F05AFB012000F047FC6F4642464146A14247DA00239E46685C06F811307B7010F0800F06D012B943F0020308E043F0010302E057
:403840001AB943F00303012200E00022BEF1030F18BF9B000EF1010E18BFDBB24000BEF1040FC0B2E2D106F8113000239E4610F0800F06D012B943F0020308E043F001037E
:4038800002E01AB943F00303012200E00022BEF1030F18BF9B000EF1010E18BFDBB24000BEF1040FC0B2E2D17B7001310237B5E737466400BB1BA34215DA00233D784FF095
:4038C000080807F8013B2B064CBF0220032000F0E9FB4FF4C87000F0D1FC6D00B8F10108EDB2F0D1E6E7022000F0DCFBA5200CB0BDE8F04100F0AEBC90B4FF1F94B4FF1F42
:403900002DE9F04F534E8FB0814600200C4601F031FB002333600096002503AAD5540133142BF9D12CB100F09FFE4B4B1D6000F093FE4FF0000847464646012505EBC6003E
:4039400048454CDC012C07D1434B1A68B2F5FA6F02DD0020186079E0DFF808B1019000F045FFDBF800A000F03BFFBAF1000F0198E6DD34B100F078FE374A0020106000F049
:403980006BFE00F033FF0022CBF80020019200F027FF019A072DC4BF01361546B8F1010F07D1BAF10E0F07DDBAF13F0F17DC013511E0BAF10E0FC1DC7FB1B846C5F1070248
:4039C0000EAB07FA02FE9A1912F82C0C01354EEA000002F82C0C0027B0E70127AEE71F4B4FEA2922DA7183F8089000201D4694B1042E2BDD03468DF82000013303AA1A4482
:403A000012F8012C08A8142B1A54F6D13146FFF7E9FE00201AE003AA125D2B1983F849200120013400F02AFC142CDFF83080F2D198F80030012043F0030388F80030009B1E
:403A4000074A18600023136088F802300FB0BDE8F08F00BFB89AFF1FC881FF1FE081FF1FE49AFF1FB4B4FF1F08B501F0A7FA03680C2B00D1FEE7FEE708B51148114AC8B1A5
:403A8000A2F1100132C9234604391E1BAE4204D051F8046F43F8046BF7E71D4652F8041C5C1B8C4203D0002443F8044BF8E701381032E4E701F088FAFEF76CFFFEE700BF51
:403AC00001000000C850000008B5114A114B1A60114A136843F4007313600023032B98BF0E4A4FEA830094BF52F823100C490D4A0133302B1150F1D10B4B19780B4B19701C
:403B00000B4B1A6000F018F80A4B00221A6008BD0004FA050CED00E014ED00E000250000693A00000080FF1FBC7600400481FF1F08ED00E00081FF1FF8B572B6854A00248B
:403B4000137843F004031370834D062303FB0453002118689A88013401F067FA0A2CF3D1296C80227D4801F055FA80227C48D5F84A1001F04FFA002210467A4C830003F1B3
:403B80009043E15804EB420321F0FF05C9B20A4404EB420103F1904301F19041A133A33102338B4205D013F8036C13F8027CAF55F6E701302828E1D16B4A6C4C13786C4DE4
:403BC00043F002031370137C192643F0020313742378A2F5863243F040032370413A137843F010031370634B03F5756207CA03C52A8003F65C72B83507CA03C52A80D3F839
:403C0000680F5D4A2835106093F86C1F117103F5776207CA03C52A8003F67C72E83D07CA03C52A8003F68872083507CA03C52A8003F69472083507CA03C52A804F4A4B21A7
:403C40001170442182F880134D495F200A78A1F2A22142F0080281F8A222012281F880270A8018228A70888067208A71088140F2DF108A72888140F2E1408A7308824FF692
:403C8000FF708A7488828A75D3F8A02F3D4B00251A60262283F800224FF040220423137082F80032384B1B78DBB282F8A136374B4FF471621A8041F2512223F8022C344B5D
:403CC0004FF4F0701B7803F0010343EA450501F05FF9013E05F003053BD0032DEFD12D4B4FF480721A802C4907221A70482000220A7088701A70022203F8032C0422DA71EC
:403D0000264A274D137843F03F03137012F8013C43F0010302F8013C2378C12243F080032370204B1A7003F5F723012204331A701D4B1E4A1B78DBB203F007011B09117025
:403D400053701B4B44221A7094E80F0007C52B80F8BDFEE7E8460040405000008002014000060140A004000003500140A043004000510040A0040048CB510040DB16014020
:403D800022430040004100408901004922420040254200400440004006400040A2430040B043004000480040CF0100496E58004076580040044AC000137800F0080003F024
:403DC000F70303431370704720510040044A0001137800F0100003F0EF030343137070470051004038B500F0C7F9234B1B78362B03D8342B29D2052B03E0382B25D001D355
:403E0000692B2BD11D4B1A781D4692B11C4A137814460133DBB21E2B137002D1012001F0A9F82378232B04D9002001F0A3F800232B70144A13680133136041F28832934282
:403E40000CD1114B01221A7008E041F287310F4A136801338B42C8BF002313600C4B1B781BB10C4A136801331360FEF791FFBDE83840FEF7A7BF00BFCD81FF1FB8B4FF1FB7
:403E8000ACB4FF1F94B4FF1F90B4FF1FD881FF1FC4B4FF1FC0B4FF1F084A4FF40033136002F688321268E021C2F88400044A11706FF444710A441360704700BF80E100E018
:403EC00011E400E0024B4FF400321A60704700BF00E100E0024B4FF400321A60704700BF80E100E0024B1878C0F34000704700BF21510040024B187800F00100704700BF4B
:403F0000215100400A4B71221A700A4A00230621137002F85A1C472102F84A1C82F8093192F8F93003F0E70382F8F930704700BF816400408264004008B501F031F8094A32
:403F4000137843F020031370537843F01003537092F80A3143F0100382F80A31BDE8084001F022B89164004010B5054C23781BB9FFF7C8FF01232370BDE81040FFF7DCBFDD
:403F8000AC81FF1F024B187800F07F00704700BF62640040074B1B78DBB203F0200202F0FF002AB1044A13F01E0F107818BF0020704700BF626400404664004008B500F08B
:403FC000EFFF064B1A7842F001021A701A7802F0FE021A70BDE8084000F0E6BF96640040034B1B785B07FBD4024B1870704700BF6B65004040640040044A8000137800F0CD
:40400000040003F0FB0303431370704700510040044AC000137800F0080003F0F70303431370704700510040014B1878C009704701510040024B1878C0F38010704700BF67
:4040400001510040024B1878C0F34010704700BF01510040024B1878C0F30010704700BFF1510040044A4001137800F0200003F0DF03034313707047F0510040024B187851
:40408000C0F38010704700BF21510040044A8000137800F0040003F0FB0303431370704720510040014B1870704700BF75640040134A137803F001031370937803F0FC0364
:4040C0009370104B1A7802F0CF021A701A7842F030021A701A7802F0F0021A701A7842F00F021A70084A137843F0010313706A23A2F80330A2F80530044B08221A7070472A
:40410000004F00400B4F0040014F0040034F0040074A137843F001031370137C43F00103137492F85D3B43F0010382F85D3B7047A343004010B5054C23781BB9FFF7B8FFD7
:4041400001232370BDE81040FFF7E2BFAE81FF1F084A1378A2F65D3203F0FE0382F85D3B137803F0FE031370137C03F0FE031374704700BF004F0040014B1878704700BF42
:40418000034F0040024A137843F080031370704778650040014B1878704700BF68650040034B1B781B0702D5024B1B78F8E7704768650040486500400A4A08B58B2313709E
:4041C00002F8203C00F0ECFE074A137843F01003137000F0E9FEFFF7E3FF044B01221A7008BD00BF28650040986500408865004010B5054C23781BB9FFF7DEFF0123237075
:40420000BDE81040FFF7BEBFAF81FF1F08B50348FEF7CDFEBDE80840FFF7BCBFBC9AFF1F064A0123136002F688321268E0211064034A1170A2F540721360704780E100E024
:4042400000E400E0024A137843F0010313707047F646004010B50446B4F5004F064B05D9186800F095FEA4F50044F5E758686043BDE8104000F08CBE1881FF1F024B1B7A99
:40428000584300F085BE00BF1881FF1F054A00F01F00126800F1100352F8230042F82310704700BF08ED00E000F01F0000F16040490100F56440C9B201707047114B012214
:4042C00010B51A70812203F80E2C00240721382203F80C2C59719C710B4B4FF400421A600F20FFF7E1FF0F200849FFF7CFFF084B1C70084B1C70084B1C80084B1C80084B5A
:404300001C8010BDD649004080E100E0B9430000A8B4FF1FA0B4FF1F9CB4FF1F9AB4FF1F9EB4FF1F08B500F03BFE084A137843F004031370137C43F00403137400F034FE50
:40434000034B4FF400421A6008BD00BFA543004000E100E010B5054C23781BB9FFF7AEFF01232370BDE81040FFF7DCBFB081FF1F0A4B10B54FF400441C602AB1084B1A600A
:40438000084B1880084B1980084A00231380084A1380084B4FF400421A6010BD80E100E0A4B4FF1F98B4FF1F9EB4FF1F9CB4FF1F9AB4FF1F00E100E070B55B4B5B4A1878EE
:4043C000C0B2040710702CD5594D5A492A785A4C12F0010F18D05948594E0288366892B2B25CD2B22A7014221A700288554892B202800288013292B202800A7842F011025D
:404400000A70082222707DE010221A700A7842F012020A7001224C4922700A7842F0100228E0C1076ED544490C78013C072C62D8DFE804F0040B6122616161383C48007869
:40444000508010221A70022214E039485488007840EA042080B250803C4A128892B290421ED210221A70314A3448528802803548028004220A7045E0324935480C88008866
:40448000A4B280B284420BD229482D4C007810711020187008882468127980B2225416E000222EE010F0020F214A19D1254927480C880088A4B280B284420DD2204C088839
:4044C000246880B2205CC0B2107004221A700A88013292B20A8015E0FF211170042210E0FF201070134C00201870227802F0EF022270087006E000220A7010490A801149B5
:404500000A801A701B789B060CD50A4A137803F0EF031370084B00221A700B4A137803F0EF03137070BD00BFD7490040B281FF1FD8490040A0B4FF1FA8B4FF1F9CB4FF1F6C
:40454000A4B4FF1F9AB4FF1FD649004098B4FF1F9EB4FF1F024B40221A70FFF773BE00BFFA460040134A137803F001031370937803F0FC039370104B1A7802F0CF021A70E5
:404580001A7842F030021A701A7802F0F0021A701A7842F00F021A70084A137843F0010313701823A2F80330A2F80530044B08221A7070470C4F0040174F00400D4F004017
:4045C0000F4F0040074A137843F002031370137C43F00203137492F8693B43F0010382F8693B7047A343004010B5054C23781BB9FFF7B8FF01232370BDE81040FFF7E2BF63
:40460000B881FF1F014B1878704700BF0F4F004008B5FFF7F7FF044A136801331360034A13680133136008BDB0B4FF1FC881FF1F074A4FF48023136002F688321268E02126
:40464000C2F88800034A1170A2F212321360704780E100E012E400E0024B4FF480221A60704700BF00E100E0024B4FF480221A60704700BF80E100E0044A137843F00403B8
:404680001370137C43F0040313747047A2430040F0B52C4D2C4E2F78348807F00707A4B2A0424DD0294B1A78D2B26FB934B158B92B7843F040032B703080F0BD30802B78EA
:4046C00003F0BF032B70F0BD02F0040202F0FF060AB31F4F1F4A00254FF0040E157087F800E03D7117F8085C05F07F0507F8085C144D2D782D0700D568B9174D2C80072478
:404700001470147814F00104FBD11A7802F0FB021A70104A14701B780C4A5C070BD50E4B0029188014BF03220122013B1A701A78D207FCD4F0BD044B188013783343137031
:40474000F0BD00BF8A40004088400040A243004010400040014000400240004038B500F04BF8114B1B78052B03D0692B01D0372B19D10E4CFFF778FF0D4D23682B60FFF713
:404780006BFF2B683F2BDFBF0A4B00221A700A4BDCBF01221A70FFF767FF00232360BDE83840FFF759BF38BDCD81FF1FB0B4FF1FB4B4FF1FACB4FF1FB8B4FF1F064A08233D
:4047C000136002F688321268E021D064034A1170A2F203321360704780E100E003E400E0014B08221A60704700E100E0014B08221A60704780E100E0014B1878704700BF7A
:4048000067640040044A00F00100137803F0FE0303431370704700BFF0510040044A8000137800F0040003F0FB0303431370704730510040044A4001137800F0200003F053
:40484000DF0303431370704730510040044A137843F001031370137C43F0010313747047A1430040F0B52C4B2C4E1F78328807F0070792B290429E464CD0294D2C78E4B2A8
:404880006FB932B158B91A7842F040021A703080F0BD30801A7802F0BF021A70F0BD14F0010422D01F4F204B00264FF0010C1E7087F800C007F8046C17F80C6C06F07F063F
:4048C00007F80C6C9EF80060360700D568B9174E328007221A701A7812F00102FBD12B7803F0FE032B70104B1A702B780C4ADD070BD50E4B0029188014BF03220122013BA6
:404900001A701A78D207FCD4F0BD044B188013781C431470F0BD00BF0241004000410040A1430040144000400140004002400040044A4000137800F0020003F0FD03034341
:4049400013707047F0510040064A4023136002F688321268E0219065034A1170A2F206321360704780E100E006E400E0024B1868C0F38010704700BF00E100E0024A137847
:4049800043F080031370704770640040034B1B781B0702D5024B1B88F8E77047636400408468004008B540F60F63094A138022F8403C00F0F5FA074A137843F010031370FB
:4049C00000F0F2FAFFF7E2FF034B01221A7008BD44680040936400408364004010B5054C23781BB9FFF7DEFF01232370BDE81040FFF7C4BFB981FF1F70B500F0D9FA10F03D
:404A000001060A4D0A4C09D0002000F02BF801232B70084A00232370136070BD012000F021F801232E70237070BD00BFC4B4FF1FBCB4FF1FC0B4FF1F074A2023136002F62F
:404A40008832126805495165054AE02111706FF441710A441360704780E100E0F949000005E400E0044A8001137800F0400003F0BF0303431370704710510040044A0001A5
:404A8000137800F0100003F0EF0303431370704720510040044A137803F07F0343EAC010C0B21070704700BF1051004008B509490120FFF7EBFB01200721FFF7F5FB064B75
:404AC00000221A70054B72221A70202283F8002108BD00BFC14C0000BA81FF1F8A64004008B500F05DFA094A137843F02003137092F8003143F0100382F80031044B0222CC
:404B00001A60BDE8084000F04FBA00BF9A64004000E100E010B5054C63781BB9FFF7C6FF01236370BDE81040FFF7DABFBA81FF1F164B02221A60164A5388918890799BB25A
:404B400089B208B98B420FD01249C85C01339BB2B3F5807F28BF002353809379C0B28BB10B4B00229A710DE00B4B1B78DBB203F0200202F0FF002AB1084A13F01E0F10787E
:404B800018BF0020064B02221A60704780E100E0BA81FF1FC5B4FF1F6A6500404964004000E100E0124B02221A60124A5188938889B29BB2994206D19379002B14BF4FF498
:404BC0008070002010E05188938889B29BB299422BBF9088938880B2508825BF538800F58070181AC01A80B2034B02221A60704780E100E0BA81FF1F00E100E008B500F0AA
:404C0000CFF90B4B1A7842F001021A701A7802F0FE021A7000F0C8F9064B02211960064B00225A809A809A71DA71044B196008BD9964004080E100E0BA81FF1F00E100E077
:404C4000034B1B789B06FBD4024B1870704700BF6A6500405964004038B5074B5B784BB10139451E4418A54204D015F8010FFFF7E7FFF8E738BD00BFBA81FF1F054A13780B
:404C800003F0FE031370044B72221A70202283F800217047746500408A640040054B00221A70054A137843F001031370034B6F221A7070478A650040746500408A6400400E
:404CC000174B1B78DBB213F01E001FBF15490A7802430A709B0622D5134B14481978144BC9B21A8892B2815412490A7812B1124A012010701A88013292B21A801A8892B2E6
:404D0000FF2A82BF0A4A002010801A880B4B92B21B889BB29A42D3D101230B70D0E770476A650040BA81FF1F49640040C5B4FF1FBE81FF1FC081FF1FC181FF1FBC81FF1FE9
:404D4000024B72221A7020229A7070478565004008B500F025F9064A137843F020031370937843F010039370BDE8084000F01CB99565004010B5054C23781BB9FFF7E0FF82
:404D800001232370BDE81040FFF7E2BFC281FF1F014B1878704700BF47650040024B187800F07F00704700BF6765004008B500F0F7F8064B1A7842F001021A701A7802F081
:404DC000FE021A70BDE8084000F0EEB897650040034B1B789B06FBD4024B1870704700BF676500405765004038B5074B1B784BB10139451E4418A54204D015F8010FFFF731
:404E0000E7FFF8E738BD00BFC281FF1F08B500F0C7F8064B1A7842F002021A701A7802F0FD021A70BDE8084000F0BEB897650040044A137803F0FE031370034B72221A7031
:404E4000704700BF7665004085650040044A137843F001031370034B6F221A70704700BF7665004085650040064A1023136002F688321268E0211065034A1170A2F5417210
:404E80001360704780E100E004E400E0014B1B681865704708ED00E0024A137843F08003137070477B640040014B1878704700BF69650040014B1870704700BF7B64004038
:404EC000014B1870704700BF09650040034B1B781B0702D5024B1B78F8E7704769650040496500400A4A08B51823137002F8203C00F056F8074A137843F01003137000F076
:404F000053F8FFF7E3FF044B01221A7008BD00BF29650040996500408965004010B5064C6078FFF7CDFFA278044B1A70E078BDE81040FFF7BFBF00BFC381FF1F89650040E0
:404F4000064A0423136002F688321268E0219064034A1170A2F202321360704780E100E002E400E0024B1868C0F38000704700BF00E100E0044A4000137800F0020003F02A
:404F8000FD0303431370704700510040000000000230800803D000BF01380046FCD17047EFF3108072B6704780F31088704700BF014B1878704700BF60640040014B18689D
:404FC000704700BF8881FF1F0E4B70B51E460E4C0025E41AA410A54204D056F8253098470135F8E700F056F8084B094C1E46E41AA4100025A54204D056F82530984701351B
:40500000F8E770BDA0500000A0500000A0500000A850000010B5431E0A44914204D011F8014B03F8014FF8E710BD03460244934202D003F8011BFAE7704700000000000050
:40504000C84900401900004F0040180040510040300000000140800200030140000380060140800900140140000800400140000A004C0140000200500140200080020140D9
:40508000F012004880000006014070130048800043000000F8B500BFF8BC08BC9E4670473D250000C93A0000F8B500BFF8BC08BC9E46704719250000C85000000881FF1FF1
:4050C0008800000038340000000000000034E3FDA0000000000000000000C05D80BB000030000000006CDC0200000000000000000000000000000000000000000000000036
:40510000000000000000000090500000000000000000000000000000000000000000000000000000000000000000000000000000000000000000000000000000000000008F
:4051400000000000000000002881FF1F0000000000000000000000000000000000000000000000000000000000000000000000000000000000000000000000000000000068
:4051800000000000000000000000000000000000000000000000000000000000000000000000000000000000000000000000000000000000000000000000000000000000EF
:4051C00000000000000000000000000000000000000000000000000000000000000000000000000000000000000000000000000000000000000000000000000000000000AF
:40520000000000000000000000000000000000000000000000000000000000000000000000000000000000000000000000000000000000000000000000000000000000006E
:40524000000000000000000000000000000000000000000000000000000000000000000000000000000000000000000000000000000000000000000000000000000000002E
:020000040003F7
:40FFC000721125000024000000007E000000000000000200AB000200CDAB000000000000000000000000000000000000000000000000000000000000000000000000000090
:0200000480007A
:4000000000000000000000000000000000000000000000000000000000000000000000000000000000000000000000000000000000000000000000000000000000000000C0
:400040000000000000000000000000000000000000000000000000000000000000000000000000000000000000000000000000000000000000000000000000000000000080
:400080000000000000000000000000000000000000000000000000000000000000000000000000000000000000000000000000000000000000000000000000000000000040
:4000C0000000000000000000000000000000000000000000000000000000000000000000000000000000000000000000000000000000000000000000000000000000000000
:4001000000000000000000000000000000000000000000000000000000000000000000000000000000000000000000000000000000000000000000000000000000000000BF
:40014000000000000000000000000000000000000000000000000000000000000000000000000000000000000000000000000000000000000000000000000000000000007F
:40018000000000000000000000000000000000000000000000000000000000000000000000000000000000000000000000000000000000000000000000000000000000003F
:4001C00000000000000000000000000000000000000000000000000000000000000000000000000000000000000000000000000000000000000000000000000000000000FF
:4002000000000000000000000000000000000000000000000000000000000000000000000000000000000000000000000000000000000000000000000000000000000000BE
:40024000000000000000000000000000000000000000000000000000000000000000000000000000000000000000000000000000000000000000000000000000000000007E
:40028000000000000000000000000000000000000000000000000000000000000000000000000000000000000000000000000000000000000000000000000000000000003E
:4002C00000000000000000000000000000000000000000000000000000000000000000000000000000000000000000000000000000000000000000000000000000000000FE
:4003000000000000000000000000000000000000000000000000000000000000000000000000000000000000000000000000000000000000000000000000000000000000BD
:40034000000000000000000000000000000000000000000000000000000000000000000000000000000000000000000000000000000000000000000000000000000000007D
:40038000000000000000000000000000000000000000000000000000000000000000000000000000000000000000000000000000000000000000000000000000000000003D
:4003C00000000000000000000000000000000000000000000000000000000000000000000000000000000000000000000000000000000000000000000000000000000000FD
:4004000000000000000000000000000000000000000000000000000000000000000000000000000000000000000000000000000000000000000000000000000000000000BC
:40044000000000000000000000000000000000000000000000000000000000000000000000000000000000000000000000000000000000000000000000000000000000007C
:400480000000000000000000000000000000000000000000000000000000000000000000044F00400752004004640040066500404C00014033010140340201404A030140B6
:4004C00050040140590501401A060140570701406F0801405B090140510A01404B0B0140070D0140020F014052140140571501405B1601405A170140681801405B19014063
:40050000491A0140571B0140074001400E4101400A42014008430140034401400745014004460140034701401448014011490140084C0140064D01400D5001400351014074
:4005400001300A360D10163604E014C118401940602061307C108171823C830D8A728572873B880D890D8A3B8B0F09010B0229022B0531033304350237014041410545BE05
:40058000460C480749FF4AFF4BFF4EF04F44500C528059045A045B045C505D445F0166C06A406B0280278108821084068532870C880289018C048D3E91019201943995042C
:4005C00096069801990C9E389F12A03FA101A406A510A806A92CAB12AC07AD3CAE28AF02B026B101B21FB30EB51CB720BA08BB28BF40D602D713D804D904DB04DC44DD405A
:40060000DF01061507400EAA14011508168017101C401E101F08210222502310240D2509261127802B042C412F1837953B103C043DA03E824180430249884B0152805AA055
:400640005C016D206F2173407607771483488461850887208908C0F0C2F0C4F0CAF4CCF0CEF4D009D208D68C020103FF051407EA090A0BF40DFF0E02120115E71718198055
:400680001B601E02210423022567279829D82B272D3E2FC13001310133E0351E36023B283E41405449FF4AFF4BFF4F015018541C580459045A045B045C405D445F0160402F
:4006C000624064406540668068806A806C806E8001140382044209240F421014114019101B801D401E40212026112710280429982B802C012E122F103010334236083710FE
:40070000395C3A103B013D964102450249064B404C044E084F405001510259065A405E025F086201654067088140820186129048921093419508972098019D809E10A020B5
:40074000A101A280A5C0A644A706A902B680C09FC296C407CAFFCC6DCEFFD081D218D6CBD831E60401180320060307040B010C0C0D500E300FA01301140C1548161317A089
:40078000182B1A141B021D011E14200821012210260127012A022B012E23313F33C7343F353F392A3A2056085804590B5B045C945D905F018301852489198A028B668E0144
:4007C0008F1E9101920893809565971299799B029D04A144A204A567A608A708A803A964AA04AD01AF06B001B208B37FB401B606B780BE54BF04D608D804D90BDB04DC9456
:40080000DD90DF010108030204800510081009840D060F101140129013101514170118041D201E881F542101220823042401272029252C022E26300231403208332034020F
:40084000352436203740381039023A843C113E083F8058805E406301640166406D106F0178017C407D017E028240880489088B408E409048914092109508972898809910DA
:400880009C109D089E109F08A020A185A290A540A644A703AB40AD80B480B584B704C0C5C217C47FCAF7CCFFCEFFD618D818DE81E210E680EE0388108C088D028E108F0554
:4008C0009104920893029E08A204A601AA02AE02B004B101B304B418B502B603B706BE50D804D904DB04DC33DF01002001400410062007410B820D080E020F8810011110DC
:4009000012081305148016021724188019101B801D4C1E061F012255254427082C202D802E1032013614378038803D8A3F1045614C044D044E024F1258405A205F4064033D
:4009400066807D01808081408208830485848A108BC090089103921093059490950C96849B209C129D459EBE9F48A020A121A21EA406A542A620A761B101B240B404B702CA
:40098000C0F3C2F9C4FFCA70CC71CEF8D0B0D230D61CD810DE80E024030404010521060609030D630F1810011206131B157819631B101D181F6321022401256326062808BC
:4009C0002A022B0B2D4230033307340C377838223B883E014004454049FF4A074BFF4C404D204EF04F0550085608580459045A045B045C245D945F01604061A8624063206C
:400A000081048564860289248A018D449101920695E5971299F99B029DE79F08A31EA701A901AB06AD99AF66B204B382B603B77FB820BE50BF44C012C106C204C405C5DF62
:400A4000C6EBC70CC81FC9FFCAFFCBFFCC62CDA0CEF0CF41D00CD608D804D904DA04DB04DC02DD92DF01E640E702E910EA30EB10ED10EE10EF1200280404080109200B085C
:400A80000E801608170819881B101D1222042301254826802710280229092B882D042E812F08300131283280330135013604375038A839063A803B403DA03F0540024362F3
:400AC000450249824A244F0250805214560858A059045E406208640167027E507FA08104824090A891529287938C940495289608970298A099409A029B089C029D129E48D0
:400B00009F50A029A190A204A480A541A608A709B340B708C026C218C460CAFFCCFFCEFFD08DD20CD61ED812E601ECC00180020205C009400D3D0F02113F153F19201BC273
:400B40001DC81F0223C025C42702280129012B022D022E022FD031C034013602373F3E4056025712580459045B045C255D205F0180188112824084388511864389138D776B
:400B80008F80903991E892409313940795C89717997F9B809C809E049F3FA05BA220A324A507A67BA82BAA40AB3FAD12AE72B278B480B57FB607B780B980BA08BE10BF1002
:400BC000D280D804D904DB04DC22DD10DF01024004800586081009100C010E2210021208158016A0171019401B201D041E061F04214022C125802610284029042A802B0856
:400C00002C902D802E202F08300832023350344335043684371039683B023D803E913F045A08682869426A01705472107304740388308A028B019110940498A09A029D10B3
:400C40009E08A501A720A901AE08B404B720C038C2B0C4F3CAFFCCFFCEFFD602E020E280EA50EE408110911098A09A02B0A0B602E8408910E080018002400304043F080802
:400C800009390A420B400C3D0E020F7B1420152B16421740184219381A101B431D181F40210722C024042642283F2B722C012D5B2EC22F203040323F338034803578363F92
:400CC00037073B203E113F045203580B590B5B045C995D205F01801281018302841388688A938E2492BF9303947F968098119CF79D029F01A012A303A407A848AA97AEBF61
:400D0000B103B2C0B67FBB02BE44D602D711D804D904DB0BDC40DD90DF0100110104030204100621074009080A040C200D080E020F80115012A015601706180119201A40E4
:400D40001B441E101F802110222423012480278029402B842E01310832A034013780381039403B013C025E10680469806D146F6A7420762A770279017D0180408401850458
:400D8000860188018A148D40901091419204952C964099409A019B049D209E3A9F40A108A281A404A620A76EAC20B220B340C0FFC2F6C4FFCA8DCC9ECE8DD620DE81E00126
:400DC000E2A8E608EA01EE080002048F0670082009010C400D0110E7121814EC16131A9F1C7B1E8420032460270128012B012C832E1C3101327F34E039023A085203580B7E
:400E000059045B0B5C495D905F0181C0853E89408D018F3E913A93049520960197C499C29A019B049D049FD0A3C1A5C8A704A93EAD80B001B1C0B73FBE01BF40C035C10209
:400E4000C206C401C5DFC6CEC7B0C82FC9FFCAFFCBFFCC62CDA0CEF0CF41D00CD41BD604D804D90BDA0BDB0BDC90DD99DF05E640E702E910EA30EB10ED10EE10EF12020466
:400E800003080504068A09200B200D080E020F48155216201B011C101D041F1020022201250229042A802B482C202E1031493220330239563D803F104010411043804811F0
:400EC0004A804B2051205201534059205A426110620263026C026D406F04782079017D0182028410880289108B0191139214931094109548978099509A809C109D019E3E84
:400F00009F45A020A148A201A380A416A502A620A760AC40AE04C0F0C2F6C4F0CA6FCC0FCE3FD00ED20CD60DD80DDE85E280E613EA02031107A209080D010F1811011318E7
:400F40001520179718011A0A1B551C021D301E011FC623802604270829552BA22D082E042F1030043118338034033563360837073BA23E113F04401345EC4620480B49FF16
:400F80004AFF4BFF4F015018528054015604580B59045A045B045C495F016040624064406540668068806A806C806E808518872089488BA08D01915093A097049B019D010F
:400FC000A302A701AB01AF01B33FB5C7B928C051C5ECC602C807C9FFCAFFCBFFCF01D018D401D604D904DA04DB04DC20DD11DF01E040E240E440E540E680E880EA80EC804B
:40100000EE80081109010B080D200E0111801201162017401E411F2020282114240425012644270428122A012B082C012D202E0630083280331135903601370439683C8099
:401040003E183F02414046204740480149054D014F0451405240562059455D015E405F046202644077407F40831085208640886089608E0290289150928293C89404952863
:40108000962099529A1E9B199C029E40A029A180A2A0A311A414A501A640A70AAE04C2C0C4A0CAFFCCFFCEFED058D208D6DBD881DE80E280E480E610028104400688070454
:4010C00008100A880B010C740E0811101282130815091732180419021A881C021EFD1F0120882220247C287C2F0430803120327E33183401350337043E153F54541B560487
:40110000580459045B045C205D205F058083821C8460882089018CE78E189040940398019C7B9E84A002A48FA670A8ECAA13AE9FB0E0B27FB501BA08BF10D21CD401D80401
:40114000D904DB04DC02DD40DF010010014203140428068208010A800B090C400D140F40106812801401171519201A601C101F0220052102220827082B02318232203308FE
:401180003A143C203D1059205A425C605E015F0860856C806E066F2074407A087D207F08805282148480872088D08A038B048D108E808F019028917892829348963498207F
:4011C00099029A149B119C02A028A180A2A4A440A601A70AAF20B020B180B202B308C0FFC2FBC4FECA08CC0FCE26D6FDD80DDE04E220E410E620EA013040310834803601BE
:401200003880CCF0CE10302037105208831094809CC0A020A508A601A820CC30D420E220EA803E1083088A088E0194809CC0A508A609CE20E02083108B02948096109CC046
:401240009F08A508E02010101460C40C04080F209830B050C004C204EA059830A310B404EA0883109830A310170866086A808040824888408D089120948096109CC09F1A29
:40128000A508AD10C420D880DA40E280E680EA40031007025110614066088880894091209A089C809F12AA10C090D420D640D880EA8010401320148078107C209830C40E54
:4012C000DE0378407C8098C0AB20DC01DE04003E010108300A180B010C360D01101711011A141B011C171D0100FF013F03C0000040A01000600C18131803601C2840509540
:40130000009F00605000290000F5040000100000000A00057880021F2805030A0160789F0000000007FF780000008000000000105400000000EC002023FFFFFF008303013D
:40134000180000000100040004040404044400014000400040408000800080008000800000000000000000000000000000000000020000FF633A00C598FF6300F8FF000023
:4013800000001B00630F903000300B0A635398AC21000000030500FA003A04C542AC00538000073F78C078000200A888000000006401050002CE000003FFFFFF62A0F04125
:4013C0000C000000000008000B040404499400010000000000004002001030100010101200000000000000000000000000000000FD0000FF1F0001000000000030000000D4
:4014000030003000003000000020000000000000330000332300000000000000C00000CBCB00000000000000F30020DF1C0000000000000040000976764052000000000048
:401440000300180100000000000000000000000000000000000000000000000000000000000000000000000000000000000000000000000000000000000000000000000050
:40148000000000000000000000000000000000000000000000000000000000000000000000000000000000000000000000000000000000000000000000000000000000002C
:4014C00000000000000000000000000000000000000000000000000000000000000000000000000000000000000000000000000000000000000000000000000000000000EC
:4015000000000000000000000000000000000000000000000000000000000000000000000000000000000000000000000000000000000000000000000000000000000000AB
:40154000000000000000000000000000000000000000000000000000000000000000000000000000000000000000000000000000000000000000000000000000000000006B
:0200000490006A
:0400000000004005B7
:0200000490105A
:04000000BC90ACAF55
:0200000490303A
:020000005BFFA4
:0200000490402A
:4000000000000000000000000000000000000000000000000000000000000000000000000000000000000000000000000000000000000000000000000000000000000000C0
:400040000000000000000000000000000000000000000000000000000000000000000000000000000000000000000000000000000000000000000000000000000000000080
:400080000000000000000000000000000000000000000000000000000000000000000000000000000000000000000000000000000000000000000000000000000000000040
:4000C0000000000000000000000000000000000000000000000000000000000000000000000000000000000000000000000000000000000000000000000000000000000000
:0200000490501A
:0C00000000012E11E06900012E383C6860
:00000001FF