:4000000000800020110000008D2700008D27000080B500AF024A034B1B68136002F0BAFBBC760040FA46004010B5054C237833B9044B13B10448AFF300800123237010BDF8
:400040002881FF1F0000000020590000084B10B51BB108480849AFF300800848036803B910BD074B002BFBD0BDE81040184700BF00000000205900002C81FF1F0881FF1F0F
:400080000000000080B400AF0D4B712283F846200B4B422283F84720094B0A2283F84820074B032283F84320054B052283F84420034B022283F84520BD465DF8047B704707
:4000C0007881FF1F80B582B000AF00237B600BE0084A7B681344483300225A70012003F025FB7B6801337B607B68132BF0DD0837BD4680BD7881FF1F80B58CB000AF03F03A
:400100005DF9594B0022DA71574B1A221A72564B1B7ADB08DBB23B62534B1B7A19463A6A13465B079B1ADB000B44FB613B6AC3F112037B62FB69002B02DD7B6A013B7B62C8
:400140000023FB620FE03A1DFB6A134400221A703A1DFB6A13441B784448194601F0F4F9FB6A0133FB62FA6A7B6A9A42EBDB0122FB6902FA03F3DBB2BB743B4B93F8493042
:40018000D9B2FB69C3F10803FF2202FA03F3DBB20A461340DBB2FB76FA7EFB69C3F1080342FA03F3FB763A1DFB6A13441A78FB7E1343D9B23A1DFB6A13440A461A703A1DCF
:4001C000FB6A13441B782948194601F0BDF9FB6A0133FB620123BB6235E0BB6A013B224A134493F849301A46FB6902FA03F3D9B23A1DFB6A13440A461A701B4ABB6A1344B6
:4002000048335B781A46FB69C3F1080342FA03F3FB763A1DFB6A13441A78FB7E1343D9B23A1DFB6A13440A461A703A1DFB6A13441B780E48194601F087F9FB6A0133FB629C
:40024000BB6A0133BB627B6AC3F11202BB6A9A42C3DC03F0A3F83A1DFB6A134400221A703037BD4680BD00BF7881FF1F049AFF1F80B500AF03F0D6FD4FF41C70012103F0A7
:40028000EBFD04F069FA01F061FA03F097FF4FF41C70012103F0ACFF04F090FC01F03AFD034804F08FF804F023F901F033FC80BDED1C000080B584B000AFCA4B1B78002BCC
:4002C0006ED0C94B3822DA70C74B04229A70C64B6E2283F84920C44B162283F84A20C24B002283F84B20C04B012283F84C20BE4B022283F84D20BC4B032283F84E20BA4BBC
:40030000042283F84F20B84B052283F85020B64B062283F85120B44B072283F85220B24B082283F85320B04B092283F85420AE4B6E2283F85520AC4B0B2283F85620AA4BC1
:40034000002283F85720A84B012283F85820A64B022283F85920A44B032283F85A20A24B042283F85B20A04B052283F85C209E4B062283F85D209C4B072283F85E209A4B45
:40038000082283F85F20984B092283F86020964B0022DA71944B18221A72924B00221A70914B9B78FB72904BDA78904B1A708E4BDB791B028C4A127A13447B608B4B1B785F
:4003C000342B0BD0342B04DC022B07D0052B0FD022E0662B02D0692B0AD01DE004F034F80346002B01D1FFF743FF01F07DFDBDE27F4B1B78002B0ED07E48052101F06EFF49
:4004000002F06EFD7A4B00221A707B4B00221A6002F05AFDFFE700BFFB7A042B00F2A68201A252F823F000BF3D0400006D090000EF040000B7060000030900006B4B1B7865
:40044000662B0DD0662B04DC022B09D0342B07D08CE2692B34D06A2B0CD0682B20D085E203F0F2FF0346002B01D1FFF701FF01F03BFD7BE2012004F019F90023FB6008E0CD
:40048000594B5B7A1846012100F0DCFBFB680133FB60FB68092BF3DD002004F007F925E0012004F003F90C2000F02EFF012000F0A1FE002004F0FAF8012002F0EFFE15E005
:4004C000012004F0F3F80023FB6008E0464B5B7A1846012102F026F8FB680133FB60FB68092BF3DD002004F0E1F800BF3EE23F4B1B78023B362B00F2DC8001A252F823F072
:40050000B3060000B30600002106000055060000DD050000B3060000B3060000B3060000B3060000B3060000B3060000B3060000B3060000B3060000B3060000B3060000F2
:40054000B3060000B3060000B3060000B3060000B3060000B3060000B3060000B3060000B3060000B3060000B3060000B3060000B3060000B3060000B3060000B3060000EB
:40058000B3060000B3060000B3060000B3060000B3060000B3060000B3060000B3060000B3060000B3060000B3060000B3060000B3060000B3060000B3060000B3060000AB
:4005C000B3060000B30600008106000081060000810600008106000081060000012004F065F810E01581FF1F7881FF1F6581FF1F40B3FF1F0C81FF1F44B3FF1FD24B9B78B4
:40060000022B00D008E0D04B5B7A1846002100F019FB0346002BF1D0002004F047F849E0012004F043F8FFF74DFD0C2000F06CFE03E0FB7A022B00D005E0002000F0DAFD7A
:400640000346002BF5D0002004F030F8012002F025FE2FE0012004F029F804E0BA4B9B78022B00D008E0B84B5B7A1846002101F059FF0346002BF1D0002004F017F819E0B8
:40068000B24B1B68002B08D1B14B1B68012B04D1AF4B00221A6001F0E5FDAE4B1B78002B01D101F0E7FCAB4B01221A7000F062F900E000BF5AE1A84B1B78002B02D1A64B33
:4006C00006221A70A04B5B7A002B02D19E4B1A225A72A14B1B78033B672B00F2108101A252F823F0C108000085080000A5080000DF080000FF080000FF080000FF080000C8
:40070000FF080000FF080000FF080000FF080000FF080000FF080000FF080000FF080000FF080000FF080000FF080000FF080000FF080000FF080000FF080000FF08000049
:40074000FF080000FF080000FF080000FF080000FF080000FF080000FF080000FF080000FF080000FF080000FF080000FF080000FF080000FF080000FF080000FF08000009
:40078000FF080000FF080000FF080000FF080000FF080000FF080000FF080000FF080000FF080000FF080000FF080000C108000085080000A5080000DF080000FF080000FB
:4007C000FF080000FF080000FF080000FF080000FF080000FF080000FF080000FF080000FF080000FF080000FF080000FF080000FF080000FF080000FF080000FF08000089
:40080000FF080000FF080000FF080000FF080000FF080000FF080000FF080000FF080000FF080000FF080000FF080000FF080000FF080000FF080000FF080000FF08000048
:40084000FF080000FF080000FF080000FF080000FF080000FF080000FF080000FF080000FF080000FF080000FF080000FF080000FF080000C108000085080000A50800001A
:40088000DF080000012003F04DFF0C2000F03CFD324800F083FC2C4B00229A70002003F041FF2DE0012003F03DFF2C48796801F015FD254B00229A70002003F033FF1FE028
:4008C000012003F02FFF012002F0E8FCFFF714FC1D4B00229A70002003F024FF10E0002003F020FF184B5B7A1C48194600F05EF9154B00229A70012003F014FF00E000BF39
:4009000034E0154B1B78343B042B2DD8104B1B68012B02D10E4B00221A600E4B1B78002B04D101F0A7FB0B4B01221A700B48796801F0B2FC0A4B00221A600A4B00221A70F4
:40094000014B02229A7010E07881FF1F009AFF1F2C9AFF1F6481FF1F6581FF1FC181FF1FC09BFF1F3CB3FF1F00BF00BF1037BD4680BD00BF80B582B000AF2B4B1B78012B5E
:400980004ED1294B00221A70284B1B68002B00D146E0264B1B6841F2F44293423DDC00237B600FE0224A7B6813441978214A7B68134448330A465A70012002F0B7FE7B688C
:4009C00001337B60194B1B687A689A42EADB174B00221A607B681B12DAB2164BDA717B68DAB2144B1A727B681B12DAB2114B9A737B68DAB20F4BDA730F4B00221A600F4B73
:400A000001221A600B4B1B7843F00303DAB2094B1A70084B00229A7002E0044B00221A600837BD4680BD00BF3CB3FF1FC09BFF1FCC9BFF1F7881FF1F2C9AFF1F009AFF1F45
:400A400080B582B000AF62B602F08AFD374802F0D5FD02F0A3FC364802F094F903F032F9344803F07DF904F0F5F9334804F0A2FA324803F0BDFA02F023FF41F6840041F6E4
:400A800084012F4A02F02CFF02F056FA2D4801210222012300F058FC012003F007FE012003F040FE012003F01FFE254B00229A71082000F0A7F9FFF7E5FA234B00221A70D6
:400AC000224B00221A70224B00221A70214B00221A60FFF7CDFB204B00221A701F4B00221A701F4B00221A6003F068FDFFF7E2FB1C4B1B68012B17D100237B6010E00A208A
:400B000002F0F2FD7B6801337B607B68632B07DD0B4B1B7843F00303DAB2094B1A7003E00C4B1B68002BEAD0E0E700BF21360000A92D0000853D0000690B00001540000021
:400B40007881FF1F049AFF1F6C81FF1F309AFF1F6481FF1F2C9AFF1F74B3FF1F6CB3FF1F70B3FF1F009AFF1F80B500AF022002F095FB002004F07EFA04F05EFA04F0AEF952
:400B800004F002FA04F066F980BD00BF80B500AF032002F083FB04F081F980BD80B500AF012004F067FA04F079F980BD80B586B000AF786039600023BB733B68A02B00DDB0
:400BC0003DE0022002F06AFB002004F053FA052002F08AFD00237B612EE07B697A6813441B78FB7300233B6120E0BB7B0133BB73BA7B3B689A4206DD022002F04FFB0020C9
:400C000004F038FA1BE0FB7B5BB2002B02DAFFF7C5FF01E0FFF7BAFFFB7B5B00FB7340F2965002F083FD3B6901333B613B69072BDBDD7B6901337B617B69132BCDDD1837E5
:400C4000BD4680BD80B58CB000AF7860396002F053F9034687F8233002F05EF9034687F82230644B00221A607B68A02B01DD0023BBE097F82330002B04D097F82230002B65
:400C800040F0B2800023FB620023BB6207F10C02BB6A134400221A706BE097F82330002B1AD103F0B3F8544B00221A6003F0A2F80AE0514B1B68502B01DD002395E002F04F
:400CC0001BF9034687F8233097F82330012BF0D1FB6A0133FB6234E097F82230002B30D103F094F8444B00221A6003F083F80AE0414B1B68502B01DD002376E002F00CF905
:400D0000034687F8223097F82230012BF0D107F10C02BB6A13441B78D9B2FB6AC3F10703012202FA03F3DBB20A461343DBB2D9B207F10C02BB6A13440A461A70FB6A0133B3
:400D4000FB62FB6A072B0ADD0023FB62BB6A0133BB6207F10C02BB6A134400221A7002F0CBF8034687F8233002F0D6F8034687F82230BB6ADA00FB6A1A447B689A428CDBE2
:400D80003B68002B06D007F10C0318467968FFF70DFF29E000237B6210E007F10C027B6A13441978154A7B6A134448330A465A70012002F0BBFC7B6A01337B627A6ABB6A82
:400DC0009A42EADD0E4B00221A600A4B01221A600A4B1B7843F00303DAB2084B1A70074B00229A70012300E0002318463037BD4680BD00BF009AFF1F6081FF1F7881FF1FA8
:400E00002C9AFF1F80B582B000AF0346FB71FB7903F00103002B03D0012002F0F3F902E0002002F0EFF9FB7903F00203002B03D0012002F08BF902E0002002F087F9FB79D6
:400E400003F00403002B03D0012001F07DFF02E0002001F079FFFB7903F00803002B03D0164B01221A6002E0144B00221A60FB7903F01003002B03D0012002F0F1F902E0DF
:400E8000002002F0EDF9FB7903F02003002B03D0012001F03BFF02E0002001F037FFFB7903F04003002B03D0054B00221A6002E0034B01221A600837BD4680BD7481FF1F4A
:400EC0006881FF1F80B582B000AFFF23FB7102F089F90346012B04D1FB7943F00103FB7103E0FB7923F00103FB7102F05BF90346012B04D1FB7943F00203FB7103E0FB7999
:400F000023F00203FB7102F03FF90346012B04D1FB7943F00403FB7103E0FB7923F00403FB71FB7918460837BD4680BD80B582B000AF0023FB71234B1B78002B3DD0214B27
:400F400000221A70204B1B6841F28732934205DC0023FB711D4B00229A712EE01A4B1B6841F28732934214DD174B1B684AF6C77293420EDC002003F0B7FB002003F096FBE3
:400F8000002003F0CFFB0323FB71104BC6229A7113E00D4B1B684AF6C77293420DDD002003F0A2FB002003F081FB002003F0BAFB0523FB71054B99229A71FB7918460837AC
:400FC000BD4680BD6CB3FF1F70B3FF1F7881FF1F80B582B000AF0023FB7102F0F3F80346012B04D1FB7923F00103FB7103E0FB7943F00103FB7102F023F90346012B04D107
:40100000FB7923F00203FB7103E0FB7943F00203FB71FB7923F00403FB71FB7918460837BD4680BD80B582B000AF124B5B78FB71FB7903F00103002B19D0FB7903F00203D5
:40104000002B04D00B4B5B791846FFF7DBFEFB7903F00803002B07D0064B00225A70064B01221A6001F0FEF8024B00225A700837BD4680BD7881FF1F2C9AFF1F80B582B07A
:4010800000AF02F0DDF80346002B11D002F09AF80346002B03D13C4B1B68012B08D002F091F80346012B12D1374B1B68002B0ED1364B1B68002B03D0002002F029F802E092
:4010C000012002F025F8002003F00EFB0DE02F4B1B68002B03D0012002F01AF802E0002002F016F8012003F0FFFAFFF7EBFE0346FB71274B1B78FA799A4217D0642002F043
:4011000015FBFFF7DFFE0346BB71FA79BB799A420CD1204ABB7913711D4ABB7913701D4B1B7843F00503DAB21A4B1A70FFF750FF0346FB71184B1B78FA799A4217D064205C
:4011400002F0F4FAFFF744FF0346BB71FA79BB799A420CD10F4ABB7993720F4ABB7913700C4B1B7843F00903DAB20A4B1A70FFF7DDFE0346FB71FB79002B02D0054AFB7991
:40118000D3720837BD4680BD7481FF1F6881FF1F6C81FF1F7881FF1F309AFF1F80B584B000AF7860002003F081FA002003F0BAFA0023FB6012E00023BB6009E0BB687A6866
:4011C00013441B78184601F089FFBB680133BB60BB680B2BF2DDFB680133FB60FB68132BE9DD012003F062FA012003F09BFA1037BD4680BD80B58CB000AF78600023FB6223
:40120000002387F82B3001F015FF0346202B6CD102F0FCFD384B00221A6002F0EBFD2CE001F008FF0346202B20D101F015FF034687F8233097F82330022B0AD107F10C025E
:40124000FB6A134497F823201A70FB6A0133FB620CE0FB6A002B09DD07F10C02FB6A134497F823201A70FB6A0133FB62224B1B68B3F5FA6F01DD002339E0FB6A0B2BCFDD88
:401280007B68002B05D007F10C031846FFF786FF2BE000237B6210E007F10C027B6A13441978164A7B6A134448330A465A70012002F03CFA7B6A01337B627B6A0B2BEBDD4A
:4012C00001F0ECFE0E4B01221A600E4B00221A600A4B1B7843F00303DAB2084B1A70074B00229A70012387F82B3097F82B3018463037BD4680BD00BF6081FF1F7881FF1F5E
:40130000009AFF1F2C9AFF1F80B582B000AF0346FB710C4B1B78FA799A4210D0FB790C2B02D01A2B04D007E0002001F0B7FF03E0012001F0B3FF00BF024AFB791370083701
:40134000BD4680BDFC99FF1F80B485B000AFF860B9607A603B60FB68BA681A60FB687A685A60FB680022DA82FB6800229A82FB6802229A61FB680022DA61FB6800221A62B9
:40138000FB683A689A60FB680822DA601437BD465DF8047B704700BF80B584B000AF78607B689B8A9BB2002B37D07B68DB69013B7A68D361002B30DC7B685B8A9BB203F0A0
:4013C0000103002B03D0022001F068FF02E0032001F064FF7B685B8A9BB25B089AB27B685A827B689B8A9BB2013B9AB27B689A827B689B8A9BB2002B09D07B689B6923F066
:4014000002027B689A617B680322DA6105E07B689B6943F002027B689A6101F06DFD0346FB737B68DB8A002B15D1FB7B002B60D17B6804221A627B68DB689AB27B689B688C
:401440009BB213449AB27B685B689BB213449AB27B68DA824DE07B681B6A013B7A681362002B46DCFB7B002B08D07B681B8A6FEA43436FEA53439AB27B681A827B681B8A10
:401480005B089AB27B681A827B68DB8A013B9AB27B68DA827B68DB8A002B27D17B681B8A19467B689B68C3F107037A685268002A14BF01220022D2B29B1A41FA03F3DAB225
:4014C0007B685A627B689B6903F00103002B06D07B689B6943F004027B689A6109E07B689B6943F001027B689A6102E07B6803221A621037BD4680BD80B483B000AF034640
:40150000FB71FB791B09DBB2DAB2FB791B01DBB21343DAB2FB795340DBB2FB71FB799B08DAB2FB795340FB71FB795B08DAB2FB795340FB71FB7903F00103DBB218460C370A
:40154000BD465DF8047B704780B584B000AF786039600023BB603B689BB25B00FB817B685B68012B1FD13B68DBB21846FFF7C4FF0346BB60BB68002B07D07B689B684FF494
:40158000407202FA03F39BB206E07B689B684FF4007202FA03F39BB2F9891A460B4613439BB2FB8130E07B685B68022B1FD13B68DBB21846FFF7A0FF0346BB60BB68002B80
:4015C00007D07B689B684FF4007202FA03F39BB206E07B689B684FF4407202FA03F39BB2F9891A460B4613439BB2FB810CE07B68DA687B689B681344012202FA03F39AB239
:40160000FB8913439BB2FB8100BF7B689B6903F00203002BF9D072B67B689B6923F002027B689A6162B67B68FA895A827B680322DA617B685B68002B0CD07B68DB689AB2B5
:401640007B689B689BB213449BB202339AB27B689A820BE07B68DB689AB27B689B689BB213449BB201339AB27B689A821037BD4680BD00BF80B584B000AF78607B6893F8BC
:401680008020144B83F85F207B6893F88030802B03D97B68802283F880200023FB600FE07A68FB68134419780A4AFB68134460330A465A70012002F039F8FB680133FB6061
:4016C0007B6893F880301A46FB689A42E8DC1037BD4680BD7881FF1F80B582B000AF194B93F85F20184B83F88020174B93F88030802B03D9144B802283F8802000237B608B
:401700000CE0104A7B681344603359780E4A7B6813440A461A707B6801337B600A4B93F880301A467B689A42EBDC074B012283F8812000F04DF8044B002283F8812008375F
:40174000BD4680BD7881FF1F309BFF1F80B582B000AF03F027F900237B600BE00A4A7B681344603300225A70012001F0DFFF7B6801337B607B687F2BF0DD034B002283F8E3
:401780005F200837BD4680BD7881FF1F80B485B000AF786039600023BB730023FB7309E0FB7B7A6813441A78BB7B1344BB73FB7B0133FB73FA7B3B689A42F1DBBB7B5B4219
:4017C0007B737B7B18461437BD465DF8047B704780B500AF012002F099FC012002F0B2FC03F06CF9134B032283F85D20032001F07BFF114B1B78532B09D10F4B93F8803044
:401800000D48194603F026F9052001F06DFF03F041F9002002F096FC012002F077FC054B93F85E3043F00103DAB2024B83F85E2080BD00BF7881FF1F309BFF1F80B582B034
:4018400000AF3B4683E80300144B53221A703B7863F07F03DAB2114B5A70104B08229A700E4B0022DA707A790C4B1A710B4B41225A710A4B01229A7108480721FFF786FF0F
:4018800003461A46054BDA71044B082283F88020FFF79EFF0837BD4680BD00BF309BFF1F80B584B000AF0023FB600023FB700023FB7203F02DF80346062B40F2DE8000239D
:4018C0007B600CE002F0C8FF0346FB70FB78532B02D10123FB7205E07B6801337B607B68062BEFDDFB7A002B2ED002F0B5FF0346FB70634AFB78137002F0AEFF0346FB70BA
:401900005F4AFB78937002F0A7FF0346FB705C4AFB78D37002F0A0FF0346FB70584AFB785371FB7803F00303DAB2554B9A7102F093FF0346FB70524AFB781371504B5B88D6
:401940001BB2062B02DC00E097E096E00023FB604C4AFB68134453221A70FB680133FB60474B1978474AFB6813440A461A70FB680133FB60424B9978424AFB6813440A4691
:401980001A70FB680133FB603D4BD9783D4AFB6813440A461A70FB680133FB60384B5979384AFB6813440A461A70FB680133FB60334B1979334AFB6813440A461A70FB68E4
:4019C0000133FB602E4B5B881BB2802B05DDFFF7BDFE2B4B00225A804FE0294B5B88DAB2284B83F880201BE002F092FF0346002B16D002F031FF0346FB70224AFB6813440B
:401A0000FA781A701E4B5B881BB25A1EFB689A4203D11B4AFB78D37108E0FB680133FB60174B5B881AB2FB689A42DDDC144B5B881BB2013B13481946FFF7A8FE0346FB70B2
:401A40000F4BDB79FA789A420BD00D4B1A68002111465B6800221A4608461146FFF7EEFE0BE00848FFF706FE074B93F85E3043F00203DAB2044B83F85E201037BD4680BD3E
:401A8000B89AFF1F349AFF1F7881FF1F80B582B000AF0346FB71FB79013B062B35D801A252F823F0C11A0000CD1A0000D91A0000E31A0000ED1A0000F71A0000011B000014
:401AC0004FF41C70012102F0C7F91EE040F23710012102F0C1F918E09B20012102F0BCF913E03320012102F0B7F90EE01920012102F0B2F909E00C20012102F0ADF904E0DF
:401B00000520012102F0A8F900BF02F08BF90837BD4680BD80B500AF0E4803F05FF90D4803F04AF9012000F061F903F047F803F01FF9002002F024FB012002F025FC064BA9
:401B400000221A70054B00221A70054B00221A6080BD00BF651B0000B79AFF1F259BFF1FC09BFF1F80B582B000AF73E003F084F80346FB713C4B1B682F2B0EDC3B4B1B789B
:401B8000012B0AD1384B1B683949FA79CA54364B1B680133344A136002E0334B00221A60314B1B68002B0ED1FB79532B0BD12F4B01221A702C4B1B682D4A5321D1542A4B63
:401BC00001221A6046E0294B1B78012B42D1264B1B68022B03D1274AFB7913703AE0224B1B68032B03D1234AFB79937032E01E4B1B68042B1DD11F4AFB79D3701D4B5B8809
:401C00001BB2042B04DD1B4B5B881BB2302B09DD184B00225A80144B00221A60134B00221A7005E0134B5B88DAB2114B83F8302010E00D4B1B68042B0CDD0E4B5B881AB248
:401C4000094B1B689A4205DA0B4B01221A70074B00221A7003F020F8034603F02003002B84D10837BD4680BDC09BFF1F259BFF1FC09AFF1F289BFF1FB79AFF1F80B584B0E0
:401C800000AF78607B6893F83020174B83F8E2200023FB600FE07A68FB6813441978124AFB681344E0330A461A71012001F03EFDFB680133FB607B6893F830301A46FB6892
:401CC0009A42E8DC084B93F85E3043F02003DAB2054B83F85E20044B032283F8E12002F007FC1037BD4680BD7881FF1F80B400AF064B1B78064B1B7843F00403DAB2044B6A
:401D00001A70BD465DF8047B704700BF63640040B69AFF1F80B582B000AF02F0CFFF114B002283F8E2200F4B93F85E3023F02003DAB20C4B83F85E2000237B600BE0094AC5
:401D40007B681344E03300221A71012001F0EEFC7B6801337B607B682F2BF0DD0837BD4680BD00BF7881FF1F80B500AF012002F00BFB012002F004FA03F00CF8032001F003
:401D8000B3FC0B4B1B78532B09D1094B93F830300748194602F0CCFF052001F0A5FC02F0E7FF002002F0ECF9012002F0EDFA80BDF49AFF1F80B500AF094B1B78012B0DD14B
:401DC000084B1B78662B03D1074800F01BF902E00548FFF753FF024B00221A7080BD00BFB79AFF1F6581FF1FC09AFF1F80B582B000AF0346FB71FB79013B062B35D801A292
:401E000052F823F0211E00002D1E0000391E0000431E00004D1E0000571E0000611E00004FF41C70012102F0E3F91EE040F23710012102F0DDF918E09B20012102F0D8F9EC
:401E400013E03320012102F0D3F90EE01920012102F0CEF909E00C20012102F0C9F904E00520012102F0C4F900BF02F0A7F90837BD4680BD80B483B000AF194B93F8E2308E
:401E8000FB70FB78302B25D800237B600CE0144A7B681344E0331979124A7B6813440A461A707B6801337B60FA787B689A42EEDCFB787B6007E00B4A7B68134400221A70F8
:401EC0007B6801337B607B682F2BF4DD054AFB7882F830300C37BD465DF8047B704700BF7881FF1FF49AFF1F80B500AF424B93F8E130002B24D0404B93F8E130042B1FD87A
:401F000001A252F823F000BF411F0000411F00001D1F0000411F00002B1F0000FFF7AAFF354B032283F8E1200AE0334B93F8E3301846FFF75BFF304B022283F8E12000BFEE
:401F40002E4B1B789B08DBB203F00103002B13D02A4B1B7823F00403DAB2284B1A70284B93F83030002B07D0002002F09FFBFFF7FBFE012002F09AFB1F4B93F85D30002B25
:401F80001CD01D4B93F85D30042B17D801A252F823F000BFBD1F0000BD1F0000A91F0000BD1F0000AF1F0000FFF796FB06E0124B93F860301846FFF769FD00BF0E4B93F86C
:401FC0005E3003F02003002B06D10B4B93F8E130022B01D0FFF7EEFE074B93F85E3003F00203002B06D1044B93F85D30022B01D0FFF756FC80BD00BF7881FF1FB69AFF1FD6
:40200000F49AFF1F80B584B000AF78607B6893F83020174B83F88020154B93F88030802B03D9134B802283F880200023FB600BE07A68FB68134419780D4AFB6813440A4695
:402040001A70FB680133FB60094B93F880301A46FB689A42ECDC064B012283F88120FFF7B7FB034B002283F881201037BD4680BD309BFF1F80B500AF0B4802F0AFFE0A4892
:4020800002F09AFE0620FFF7B1FE02F097FD02F06FFE002002F074F8012002F075F9034B00221A7080BD00BFB12000003CB3FF1F80B582B000AFB7E002F0DEFD0346FB71E4
:4020C000604B1B6841F2F342934204DC5D4B1B685D49FA79CA545B4B1B68002B17D15A4B1A785A4B1A70594B1B78202B0ED0202B04DC0C2B0AD00E2B08D09EE0382BC0F251
:402100009C803A2B02DD5C2B00D096E000BF4D4B1B68012B36D14B4B1B684B4AD35CDBB25BB2002B18DA4A4B01221A70454B1B68454AD35C03F07F03464A1360464B002293
:402140001A60444B1B680233444A13603D4B1B6801333C4A136071E03D4B00221A70394B1B68394AD35C03F07F033B4A13603A4B1B680233384A1360324B1B680133314AD9
:4021800013605BE0324B1B78012B29D1314B1B68002B25DD2B4B1B68012B21DD2E4B1B681B02284A126828498A5C13442A4A1360284B1B68013B274A1360264B1B68002B1D
:4021C0000ED1254B1A68254B1B681344224A1360214B1B68002B03D11A4B00221A602DE0184B1A681C4B1B689A420ADC154B1B6841F2F442934204DC124B1B680133114AE8
:402200001360154B1B68002B0ED00E4B1A68124B1B689A4205DA0B4B1B6841F2F342934202DD0F4B01221A7002F036FD034603F02003002B7FF440AF00E000BF0837BD46DB
:4022400080BD00BFC09BFF1FCC9BFF1FB49BFF1FBC9BFF1FB89BFF1FC49BFF1FC89BFF1F3CB3FF1F80B400AF074B00221A60074B00221A70064B00221A60064B00221A605D
:40228000BD465DF8047B7047C09BFF1F3CB3FF1F009AFF1FC49BFF1F80B582B000AF78603960012002F070F8012001F069FF02F071FD032001F018FA3B68DBB27868194664
:4022C00002F036FD642001F031FA02F051FD002001F056FF0837BD4680BD00BF80B594B000AF78603960002387F83D303B6803333B643B6C142B01DD14233B6400F0F0FD9E
:40230000864B00221A70864B00221A6000F0DCFD012000F0C3FF0023FB64BAE0FB6C7A6813441B7887F83F30002387F83E30FB6C5B0007F150021344002203F8442CFB6C73
:402340005B00013307F150021344002203F8442C0023BB643DE097F83F305BB2002B17DA97F83D30002B09D1002387F83D3097F83E3043F0020387F83E301AE097F83E30F1
:4023800043F0010387F83E30012387F83D3010E097F83D30002B09D197F83E3043F0030387F83E30012387F83D3002E0002387F83D30BB6C022B04DC97F83E309B0087F889
:4023C0003E3097F83F305B0087F83F30BB6C0133BB64BB6C032BBEDDFB6C5B0007F15002134497F83E2003F8442C002387F83E300023BB643DE097F83F305BB2002B17DA6D
:4024000097F83D30002B09D1002387F83D3097F83E3043F0020387F83E301AE097F83E3043F0010387F83E30012387F83D3010E097F83D30002B09D197F83E3043F0030318
:4024400087F83E30012387F83D3002E0002387F83D30BB6C022B04DC97F83E309B0087F83E3097F83F305B0087F83F30BB6C0133BB64BB6C032BBEDDFB6C5B00013307F116
:402480005002134497F83E2003F8442CFB6C0133FB64FA6C3B6C9A42FFF640AF002387F83E3000237B642DE007F10C027B6C13441B7887F83F3007F10C027B6C134400220A
:4024C0001A700023BB6417E097F83F305BB2002B03DA022000F0E2FE02E0032000F0DEFE4FF4C87001F022F997F83F305B0087F83F30BB6C0133BB64BB6C072BE4DD7B6CFA
:4025000001337B643B6C5A007B6C9A42CCDC022000F0C4FE5037BD4680BD00BF40B3FF1F44B3FF1F80B594B000AF78603960002002F0A0FD1523BB630023BB64002387F81A
:4025400047300123FB64002387F83F30894B00221A6000233B6408E007F120023B6C134400221A703B6C01333B643B6C132BF3DD3B68002B06D001F049FC7F4B00221A6003
:4025800001F038FC9CE03B68012B09D17A4B1B68B3F5FA6F04DD784B00221A600023E5E001F09CFD754B1B687B6301F08BFD7B6B002B40F385803B68002B06D001F026FC2C
:4025C0006D4B00221A6001F015FC01F087FD6B4B00221A6001F076FDFB6C072B04DD0023FB64BB6C0133BB6497F83F30012B1FD1B86B02F0BBFE02460B46104619464FF06F
:4026000000025F4B02F018FF02460B461046194603F024F902467B6B9A4209DC7B6B3F2B06DC002387F84730FB6C0133FB6447E0B86B02F09BFE02460B46104619464FF0F1
:4026400000024F4B02F0F8FE02460B461046194603F004F902467B6B9A4229DD97F84730013387F8473097F84730012B28D907F12002BB6C13441B78D9B2FB6CC3F107034A
:40268000012202FA03F3DBB20A461343DBB2D9B207F12002BB6C13440A461A70FB6C0133FB64002387F84730012387F83F3007E07B6B3F2B04DD97F83F30012B00D107E029
:4026C000BB6CDA00FB6C1A447B689A427FF75BAF3B68002B20D0BB6C042B46DD00233B7200233B640EE03B6C013307F120013A6C0A44127807F150010B4403F8482C3B6CFE
:4027000001333B643B6C132BEDDD07F108031846B96CFFF7E3FD28E000233B6410E007F120023B6C13441978164A3B6C134448330A465A70012000F0F9FF3B6C01333B64E2
:402740003B6C132BEBDD0F4B1B7843F00303DAB20C4B1A70074B01221A600B4B00221A60084B00229A70012300E0002318465037BD4680BD009AFF1F6081FF1F64B3FF1F81
:402780000000E83F7881FF1F2C9AFF1F80B400AFFEE700BF80B586B000AF224B7B61224B3B61204B7B6135E03B691B68FB603B695B68BB603B699B683B6000237B600CE078
:4027C000FB681A68BB681A60BB680433BB60FB680433FB607B6804337B607A683B689A42EED13B69DB683B6000237B6008E0BB6800221A60BB680433BB607B6804337B6047
:402800007A683B689A42F2D13B6910333B617B69013B7B617B69002BC6D103F047F8FEF70FF9FEE7010000009459000080B582B000AF174B174A1A60174A174B1B6843F47D
:402840000073136000237B600FE07B68032B04D8124A7B6852F8233000E0114B11497A6841F822307B6801337B607B682F2BECD90D4B1B78DAB20D4B1A700D4B094A1A6047
:4028800000F058F90B4B00221A600837BD4680BD0CED00E00004FA0514ED00E0000000008D2700000080FF1FBC7600400481FF1F08ED00E00081FF1F80B582B000AF7860E0
:4028C0003960786800213A6803F021F80837BD4680BD00BF80B584B000AFF860B9607A60F868B9687A6803F007F81037BD4680BD80B483B000AF0346FB71FEE780B487B0F8
:4029000000AF7860396000233B6100237B6127E07B699B007A6813441B68BB60BB68FB73BB6823F0FF03BB6014E03B695B003A6813441B781A46BB68134419463B695B00C1
:402940003A6813445B780B703B6901333B61FB7B013BFB73FB7B002BE7D17B6901337B617B69272BD4D91C37BD465DF8047B704780B582B000AF444B01221A80434B192240
:402980001A70434B5F221A80424B19221A70424B67221A80414B19221A70414B67221A80404B19221A70404B40F2DF121A803F4B19221A703E4B40F2E1421A803D4B1922C0
:4029C0001A703D4B40F249121A803C4B1B221A703B4B26221A704FF0402304221A70394B04221A70384B394A1278D2B21A70384B4FF471621A80374B41F251221A800023BC
:402A0000FB7019237B6014E0FB785B00DAB2324B1B78DBB203F00103DBB21343DBB203F00303FB704FF4F07000F042FE7B68013B7B607B68002B02D0FB78032BE4D17B6878
:402A4000002B02D10320FFF753FF244B4FF480721A80224B07221A70214B00221A70214B48221A701D4B00221A701F4B02221A701E4A1E4B1B78DBB243F07F03DBB2137035
:402A80000837BD4680BD00BF80400040824000408440004086400040884000408A4000408C4000408E40004090400040924000409440004096400040984000409A40004022
:402AC0000043004000420040A14600408901004922420040204200402542004004400040064000400840004001400040A243004080B483B000AF0B4B1B78FB710A4AFB797F
:402B000003F00703DBB21370084AFB791B09DBB21370074B44221A700C37BD465DF8047B704700BFCF0100496E5800406F5800407658004080B586B000AF72B6574A574B03
:402B40001B78DBB243F00403DBB213700023FB7513E0FA7D13465B0013445B00504A13443B613B691A683B699B889BB210461946FFF7A2FEFB7D0133FB75FB7D082BE8D9EE
:402B80000023FB751CE0FA7D13469B0013445B00444A1344FB60FB681B68BB60FB685B687B60FB681A7A5B7A1B0213437B807B88B86879681A46FFF78DFEFB7D0133FB75EC
:402BC000FB7D012BDFD94FF090403749FFF796FE364A364B1B78DBB243F00203DBB21370334A334B1B78DBB243F00203DBB21370304A304B1B78DBB243F04003DBB21370F9
:402C00002D4A2D4B1B78DBB243F01003DBB213702A482B490A22FFF75DFE2A482A490A22FFF758FE29482A490522FFF753FE294829490A22FFF74EFE284829490A22FFF7C8
:402C400049FE284828490A22FFF744FE274828490A22FFF73FFE274BC4221A70264BC4221A70264A254B1B78DBB243F00803DBB21370234B01221A70FFF77AFE204BC122A1
:402C80001A70204B01221A70FFF732FF1E4809490E22FFF71FFE1837BD4680BDE8460040245900005C590000A00000480350014013500140A0430040C24300400051004008
:402CC0007C0E0048C0510040880E0048CB510040940E0048F05100409C0E004810510040A80E004820510040B40E004830510040C00E00485B0601405B18014022430040EE
:402D00000048004004000840B043004080B485B000AF0346FB710B4B1B78DBB223F00803FB730849FB79DB00DBB203F00803DAB2FB7B1343DBB20B701437BD465DF8047B10
:402D4000704700BF2051004080B485B000AF0346FB710B4B1B78DBB223F01003FB730849FB791B01DBB203F01003DAB2FB7B1343DBB20B701437BD465DF8047B704700BFE9
:402D80000051004080B582B000AF786000F0A8F8786800F075F8072000F084F800F094F80837BD4680BD00BF80B500AF00F03AFB2B4B1B78362B04DC342B33DA052B06D0B5
:402DC00040E0382B2ED0382B01DB692B3AD1254B1B78002B16D0244B1B780133DAB2224B1A70214B1B781E2B02D1012002F042F91D4B1B78232B05D9002002F03BF9194B6D
:402E000000221A70194B1B680133184A1360174B1B6841F28832934203D1154B01221A7010E00FE0134B1B680133124A1360114B1B6841F28732934203DD0E4B00221A6036
:402E4000FFE700BF0C4B1B78002B04D00B4B1B6801330A4A1360FEF7E5F8FEF70FF980BD6581FF1F68B3FF1F5CB3FF1F44B3FF1F40B3FF1F7081FF1F74B3FF1F70B3FF1FBF
:402E800080B485B000AF7860054B1B68FB60FB6884337A681A601437BD465DF8047B704708ED00E080B483B000AF0346FB71054AFB795B01DBB213700C37BD465DF8047BBC
:402EC000704700BF11E400E080B400AF034B4FF400321A60BD465DF8047B704700E100E080B400AF034B4FF400321A60BD465DF8047B704780E100E080B400AF054B1B7863
:402F0000DBB203F002035B08DBB21846BD465DF8047B70472151004080B400AF054B1B78DBB203F00103DBB21846BD465DF8047B704700BF2151004080B500AF054B1B7883
:402F4000002B04D100F008F8024B01221A7000F029F880BD4481FF1F80B500AF0C4B71221A700C4B00221A700B4B06221A700B4B47221A700A4B00221A7000F03FF8034619
:402F800023F01803DBB2184600F044F880BD00BF8C6400408864004023640040336400408B64004080B582B000AF00F089FB0346FB710F4A0E4B1B78DBB243F02003DBB2B3
:402FC00013700C4A0B4B1B78DBB243F01003DBB21370094A084B1B78DBB243F01003DBB21370FB79184600F06FFB0837BD4680BD9C640040986400409B64004080B400AFC7
:40300000034B1B78DBB21846BD465DF8047B70477D64004080B483B000AF0346FB71044AFB7913700C37BD465DF8047B704700BF7D64004080B483B000AF064B1B78DBB2CD
:4030400003F07F03FB71FB7918460C37BD465DF8047B70476864004080B483B000AF0023FB710C4B1B78BB71BB7903F02003002B09D0094B1B78FB71BB7903F01E03002BF1
:4030800001D00023FB71FB7918460C37BD465DF8047B7047686400404C64004080B582B000AF00F00DFB0346FB710B4A0A4B1B78DBB243F00103DBB21370074A064B1B7808
:4030C000DBB223F00103DBB21370FB79184600F0FBFA0837BD4680BD9C64004080B483B000AF0346FB7100BF074B1B78DBB203F00403002BF8D1054AFB7913700C37BD4630
:403100005DF8047B704700BF6B6400404064004080B485B000AF0346FB710B4B1B78DBB223F00403FB730849FB799B00DBB203F00403DAB2FB7B1343DBB20B701437BD46F2
:403140005DF8047B704700BF0051004080B485B000AF0346FB710B4B1B78DBB223F00803FB730849FB79DB00DBB203F00803DAB2FB7B1343DBB20B701437BD465DF8047BF8
:40318000704700BF0051004080B400AF044B1B78DBB2DB09DBB21846BD465DF8047B70470151004080B400AF054B1B78DBB203F040039B09DBB21846BD465DF8047B704721
:4031C0000151004080B400AF054B1B78DBB203F020035B09DBB21846BD465DF8047B70470151004080B400AF054B1B78DBB203F010031B09DBB21846BD465DF8047B70476F
:40320000F151004080B485B000AF0346FB710B4B1B78DBB223F02003FB730849FB795B01DBB203F02003DAB2FB7B1343DBB20B701437BD465DF8047B704700BFF0510040E8
:4032400080B400AF054B1B78DBB203F040039B09DBB21846BD465DF8047B70472151004080B485B000AF0346FB710B4B1B78DBB223F00403FB730849FB799B00DBB203F04B
:403280000403DAB2FB7B1343DBB20B701437BD465DF8047B704700BF2051004080B483B000AF0346FB71044AFB7913700C37BD465DF8047B704700BF7B64004080B500AFBB
:4032C000204A204B1B78DBB203F00103DBB213701D4A1D4B1B78DBB223F00303DBB213701A4A1A4B1B78DBB223F03003DBB21370164A164B1B78DBB243F03003DBB2137024
:40330000124A124B1B78DBB223F00F03DBB213700E4A0E4B1B78DBB243F00F03DBB213700B4A0B4B1B78DBB243F00103DBB213706A2000F083F86A2000F092F8082000F036
:4033400061F880BD004F0040024F00400B4F0040014F004080B400AF0D4A0D4B1B78DBB243F00103DBB213700A4A0A4B1B78DBB243F00103DBB21370074A074B1B78DBB2A1
:4033800043F00103DBB21370BD465DF8047B7047A3430040B3430040004F004080B500AF054B1B78002B04D1FFF788FF024B01221A70FFF7CFFF80BD4681FF1F80B400AF46
:4033C0000D4A0D4B1B78DBB223F00103DBB213700A4A0A4B1B78DBB223F00103DBB21370074A074B1B78DBB223F00103DBB21370BD465DF8047B7047004F0040A3430040BA
:40340000B343004080B483B000AF0346FB71044AFB7913700C37BD465DF8047B704700BF034F004080B400AF034B1B78DBB21846BD465DF8047B7047034F004080B485B0EC
:4034400000AF0346FB80FB88FB81044AFB8913801437BD465DF8047B704700BF044F004080B483B000AF0346FB80044AFB8813800C37BD465DF8047B704700BF064F0040E7
:4034800080B500AF204A204B1B78DBB203F00103DBB213701D4A1D4B1B78DBB223F00303DBB213701A4A1A4B1B78DBB223F03003DBB21370164A164B1B78DBB243F030038E
:4034C000DBB21370124A124B1B78DBB223F00F03DBB213700E4A0E4B1B78DBB243F00F03DBB213700B4A0B4B1B78DBB243F00103DBB213708B2000F05FF88B2000F06EF883
:40350000082000F03DF880BD184F00401A4F0040234F0040194F004080B400AF0D4A0D4B1B78DBB243F00403DBB213700A4A0A4B1B78DBB243F00403DBB21370074A074BA5
:403540001B78DBB243F00103DBB21370BD465DF8047B7047A3430040B3430040184F004080B500AF054B1B78002B04D1FFF788FF024B01221A70FFF7CFFF80BD4781FF1F2E
:4035800080B483B000AF0346FB71044AFB7913700C37BD465DF8047B704700BF1B4F004080B400AF034B1B78DBB21846BD465DF8047B70471B4F004080B485B000AF034679
:4035C000FB71FB79FB81044AFB8913801437BD465DF8047B704700BF1C4F004080B483B000AF0346FB71044BFA7992B21A800C37BD465DF8047B70471E4F004080B582B077
:4036000000AF786000F046F8786800F013F8072000F022F800F032F80837BD4680BD00BF80B500AF0248FDF7B7FEFFF7B9FF80BD049AFF1F80B485B000AF7860054B1B6830
:40364000FB60FB688C337A681A601437BD465DF8047B704708ED00E080B483B000AF0346FB71054AFB795B01DBB213700C37BD465DF8047B704700BF13E400E080B400AF7F
:40368000034B4FF400221A60BD465DF8047B704700E100E080B400AF034B4FF400221A60BD465DF8047B704780E100E0000000000230800803D000BF01380046FCD1704760
:4036C000EFF3108072B6704780F31088704700BF80B483B000AF0346FB7101BE0C37BD465DF8047B704700BF80B582B000AF786008E00C4B1B681846FFF7DAFF7B68A3F586
:4037000000437B607B68B3F5004FF2D8064B1B687A6802FB03F31846FFF7CAFF0837BD4680BD00BF2481FF1F1C81FF1F80B582B000AF0346FB80FB88044A127802FB03F31D
:403740001846FFF7B5FF0837BD4680BD2081FF1F80B584B000AF03463960FB710F4B1B68FB60FB791F2B02D90020FFF7B1FFFB7903F01F0310339B00FA6813441B68BB6048
:40378000FB7903F01F0310339B00FA6813443A681A60BB6818461037BD4680BD08ED00E080B582B000AF03460A46FB711346BB71BB79072B02D90020FFF78AFFFB791F2BB2
:4037C00002D90020FFF784FFFB7903F01F0303F1604303F56443BA795201D2B21A700837BD4680BD80B500AF154B01221A70154B81221A70144B38221A70144B1E221A7099
:40380000134B00221A70134B4FF400421A600F200721FFF7C5FF0F200F49FFF799FF0F4B00221A700E4B00221A700E4B00221A800D4B00221A800D4B00221A8080BD00BFB7
:40384000D6490040C8490040CA490040DB490040DC49004080E100E04D39000058B3FF1F50B3FF1F4CB3FF1F4AB3FF1F4EB3FF1F80B582B000AFFFF723FF0346FB710D4ADA
:403880000C4B1B78DBB243F00403DBB213700A4A094B1B78DBB243F00403DBB21370FB791846FFF711FF054B4FF400421A600837BD4680BDA5430040B543004000E100E06E
:4038C00080B500AF054B1B78002B04D1FFF78AFF024B01221A70FFF7CBFF80BD4881FF1F80B483B000AF03463A60FB800B46BB800F4B4FF400421A603B68002B08D00D4A4E
:403900003B6813600C4AFB8813800C4ABB8813800B4B00221A800B4B00221A800A4B4FF400421A600C37BD465DF8047B704700BF80E100E054B3FF1F48B3FF1F4EB3FF1F33
:403940004CB3FF1F4AB3FF1F00E100E080B400AF974B1B78DAB2974B1A70964B1B7803F00803002B42D0944B1B78DBB203F00103002B24D0904A914B1B689149098889B25B
:403980000B441B78DBB21370894B14221A708C4B1B889AB28B4B1A808A4B1B889BB201339AB2884B1A80884B1B78DBB243F01103DAB2854B1A70854B08221A70D9E07C4B75
:4039C00010221A70804B1B78DBB243F01203DAB27D4B1A707D4B01221A707D4A7C4B1B78DBB243F01003DBB21370C2E0714B1B7803F00103002B00F0BC80744B1B78DBB263
:403A0000013B072B00F2A88001A252F823F000BF313A00004B3A0000593B0000973A0000593B0000593B0000593B0000E13A0000614B1B78DBB29AB2664B1A805C4B1022D7
:403A40001A70624B02221A7093E0624B1B881B029AB2594B1B78DBB29BB213439AB25D4B1A805C4B1A885C4B1B889BB29A420ED24F4B10221A70574B1A88514B1A80554B34
:403A80001A88504B1A80514B04221A7071E0484B00221A706DE04B4B1B889AB24F4B1B889BB29A4218D2444B1B78DAB24C4B1A703F4B10221A70414B1B68424A128892B2A3
:403AC0001344474A12781A703E4B1B889BB201339AB23C4B1A804CE0354B00221A7048E0344B1B7803F00203002B23D1354B1B889AB2394B1B889BB29A4214D22E4A2F4B70
:403B00001B683049098889B20B441B78DBB21370274B04221A702B4B1B889BB201339AB2284B1A8025E0244BFF221A70204B04221A701EE0204BFF221A701D4B00221A7054
:403B4000214B1B78DBB223F01003DAB21E4B1A701E4B00221A700CE01C4B00221A70184B00221A80174B00221A80114B00221A7000BF0F4B1B78DBB203F02003002B12D05F
:403B8000114B1B78DBB223F01003DAB20E4B1A700E4B00221A700E4A0D4B1B78DBB223F01003DBB21370BD465DF8047B704700BFD74900404A81FF1FD849004054B3FF1FCD
:403BC0004CB3FF1F4AB3FF1F50B3FF1F58B3FF1FD64900404C81FF1F48B3FF1F4EB3FF1F4E81FF1F80B500AF204A204B1B78DBB203F00103DBB213701D4A1D4B1B78DBB205
:403C000023F00303DBB213701A4A1A4B1B78DBB223F03003DBB21370164A164B1B78DBB243F03003DBB21370124A124B1B78DBB223F00F03DBB213700E4A0E4B1B78DBB2E6
:403C400043F00F03DBB213700B4A0B4B1B78DBB243F00103DBB21370182000F05FF8182000F06EF8082000F03DF880BD0C4F00400E4F0040174F00400D4F004080B400AFE9
:403C80000D4A0D4B1B78DBB243F00203DBB213700A4A0A4B1B78DBB243F00203DBB21370074A074B1B78DBB243F00103DBB21370BD465DF8047B7047A3430040B3430040E8
:403CC0000C4F004080B500AF054B1B78002B04D1FFF788FF024B01221A70FFF7CFFF80BD5081FF1F80B483B000AF0346FB71044AFB7913700C37BD465DF8047B704700BF5B
:403D00000F4F004080B400AF034B1B78DBB21846BD465DF8047B70470F4F004080B485B000AF0346FB80FB88FB81044AFB8913801437BD465DF8047B704700BF104F004093
:403D400080B483B000AF0346FB80044AFB8813800C37BD465DF8047B704700BF124F004080B582B000AF786000F050F8786800F01DF8072000F02CF800F03CF80837BD4628
:403D800080BD00BF80B500AFFFF7BCFF054B1B680133044A1360044B1B680133024A136080BD00BF60B3FF1F6081FF1F80B485B000AF7860054B1B68FB60FB6888337A689B
:403DC0001A601437BD465DF8047B704708ED00E080B483B000AF0346FB71054AFB795B01DBB213700C37BD465DF8047B704700BF12E400E080B400AF034B4FF480221A60AB
:403E0000BD465DF8047B704700E100E080B400AF034B4FF480221A60BD465DF8047B704780E100E080B400AF094A094B1B78DBB243F00403DBB21370064A064B1B78DBB21F
:403E400043F00403DBB21370BD465DF8047B7047A2430040B243004080B584B000AF03460A46FB8013467B7100F0B2F80346FB7300F0A2F80346BB81FA88BB899A4200F0AD
:403E80008780454B1B78DBB203F00403FB72FB7B002B20D1BB89002B02D0FB88002B1AD1BB89002B0BD13D4AFB8813803C4A3C4B1B78DBB223F04003DBB2137068E0384A33
:403EC000374B1B78DBB243F04003DBB21370334AFB8813805CE0FB7A002B33D0314B00221A70314B04221A70304B00221A70304A2F4B1B78DBB203F07F03DBB21370284BA1
:403F00001B78DBB203F00803002B02D0FB88002B18D1284ABB891380224B07221A7000BF204B1B78DBB203F00103002BF8D11A4A194B1B78DBB223F00403DBB21370194BBB
:403F400000221A70144B1B78DBB203F00403002B13D0184AFB881380124A7B79002B01D0032300E00123137000BF0E4B1B78DBB203F00103002BF8D10AE0084AFB88138028
:403F80000549054B1B78DAB2FB7A1343DBB20B701037BD4680BD00BFA2430040884000408A400040014000401040004014400040084000400240004080B400AF034B1B8871
:403FC0009BB21846BD465DF8047B70478840004080B400AF054B1B78DBB203F00703DBB21846BD465DF8047B704700BF8A40004080B582B000AF786000F070F8786800F0D8
:404000003DF8072000F04CF800F05CF80837BD4680BD00BF80B500AF00F06CF8124B1B78052B07D0104B1B78692B03D00E4B1B78372B18D1FFF7EAFE0C4B1B680C4A136032
:40404000FFF7D8FE0A4B1B683F2B05DC094B00221A70094B01221A70FFF7D8FE034B00221A60FFF7C7FE80BD6581FF1F60B3FF1F64B3FF1F5CB3FF1F68B3FF1F80B485B069
:4040800000AF7860054B1B68FB60FB6848337A681A601437BD465DF8047B704708ED00E080B483B000AF0346FB71054AFB795B01DBB213700C37BD465DF8047B704700BFD9
:4040C00002E400E080B400AF034B04221A60BD465DF8047B704700BF00E100E080B400AF034B04221A60BD465DF8047B704700BF80E100E080B400AF034B1B78DBB218460D
:40410000BD465DF8047B70476D64004080B485B000AF0346FB710A4B1B78DBB223F00103FB730749FB7903F00103DAB2FB7B1343DBB20B701437BD465DF8047B704700BF66
:40414000F051004080B485B000AF0346FB710B4B1B78DBB223F00403FB730849FB799B00DBB203F00403DAB2FB7B1343DBB20B701437BD465DF8047B704700BF3051004053
:4041800080B485B000AF0346FB710B4B1B78DBB223F02003FB730849FB795B01DBB203F02003DAB2FB7B1343DBB20B701437BD465DF8047B704700BF3051004080B400AFB8
:4041C000094A094B1B78DBB243F00803DBB21370064A064B1B78DBB243F00803DBB21370BD465DF8047B7047A2430040B243004080B584B000AF03460A46FB8013467B7142
:4042000000F0B2F80346FB7300F0A2F80346BB81FA88BB899A4200F08780454B1B78DBB203F00803FB72FB7B002B20D1BB89002B02D0FB88002B1AD1BB89002B0BD13D4A2C
:40424000FB8813803C4A3C4B1B78DBB223F04003DBB2137068E0384A374B1B78DBB243F04003DBB21370334AFB8813805CE0FB7A002B33D0314B00221A70314B08221A70D9
:40428000304B00221A70304A2F4B1B78DBB203F07F03DBB21370284B1B78DBB203F00803002B02D0FB88002B18D1284ABB891380224B07221A7000BF204B1B78DBB203F073
:4042C0000103002BF8D11A4A194B1B78DBB223F00803DBB21370194B00221A70144B1B78DBB203F00803002B13D0184AFB881380124A7B79002B01D0032300E001231370A4
:4043000000BF0E4B1B78DBB203F00103002BF8D10AE0084AFB8813800549054B1B78DAB2FB7A1343DBB20B701037BD4680BD00BFA24300408C4000408E4000400140004072
:404340001040004014400040084000400240004080B400AF034B1B889BB21846BD465DF8047B70478C40004080B400AF054B1B78DBB203F00703DBB21846BD465DF8047BE4
:40438000704700BF8E40004080B485B000AF0346FB710B4B1B78DBB223F00203FB730849FB795B00DBB203F00203DAB2FB7B1343DBB20B701437BD465DF8047B704700BF13
:4043C000F051004080B582B000AF786000F04EF8786800F009F8072000F018F800F028F80837BD4680BD00BF80B485B000AF7860054B1B68FB60FB6854337A681A60143723
:40440000BD465DF8047B704708ED00E080B483B000AF0346FB71054AFB795B01DBB213700C37BD465DF8047B704700BF05E400E080B400AF034B20221A60BD465DF8047B02
:40444000704700BF00E100E080B400AF064B1B6803F02003002B01D0012300E000231846BD465DF8047B704700E100E080B400AF034B20221A60BD465DF8047B704700BF2E
:4044800080E100E080B582B000AF40F60F6000F05BF840F60F6000F073F8FFF711F90346FB710A4A094B1B78DBB243F01003DBB21370FB791846FFF707F900F071F80120A8
:4044C00000F026F80837BD4680BD00BF9364004080B400AF054A054B1B78DBB263F07F03DBB21370BD465DF8047B70477564004080B500AF054B1B78002B04D1FFF7C2FF8D
:40450000024B01221A70FFF7E3FF80BD5181FF1F80B483B000AF0346FB71044AFB7913700C37BD465DF8047B704700BF8364004080B400AF034B1B78DBB21846BD465DF8AE
:40454000047B70476364004080B483B000AF0346FB80044AFB8813800C37BD465DF8047B704700BF4C6A004080B400AF034B1B889BB21846BD465DF8047B70478C6A0040F7
:4045800080B483B000AF0346FB80044AFB8813800C37BD465DF8047B704700BF0C6A004080B500AF01E0FFF7DFFFFFF7C1FF034603F00803002BF6D180BD00BF80B500AF0F
:4045C00000F068F8044800F035F8072000F044F800F054F880BD00BFDD45000080B582B000AF00F065FD0346FB71FB7903F00103002B0CD0002000F059F80B4B01221A7062
:404600000A4B00221A700A4B00221A6008E0012000F04CF8044B00221A70044B01221A700837BD4680BD00BF74B3FF1F6CB3FF1F70B3FF1F80B485B000AF7860054B1B6890
:40464000FB60FB6850337A681A601437BD465DF8047B704708ED00E080B483B000AF0346FB71054AFB795B01DBB213700C37BD465DF8047B704700BF04E400E080B400AFBA
:40468000034B10221A60BD465DF8047B704700BF00E100E080B400AF034B10221A60BD465DF8047B704700BF80E100E080B485B000AF0346FB710B4B1B78DBB223F04003EE
:4046C000FB730849FB799B01DBB203F04003DAB2FB7B1343DBB20B701437BD465DF8047B704700BF1051004080B485B000AF0346FB710B4B1B78DBB223F01003FB73084967
:40470000FB791B01DBB203F01003DAB2FB7B1343DBB20B701437BD465DF8047B704700BF2051004080B485B000AF0346FB71094B1B78DBB203F07F03FB730649FB79DB01EA
:40474000DAB2FB7B1343DBB20B701437BD465DF8047B70471051004080B500AF054B1B78002B04D100F008F8024B01221A7000F01FF880BD5281FF1F80B500AF0020084924
:40478000FEF7E6FF00200721FFF70AF8054B00221A70054B72221A70044B20221A7080BDE54A00005381FF1F876500408664004080B582B000AFFEF783FF0346FB710D4A0D
:4047C0000C4B1B78DBB243F02003DBB213700A4A094B1B78DBB243F01003DBB21370074B01221A60FB791846FEF76EFF0837BD4680BD00BF976500409664004000E100E026
:4048000080B400AF034B1B78DBB21846BD465DF8047B70477164004080B483B000AF0346FB71044AFB7913700C37BD465DF8047B704700BF7164004080B483B000AF034612
:40484000FB71044AFB7913700C37BD465DF8047B704700BF8664004080B483B000AF0023FB71234B01221A60224B1B88BB80224B1B887B80214B1B78DBB2002B03D1BA88FA
:404880007B889A4218D0BB881D4AD35CFB71BB880133BB80BB88FF2B01D90023BB80154ABB881380154B1B78DBB2002B03D0134B00221A7012E011E0124B1B787B707B7827
:4048C00003F02003002B09D00F4B1B78FB717B7803F01E03002B01D00023FB710B4B01221A60FB7918460C37BD465DF8047B704780E100E05481FF1F5681FF1F5881FF1FFD
:4049000078B3FF1F666400404664004000E100E080B483B000AF1E4B01221A601D4B1B889AB21D4B1B889BB29A420BD11B4B1B78DBB2002B03D04FF48073FB801EE00023A0
:40494000FB801BE0134B1B889AB2134B1B889BB29A4208D2104B1B889AB20E4B1B889BB2D31AFB800AE00C4B1B889AB2094B1B889BB2D31A9BB203F58073FB80084B0122EB
:404980001A60FB8818460C37BD465DF8047B704780E100E05481FF1F5681FF1F5881FF1F00E100E080B582B000AFFEF789FE0346FB71144A134B1B78DBB243F00103DBB203
:4049C0001370104A0F4B1B78DBB223F00103DBB21370FB791846FEF777FE0B4B01221A600A4B00221A800A4B00221A80094B00221A70094B00221A70084B01221A600837B9
:404A0000BD4680BD9664004080E100E05481FF1F5681FF1F5881FF1F5981FF1F00E100E080B483B000AF0346FB7100BF074B1B78DBB203F02003002BF8D1054AFB791370D7
:404A40000C37BD465DF8047B704700BF666400405664004080B584B000AF78600B46FB700023FB730A4B1B78002B0ED009E0FB7B7A6813441B781846FFF7D2FFFB7B01337A
:404A8000FB73FA7BFB789A42F1D31037BD4680BD5281FF1F80B500AFFFF7B2FE034623F00103DBB21846FFF7B7FE034B72221A702020FFF7C1FE80BD8765004080B500AF5A
:404AC0000020FFF7B9FEFFF79BFE034643F00103DBB21846FFF7A0FE014B6F221A7080BD8765004080B483B000AF0023FB712B4B1B78BB71BB797B71BB7903F01E03002B1E
:404B00000BD0BB7903F01E03DAB2254B1B78DBB21343DBB2DAB2224B1A70BB7903F02003002B30D01F4B1B787B711F4B1B889BB219461E4A7B7953540123FB71FB79002B87
:404B400021D01B4B1B78DBB2002B02D0194B01221A70154B1B889BB201339AB2124B1A80114B1B889BB2FF2B02D90F4B00221A800D4B1B889AB2104B1B889BB29A4202D141
:404B80000B4B01221A70BB7903F02003002BAED10C37BD465DF8047B704700BF666400405381FF1F466400405681FF1F78B3FF1F5881FF1F5981FF1F5481FF1F80B500AF84
:404BC000054B1B78002B04D100F008F8024B01221A7000F013F880BD5A81FF1F80B400AF044B72221A70044B20221A70BD465DF8047B7047846400408865004080B582B002
:404C000000AFFEF75DFD0346FB710B4A0A4B1B78DBB243F02003DBB21370084A074B1B78DBB243F01003DBB21370FB791846FEF74BFD0837BD4680BD946400409865004074
:404C400080B400AF034B1B78DBB21846BD465DF8047B70477264004080B483B000AF0346FB71044AFB7913700C37BD465DF8047B704700BF7264004080B483B000AF054BC5
:404C80001B78FB71FB7918460C37BD465DF8047B704700BF4865004080B483B000AF064B1B78DBB203F07F03FB71FB7918460C37BD465DF8047B70476865004080B582B027
:404CC00000AFFEF7FDFC0346FB710B4A0A4B1B78DBB243F00103DBB21370074A064B1B78DBB223F00103DBB21370FB791846FEF7EBFC0837BD4680BD9865004080B483B097
:404D000000AF0346FB7100BF074B1B78DBB203F02003002BF8D1054AFB7913700C37BD465DF8047B704700BF686500405865004080B584B000AF78600B46FB700023FB73B7
:404D40000A4B1B78002B0ED009E0FB7B7A6813441B781846FFF7D2FFFB7B0133FB73FA7BFB789A42F1D31037BD4680BD5A81FF1F80B500AFFFF764FF034623F00103DBB2A8
:404D80001846FFF769FF024B72221A7080BD00BF8464004080B500AFFFF752FF034643F00103DBB21846FFF757FF024B6F221A7080BD00BF8464004080B582B000AF78604C
:404DC00000F03CF8786800F009F8072000F018F800F028F80837BD4680BD00BF80B485B000AF7860054B1B68FB60FB684C337A681A601437BD465DF8047B704708ED00E03F
:404E000080B483B000AF0346FB71054AFB795B01DBB213700C37BD465DF8047B704700BF03E400E080B400AF034B08221A60BD465DF8047B704700BF00E100E080B400AF5B
:404E4000034B08221A60BD465DF8047B704700BF80E100E080B582B000AF182000F05AF8182000F073F8FEF72BFC0346FB710A4A094B1B78DBB243F01003DBB21370FB792C
:404E80001846FEF721FC00F071F8012000F016F80837BD4680BD00BF9965004080B400AF054A054B1B78DBB263F07F03DBB21370BD465DF8047B70477965004080B483B0F4
:404EC00000AF0346FB71044AFB7913700C37BD465DF8047B704700BF8965004080B400AF034B1B78DBB21846BD465DF8047B70476965004080B483B000AF0346FB71044AE7
:404F0000FB7913700C37BD465DF8047B704700BF7965004080B483B000AF0346FB71044AFB7913700C37BD465DF8047B704700BF2965004080B400AF034B1B78DBB21846AF
:404F4000BD465DF8047B70474965004080B483B000AF0346FB71044AFB7913700C37BD465DF8047B704700BF0965004080B500AF01E0FFF7DFFFFFF7B1FF034603F00803E1
:404F8000002BF6D180BD00BF80B500AF074B5B781846FFF7DBFF064B044A92781A70034BDB781846FFF7A6FF80BD00BF5C81FF1F8965004080B582B000AF786000F04EF8B6
:404FC000786800F009F8072000F018F800F028F80837BD4680BD00BF80B485B000AF7860054B1B68FB60FB6844337A681A601437BD465DF8047B704708ED00E080B483B002
:4050000000AF0346FB71054AFB795B01DBB213700C37BD465DF8047B704700BF01E400E080B400AF034B02221A60BD465DF8047B704700BF00E100E080B400AF064B1B68F4
:4050400003F00203002B01D0012300E000231846BD465DF8047B704700E100E080B400AF034B02221A60BD465DF8047B704700BF80E100E080B485B000AF0346FB710B4BE8
:405080001B78DBB223F00203FB730849FB795B00DBB203F00203DAB2FB7B1343DBB20B701437BD465DF8047B704700BF0051004080B400AF034B1B78DBB21846BD465DF815
:4050C000047B70476064004081F0004102E000BF83F0004330B54FEA41044FEA430594EA050F08BF90EA020F1FBF54EA000C55EA020C7FEA645C7FEA655C00F0E2804FEA52
:405100005454D4EB5555B8BF6D420CDD2C4480EA020281EA030382EA000083EA010180EA020281EA0303362D88BF30BD11F0004F4FEA01314FF4801C4CEA113102D0404249
:4051400061EB410113F0004F4FEA03334CEA133302D0524263EB430394EA050F00F0A780A4F10104D5F1200E0DDB02FA0EFC22FA05F2801841F1000103FA0EF2801843FA95
:4051800005F359410EE0A5F120050EF1200E012A03FA0EFC28BF4CF0020C43FA05F3C01851EBE37101F0004507D54FF0000EDCF1000C7EEB00006EEB0101B1F5801F1BD358
:4051C000B1F5001F0CD349085FEA30004FEA3C0C04F101044FEA445212F5800F80F09A80BCF1004F08BF5FEA500C50F1000041EB045141EA050130BD5FEA4C0C404141EB41
:40520000010111F4801FA4F10104E9D191F0000F04BF01460020B1FA81F308BF2033A3F10B03B3F120020CDA0C3208DD02F1140CC2F10C0201FA0CF021FA02F10CE002F158
:405240001402D8BFC2F1200C01FA02F120FA0CFCDCBF41EA0C019040E41AA2BF01EB0451294330BD6FEA04041F3C1CDA0C340EDC04F11404C4F1200220FA04F001FA02F338
:4052800040EA030021FA04F345EA030130BDC4F10C04C4F1200220FA02F001FA04F340EA0300294630BD21FA04F0294630BD94F0000F83F4801306BF81F480110134013D26
:4052C0004EE77FEA645C18BF7FEA655C29D094EA050F08BF90EA020F05D054EA000C04BF1946104630BD91EA030F1EBF0021002030BD5FEA545C05D14000494128BF41F0A5
:40530000004130BD14F580043CBF01F5801130BD01F0004545F0FE4141F470014FF0000030BD7FEA645C1ABF194610467FEA655C1CBF0B46024650EA013406BF52EA0335CA
:4053400091EA030F41F4002130BD00BF90F0000F04BF0021704730B54FF4806404F132044FF000054FF0000150E700BF90F0000F04BF0021704730B54FF4806404F1320462
:4053800010F0004548BF40424FF000013EE700BF42004FEAE2014FEA31014FEA02701FBF12F07F4393F07F4F81F06051704792F0000F14BF93F07F4F704730B54FF4607453
:4053C00001F0004521F0004120E700BF50EA010208BF704730B54FF000050AE050EA010208BF704730B511F0004502D5404261EB41014FF4806404F132045FEA915C3FF409
:40540000DCAE4FF003025FEADC0C18BF03325FEADC0C18BF033202EBDC02C2F1200300FA03FC20FA02F001FA03FE40EA0E0021FA02F11444C1E600BF70B54FF0FF0C4CF4CF
:40544000E06C1CEA11541DBF1CEA135594EA0C0F95EA0C0F00F0DEF82C4481EA030621EA4C5123EA4C5350EA013518BF52EA033541F4801143F4801338D0A0FB02CE4FF0FD
:405480000005E1FB02E506F00042E0FB03E54FF00006E1FB03569CF0000F18BF4EF0010EA4F1FF04B6F5007F64F5407404D25FEA4E0E6D4146EB060642EAC62141EA5551D7
:4054C0004FEAC52040EA5E504FEACE2EB4F1FD0C88BFBCF5E06F1ED8BEF1004F08BF5FEA500E50F1000041EB045170BD06F0004646EA010140EA020081EA0301B4EB5C0433
:40550000C2BFD4EB0C0541EA045170BD41F480114FF0000E013C00F3AB8014F1360FDEBF002001F0004170BDC4F10004203C35DA0C341BDC04F11404C4F1200500FA05F365
:4055400020FA04F001FA05F240EA020001F0004221F0004110EBD37021FA04F642EB06015EEA430E08BF20EAD37070BDC4F10C04C4F1200500FA04F320FA05F001FA04F289
:4055800040EA020001F0004110EBD37041F100015EEA430E08BF20EAD37070BDC4F1200500FA05F24EEA020E20FA04F301FA05F243EA020321FA04F001F0004121FA04F2A8
:4055C00020EA020000EBD3705EEA430E08BF20EAD37070BD94F0000F0FD101F00046400041EB010111F4801F08BF013CF7D041EA060195F0000F18BF704703F00046520031
:4056000043EB030313F4801F08BF013DF7D043EA0603704794EA0C0F0CEA135518BF95EA0C0F0CD050EA410618BF52EA4306D1D181EA030101F000414FF0000070BD50EACD
:40564000410606BF1046194652EA430619D094EA0C0F02D150EA013613D195EA0C0F05D152EA03361CBF104619460AD181EA030101F0004141F0FE4141F470014FF00000F4
:4056800070BD41F0FE4141F4780170BD70B54FF0FF0C4CF4E06C1CEA11541DBF1CEA135594EA0C0F95EA0C0F00F0A7F8A4EB050481EA030E52EA03354FEA013100F0888015
:4056C0004FEA03334FF0805545EA131343EA12634FEA022245EA111545EA10654FEA00260EF000419D4208BF964244F1FD0404F5407402D25B084FEA3202B61A65EB03050F
:405700005B084FEA32024FF480104FF4002CB6EB020E75EB030E22BFB61A754640EA0C005B084FEA3202B6EB020E75EB030E22BFB61A754640EA5C005B084FEA3202B6EB3E
:40574000020E75EB030E22BFB61A754640EA9C005B084FEA3202B6EB020E75EB030E22BFB61A754640EADC0055EA060E18D04FEA051545EA16754FEA06164FEAC30343EA49
:4057800052734FEAC2025FEA1C1CC0D111F4801F0BD141EA00014FF000004FF0004CB6E711F4801F04BF01430020B4F1FD0C88BFBCF5E06F3FF6AFAEB5EB030C04BFB6EB9D
:4057C000020C5FEA500C50F1000041EB045170BD0EF0004E4EEA113114EB5C04C2BFD4EB0C0541EA045170BD41F480114FF0000E013C90E645EA060E8DE60CEA135594EA8C
:405800000C0F08BF95EA0C0F3FF43BAF94EA0C0F0AD150EA01347FF434AF95EA0C0F7FF425AF104619462CE795EA0C0F06D152EA03353FF4FDAE1046194622E750EA4106EB
:4058400018BF52EA43067FF4C5AE50EA41047FF40DAF52EA43057FF4EBAE12E74FEA410212F5001215D211D56FF47873B3EB625212D94FEAC12343F0004343EA505311F05E
:40588000004F23FA02F018BF404270474FF00000704750EA013005D111F0004008BF6FF0004070474FF00000704700BF0E4B70B51E460E4C0025E41AA410A54204D056F814
:4058C000253098470135F8E700F052F8084B094C1E46E41AA4100025A54204D056F8253098470135F8E770BD7C5900007C5900007C5900008459000010B5431E0A44914220
:4059000004D011F8014B03F8014FF8E710BD03460244934202D003F8011BFAE77047000000000000C84900401900004F0040240040510040300080000140800F001401409F
:40594000000480180140800300400140000A004C014000020050014020000000000001407C0D0048800000180140FC0D00488000F8B500BFF8BC08BC9E4670474D00000074
:405980002D280000F8B500BFF8BC08BC9E46704729000000A85900000881FF1F200000005033000000000000000000000034E3FDA000000000010000006CDC0280BB000065
:4059C000300000000000C05D00000000000000000000000000000000000000000000000000000000000000000000000000000000000000000000000000000000000000005A
:405A00000000000000000000000000000000000000000000000000000000000000000000000000000000000000000000000000000000000000000000000000000000000066
:405A40000000000000000000000000000000000000000000000000000000000000000000000000000000000000000000000000000000000000000000000000000000000026
:405A800000000000000000000000000000000000000000000000000000000000000000000000000000000000000000000000000000000000000000000000000000000000E6
:405AC00000000000000000000000000000000000000000000000000000000000000000000000000000000000000000000000000000000000000000000000000000000000A6
:020000040003F7
:0200000480007A
:40000000054F00400752004006640040036500401A0001403C01014064020140480301404D0401405305014060060140600701405508014047090140430A0140510B014061
:40004000560C01403C0D0140010F0140521401403F150140661601404D1701401D18014058190140071B0140064001400D410140064201400F430140034401400645014093
:4000800007460140034701400A48014011490140094C0140064D01400C5001400351014001400A270D101627222704E014C118521912602061307C10830D8472863B883C92
:4000C0008B0F8C718772883B890D81A085408795890C8B138D10919F93609503971C9DF5A180A31FA505A70AA90AAB05AD60AF9FB7FFBF40D203D904DB04DD20DF01010124
:40010000032409080A400B06100111101290188019011A401B20204C210122C02310270228012A4A2B082C802D012E062F0730023240332435013680370438A439223A108E
:400140003C403D103E283F054110424048244B015108530858606D406E20800483028718C00EC20FC40FCAFFCCDFCEFFD005D204D60CE008E4020101040A061507010803E6
:400180000A0C0B010C050E0A0F01115013A014081548160217A018051A301B021C0F1D181E201F2021012240240C2603270128102A0F2B04313F320F347035C739223A0894
:4001C0005203580459045B045C255D305F01843E85088712882089048A448B108C018D088E7E8F12903A92049402964499019A409D089E419F12A044A210A408A644A83E44
:40020000B040B101B318B43FB506B928BE11BF05C006C604C9FFCA07CBFFCC40CD20CEF0CF05D008D401D604D804D904DA04DB04DC50DD55DF01E040E1A8E240E320002088
:40024000014003100484070409200A500BA20D880E04100811081280130115201620170218401B101D081E041F0421102202231427482C082F503020318032503401375883
:4002800038A43C203D483F014B105090594561026F0A8210850290849140928094209604970C9B029C409E609F04A020A210A480A822AA20C0E7C2EFC47ECAE0CCFCCEFE6F
:4002C000D204D60BD801E208E404EA02EE040112029E0424072408E509130A120DF70E011081120613BF1499157F1666178018F919681A021B931C441D12200423BF24019B
:4003000025482797286429112C672D072E8831C034E0357F367F3E403F1156025713580459045B045C035D305F0181028521860289638B188F1B9103956399789A019C012E
:400340009D429E02A30BA518A763A963AB10AF04B178B507B603BB22BE40D280D804D904DB04DC30DD50DF0100800102021003040620081009020A210B800E040F021020A5
:400380001101120A1310180419801F8021102201248026022704281229122A112D802F6830C031023210332E34523608388039013B183D213F845A0269196A807080711030
:4003C000720173147640802087018A018B049040914092049650970298029B489C019D459F10A210A312A418A524A680A802AB0CAC40AE42B220C02FC2CFC40FCAFFCCFFA2
:40040000CEFFD601E201E608E802EA09EE0800C002100301060308400A20100812041301140316C018071EC2200322C024C128C02A032C802E2030073230340836C03701F9
:400440003E143F40405641024204440345CE46D047FB483B49FF4AFF4BFF4C624DA04EF04F41500C541B5604580459045A045B045C025D225F056640670269106A306B109A
:400480006D106E106F12853E883F893E8C018E02903D9104920293109408952096029704980499029A029B049D3A9F04A108A304A420A602A83FAB01AC02AD01AE10AF3EF3
:4004C000B23FB33FBF04D804D904DC03DF010204030205080748081009400AA00B010C400E880F1010201110120214811620172018201B081D081E811F20201025402B8A50
:40050000301032423304370139183A043C203D013F10450847214D054FA0553056095A105B205C405D205E01660267097F40814C82208340860289108A028B028C208D109D
:400540008E088F0C90409178928094209670970299109A409B4C9C119D459F10A21AA312A458A524A680A850A910AA01AB40AE20AF80B404C073C2FEC4F7CA0DCC8FCE86D8
:40058000D0E0D230D6B0D8B0DE80E208EA080050010302A00401050109030B1C0D8F0E010F70110212011520160218481AA01B1F1C181D601E202140220125E72601271837
:4005C0002801297B2B842D6C2E042F93317F338034C7363F38A039083B02541C580459045B045C335D505F01803A82C5830884FF8B028CAC8E539053910492AC94FF97020E
:400600009B089C309E0AA03AA2C5A40FA630A805A902AAFAAB05AEFFB301B4C0B506B63FB708B802BA80BE01BF50D608D804D904DB04DC35DD90DF010001010402010480C6
:400640000504064008040A420D010E090F1011121222152016A218011A041B021C041E092240232424C026082A202C082D012E802F1030223208340235A838223C443E2184
:4006800058405E06670A84408702880889108A228DAA8E8891159242930A98069A419B089C80A101A2A3A320A711AF02B708C0BDC2FDC4FFCAF4CCF7CEF5D6C8D830E0D0A4
:4006C000E4F0E608EC40010A030504010503070C090F0D050F0A11021301150F19031B0C1F0F210C2303310F34013B0A5608580459045B045C565D905F0181A783508502D6
:4007000089068A028E048F019106920895FF960299019A049F38A104A5F9A608A706A987AA01AB68AD06B004B11FB208B380B402B540B601B726B920BB02BE15BF04D40120
:40074000D804D904DB04DC54DD50DF01021007090C220F20104011021604170418041D401FA5220925012604270528402C802D142ED02F10322933403405362837403916EC
:400780003A813D823E28589059085A015DA25E04600262D463016E206F0A7801790281088301861189018B019102921493209404981099A29AA89B409C449D409F01A0A280
:4007C000A140A223A60CA788A840AA80AC10AD08AE04B010B101C0C4C270C460CAF1CCFFCEFFD6FFD80EE288E480E604EE8002F9041706E808B10A400C041040123014FF01
:4008000018F919011A061C661E992270230224022501280629022D012E7030703101320E34073502368037023A2A3F10402541064204440346C047E0482849FF4AFF4BFF35
:400840004C624DA04EF04F41500C56025712580459045A045B045C555D555F016640670269106A306B106D106E106F1284018606910293019C049E01AD01AF06B005B1045C
:40088000B204B301B401B503B602B702D21CD804D904DB04DC46DD50DF0100040504060107480A020C440D200E4015011602171419181A021B021D241E521F1021022240D9
:4008C000232425402622274829402D402FA831023610452047094E0A54225A805B205E08681069036D406E206F207040720274807629771481028702970499A09D10A910FB
:40090000AF04C0F4C2F1C4F0CAF8CC21D0E0D230D64C85A0006701020208047905630602086509210A120E1E0F0B100111421280141915181666176319031A011C441D638A
:400940001F182004230424242578286429632B102C012E062F1B307F3307348037783B883E01580459045C225F018002817B82108384840485208602882089EC8A028B131A
:400980008C018E028F9F903D91029202943F9501980899609A029D03A140A5E7A718A83FA98FAB70AD83AF1CB03FB37FB7E0BB08D804D904DC22DF0100A0012802C00308B1
:4009C00005280641080509840A070C080E481020114112151330171019011A041C801F032022228025042604270129092B0A2C042D482E0130043110328134013768394155
:400A00003A143CA23F049141924093149702980199189B589F01A028A180A410A504A680AC40B340C0FFC27FC44FCAFFCCFFCEFFE830EA03EE4001120208051109130C1029
:400A40000D121004117F1202138015E8171319071D771F80233F2608272429C82B172C0A2E152F3F30013218337F3606378039803E443F04404249FF4AFF4BFF4F015018EA
:400A80005608580459045A045B045C225D955F016040624064406540668068806A806C806E8080768208844E8630884A8A308E3F944E96309A809E3CA280A806AA11B060DD
:400AC000B21EB401B680BA08BE51C042C5ECC620C80BC9FFCAFFCBFFCD83CE03CF01D018D602D713D804DA04DB04DC02DD25DF01E040E240E440E540E680E880EA80EC8080
:400B0000EE80002001480280030404020601084409240B020D02112012401544196A1A101D021F44240226042C402D402E183484351036923D813F144120428045E046C015
:400B40004905512059025F406401680869016A406B107020718073148010820283048410901091449650978A9A499B489CD19D659F11A110A210A458A504A684AF20B114FA
:400B8000B650B780C09FC217C4AACAF0CCF0CEF0D0A5D611D810E228E401E602A801B601BE40C042C5ECC620C80BC9FFCAFFCBFFCF01D018D280D401D604D804DA04DB048C
:400BC000DD11DF01E040E240E440E540E680E880EA80EC80EE800480064807250C100D120E4011201502162019801C411E201F102510260227122E612F1034103680370588
:400C0000388039423A013C043DA04120428045014601471849054C104D404F025020512054025640571059055A805C405E205F0263406786700172807C018101850187505C
:400C40008B4090849120928193049422950297209A289B289C80A142A280A320A422A711B140B310B440B504C0F0C250C432CAF0CCF0CE70D0F5D210D6BBD8B1DE80E22061
:400C8000E810EA40ECA0AB21AE02B480B580E810EA01EE403282341037083B10CCF0CE10302053208420871097109C109F08A680AE02CC10D420E250EA403E109C109F08D9
:400CC000A680A720CE2069016D017B0285018680870296109C109F08A680AF20DCE0E210E610EE1011011420C40C05020D0191019820C004C2048102850191019820990232
:400D0000B101EA0484209101982087088810910196109C109F08A210AE10E210EE10000806085D015E20660191019A019E08A210A404AA10B004B609C090D6A0D880EA80D8
:400D400010401320148079017C2091019820C40EDE0378407C8098C0AB20DC01DE04007C0101082C0A2C0C780D010E70102E11011A241B011C0A00FF010F03C00001030213
:400D80008020409E0000C1A8002200D80C04300308041003000123000C5613A82B001406000014560000C280400080013F030080C06C001C000022A20000000442060000E3
:400DC00000BE000C13FFFFFF0000F0440C000000000000000404040455050001000000000000C0000000400200000000000000000000000000000000000000000300180051
:400E00004001204000000E10071C0800050708000000000B0B0C0403000200C00703082020035F0C0000000C000C0003088010600F1C6003000020000000450454010300A7
:400E400002BECDF02FFFFFFF62A0F0410C0000001B00040004040404333300050000000000004002001030100010101200000000000000000000000000000000FD0000FF30
:400E80001F000100000000003000000030003000003000000020000000000000330000332300000000000000C00000C0C000000000000000F30020DF1C000000000000005B
:400EC000400009767640520000000000000000000000000000000000000000000000000000000000000000000000000000000000000000000000000000000000000000002B
:400F000000000000000000000000000000000000000000000000000000000000000000000000000000000000000000000000000000000000000000000000000000000000B1
:400F40000000000000000000000000000000000000000000000000000000000000000000000000000000000000000000000000000000000000000000000000000000000071
:400F80000000000000000000000000000000000000000000000000000000000000000000000000000000000000000000000000000000000000000000000000000000000031
:400FC00000000000000000000000000000000000000000000000000000000000000000000000000000000000000000000000000000000000000000000000000000000000F1
:0200000490006A
:0400000000004005B7
:0200000490105A
:04000000BC90ACAF55
:0200000490303A
:020000009FFD62
:0200000490402A
:4000000000000000000000000000000000000000000000000000000000000000000000000000000000000000000000000000000000000000000000000000000000000000C0
:400040000000000000000000000000000000000000000000000000000000000000000000000000000000000000000000000000000000000000000000000000000000000080
:400080000000000000000000000000000000000000000000000000000000000000000000000000000000000000000000000000000000000000000000000000000000000040
:4000C0000000000000000000000000000000000000000000000000000000000000000000000000000000000000000000000000000000000000000000000000000000000000
:0200000490501A
:0C00000000012E11E06900012E3980661D
:00000001FF