:400000000080002011000000A9000000A900000080B500AF47F2BC63C4F2000344F2FA62C4F2000212681A6000F012FC00F040F810B5054C237833B9044810B10448AFF3CC
:4000400000800121217010BD2881FF1F000000009C23000008B5064B1BB106480649AFF300800648016811B1054A02B1904708BD000000009C2300002C81FF1F0881FF1F19
:400080000000000080B500AF4FF0000001F05AFA4FF0000001F078FA4FF0000001F094FA62B600F053FBFEE780B400AFFEE700BF80B586B000AF40F20103C0F200037B61D5
:4000C00042F2A443C0F200033B6140F20103C0F200037B6142F2A443C0F200033B613BE03B691B68FB603B695B68BB603B699B683B604FF000037B600FE0FB681A68BB68EC
:400100001A60BB6803F10403BB60FB6803F10403FB607B6803F104037B607A683B689A42EBD13B69DB683B604FF000037B600BE0BB684FF000021A60BB6803F10403BB60DC
:400140007B6803F104037B607A683B689A42EFD13B6903F110033B617B69002B0CBF00230123DBB27A6902F1FF327A61002BB7D102F0D8F8FFF786FFFEE700BF80B582B0D3
:4001800000AF4EF60C53CEF200034FF48062C0F2FA521A604EF61453CEF200034EF61452CEF20002126842F400721A604FF000037B6019E07B68032B07D840F20003C0F22A
:4001C00000037A6853F8223003E040F2A903C0F2000348F20002C1F6FF72796842F821307B6803F101037B607B682F2BE2D947F2BC63C4F200031B78DAB248F20413C1F651
:40020000FF731A704EF60853CEF2000348F20002C1F6FF721A6000F037F948F20013C1F6FF734FF000021A6007F10807BD4680BD80B582B000AF7860396078684FF0000143
:400240003A6802F09EF807F10807BD4680BD00BF80B584B000AFF860B9607A60F868B9687A6802F085F807F11007BD4680BD00BF80B584B000AFF860B9607A60F868B96827
:400280007A6802F075F807F11007BD4680BD00BF80B483B000AF0346FB71FEE780B487B000AF786039604FF000033B614FF000037B612CE07B694FEA83037A68D3181B68B9
:4002C000BB60BB68FB73BB6823F0FF03BB6017E03B694FEA43033A68D3181B781A46BB68D3183A694FEA420239688A1852781A703B6903F101033B61FB7B03F1FF33FB735E
:40030000FB7B002BE4D17B6903F101037B617B690C2BCFD907F11C07BD4680BC704700BF80B582B000AF4FF48643C4F200034FF002021A704FF040234FF008021A704FF4BC
:400340008443C4F200034FF003021A7044F2A163C4F200034FF48472C4F600121278D2B21A7044F22223C4F200034FF008021A8044F22023C4F2000341F251221A804FF0D7
:400380000003FB704FF019037B6019E0FB784FEA4303DAB244F22523C4F200031B78DBB203F00103DBB21343DBB203F00303FB704FF4F07001F02CF97B6803F1FF337B6063
:4003C0007B68002B02D0FB78032BDFD17B68002B03D14FF00300FFF75BFF44F20403C4F200034FF480721A8044F20403C4F200034FF007021A7044F20603C4F200034FF094
:4004000000021A7044F20803C4F200034FF048021A7044F20403C4F200034FF000021A7044F20103C4F200034FF002021A7007F10807BD4680BD00BF80B483B000AF40F254
:40044000CF13C4F600131B78FB7145F66E03C4F20003FA7902F00702D2B21A7045F66F03C4F20003FA794FEA1212D2B21A7045F67603C4F200034FF044021A7007F10C0722
:40048000BD4680BC704700BF80B586B000AF72B644F2E863C4F2000344F2E862C4F200021278D2B242F00402D2B21A704FF00003FB7519E0FA7D13464FEA43039B184FEA99
:4004C000430342F2A032C0F200029B183B613B691A683B699B889BB210461946FFF7A8FEFB7D03F10103FB75FB7D082BE2D94FF00003FB7523E0FA7D13464FEA83039B18E5
:400500004FEA430342F2D832C0F200029B18FB60FB681B68BB60FB685B687B60FB681A7A5B7A4FEA032313437B807B88B86879681A46FFF79DFEFB7D03F10103FB75FB7D71
:40054000002BD8D042F2E430C0F2000042F21841C0F20001FFF7A2FE45F20303C4F2010345F20302C4F201021278D2B242F00202D2B21A7045F21303C4F2010345F2130247
:40058000C4F201021278D2B242F00202D2B21A7044F2A033C4F2000344F2A032C4F200021278D2B242F04002D2B21A7044F2C233C4F2000344F2C232C4F200021278D2B24A
:4005C00042F01002D2B21A7045F2C010C4F2000042F25441C0F200014FF00A02FFF748FE45F21210C4F2000042F26041C0F200014FF00802FFF73CFE45F22210C4F20000BA
:4006000042F26841C0F200014FF00802FFF730FE44F22233C4F2000344F22232C4F200021278D2B242F00802D2B21A704FF49043C4F200034FF001021A70FFF771FE4FF49C
:400640009043C4F200034FF081021A704FF00403C4F208034FF001021A70FFF7EDFE44F2B030C4F2000044F2A031C4F200014FF00E02FFF7EDFD07F11807BD4680BD00BF1F
:4006800080B485B000AF78600B467B804FF00003FB810DE07B8803F1FF337A68D3181B781A46FB89D318FB817B8803F1FF337B807B88002BEED1FB89C3F100039BB2184688
:4006C00007F11407BD4680BC704700BF80B485B000AF786039604FF00003FB730AE03B6803F1FF333B607A683B68D3181A78FB7BD318FB733B68002BF1D1FB7B184607F17E
:400700001407BD4680BC704780B485B000AF786039604FF00003FB730EE03B6803F1FF333B607A683B68D31803F1804303F500431A78FB7BD318FB733B68002BEDD1FB7B58
:40074000184607F11407BD4680BC704780B5CAB000AF00F0B9FF0346002B03D04FF0000001F0B2F83B46184600F0C0FF0346002B03D04FF0000001F0A7F848F21013C1F633
:40078000FF731B681B684FF000001946FFF79EFF034687F8273148F20C13C1F6FF731B681B7897F82721D31A87F8273197F82731C3F1000387F8273148F20C13C1F6FF7346
:4007C0001B681B7897F827219A4207D148F21013C1F6FF731B681B68002B03D14FF0000001F072F84FF0000000F05CF8C7F8200144F2FA63C4F200031B78DBB203F0C003AE
:40080000402B03D0D7F82031002B0AD044F2FA63C4F200034FF000021A704FF0000000F0D3F84FF0140000F0CFF800F005F807F59477BD4680BD00BF80B500AF44F2FA63D0
:40084000C4F200034FF080021A7001F049F880BD80B500AF44F2FA63C4F200031B78DBB203F0C003802B19D144F2FA63C4F200034FF000021A704FF001004FF0000100F0E3
:4008800027FC0346002B09D04FF001004FF0000100F01EFC0346184600F002F880BD00BF004700BF90B587B000AF0346FB71FB794FF00200194600F00BFC034603F101037F
:4008C0004FEA0324FB794FF00300194600F000FC0346E318FB604FF00003FB744FF00003BB74FB794FF00200194600F0F1FB034603F101034FEA03237B6113E07B691B7800
:40090000FB72FB7A002B05D0FB7AFF2B02D04FF00103FB74BA7CFB7AD318BB747B6903F101037B617A69FB689A42E7D3FB794FF00200194600F0CCFB034603F101034FEA14
:4009400003234FEAD3037B61FA684FF6C073C0F203039A4203D0FB684FEAD30301E04FF40043FB600BE07B6903F190431B78DAB2BB7CD318BB747B6903F101037B617A6950
:40098000FB689A42EFD3BB7CC3F10003BB74FA7913464FEA03639B1A4FEA032303F57F3303F570731B78DBB2BA7C9A4202D1FB7C002B02D14FF0060301E04FF000031846D2
:4009C00007F11C07BD4690BD80B5ADF56C7D00AF024607F107031A704FF00003A7F8AA334FF00003A7F8A8334FF00A0387F8A7334FF0000387F8A6334FF0000387F8A533F7
:400A000000F058FC62B64FF0000387F8AD3307F107031B78002B03D007F107031B7801E04FF0FF0307F5187107F28E3208464FF4967100F0B3FCC7F89C0307F107031B7807
:400A4000002B05D097F8A73303F1FF3387F8A73397F8A733002B03D0D7F89C33002BD6D1D7F89C33002B40F0CA82B7F88E33062B04D907F518731B78012B04D04FF0040394
:400A800087F8AD334EE007F51873DB784FEA03239AB207F518739B781343A7F8AA33B7F8AA3303F1050307F51872D35C4FEA03239AB2B7F8AA3303F1040307F51871CB5C9D
:400AC0001343A7F89A33B7F8AA3303F10702B7F88E339A4204D94FF0030387F8AD3321E0B7F8AA3303F1060307F51872D35C172B04D04FF0040387F8AD3313E0B7F8AA3365
:400B000003F104039BB207F5187210461946FFF7B7FD0346B7F89A239A4203D04FF0080387F8AD334FF00003A7F8AE3397F8AD33002B40F0588207F518731B7987F89933AF
:400B40004FF0040387F8AD3307F518735B78A3F131030A2B00F2358201A252F823F000BF8D0B0000CF0B0000C30F0000390C0000A30D0000C30F0000B70D0000130E000021
:400B8000390C0000650E0000A10F000097F8A533012B40F01B82B7F8AA33002B40F016824FF00000FFF77EFE0346002B14BF00230123DBB21A4607F518731A714FF001036D
:400BC000A7F8AE334FF0000387F8AD33FEE197F8A533012B40F0FC81B7F8AA33012B40F0F78197F89933032B00F2F2814FF00003A7F89633B7F89633DAB207F518731A71A7
:400C0000B7F896334FEA13239BB2DAB207F518735A7107F518734FF0FF029A7107F518734FF00302DA714FF00403A7F8AE334FF0000387F8AD33CBE107F518735B78342BEE
:400C400025D197F8A533012B40F0CD81B7F8AA33032B40F0C88197F899333F2B09D997F899335BB2002B04DB4FF01003A7F8A83303E04FF49073A7F8A833B7F8A83307F52C
:400C80009A7210464FF000011A4601F07AFB97F8A533012B40F09E81B7F8AA33022B40F29981B7F8A83307F59A72D118B7F8AA33A3F1030307F5187202F10702084611461D
:400CC0001A4601F055FBB7F8A823B7F8AA33D3189BB2A3F10303A7F8A83397F899333F2B0BD997F899335BB2002B06DB00F0CAFD4FF01003A7F8AA3303E04FF49073A7F897
:400D0000AA33B7F8A823B7F8AA339A4240D107F518739B794FEA03239AB207F518735B791343A7F8A83397F899333F2B1BD897F8A633002B17D107F10C0318464FF000019A
:400D40004FF4907201F01DFB07F10C034FF003004FF0FF011A464FF4907300F003FD4FF0010387F8A63397F89903B7F8A81307F59A72B7F8AA3300F0F5FC0346002B02D01C
:400D80004FF00A0301E04FF0000387F8AD3303E04FF0030387F8AD334FF00003A7F8A83318E197F8A533012B40F016814FF00003A7F8A83324E197F8A533012B40F00E81BC
:400DC000B7F8A823B7F8AA33D318B3F5967F1BD84FF0000387F8AD33B7F8A83307F59A72D118B7F8AA3307F5187202F10402084611461A4601F0BCFAB7F8A823B7F8AA3379
:400E0000D318A7F8A833E9E04FF0030387F8AD33E4E0B7F8AA33002B40F0E28007F5967242F27843C0F2000393E8030082E803004FF0010387F8A5334FF00803A7F8AE33DC
:400E4000B7F8AE3307F5187202F1040107F59672084611461A4601F08BFA4FF0000387F8AD33BDE097F8A533012B40F0BB80B7F8AA33032B40F0B68007F518739B794FEAB5
:400E800003239AB207F518735B791343A7F8943397F899333F2B14D997F899335BB2002B0FDBB7F894334FEA0313C7F89033D7F890034FF01001FFF727FC034687F8A433C9
:400EC00013E097F899334FEA0322B7F89433D3184FEA0323C7F89033D7F890034FF48071FFF7F4FB034687F8A43397F899333F2B27D897F8993303F510334FEA0322B7F883
:400F00009433D3184FEA4313C7F890334FF00003A7F8A23311E0B7F8A223D7F89033D3181B78DAB297F8A433D31887F8A433B7F8A23303F10103A7F8A233B7F8A2331F2BD2
:400F4000E9D997F89933032B19D1B7F89433FF2B15D14FF6D073C0F203031B78DBB297F8A423D31A87F8A4334FF6D173C0F203031B78DBB297F8A423D31A87F8A43397F834
:400F8000A433C3F10003DAB207F518731A714FF0000387F8AD334FF00103A7F8AE3321E04FF00000FFF77EFC0346002B06D144F2FA63C4F200034FF080021A7000F090FC93
:400FC00011E04FF0050387F8AD330CE000BF0AE000BF08E000BF06E000BF04E000BF02E000BF00E000BF97F8AD1307F51872B7F8AE33084611461A4600F012F800E000BFD4
:4010000007F107031B78002B3FF4FDAC97F8A533012B3FF4F8AC07F56C77BD4680BD00BF80B584B000AF396013460246FA71BB803B684FF001021A703B6803F10103FA7957
:401040001A703B6803F10203BA88D2B21A703B6803F10303BA884FEA122292B2D2B21A70BB8803F104039BB238681946FFF708FB0346FB81BB8803F104033A68D318FA89C6
:40108000D2B21A70BB8803F105033A68D318FA894FEA122292B2D2B21A70BB8803F106033A68D3184FF017021A70BB8803F107039AB207F10403386811461A464FF09603AA
:4010C00000F00EF90346184607F11007BD4680BD80B586B000AF02460B46FA71BB714FF00203FB74FB7903F1FF33062B74D801A252F823F04B1100006B1100008511000081
:4011000031110000A5110000BF11000011110000BA7913464FEA03639B1A4FEA032303F57F3303F576737B614FF00403FB745BE0BA7913464FEA03639B1A4FEA032303F5F8
:401140007F3303F2D2337B614EE0BA7913464FEA03639B1A4FEA032303F57F3303F2C1337B614FF00403FB743EE0BA7913464FEA03639B1A4FEA032303F57F3303F2C53362
:401180007B6131E0BA7913464FEA03639B1A4FEA032303F57F3303F2C9337B614FF00403FB7421E0BA7913464FEA03639B1A4FEA032303F57F3303F2D6337B6114E0BA79EC
:4011C00013464FEA03639B1A4FEA032303F57F3303F575737B6107E04FF0000000F074FB4FF000037B6100BFFB7C022B0ED17B6903F101031B78DBB2FB607B691B78DBB23D
:401200004FEA0323FA681343FB6021E07B6903F103031B78DBB2FB607B6903F102031B78DBB24FEA0323FA681343FB607B6903F101031B78DBB24FEA0343FA681343FB60E5
:401240007B691B78DBB24FEA0363FA681343FB60FB79022B04D0032B0FD0012B0DD021E0FB689BB24FEA03239AB2FB684FEA13239BB213439BB2FB6015E0FB684FEA1362AE
:40128000FB6803F47F034FEA13231A43FB6803F47F434FEA03231A43FB684FEA03631343FB6000E000BFFB68184607F11807BD4680BD00BF80B500AF48F2C410C1F6FF706D
:4012C0004FF0800100F004F948F24410C1F6FF704FF0000100F0DAF800F0FAFD80BD00BF80B586B000AFF8607A600A467A817B724FF001037B61FB68002B49D07B89002B2F
:4013000046D04FF010037B617B7A9BB21A464FEA8202D3184FEA43037B827B8948F24410C1F6FF70F9681A4601F022F87B687A891A807B89DAB248F26123C1F6FF731A709E
:4013400023E07B89DAB248F26023C1F6FF731B78DBB29A4211D148F26123C1F6FF734FF000021A7048F26023C1F6FF734FF000021A704FF000037B610AE04FF0010000F07B
:40138000C3FA7B8A03F1FF337B827B8A002BD8D17B69184607F11807BD4680BD80B586B000AFF8607A600A467A817B724FF001037B61FB68002B4FD07B89002B4CD04FF0FC
:4013C00010037B617B7A9BB21A464FEA8202D3184FEA43037B823CE048F25A23C1F6FF731B78DBB203F01003002B2AD048F25823C1F6FF731B787B747B7C9AB27B681A80D1
:401400007B7C9AB27B899A4238BF13469BB2F86848F2C411C1F6FF711A4600F0A9FF48F25A23C1F6FF734FF000021A7048F25823C1F6FF734FF000021A704FF000037B61EC
:401440000AE04FF0010000F05FFA7B8A03F1FF337B827B8A002BBFD17B69184607F11807BD4680BD80B483B000AF0346FB7144F6CA13C4F20003FA7902F07F02D2B21A70E9
:4014800007F10C07BD4680BC704700BF80B483B000AF78600B46FB707B68002B12D048F25423C1F6FF737A681A6048F26123C1F6FF73FA781A7048F26023C1F6FF734FF094
:4014C00000021A7007F10C07BD4680BC704700BF80B483B000AF78600B46FB707B68002B12D048F25C23C1F6FF737A681A6048F25923C1F6FF73FA781A7048F25823C1F681
:40150000FF734FF000021A7007F10C07BD4680BC704700BF80B400AF48F26023C1F6FF734FF000021A70BD4680BC704780B400AF48F25823C1F6FF734FF000021A70BD4695
:4015400080BC704780B485B000AF0346FB7145F21013C4F200031B78DBB223F04003FB7345F21013C4F20003FA794FEA8212D2B202F04002D1B2FA7B0A43D2B21A7007F15E
:401580001407BD4680BC704780B485B000AF0346FB7145F21013C4F200031B78DBB203F07F03FB7345F21013C4F20003FA794FEAC212D1B2FA7B0A43D2B21A7007F114073E
:4015C000BD4680BC704700BF80B485B000AF0346FB7145F22013C4F200031B78DBB223F01003FB7345F22013C4F20003FA794FEA0212D2B202F01002D1B2FA7B0A43D2B25E
:401600001A7007F11407BD4680BC7047000000000230800800F0058000BF013800467FF4FCAF7047EFF3108072B6704780F31088704700BFAFF3008080B582B000AF00F0DB
:40164000F1F94FF0FF337B6000F054FB0346002B31D14FF0010000F007FB0346072B27D148F26420C1F6FF704FF0020100F006FA0346022B12D14FF000037B6003E04FF02C
:40168000010000F065F944F22273C4F200031B78DBB203F00203002BF1D009E044F22273C4F200031B78DBB203F00203002BD7D000F064FB02E04FF004037B607B68184669
:4016C00007F10807BD4680BD80B582B000AFFFF7B3FF78607B68002B02D1FFF7ADFF78607B68184607F10807BD4680BD80B584B000AF78604FF00003FB6000F093F97B683E
:40170000002B0DD148F24423C1F6FF731A6848F24423C1F6FF731A604FF00103FB601AE000F0E8FA0346002B0DD048F24423C1F6FF731A6848F24423C1F6FF731A604FF086
:401740000403FB6007E048F24423C1F6FF737A681A6000F013FBFB68184607F11007BD4680BD00BF80B586B000AFBA600246FA730A46BA81FB8000F0BDFA0346002B78D1DA
:40178000FA7BFB881046B9681A4600F0A9F978617B69072B6AD103E04FF0010000F0D8F844F22273C4F200031B78DBB203F00203002BF1D044F22273C4F200031B78DBB28F
:4017C00003F00203002B0ED044F22273C4F200031B78DBB24FEA9303DBB2002B03D14FF000037B6102E04FF0FF337B617B69002B3CD148F26423C1F6FF731A7848F2642343
:40180000C1F6FF735B78F87BB98900F0C7F978617B69072B2AD103E04FF0010000F098F844F22273C4F200031B78DBB203F00203002BF1D044F22273C4F200031B78DBB28E
:4018400003F00203002B0ED044F22273C4F200031B78DBB24FEA9303DBB2002B03D14FF000037B6102E04FF0FF337B6100F086FA02E04FF004037B617B69184607F118074E
:40188000BD4680BD80B400AF44F2AC33C4F2000344F2AC32C4F200021278D2B242F01002D2B21A7044F2BC33C4F2000344F2BC32C4F200021278D2B242F01002D2B21A70F1
:4018C000BD4680BC704700BF80B483B000AF0346FB7101BE07F10C07BD4680BC704700BF80B400AF44F2F663C4F2000344F2F662C4F200021278D2B242F00102D2B21A7027
:40190000BD4680BC704700BF80B582B000AF78600BE048F22013C1F6FF731B681846FFF777FE7B68A3F500437B607B68B3F5004FEFD848F21813C1F6FF731B687A6802FB0D
:4019400003F31846FFF764FE07F10807BD4680BD80B582B000AF0346FB80FA8848F21C13C1F6FF731B7803FB02F31846FFF750FE07F10807BD4680BD80B584B000AF0346B6
:401980003960FB714EF60853CEF200031B68FB60FB791F2B03D94FF00000FFF795FFFB7903F01F0303F110034FEA8303FA68D3181B68BB60FB7903F01F0303F110034FEA7C
:4019C0008303FA68D3183A681A60BB68184607F11007BD4680BD00BF80B582B000AF02460B46FA71BB71BB79072B03D94FF00000FFF76AFFFB791F2B03D94FF00000FFF774
:401A000063FFFB7903F01F0303F1604303F56443BA794FEA4212D2B21A7007F10807BD4680BD00BF80B582B000AFFFF7FBFD0346FB7144F2A033C4F2000344F2A032C4F278
:401A400000021278D2B242F00802D2B21A7044F2B033C4F2000344F2B032C4F200021278D2B242F00802D2B21A70FB791846FFF7DDFD07F10807BD4680BD00BF80B584B001
:401A800000AF78600B46FB704FF00003FB731DE04FF00100FFF75CFF00E000BF44F22273C4F200031B78DBB203F00103002BEFD0FB7B7A68D21844F22073C4F200031B782A
:401AC000DBB21370FB7B03F10103FB73FA7BFB789A42E2D3FB7B184607F11007BD4680BD80B485B000AF396013460246FA71BB804FF00703FB6044F22273C4F200031B78AB
:401B0000DBB203F00203002B3ED044F22073C4F200034FF0B6021A7044F22073C4F200034FF0D5021A7044F22073C4F200034FF002021A7044F22273C4F200031B78DBB2CF
:401B400003F00203002B1BD144F22073C4F20003FA791A704FF000037B810CE044F22073C4F200037A8939688A1812781A707B8903F101037B817A89BB889A42EED306E010
:401B80004FF00903FB6002E04FF00403FB60FB68184607F11407BD4680BC704780B485B000AFF871B980BA71FB704FF00703FB6044F22273C4F200031B78DBB203F00203A2
:401BC000002B46D044F22073C4F200034FF0B6021A7044F22073C4F200034FF0D8021A7044F22073C4F200034FF005021A7044F22273C4F200031B78DBB203F00203002B63
:401C000023D144F22073C4F20003FA791A7044F22073C4F20003BA884FEA122292B2D2B21A7044F22073C4F20003BA88D2B21A7044F22073C4F20003BA791A7044F22073D4
:401C4000C4F20003FA781A7006E04FF00903FB6002E04FF00403FB60FB68184607F11407BD4680BC704700BF80B485B000AF0346FB714FF00703FB6044F22273C4F2000322
:401C80001B78DBB203F00203002B29D044F22073C4F200034FF0B6021A7044F22073C4F200034FF0E1021A7044F22073C4F200034FF00E021A7044F22273C4F200031B7845
:401CC000DBB203F00203002B06D144F22073C4F20003FA791A7006E04FF00903FB6002E04FF00403FB60FB68184607F11407BD4680BC704780B582B000AF4FF004037B60CE
:401D0000FFF790FC0346FB7048F24823C1F6FF731B78002B28D148F24823C1F6FF734FF001021A704FF000037B604FF00403C4F208031B6803F00103002B15D04FF004035A
:401D4000C4F208034FF00402C4F20802126822F001021A6000BF00BF00BF48F24C23C1F6FF734FF001021A60FB781846FFF75EFC7B68184607F10807BD4680BD80B582B0B9
:401D800000AFFFF74FFC0346FB7148F24823C1F6FF734FF000021A7048F24C23C1F6FF731B68012B15D14FF00403C4F208034FF00402C4F20802126842F001021A6000BF8A
:401DC00000BF00BF48F24C23C1F6FF734FF000021A60FB791846FFF729FC07F10807BD4680BD00BF80B500AF44F6D613C4F200034FF001021A7044F6C813C4F200034FF04C
:401E000081021A7044F6DB13C4F200034FF003021A7044F6DC13C4F200034FF000021A704EF28013CEF200034FF400421A604FF00F004FF00701FFF7CFFD4FF00F0041F6C8
:401E40000971C0F20001FFF797FD48F26623C1F6FF734FF010021A70FFF75CFBFFF766FB48F25A23C1F6FF734FF000021A704FF00800FFF7F7FA80BD80B582B000AFFFF71E
:401E8000D1FB0346FB7144F2A533C4F2000344F2A532C4F200021278D2B242F00402D2B21A7044F2B533C4F2000344F2B532C4F200021278D2B242F00402D2B21A70FB794D
:401EC0001846FFF7B3FB07F10807BD4680BD00BF80B500AF48F25023C1F6FF731B78002B08D1FFF77FFF48F25023C1F6FF734FF001021A70FFF7C0FF4FF46143CEF2000314
:401F00004FF400421A6080BD80B582B000AF44F6D713C4F200031B78FB7148F26623C1F6FF731B78DBB203F04003DBB2002B40F0F48148F26623C1F6FF731B78DBB203F0D5
:401F40001003DBB2002B00F0E181FB7903F02003002B09D1FB7903F00103002B3DD0FB7903F00803002B38D048F26623C1F6FF731B78DBB2112B30D144F6D613C4F2000348
:401F800044F6D612C4F200021278D2B222F01002D2B21A7048F25A23C1F6FF731B78DBB223F02003DAB248F25A23C1F6FF731A7048F25A23C1F6FF731B78DBB243F0100395
:401FC000DAB248F25A23C1F6FF731A7048F26623C1F6FF734FF010021A70FB7903F00103002B00F09A81FB7903F00803002B00F09E8044F6D813C4F200031B78DBB203F0E7
:402000000103002B68D048F26023C1F6FF731B78DAB248F26123C1F6FF731B78DBB29A4236D244F6D813C4F2000348F25422C1F6FF72116848F26022C1F6FF721278D2B228
:402040008A181278D2B21A7044F6D713C4F200034FF014021A7048F26023C1F6FF731B78DBB203F10103DAB248F26023C1F6FF731A7048F25A23C1F6FF731B78DBB243F03D
:402080000203DAB248F25A23C1F6FF731A701BE044F6D813C4F200034FF0FF021A7044F6D713C4F200034FF014021A7048F25A23C1F6FF731B78DBB243F00603DAB248F2C4
:4020C0005A23C1F6FF731A7048F26623C1F6FF734FF012021A7020E144F6D713C4F200034FF010021A7048F26623C1F6FF734FF011021A7048F25A23C1F6FF731B78DBB266
:4021000043F02003DAB248F25A23C1F6FF731A7044F6D613C4F2000344F6D612C4F200021278D2B242F01002D2B21A70F5E048F26623C1F6FF731B78DBB2112B4DD148F2C8
:402140005823C1F6FF731B78DAB248F25923C1F6FF731B78DBB29A4229D244F6D813C4F200031B78BB7144F6D713C4F200034FF010021A7048F25C23C1F6FF731A6848F2D3
:402180005823C1F6FF731B78DBB2D318BA791A7048F25823C1F6FF731B78DBB203F10103DAB248F25823C1F6FF731A70B5E044F6D713C4F200034FF000021A7048F25A23D5
:4021C000C1F6FF731B78DBB243F04003DAB248F25A23C1F6FF731A709FE048F26623C1F6FF731B78DBB2122B40F08B80FB7903F00203002B53D148F26023C1F6FF731B78F3
:40220000DAB248F26123C1F6FF731B78DBB29A4228D244F6D813C4F2000348F25422C1F6FF72116848F26022C1F6FF721278D2B28A181278D2B21A7044F6D713C4F20003FD
:402240004FF004021A7048F26023C1F6FF731B78DBB203F10103DAB248F26023C1F6FF731A705AE044F6D813C4F200034FF0FF021A7044F6D713C4F200034FF004021A7007
:4022800048F25A23C1F6FF731B78DBB243F00403DAB248F25A23C1F6FF731A703DE044F6D813C4F200034FF0FF021A7044F6D713C4F200034FF000021A7048F25A23C1F613
:4022C000FF731B78DBB223F00203DAB248F25A23C1F6FF731A7048F25A23C1F6FF731B78DBB243F00103DAB248F25A23C1F6FF731A7048F26623C1F6FF734FF010021A704A
:402300000BE04FF00000FFF7DFFA06E048F26623C1F6FF734FF010021A7007F10807BD4680BD00BF38B50E4D0E4B0024E81A8510AC4205D00B4951F8242090470134F7E707
:4023400000F09EF80849094A541AA5100024AC4205D0054B53F8240080470134F7E738BD8C2400008C2400008C2400009424000010B50023934203D0CC5CC4540133F9E7EF
:4023800010BD82180346934202D003F8011BFAE770470000BE000000D824000000000000C84900401900005100401000305100404000F0510040100000000140001000145B
:4023C0000140000800400140000A004C01400002005001402000000060520040702400000600000001150140011B01400242014001430140034401400145014001460140E8
:40240000014701400148014002490140084C0140064D014001510140EA01EA013E10CE20961010101420C40C9830983098309610AA10EA8010401320148078107C20983040
:40244000C40EDE0378407C8098C0AB20DC01DE0403C0000030000000300030000000000000C0C000000000000010100000000000203000003000000069E0112E0014010102
:40248000F8B500BFF8BC08BC9E467047550000007D010000F8B500BFF8BC08BC9E46704731000000B82400000881FF1F20000000400100000000000000000000942300007F
:4024C0009823000000366E01C05D0000180000000000E02E000000000000000000000000000000000000000000000000000000000000000000000000000000000000000039
:402500000080002011250000673500006735000008B501F029F8000010B5054C237833B9044B13B10448AFF300800123237010BD2081FF1F000000008C52000008B5064B71
:402540001BB106480649AFF300800648036813B1054B03B1984708BD000000008C5200002481FF1F0881FF1F00000000094B712283F84620422283F847200A2283F8482046
:40258000032283F84320022283F84420002283F8452070475D81FF1F10B50446002001F0A3FF002001F0B8FF012001F0A7FA204601F0AAFB012001F097FF012001F0ACFFC2
:4025C000BDE81040002001F099BA10B50446002001F04AF9002001F087FF002001F09CFF012001F041F9204601F08EFB012001F07BFF012001F090FFBDE81040002001F07D
:4026000033B900000023044A00211A440133142B9171F8D1704700BF5D81FF1F38B501F0CBFA124B1A22DA700E241D461048002100F05FFF013CF9D1A9790D48890941F0EB
:40264000040100F056FF0B4CE51C0134A179E379890041EA93110648C9B200F04AFFAC42F3D1BDE8384001F099BA00BF5D81FF1F6482FF1F5C81FF1F08B501F04BFD4FF4AD
:402680001C70012101F052FD01F086FF00F0A6FC01F022FE4FF41C70012101F029FE02F0BFF800F0F1FD034801F096FEBDE8084001F0D6BE7132000038B505460024AC4254
:4026C0000FDA012001F01CFF4FF4967001F01CFB002001F015FF4FF4967001F015FB0134EDE738BD38B55B4CA3781A2B00F2AD80DFE803F00E182C1C238495ABABABABAB38
:402700007BABABABABABABABABABABABABAB9E0094F849301BB1504B01221A7038BD4E4A137038BDBDE8384001F060BCE3784FF47A705843FFF730FF05E0E3784FF47A70D4
:402740005843FFF742FF0023A37038BD94F84930404A002BDFD192F8CD30002BDBD1D5783D49192D0B7016D93C4A0120137001F0BBFE012001F0CEF9FFF744FFE07800F0E3
:402780008DF918B9334B9B78022BF7D00020BDE8384001F0A9BE0C2D15D1012001F0A4FEFFF730FF284600F0EBFB00F0BFFB10B9A378022BF9D0002001F096FEBDE8384026
:4027C000012001F0A7B9052D3FD1244B0120187001F08AFE032001F09DF900F029FA0028D4D1A378022BF8D0D0E7012001F094FE0C2000F0C5FB00F07BFB0AE00125174BEB
:4028000028461D7001F088FE284601F083F900F08DF90020A070BDE8384001F07DBE012001F07AFE012001F075F9FFF7F7FEF0E7002001F071FE012001F06CF9E07800F051
:40284000EFF80023A3700120E5E76420BDE83840FFF732BF5D81FF1F5481FF1F1C84FF1F10B5244C94F8CD3063B1022B05D0042B08D100F089FD022302E000F09FFD03230E
:4028800084F8CD301C4B1A7851070ED522F004021A701A4B93F830303BB1002001F024FE00F00AFD012001F01FFE94F8493043B1022B04D0042B04D100F09CFC01E000F0DD
:4028C000DDFB94F84A309A0606D40A4B93F8CD30022B01D000F014FD94F84A309B0708D4044B93F84930022B03D0BDE8104000F00DBC10BD5D81FF1F1583FF1F4F83FF1FB0
:40290000F8B562B601F0B0F9374801F0CBF901F045F9364800F0F2FF01F0AEFB344801F0E7FB344B0024344D344802261C6001F08BFC0523EB70AE7085F8494001F066FAD9
:402940004FF4807001462A4601F06EFA01F044F8012132460B462A4800F050FD012001F0C3FD012001F0D8FD0820264E85F8424000F0E8F9FFF7FAFD234B34601C70FFF7B7
:402980007BFE224B37461C70214B1C70214B1C6001F094FDAB782BB19A1E54425441FFF7A1FE00E01C46FFF75BFFE30712D51A4E3368012B0ED14FF4FA743B6843B90A2064
:4029C00001F0A2F9013CF8D12B7843F003032B7000233360114B1B780BB1002000E0322001F092F9D6E700BF913C000099380000C94000002084FF1F5D81FF1FFD41000080
:402A00006482FF1F8C82FF1F1C84FF1F3084FF1F2884FF1F2C84FF1F6082FF1F5481FF1F2DE9F8430026814634461B4B012523449F7906EB05085FFA88F8C84507DD02209E
:402A400001F068F8BDE8F843002000F079BF3B0604D5022001F05EF8012003E0032001F059F8002000F06CFF322001F061F9022001F050F8002000F063FF013502207F0035
:402A800001F042F9092DFFB2D3D10134142C01D04646CAE7BDE8F8835D81FF1F2DE9F041074600F059FF044600F05EFF1D4A00231360164604B188BB00252C4604EBC503AE
:402AC000BB4220DA00F048FF804600F04DFFB8F1000F04D100F040FF0128FBD10DE068B900F042FF0128FBD1C4F1070100FA01F20D4B2B4499790A439A710134072CC4BFFB
:402B000001350024DAE7084B00229A701A78012042F003021A703060BDE8F0811846BDE8F08100BF6082FF1F5D81FF1F2DE9F0413E4B0021DF7888B003370A460C469C4674
:402B40000CEB040301AD987905EB010E00234B551E468EF8013010F0800F06D012B943F0020308E043F0010302E01AB943F00303012200E00022032E18BF9B0006F1010680
:402B800018BFDBB24000042EC0B2E4D16B5400231E4610F0800F06D012B943F0020308E043F0010302E01AB943F00303012200E00022032E18BF9B0006F1010618BFDBB233
:402BC0004000042EC0B2E4D10134BC428EF8013001F10201B4DB4FEA4708002400232F5D08262B553B0606D5012000F09DFE022000F090FF05E0032000F08CFF002000F0C9
:402C000093FE4FF4C87001F093F87F00013EFFB2E8D101344445E1DB022000F07BFF304608B0BDE8F04100F07FBE00BF5D81FF1F2DE9F74F002000F083FE00203B4E002438
:402C40008319013014289C71F8D1394B394A1C601460A146824627460125374BD3F800809B46B8F1000F00D1FEE70120019301F03BFC01F001FB019B00221A60019201F09A
:402C8000F5FA019A072DC4BF01371546B9F1000F07D1A8F10803372B9CBF08EB0A0C4FEA6C0A504602F01AF80022244B02F07CF802F08CFA80450BDA9CB1C5F1070204FAD9
:402CC00002F2F319997901350A439A71A14606E0B9F1010F06D1B8F13F0F03DC0135002400E001240A2FB8DD012001F0FDFB86F8CE7001F0CFF90023CBF80030104B03F1EF
:402D0000140201339979934283F8D010F9D10A23F3700023B3703378012043F003033370034B186003B0BDE8F08F00BF5D81FF1F6082FF1F2484FF1F2084FF1F0000E83FB8
:402D40005C81FF1F10B5044610F0010018BF012000F0C0FE14F0020018BF012000F090FE14F0040018BF012000F08AFD14F0080218BF0122074B14F0100018BF01201A60CF
:402D800000F0BCFE14F0200018BF0120BDE8104000F06ABD5881FF1F70B500F093FE431E5C425C4100F07EFE012804BF44F00204E4B200F071FE012808BF44F0040400F065
:402DC00079FE012808BF44F0080400F08FFE1D4B01281A7808BF44F010047AB300251D70194B41F287321B68184E934204DC86F8425044F0600070BDA3F59C53083B49F6D6
:402E00003F429342284644F020040AD801F078FB284601F069FB284601F07EFBE0B20F2309E001F06DFB284601F05EFB284601F073FBE0B2992386F8423070BD44F060000B
:402E400070BD00BF2884FF1F2C84FF1F5D81FF1F38B5084D6C78E1070BD5A20702D56879FFF770FF230702D5034B01221A6000236B7038BD5D81FF1F8C82FF1F38B500F03A
:402E800035FE20B9002000F0EFFD002012E000F011FE18B9134B1B68012BF3D000F00AFE012803D10F4B1B68002BEBD0012000F0DBFD012001F024FBFFF76EFF0A4D044682
:402EC0002B7883420DD0642000F032FFFFF764FF844206D1054B2C701A781C7142F005021A7038BD5881FF1F5C81FF1F5D81FF1F38B5002001F0F8FA002001F00DFB1425FF
:402F00000024094B23449879013400F0A1FD0C2CF7D1013DF4D1012001F0E6FABDE83840012001F0F9BA00BF5D81FF1F10B500F061FD202801D0002010BD002400F05AFDC8
:402F40002028FBD100F05EFD022801D0002CF5D0094B234401340B2C9871EFDD00F066FD054B00229A70054A012010601A7842F003021A7010BD00BF5D81FF1F6082FF1F80
:402F800038B5084B04461A781D46824209D00C2803D01A2804D1012000E0002000F0BAFD2C7038BD5D82FF1F90F880200A4B802A194610B583F84B2084BF802380F8803042
:402FC000002390F88020934205DAC45CCA1882F84D400133F5E710BD5D81FF1F08B501F04DFB0023054A002198180133802B80F84D10F7D182F84B1008BD00BF5D81FF1FE6
:4030000010B500231A465C1CDBB28B4204DAC35C1A44D2B22346F6E75042C0B210BD000010B5012001F034F9124C012001F03CF901F072FB032084F8490000F065FE0E48E8
:403040000378532B06D190F8801001F045FB052000F05AFE01F052FB002001F025F9012001F016F994F84A3043F0010384F84A3010BD00BF5D81FF1F8883FF1F10B50E4A3B
:403080000E4C92F84B30802B88BF802384F8803094F8801000238B4205DAD01890F84D00E0540133F7E7012384F88130FFF7B8FF002384F8813010BD5D81FF1F8883FF1FC2
:4030C00037B502AB03E903000F4C532323709DF80030082563F07F0363700023E3709DF80530204623714123637107210123A570A371FFF785FF84F88050E07103B0BDE8F4
:403100003040FFF78DBF00BF8883FF1FF8B501F08BFA062866D9072401F04CFA5328064602D0013CF8D1F8BD01F044FA2E4C207001F040FAA07001F03DFAE07001F03AFA9E
:40314000607100F00300A07101F034FA618820710AB2062A254645DD244B802A1E70267858715E70A6781F469E70E678DE7066791E7104DDFFF732FF00236380F8BD83F8A3
:4031800080100624B5F90230174E9C420FDA01F04BFA0028F6D001F00DFAB6F902303855013B9C4201D1F07101E00134EAE7B5F902100E480139FFF723FFEB790A4C8342A4
:4031C00005D020686168BDE8F840FFF779BF0748FFF7EAFE064B93F84A2042F0020283F84A20F8BDF8BD00BF1683FF1F9382FF1F5D81FF1F08B501F0CFF90C4B93F84C302D
:40320000013B032B11D8DFE803F00205080A4FF41C7005E040F2371002E09B2000E033200121BDE8084000F081BF08BD5D81FF1F90F830300D4A10B582F8CE30002390F844
:4032400030108B4205DAC45CD11881F8D0400133F5E792F84A3043F0200382F84A30032382F8CD30BDE8104001F0FAB85D81FF1F034B1B78034B1A7842F004021A70704707
:40328000646500401583FF1F08B501F033FB094A002392F84A1082F8CE3021F0200182F84A10D11801330020302B81F8D000F8D108BD00BF5D81FF1F08B5012001F080F82A
:4032C000012000F0FDFF01F063FB032000F01CFD0A480378532B06D190F8301001F038FB052000F011FD01F045FB002000F0E8FFBDE80840012001F063B800BF4F83FF1F24
:4033000070B501F0D5FA062839D9072401F096FA5328054602D0013CF8D170BD01F08EFA174C207001F08AFAA07001F087FAE070618826460AB2042A21DD124B302A1D70BD
:403340002578D8705D70A5789D701D4602DD3023638070BD83F830100424B6F902309C4208DA01F0A5FA0028F7D001F067FA28550134F2E70348BDE87040FFF759BF70BD11
:403380008083FF1F1E83FF1F0B4B93F8CF30013B032B0FD8DFE803F00205080A4FF41C7005E040F2371002E09B2000E03320012100F09EBF704700BF5D81FF1F10B50D4B2E
:4033C00093F8CE201C46302A12D8002393421146094805DAE11891F8D010C1540133F5E7302903D0002343540131F9E780F8302010BD00BF5D81FF1F4F83FF1F80E8060002
:4034000083600022022108238282C2828161C360C26102627047838A10B59BB204460BB3C369013B002BC3611CDC438ADB074CBF0220032000F06EFB638AC3F34E036382A7
:40344000A38A013B9BB2A382A38A9BB233B1A36923F00203A3610323E36103E0A36943F00203A36100F078FAE28A52B9002833D104232362A268E3681A4463681344E3826B
:4034800010BD236A013B002B236225DC28B1238A6FEA43436FEA53432382238A013A5B0892B22382E282AAB9A268C2F107016268002A0CBF0A464A1E1341DBB26362A369E3
:4034C00013F0010FA36914BF43F0040343F00103A36110BD0323236210BD030943EA00135840C0B280EA900080EA500000F001007047F8B546684F00012E0446BFB28568ED
:4035000005D1C8B2FFF7E9FFBFB238B109E0022E0DD1C8B2FFF7E1FFBFB210B14FF4007301E04FF44073AB409BB21F4306E0C36801222B4402FA03F31F43BFB2A3699B074D
:40354000FCD572B6A36923F00203A36162B603236782E361E3682B440EB1023300E001339BB2A382F8BDFEE708B51249124B4A1C1AD053F8106C53F80C0C53F8085C002231
:40358000AA4200EB020403D0B45884500432F7E753F8040C0022824203D00025A5500432F9E710330139E2E701F038FEFFF7A8F9FEE700BF000000002053000008B5114AF0
:4035C000114B1A609A6842F400729A600023032B98BF0E4A4FEA830094BF52F823100C490C4A0133302B1150F1D10B4B19780B4B19700B4B1A6000F017F80A4B00221A60E2
:4036000008BD00BF0004FA050CED00E000250000673500000080FF1FBC7600400481FF1F08ED00E00081FF1FF8B572B6774B00241A7842F004021A70754B0021234418686B
:403640009A88063401F019FE3C2CF5D10024714B2344186859681A890A3401F005FE1E2CF5D16D480021A0F1A002051F52F8043FDCB223F0FF07264600EB4103023344B125
:4036800013F802EC13F801CC013C07F80EC0E4B2F4E7AA423144E9D1604B614E1A78614D42F002021A701A7C42F002021A74337843F0400333705C4B1A7842F010021A7024
:4036C0005A4B93E8070003C52A8003F10C02B83507CA03C52A8003F11802283507CA03C52A8003F12402E83D07CA03C52A8003F13002083507CA03C53C332A80083593E802
:40370000070003C52A804A4A8423137002F59C521370484B5F211A78354642F008021A70454A01231370A2F5F06213801923937091804249937167220A808B708A80404AD1
:4037400040F2DF111370518040F2E1411371D18040F24911137251811B211173262182F8721204224FF040210A7081F80022354A1F461178344AC9B211704FF47161A2F257
:403780007F42118041F2512122F8021C2F4B4FF4F0701B7803F0010343EA440400F098FA013F04F003042FD0032CEFD1284B4FF480721A80274907221A70482000220A70AA
:4037C00088701A70022203F8032C93F89E23224C42F07F0283F89E23C12283F8FC27012203F5F8231A701D4B1D4A1B78DBB203F007011B09117053701A4B44221A7095E8EB
:403800000F0007C42380F8BDFEE700BFE846004090520000CC5200003C05004803500140A043004000510040C243004020130048DB0601402243004000480040884000405C
:403840008E40004089010049A1460040254200400440004006400040B0430040CF0100496E58004076580040044BC0001A7800F0080002F0F70202431A7070472051004074
:40388000044B00011A7800F0100002F0EF0202431A7070470051004038B5144B18781C4698B1134B1A781D460132D2B21E2A1A7002D1012000F044F82B78232B07D90020B8
:4038C00000F03EF80023237001E000F039F8094B1B781BB1084B1A6801321A6000F080F9FFF7B6FABDE83840FFF7C8BA9182FF1F9082FF1F3084FF1F2C84FF1F084A4FF47B
:403900000033136002F688321268E021C2F88400044A11706FF444710A441360704700BF80E100E011E400E0044B00F001001A7802F0FE0202431A70704700BF00510040A8
:40394000044B40001A7800F0020002F0FD0202431A70704700510040024B1878C0F34000704700BF21510040024B187800F00100704700BF21510040094B71221A70094A7A
:4039800000230621137002F8611C472102F8511C02F8013C044B1A7802F0E7021A70704780640040826400407164004008B500F099F9084B1A7842F020021A709A7842F01B
:4039C00010029A705A7842F010025A70BDE8084000F08CB99064004010B5054C23781BB9FFF7CAFF01232370BDE81040FFF7DEBF3C81FF1F024B187800F07F00704700BF55
:403A000062640040074B1B78DBB203F0200202F0FF002AB1044A13F01E0F107818BF0020704700BF626400404464004008B500F059F9064B1A7842F001021A701A7802F0A7
:403A4000FE021A70BDE8084000F050B994640040034B1B785B07FBD4024B1870704700BF6164004040640040044B80001A7800F0040002F0FB0202431A70704700510040FD
:403A8000044BC0001A7800F0080002F0F70202431A70704700510040014B1878C009704701510040024B1878C0F38010704700BF01510040024B1878C0F34010704700BFFF
:403AC00001510040024B1878C0F30010704700BFF1510040044B40011A7800F0200002F0DF0202431A707047F0510040024B1878C0F38010704700BF21510040044B800079
:403B00001A7800F0040002F0FB0202431A70704720510040014B1870704700BF74640040124B1A7802F001021A709A7802F0FC029A70DA7A02F0CF02DA72DA7A42F03002E2
:403B4000DA72DA7A02F0F002DA72DA7A42F00F02DA725A7842F001025A70054A632313805380044B08221A70704700BF004F0040044F0040034F0040074B1A7842F0010240
:403B80001A701A7C42F001021A7493F85D2B42F0010283F85D2B7047A343004010B5054C23781BB9FFF7BCFF01232370BDE81040FFF7E2BF3E81FF1F084B1A78A3F65D3396
:403BC00002F0FE0283F85D2B1A7802F0FE021A701A7C02F0FE021A74704700BF004F0040014B1878704700BF034F0040124B1A7802F001021A709A7802F0FC029A70DA7AF5
:403C000002F0CF02DA72DA7A42F03002DA72DA7A02F0F002DA72DA7A42F00F02DA725A7842F001025A70054A8B2313805380044B08221A70704700BF184F00401C4F00400B
:403C40001B4F0040074B1A7842F004021A701A7C42F004021A7493F8752B42F0010283F8752B7047A343004010B5054C23781BB9FFF7BCFF01232370BDE81040FFF7E2BFC7
:403C80003F81FF1F014B1878704700BF1B4F004008B50348FFF7BFFBBDE80840FFF7F2BF6482FF1F074A4FF40023136002F688321268E021C2F88C00034A1170A2F2133296
:403CC0001360704780E100E013E400E0000000000230800800F0058000BF013800467FF4FCAF7047EFF3108072B6704780F31088704700BFAFF30080024B1A7842F0010238
:403D00001A707047F646004010B50446B4F5004F064B05D91868FFF7DBFFA4F50044F5E758686043BDE81040FFF7D2BF0C81FF1F024B1B7A5843FFF7CBBF00BF0C81FF1F96
:403D4000054B00F01F001B6800F1100253F8220043F82210704700BF08ED00E000F01F0000F16040490100F56440C9B201707047124B012210B51A70812203F80E2C382212
:403D800003F80C2C00241E225A719C710C4B4FF400421A600F200721FFF7E0FF0F200949FFF7CEFF084B1C70084B1C70084B1C70084B1C70084B1C8010BD00BFD649004078
:403DC00080E100E0713E00001884FF1F1284FF1F0F84FF1F0E84FF1F1084FF1F08B5FFF781FF084B1A7842F004021A701A7C42F004021A74FFF77AFF034B4FF400421A6060
:403E000008BD00BFA543004000E100E010B5054C23781BB9FFF7ACFF01232370BDE81040FFF7DCBF4081FF1F0A4B10B54FF400441C602AB1084B1A60084B1880084B198037
:403E4000084A00231370084A1370084B4FF400421A6010BD80E100E01484FF1F0C84FF1F1084FF1F0F84FF1F0E84FF1F00E100E070B5534B53491C78E4B204F008000C70DC
:403E800000F0FF0258B3504C5048227812F0010F4F4A17D04F49504E0D783668EDB2755DEDB2257014241C700C784C49E4B20C700C780134E4B20C70117841F011011170A1
:403EC00008223EE010211970117841F01201117001220270424A117841F010014AE0E0075DD53A480578EDB2042D15D0082D2AD0012D4ED1344C3B4D24782D88E4B2ADB2C5
:403F0000AC424C704AD210221A704A7831490A7032490A70042214E03048334C05782488A4B2A5423AD2284A2B4C12784A7010221A70027824684978D2B2A15402780132FB
:403F4000D2B202702BE014F0020F1F4918D1234A24481478008880B284420DD21E4C10782468C0B2205CC0B208700421197011780131C9B2117012E0FF220A7004220DE0BB
:403F8000FF240C7012491A700C7804F0EF040C70D7E7104902700A7010490A701A701B789B060CD50A4B1A7802F0EF021A70074B00221A700A4B1A7802F0EF021A7070BD4E
:403FC000D74900404181FF1FD84900401884FF1F1284FF1F0F84FF1F1484FF1F0E84FF1FD64900400C84FF1F1084FF1F024B40221A70FFF781BE00BFFA460040124B1A7840
:4040000002F001021A709A7802F0FC029A70DA7A02F0CF02DA72DA7A42F03002DA72DA7A02F0F002DA72DA7A42F00F02DA725A7842F001025A70054A182313805380044B17
:4040400008221A70704700BF0C4F0040104F00400F4F0040074B1A7842F002021A701A7C42F002021A7493F8692B42F0010283F8692B7047A343004010B5054C23781BB97B
:40408000FFF7BCFF01232370BDE81040FFF7E2BF4381FF1F084B1A78A3F6693302F0FE0283F8692B1A7802F0FD021A701A7C02F0FD021A74704700BF0C4F0040014B187800
:4040C000704700BF0F4F004008B5FFF7F7FF064B1A6801321A60054B187880F001001870BDE80840FFF7F6BC2484FF1F4481FF1F064A0123136002F688321268E0211064E4
:40410000034A1170A2F540721360704780E100E000E400E0044B1A7842F004021A701A7C42F004021A747047A2430040F0B52C4B2C4D1F782C8807F00707A4B2A0424DD024
:40414000294A1678F6B267B934B150B91A7842F040021A702880F0BD28801A7802F0BF023BE006F0040303F0FF060BB31F4F204D00234FF0040C2B7087F800C03B711D4BAD
:404180001F78823307F07F0703F8827C1B781F0700D568B9184B1C8007232B702B7813F00103FBD1147804F0FB041470104C237012780D4B54070CD5A3F568730029188010
:4041C0000CBF01220322013B1A701A78D207FCD4F0BD044A10801A7832431A70F0BD00BF8A40004088400040A24300401040004001400040084000400240004010B500F01C
:4042000041F80C4B1B78012B13D10B4A0B48116814463F29016004DC094A00211170094A1370FFF737FF00232360BDE81040FFF723BF10BD1C84FF1F2484FF1F2084FF1FAA
:404240009082FF1F9182FF1F064A0823136002F688321268E021D064034A1170A2F203321360704780E100E003E400E0014B08221A60704700E100E0014B08221A607047B6
:4042800080E100E0014B1878704700BF67650040044B00F001001A7802F0FE0202431A70704700BFF0510040044B80001A7800F0040002F0FB0202431A707047305100404A
:4042C000044B40011A7800F0200002F0DF0202431A70704730510040044B1A7842F008021A701A7C42F008021A747047A2430040F0B52C4B2C4D1F782C8807F00707A4B254
:40430000A0424DD0294A1678F6B267B934B150B91A7842F040021A702880F0BD28801A7802F0BF023BE006F0080303F0FF060BB31F4F204D00234FF0080C2B7087F800C0F8
:404340003B711D4B1F78863307F07F0703F8867C1B781F0700D568B9184B1C8007232B702B7813F00103FBD1147804F0F7041470104C237012780D4B14070CD5A3F5687337
:40438000002918800CBF01220322013B1A701A78D207FCD4F0BD044A10801A7832431A70F0BD00BF8E4000408C400040A24300401040004001400040084000400240004046
:4043C000044B40001A7800F0020002F0FD0202431A707047F0510040074A2023136002F688321268E0215065044A11706FF441710A441360704700BF80E100E005E400E0A4
:40440000024B1A7842F080021A70704777650040034B1B781B0702D5024B1B88F8E77047646500408C6A00400A4A08B540F60F63138022F8403CFFF755FC074B1A7842F0AE
:4044400010021A70FFF752FCFFF7E2FF034B01221A7008BD4C6A0040946500408465004010B5054C23781BB9FFF7DEFF01232370BDE81040FFF7C4BF4581FF1F70B500F0F7
:40448000D5FA10F001060A4D0A4C09D0002000F02BF801232B70084A00232370136070BD012000F021F801232E70237070BD00BF3084FF1F2884FF1F2C84FF1F074A1023AD
:4044C000136002F68832126805491165054AE0211170A2F541721360704700BF80E100E07D44000004E400E0044B80011A7800F0400002F0BF0202431A707047105100401F
:40450000044B00011A7800F0100002F0EF0202431A70704720510040044B1A7802F07F0242EAC010C2B21A70704700BF1051004008B509490120FFF703FC01200721FFF7B6
:404540000DFC064B00221A70054B72221A70202203F8012C08BD00BF394700004681FF1F8B65004008B5FFF7BDFB094B1A7842F020021A7013F8012C42F0100203F8012C71
:40458000044B02221A60BDE80840FFF7AFBB00BF9B65004000E100E010B5054C63781BB9FFF7C6FF01236370BDE81040FFF7DABF4681FF1F164B02221A60164A53889188CE
:4045C00090799BB289B208B98B420FD01249C85C01339BB2B3F5807F28BF002353809379C0B28BB10B4B00229A710DE00B4B1B78DBB203F0200202F0FF002AB1084A13F063
:404600001E0F107818BF0020064B02221A60704780E100E04681FF1F3184FF1F6A6500404964004000E100E0114B02221A60114B59889A8889B292B2914206D19B79002BB1
:404640000CBF00204FF480700DE059889A8889B2988892B2914229BF80B25B885B8800F58070C01A80B2044B02221A60704700BF80E100E04681FF1F00E100E008B5FFF7EC
:4046800031FB0B4B1A7842F001021A701A7802F0FE021A70FFF72AFB064B02211960064B00225A809A809A71DA71044B196008BD9964004080E100E04681FF1F00E100E0A3
:4046C000034B1B789B06FBD4024B1870704700BF6A6500405964004070B5074B05465B780E4643B10024E3B2B34204D2285DFFF7E7FF0134F7E770BD4681FF1F054B1A7849
:4047000002F0FE021A70722283F81221202283F81121704779640040064B00221A706FF4887213441A7842F001021A706F2283F8122170478A650040174B1B78DBB213F04C
:404740001E0003D0154A1178014311709B0622D5134B14491878144BC0B21A8892B28854124A117811B11249012008701988013189B21980198889B2FF2902D90A49002091
:40478000088019880B4B89B21B889BB29942D3D101231370D0E770476A6500404681FF1F496400403184FF1F4A81FF1F4C81FF1F4D81FF1F4881FF1F08B509490220FFF739
:4047C000BFFA02200721FFF7C9FA064B00221A70054B72221A70202203F8FE2C08BD00BFB14900004E81FF1F8565004008B5FFF779FA094B1A7842F020021A7013F8FE2C77
:4048000042F0100203F8FE2C044B04221A60BDE80840FFF76BBA00BF9565004000E100E010B5054C63781BB9FFF7C6FF01236370BDE81040FFF7DABF4E81FF1F164B0422EF
:404840001A60164A9378D1781079DBB2C9B208B98B420FD01249C85C0133DBB213F0800F18BF002393701379C0B28BB10B4B00221A710DE00B4B1B78DBB203F0200202F096
:40488000FF002AB1084A13F01E0F107818BF0020064B04221A60704780E100E04E81FF1F3185FF1F676400404764004000E100E00D4B04221A600D4B9978DA78914205D160
:4048C0001B79002B0CBF0020802008E09978DA78D87891429B7828BF8038C01AC0B2044B04221A60704700BF80E100E04E81FF1F00E100E008B5FFF7F5F90B4B1A7842F0F3
:4049000001021A701A7802F0FE021A70FFF7EEF9064B04211960064B00229A70DA701A715A71044B196008BD9764004080E100E04E81FF1F00E100E0034B1B789B06FBD4EB
:40494000024B1870704700BF676400405764004070B5074B05465B780E4643B10024E3B2B34204D2285DFFF7E7FF0134F7E770BD4E81FF1F054B1A7802F0FE021A70722205
:404980005A73202203F8F12C704700BF78650040064B00221A7093F8F12042F0010283F8F1206F2283F8FE20704700BF87640040164B1B78DBB213F01E0003D0144A1178BC
:4049C0000143117098061FD5124B13491878134BC0B21A78D2B28854114A117811B111490120087019780131C9B219701978090602D50A490020087019780B4B1B7899423E
:404A0000D6D101231370D3E7704700BF676400404E81FF1F476400403185FF1F5181FF1F5281FF1F5381FF1F5081FF1F014B1878704700BF6564004081F0004102E000BFD1
:404A400083F0004330B54FEA41044FEA430594EA050F08BF90EA020F1FBF54EA000C55EA020C7FEA645C7FEA655C00F0E2804FEA5454D4EB5555B8BF6D420CDD2C4480EA6B
:404A8000020281EA030382EA000083EA010180EA020281EA0303362D88BF30BD11F0004F4FEA01314FF4801C4CEA113102D0404261EB410113F0004F4FEA03334CEA1333FF
:404AC00002D0524263EB430394EA050F00F0A780A4F10104D5F1200E0DDB02FA0EFC22FA05F2801841F1000103FA0EF2801843FA05F359410EE0A5F120050EF1200E012A54
:404B000003FA0EFC28BF4CF0020C43FA05F3C01851EBE37101F0004507D54FF0000EDCF1000C7EEB00006EEB0101B1F5801F1BD3B1F5001F0CD349085FEA30004FEA3C0C82
:404B400004F101044FEA445212F5800F80F09A80BCF1004F08BF5FEA500C50F1000041EB045141EA050130BD5FEA4C0C404141EB010111F4801FA4F10104E9D191F0000F2C
:404B800004BF01460020B1FA81F308BF2033A3F10B03B3F120020CDA0C3208DD02F1140CC2F10C0201FA0CF021FA02F10CE002F11402D8BFC2F1200C01FA02F120FA0CFCCD
:404BC000DCBF41EA0C019040E41AA2BF01EB0451294330BD6FEA04041F3C1CDA0C340EDC04F11404C4F1200220FA04F001FA02F340EA030021FA04F345EA030130BDC4F147
:404C00000C04C4F1200220FA02F001FA04F340EA0300294630BD21FA04F0294630BD94F0000F83F4801306BF81F480110134013D4EE77FEA645C18BF7FEA655C29D094EAEA
:404C4000050F08BF90EA020F05D054EA000C04BF1946104630BD91EA030F1EBF0021002030BD5FEA545C05D14000494128BF41F0004130BD14F580043CBF01F5801130BDD7
:404C800001F0004545F0FE4141F470014FF0000030BD7FEA645C1ABF194610467FEA655C1CBF0B46024650EA013406BF52EA033591EA030F41F4002130BD00BF90F0000F5D
:404CC00004BF0021704730B54FF4806404F132044FF000054FF0000150E700BF90F0000F04BF0021704730B54FF4806404F1320410F0004548BF40424FF000013EE700BF15
:404D000042004FEAE2014FEA31014FEA02701FBF12F07F4393F07F4F81F06051704792F0000F14BF93F07F4F704730B54FF4607401F0004521F0004120E700BF50EA010240
:404D400008BF704730B54FF000050AE050EA010208BF704730B511F0004502D5404261EB41014FF4806404F132045FEA915C3FF4DCAE4FF003025FEADC0C18BF03325FEAC6
:404D8000DC0C18BF033202EBDC02C2F1200300FA03FC20FA02F001FA03FE40EA0E0021FA02F11444C1E600BF70B54FF0FF0C4CF4E06C1CEA11541DBF1CEA135594EA0C0F10
:404DC00095EA0C0F00F0DEF82C4481EA030621EA4C5123EA4C5350EA013518BF52EA033541F4801143F4801338D0A0FB02CE4FF00005E1FB02E506F00042E0FB03E54FF01C
:404E00000006E1FB03569CF0000F18BF4EF0010EA4F1FF04B6F5007F64F5407404D25FEA4E0E6D4146EB060642EAC62141EA55514FEAC52040EA5E504FEACE2EB4F1FD0C86
:404E400088BFBCF5E06F1ED8BEF1004F08BF5FEA500E50F1000041EB045170BD06F0004646EA010140EA020081EA0301B4EB5C04C2BFD4EB0C0541EA045170BD41F48011CE
:404E80004FF0000E013C00F3AB8014F1360FDEBF002001F0004170BDC4F10004203C35DA0C341BDC04F11404C4F1200500FA05F320FA04F001FA05F240EA020001F0004251
:404EC00021F0004110EBD37021FA04F642EB06015EEA430E08BF20EAD37070BDC4F10C04C4F1200500FA04F320FA05F001FA04F240EA020001F0004110EBD37041F10001A0
:404F00005EEA430E08BF20EAD37070BDC4F1200500FA05F24EEA020E20FA04F301FA05F243EA020321FA04F001F0004121FA04F220EA020000EBD3705EEA430E08BF20EA59
:404F4000D37070BD94F0000F0FD101F00046400041EB010111F4801F08BF013CF7D041EA060195F0000F18BF704703F00046520043EB030313F4801F08BF013DF7D043EA88
:404F80000603704794EA0C0F0CEA135518BF95EA0C0F0CD050EA410618BF52EA4306D1D181EA030101F000414FF0000070BD50EA410606BF1046194652EA430619D094EA7A
:404FC0000C0F02D150EA013613D195EA0C0F05D152EA03361CBF104619460AD181EA030101F0004141F0FE4141F470014FF0000070BD41F0FE4141F4780170BD70B54FF04C
:40500000FF0C4CF4E06C1CEA11541DBF1CEA135594EA0C0F95EA0C0F00F0A7F8A4EB050481EA030E52EA03354FEA013100F088804FEA03334FF0805545EA131343EA1263FD
:405040004FEA022245EA111545EA10654FEA00260EF000419D4208BF964244F1FD0404F5407402D25B084FEA3202B61A65EB03055B084FEA32024FF480104FF4002CB6EB5C
:40508000020E75EB030E22BFB61A754640EA0C005B084FEA3202B6EB020E75EB030E22BFB61A754640EA5C005B084FEA3202B6EB020E75EB030E22BFB61A754640EA9C00C5
:4050C0005B084FEA3202B6EB020E75EB030E22BFB61A754640EADC0055EA060E18D04FEA051545EA16754FEA06164FEAC30343EA52734FEAC2025FEA1C1CC0D111F4801F0B
:405100000BD141EA00014FF000004FF0004CB6E711F4801F04BF01430020B4F1FD0C88BFBCF5E06F3FF6AFAEB5EB030C04BFB6EB020C5FEA500C50F1000041EB045170BDF9
:405140000EF0004E4EEA113114EB5C04C2BFD4EB0C0541EA045170BD41F480114FF0000E013C90E645EA060E8DE60CEA135594EA0C0F08BF95EA0C0F3FF43BAF94EA0C0F82
:405180000AD150EA01347FF434AF95EA0C0F7FF425AF104619462CE795EA0C0F06D152EA03353FF4FDAE1046194622E750EA410618BF52EA43067FF4C5AE50EA41047FF470
:4051C0000DAF52EA43057FF4EBAE12E74FEA410212F5001215D211D56FF47873B3EB625212D94FEAC12343F0004343EA505311F0004F23FA02F018BF404270474FF000006C
:40520000704750EA013005D111F0004008BF6FF0004070474FF00000704700BF70B50E4B0E4D0024ED1AAD101E46AC4204D056F8242090470134F8E700F058F8084D094B16
:405240000024ED1AAD101E46AC4204D056F8242090470134F8E770BDF8520000F852000000530000F852000010B50023934203D0CC5CC4540133F9E710BD02440346934230
:4052800002D003F8011BFAE77047000000000000C84900401900004F0040240040510040300000000140000480040140000200070140000900140140000800400140000A0A
:4052C000004C014000021050014010000004014010120048800080060140901200488000005001401013004810000000F8B500BFF8BC08BC9E4670473D250000BD3500002F
:40530000F8B500BFF8BC08BC9E46704719250000205300000881FF1F1800000098040000000000000000C05D80BB000030000000006CDC0200000000000000000000000010
:40534000000000000000000000000000000000000000000000000000000000000000000000000000000000000000000000000000000000000000000000000000000000002D
:4053800000000000000000000000000000000000000000000000000000000000000000000000000000000000000000000000000000000000000000000000000000000000ED
:4053C00000000000000000000000000000000000000000000000000000000000000000000000000000000000000000000000000000000000000000000000000000000000AD
:40540000000000000000000000000000000000000000000000000000000000000000000000000000000000000000000000000000000000000000000000000000000000006C
:020000040003F7
:40FFC000EB11250000240000004076000000000000000200AB000200CDAB0000000000000000000000000000000000000000000000000000000000000000000000000000DF
:0200000480007A
:4000000000000000000000000000000000000000000000000000000000000000000000000000000000000000000000000000000000000000000000000000000000000000C0
:400040000000000000000000000000000000000000000000000000000000000000000000000000000000000000000000000000000000000000000000000000000000000080
:400080000000000000000000000000000000000000000000000000000000000000000000000000000000000000000000000000000000000000000000000000000000000040
:4000C0000000000000000000000000000000000000000000000000000000000000000000000000000000000000000000000000000000000000000000000000000000000000
:4001000000000000000000000000000000000000000000000000000000000000000000000000000000000000000000000000000000000000000000000000000000000000BF
:40014000000000000000000000000000000000000000000000000000000000000000000000000000000000000000000000000000000000000000000000000000000000007F
:40018000000000000000000000000000000000000000000000000000000000000000000000000000000000000000000000000000000000000000000000000000000000003F
:4001C00000000000000000000000000000000000000000000000000000000000000000000000000000000000000000000000000000000000000000000000000000000000FF
:4002000000000000000000000000000000000000000000000000000000000000000000000000000000000000000000000000000000000000000000000000000000000000BE
:40024000000000000000000000000000000000000000000000000000000000000000000000000000000000000000000000000000000000000000000000000000000000007E
:40028000000000000000000000000000000000000000000000000000000000000000000000000000000000000000000000000000000000000000000000000000000000003E
:4002C00000000000000000000000000000000000000000000000000000000000000000000000000000000000000000000000000000000000000000000000000000000000FE
:4003000000000000000000000000000000000000000000000000000000000000000000000000000000000000000000000000000000000000000000000000000000000000BD
:40034000000000000000000000000000000000000000000000000000000000000000000000000000000000000000000000000000000000000000000000000000000000007D
:40038000000000000000000000000000000000000000000000000000000000000000000000000000000000000000000000000000000000000000000000000000000000003D
:4003C00000000000000000000000000000000000000000000000000000000000000000000000000000000000000000000000000000000000000000000000000000000000FD
:4004000000000000000000000000000000000000000000000000000000000000000000000000000000000000000000000000000000000000000000000000000000000000BC
:40044000000000000000000000000000000000000000000000000000000000000000000000000000000000000000000000000000000000000000000000000000000000007C
:400480000000000000000000000000000000000000000000000000000000000000000000054F0040095200400464004004650040550001403E010140540201404803014083
:4004C000210401405205014017060140560701405A080140500901404E0A0140370B0140040D014048140140561501406C1601405B1701405318014052190140491A01409C
:400500004B1B014007400140094101400B4201400F4301400344014008450140054601400547014009480140144901400A4C0140054D0140055001400351014001400A27BA
:400540000D10162722270001010104E014C118401912602061307C108071810F823C873B840D85728A3B8B720001042F0508071008290A060B030C270E080F01120914265C
:40058000160917231802190C1B301C061F022004212B23142410250C271328102B142C10300E311032203407353F36103A223B203E043F014026410345EC470B481349FF4D
:4005C0004AFF4BFF4EF04F44500C56025712580459045A045B045C555D555F0166C06A406B029C01B401BE10C003C640C9FFCA07CBFFCC40CD20CEF0CF05D008D21CD40192
:40060000D804DA04DB04DD55DF01E040E1A8E240E320004401200380088009200B500F01102211101302184019241A061E08211022102380282029022A082B043214334067
:400640003A203B843C403E80402041104508480449804A104B85530454045620570459045E285F81682269106D096F4070147120720273027580841086018740C00FC28F8A
:40068000C40FCA07CC0ECE0ED046D204D6F2010A03E505FF09CC0B330D2F0FD0110513EA150217011BFF1C011D801F602173238C25F3270C2802300131E0350F36023710B5
:4006C0003B223E40541C580459045B045C565D505F0180158106824A84208506880889028A478C018D078FA892209301940895279656979099B99A159B069D019F40A0010C
:40070000A104A738A906AA01AC80ADBFAE0AB007B140B21BB31FB4C0B526B620B780B820B980BA0ABB08BE40D608D804D904DB04DC55DD90DF0100080102020303080AA891
:400740000F0210081141160419061A091B981E42216022092310278628342A022B022C202E042F8030203209338034103602378438283A813C043D013E803F1058805E08C8
:400780005F02630265A466088080814083048E01902891019224938894049608971098109AA29B409D029E08A104A304A508A780A884C00FC28EC44BCACFCCFFCEFFD6C8E0
:4007C000D838E210E64180AC825384FF88308A0A8C538D028EAC8F05903A910492C59302943A96C598FF9C0F9E30A005A2FAA6FFB03FB104B302B4C0B506B701BA02D80482
:40080000D904DB04DC65DF0100200240031104040601074409200E850F101004129014201680181019901A801E88200422042440272A29222B312C082E203104321133408C
:4008400037023A203B883E4040204205430248104A08508058405C405F2062806601678068066910812082088440918092659398940495029680982099069AA89B449D8078
:400880009E05A124A314A40CA508A604A702AC04AD01B121C0FFC2F2C43ECA0FCC8FCE1ED00FD204D638D808E208E608030105010B040F01115013A0170119481BA01D1883
:4008C0001F2027022B012D0133C7373F388039883E40580459045C305F01002002800316088809400A441024124219011A011F4020082108220123402680271129422B26BB
:400900002C242E4030023214340A3680371039103A083B483C223D803E044090411042014401458048414948501451805210599160046381790883608444858089048A0240
:400940008E808F109010919092A89502960299129A099B409C049D209E549F11A08AA104A324A508A701AF08B404B702C00FC20FC40FCA77CCF7CEFED00FD208D60DD80DA1
:40098000DE02E003E208003B0113020404030511060808070A380B3F0D680F1312401324147015481717197F1A2E1E3F1F3F20172112220824352577260829072D123070DF
:4009C000320F3408357F3A083E103F105608580459045B045C035D905F01831887188D189304951899089B029D189F01A318AB04AD10AF02B118B503B704BF50C032C10138
:400A0000C204C406C50DC6CFC7EBC83DC9FFCAFFCBFFCC62CDA0CEF0CF41D00CD203D904DA04DB04DC20DD22DF01E640E702E910EA30EB10ED10EE10EF12041207180C4084
:400A40000D100EA1142016801C301D201E8020082201230126102A512C102D012F09310A32403320346036023708382039A23A043B103C013E803F18414A42044540460141
:400A800048245084521053025C806540664068086A406B0180018520860289508A408B048E229210934094089582964099109DA49E409F05A152A488A508A7C2AB40C07048
:400AC000C2F0C430CAFDCCFFCEFBD00FD204D610D810E040E220E460EE01033F072409E80B130DC80E010F1710011202133F1507160119771B801D7F1F80200221122513FA
:400B000029112D12317F3403358039203E103F015608580459045B045C205D905F018001839B846485E38710882489638B988C448D808F0B900192069304949995639666E1
:400B400098E599989A129B639CF99DF89E02A102A21EA521A601A8E7A903AA08AC04AD42B1E0B282B578B67FB707BBA0BE44D804D904DC20DF01030205A406480A600C406E
:400B80000D480E600F1410801120132015021601172419101E12221023402572268029A42A012B802C082D802E082F803008312032803301344035043611380839823A02C4
:400BC0003B103D203E423F045B5089408B049B10A740C0F1C2FCC4F8CAFFCCFFCEFFD60CE208E60883108F40E204E64106400704083F0C040E020F01103D120213041420CC
:400C0000152016021710180219141A101B281C081E021F01243F270228012A822B022D082E40310132803330343F350C364037023E403F5554015604580459045B045C0315
:400C40005D505F0180018280846488248C449201961E98019A069C04A079A202A467A608A865AA12AC19AE66B080B67FBE40D602D711D804DB04DC03DD30DF010210030683
:400C8000059006400720080809400A440D200E810F201024138014081505160119401B181E82200421052301280129082A203080312032023308380839803C083D043E1012
:400CC0003F204540460159455E2060806C206E416F847590772080808140858089018B028D109008918092049404954A96509701980D990D9A709B809D909F24A084A160D0
:400D0000A212A420A601A782AF50B040B140B204B408B680C0F7C2FFC4F7CA0ECC0FCE0AD62BD801E008EE020103051B07200B0B0D300F0B13041513172819011D022102E1
:400D4000240125032B0B2D302F08312035183601370739023B803E403F10401349FF4AFF4BFF4F0150185608580459045A045B045C305D955F01604062406440654066807D
:400D800068806A806C806E80803082CF863E88018A028C208E0890819102924093019416962898289A169C149D019F06A03EA440A681AA02AC0CAEF3B03CB104B302B4039B
:400DC000B501B6C0B703BAA2C013C5ECC702C813C9FFCAFFCBFFCD83CE03CF01D018D280D804D904DA04DB04DC45DD55DF01E040E240E440E540E680E880EA80EC80EE80BD
:400E00000040012003600A220B480FC01008110912011504184019201B411F4021022224230226922C042F9231023260331034083590360139203A203C0A3D803E1441082E
:400E400042024508461247804905510858405B105D43640266406702738083018404852088058A208E048F809008918492A293089404952A965497019801990A9A019B4080
:400E80009C0E9D209E449F26A088A104A320A420A540A703AA12B342B410C00FC20FC42FCAF0CCF9CEF0D05AD61CD810E208E404EA20EC02EE80007B010C02040401050424
:400EC0000A1F0B130C030D130F0C1003121C1467151F16181820191C1B021C6020402108246C250C26132713280F2A702C022D102F01307F351C370F3A023B805203580426
:400F000059045B045C335D305F01820183D28448857386A0878088018C018D0790189220930495E196019710985099609AA09B189DE09E019F13A201A3FBA602AA04ADA3DE
:400F4000AF10B03FB107B310B4C7B508B7F0B822BB80BF14D804D904DC22DF010102020503200422062209480A800B080C020D040F0A111412801420156119011A801B20F9
:400F80001C8020022140229A240225A0280229022C122D0130203108328234203502370939023A043B403C813F1A4402455046046C026F08814084028601881089A08B0173
:400FC0008E4A8F01902192129359940295839685970299109A229B099C309DA49E849F04A030A150A508A7ECAC80B710C0FFC2FFC4FECAD9CC6FCEFBE040E2A0E690EC40EA
:401000000002020405FC083E09FC0C010D100E7E0F0811F412011308140815081604174018041A101C201D801E041F082105230A243E29202B082C3A2D022E042F013040B2
:4010400031FC3303343F3E103F04541B5604580459045B045C225D205F0581678318852089608F1F9103950F9770997B9B049D6C9F13A103A31CA501A902AB80AD40B37F5F
:40108000B580BB08D602D711D904DB04DC20DD20DF010002011003010850095A0A081002110412011A041B0120802107250826042704280829022B012D822F243042320410
:4010C00034583501360439943C823E285A625E10611063816C026D146F8075A476287908850188108F049180927293099517960499139B019DA49E019F04A011A150A32096
:40110000A508A7C4AF08B050B114B280B420C00BC20FC405CAFDCCFBCEFED62DD80DDE02E040E680E840EE2030403302340235803B10CCF0CE1033405F408DA097109C4299
:401140009D80A702CC10D62014403E208620975099209C429F40A702C420CE20E21068806C80731083028740974099209C029F40A702AF10DCE0E220E640EA101108148012
:40118000C40C05020F20810483509880A104C004C2048502871098809902A34092809710A340A880AA4099209A409F40A404AC04B082B240B310EC40000805105920631042
:4011C000664081108340931099209A409F40A404AF10C090D480D680D840E420E680EA101040131014807B407E4092809710A340C40EDE0378407C8098C0DC01DE04103C1D
:4012000011011A381B011C0C00FE010F03C000000000020000A002000080081F0003011C0005000A0060009F009F0860000C001300F510000040049500100400000A000595
:40124000100003FF04000800000000200000540423040600010C0E0005FFFFFF62A0F0410C0000000000080004040404549500010000000000004002001030100010101289
:4012800000000000000000000000000000000000C0000000400800113E200040C20004233A0004402000C4040408D010C8000400800800123E01000001003E100000C10087
:4012C000C007001800603F0000080000000040144105020003BCDF0E1FFFFFFF62A0F0410C0000001B00040004040404533300050000000000004002001030100010101247
:40130000000000000000000000000000000000007C01000000000000600178010C010000FF0000FF1F000100000000003000000030003000003000003300003323000000E2
:4013400000000000C00000C0C000000000000000F30020DF1C0000000000000040000976764052000000000000000000000000000000000000000000000000000000000058
:40138000000000000000000000000000000000000000000000000000000000000000000000000000000000000000000000000000000000000000000000000000000000002D
:4013C00000000000000000000000000000000000000000000000000000000000000000000000000000000000000000000000000000000000000000000000000000000000ED
:4014000000000000000000000000000000000000000000000000000000000000000000000000000000000000000000000000000000000000000000000000000000000000AC
:40144000000000000000000000000000000000000000000000000000000000000000000000000000000000000000000000000000000000000000000000000000000000006C
:0200000490006A
:0400000000004005B7
:0200000490105A
:04000000BC90ACAF55
:0200000490303A
:02000000B23715
:0200000490402A
:4000000000000000000000000000000000000000000000000000000000000000000000000000000000000000000000000000000000000000000000000000000000000000C0
:400040000000000000000000000000000000000000000000000000000000000000000000000000000000000000000000000000000000000000000000000000000000000080
:400080000000000000000000000000000000000000000000000000000000000000000000000000000000000000000000000000000000000000000000000000000000000040
:4000C0000000000000000000000000000000000000000000000000000000000000000000000000000000000000000000000000000000000000000000000000000000000000
:0200000490501A
:0C00000000012E11E06900012E3892A0D2
:00000001FF