:400000000080002011000000990000009900000080B500AF034A044B1B68136000F01CFB00F03EF8BC760040FA46004010B5054C237833B9044B13B10448AFF30080012306
:40004000237010BD2881FF1F0000000064200000084B10B51BB108480849AFF300800848036803B910BD074B002BFBD0BDE81040184700BF00000000642000002C81FF1F40
:400080000881FF1F0000000080B500AF00F0BAFF00F08CFAFEE700BF80B400AFFEE700BF80B586B000AF224B7B61224B3B61204B7B6135E03B691B68FB603B695B68BB609F
:4000C0003B699B683B6000237B600CE0FB681A68BB681A60BB680433BB60FB680433FB607B6804337B607A683B689A42EED13B69DB683B6000237B6008E0BB6800221A60AC
:40010000BB680433BB607B6804337B607A683B689A42F2D13B6910333B617B69013B7B617B69002BC6D101F05FFFFFF7ADFFFEE7010000000025000080B582B000AF174B98
:40014000174A1A60174A174B1B6843F40073136000237B600FE07B68032B04D8124A7B6852F8233000E0114B11497A6841F822307B6801337B607B682F2BECD90D4B1B78A9
:40018000DAB20D4B1A700D4B094A1A6000F030F90B4B00221A600837BD4680BD0CED00E00004FA0514ED00E000000000990000000080FF1FBC7600400481FF1F08ED00E044
:4001C0000081FF1F80B582B000AF78603960786800213A6801F039FF0837BD4680BD00BF80B584B000AFF860B9607A60F868B9687A6801F01FFF1037BD4680BD80B584B00A
:4002000000AFF860B9607A60F868B9687A6801F011FF1037BD4680BD80B483B000AF0346FB71FEE780B487B000AF7860396000233B6100237B6127E07B699B007A68134421
:400240001B68BB60BB68FB73BB6823F0FF03BB6014E03B695B003A6813441B781A46BB68134419463B695B003A6813445B780B703B6901333B61FB7B013BFB73FB7B002BC9
:40028000E7D17B6901337B617B69172BD4D91C37BD465DF8047B704780B582B000AF334B03221A80324B1B221A70324B33221A80314B18221A70314B02221A704FF04023CF
:4002C00008221A702E4B03221A702E4B2E4A1278D2B21A702D4B08221A802D4B41F251221A800023FB7019237B6014E0FB785B00DAB2284B1B78DBB203F00103DBB2134345
:40030000DBB203F00303FB704FF4F07000F03CFF7B68013B7B607B68002B02D0FB78032BE4D17B68002B02D10320FFF775FF1A4B4FF480721A80184B07221A70174B002292
:400340001A70174B48221A70134B00221A70154B02221A70144A144B1B78DBB243F00303DBB213700837BD4680BD00BF804000408240004084400040864000400043004092
:4003800000420040A14600400801004922420040204200402542004004400040064000400840004001400040A243004080B483B000AF0B4B1B78FB710A4AFB7903F00703ED
:4003C000DBB21370084AFB791B09DBB21370074B44221A700C37BD465DF8047B704700BFCF0100496E5800406F5800407658004080B582B000AF72B6364A364B1B78DBB28E
:4004000043F00403DBB213700023FB7113E0FA7913465B0013445B002F4A13443B603B681A683B689B889BB210461946FFF7CAFEFB790133FB71FB79082BE8D927482849A5
:40044000FFF7F0FE274A274B1B78DBB243F00203DBB21370244A244B1B78DBB243F00203DBB21370214A214B1B78DBB243F04003DBB213701E4A1E4B1B78DBB243F0100354
:40048000DBB213701B481C490A22FFF7B7FE1B481B490822FFF7B2FE1A4A1A4B1B78DBB243F00803DBB21370174B01221A70FFF7F3FE154B81221A70144B01221A70FFF73A
:4004C00075FF134809490E22FFF78AFE0837BD4680BD00BFE846004068200000A0200000002100000350014013500140A0430040C243004000510040C02400006251004010
:40050000CC240000224300400048004004000840B043004080B485B000AF78600B467B800023FB810BE07B88013B7A6813441B789AB2FB891344FB817B88013B7B807B886E
:40054000002BF0D1FB895B429BB218461437BD465DF8047B704700BF80B586B000AFF860B9607A600023FB75FB680F4A934205D0FB68002B02D0002000F090FF0BE07B6800
:40058000013B7B60FA68BB681A447B6813441A78FB7D1344FB757B68002BF0D1FB7D18461837BD4680BD00BF0080004080B582B000AF06237B60002000F06EF80346002B7F
:4005C00001D100237B601C4B1B681B68002000211A46FFF7C1FF0346FB70184B1B681B78FA78D31AFB70FB785B42FB70134B1B681B78FA789A4204D10F4B1B681B68002BD3
:4006000002D1002000F04AFF0D4B1B78DBB203F0C003402B02D07B68002B05D0084B00221A70002000F0AEF8C82000F0ABF800F009F80837BD4680BD1081FF1F0C81FF1F46
:40064000FA46004080B500AF024B80221A7000F031FF80BDFA46004080B500AF0C4B1B78DBB203F0C003802B11D1094B00221A700220002100F0E4FB0346002B07D00220A3
:40068000002100F0DDFB0346184600F003F880BDFA460040004700BF90B587B000AF0346FB71FB790320194600F0CAFB034601331C02FB790420194600F0C2FB0346234482
:4006C000FB600023FB740023BB74FB790320194600F0B6FB034601331B027B6111E07B691B78FB72FB7A002B04D0FB7AFF2B01D00123FB74BA7CFB7A1344BB747B69013319
:400700007B617A69FB689A42E9D3FB790320194600F096FB034601331B02DB087B61FB68174A934202D0FB68DB0801E04FF40043FB600AE07B6903F190431B78DAB2BB7CD1
:400740001344BB747B6901337B617A69FB689A42F0D3BB7C5B42BB74BC7CFB790120194600F06EFB03469C4202D1FB7C002B01D1062300E0002318461C37BD4690BD00BF38
:40078000C0FF030080B5ADF5247D00AF0246FB1D1A700023A7F88A320023A7F888320A2387F88732002387F8863200F073FD0346002B02D0002000F071FE01F0E9F862B69E
:4007C000002387F88D32FB1D1B78002B02D0FB1D1B7800E0FF2307F59E7107F26A2208464FF4967101F002F9C7F87802FB1D1B78002B04D097F88732013B87F8873297F801
:400800008732002B03D0D7F87832002BDBD1D7F87832002B00D0B8E2B7F86A32062B04D907F59E731B78012B03D0042387F88D3249E007F59E73DB789BB21B029AB207F50B
:400840009E739B789BB21343A7F88A32B7F88A32053307F59E72D35C9BB21B029AB2B7F88A32043307F59E71CB5C9BB21343A7F87632B7F88A320733B7F86A22934203D973
:40088000032387F88D321EE0B7F88A32063307F59E72D35C172B03D0042387F88D3212E0B7F88A3204339BB207F59E7210461946FFF730FE03461A46B7F87632934202D010
:4008C000082387F88D320023A7F88E3297F88D32002B40F04F8207F59E731B7987F87532042387F88D3207F59E735B78313B0A2B00F23C8201A252F823F000BF2909000045
:40090000630900006D0D0000FD090000710B00006D0D0000830B0000D70B0000FD090000190C0000550D000097F88632012B17D1B7F88A32002B13D10020FFF7ADFE0346F9
:40094000002B0CBF01230023DBB21A4607F59E731A710123A7F88E32002387F88D3209E208E297F88632012B47D1B7F88A32012B43D197F87532032B3FD8D24B1B681B6828
:400980001B0C87F8743297F8752297F874329A4208D1CC4B1B681B681B0A9BB2DBB2A7F884320DE097F8752297F874329A4203D90023A7F8843203E04FF48073A7F8843284
:4009C000B7F88432DAB207F59E731A71B7F884321B0A9BB2DAB207F59E735A7107F59E73FF229A7107F59E730022DA710423A7F88E32002387F88D32BCE1BBE107F59E7353
:400A00005B78342B23D197F88632012B40F0B281B7F88A32032B40F0AD8197F875323F2B08D997F875325BB2002B03DB1023A7F8883203E04FF49073A7F88832B7F888327F
:400A400007F11002104600211A4601F0FEFA97F88632012B40F08B80B7F88A32022B40F28680B7F8883207F11002D118B7F88A32DA1E07F59E7307330846194601F0DAFAB6
:400A8000B7F88822B7F88A3213449BB2033BA7F8883297F875323F2B0AD997F875325BB2002B05DB00F0B4FC1023A7F88A3203E04FF49073A7F88A32B7F88822B7F88A32F0
:400AC0009A424DD107F59E739B799BB21B029AB207F59E735B799BB21343A7F8883297F875323F2B27D897F875329BB21B029AB2B7F888321344A7F87232724B1B681B68F7
:400B00001B0AA7F882326F4B1B681B68DBB2002B04D0B7F882320133A7F88232B7F87222B7F882329A4206D20A2387F88D320023A7F888321EE197F87502B7F8881207F180
:400B40001002B7F88A3200F0B7FB0346002B01D00A2300E0002387F88D3200F0EFFC02E0032387F88D320023A7F8883202E101E197F88632012B03D10023A7F8883204E199
:400B8000F8E097F88632012B24D1B7F88822B7F88A321344B3F5967F18D8002387F88D32B7F8883207F11002D118B7F88A2207F59E7304330846194601F03CFAB7F88822A4
:400BC000B7F88A321344A7F8883203E0032387F88D32CFE0CEE0B7F88A32002B1BD107F10803394A92E8030083E80300012387F886320823A7F88E32B7F88E2207F59E73F2
:400C0000191D07F108030846194601F013FA002387F88D32AEE0ADE097F88632012B40F09880B7F88A32032B40F0938007F59E739B799BB21B029AB207F59E735B799BB2B8
:400C40001343A7F8703297F875323F2B13D997F875325BB2002B0EDBB7F870321B01C7F86C321A48D7F86C121022FFF775FC034687F8813212E097F875321A02B7F87032D8
:400C800013441B02C7F86C320020D7F86C124FF48072FFF761FC034687F8813297F875323F2B2AD897F8753203F510331A02B7F8703213445B01C7F86C320023A7F87E32F1
:400CC00017E000BF1081FF1FD424000000800040B7F87E22D7F86C3213441B78DAB297F88132134487F88132B7F87E320133A7F87E32B7F87E321F2BEAD997F87532032B28
:400D000019D1B7F87032FF2B15D10520002100F097F80346DBB297F88122D31A87F881320620002100F08CF80346DBB297F88122D31A87F8813297F881325B42DAB207F533
:400D40009E731A71002387F88D320123A7F88E3210E00FE00020FFF79FFC0346002B02D1114B80221A7000F0A5FB03E0052387F88D3200BF97F88D1207F59E72B7F88E3253
:400D8000084611461A4600F011F8FB1D1B78002B3FF416AD97F88632012B3FF411AD07F52477BD4680BD00BFFA46004080B584B000AF03463960FB711346BB803B6801222F
:400DC0001A703B680133FA791A703B680233BA88D2B21A703B680333BA88120A92B2D2B21A70BB8804339BB238681946FFF792FB0346FB81BB8804333A681344FA89D2B25C
:400E00001A70BB8805333A681344FA89120A92B2D2B21A70BB8806333A68134417221A70BB8807339AB23B1D386811461A46962300F0B8FD034618461037BD4680BD00BFC8
:400E400080B586B000AF03460A46FB711346BB710223FB740023FB60FB79013B092B00F2918001A252F823F0910E0000AB0E0000C50E0000DB0E0000F50E00000F0F0000A0
:400E80003F0F0000290F0000550F00006B0F0000BA7913461B069B1A1B0203F57F3303F570737B610123FB7472E0BA7913461B069B1A1B0203F57F3303F2C1337B610423F4
:400EC000FB7465E0BA7913461B069B1A1B0203F57F3303F2C5337B615AE0BA7913461B069B1A1B0203F57F3303F2C9337B610423FB744DE0BA7913461B069B1A1B0203F5E2
:400F00007F3303F574737B610123FB7440E0BA7913461B069B1A1B0203F57F3303F2D1337B610123FB7433E0BA7913461B069B1A1B0203F57F3303F2D6337B6128E0BA79AF
:400F400013461B069B1A1B0203F57F3303F2D2337B611DE0BA7913461B069B1A1B0203F57F3303F575737B6112E0BA7913461B069B1A1B0203F57F3303F576737B610423C4
:400F8000FB7405E0002000F089FA00237B6100BFFB7C012B03D17B691B78DBB2FB60FB7C022B0BD17B691B78DBB2FB607B6901331B78DBB21B02FA681343FB60FB7C042BC9
:400FC0001BD17B691B78DBB2FB607B6901331B78DBB21B02FA681343FB607B6902331B78DBB21B04FA681343FB607B6903331B78DBB21B06FA681343FB60FB681846183755
:40100000BD4680BD80B500AF054B1B78002B04D100F008F8024B01221A7000F061F880BD4481FF1F80B582B000AF284A274B1B78DBB243F00203DBB21370254B1B78DBB264
:4010400023F07003FB71224AFB7943F01003DBB21370204A1F4B1B78DBB223F03003DBB213701C4A1B4B1B78DBB243F03003DBB21370184A174B1B78DBB223F00F03DBB206
:401080001370144A134B1B78DBB243F00F03DBB21370FF2000F048F87F2000F055F8002000F062F80C4A0C4B1B78DBB243F00103DBB21370094A094B1B78DBB243F00103D5
:4010C000DBB213700837BD4680BD00BF004F0040024F00400B4F0040A3430040014F004080B400AF0D4A0D4B1B78DBB243F00103DBB213700A4A0A4B1B78DBB243F0010339
:40110000DBB21370074A074B1B78DBB243F00103DBB21370BD465DF8047B7047A3430040B3430040004F004080B483B000AF0346FB71044BFA7992B21A800C37BD465DF816
:40114000047B7047044F004080B483B000AF0346FB71044BFA7992B21A800C37BD465DF8047B7047064F004080B483B000AF0346FB71044AFB7913700C37BD465DF8047BAB
:40118000704700BF034F00400230800803D000BF01380046FCD17047EFF3108072B6704780F31088704700BF80B582B000AF00F03BFA4FF0FF337B6000F06AFB0346002BB6
:4011C00024D1012000F032FB0346072B1BD11348022100F04BFA0346022B0DD100237B6002E0012000F098F90D4B1B78DBB203F00203002BF5D006E0094B1B78DBB203F01F
:401200000203002BE3D000F077FB01E004237B607B6818460837BD4680BD00BF5881FF1F2247004080B582B000AF00F0FDF900F02FFB0346002B23D100F086FB78607B68BD
:40124000072B1AD102E0012000F066F9104B1B78DBB203F00203002BF5D00D4B1B78DBB203F00203002B08D0094B1B78DBB29B08DBB2002B01D100237B6000F03DFB01E081
:4012800004237B607B6818460837BD4680BD00BF2247004080B582B000AFFFF7C3FF78607B68002B02D1FFF77FFF78607B6818460837BD4680BD00BF80B586B000AFBA607E
:4012C0001A460346FB730B46BB811346FB8000237B61FB7B3F2B04D8FB7B042B01D901237B61FB7B5BB2002B01DA01237B61FB7B3F2B04D9FB7B412B01D901237B61FB7BC4
:401300003F2B06D8BB89B3F5807F0CD901237B6109E0BB89802B01D901237B61FB88102B01D001237B61BB68002B01D101237B617B69002B62D100F0ABFA0346002B5BD1BD
:40134000F97BBA89FB8808461146BA6800F0BAF978617B69072B4CD102E0012000F0DCF8294B1B78DBB203F00203002BF5D0264B1B78DBB203F00203002B09D0224B1B78ED
:40138000DBB29B08DBB2002B02D100237B6102E04FF0FF337B617B69002B2AD11B4B1A781A4B5B78F87BB98900F0F4F978617B69072B1ED102E0012000F0AEF8124B1B7811
:4013C000DBB203F00203002BF5D00F4B1B78DBB203F00203002B09D00B4B1B78DBB29B08DBB2002B02D100237B6102E04FF0FF337B6100F081FA01E004237B617B6918469F
:401400001837BD4680BD00BF224700405881FF1F80B582B000AFFFF7BFFE0346FB71194A184B1B78DBB243F00803DBB21370164A154B1B78DBB243F00803DBB21370134B80
:40144000C8221A70124A124B1B78DBB243F01003DBB213700F4A0F4B1B78DBB243F01003DBB2137000BF0C4B1B78DBB203F02003002BF8D0FB791846FFF792FE0837BD46C7
:4014800080BD00BFA0430040B043004001470040AC430040BC4300400047004080B483B000AF0346FB7101BE0C37BD465DF8047B704700BF80B400AF054A054B1B78DBB2A1
:4014C00043F00103DBB21370BD465DF8047B7047F646004080B582B000AF786008E00C4B1B681846FFF750FE7B68A3F500437B607B68B3F5004FF2D8064B1B687A6802FB59
:4015000003F31846FFF740FE0837BD4680BD00BF2081FF1F1881FF1F80B582B000AF0346FB80FB88044A127802FB03F31846FFF72BFE0837BD4680BD1C81FF1F80B582B029
:4015400000AFFFF729FE0346FB7100BF00BF00BF00BF00BF00BF00BF00BF00BF00BF00BF00BF00BF00BF00BF00BF094A084B1B889BB243F004039BB21380054B1B88BFF3A5
:401580006F8FFB791846FFF70BFE0837BD4680BD0048004080B584B000AF03463960FB710F4B1B68FB60FB791F2B02D90020FFF775FFFB7903F01F0310339B00FA68134474
:4015C0001B68BB60FB7903F01F0310339B00FA6813443A681A60BB6818461037BD4680BD08ED00E080B582B000AF03460A46FB711346BB71BB79072B02D90020FFF74EFFF0
:40160000FB791F2B02D90020FFF748FFFB7903F01F0303F1604303F56443BA795201D2B21A700837BD4680BD80B582B000AFFFF7B3FD0346FB710B4A0A4B1B78DBB243F074
:401640000803DBB21370084A074B1B78DBB243F00803DBB21370FB791846FFF7A1FD0837BD4680BDA0430040B043004080B584B000AF78600B46FB700023FB7314E002E0EF
:401680000120FFF749FF0D4B1B78DBB203F00103002BF5D0FB7B7A681344094A1278D2B21A70FB7B0133FB73FA7BFB789A42E6D3FB7B18461037BD4680BD00BF224700407A
:4016C0002047004080B489B000AFBA601A460346FB730B46BB811346FB800723FB612B4B1B78DBB203F00203002B45D0284BB6221A70274BD5221A70254B02221A70234BED
:401700001B78DBB203F00203002B32D1204AFB7B137000237B8308E01D497B8BBA6813441B780B707B8B01337B837A8BFB889A42F2D3FB88B3F5807F20D1FB7B3F2B1DD8B3
:40174000FB7B03F510331A02BB8913445B017B6100237B8309E00E497A8B7B6913441B78DBB20B707B8B01337B837B8B1F2BF2D904E00923FB6101E00423FB61FB691846A8
:401780002437BD465DF8047B704700BF224700402047004090B484B000AF0446084611461A462346FB710346BB800B46BB711346FB700723FB601B4B1B78DBB203F002031E
:4017C000002B26D0184BB6221A70174BD8221A70154B05221A70134B1B78DBB203F00203002B13D1104AFB7913700F4ABB881B0A9BB2DBB213700C4BBA88D2B21A700A4A1D
:40180000BB791370084AFB78137004E00923FB6001E00423FB60FB6818461037BD4690BC704700BF224700402047004080B485B000AF0346FB710723FB60134B1B78DBB2EE
:4018400003F00203002B16D0104BB6221A700F4BE1221A700D4B0E221A700B4B1B78DBB203F00203002B03D1084AFB79137004E00923FB6001E00423FB60FB681846143719
:40188000BD465DF8047B7047224700402047004080B582B000AF04237B60FFF77DFC0346FB70124B1B78002B16D1104B01221A7000237B600E4B1B6803F00103002B0BD02E
:4018C0000B4A0B4B1B6823F00103136000BF00BF00BF084B01221A60FB781846FFF760FC7B6818460837BD4680BD00BF4881FF1F040008404C81FF1F80B582B000AFFFF737
:401900004BFC0346FB710D4B00221A700C4B1B68012B0BD10B4A0B4B1B6843F00103136000BF00BF00BF064B00221A60FB791846FFF736FC0837BD4680BD00BF4881FF1FA4
:401940004C81FF1F0400084080B483B000AF07237B600D4B1B78DBB203F00203002B09D00A4BB6221A70094BE0221A70074B0D221A7001E004237B607B6818460C37BD4695
:401980005DF8047B704700BF224700402047004080B500AF00F0A4F800F0B2F900F050FA80BD00BF80B586B000AFF8607A601A460B467B8113467B720023FB8200F0A0F9E4
:4019C000FB8AFA6813441B78184600F0E9F9FB8A0133FB82FA8A7B899A42F1D37B687A891A80002318461837BD4680BD90B589B000AFF8607A601A460B467B8113467B72A6
:401A00000523BB610023FB831BE000F039F90346002B10D000F034F90346FB821920FFF759FD00F02DF903469BB2FA8A9A42F1D30023BB610DE00120FFF74CFDFB8B0133D2
:401A4000FB83F98B7A7A13469B0013445B009942DBDB7B6800221A800023BB8336E000F00FF90346BB827B681A88BB8A13449AB27B681A807B681B887A899A421ED900233C
:401A8000FB830CE0BB8BFA68D41800F0B7F803462370BB8B0133BB83FB8B0133FB83FA8BBB8A9A42EED3BB8B013BFA6813441B78172B0BD00520FFF70DFD07E07B681A88DA
:401AC000BB8AD31A9AB27B681A8004E000F0D8F80346002BC3D1BB6918462437BD4690BD80B500AF054B1B78002B04D100F008F8024B01221A7000F033F880BD5081FF1F1A
:401B000080B500AF00200F49FFF744FD00200721FFF768FD0C4B72221A700C4B20221A7001200B49FFF736FD01200721FFF75AFD084B07221A70084B48221A70074B0222E0
:401B40001A7080BD9D1E00008264004080640040451F000025640040356400408364004080B582B000AFFFF717FB0346FB71134A124B1B78DBB243F02003DBB21370104AFF
:401B80000F4B1B78DBB243F01003DBB213700D4B01221A600C4A0C4B1B78DBB243F01003DBB21370074B02221A6000F003FAFB791846FFF7F5FA0837BD4680BD92640040F4
:401BC0009064004000E100E09364004080B400AF034B01221A60BD465DF8047B704700BF00E100E080B400AF034B01221A60BD465DF8047B704700BF80E100E080B582B01A
:401C000000AFFFF7EFFF194B1B78BB71184B1B787B71184B1B78DBB2002B03D1BA797B799A4218D0BB79144AD35CFB71BB790133BB71BB793F2B01D90023BB710B4ABB798E
:401C400013700C4B1B78DBB2002B03D0094B00221A7003E002E0094B1B78FB71FFF7B6FFFB7918460837BD4680BD00BF5381FF1F5481FF1F5581FF1F5C81FF1F40640040E1
:401C800080B582B000AFFFF7ADFF1A4B1B78DAB2194B1B78DBB29A420AD1184B1B78DBB2002B02D04023FB711DE00023FB711AE0104B1B78DAB2104B1B78DBB29A4208D22D
:401CC0000D4B1B78DAB20B4B1B78DBB2D31AFB7109E0094B1B78DAB2064B1B78DBB2D31ADBB24033FB71FFF771FFFB7918460837BD4680BD5381FF1F5481FF1F5581FF1FE8
:401D000080B582B000AFFFF747FA0346FB71134A124B1B78DBB243F00103DBB213700F4A0E4B1B78DBB223F00103DBB21370FB791846FFF735FAFFF755FF094B00221A7046
:401D4000084B00221A70084B00221A70074B00221A70FFF73BFF0837BD4680BD906400405381FF1F5481FF1F5581FF1F5681FF1F80B400AF034B02221A60BD465DF8047B10
:401D8000704700BF00E100E080B400AF034B02221A60BD465DF8047B704700BF80E100E080B485B000AF0346FB71204B1B78FB731F4B1B78BB73FA7BBB7B9A4208D2FA7B55
:401DC000BB7B013B9A420CBF01230023DBB207E0FA7BBB7BD31A3F2B0CBF01230023DBB2002BE2D1BA7BFB7B9A420AD1114B1B78DBB203F00403002B03D10F4AFB79137069
:401E00000EE0FB7B3F2B01D90023FB73FB7B0B49FA79CA54FB7B0133FB73044AFB7B13701437BD465DF8047B704700BF5281FF1F5181FF1F63640040446400409C81FF1F0C
:401E400080B582B000AFFFF7A7F90346FB71104A0F4B1B78DBB243F00103DBB213700C4A0B4B1B78DBB223F00103DBB21370FB791846FFF795F9FFF787FF064B00221A7024
:401E8000054B00221A70FFF773FF0837BD4680BD946400405181FF1F5281FF1F80B483B000AF0023BB71204B1B78FB7132E01F4B1B78DBB21A461E4B1B78D9B21D4B99547F
:401EC0000123BB71BB79002B21D01B4B1B78DBB2002B02D0194B01221A70144B1B78DBB20133DAB2114B1A70104B1B78DBB23F2B02D90E4B00221A700C4B1B78DAB2104BF3
:401F00001B78DBB29A4202D10B4B01221A70064B1B78FB71FB7903F02003002BC7D10C37BD465DF8047B7047606400405481FF1F406400405C81FF1F5581FF1F5681FF1FA2
:401F40005381FF1F80B400AF17E0154B1B78DBB23F2B02D9124B00221A70124B104A1278D2B21146104A525CD2B21A700C4B1B78DBB20133DAB20A4B1A70094B1B78DAB20C
:401F80000A4B1B789A4206D0094B1B78DBB203F00403002BD9D0BD465DF8047B704700BF5181FF1F446400409C81FF1F5281FF1F6364004080B400AF094A094B1B78DBB243
:401FC00043F00203DBB21370064A064B1B78DBB243F00203DBB21370BD465DF8047B7047A2430040B24300400E4B70B51E460E4C0025E41AA410A54204D056F82530984758
:402000000135F8E700F06AFA084B094C1E46E41AA4100025A54204D056F8253098470135F8E770BDE8240000E8240000E8240000F024000010B5431E0A44914204D011F879
:40204000014B03F8014FF8E710BD03460244934202D003F8011BFAE7704700008A0000000026000000000000004F00400C00105100405000C05100401000F051004010000A
:4020800000000140001000140140000800400140000A004C014000020050014020000000014F004002520040036400405600014033010140430201403F0301406104014021
:4020C00047050140040701400117014001190140044001400741014007420140034301400244014001450140014601400147014001480140024C01400350014001510140D5
:402100000A4B0102040180388272830F03010B02130219011E011F0129012A0131013502360139023E403F10406541024201440346E0470C481849FF4AFF4BFF4C624DA0C7
:402140004EF04F41500C54185604580459045A045B045C105D115F016640670269106A306B106D106E106F12800F810682C083098482861088048C0890419210930994C3A0
:40218000950F962098C399099A0C9B069EC3A107A308A4CFA502A80CA906AC0CAD04AEC3B10EB230B40FB6C0B707BA20BB22BE04D804D904DC11DF010408058006080740F9
:4021C00009400D080E0A0F40100815101602171418011C101D101E092004210225E12620274429102C202D902E0A3122334035103601370438203A023D02401041A04A05B9
:4022000050185A0160858C80C0F0C2F1C4E2CAF4CCEDCE85D00ED20CD601D80DE21001080201041F0517080709170A180C101102130514181508180119081E0620192108C1
:40224000220224082504270229012B022C192D102E04311033073508361F3A803F1056025711580459045B045C115D105F018103830C89038A018B049401970E9E01A1094D
:40228000A503A704AA01AC01B001B10FB908BB02BE01BF04D401D604D804D904DB04DC10DD10DF010020020405800764084009400A200C180E02120A1501160217081A80FA
:4022C0001F402101220223102508261128602A042D402E0A2F483208340136243724380839223A083D233E04582059025A885E2063806D606E147428758077188340940849
:4023000097409D809E029F10A101A224A420A508A601C0F2C2E5C4B3CAF3CCE2CEE5D62FD801040107060A060C200D0C0E181104122014181622170E1828230A25012812E4
:402340002A202C382E04323E33013401350E3B203E103F0440424106450C46E0470B481949FF4AFF4BFF4EF04F44500C580459045A045C115D015F0166C06A406B02810278
:4023800083018503880489038C018D208F0891089310973899089A029B30A003A120A504A803A901AB42B140B204B304B403B503B738B820BB80BE14C002C501C750C8219D
:4023C000C9FFCA07CBFFCC40CD20CEF0CF05D008D804D904DA04DC10DD01DF01E040E1A8E240E3200010010402020410070109020A200B080E081180120815221720181430
:402400001D24200821102214230424082540260C274128802B202D042E022F08310232083606372039403B043DC23E1440844101452048144D045324550256028104910290
:40244000921493109408952096289F40A202A308A410A540A608A720A902AB20AC11AD08AF48C0C7C24EC453CAE3CCE3CEFAD025D204A804A901B310EE80E810E810322083
:4024800037108E20CC3000085A8083109F10C010D480E2205A0182409680AC04D640E680EC401810B201C6105004D404940894089408B410B404E808000208020A02000F12
:4024C00002000102020002000000000000040400040000006930122E001E0101F8B500BFF8BC08BC9E4670475100000039010000F8B500BFF8BC08BC9E4670472D00000018
:40250000102500000881FF1F20000000B8000000000000005C2000006020000000366E01C05D0000180000000000E02E000000000000000000000000000000000000000003
:40254000000000000000000000000000000000000000000000000000000000000000000000000000000000000000000000000000000000000000000000000000000000005B
:40258000000000000000000000000000000000000000000000000000000000000000000000000000000000000000000000000000000000000000000000000000000000001B
:4025C00000000000000000000000000000000000000000000000000000000000000000000000000000000000000000000000000000000000000000000000000000000000DB
:402600000080002011260000BD260000BD26000080B500AF00F056F810B5054C237833B9044B13B10448AFF300800123237010BD2081FF1F0000000044300000084B10B5EE
:402640001BB108480849AFF300800848036803B910BD074B002BFBD0BDE81040184700BF00000000443000002481FF1F0881FF1F0000000080B500AF00F088FA0C4800F0B4
:40268000CBFA0120002100F091FA0A4800F0C4FA62B600F039FC0346002B08D10120002100F084FA044800F0B7FA00F023FAF0E748300000503000006030000080B400AF22
:4026C000FEE700BF80B586B000AF224B7B61224B3B61204B7B6135E03B691B68FB603B695B68BB603B699B683B6000237B600CE0FB681A68BB681A60BB680433BB60FB68E4
:402700000433FB607B6804337B607A683B689A42EED13B69DB683B6000237B6008E0BB6800221A60BB680433BB607B6804337B607A683B689A42F2D13B6910333B617B69D6
:40274000013B7B617B69002BC6D100F041FCFFF791FFFEE701000000CC30000080B582B000AF174B174A1A60174A174B1B6843F40073136000237B600FE07B68032B04D876
:40278000124A7B6852F8233000E0114B11497A6841F822307B6801337B607B682F2BECD90D4B1B78DAB20D4B1A700D4B094A1A6000F004F90B4B00221A600837BD4680BD6A
:4027C0000CED00E00004FA0514ED00E000260000BD2600000080FF1FBC7600400481FF1F08ED00E00081FF1F80B582B000AF78603960786800213A6800F01BFC0837BD4679
:4028000080BD00BF80B584B000AFF860B9607A60F868B9687A6800F001FC1037BD4680BD80B483B000AF0346FB71FEE780B487B000AF7860396000233B6100237B6127E062
:402840007B699B007A6813441B68BB60BB68FB73BB6823F0FF03BB6014E03B695B003A6813441B781A46BB68134419463B695B003A6813445B780B703B6901333B61FB7B36
:40288000013BFB73FB7B002BE7D17B6901337B617B69002BD4D01C37BD465DF8047B704780B582B000AF294B02221A704FF0402308221A70264B03221A70264B264A127874
:4028C000D2B21A70254B08221A80254B41F251221A800023FB7019237B6014E0FB785B00DAB2204B1B78DBB203F00103DBB21343DBB203F00303FB704FF4F07000F014FBFB
:402900007B68013B7B607B68002B02D0FB78032BE4D17B68002B02D10320FFF781FF124B4FF480721A80104B07221A700F4B00221A700F4B48221A700B4B00221A700D4B05
:4029400002221A700837BD4680BD00BF0043004000420040A1460040080100492242004020420040254200400440004006400040084000400140004080B483B000AF0B4B81
:402980001B78FB710A4AFB7903F00703DBB21370084AFB791B09DBB21370074B44221A700C37BD465DF8047B704700BFCF0100496E5800406F5800407658004080B582B0DC
:4029C00000AF72B63E4A3E4B1B78DBB243F00403DBB213700023FB7113E0FA7913465B0013445B00374A13443B603B681A683B689B889BB210461946FFF7F6FEFB79013338
:402A0000FB71FB79082BE8D92F4B03F190431A462D4B03F19043043310461946FFF706FF2A4A2A4B1B78DBB243F00203DBB21370274A274B1B78DBB243F00203DBB213705F
:402A4000244A244B1B78DBB243F04003DBB21370214A214B1B78DBB243F01003DBB21370194B03F1904308331C4819460822FFF7C9FE154B03F190431033194819460A2220
:402A8000FFF7C0FE174A174B1B78DBB243F00803DBB21370144B01221A70FFF701FF124B81221A70114B01221A70FFF765FF104808490E22FFF7A6FE0837BD4680BD00BF91
:402AC000E846004070300000C00400000350014013500140A0430040C24300402251004060510040224300400048004004000840B043004080B500AF024B40221A7000F007
:402B000023FA80BDFA46004080B500AF282000F02BFA032000F0C8F9052000F025FA032000F0C2F90F2000F01FFA032000F0BCF9012000F019FA022000F0B6F9052000F0AA
:402B400013FA062000F09EF80E2000F09BF82C2000F098F8082000F095F8012000F092F80C2000F08FF8032000F08CF8052000F0FBF980BD80B500AF0C2000F083F8024B97
:402B800001221A7080BD00BF3C81FF1F80B500AF054B1B78002B04D1FFF7B6FF024B01221A70FFF7E7FF80BD3D81FF1F80B582B000AF03460A46FB711346BB71FB79032BEE
:402BC00026D801A252F823F0D92B0000E72B0000F52B0000032C0000BB79803BDBB2184600F050F815E0BB79403BDBB2184600F049F80EE0BB796C3BDBB2184600F042F8C2
:402C000007E0BB792C3BDBB2184600F03BF800E000BF0837BD4680BD80B584B000AF78600123FB737B681B78BB730BE0BB7B184600F00EF8FB7B7A6813441B78BB73FB7B65
:402C40000133FB73BB7B002BF0D11037BD4680BD80B584B000AF0346FB7100F02DF8FB791B09FB73FB7B184600F0E2F8FB7903F00F03FB73FB7B184600F0DAF81037BD46BC
:402C800080BD00BF80B584B000AF0346FB7100F013F8FB791B09FB73FB7B184600F004F9FB7903F00F03FB73FB7B184600F0FCF81037BD4680BD00BF80B582B000AF4FF44B
:402CC000CA737B60554A554B1B78DBB223F07F03DBB21370524B1B78DBB223F00F03FB704F4AFB7843F00F03DBB213704D4B1B78DBB223F00F03FB704A4AFB7813704A4BA3
:402D00001B78DBB223F00F03FB70474AFB781370424A424B1B78DBB223F02003DBB213703E4A3E4B1B78DBB243F04003DBB21370002000F03BF9394A384B1B78DBB243F089
:402D40001003DBB21370012000F030F9374B1B78FB70324A314B1B78DBB223F01003DBB21370002000F022F9FB7803F00803FB702A4A2A4B1B78DBB243F01003DBB21370C2
:402D8000012000F013F9254A244B1B78DBB223F01003DBB21370FB78002B02D10A2000F005F97B68013B7B60FB78002B02D07B68002BBDD1194A194B1B78DBB223F04003F6
:402DC000DBB21370154A154B1B78DBB223F07F03DBB21370124A124B1B78DBB223F00F03DBB213700F4B1B78DBB223F00F03FB700C4AFB7843F00F03DBB213700A4B1B7821
:402E0000DBB223F00F03FB70074AFB7843F00F03DBB213700837BD4680BD00BF205100402251004023510040245100402151004080B582B000AF0346FB711A4A194B1B7879
:402E4000DBB243F02003DBB21370164A154B1B78DBB223F04003DBB21370002000F0A6F8104A104B1B78DBB223F00F03DBB213700C490C4B1B78DAB2FB791343DBB243F00C
:402E80001003DBB20B70012000F090F8054A054B1B78DBB223F01003DBB213700837BD4680BD00BF2051004080B582B000AF0346FB71144A134B1B78DBB223F06003DBB2D0
:402EC0001370104A0F4B1B78DBB223F00F03DBB213700C490B4B1B78DAB2FB791343DBB243F01003DBB20B70012000F05FF8054A044B1B78DBB223F01003DBB2137008373C
:402F0000BD4680BD2051004080B400AF054B1B78DBB203F002035B08DBB21846BD465DF8047B7047615100400230800803D000BF01380046FCD17047EFF3108072B67047E7
:402F400080F31088704700BF80B400AF054A054B1B78DBB243F00103DBB21370BD465DF8047B7047F646004080B582B000AF786008E00C4B1B681846FFF7D6FF7B68A3F589
:402F800000437B607B68B3F5004FF2D8064B1B687A6802FB03F31846FFF7C6FF0837BD4680BD00BF1881FF1F1081FF1F80B582B000AF0346FB80FB88044A127802FB03F3C1
:402FC0001846FFF7B1FF0837BD4680BD1481FF1F0E4B70B51E460E4C0025E41AA410A54204D056F8253098470135F8E700F05CF8084B094C1E46E41AA4100025A54204D054
:4030000056F8253098470135F8E770BDB4300000B4300000B4300000BC30000010B5431E0A44914204D011F8014B03F8014FF8E710BD03460244934202D003F8011BFAE79F
:40304000704700000000000048656C6C6F0000005357312D50362E3120746F20424C000057616974696E6720746F20424C202000005100402000305100403000C051004050
:403080001000F0510040100000000140001000140140000800400140000A004C014000020050014020000000F8B500BFF8BC08BC9E4670473D2600005D270000F8B500BF24
:4030C000F8BC08BC9E46704719260000E03000000881FF1F1800000020000000000000000000000000366E01C05D0000180000000000E02E000000000000000000000000A7
:40310000000000000000000000000000000000000000000000000000000000000000000000000000000000000000000000000000000000000000000000000000000000008F
:40314000000000000000000000000000000000000000000000000000000000000000000000000000000000000000000000000000000000000000000000000000000000004F
:40318000000000000000000000000000000000000000000000000000000000000000000000000000000000000000000000000000000000000000000000000000000000000F
:4031C00000000000000000000000000000000000000000000000000000000000000000000000000000000000000000000000000000000000000000000000000000000000CF
:020000040003F7
:40FFC000DA1126000025000000000B0000000000000000000000000000000000000000000000000000000000000000000000000000000000000000000000000000000000C0
:0200000480007A
:4000000000000000000000000000000000000000000000000000000000000000000000000000000000000000000000000000000000000000000000000000000000000000C0
:400040000000000000000000000000000000000000000000000000000000000000000000000000000000000000000000000000000000000000000000000000000000000080
:400080000000000000000000000000000000000000000000000000000000000000000000000000000000000000000000000000000000000000000000000000000000000040
:4000C0000000000000000000000000000000000000000000000000000000000000000000000000000000000000000000000000000000000000000000000000000000000000
:4001000000000000000000000000000000000000000000000000000000000000000000000000000000000000000000000000000000000000000000000000000000000000BF
:40014000000000000000000000000000000000000000000000000000000000000000000000000000000000000000000000000000000000000000000000000000000000007F
:40018000000000000000000000000000000000000000000000000000000000000000000000000000000000000000000000000000000000000000000000000000000000003F
:4001C00000000000000000000000000000000000000000000000000000000000000000000000000000000000000000000000000000000000000000000000000000000000FF
:4002000000000000000000000000000000000000000000000000000000000000000000000000000000000000000000000000000000000000000000000000000000000000BE
:40024000000000000000000000000000000000000000000000000000000000000000000000000000000000000000000000000000000000000000000000000000000000007E
:40028000000000000000000000000000000000000000000000000000000000000000000000000000000000000000000000000000000000000000000000000000000000003E
:4002C00000000000000000000000000000000000000000000000000000000000000000000000000000000000000000000000000000000000000000000000000000000000FE
:4003000000000000000000000000000000000000000000000000000000000000000000000000000000000000000000000000000000000000000000000000000000000000BD
:40034000000000000000000000000000000000000000000000000000000000000000000000000000000000000000000000000000000000000000000000000000000000007D
:40038000000000000000000000000000000000000000000000000000000000000000000000000000000000000000000000000000000000000000000000000000000000003D
:4003C00000000000000000000000000000000000000000000000000000000000000000000000000000000000000000000000000000000000000000000000000000000000FD
:4004000000000000000000000000000000000000000000000000000000000000000000000000000000000000000000000000000000000000000000000000000000000000BC
:40044000000000000000000000000000000000000000000000000000000000000000000000000000000000000000000000000000000000000000000000000000000000007C
:40048000000000000000000000000000000000000000000000000000000000000000000000000000000000000000000000000000000000000000000000000000000000003C
:4004C0000152004034020000007F7F000000000002000002000000000000000000000000000000000000000000000000000000000000000000000000000000000000000031
:4005000000000000000000000000000000000000000000000000000000000000000000000000000000000000000000000000000000000000000000000000000000000000BB
:40054000000000000000000000000000000000000000000000000000000000000000000000000000000000000000000000000000000000000000000000000000000000007B
:40058000000000000000000000000000000000000000000000000000000000000000000000000000000000000000000000000000000000000000000000000000000000003B
:4005C00000000000000000000000000000000000000000000000000000000000000000000000000000000000000000000000000000000000000000000000000000000000FB
:0200000490006A
:0400000000004005B7
:0200000490105A
:04000000BC90ACAF55
:0200000490303A
:02000000636734
:0200000490402A
:4000000000000000000000000000000000000000000000000000000000000000000000000000000000000000000000000000000000000000000000000000000000000000C0
:400040000000000000000000000000000000000000000000000000000000000000000000000000000000000000000000000000000000000000000000000000000000000080
:400080000000000000000000000000000000000000000000000000000000000000000000000000000000000000000000000000000000000000000000000000000000000040
:4000C0000000000000000000000000000000000000000000000000000000000000000000000000000000000000000000000000000000000000000000000000000000000000
:0200000490501A
:0C00000000012E12306900012E2493D064
:00000001FF