:400000000040002011000000E9030000E903000008B5054B1A6803F53F5302331A6001F095FD00F0E9F900BFFA46004010B5054C237833B9044B13B10448AFF300800123D9
:40004000237010BD68C1FF1F00000000D8280000084B10B51BB108490848AFF300800848036803B910BD074B002BFBD0BDE81040184700BF000000006CC1FF1FD828000048
:40008000C8C0FF1F0000000008B562B602F034FB02F092F8002002F033FB55280ED1002002F042FB002002F071FB002002F07AFB012002F083FB4022024B1A7001F0EEFF90
:4000C000002008BDFA46004008B562B60221002000F0E8FA0122014B1A7008BD84C1FF1F08B500F017FB08BD08B500F093FC08BD2DE9F84381460F4690460026168003EB1E
:4001000083035C00A4B223E0BB1B402B01D8DDB200E04025ADB22A4609EB0601022000F089FB04E0012002F017F9013CA4B2022000F062FB08B9002CF4D1022000F05CFB12
:4001400058B1B8F800302B44A8F800302E44B6B2BE42D9D30020BDE8F8831020BDE8F8832DE9F04180460E46174603EB83035C00A4B2402900D94026214B1B7833B916E0D4
:40018000012002F0E9F8013DADB200E0254600F01DFB08B9002DF3D100F018FBA8B100F01BFBFFF7A1FF0022154B1A700DE000F013FB50B100F00AFB38B1FFF795FF04E06D
:4001C000012002F0C9F8013CA4B2032000F014FB012801D0002CF3D1032000F00DFB012808D132464146032000F084FB38800020BDE8F08100233B801020BDE8F08100BF0D
:4002000084C1FF1FFEE700BFF0B40022174611E050F82760F3B226F0FF0608E001EB420511F812406D78A5550132013BDBB2002BF4D101370B2FEBD9F0BC7047064B1B7856
:40024000DBB203F00701054A11701B09013213704422034B1A707047CF0100496E5800407658004008B50A46002102F028FB08BD08B502F019FB08BD08B502F015FB08BD16
:4002800038B506221E4B1A705222A3F580731A701C4B1B78DBB21C4A13704FF4E1621B4B1A8041F25122023B1A80002419250CE0174B1B7803F0010343EA440404F0030490
:4002C0004FF4F07002F088FA013D0DB1032CEFD115B90320FFF796FF0E4A4FF4807313800723137000230C490B704820023108701370053213700222084B1A7038BD00BFBA
:40030000004300400F010049A1460040224200402542004004400040064000400140004038B572B6264A137843F00403137000240CE0244D630019194A0011462A440846A4
:4003400091882858FFF78EFF0134E4B2062CF0D91C4C04F12C0104F16800FFF755FF1A4A137843F0020313701032137843F0020313700A2204F198011448FFF779FF0A2288
:4003800004F1A4011248FFF773FF082204F1B0011048FFF76DFF104A137843F0080313700E4C61232370FFF76BFF81232370FFF745FF0E220A490B48FFF75EFF38BD00BF92
:4003C000E8460040DC28000003500140C0510040F0510040125100402243004000480040A0430040B043004008B502F031FA03680C2B00D1FEE7FEE708B5104E104D16E07A
:4004000029686B68AC68002204E051F8040B43F8040B0432A242F8D1E868002203E0002143F8041B04328242F9D11035013E002EE6D102F013FAFFF727FEFEE701000000BC
:40044000382B000008B5104A104B1A60104A136843F40073136000230AE0032B03D80D4A52F8231000E00C490C4A42F8231001332F2BF2D90A4B1A780A4B1A70074A0A4B94
:400480001A60FFF74DFF08BD0004FA050CED00E014ED00E000000000E903000000C0FF1FBC760040C0C0FF1F08ED00E0F8B502F09BF90746404A137843F0010313701032BE
:4004C000137843F00103137001263C4B1E700225943B1D7002F5E2521B32137803F07F031370002001F04EFF354C237803F0F9032370344A137803F0DF031370237833438F
:400500002370304601F03EFF282001F03BFF2E4B1A7802F07F021A701A7802F0BF021A7023782B432370284601F02CFF237843F0040323700024254B1C7001331C7038464E
:4005400002F056F90721172001F05CFF2049172001F044FF0721182001F054FF1D49182001F03CFF0721152001F04CFF1A49152001F034FF0721204601F044FF1749204670
:4005800001F02CFF0721304601F03CFF1449304601F024FF0721284601F034FF1149284601F01CFF07210C2001F02CFF0E490C2001F014FFF8BD00BFA54300409D60004010
:4005C0009443004012600040F85100408460004015100000FD0D000011100000710F0000A10F0000D50F00001D10000008B5214B18700023204A1370204A1370204A137059
:40060000204A1370204A1370204A1370204A1370204B4FF400021A604FF080721A604FF400121A6001221A6002221A6004221A6011B1012906D00BE0174A137803F0FE03FA
:4006400013700AE0144A137843F00103137004E0114A137843F00103137003220F4B1A708022203B1A70012002F0B6F804220C4B1A7008BDB1C1FF1FB4C1FF1FD0C1FF1FF7
:40068000D3C1FF1FC8C1FF1FD2C1FF1FD5C1FF1FB0C1FF1F00E100E009600040286000401260004038B504460D46064B1B7823B9FFF7FCFE0122034B1A7029462046FFF709
:4006C00095FF38BD85C1FF1F00230A4A13700A4A13700A4A13700A4A13700A4A13700A4A13700A4A13700322094B1A708022203B1A707047B4C1FF1FD0C1FF1FD3C1FF1FD4
:40070000C8C1FF1FD2C1FF1FD5C1FF1FB0C1FF1F2860004008B502F067F8224A137803F07F0313700A32137803F0FB031370A2F5E3520D3A137803F0FE031370103213783C
:4007400003F0FE031370184B1A7842F080021A701A7842F040021A7002F04AF8134B4FF400021A604FF080721A604FF400121A6001221A6002221A6004221A6001F0BEFCEE
:400780004FF480520A4B1A6000230A4A13700A4A13700A4A13700A4A13700A4A13700A4A137008BD08600040F851004080E100E080E200E0D0C1FF1FD3C1FF1FC8C1FF1FA7
:4007C000D2C1FF1FD5C1FF1F85C1FF1F014B1878704700BFD3C1FF1F064B1B7813F0FF0F05D0044B1878C0B200221A7070470020704700BFD0C1FF1F00EB40008300024A6F
:4008000013445878704700BFD8C1FF1F431EDBB2072B0BD8064B00011A18185C00F00F00537843EA0020023880B2704700207047FC5F0040431EDBB2072B3CD8F0B4074698
:4008400000EB4004A3001C4C2344DB889BB2C3F500739A4208D900EB400293002344DA8892B2C2F5007292B200EB4004A300124C2344DB7843EA1223104D04012E192B5590
:40088000D3B2737039B909E0CE5C3D010C4C665501339BB200E000239A42F5D8420002449300054A134400225A705A79D2B20001044B1A54F0BC7047D8C1FF1FFC5F0040D6
:4008C00078600040FE5F0040431EDBB2072B0BD8420002449300054A134400225A705A79D2B20001024B1A54704700BFD8C1FF1FFE5F004070B5D9B1054614460E46C8B195
:40090000082819D8FFF782FFA04203D22846FFF77DFF0446002305E02901094A525CF25401339BB2A342F7D32846FFF7CDFF04E0002402E0002400E00024204670BD00BF01
:400940007860004010B4FF2400230EE0094AD25C02EB42029100084A11448A7AD2B2824201D11C4602230133DBB2012BEED9204610BC7047A0C1FF1FD8C1FF1F10B5204CD4
:400980002079FFF7DFFF237813F0800F0ED06378DBB2212B2FD11B4B07221A80C0EBC000194A1044586000F097FA10BD144B5B78DBB2202B02D0222B10D01EE0114A07232E
:4009C0001380C0EBC00310490B4453600F4A135C43F00103135400F0A7FA10BD084B9B780B4A22F81030094A135C43F00203135400F030F910BD002010BD002010BD00BFE2
:400A000000600040BCC1FF1FCCC0FF1F98C1FF1FACC1FF1F10B500241F4B1C701F4B1C705C700AE01E4B185DC0B2431EDBB2072B01D8FFF749FF0134E4B2012CF2D9194B96
:400A40001B7813F0FF0F1AD0154B1B7813F0FF0F17D0154B1B7813F0FF0F14D0114B1B78DBB2082B11D80E4B1B78DBB2082B0ED80D4B1B78DBB2082B0BD8002010BD01204F
:400A800010BD012010BD012010BD012010BD012010BD012010BD00BF86C1FF1F98C1FF1FA4C1FF1F9CC1FF1FA0C1FF1FC37803F0030390F9020000280FDA032B06D002F0E5
:400AC00001030B48C15442F001020EE0C2F380030848C15442F0040207E0032B05D0C2F340030548C15442F002021046704700BF9CC1FF1FA0C1FF1FA4C1FF1F1D4B1978D6
:400B00001D4A13889BB20B449BB2138000220FE01A494B681B78DBB2194883544B6801334B600132D2B20B889BB2013B9BB20B80124B1B889BB20BB1072AE9D90D4B1B7894
:400B4000DBB2082B00D05AB10E490B7883F080030B700F210C4B197002210C4B197004E0022309490B7009490B70094B1A70014B1A707047B0C1FF1FB2C1FF1FBCC1FF1FB3
:400B80000060004046C2FF1FD1C1FF1FB4C1FF1FD4C1FF1F0222074B1A708022064B1A700F22064B1A700023054A1370054A137001207047B4C1FF1F46C2FF1FD1C1FF1FE8
:400BC000B0C1FF1FD4C1FF1F08B5FFF797FF08BD10B4194B197801F00F010239C9B2174A13889BB20B449BB21380002011E0144A5468144B1B5CDBB22370536801335360FA
:400C00000130C0B20139C9B213889BB2013B9BB213800B4B1B889BB20BB10029E7D10A4B19700A4A137883F0800313700B22084B1A7010BC704700BF29600040B2C1FF1F99
:400C4000BCC1FF1F00600040D4C1FF1F46C2FF1FD1C1FF1F0623064A1370064A13708022054B1A700022054B1A700120704700BFB4C1FF1FD1C1FF1F46C2FF1FD4C1FF1FB6
:400C8000064B9B6843B1054B9A6810709A6804490988518000229A60704700BFBCC1FF1FB2C1FF1F08B5134B1A78D2B21A701B78DBB213F0800F02D00F4A137008BD0220A9
:400CC000FFF7DEFF0D4B1B7803F06003202B05D0402B06D043B900F091FC06E001F08CFD03E000F035FE00E0002010B90322024B1A7008BD28600040D1C1FF1F00600040FE
:400D000008B5094B1978094A13889BB20B449BB213800022064B1A700120FFF7B1FF0322044B1A7008BD00BFB0C1FF1FB2C1FF1FB4C1FF1FD1C1FF1F08B50B4B1B78DBB2CB
:400D4000042B06D0062B07D0022B0BD1FFF7D8FF08BDFFF73DFF08BD0320FFF791FF0322024B1A7008BD00BFB4C1FF1FD1C1FF1F08B50022044B1A700120FFF781FF0322F4
:400D8000024B1A7008BD00BFB4C1FF1FD1C1FF1F08B50B4B1B7813F0FF0F07D0084A137843F0800307490B70002313700022064B1A700120FFF764FF0322044B1A7008BDC9
:400DC000D2C1FF1F08600040B4C1FF1FD1C1FF1F08B5094B1B78DBB2042B06D0062B07D0022B07D1FFF7F0FE08BDFFF7C1FF08BDFFF7CEFF08BD00BFB4C1FF1F08B5284BE6
:400E00001B78DBB213F0100F48D013F0800F0CD003F00F03012B16D1FFF744FF214B1B7813F0800F11D1012312E013F0400F03D0FFF7CEFF01230BE013F0200F07D0FFF71A
:400E40007BFF012304E0002302E0002300E0002323B3134B1B7813F0800F1FD1124B1B78124A12781343124A13701278D2B2934214D10C4B1B78DBB2094A127812F0800FC4
:400E800007D1084B1B78DBB2054A1370137803F00F03044A1278D2B29342EAD108BD00BF28600040D1C1FF1F46C2FF1FD4C1FF1F296000400022064B1A80064B9B682BB1BE
:400EC000044A916800230B7092685380704700BFB2C1FF1FBCC1FF1F08B50F4B1B889BB213B9FFF757FE15E002220C4B1A7000220B4B1A70FFF7DEFF0A4AD179937943EADA
:400F00000123054A128892B2934201D2024A1380FFF7F4FD012008BDBCC1FF1FB4C1FF1F46C2FF1F0060004008B504220B4B1A7080220B4B1A70FFF7BDFF0A4AD179937977
:400F400043EA0123084A128892B2934201D2064A13800B22054B1A70012008BDB4C1FF1F46C2FF1F00600040BCC1FF1FD1C1FF1F0122094B1A700F3B9B7C084B1B7B03F096
:400F80000303934204D0054AD37B83F08003D3730122024B5A7370470B600040D8C1FF1F02220A4B1A700F3B93F82230084B1B7E03F00303012B04D0054AD37E83F08003AE
:400FC000D3760122024B5A76704700BF0B600040D8C1FF1F04220C4B1A700F3B93F832300A4B93F8243003F00303012B06D0074A92F8273083F0800382F827300122034BB9
:4010000083F82520704700BF0B600040D8C1FF1F704700BF08B5FFF757FB08BD08B501F06DF808BD70B588B0054603AC174E0FCE0FC43368237035B322232B7003236B709D
:4010400001A801F0F7F9002402231AE008AA224412F81C2C08A901EB121111F8141CE954581C00212954981C02F00F0208AE324412F8142C2A54DA1CA9540134E4B2043351
:40108000DBB2212BE2D908B070BD00BF9429000010B401233EE019461A010C242148845403EB4300820020480244527912F0FF0F13D003EB430082001B480244127912F042
:4010C000800F04D01801194A024494700AE01801164A02440820907004E01801134A0244802090704800084482000F480244D488E4B208010B4901448C71D088C0F3072040
:40110000C871D088C0B20871D288C2F307224A710133DBB2082BBED9FF22054B1A7010BC704700BF70600040D8C1FF1FFC5F00400A600040074B1A78074B03EBC2035B68C0
:401140001A7C824204D9C000103018444068704700207047B1C1FF1FB0290000F8B5404B1B7813F0FF0F79D03D4B18780138C0B2FFF7E0FF047AC2683A4B1878C0B200232E
:401180006AE01178884264D13749095CC9B25578A9425ED1917801F07F01D67806F00306DFF8C8E04D000D44AF000EEB07054FF0000C85F803C092F802C085F804C092F8DC
:4011C00003C00EF807C097882F8192F90250002D0DDA012E01D1072700E00D274E000E44B500224E35446F7101266E700CE0012E01D1052700E009274E000E44B5001B4E52
:4012000035446F7100266E70DFF868E00F010EEB07060125B57001FA05F529448D00134929440D89C5F307250EF807500D89EDB27570CE88F6B20E4D3D44AE71CE88C6F320
:401240000726EE71CE88F6B22E71C988C1F30721697108320133DBB2A34292D3F8BD00BFD3C1FF1FC8C1FF1F44C2FF1FD8C1FF1F70600040FC5F0040034B1A78034B03EB8A
:40128000C2035868704700BFB1C1FF1FB029000008B5084B18780138C0B2FFF74BFF30B142681279023200EBC203586808BD002008BD00BFD3C1FF1F2DE9F047002310E00A
:4012C000724D5900CA189600AC190022AA55A270E2702281A272627034462C4462710133DBB2082BECD940B90AE000226849CA546849CA540133DBB200E00023012BF4D9B5
:40130000654B1B7813F0FF0F00F0BD80624B18780138C0B2FFF70EFF80464368DB7913F0400F05D05D4A137843F00103137004E05A4A137803F0FE03137098F808704FF098
:40134000000A01266FE0D8F80C50002467E0AB7803F07F039E425FD1314606EB460083004A4803441B899BB2A888834206D206EB460E4FEA8E03454A134418812B78444829
:40138000C35CDBB26878834246D195F802C0DFF8FCE04B000B4498000EEB000383F804C0EB780EF80030EB7803F0030395F90200002813DA012B02D14FF0070901E04FF04E
:4013C0000D09DFF8C8E04B0003EB010C4FEA8C00704480F805900121417012E0012B02D14FF0050901E04FF00909DFF8A0E04B0003EB010C4FEA8C00704480F80590002105
:401400004170AB790A2B01D0022B05D1524631462846FFF74BFB824608350134E4B2BC4295D30136F6B2082E8DD9D8F80C0000220CE0837803F07F0310F8084B03EB43037B
:401440009900124B19448C720132D2B2BA42F0D3FFF71EFF124B1860002301210FE00B4D4A00501884002C44E380228992B213449BB203F0010213449BB20131C9B208291D
:40148000EDD9FFF705FEBDE8F08700BFD8C1FF1F44C2FF1FB8C1FF1FD3C1FF1FD5C1FF1FCCC1FF1F08B5154B1B7903F07F035A1ED2B2072A20D8590019448A0010490A44DD
:4014C000917841F0010191700021D170517841F002015170127912F0800F05D01B01094A1A448D23937004E01B01064A1A4489239370FFF7AFFB08BD002008BD00600040D7
:40150000D8C1FF1FFC5F0040264B1B7903F07F035A1ED2B2072A43D810B5590019448A0021490A44917801F0FE0191700021D17019017F241D484454517801F0FD0151704B
:40154000127912F0800F14D003EB43018A0016490A445278D2B2012A05D11B0102461A440C23937019E01B01104A1A440D23937013E003EB43018A000B490A445278D2B220
:40158000012A05D11B01094A1A440823937004E01B01064A1A4409239370FFF75BFB10BD0020704700600040D8C1FF1FFC5F004010B50E4B1C79E4B20D4B18780138C0B294
:4015C000FFF7B8FD43681B799C4201D9022C0AD8084A135DDBB208490B55044B9B78DBB21355012010BD002010BD00BF00600040D3C1FF1F44C2FF1FB8C1FF1F10B59C4B8F
:401600001B78DBB200219B4A118013F0800F00F0AD80974A5278D2B20A2A00F27481DFE812F06900720172017201720172010B007201920072019A008D4BDB78DBB2012B88
:4016400009D1FFF719FE42688A4B5A6012221A80FFF742FC10BD864BDB78DBB2022B13D1834B9878FFF766FD002800F04E814268804B5A605A68D1785A68927842EA012246
:401680001A80FFF729FC10BD794BDB78DBB2032B05D02CE00A7811440133DBB201E000237549734A9278D2B2934203D20A7812F0FF0FEFD16E4B9B7813F0FF0F0BD06C4BE5
:4016C0009B78DBB26D4A127C934204D16C4C2046FFF7A8FC21460B7813F0FF0F00F017810B78644A13805160FFF7F6FB10BD01F083F810BD13F0030317D0022B40F00981E7
:401700005C490B805A4B1B7903F07F0303EB43039A005C4B1A449278D2B25B4B1A7000225A704B60FFF7D8FB10BD524902230B80564B1A78D2B2544B1A7000225A704B604B
:40174000FFF7CAFB10BD4B4B01221A80504A5A60FFF7C2FB10BD474A01231380444B1B794C490B445360FFF7B7FB10BD404A5278013A0A2A00F2CF80DFE812F04C00CD005D
:401780009800CD000B00CD00CD00CD001300CD003000374B9B78DBB23F4A1370FFF75AFA10BD334B9B7803F0FF041BB1601EC0B2FFF7C0FC04B110B9002C40F0AE80344B81
:4017C0001B78DBB29C4206D0314B1C700120334B1870FFF771FDFFF73DFA10BDFFF7E8FE002800F09C80224A1379DBB21279D2B22B490A702B4AD25CD2B22649CB5CDBB2AC
:401800009A4204D00122254B1A70FFF7A7FCFFF721FA10BD03F00303012B17D04BB1022B7FD1134B9B7813F0FF0F7CD1FFF76CFE10BD0F4B9B78DBB2012B76D1134A13788E
:4018400003F0FD031370FFF705FA10BD084B1B79DBB2012B6BD8064B98781B79DBB21249CA5C22EA0002CA54FFF7F4F910BD00BF00600040BCC1FF1F182A0000002B000007
:4018800050C2FF1FD8C1FF1F88C1FF1FD5C1FF1FD3C1FF1F44C2FF1FD2C1FF1FD0C1FF1FC8C1FF1FB8C1FF1F48C2FF1F03F00303012B17D04BB1022B3BD1224B9B7813F0C6
:4018C000FF0F38D1FFF7EEFD10BD1E4B9B78DBB2012B32D11C4A137843F002031370FFF7B9F910BD174B1B79DBB2012B27D8154B98781B79DBB21549CA5C22EA0002CA54DB
:40190000FFF7A8F910BD002010BD002010BD002010BD002010BD002010BD002010BD002010BD002010BD002010BD002010BD002010BD002010BD002010BD002010BD00202D
:4019400010BD00BF00600040D5C1FF1F48C2FF1F044B1B7813F0800F01D0024B5B780020704700BF00600040002306E0421812F8012C13449BB2013989B20029F6D1584287
:4019800080B27047004700BF08B58022024B1A7000F0DAFC08BD00BFFA4600402DE9F04182B00C46164602AF27F8022D01230B7048701546A270130ACB7002F104081FFADE
:4019C00088F12046FFF7D0FF04F80800731DC0F30720E054063517236355F11D96233A4689B22046FEF784FB02B0BDE8F08100BF70B505460E461446084B984203D010B1B2
:401A0000002000F09FFC002004E0013CAB19E35C1844C0B2002CF8D170BD00BF0080004008B501380B2873D8DFE800F0060F18212A33453C4E576069C1EB01610B0203F570
:401A4000FF3303F5E073012167E0C1EB01610B0203F5FF3303F2C11304215EE0C1EB01610B0203F5FF3303F2C513022155E0C1EB01610B0203F5FF3303F2C91304214CE03E
:401A8000C1EB01610B0203F5FF3303F5E873012143E0C1EB01610B0203F5FF3303F2D11301213AE0C1EB01610B0203F5FF3303F5EB73022131E0C1EB01610B0203F5FF33DB
:401AC00003F5E973022128E0C1EB01610B0203F5FF3303F5EA7302211FE0C1EB01610B0203F5FF3303F5EC73042116E0C1EB01610B0203F5FF3303F5EE7301210DE0C1EB9B
:401B000001610B0203F5FF3303F5F073042104E0002000F017FC02210023012902D11878C0B200E00020022903D11A78587842EA0020042909D11A78587842EA00229878CC
:401B400042EA0042D87842EA006008BD08B50A4B1B7803F0C003802B0CD10021064B19700220FFF75DFF28B100210220FFF758FFFFF708FF08BD00BFFA460040F8B50646A1
:401B800001460320FFF74CFF0130070231460420FFF746FF074431460320FFF741FF013000020024254608E003785A1ED2B2FD2A00D801252344DCB20130B842F4D33146AB
:401BC0000320FFF72DFF01300002C0080F4B9F4201D0FF0808E04FF4804705E000F190431B782344DCB20130B842F7D36442E4B231460120FFF714FF844202D11DB9062008
:401C0000F8BD0620F8BD0020F8BD00BFC0FF01002DE9F04FADF51F7D054600F0CDFA10B1002000F08FFBFEF74FFA62B64FF000094F460A24C8460DB9FF2300E02B460DF229
:401C400076224FF4967152A8FEF78AFA0DB1013CE4B20CB10028EED1002840F01582BDF87632062B26D99DF84821012A24D19DF84B819DF84A2142EA0828414608F10702FA
:401C80009A421BD8B2F5967F1AD84A1D52AB9E5C0A1D9A5C42EA062606315B5C172B11D108F1040189B252A8FFF75EFE86420BD100260AE0042608E0042606E0032604E05A
:401CC000032602E0042600E00826002E40F088819DF84CA19DF84921A2F131030A2B00F25781DFE813F00B001C0055014400B2005501B800CD004400DF004701002F00F051
:401D00007181B8F1000F40F070810020FFF736FFB0FA80F040098DF84C010122ADE1002F00F06681B8F1010F40F06581BAF1010F00F26481C04B1B681B68C3F30742924559
:401D400002D1C3F3072305E0924501D9002301E04FF480738DF84C311B0A8DF84D31FF238DF84E3100238DF84F31042285E1342A15D1002F00F04581B8F1030F40F0448103
:401D8000AAF14003DBB23F2B02D84FF0100901E04FF490794A46002107A800F090FD002F00F03581B8F1020F40F23481A8F103020DF24F1107AB03EB090000F075FDC1448F
:401DC0001FFA89F9A9F103091FFA89F9AAF14003DBB23F2B05D800F075FA80234FF0100803E04FF480734FF49078C84540F015819DF84E919DF84D2142EA09294B4500D888
:401E00000A26002E40F00E81BAF13F0F0FD809EB0A2292B2884B1B681968C1F30F2311F0FF0F01D001339BB2934200F2FD80434607AA4946504600F0C9F900B10A2600F0FD
:401E4000ABFA4FF000094A4617E1002F40F01A810426002211E1002F00F0EB8008EB0903B3F5967F00F2F280424653A907AB03EB090000F019FDC1441FFA89F90022FCE03A
:401E8000B8F1000F40F0E58004AB6C4A92E8030083E8030053AA82E803004FF0000901270822EAE0002F00F0D780B8F1030F40F0D6809DF84EB19DF84D3143EA0B2BAAF15B
:401EC0004003DBB23F2B10D84FEA0B11BBF17F0F01D8334600E00A23002B40F0C38010225748FFF785FD019011E00BEB0A210902BBF1FF0F01D8334600E00A23002B40F0C9
:401F0000B4804FF480720020FFF772FD0190BAF13F0F0FD80AF510320BEB02225201002306E0995C01980144C9B2019101339BB21F2BF6D9BAF1010F16D1BBF1FF0F13D1D1
:401F400000210520FFF76CFDC0B2019BC0EB030A5FFA8AFA00210620FFF762FDC0B2C0EB0A0A5FFA8AF30193019B5B428DF84C31012282E00020FFF701FE10B98022314B26
:401F80001A70FEF7ADF800F0DFF90426002274E02D4B1B68002B6BD0002F6CD08DF80820ADF80A8053AA0392002104910591069204A902A89847BDF81420B2F5937F03D3C9
:401FC000069953AB994205D0069B03B92AB99DF8106052E00E2600224FE00E2600224CE000224AE00426002247E00426002244E00426002241E0042600223EE004260022C4
:402000003BE00426002238E00426002235E00426002232E0042600222FE04FF0000903264A462AE0002228E04FF000090A264A4623E00426002220E0E8C0FF1FA8290000E4
:4020400000800040FA4600408CC1FF1F0326002213E00426002210E0042600220DE0042600220AE01E46002207E01E46002204E00526002201E00526002252A93046FFF713
:402080008DFC01E04FF00009002D3FF4D4AD002F7FF4D1AD0DF51F7DBDE8F08F38B50020FFF76CFD08B1062400E00024114D2B681A6800210846FFF79BFC6B681B78C01AA9
:4020C000C0B24042C0B2834202D12B681B6813B9002000F037F9084B1B7803F0C003402B00D024B10020044B1870FFF791FDFFF74BFC38BDE8C0FF1FFA460040024B187844
:40210000C0F38010704700BF8F45004010B500F0C9F900F095FAD0B900F0D4FA0446072812D102E0012000F02DF90A4B1B7813F0020FF7D0074B1B7813F0020F04D0054B40
:402140001B789B0800D1002400F0A0FA00E00424204610BD2247004010B500F0A3F900F06FFA10BB012000F04DFA072818D102210F4800F0A9F902280AD102E0012000F0DD
:4021800001F90C4B1B7813F0020FF7D0002409E0084B1B7813F0020FE9D04FF0FF3401E04FF0FF3400F072FA00E00424204610BD4CC2FF1F2247004008B5FFF7A7FF0346CD
:4021C00010B9FFF7C9FF0346184608BD2DE9F041C41EE4B23C2C01D9002500E0012510F0800F00D00125412800D901253F2803D8B1F5807F06D808E0802900D90125102B43
:4022000002D102E0012500E0012502B90125002D50D1984616460F46044600F011FA002847D1434632463946204600F067F9064607283AD102E0012000F0A4F81F4B1B7832
:4022400013F0020FF7D01D4B1B7813F0020F06D01A4B1B789B0805D04FF0FF3603E04FF0FF3600E02E4606BB154A537812783946204600F083F9072804D0064615E00120E4
:4022800000F080F80D4B1B7813F0020FF7D00B4B1B7813F0020F06D0084B1B789B0804D04FF0FF3601E04FF0FF3600F0EFF9354600E004252846BDE8F08100BF22470040AF
:4022C0004CC2FF1F08B500F08FFA0F4A137843F0080313701032137843F008031370C8220A4B1A700A4A137843F0100313701032137843F010031370064B1B7813F0200F2C
:40230000FAD000F075FA08BDA043004001470040AC43004000470040054A137843F001031370034B1B7813F0020FFAD0704700BF02470040024A137803F0FE0313707047F7
:402340000247004001BE7047024A137843F0010313707047F646004010B5044605E0084B186800F039FAA4F50044B4F5004FF6D8034B586800FB04F000F02EFA10BD00BF6C
:40238000F0C0FF1F08B5034B1B7A00FB03F000F023FA08BDF0C0FF1F08B500F025FA00BF00BF00BF00BF00BF00BF00BF00BF00BF00BF00BF00BF00BF00BF00BF00BF064A15
:4023C00013889BB243F0040313801388BFF36F8F00F00EFA08BD00BF0048004070B504460E46074B1D681F2802D90020FFF7AAFF04F01F04103455F8240045F8246070BDA4
:4024000008ED00E038B504460D46072902D90020FFF798FF1F2C02D90020FFF793FF04F01F0000F1604000F564406D01EDB2057038BD00BF134B1B78DBB20360124A12787D
:4024400043EA02230360114A127843EA024303600F4A127843EA026303600E4B1B78DBB243600D4A127843EA022343600B4A127843EA024343600A4A127843EA026343601C
:40248000704700BF0301004904010049EC460040020100490101004900010049050100490601004908B500F09FF9064A137843F0080313701032137843F00803137000F0BA
:4024C00097F908BDA043004070B506460D4600240CE00120FFF756FF064B1B7813F0010FF7D0054B1B7833550134E4B2AC42F3D3204670BD224700402047004070B41D4C0C
:40250000247814F0020F2CD01B4CB6252570D5252570022525700234247814F0020F22D1154C2070002404E0165D134D2E700134A4B29C42F8D3B3F5807F16D13F2816D871
:4025400000F5103001EB00214801002305E01A5CD2B209490A7001339BB21F2BF7D9072006E0042004E0092002E0072000E0072070BC7047224700402047004030B4104CA6
:40258000247814F0020F15D00E4CB6252570D8252570052525700234247814F0020F0BD1084C2070080A2070C9B2217022702370072002E0042000E0092030BC704700BF58
:4025C00022470040204700400C4B1B7813F0020F10D00B4BB6221A70DB221A7008221A7002331B7813F0020F06D1054B187019700720704704207047092070472247004064
:40260000204700400C4B1B7813F0020F0FD00B4BB6221A70E1221A700E221A7002331B7813F0020F05D1054B187007207047042070470920704700BF2247004020470040E5
:4026400010B500F0D1F80F4B1B78A3B901220D4B1A700D4B1B6813F0010F0ED00A4A136823F00103136000BF00BF00BF0122054B5A60002402E0042400E0002400F0B8F82D
:40268000204610BD90C1FF1F0400084008B500F0ABF80A4B00221A705B68012B0AD1084A136843F00103136000BF00BF00BF0022024B5A6000F09CF808BD00BF90C1FF1FBD
:4026C00004000840074B1B7813F0020F08D0064BB6221A70E0221A700D221A700720704704207047224700402047004008B5FFF763FDFFF7E7FD08BD08B5FFF7F7FF08BD9C
:4027000038B5044600F070F80546FFF705FE04F1804000F500400478E4B2FFF70BFE284600F066F8204638BD10B50446FFF7BAFE012C23D8FFF784FF10BB21464020FFF7CE
:4027400043FF072810D1104B1B7813F0020FFAD00D4B1B7813F0020F09D00B4B1B789B0808D04FF0FF3406E04FF0FF3403E04FF0FF3400E00024FFF789FF02E0012400E077
:402780000424204610BD00BF22470040044A137803F0BF03800100F04000184310707047C0510040044A137803F0EF03000100F01000184310707047C0510040044A1378B9
:4027C00003F0DF03400100F02000184310707047C0510040000000000230800803D000BF01380046FCD17047EFF3108072B6704780F31088704700BF08B5124B1B7803F00F
:402800000303012B02D0022B04D00FE00D4B1B79DBB20CE00B4B1B7903F07F0303EB43039A00094B1A44937ADBB200E00023074A1268D35C022B02D1FEF7A0F808BD002057
:4028400008BD00BF00600040D8C1FF1FCCC1FF1F014B1868704700BF60C1FF1F0E4B70B51E460E4C0025E41AA410A54204D056F8253098470135F8E700F04CF9084B094C0F
:402880001E46E41AA4100025A54204D056F8253098470135F8E770BD202B0000202B0000202B0000282B000010B5431E0A44914204D011F8014B03F8014FF8E710BD03467A
:4028C0000244934202D003F8011BFAE770470000002C0000C70000000000000000510040100020510040500000000140001000140140000800400140000A004C01400002DF
:4029000000500140200000007E027C40EA02EE0AEA02EE0A33813640CC709F01A640A7809F01A640A7809F01A640A78008080B040F40C20EAE40AF81EA40EE50AC08AF440A
:40294000002A000001450040015200400217014002190140034001400341014003420140034301400447014004480140024C014001510140700000707000000000000000BD
:402980004000000000000000C0000000000B0B000000000030313233343536373839414243444546000000006990152E0032010101000000B829000001000000002B0000E1
:4029C000000000000000000001000000D029000001000000BC2A000003000000FC2900000000000000000000000000000000000000000000F8290000020A0000000081031D
:402A0000080002000100820240000A000100030240000A0002030000040309042C0343007900700072006500730073002000530065006D00690063006F006E006400750075
:402A4000630074006F0072001403550053004200550041005200540042004C003803430044004300200043006F006D006D0075006E00690063006100740069006F006E0058
:402A8000200049006E007400650072006600610063006500260343004400430020004400610074006100200049006E007400650072006600610063006500000009024300D9
:402AC0000201018032090400000102020103052400100104240202052406000105240100010705810308000A09040100020A00000407058202400000070503024000000068
:402B00001201000202000008B40433F20100010280014300F8B500BFF8BC08BC9E4670475100000045040000F8B500BFF8BC08BC9E4670472D000000482B0000C8C0FF1FF3
:402B4000A0000000100100000000000000C2010000000800C201000000080000A12000000000020000000000D0280000D42800000000E02EC05D00001800000000366E016F
:402B80000000000000000000000000000000000000000000000000000000000000000000122B000000000000000000000000000000000000000000000000000000000000D8
:402BC000000000000000000000000000000000000000000000000000000000000000000000C1FF1F00000000000000000000000000000000000000000000000000000000F6
:402C000000400020112C00001D5B00001D5B000080B500AF02F08CFF10B5054C237833B9044B13B10448AFF300800123237010BD70C1FF1F0000000088BB0000084B10B55A
:402C40001BB108490848AFF300800848036803B910BD074B002BFBD0BDE81040184700BF0000000074C1FF1F88BB0000C8C0FF1F0000000080B582B000AF0346FB710F4BC5
:402C80001B78FA799A4215D0002005F0B9FB002005F09CFB4FF47A7003F0ACFDFB79184605F094FBFB79184605F0AAFB034AFB79137000E000BF0837BD4680BDCCC0FF1F41
:402CC00080B582B000AF03460A46FB711346BB710021512007F0CCFFFB79184608F0CAF8BB79184608F0C6F808F08CF800BF0837BD4680BD80B582B000AF03463960FB71EE
:402D00001346BB710021512007F0B2FFFB79184608F0B0F806E03B685A1C3A601B78184608F0A8F8BB795A1EBA71002BF3D108F069F800BF0837BD4680BD00BF90B587B0A8
:402D400000AFF860B9607A600021512007F090FFFB68DBB2184608F08DF80121512007F0F3FF00237B610AE0BC68631CBB60012008F0D0F8034623707B6901337B617B68BF
:402D80005A1E7B699A42EFDCBC68631CBB60002008F0C0F80346237008F034F800BF1C37BD4690BD80B400AF0D4B712283F846200B4B422283F84720094B0A2283F8482072
:402DC000074B052283F84320054B002283F84420034B072283F8452000BFBD4680BC704734C2FF1F80B582B000AF00237B600BE0094A7B681344493300221A70012003F043
:402E00001BFD7B6801337B607B68132BF0DD00BF0837BD4680BD00BF34C2FF1F80B58CB000AF03F07DFA574B0022DA71554B1A221A72544B1B7ADB08DBB23B62514B1B7A16
:402E40001A463B6ADB00D31AFB613B6AC3F112037B62FB69002B02DD7B6A013B7B620023FB620FE03A1DFB6A134400221A703A1DFB6A13441B781946434801F03FFBFB6A24
:402E80000133FB62FA6A7B6A9A42EBDB0122FB6902FA03F3DBB2BB743A4B93F849305AB2FB69C3F10803FF2101FA03F35BB213405BB2FB76FA7EFB69C3F1080342FA03F3ED
:402EC000FB763A1DFB6A13441A78FB7E1343D9B23A1DFB6A13440A461A703A1DFB6A13441B781946284801F009FBFB6A0133FB620123BB6235E0BB6A013B224A134493F810
:402F000049301A46FB6902FA03F3D9B23A1DFB6A13440A461A701B4ABB6A134449331B781A46FB69C3F1080342FA03F3FB763A1DFB6A13441A78FB7E1343D9B23A1DFB6A19
:402F400013440A461A703A1DFB6A13441B7819460D4801F0D3FAFB6A0133FB62BB6A0133BB627B6AC3F11202BB6A9A42C3DC03F0C5F93A1DFB6A134400221A7000BF3037B9
:402F8000BD4680BD34C2FF1F10DBFF1F80B500AF04F086F804F022FD01F0B6FB04F04EFA01214FF41C7004F063FA04F053FF01F005FE044804F046FB04F0DAFB01F008FDB1
:402FC00000BF80BDA94B000080B584B000AFC94B9B78FB72C74BDA78C74B1A70C54BDB791B02C44A127A13447B60C34B1B78342B0BD0342B04DC022B07D0052B0FD021E0BA
:40300000662B02D0692B0AD01CE004F05DFB0346002B01D1FFF7BAFF01F0DEFE11E3B74B1B78002B0DD00521B54802F0B3F802F0FFFEB24B00221A70B24B00221A6002F041
:40304000EBFE00BFFB7A082B00F2FB8201A252F823F000BF0D310000BF310000D3310000AF330000FB350000E3300000FB30000087300000793000009E4B93F849301846A5
:40308000FFF7F8FDDDE29B4B93F8493003F00103002B0CBF01230023DBB2184607F092FF944B93F8493003F00203002B0CBF01230023DBB2184607F0A3FF8E4B93F849305C
:4030C00003F00403002B0CBF01230023DBB2184607F0B4FF874B01221A70864B00229A70AFE2082288490020FFF728FE814B01221A70804B00229A70A3E2082282490020B6
:40310000FFF7F8FD7B4B00229A709AE27A4B1B78662B0DD0662B04DC022B09D0342B07D08FE2692B34D06A2B0CD0682B20D088E204F0CAFA0346002B01D1FFF727FF01F051
:403140004BFE7EE2012004F0F3FB0023FB6008E0684B5B7A0121184600F032FDFB680133FB60FB68092BF3DD002004F0E1FB25E0012004F0DDFB0C2001F09CF8012001F018
:4031800007F8002004F0D4FB012003F035F815E0012004F0CDFB0023FB6008E0554B5B7A0121184602F01AF9FB680133FB60FB68092BF3DD002004F0BBFB00BF41E2002095
:4031C00008F010F80021552007F064FF03F002FB37E2494B1B78023B362B00F2E68001A252F823F0AB330000AB3300000D33000047330000C1320000AB330000AB33000094
:40320000AB330000AB330000AB330000AB330000AB330000AB330000AB330000AB330000AB330000AB330000AB330000AB330000AB330000AB330000AB330000AB330000AE
:40324000AB330000AB330000AB330000AB330000AB330000AB330000AB330000AB330000AB330000AB330000AB330000AB330000AB330000AB330000AB330000AB3300006E
:40328000AB330000AB330000AB330000AB330000AB330000AB330000AB330000AB330000AB330000AB330000AB330000793300007933000079330000793300007933000028
:4032C000012004F035FB05E000F0F4F9094B9B78022B09D1074B5B7A0021184600F070FC0346002BF0D000E000BF002004F020FB5CE000BF34C2FF1F1CC2FF1FF8F5FF1F3F
:40330000D0C0FF1FFCF5FF1F7DC2FF1F012004F00FFBFFF767FD0C2000F0CCFF04E000F0C9F9FB7A022B06D1002000F031FF0346002BF4D000E000BF002004F0F9FA0120C5
:4033400002F05AFF32E0012004F0F2FA05E000F0B1F9BD4B9B78022B09D1BB4B5B7A0021184602F03BF80346002BF0D000E000BF002004F0DDFA19E0B44B1B68002B08D192
:40338000B34B1B68012B04D1B14B00221A6001F0C1FEB04B1B78002B04D101F0C5FDAD4B01221A7000F024FA00E000BF49E1AA4B1B78002B02D1A84B06221A70A24B5B7A99
:4033C000002B02D1A04B1A225A72A34B1B78033B672B00F2108101A252F823F0B93500007D3500009D350000D7350000F7350000F7350000F7350000F7350000F7350000AE
:40340000F7350000F7350000F7350000F7350000F7350000F7350000F7350000F7350000F7350000F7350000F7350000F7350000F7350000F7350000F7350000F7350000CC
:40344000F7350000F7350000F7350000F7350000F7350000F7350000F7350000F7350000F7350000F7350000F7350000F7350000F7350000F7350000F7350000F73500008C
:40348000F7350000F7350000F7350000F7350000F7350000F7350000F7350000F7350000F7350000B93500007D3500009D350000D7350000F7350000F7350000F73500007E
:4034C000F7350000F7350000F7350000F7350000F7350000F7350000F7350000F7350000F7350000F7350000F7350000F7350000F7350000F7350000F7350000F73500000C
:40350000F7350000F7350000F7350000F7350000F7350000F7350000F7350000F7350000F7350000F7350000F7350000F7350000F7350000F7350000F7350000F7350000CB
:40354000F7350000F7350000F7350000F7350000F7350000F7350000F7350000F7350000F7350000F7350000F7350000B93500007D3500009D350000D7350000012004F0D4
:4035800013FA0C2000F096FE344800F0D3FD2E4B00229A70002004F007FA2DE0012004F003FA79682D4801F0F5FD274B00229A70002004F0F9F91FE0012004F0F5F9012039
:4035C00002F01AFEFFF72AFC1F4B00229A70002004F0EAF910E0002004F0E6F91A4B5B7A19461E4800F09EFA174B00229A70012004F0DAF900E000BF23E0174B1B78343B32
:40360000042B1CD8124B01221A600F4B00221A70104B1B78002B04D101F086FC0D4B01221A7079680D4801F08FFD0D4B00221A600C4B00221A70044B02229A7000E000BF3B
:4036400000BF1037BD4680BD34C2FF1F0CDBFF1F38DBFF1F08C2FF1F1CC2FF1F7DC2FF1F78DEFF1FF4F5FF1F80B584B000AF7860396018E03B68402BA8BF4023FB6000BF8B
:4036800005F038FB0346002BFAD0FB689BB21946786805F0CFFAFB687A6813447B603A68FB68D31A3B603B68002BE3D100BF1037BD4680BD80B586B000AF05F06FF803466C
:4036C000002B06D005F05EF80346002B01D005F05DFA05F0E5FA03467B617B69002B77D03D4B1A683D4B1B68D31A642B02DD3C4B00221A60384B1B68384A1360384B1B680A
:40370000384A1344184605F007FB354B1A687B691344334A1360334BDB783B61304B1B68032B55DD2F4B5B781B022E4A92781343FB602C4B1B783A2B12D12A4B5B78552BAC
:403740000BD1284BAA229A70002007F04BFD0021552007F09FFC03F03DF8214B00221A60204B1B78382B12D11F4BBB60FB68BA6813443A6919461D4808F0F2F93B690433A3
:4037800019461848FFF770FF154B00221A60154B1B78392B1CD1124B1B681A1D3B699A4216DB114B7B60FB687A6813443A690F49184608F0D5F900BF05F09CFA0346002B6D
:4037C000FAD00421074805F035FA054B00221A6000BF1837BD4680BD2CC2FF1F40DCFF1F90C1FF1F3CDBFF1F34C2FF1F40DBFF1F80B582B000AF2B4B1B78012B4FD1294B17
:4038000000221A70284B1B68002B47D0264B1B6841F2F44293423DDC00237B600FE0234A7B6813441978224A7B68134449330A461A70012003F000F87B6801337B601A4BD5
:403840001B687A689A42EADB174B00221A607B681B12DAB2164BDA717B68DAB2144B1A727B681B12DAB2124B9A737B68DAB2104BDA73104B00221A600F4B01221A600C4B40
:403880001B7843F00303DAB2094B1A70084B00229A7004E0044B00221A6000E000BF0837BD4680BDF4F5FF1F78DEFF1F84DEFF1F34C2FF1F38DBFF1F0CDBFF1F80B584B0B8
:4038C00000AF012004F082FD002004F099FD62B6012007F077FB012007F092FB012007F0ADFB012004F058FD06F0A8FF02212520FFF7E6F900212820FFF7E2F9002007F03F
:403900007FFB082263490020FFF718FA012007F077FB082260490020FFF710FA06F090FE06F034FE002007F06BFB4FF4FA7002F061FF012007F064FB002007F07FFB4FF41F
:40394000FA7002F057FF012007F078FB002007F039FB4FF4FA7002F04DFF012007F032FB002007F06BFB002007F04AFB0121002004F064FD07F088FB02F0A0FE002007F0FE
:4039800013FC0346552B05D1002007F02BFC012007F054FB00BF0120FFF76CF902F056FD3E4802F0BBFD02F0A9FC3D4802F090F903F0C4FA3B4803F011FB04F0BFFB3A480A
:4039C00004F06CFC394803F051FC394A41F6D40141F6D40003F00AFA02F054FA012302220121344800F088FC012003F0A1FF012003F0DAFF012003F0B9FF2D4B00229A716D
:403A0000082000F0C5F9FFF7CDF92B4B00221A702A4B00221A702A4B00221A70294B00221A60FFF7B3FA284B00221A70274B00221A70274B00221A6003F002FF012003F08A
:403A4000C1FC04F085F900BF0120FFF713F9FFF731FEFFF7B9FA1F4B1B68012BF7D10023FB6012E0FFF726FE0A2002F0C3FEFB680133FB60FB68632B07DD0D4B1B7843F03A
:403A80000303DAB20A4B1A7003E00E4B1B68002BE8D0DCE77DC2FF1F0CC2FF1F41650000F55C000001700000D93A00009172000034C2FF1F10DBFF1F24C2FF1F44DCFF1F0A
:403AC00008C2FF1F38DBFF1F30F6FF1F28F6FF1F2CF6FF1F0CDBFF1F80B500AF022002F08BFB002004F03AFC04F01AFC04F06AFB04F0BEFB04F022FB00BF80BD80B500AF1F
:403B0000032002F079FB04F03DFB00BF80BD00BF80B500AF012004F021FC04F033FB00BF80BD00BF80B586B000AF786039600023BB733B68F02B3EDC022002F05DFB0020E2
:403B400004F00CFC052002F055FE00237B612EE07B697A6813441B78FB7300233B6120E0BB7B0133BB73BA7B3B689A4206DD022002F042FB002004F0F1FB1DE097F90F30A9
:403B8000002B02DAFFF7C4FF01E0FFF7B7FFFB7B5B00FB7340F2064002F04EFE3B6901333B613B69072BDBDD7B6901337B617B691D2BCDDD00E000BF1837BD4680BD00BF0A
:403BC00080B58EB000AF7860396002F03DF9034687F82B3002F048F9034687F82A30684B00221A607B68F02B01DD0023C3E097F82B30002B04D097F82A30002B40F0BA803A
:403C000000237B6300233B6307F10C023B6B134400221A706AE097F82B30002B1AD103F033FA584B00221A6003F022FA0AE0554B1B68502B01DD00239DE002F005F903461C
:403C400087F82B3097F82B30012BF0D17B6B01337B6333E097F82A30002B2FD103F014FA484B00221A6003F003FA0AE0454B1B68502B01DD00237EE002F0F6F8034687F8D5
:403C80002A3097F82A30012BF0D107F10C023B6B13441B785AB27B6BC3F10703012101FA03F35BB213435BB2D9B207F10C023B6B13440A461A707B6B01337B637B6B072B93
:403CC0000ADD00237B633B6B01333B6307F10C023B6B134400221A7002F0B6F8034687F82B3002F0C1F8034687F82A303B6BDA007B6B1A447B689A428DDB7B681B12DAB29E
:403D0000214BDA717B68DAB21F4B1A723B68002B06D007F10C0379681846FFF703FF29E00023FB6210E007F10C02FB6A13441978154AFB6A134449330A461A70012002F035
:403D40007BFDFB6A0133FB62FA6A3B6B9A42EADD0E4B00221A600A4B01221A600A4B1B7843F00303DAB2084B1A70074B00229A70012300E0002318463837BD4680BD00BF46
:403D80000CDBFF1F04C2FF1F34C2FF1F38DBFF1F80B582B000AF0346FB71FB7903F00103002B03D0012002F0DBF902E0002002F0D7F9FB7903F00203002B03D0012002F079
:403DC00071F902E0002002F06DF9FB7903F00403002B03D0012001F05DFF02E0002001F059FFFB7903F00803002B03D0174B01221A6002E0154B00221A60FB7903F0100313
:403E0000002B03D0012002F0D9F902E0002002F0D5F9FB7903F02003002B03D0012001F01BFF02E0002001F017FFFB7903F04003002B03D0064B00221A6002E0044B012237
:403E40001A6000BF0837BD4680BD00BF30C2FF1F20C2FF1F80B582B000AFFF23FB7102F06FF90346012B04D1FB7943F00103FB7103E0FB7923F00103FB7102F041F903460D
:403E8000012B04D1FB7943F00203FB7103E0FB7923F00203FB7102F023F90346012B04D1FB7943F00403FB7103E0FB7923F00403FB71FB7918460837BD4680BD80B582B007
:403EC00000AF0023FB71234B1B78002B3DD0214B00221A70204B1B6841F28732934205DC0023FB711D4B00229A712EE01A4B1B6841F28732934214DD174B1B684AF6C77279
:403F000093420EDC002003F031FD002003F010FD002003F049FD0323FB71104BC6229A7113E00D4B1B684AF6C77293420DDD002003F01CFD002003F0FBFC002003F034FDA8
:403F40000523FB71054B99229A71FB7918460837BD4680BD28F6FF1F2CF6FF1F34C2FF1F80B582B000AF0023FB7102F0D9F80346012B04D1FB7923F00103FB7103E0FB79B6
:403F800043F00103FB7102F009F90346012B04D1FB7923F00203FB7103E0FB7943F00203FB71FB7923F00403FB71FB7918460837BD4680BD80B582B000AF134B5B78FB712F
:403FC000FB7903F00103002B19D0FB7903F00203002B04D00C4B5B791846FFF7D9FEFB7903F00803002B07D0074B00225A70074B01221A6001F08EF8034B00225A7000BF70
:404000000837BD4680BD00BF34C2FF1F38DBFF1F80B582B000AF02F0C1F80346002B11D002F07EF80346002B03D13D4B1B68012B08D002F075F80346012B12D1384B1B686B
:40404000002B0ED1374B1B68002B03D0002002F00BF802E0012002F007F8002003F086FC0DE0304B1B68002B03D0012001F0FCFF02E0002001F0F8FF012003F077FCFFF738
:40408000E9FE0346FB71284B1B78FA799A4217D0642002F0D1FBFFF7DDFE0346BB71FA79BB799A420CD1214ABB7913711E4ABB7913701E4B1B7843F00503DAB21B4B1A704B
:4040C000FFF74EFF0346FB71194B1B78FA799A4217D0642002F0B0FBFFF742FF0346BB71FA79BB799A420CD1104ABB799372104ABB7913700D4B1B7843F00903DAB20B4BBE
:404100001A70FFF7DBFE0346FB71FB79002B02D0064AFB79D37200BF0837BD4680BD00BF30C2FF1F20C2FF1F24C2FF1F34C2FF1F44DCFF1F80B584B000AF7860002003F091
:40414000F7FB002003F030FC0023FB6012E00023BB6009E0BB687A6813441B78184601F069FFBB680133BB60BB680B2BF2DDFB680133FB60FB68132BE9DD012003F0D8FBF7
:40418000012003F011FC00BF1037BD4680BD00BF80B58CB000AF78600023FB62002387F82B3001F0F1FE0346202B75D102F06CFF3C4B00221A6002F05BFF2CE001F0E4FEFF
:4041C0000346202B20D101F0F1FE034687F8233097F82330022B0AD107F10C02FB6A134497F823201A70FB6A0133FB620CE0FB6A002B09DD07F10C02FB6A134497F823204B
:404200001A70FB6A0133FB62264B1B68B3F5FA6F01DD002342E0FB6A0B2BCFDD224B0022DA71FB6ADBB2DB00DAB21F4B1A727B68002B05D007F10C031846FFF77BFF2BE0A3
:4042400000237B6210E007F10C027B6A13441978154A7B6A134449330A461A70012002F0EBFA7B6A01337B627B6A0B2BEBDD01F0BFFE0E4B01221A600D4B00221A600A4BCC
:404280001B7843F00303DAB2074B1A70064B00229A70012387F82B3097F82B3018463037BD4680BD04C2FF1F34C2FF1F0CDBFF1F38DBFF1F80B582B000AF0346FB710D4B0F
:4042C0001B78FA799A4210D0FB790C2B02D01A2B04D007E0002001F08FFF03E0012001F08BFF00BF034AFB79137000BF0837BD4680BD00BF08DBFF1F80B485B000AFF860F0
:40430000B9607A603B60FB68BA681A60FB687A685A60FB680022DA82FB6800229A82FB6802229A61FB680022DA61FB6800221A62FB683A689A60FB680822DA6000BF14375C
:40434000BD4680BC704700BF80B584B000AF78607B689B8A9BB2002B37D07B68DB69013B7A68D361002B30DC7B685B8A9BB203F00103002B03D0022001F03EFF02E0032002
:4043800001F03AFF7B685B8A9BB25B089AB27B685A827B689B8A9BB2013B9AB27B689A827B689B8A9BB2002B09D07B689B6923F002027B689A617B680322DA6105E07B6834
:4043C0009B6943F002027B689A6101F03DFD0346FB737B68DB8A002B15D1FB7B002B60D17B6804221A627B68DB689AB27B689B689BB213449AB27B685B689BB213449AB234
:404400007B68DA824DE07B681B6A013B7A681362002B46DCFB7B002B08D07B681B8A6FEA43436FEA53439AB27B681A827B681B8A5B089AB27B681A827B68DB8A013B9AB2A8
:404440007B68DA827B68DB8A002B27D17B681B8A19467B689B68C3F107037A685268002A14BF01220022D2B29B1A41FA03F3DAB27B685A627B689B6903F00103002B06D0B5
:404480007B689B6943F004027B689A6109E07B689B6943F001027B689A6102E07B6803221A6200BF1037BD4680BD00BF80B483B000AF0346FB71FB791B09DBB25AB2FB793F
:4044C0001B015BB213435AB297F9073053405BB2FB71FB799B08DAB2FB795340FB71FB795B08DAB2FB795340FB71FB7903F00103DBB218460C37BD4680BC704780B584B07A
:4045000000AF786039600023BB603B689BB25B00FB817B685B68012B1ED13B68DBB21846FFF7C4FF0346BB60BB68002B07D07B689B684FF4407202FA03F31BB206E07B6862
:404540009B684FF4007202FA03F31BB2B7F90E2013431BB2FB8130E07B685B68022B1ED13B68DBB21846FFF7A1FF0346BB60BB68002B07D07B689B684FF4007202FA03F33B
:404580001BB206E07B689B684FF4407202FA03F31BB2B7F90E2013431BB2FB810DE07B68DA687B689B681344012202FA03F31AB2B7F90E3013431BB2FB8100BF7B689B69CE
:4045C00003F00203002BF9D072B67B689B6923F002027B689A6162B67B68FA895A827B680322DA617B685B68002B0CD07B68DB689AB27B689B689BB213449BB202339AB2B7
:404600007B689A820BE07B68DB689AB27B689B689BB213449BB201339AB27B689A8200BF1037BD4680BD00BF80B584B000AF78607B6893F88020154B83F85F207B6893F8FD
:404640008030802B03D97B68802283F880200023FB600FE07A68FB68134419780B4AFB68134461330A461A70012002F0E5F8FB680133FB607B6893F880301A46FB689A42AD
:40468000E8DC00BF1037BD4680BD00BF34C2FF1F80B582B000AF1A4B93F85F20194B83F88020184B93F88030802B03D9154B802283F8802000237B600CE0114A7B68134458
:4046C000613319780F4A7B6813440A461A707B6801337B600B4B93F880301A467B689A42EBDC084B012283F8812000F02FF8054B002283F8812000BF0837BD4680BD00BF8B
:4047000034C2FF1FE8DDFF1F80B582B000AF03F08DFA00237B600BE00B4A7B681344613300221A70012002F087F87B6801337B607B687F2BF0DD044B002283F85F2000BF32
:404740000837BD4680BD00BF34C2FF1F80B500AF012002F01BFE012002F034FE03F0F8FA0F4B032283F85D20032002F043F80D4B1B78532B09D10B4B93F880301946094862
:4047800003F0AEFA052002F035F803F0CBFA002002F018FE012002F0F9FD00BF80BD00BF34C2FF1FE8DDFF1F80B584B000AF0023FB600023FB700023FB7203F0EDF90346A9
:4047C000062B40F2B68000237B600CE003F08AF90346FB70FB78532B02D10123FB7205E07B6801337B607B68062BEFDDFB7A002B00F09C8003F076F90346FB704E4AFB7833
:40480000137003F06FF90346FB704B4AFB78937003F068F90346FB70474AFB78D37003F061F90346FB70444AFB781371FB7803F00303DAB2404B5A713F4BB3F90230062B1F
:4048400076DD0023FB603D4AFB68134453221A70FB680133FB60384B1978384AFB6813440A461A70FB680133FB60334B9978334AFB6813440A461A70FB680133FB602E4B0E
:40488000D9782E4AFB6813440A461A70FB680133FB60294B1979294AFB6813440A461A70FB680133FB60244BB3F90230802B05DDFFF72AFF204B00225A803AE01E4BB3F91B
:4048C0000230DAB21D4B83F880201BE003F064F90346002B16D003F005F90346FB70174AFB681344FA781A70134BB3F902305A1EFB689A4203D1104AFB78937109E0FB6832
:404900000133FB600C4BB3F902301A46FB689A42DCDC0A48FFF788FE094B93F85E3043F00203DAB2064B83F85E2002E000BF00E000BF1037BD4680BDD0DCFF1F4CDCFF1F3C
:4049400034C2FF1F80B582B000AF0346FB71FB79013B062B35D801A252F823F07949000085490000914900009B490000A5490000AF490000B949000001214FF41C7002F051
:40498000A9FB1EE0012140F2371002F0A3FB18E001219B2002F09EFB13E00121332002F099FB0EE00121192002F094FB09E001210C2002F08FFB04E00121052002F08AFBBD
:4049C00000BF02F06DFB00BF0837BD4680BD00BF80B500AF0E4803F075FB0D4803F060FB012000F06DF903F035FA03F035FB002002F006FD012002F007FE064B00221A707B
:404A0000054B00221A70054B00221A6000BF80BD214A0000CFDCFF1FDDDDFF1F48DCFF1F80B582B000AF75E003F076FA0346FB713E4B1B687F2B0EDC3D4B1B78012B0AD1FF
:404A40003A4B1B683B49FA79CA54384B1B680133364A136002E0354B00221A60334B1B68002B0ED1FB79532B0BD1314B01221A702E4B1B682F4A5321D1542C4B01221A60CA
:404A800048E02B4B1B78012B44D1284B1B68022B03D1294AFB7913703CE0244B1B68032B03D1254AFB79937034E0204B1B68042B1ED1214AFB79D3701F4BB3F90230042B74
:404AC00004DD1D4BB3F90230802B09DD1A4B00225A80164B00221A60154B00221A7019E0154BB3F90230DAB2124B83F8802011E00E4B1B68042B0DDD0F4BB3F902301A46DB
:404B00000A4B1B689A4205DC0C4B01221A70084B00221A7003F00EFA034603F02003002B82D100BF0837BD4680BD00BF48DCFF1FDDDDFF1FD8DCFF1FE0DDFF1FCFDCFF1F78
:404B400080B584B000AF78607B6893F88020154B83F8E2200023FB600FE07A68FB6813441978104AFB681344E4330A461A70022001F062FEFB680133FB607B6893F8803038
:404B80001A46FB689A42E8DC064B93F85E3043F02003DAB2034B83F85E2000BF1037BD4680BD00BF34C2FF1F80B400AF024B1B7800BFBD4680BC70476064004080B582B003
:404BC00000AF03F0C9F9114B002283F8E2200F4B93F85E3023F02003DAB20C4B83F85E2000237B600BE0094A7B681344E43300221A70012001F020FE7B6801337B607B6893
:404C00007F2BF0DD00BF0837BD4680BD34C2FF1F80B500AF012002F0F7FC012002F0F0FB03F02CFA134B032283F8E120032001F0E1FD114B1B78532B09D10F4B93F88030DD
:404C400019460D4803F0C4F9052001F0D3FD0B4B00221A700A4B00221A700A4B00221A6003F0FAF9002002F0CBFB012002F0CCFC00BF80BD34C2FF1F5CDDFF1FCFDCFF1F2D
:404C8000DDDDFF1F48DCFF1F80B500AF094B1B78012B0DD1084B1B78662B03D1074800F009F902E00548FFF74BFF024B00221A7000BF80BDCFDCFF1F1CC2FF1FD8DCFF1F7E
:404CC00080B582B000AF0346FB71FB79013B062B35D801A252F823F0F54C0000014D00000D4D0000174D0000214D00002B4D0000354D000001214FF41C7002F0B9FB1EE0B1
:404D0000012140F2371002F0B3FB18E001219B2002F0AEFB13E00121332002F0A9FB0EE00121192002F0A4FB09E001210C2002F09FFB04E00121052002F09AFB00BF02F0CA
:404D40007DFB00BF0837BD4680BD00BF80B582B000AF1F4B93F8E230FB70FB78802B25D800237B600CE01A4A7B681344E4331978184A7B6813440A461A707B6801337B6083
:404D8000FA787B689A42EEDCFB787B6007E0114A7B68134400221A707B6801337B607B687F2BF4DD0B4AFB7882F88030094B93F88030002B07D0002002F0BAFDFFF728FFC9
:404DC000012002F0B5FD00BF0837BD4680BD00BF34C2FF1F5CDDFF1F80B500AF344B93F8E130002B20D0324B93F8E130042B1BD801A252F823F000BF294E0000294E000084
:404E00000D4E0000294E0000134E0000FFF79EFF0AE0274B93F8E3301846FFF751FF244B032283F8E12000BF214B93F85D30002B20D01F4B93F85D30042B1BD801A252F80F
:404E400023F000BF754E0000754E0000594E0000754E00005F4E0000FFF71AFC0AE0144B93F860301846FFF76DFD114B032283F85D2000BF0E4B93F85E3003F02003002BAA
:404E800006D10B4B93F8E130022B01D0FFF7FCFE074B93F85E3003F00203002B06D1044B93F85D30022B01D0FFF77EFC00BF80BD34C2FF1F80B584B000AF78607B6893F893
:404EC0008020184B83F88020164B93F88030802B03D9144B802283F880200023FB600BE07A68FB68134419780E4AFB6813440A461A70FB680133FB600A4B93F880301A46F1
:404F0000FB689A42ECDC074B012283F88120FFF71DFC044B002283F8812000BF1037BD4680BD00BFE8DDFF1F80B500AF0B4803F0C9F80A4803F0B4F80620FFF7C1FE02F0AC
:404F400089FF03F089F8002002F05AFA012002F05BFB034B00221A7000BF80BD654F0000F4F5FF1F80B582B000AFB6E002F0D4FF0346FB715F4B1B6841F2F342934204DC45
:404F80005C4B1B685C49FA79CA545A4B1B68002B17D1594B1A78594B1A70584B1B78202B0ED0202B04DC0C2B0AD00E2B08D09DE0382BC0F29B803A2B02DD5C2B00D095E089
:404FC00000BF4C4B1B68012B35D14A4B1B684A4AD35C5BB2002B18DA494B01221A70454B1B68454AD35C03F07F03464A1360464B00221A60434B1B680233444A13603D4B1B
:405000001B6801333B4A136071E03D4B00221A70384B1B68384AD35C03F07F033A4A1360394B1B680233384A1360324B1B680133304A13605BE0324B1B78012B29D1314BDA
:405040001B68002B25DD2B4B1B68012B21DD2E4B1B681B02274A126827498A5C13442A4A1360284B1B68013B264A1360254B1B68002B0ED1244B1A68244B1B681344224A0D
:405080001360214B1B68002B03D11A4B00221A602DE0184B1A681C4B1B689A420ADC154B1B6841F2F442934204DC124B1B680133104A1360144B1B68002B0ED00D4B1A6849
:4050C000114B1B689A4205DA0A4B1B6841F2F342934202DD0E4B01221A7002F02BFF034603F02003002B7FF441AF00E000BF0837BD4680BD78DEFF1F84DEFF1F6CDEFF1F99
:4051000074DEFF1F70DEFF1F7CDEFF1F80DEFF1FF4F5FF1F80B400AF074B00221A60074B00221A70064B00221A60064B00221A6000BFBD4680BC704778DEFF1FF4F5FF1FBF
:405140000CDBFF1F7CDEFF1F80B582B000AF78603960012002F054F902F05CFF02F08EFF142001F069FB3B68DBB21946786802F02FFF782001F060FB02F06EFF002002F092
:405180003FF9FFF7C7FF02F0E7FE00BF0837BD4680BD00BF80B594B000AF78603960002387F83D303B6803333B643B6C142B01DD14233B6400F03CFE864B00221A70864BF5
:4051C00000221A6000F028FE012001F015F80023FB64B8E0FB6C7A6813441B7887F83F30002387F83E30FB6C5B0007F150021344002203F8442CFB6C5B00013307F1500263
:405200001344002203F8442C0023BB643CE097F93F30002B17DA97F83D30002B09D1002387F83D3097F83E3043F0020387F83E301AE097F83E3043F0010387F83E300123A0
:4052400087F83D3010E097F83D30002B09D197F83E3043F0030387F83E30012387F83D3002E0002387F83D30BB6C022B04DC97F83E309B0087F83E3097F83F305B0087F89C
:405280003F30BB6C0133BB64BB6C032BBFDDFB6C5B0007F15002134497F83E2003F8442C002387F83E300023BB643CE097F93F30002B17DA97F83D30002B09D1002387F82D
:4052C0003D3097F83E3043F0020387F83E301AE097F83E3043F0010387F83E30012387F83D3010E097F83D30002B09D197F83E3043F0030387F83E30012387F83D3002E0EE
:40530000002387F83D30BB6C022B04DC97F83E309B0087F83E3097F83F305B0087F83F30BB6C0133BB64BB6C032BBFDDFB6C5B00013307F15002134497F83E2003F8442C04
:40534000FB6C0133FB64FA6C3B6C9A42FFF642AF002387F83E3000237B642CE007F10C027B6C13441B7887F83F3007F10C027B6C134400221A700023BB6416E097F93F305A
:40538000002B03DA022000F037FF02E0032000F033FF4FF4C87001F04FFA97F83F305B0087F83F30BB6C0133BB64BB6C072BE5DD7B6C01337B643B6C5A007B6C9A42CDDC7E
:4053C000022000F019FFA52001F014FA00BF5037BD4680BDF8F5FF1FFCF5FF1F90B595B000AF78603960002002F0B8FF1523BB630023BB64002387F847300123FB64002355
:4054000087F83F308A4B00221A6000233B6408E007F120023B6C134400221A703B6C01333B643B6C132BF3DD3B68002B00F09A8001F02AFE7F4B00221A6001F019FE91E0A0
:405440003B68012B09D17B4B1B68B3F5FA6F04DD784B00221A600023E5E001F07FFF764B1B687B6301F06EFF7B6B002B7ADD3B68002B06D001F008FE6E4B00221A6001F0C9
:40548000F7FD01F06BFF6C4B00221A6001F05AFFFB6C072B04DD0023FB64BB6C0133BB6497F83F30012B1BD1B86B06F08DF84FF00002624B06F0EEF803460C4618462146AC
:4054C00006F0FAFA02467B6B9A4209DC7B6B3F2B06DC002387F84730FB6C0133FB6441E0B86B06F071F84FF00002544B06F0D2F803460C461846214606F0DEFA02467B6BEF
:405500009A4228DD97F84730013387F8473097F84730012B26D907F12002BB6C13441B785AB2FB6CC3F10703012101FA03F35BB213435BB2D9B207F12002BB6C13440A46D7
:405540001A70FB6C0133FB64002387F84730012387F83F3006E07B6B3F2B03DD97F83F30012B08D0BB6CDA00FB6C1A447B689A427FF766AF00E000BF7B681B12DAB2304B9E
:40558000DA717B68DAB22E4B1A723B68002B20D0BB6C042B46DD00233B7200233B640EE03B6C013307F120013A6C0A44127807F150010B4403F8482C3B6C01333B643B6CDB
:4055C000132BEDDD07F10803B96C1846FFF7E2FD28E000233B6410E007F120023B6C13441978174A3B6C134449330A461A70012001F022F93B6C01333B643B6C132BEBDDDC
:405600000F4B1B7843F00303DAB20D4B1A70084B01221A600B4B00221A60094B00229A70012300E0002318465437BD4690BD00BF0CDBFF1F04C2FF1F20F6FF1F0000E83F11
:4056400034C2FF1F38DBFF1F80B582B000AF786039603A680021786806F08DFA00BF0837BD4680BD80B584B000AFF860B9607A607A68B968F86806F073FA00BF1037BD46CE
:4056800080BD00BF80B483B000AF0346FB71FEE780B487B000AF7860396000233B6100237B6127E07B699B007A6813441B68BB60BB68FB73BB6823F0FF03BB6014E03B691C
:4056C0005B003A6813441B781A46BB68134419463B695B003A6813445B780B703B6901333B61FB7B013BFB73FB7B002BE7D17B6901337B617B69282BD4D900BF1C37BD466A
:4057000080BC704780B582B000AF514B01221A80504B18221A70504B07221A804F4B18221A704F4B5F221A804E4B18221A704E4B67221A804D4B18221A704D4B40F2DF1207
:405740001A804C4B18221A704B4B40F2E1421A804A4B18221A704A4B4FF6FF721A80494B18221A70484A494B1344042219464848FFF778FF474B06221A70474B52221A7046
:40578000464B474A1278D2B21A70464B4FF4E2621A80454B41F251221A800023FB7019237B6014E0FB785B00DAB2404B1B78DBB203F00103DBB21343DBB203F00303FB7044
:4057C0004FF4F07005F054FD7B68013B7B607B68002B02D0FB78032BE4D17B68002B02D10320FFF74FFF324B4FF480721A80304B07221A702F4B00221A702F4B48221A703A
:405800002B4B00221A702D4B00221A702C4B02221A702C4B04221A702B4A2B4B1B78DBB243F07F03DBB21370284A284B1B78DBB243F00103DBB21370254A254B1B78DBB2BB
:4058400063F07F03DBB2137000BF0837BD4680BD80400040824000408440004086400040884000408A4000408C4000408E4000409040004092400040944000409640004081
:40588000984000409A40004080050000DC130048004100400043004000420040A14600400F01004922420040204200402542004004400040064000400840004009400040EC
:4058C000014000400B400040A2430040A1430040A043004080B483B000AF0E4B1B78FB710D4AFB7903F00703DBB213700B4AFB791B09DBB213700A4B04221A70094B8022F2
:405900001A70094B44221A7000BF0C37BD4680BC704700BFCF0100496E5800406F5800401C5100403C5100407658004080B586B000AF72B60023FB7513E0FA7D13465B0041
:4059400013445B005B4A13443B613B691A683B699B889BB219461046FFF776FEFB7D0133FB75FB7D0D2BE8D90023FB751CE0FA7D13469B0013445B004F4A1344FB60FB689D
:405980001B68BB60FB685B687B60FB681A7A5B7A1B0213437B807B881A467968B868FFF761FEFB7D0133FB75FB7D072BDFD9434B03F190431A46414B03F19043A433194699
:4059C0001046FFF765FE3E4B3E4A1A603E4A3E4B1B78DBB243F00203DBB213703B4A3B4B1B78DBB243F00203DBB21370384A384B1B78DBB243F04003DBB21370354A354BD7
:405A00001B78DBB243F01003DBB213702B4A324B13440A2219463148FFF724FE274A304B13440A2219462F48FFF71CFE234A2E4B1344052219462D48FFF714FE1F4A2C4B16
:405A400013440A2219462B48FFF70CFE1B4A2A4B13440A2219462948FFF704FE174A284B13440A2219462748FFF7FCFD134A264B13440A2219462548FFF7F4FD244A244BB7
:405A80001B78DBB243F00803DBB21370214B61221A70FFF737FE1F4BC1221A70FFF71AFF0E220B491C48FFF7DDFD00BF1837BD4680BD00BF8CBB0000E0BB000080050000C2
:405AC000581601400A04004A0350014013500140A0430040C24300408C1300480051004098130048C0510040A4130048CB510040AC130048F0510040B813004810510040AC
:405B0000C413004820510040D0130048305100402243004000480040B043004080B500AF05F0F2FF03461B680C2B00D1FEE7FEE780B586B000AF224B7B61224B3B61204B0A
:405B40007B6135E03B691B68FB603B695B68BB603B699B683B6000237B600CE0FB681A68BB681A60BB680433BB60FB680433FB607B6804337B607A683B689A42EED13B695F
:405B8000DB683B6000237B6008E0BB6800221A60BB680433BB607B6804337B607A683B689A42F2D13B6910333B617B69013B7B617B69002BC6D105F0ADFFFDF77FFEFEE7B8
:405BC00001000000C8BD000080B582B000AF184B184A1A60184A184B1B6843F40073136000237B600FE07B68032B04D8134A7B6852F8233000E0124B12497A6841F82230A9
:405C00007B6801337B607B682F2BECD90E4B1B78DAB20E4B1A700E4B0A4A1A60FFF786FE0C4B00221A6000BF0837BD4680BD00BF0CED00E00004FA0514ED00E0002C00009B
:405C40001D5B000000C0FF1FBC760040C4C0FF1F08ED00E0C0C0FF1F80B485B000AF0346FB710B4B1B78DBB223F00803FB730849FB79DB00DBB203F00803DAB2FB7B1343F5
:405C8000DBB20B7000BF1437BD4680BC704700BF2051004080B485B000AF0346FB710B4B1B78DBB223F01003FB730849FB791B01DBB203F01003DAB2FB7B1343DBB20B70C1
:405CC00000BF1437BD4680BC704700BF0051004080B582B000AF786000F0AAF8786800F077F8072000F086F800F096F800BF0837BD4680BD80B500AF00F046FB2C4B1B7825
:405D0000362B04DC342B32DA052B06D041E0382B2DD0382B01DB692B3BD1264B1B78002B16D0254B1B780133DAB2234B1A70224B1B781E2B02D1012002F010FB1E4B1B784B
:405D4000232B05D9002002F009FB1A4B00221A701A4B1B680133194A1360184B1B6841F28832934212D1164B01221A700EE0154B1B680133134A1360124B1B6841F28732A4
:405D8000934205DD0F4B00221A6001E000BF00E000BF0D4B1B78002B04D00C4B1B6801330A4A1360FEF706F9FEF732F900BF80BD1CC2FF1F24F6FF1F18F6FF1FFCF5FF1FB9
:405DC000F8F5FF1F28C2FF1F30F6FF1F2CF6FF1F80B485B000AF7860054B1B68FB60FB6884337A681A6000BF1437BD4680BC704708ED00E080B483B000AF0346FB71054A89
:405E0000FB795B01DBB2137000BF0C37BD4680BC704700BF11E400E080B400AF034B4FF400321A6000BFBD4680BC704700E100E080B400AF034B4FF400321A6000BFBD467E
:405E400080BC704780E100E080B400AF054B1B78DBB203F002035B08DBB21846BD4680BC704700BF2151004080B400AF044B1B78DBB203F00103DBB21846BD4680BC7047C4
:405E80002151004080B500AF064B1B78002B04D100F00AF8034B01221A7000F02BF800BF80BD00BF9CC1FF1F80B500AF0C4B71221A700C4B00221A700B4B06221A700B4B79
:405EC00047221A700A4B00221A7000F041F8034623F01803DBB2184600F046F800BF80BD8B6500408965004029640040396400408B64004080B582B000AF05F0C1F90346B4
:405F0000FB71104A0F4B1B78DBB243F02003DBB213700D4A0C4B1B78DBB243F01003DBB213700A4A094B1B78DBB243F01003DBB21370FB79184605F0A7F900BF0837BD4611
:405F400080BD00BF9B650040996500409B64004080B400AF034B1B78DBB21846BD4680BC704700BF7864004080B483B000AF0346FB71044AFB79137000BF0C37BD4680BC97
:405F8000704700BF7864004080B483B000AF064B1B78DBB203F07F03FB71FB7918460C37BD4680BC704700BF6965004080B483B000AF0023FB710C4B1B78BB71BB7903F02D
:405FC0002003002B09D0094B1B78FB71BB7903F01E03002B01D00023FB71FB7918460C37BD4680BC704700BF696500404B65004080B582B000AF05F043F90346FB710C4A3A
:406000000B4B1B78DBB243F00103DBB21370084A074B1B78DBB223F00103DBB21370FB79184605F031F900BF0837BD4680BD00BF9B65004080B483B000AF0346FB7100BF00
:40604000074B1B78DBB203F00403002BF8D1054AFB79137000BF0C37BD4680BC704700BF6B6400404B64004080B485B000AF0346FB710B4B1B78DBB223F00403FB730849A9
:40608000FB799B00DBB203F00403DAB2FB7B1343DBB20B7000BF1437BD4680BC704700BF0051004080B485B000AF0346FB710B4B1B78DBB223F00803FB730849FB79DB002B
:4060C000DBB203F00803DAB2FB7B1343DBB20B7000BF1437BD4680BC704700BF0051004080B400AF054B1B78DBB203F08003DB09DBB21846BD4680BC704700BF0151004086
:4061000080B400AF054B1B78DBB203F040039B09DBB21846BD4680BC704700BF0151004080B400AF054B1B78DBB203F020035B09DBB21846BD4680BC704700BF0151004001
:4061400080B400AF054B1B78DBB203F010031B09DBB21846BD4680BC704700BFF151004080B485B000AF0346FB710B4B1B78DBB223F02003FB730849FB795B01DBB203F0F8
:406180002003DAB2FB7B1343DBB20B7000BF1437BD4680BC704700BFF051004080B400AF054B1B78DBB203F010031B09DBB21846BD4680BC704700BF1151004080B485B0F4
:4061C00000AF0346FB710B4B1B78DBB223F00403FB730849FB799B00DBB203F00403DAB2FB7B1343DBB20B7000BF1437BD4680BC704700BF2051004080B483B000AF034627
:40620000FB71044AFB79137000BF0C37BD4680BC704700BF7A65004080B500AF214A214B1B78DBB203F00103DBB213701E4A1E4B1B78DBB223F00303DBB213701B4A1B4B10
:406240001B78DBB223F03003DBB21370174A174B1B78DBB243F03003DBB21370134A134B1B78DBB223F00F03DBB213700F4A0F4B1B78DBB243F00F03DBB213700C4A0C4B6A
:406280001B78DBB243F00103DBB213706A2000F087F86A2000F096F8082000F065F800BF80BD00BF004F0040024F00400B4F0040014F004080B400AF0D4A0D4B1B78DBB24A
:4062C00043F00103DBB213700A4A0A4B1B78DBB243F00103DBB21370074A074B1B78DBB243F00103DBB2137000BFBD4680BC7047A3430040B3430040004F004080B500AFB9
:40630000064B1B78002B04D1FFF786FF034B01221A70FFF7CFFF00BF80BD00BF9EC1FF1F80B400AF0D4A0D4B1B78DBB223F00103DBB213700A4A0A4B1B78DBB223F001034E
:40634000DBB21370074A074B1B78DBB223F00103DBB2137000BFBD4680BC7047004F0040A3430040B343004080B483B000AF0346FB71044AFB79137000BF0C37BD4680BC32
:40638000704700BF034F004080B400AF034B1B78DBB21846BD4680BC704700BF034F004080B485B000AF0346FB80FB88FB81044AFB89138000BF1437BD4680BC704700BFE0
:4063C000044F004080B483B000AF0346FB80044AFB88138000BF0C37BD4680BC704700BF064F004080B582B000AF8B2000F05CF88B2000F075F804F043FF0346FB710A4A34
:40640000094B1B78DBB243F01003DBB21370FB79184604F039FF00F073F8012000F028F800BF0837BD4680BD9865004080B400AF054A054B1B78DBB263F07F03DBB2137006
:4064400000BFBD4680BC70477865004080B500AF064B1B78002B04D1FFF7C4FF034B01221A70FFF7E3FF00BF80BD00BF9FC1FF1F80B483B000AF0346FB71044AFB791370AD
:4064800000BF0C37BD4680BC704700BF8865004080B400AF034B1B78DBB21846BD4680BC704700BF6865004080B483B000AF0346FB71044AFB79137000BF0C37BD4680BC36
:4064C000704700BF2865004080B400AF034B1B78DBB21846BD4680BC704700BF4865004080B483B000AF0346FB71044AFB79137000BF0C37BD4680BC704700BF0865004094
:4065000080B500AF01E0FFF7DFFFFFF7C1FF034603F00803002BF6D100BF80BD80B582B000AF786000F048F8786800F015F8072000F024F800F034F800BF0837BD4680BD4F
:4065400080B500AF0348FDF7FFFEFFF7A1FF00BF80BD00BF10DBFF1F80B485B000AF7860054B1B68FB60FB6840337A681A6000BF1437BD4680BC704708ED00E080B483B015
:4065800000AF0346FB71054AFB795B01DBB2137000BF0C37BD4680BC704700BF00E400E080B400AF034B01221A6000BFBD4680BC704700BF00E100E080B400AF034B012276
:4065C0001A6000BFBD4680BC704700BF80E100E080B582B000AF00F01FFA4FF0FF337B6000F086FB0346002B24D1012000F04EFB0346072B1BD10221124800F031FA034685
:40660000022B0DD100237B6002E0012000F014F90D4B1B78DBB203F00203002BF5D006E0094B1B78DBB203F00203002BE3D000F093FB01E004237B607B6818460837BD46DD
:4066400080BD00BF00F6FF1F2247004080B582B000AF00F0E1F900F04BFB0346002B23D100F0A2FB78607B68072B1AD102E0012000F0E2F8104B1B78DBB203F00203002B13
:40668000F5D00D4B1B78DBB203F00203002B08D0094B1B78DBB29B08DBB2002B01D100237B6000F059FB01E004237B607B6818460837BD4680BD00BF2247004080B582B04D
:4066C00000AFFFF7C3FF78607B68002B02D1FFF77FFF78607B6818460837BD4680BD00BF80B582B000AF04F0CBFD0346FB71194A184B1B78DBB243F00803DBB21370164A94
:40670000154B1B78DBB243F00803DBB21370134BC8221A70124A124B1B78DBB243F01003DBB213700F4A0F4B1B78DBB243F01003DBB2137000BF0C4B1B78DBB203F0200315
:40674000002BF8D0FB79184604F09EFD00BF0837BD4680BDA0430040B043004001470040AC430040BC4300400047004080B400AF094A094B1B78DBB243F00103DBB21370C3
:4067800000BF054B1B78DBB203F00203002BF8D000BFBD4680BC70470247004080B400AF054A054B1B78DBB223F00103DBB2137000BFBD4680BC70470247004080B483B013
:4067C00000AF0346FB7101BE00BF0C37BD4680BC704700BF80B400AF054A054B1B78DBB243F00103DBB2137000BFBD4680BC7047F646004080B582B000AF786008E00C4B78
:406800001B68184604F034FD7B68A3F500437B607B68B3F5004FF2D8064B1B687A6802FB03F3184604F024FD00BF0837BD4680BDE8C0FF1FE0C0FF1F80B582B000AF0346D8
:40684000FB80FB88054A127802FB03F3184604F00FFD00BF0837BD4680BD00BFE4C0FF1F80B584B000AF03463960FB710F4B1B68FB60FB791F2B02D90020FFF79FFFFB79D2
:4068800003F01F0310339B00FA6813441B68BB60FB7903F01F0310339B00FA6813443A681A60BB6818461037BD4680BD08ED00E080B582B000AF03460A46FB711346BB71D5
:4068C000BB79072B02D90020FFF778FFFB791F2B02D90020FFF772FFFB7903F01F0303F1604303F56443BA795201D2B21A7000BF0837BD4680BD00BF80B483B000AF78606C
:40690000264B1B78DBB21A467B681A60244B1B78DBB21B027A6812681A437B681A60214B1B78DBB21B047A6812681A437B681A601D4B1B78DBB21B067A6812681A437B6841
:406940001A607B680433194A1278D2B21A60184B1B78DBB21A027B6804337968043109680A431A60134B1B78DBB21A047B6804337968043109680A431A600F4B1B78DBB213
:406980001A067B6804337968043109680A431A6000BF0C37BD4680BC704700BF0301004904010049EC460040020100490101004900010049050100490601004980B584B0A2
:4069C00000AF0346FB7104F05BFC0346FB73104B1B78DAB20F4B1B781343DAB20D4B1A700C4B1B7803F00703BB73FB79DB43DAB2084B1B781340DAB2064B1A70FB7B18465F
:406A000004F042FCBB7B18461037BD4680BD00BF90430040E2C1FF1F80B582B000AF04F02FFC0346FB710C4A0B4B1B78DBB243F00803DBB21370094A084B1B78DBB243F079
:406A40000803DBB21370FB79184604F01DFC00BF0837BD4680BD00BFA0430040B043004080B584B000AF78600B46FB700023FB7313E00120FFF7E0FE0C4B1B78DBB203F03A
:406A80000103002BF5D0FB7B7A681344084A1278D2B21A70FB7B0133FB73FA7BFB789A42EAD3FB7B18461037BD4680BD224700402047004080B485B000AF3A601A460346AA
:406AC000FB710B46BB801346BB710723FB60FB793E2B02D8BB791F2B05D9FB793F2B45D9BB790F2B42D8254B1B78DBB203F00203002B38D0224BB6221A70214BD4221A7087
:406B00001F4B01221A701D4B1B78DBB203F00203002B25D11A4AFB791370194ABB881B0A9BB2DBB203F00103DBB21370144BBA88D2B21A70124ABB79013BDBB213700023E8
:406B4000FB7208E00E49FB7A3A6813441B780B70FB7A0133FB72FA7ABB799A42F2D307E00923FB6004E00423FB6001E00123FB60FB6818461437BD4680BC704722470040AF
:406B80002047004090B484B000AF0446084611461A462346FB710346BB800B46BB711346FB700723FB601B4B1B78DBB203F00203002B26D0184BB6221A70174BD8221A704F
:406BC000154B05221A70134B1B78DBB203F00203002B13D1104AFB7913700F4ABB881B0A9BB2DBB213700C4BBA88D2B21A700A4ABB791370084AFB78137004E00923FB602B
:406C000001E00423FB60FB6818461037BD4690BC704700BF224700402047004080B485B000AF03460A46FB711346BB710723FB60144B1B78DBB203F00203002B19D0124BC5
:406C4000B6221A70104BDB221A700F4B08221A700C4B1B78DBB203F00203002B06D10A4AFB791370084ABB79137004E00923FB6001E00423FB60FB6818461437BD4680BCE4
:406C8000704700BF224700402047004080B485B000AF0346FB710723FB60134B1B78DBB203F00203002B16D0104BB6221A700F4BE1221A700D4B0E221A700B4B1B78DBB209
:406CC00003F00203002B03D1084AFB79137004E00923FB6001E00423FB60FB6818461437BD4680BC704700BF224700402047004080B582B000AF04237B6004F0C1FA034665
:406D0000FB70124B1B78002B16D1104B01221A7000237B600E4B1B6803F00103002B0BD00B4A0B4B1B6823F00103136000BF00BF00BF084B01221A60FB78184604F0A4FABF
:406D40007B6818460837BD4680BD00BFE4C1FF1F04000840E8C1FF1F80B582B000AF04F08FFA0346FB710D4B00221A700C4B1B68012B0BD10B4A0B4B1B6843F001031360B8
:406D800000BF00BF00BF064B00221A60FB79184604F07AFA00BF0837BD4680BDE4C1FF1FE8C1FF1F0400084080B483B000AF07237B600C4B1B78DBB203F00203002B09D0CD
:406DC000094BB6221A70084BE0221A70064B0D221A7001E004237B607B6818460C37BD4680BC7047224700402047004080B483B000AF03463A60FB800B46BB800F4B4FF4AA
:406E000000421A603B68002B08D00D4A3B6813600C4AFB8813800C4ABB8813800B4B00221A800B4B00221A800A4B4FF400421A6000BF0C37BD4680BC704700BF80E100E07B
:406E400010F6FF1F04F6FF1F0AF6FF1F08F6FF1F06F6FF1F00E100E080B500AF214A214B1B78DBB203F00103DBB213701E4A1E4B1B78DBB223F00303DBB213701B4A1B4BFA
:406E80001B78DBB223F03003DBB21370174A174B1B78DBB243F03003DBB21370134A134B1B78DBB223F00F03DBB213700F4A0F4B1B78DBB243F00F03DBB213700C4A0C4B1E
:406EC0001B78DBB243F00103DBB21370182000F063F8182000F072F8082000F041F800BF80BD00BF0C4F00400E4F0040174F00400D4F004080B400AF0D4A0D4B1B78DBB2DE
:406F000043F00203DBB213700A4A0A4B1B78DBB243F00203DBB21370074A074B1B78DBB243F00103DBB2137000BFBD4680BC7047A3430040B34300400C4F004080B500AF5E
:406F4000064B1B78002B04D1FFF786FF034B01221A70FFF7CFFF00BF80BD00BFECC1FF1F80B483B000AF0346FB71044AFB79137000BF0C37BD4680BC704700BF0F4F004008
:406F800080B400AF034B1B78DBB21846BD4680BC704700BF0F4F004080B485B000AF0346FB80FB88FB81044AFB89138000BF1437BD4680BC704700BF104F004080B483B0CA
:406FC00000AF0346FB80044AFB88138000BF0C37BD4680BC704700BF124F004080B582B000AF786000F050F8786800F01DF8072000F02CF800F03CF800BF0837BD4680BDBA
:4070000080B500AFFFF7BCFF054B1B680133044A1360044B1B680133024A136000BF80BD1CF6FF1F04C2FF1F80B485B000AF7860054B1B68FB60FB6888337A681A6000BFC7
:407040001437BD4680BC704708ED00E080B483B000AF0346FB71054AFB795B01DBB2137000BF0C37BD4680BC704700BF12E400E080B400AF034B4FF480221A6000BFBD4621
:4070800080BC704700E100E080B400AF034B4FF480221A6000BFBD4680BC704780E100E080B400AF094A094B1B78DBB243F00803DBB21370064A064B1B78DBB243F008039F
:4070C000DBB2137000BFBD4680BC7047A2430040B243004080B584B000AF03460A46FB8013467B7100F0B4F80346FB7300F0A4F80346BB81FA88BB899A4200F08880464B71
:407100001B78DBB203F00803FB72FB7B002B20D1BB89002B02D0FB88002B1AD1BB89002B0BD13E4AFB8813803D4A3D4B1B78DBB223F04003DBB2137069E0394A384B1B78F8
:40714000DBB243F04003DBB21370344AFB8813805DE0FB7A002B33D0324B00221A70324B08221A70314B00221A70314A304B1B78DBB203F07F03DBB21370294B1B78DBB2D7
:4071800003F00803002B02D0FB88002B18D1294ABB891380234B07221A7000BF214B1B78DBB203F00103002BF8D11B4A1A4B1B78DBB223F00803DBB213701A4B00221A7073
:4071C000154B1B78DBB203F00803002B13D0194AFB881380134A7B79002B01D0032300E00123137000BF0F4B1B78DBB203F00103002BF8D10BE0094AFB8813800649064B78
:407200001B78DAB2FB7A1343DBB20B70FFE700BF1037BD4680BD00BFA24300408C4000408E400040014000401040004014400040084000400240004080B400AF034B1B88AF
