:020000040800F2
:1000000000500020197B0008597B0008597B00082C
:10001000597B0008597B0008597B0008000000004C
:10002000000000000000000000000000597B0008F4
:10003000597B000800000000597B0008597B00082C
:10004000597B0008597B0008597B0008597B000840
:10005000597B0008597B0008597B0008597B000830
:10006000597B0008597B0008597B00081D3A00089D
:10007000597B0008597B0008597B0008597B000810
:10008000597B0008597B0008597B0008597B000800
:10009000597B0008597B0008597B0008597B0008F0
:1000A000597B0008597B0008597B0008597B0008E0
:1000B000C9390008597B0008597B0008597B0008A2
:1000C000597B0008597B0008597B0008597B0008C0
:1000D000597B000871740008597B0008597B00089F
:1000E00065390008597B0008597B000800000000B2
:1000F0000000000000000000000000000000000000
:0C01000000000000000000005FF808F1A3
:1001100070B414460F2C06460D4604D945EA060372
:1001200013F0030F0DD04AB14FF0000C11F80C3052
:1001300000F80C300CF1010C9445F7D1304670BC3E
:100140007047A4460B68ACF1100C03604A6842602B
:100150008B688360CA681031C2601030BCF10F0F29
:10016000F0D8A4F1100303F00F0223F00F031033B3
:10017000EC18F118032A13D94FF0000C54F80C3086
:1001800041F80C300CF1040CCCEB0203032BF5D836
:10019000131F03F0030223F003030433E418C91808
:1001A00008462146BFE7C046D0B542F2FB1421F015
:1001B0000042C3F6E974A24286B006460F461CDD33
:1001C0004FF6FF73C7F6EF739A4205DD02460B4602
:1001D00001F056FC06B0D0BD02AA00F009F900F00B
:1001E000030001280ED002281FD0A8B9DDE90201C2
:1001F000DDE9042300F018FBECE70022002300F007
:1002000013FBE7E70090DDE90423DDE9020101F0DB
:100210004FF801F10041DDE70123DDE90201009320
:10022000DDE9042301F044F8D4E7DDE90201DDE96A
:10023000042300F0F9FA01F10041CBE740F200039A
:10024000C7F6F07301EA03032DE9F0411B15A3F58E
:100250007E7C0646ACF1070C0F46BCF1130F04463A
:100260000D461BDCBCF1000F38DB4FF6FF73C0F20C
:100270000F0343FA0CF101EA070202430AD04FF4DC
:100280000023CA43002143FA0CF3DB1903EA0205F9
:100290000E462F4630463946BDE8F081BCF1330F9B
:1002A00009DDBCF5806FF5D102460B4601F0EAFB93
:1002B00006460F46EEE74FF0FF33ACF1140233FA77
:1002C00002F10142E6D00233CCF1330293401A1816
:1002D00028BF7D1CCB4302EA0301D9E701F00045AA
:1002E000BCF1FF3F04BF45F07E5545F4E005002119
:1002F000CEE7C046D0B542F2FB1421F00042C3F66F
:10030000E974A24286B006460F461EDD4FF6FF7323
:10031000C7F6EF739A4205DD02460B4601F0B0FBCB
:1003200006B0D0BD02AA00F063F800F00300012877
:1003300012D0022820D0B0B90123DDE902010093D8
:10034000DDE9042300F0B4FFEAE700230022009374
:10035000002300F0ADFFE3E7DDE90201DDE904235E
:1003600000F062FADCE7DDE90201DDE9042300F0D8
:100370005BFA01F10041D3E70123DDE902010093BB
:10038000DDE9042300F094FF01F10041C8E7C04615
:10039000D0B542F2FB1421F00042C3F6E974A24248
:1003A00086B006460F461BDD4FF6FF73C7F6EF73A8
:1003B0009A4205DD02460B4601F062FB06B0D0BD55
:1003C00002AA00F015F8DDE9042300F00100400066
:1003D000C0F101000090DDE9020101F021F8EDE734
:1003E000012300220093002301F01AF8E6E7C0463B
:1003F00042F2FB132DE9F04FC3F6E97321F00046FA
:100400008FB09E4204460D469046894640F3988040
:100410004DF67B13C4F202039E4226DC002940F312
:10042000F9808FA3D3E9002301F02AFB42F2FB13EA
:10043000C3F6F9739E4204460D4600F07D818AA3FF
:10044000D3E90023012701F01BFB02460B4620469F
:10045000C8E90023294601F013FB83A3D3E9002355
:1004600001F00EFBC8E9020171E042F2FB13C4F295
:1004700039139E426FDD4FF6FF73C7F6EF739E424E
:1004800000F3508134150DF1200AA4F5826704466B
:10049000063F3905731A19461D4601F03DFF01F06C
:1004A0003DFC02460B4620462946CDE9082301F0D3
:1004B000E7FA40F200030022C4F2701301F094FC4A
:1004C0000D46044601F028FF01F028FC02460B46C9
:1004D00020462946CDE90A2301F0D2FA40F2000372
:1004E0000022C4F27013554601F07EFC0324CDE9CE
:1004F0000C01D5E90401002200232646083D013CF9
:1005000001F0D8FE0028F4D15D4A02235046009342
:100510004146334601923A4600F0B6FAB9F1000F6F
:10052000074614DAD8F8043008F10802474203F10C
:100530000043C8F80430536803F10043536006E0F9
:100540000027C2E9004500230022C8E902233846FB
:100550000FB0BDE8F08F01F04BF945A3D3E90023BC
:1005600004460D4601F040FC40F200030022C3F6B1
:10057000E07301F087FA01F0CFFE074601F0CEFBF1
:100580003DA3D3E90023CDE9040101F02DFC02468F
:100590000B462046294601F075FA33A3D3E9002320
:1005A000CDE90601DDE9040101F01EFC1F2F8246A2
:1005B0008B4667DC47F658437A1EC0F6000353F8B3
:1005C0002210B1425ED0DDE9060152465B4601F0E1
:1005D00057FA04460D46C8E9004522462B46DDE998
:1005E000060108F1080601F04BFA52465B4601F09D
:1005F00047FAB9F1000FC8E90201A8DAD8F80430C7
:100600007F4203F10043C8F80430726802F10042EF
:1006100072609CE712A3D3E9002301F033FA42F29F
:10062000FB13C3F6F9739E4204460D4600F0A18009
:100630000DA3D3E900234FF0FF3701F023FA024660
:100640000B462046C8E90023294601F019FA06A303
:10065000D3E9002301F016FAC8E9020177E7C046A2
:1006600000004054FB21F93F3163621A61B4D03D70
:1006700083C8C96D305FE43F00004054FB21F9BFDF
:10068000D87C00085B46DDE906015246361501F0CC
:10069000F7F90B0D04460D46C8E900455B055B0DF7
:1006A000F31A102B99DD58A3D3E90023DDE90401E7
:1006B00001F09AFB04460D4622462B46DDE9060171
:1006C00001F0DEF9CDE90201DDE90223DDE90601F1
:1006D00001F0D6F922462B4601F0D2F94CA3D3E91A
:1006E000002304460D46DDE9040101F07DFB2246AE
:1006F0002B4601F0C5F982468B465B46DDE90201D7
:10070000524601F0BDF90B0D04460D46C8E90045FF
:100710005B055B0DF31A312B49DCDDE90223CDE9E2
:1007200006235AE702460B4601F0AAF90027C8E95A
:100730000201C8E900010AE733A3D3E90023012736
:1007400001F09EF932A3D3E9002304460D4601F0DF
:1007500097F902460B462046C8E90023294601F0D6
:100760008FF92BA3D3E9002301F08AF9C8E902012C
:10077000EDE625A3D3E900234FF0FF3701F082F91E
:1007800023A3D3E9002304460D4601F07BF902467A
:100790000B462046C8E90023294601F071F91CA345
:1007A000D3E9002301F06EF9C8E90201CFE61AA3EC
:1007B000D3E90023DDE9040101F016FB04460D46F0
:1007C00022462B46DDE9020101F05AF9CDE9060186
:1007D000DDE90623DDE9020101F052F922462B464C
:1007E00001F04EF90EA3D3E9002304460D46DDE9DE
:1007F000040101F0F9FA22462B4601F041F9824644
:100800008B46E0E6C046C0460000601A61B4D03DA9
:100810007370032E8A19A33B0000002E8A19A33B94
:10082000C14920259A837B392DE9F04F21F00046FC
:1008300087B0B6F1795FCDE90201CDE900236FDA27
:1008400001F06AFD002800F0EF80DDE902010246B8
:100850000B4601F0C9FA80A3D3E9002304460D46F4
:1008600001F0C2FA7EA3D3E9002301F00BF922467E
:100870002B4601F0B9FA7CA3D3E9002301F000F97B
:1008800022462B4601F0B0FA79A3D3E9002301F008
:10089000F9F822462B4601F0A7FA77A3D3E9002303
:1008A00001F0EEF822462B4601F09EFA74A3D3E93C
:1008B000002301F0E7F822462B4601F095FA824624
:1008C0008B4640F20003002220462946C3F6E0731F
:1008D00001F08AFA52465B46804689462046294600
:1008E00001F082FADDE9002304460D46DDE902014C
:1008F00001F07AFA02460B462046294601F0C0F87C
:1009000002460B464046494601F0BAF80B4640F213
:1009100000010246C3F6F071002001F0B1F880E05A
:10092000DDE9022301F060FA4BA3D3E9002304467A
:100930000D4601F059FA4AA3D3E9002301F0A2F8C9
:1009400022462B4601F050FA47A3D3E9002301F0D9
:1009500097F822462B4601F047FA45A3D3E9002336
:1009600001F090F822462B4601F03EFA42A3D3E96B
:10097000002301F085F822462B4601F035FA40A30A
:10098000D3E9002301F07EF82B46224601F02CFA31
:1009900043F23233C3F6D3739E4282468B4690DDD8
:1009A00040F20003C3F6E9739E4243DD40F20007C4
:1009B0000026C3F6D27740F200030022C3F6E773A5
:1009C000CDE9042340F20003204629460022C3F665
:1009D000E07301F009FA32463B4601F051F8524605
:1009E0005B46804689462046294601F0FDF9DDE94F
:1009F000002304460D46DDE9020101F0F5F9024647
:100A00000B462046294601F03BF802460B4640467D
:100A1000494601F035F802460B46DDE9040101F0D4
:100A20002FF807B0BDE8F08F40F200010020C3F6B8
:100A3000F071F6E740F20001A6F500130022002055
:100A4000C3F6F07116461F4601F01AF8CDE904010D
:100A5000B8E7C046C046C046D43888BEE9FAA8BD4B
:100A6000C4B1B4BD9EEE213EAD529C804F7E923EFD
:100A70009015CB19A001FA3E7751C1166CC1563FB3
:100A80004C5555555555A53F2DE9F04FADF5217DF8
:100A9000089347F6E0530A90C0F60003AA9809911C
:100AA000089953F8203001390C91D11E0D934AF664
:100AB000AB23C2F6AA230D9883FB0143C917C1EBF0
:100AC000A30121EAE1711291CB43D9005B015B1ACA
:100AD0000C999B180F93421819D4129B64AEAB98D3
:100AE0005C1AA718A300C51808E02868043501F0AF
:100AF00015F9BC42E6E8020109D00134002CF4DA11
:100B0000002000210435BC42E6E80201F5D10D9930
:100B10000029BCBF14AA05922EDB089814AB0D9CCB
:100B20009A46DDF8309004EB000B4FEAC0080593BD
:100B30000C9A002AC0F2698264AC4FEAC903E51836
:100B40000026002700240A990B190834D3E9000174
:100B500075E8022301F048F902460B463046394653
:100B600000F090FF444506460F46ECD109F101091B
:100B7000EAE80267D945DBD10D988CA9421E8300B3
:100B80000B90C918A0AB03EB8203029101930B9C5D
:100B900005980B99E400049403190029D3E9006730
:100BA0002EDD9A464FF0000840F200030022C3F603
:100BB00070633046394601F017F901F0ADFB01F0E2
:100BC000ADF840F200030022CCF2701304460D464B
:100BD00001F00AF932463B4600F054FF01F09CFB5D
:100BE0008CAA294642F8080020467AE9022308F137
:100BF000040800F047FF059B9A4506460F46D3D1EF
:100C0000304639460F9A00F093FE00224FF07F5392
:100C100004460D4601F0E8F800F0F2FD40F2000352
:100C20000022CCF2200301F0DFF802460B462046FA
:100C3000294600F027FF04460D4601F06DFB0E909B
:100C400001F06CF802460B462046294600F018FFDA
:100C50000F9C002C06460F4640F3B4810B99A0AAC6
:100C6000481EC4F118010E9C02EB800050F8502C75
:100C700052FA01F3E4180E948B40D21A40F8502C2B
:100C80000F98C0F1170352FA03F31093109800283D
:100C90003ADD0E990B9A01310E91002A40F3C8817A
:100CA0000B9B00242146980008E022B18CACC2F1D5
:100CB000807363500124043181420DD08CAB5A58AB
:100CC000002CF2D04FF6FF73C0F2FF039B1A8CAAE0
:100CD000535004318142F1D10F9B002B11DD012BC8
:100CE00000F07A81022B0CD10B99A0AB481E03EBCC
:100CF000800252F8503C23F07F4323F4400342F833
:100D0000503C109802287CD00022002330463946FF
:100D100001F0D0FA002800F09B800B990D9A481E34
:100D200082420CDC8B008CACE218002152F8043DAE
:100D30001943029B9A42F9D1002940F07D81019C20
:100D400054F8503C002B40F0C781029A012152F820
:100D5000083C0131043A002BF9D00B980918431CC8
:100D60008B42139147DC129964ACAB9A4B1C0499EB
:100D70001B189B0002EB030B089BC21805989246B8
:100D8000D300139A04EB0309089B40181190D21862
:100D90000392DBF8000000F0C1FF0C9B002BC9E9B7
:100DA00000012BDB64AC4FEACA030A9FE6184FF040
:100DB00000080024002576E8022308F10108F7E87E
:100DC000020101F011F802460B462046294600F0C8
:100DD00059FE04460C980D464045ECDA039A0AF198
:100DE000010A11990BF1040B924509F10809E1E997
:100DF00002451191CDD1139B0B93C8E60024002529
:100E0000ECE740F2000132463B460020C3F6F071A9
:100E100000F036FE06460F46002C3FF475AF40F258
:100E2000000100200F9AC3F6F07100F081FD024628
:100E30000B463046394600F023FE002200230646CA
:100E40000F463046394601F035FA00287FF465AF89
:100E500040F0F0800F9B304639465A4200F068FD62
:100E600040F200030022C4F2701306460F4601F060
:100E70003FFA002800F0EF8140F200030022C3F6A1
:100E800070633046394600F0AFFF01F045FA00F0DC
:100E900045FF40F200030022CCF2701389460B9903
:100EA0008046A0A800EB81044046494600F09CFF24
:100EB00002460B463046394600F0E4FD01F02CFABC
:100EC0000B9A0F9B494601320B9218330F9344F84B
:100ED000500CA0A800EB8204404601F01DFA44F833
:100EE000500C40F200010020C3F6F0710F9A00F0A0
:100EF0001FFD0B9B002B04460D465ADB0B989A00F6
:100F000005998CAB9F180DF14808C00004900E188D
:100F100057F8040900F002FF22462B4600F064FF58
:100F200040F200030022C3F6706366E80201204627
:100F3000294600F059FF464504460D46E8D1DDF844
:100F40002CA04FF000093CAA06920D980028C0F290
:100F5000B480B9F1000FC0F2B08005994FEACA031E
:100F6000DFF844830024CD180026002704E008356C
:100F7000A14508F1080811DBD5E900230134D8E9BF
:100F8000000100F031FF0B4602463946304600F0C2
:100F900079FD0D9BA34206460F46E8DA069C4FEA10
:100FA000C90309F10109E3181AF1FF3AC3E900671F
:100FB000CBD5AA9A032A79D8DFE812F05B000901A1
:100FC0000901900016D10B9AA0A901EB820353F8F6
:100FD000542CD215109259E60B99A0AB481E03EB86
:100FE000800252F8503C23F07F4323F4000342F880
:100FF000503C86E640F200030022C3F6E07301F0A5
:1010000077F960B9002310937EE609F10109002603
:101010000027D945EAE802677FF48AADACE50E996E
:1010200002240B9A01311094002A0E913FF738AE3A
:10103000002451E60B9C601E0B99A0AA0B900B9C00
:101040000F9802EB840318380F9053F8502C002AA5
:101050007FF447AF8A008CAB9A180B980F9952F81F
:10106000083C013818390B900F91043A002BF4D04A
:1010700037E70B9B002BC0F20A810B9C002000215C
:101080003CABE2009C183AAA079274E8022300F0F5
:10109000F9FC079B9C42F8D103460A46109C14B108
:1010A000184602F10041099AC2E900010E9901F0C7
:1010B00007000DF5217DBDE8F08F069C4FEAC903BE
:1010C00000260027E3181AF1FF3A09F10109C3E9E4
:1010D00000677FF53AAF6CE701213EE60B9B002BE2
:1010E000DCBF3CAC069440F3CF800B993CA83AAAF5
:1010F00006904B1E0792DB00C7183E46D6E90289D0
:10110000D6E9004542464B462046294600F0BAFC47
:1011100082468B4652465B462046294600F0B0FC8C
:101120000B4602464946404600F0ACFC079BC6E928
:10113000020166E802AB9E42E0D10B9C012C40F319
:10114000A380D7E90289D7E9004542464B462046AD
:10115000294600F097FC82468B4652465B46204665
:10116000294600F08DFC02460B464046494600F0F9
:1011700089FCC7E90201069867E802AB8742E0D123
:101180000B99002600273EADCB00C41830463946E7
:1011900074E8022300F076FCAC4206460F46F5D117
:1011A000109A002A62D0069B099C18461A68226091
:1011B0005B6803F1004363608268A260C3682661D4
:1011C00003F10043E36007F1004363616EE70B98AE
:1011D000002861DB0B9C3CAB00253AA80693E40099
:1011E00004941E19002407902046294676E802231D
:1011F00000F048FC0D46079904468E42F4D1214682
:101200002846109A12B1214605F100400346069A7D
:1012100008461946099BC3E900012B46D2E90001A3
:10122000224600F02DFC0B9B002B08DD069CDA000B
:10123000A518F4E9022300F025FCAC42F9D1109B7B
:1012400005460C460BB101F100442146099C284695
:10125000C4E902012AE70B9AA0A9304601EB8204F7
:10126000394601F059F844F8500C3AE6069C0998C2
:10127000D4E90023C0E90023099AD4E90201C2E9B4
:101280000467C2E9020111E70026002788E700236E
:1012900000201A46002101E700213CAA0024002575
:1012A00008460692ADE7C046F07D00080000000049
:1012B0002DE9F04F21F0004485B0B4F1795F80460C
:1012C0008946CDE9022303DA01F026F800286FD021
:1012D00042464B464046494600F086FD42464B4654
:1012E00006460F4600F080FD41A3D3E90023CDE977
:1012F00000013046394600F077FD3FA3D3E90023D3
:1013000000F0BEFB32463B4600F06EFD3CA3D3E945
:10131000002300F0B7FB32463B4600F065FD3AA3E0
:10132000D3E9002300F0ACFB32463B4600F05CFD05
:1013300037A3D3E9002300F0A5FB0E9B82468B4622
:10134000002B3AD040F200030022C3F6E073DDE93F
:10135000020100F049FD52465B4604460D46DDE9B8
:10136000000100F041FD02460B462046294600F0F0
:1013700087FB32463B4600F037FDDDE9022300F0F3
:101380007FFB25A3D3E9002304460D46DDE90001D8
:1013900000F02AFD02460B462046294600F072FB6B
:1013A00002460B464046494600F06AFB80468946A5
:1013B0004046494605B0BDE8F08F52465B46304690
:1013C000394600F011FD14A3D3E9002300F058FBC7
:1013D000DDE9002300F008FD02460B464046494681
:1013E00000F050FB80468946E2E7C046C046C04652
:1013F0007CD5CF5A3AD9E53DEB9C2B8AE6E55A3E9F
:101400007DFEB157E31DC73ED561C119A0012A3F3A
:10141000A6F810111111813F495555555555C53F35
:101420002DE9F04F1F464FF6FF731646C3F62F63A4
:1014300021F0004289B09A42CDE904010791069259
:101440001DDC00F069FF00283ED1DDE90423069988
:10145000129B41EA0202591C114300F0AA81129921
:10146000012900F0288140F20001DDE90423002079
:10147000CBF6F07100F0E2FDCDE904011BE149F289
:101480002743069AC3F6E5739A421DDD079B002B9E
:10149000C0F29F81DDE9042389A1D1E9000100F0B8
:1014A000EFFA32463B460026002704460D4686A149
:1014B000D1E9000100F0E4FA02460B462046294635
:1014C00000F0E0FACDE90401DDE9040102460B4633
:1014D00000F08AFC8046894642464B4600F084FC78
:1014E000DDE9042304460D464046494600F07CFCF5
:1014F00077A3D3E90023CDE902012046294600F075
:1015000073FC75A3D3E9002300F0BCFA22462B46F6
:1015100000F06AFC72A3D3E9002300F0B3FA22467C
:101520002B4600F061FC70A3D3E9002300F0AAFA77
:1015300022462B4600F058FC6DA3D3E9002300F0AF
:10154000A1FA22462B4600F04FFC6BA3D3E90023FF
:1015500000F098FA6AA3D3E9002382468B4620461E
:10156000294600F041FC68A3D3E9002300F08AFA81
:1015700022462B4600F038FC65A3D3E9002300F097
:1015800081FA22462B4600F02FFC63A3D3E9002307
:1015900000F078FA22462B4600F026FC60A3D3E93F
:1015A000002300F06FFA22462B4600F01DFC5EA3DC
:1015B000D3E9002300F066FA42464B4600F014FCE3
:1015C00002460B465046594600F05CFADDE902231C
:1015D00000F00AFC32463B4600F054FA42464B46C5
:1015E00000F002FC32463B4600F04CFA50A3D3E92F
:1015F000002304460D46DDE9020100F0F5FB22461A
:101600002B4600F03FFACDE90001DDE90023DDE9DA
:10161000040100F037FA49F22743069AC3F6E5734E
:101620009A4206460F4600F387801299012900F07E
:10163000DB8040F2000132463B460020CBF6F071E1
:10164000002400F0FBFC3D46DDE90423BB46A24636
:10165000A0460F46064689462046294600F010FA65
:1016600002460B46DDE9000100F00AFA02460B468D
:101670002046394600F0B8FB52465B4604460D460C
:101680005046394600F0B0FB40F200030022C3F69A
:10169000F07300F0F7F902460B462046294600F0A9
:1016A000F1F932463B4600F09FFB52463B4600F0C4
:1016B000E9F9CDE90401DDE9040109B0BDE8F08FE5
:1016C000182D4454FB21E93F075C143326A6813CC6
:1016D000735360DBCB75F3BEA69237A0887E143FB0
:1016E0000165F2F2D844433F280356C9226D6D3F8D
:1016F00037D60684F464963F7AFE10111111C13F6B
:10170000D47ABF74702AFB3EE9A7F0320FB8123FBB
:1017100068108D1AF726303F1583E0FEC8DB573F6F
:1017200093846EE9E326823FFE41B31BBAA1AB3F2F
:10173000635555555555D53F129800F0EFFA32468E
:101740003B46804689463046394600F04DFB4246CE
:101750004B4604460D463046394600F093F90246A2
:101760000B462046294600F069FCDDE9002300F025
:1017700087F902460B46DDE9040100F081F90022F9
:101780004FF0404300F030FB42464B4600F07AF900
:10179000079B0446981700F002000D46C0F10100B7
:1017A00000F0BCFA22462B4600F01EFBCDE90401F6
:1017B00081E7DDE9040100F01BF80B4640F200016F
:1017C0000246C3F6F071002000F038FCCDE90401B8
:1017D00071E704990A46059901F10043CDE9042314
:1017E00007F100431F4655E6CDE9046763E7C046AD
:1017F00021F0004330B40D460446194630BC704712
:101800000B152DE9F04F5B0583B006465B0D0F46C7
:10181000A3F57E748046073C8946132C0D468A4604
:10182000834624DC002C48DB4FF6FF73C0F20F0325
:101830002341019303EA0102024313D03AA3D3E9FF
:10184000002300F01FF90022002300F05BFD0028B8
:1018500042D0002F4EDB019A0021D3430AEA030055
:101860000E4607463046394603B0BDE8F08F332CAC
:1018700009DDB4F5806FF5D102460B4600F002F9A0
:1018800006460F46EEE74FF0FF33A4F1140233FA99
:1018900002F50542E6D024A3D3E9002300F0F2F8D4
:1018A0000022002300F02EFDB0B1002F17DB4246CE
:1018B000EB43504602EA0301D2E71BA3D3E900231E
:1018C00000F0E0F80022002300F01CFD20B1002F02
:1018D00016DB00200146C3E748464146C0E7142C0A
:1018E0001ED00123C4F1340293409A1928BF07F196
:1018F000010ADDE74FF48013234107EB030AAAE74F
:1019000027F0004240F2000342EA0602CBF6F073F1
:10191000002A0CBF384618460CBF114600219FE72D
:1019200007F1010AC3E7C0469C7500883CE4377E96
:1019300040F200038C46C7F6F07301EA03032DE979
:10194000F041904606460F4604460D461A15002BF8
:1019500033D121F0004303432BD040F20003002297
:10196000C4F2503300F040FA43F6B043CFF6FF73B1
:10197000984506460F4639DB40F200038C46C7F611
:10198000F07301EA03031B15A3F1360202EB080012
:1019900040F2FE73984231DC0028C1BF2CF0FE41BA
:1019A000324621F470011646C4BF41EA00531F4677
:1019B0000EDD30463946BDE8F08140F2FF739A42B1
:1019C000E4D102460B4600F05DF806460F46F0E70C
:1019D00010F1350F21DA4CF2503398450EDC1AA184
:1019E000D1E9000132463B4600F036F816A3D3E9B0
:1019F000002300F0F9F906460F46DAE732463B4687
:101A000013A1D1E9000100F027F811A3D3E90023C5
:101A100000F0EAF906460F46CBE700F136022CF05B
:101A2000FE4323F47003304643EA025540F20003BC
:101A300029460022C3F69043344600F0D5F9064605
:101A40000F46B6E7C046C04659F3F8C21F6EA5015F
:101A50009C7500883CE4377E21F0004203F000438F
:101A60002DE9300343EA02058946804604462946AB
:101A7000BDE830037047C04681F0004102E0C04637
:101A800083F0004330B54FEA41044FEA430594EA3E
:101A9000050F08BF90EA020F1FBF54EA000C55EA79
:101AA000020C7FEA645C7FEA655C00F0E2804FEA4A
:101AB0005454D4EB5555B8BF6D420CDD2C4480EA2C
:101AC000020281EA030382EA000083EA010180EA5C
:101AD000020281EA0303362D88BF30BD11F0004FAA
:101AE0004FEA01314FF4801C4CEA113102D04042E0
:101AF00061EB410113F0004F4FEA03334CEA13331B
:101B000002D0524263EB430394EA050F00F0A78032
:101B1000A4F10104D5F1200E0DDB02FA0EFC22FA2D
:101B200005F2801841F1000103FA0EF2801843FA21
:101B300005F359410EE0A5F120050EF1200E012A12
:101B400003FA0EFC28BF4CF0020C43FA05F3C01850
:101B500051EBE37101F0004507D54FF0000EDCF1C9
:101B6000000C7EEB00006EEB0101B1F5801F1BD372
:101B7000B1F5001F0CD349085FEA30004FEA3C0C76
:101B800004F101044FEA445212F5800F80F09A806C
:101B9000BCF1004F08BF5FEA500C50F1000041EB70
:101BA000045141EA050130BD5FEA4C0C404141EB74
:101BB000010111F4801FA4F10104E9D191F0000F9B
:101BC00004BF01460020B1FA81F308BF2033A3F11E
:101BD0000B03B3F120020CDA0C3208DD02F1140C15
:101BE000C2F10C0201FA0CF021FA02F10CE002F150
:101BF0001402D8BFC2F1200C01FA02F120FA0CFC49
:101C0000DCBF41EA0C019040E41AA2BF01EB045191
:101C1000294330BD6FEA04041F3C1CDA0C340EDC8F
:101C200004F11404C4F1200220FA04F001FA02F3D2
:101C300040EA030021FA04F345EA030130BDC4F190
:101C40000C04C4F1200220FA02F001FA04F340EA85
:101C50000300294630BD21FA04F0294630BD94F036
:101C6000000F83F4801306BF81F480110134013D1D
:101C70004EE77FEA645C18BF7FEA655C29D094EA8E
:101C8000050F08BF90EA020F05D054EA000C04BF0C
:101C90001946104630BD91EA030F1EBF00210020F7
:101CA00030BD5FEA545C05D14000494128BF41F096
:101CB000004130BD14F580043CBF01F5801130BDFA
:101CC00001F0004545F0FE4141F470014FF0000085
:101CD00030BD7FEA645C1ABF194610467FEA655C36
:101CE0001CBF0B46024650EA013406BF52EA0335D8
:101CF00091EA030F41F4002130BDC04690F0000F7F
:101D000004BF0021704730B54FF4806404F1320401
:101D10004FF000054FF0000150E7C04690F0000F73
:101D200004BF0021704730B54FF4806404F13204E1
:101D300010F0004548BF40424FF000013EE7C0466A
:101D400042004FEAE2014FEA31014FEA02701FBF41
:101D500012F07F4393F07F4F81F06051704792F013
:101D6000000F14BF93F07F4F704730B54FF460748D
:101D700001F0004521F0004120E7C04650EA010291
:101D800008BF704730B54FF000050AE050EA010285
:101D900008BF704730B511F0004502D5404261EBF5
:101DA00041014FF4806404F132045FEA915C3FF436
:101DB000DCAE4FF003025FEADC0C18BF03325FEACF
:101DC000DC0C18BF033202EBDC02C2F1200300FA84
:101DD00003FC20FA02F001FA03FE40EA0E0021FAA9
:101DE00002F11444C1E6C04670B54FF0FF0C4CF44C
:101DF000E06C1CEA11541DBF1CEA135594EA0C0F49
:101E000095EA0C0F00F0DEF82C4481EA030621EA83
:101E10004C5123EA4C5350EA013518BF52EA0335BE
:101E200041F4801143F4801338D0A0FB02CE4FF070
:101E30000005E1FB02E506F00042E0FB03E54FF0A0
:101E40000006E1FB03569CF0000F18BF4EF0010E98
:101E5000A4F1FF04B6F5007F64F5407404D25FEA94
:101E60004E0E6D4146EB060642EAC62141EA555147
:101E70004FEAC52040EA5E504FEACE2EB4F1FD0C89
:101E800088BFBCF5E06F1ED8BEF1004F08BF5FEA07
:101E9000500E50F1000041EB045170BD06F00046B9
:101EA00046EA010140EA020081EA0301B4EB5C0466
:101EB000C2BFD4EB0C0541EA045170BD41F480115E
:101EC0004FF0000E013C00F3AB8014F1360FDEBF83
:101ED000002001F0004170BDC4F10004203C35DA5F
:101EE0000C341BDC04F11404C4F1200500FA05F3E2
:101EF00020FA04F001FA05F240EA020001F0004283
:101F000021F0004110EBD37021FA04F642EB0601F8
:101F10005EEA430E08BF20EAD37070BDC4F10C0422
:101F2000C4F1200500FA04F320FA05F001FA04F2E6
:101F300040EA020001F0004110EBD37041F10001D2
:101F40005EEA430E08BF20EAD37070BDC4F12005DD
:101F500000FA05F24EEA020E20FA04F301FA05F245
:101F600043EA020321FA04F001F0004121FA04F2ED
:101F700020EA020000EBD3705EEA430E08BF20EABD
:101F8000D37070BD94F0000F0FD101F000464000F7
:101F900041EB010111F4801F08BF013CF7D041EA79
:101FA000060195F0000F18BF704703F0004652007D
:101FB00043EB030313F4801F08BF013DF7D043EA4E
:101FC0000603704794EA0C0F0CEA135518BF95EA04
:101FD0000C0F0CD050EA410618BF52EA4306D1D18B
:101FE00081EA030101F000414FF0000070BD50EAAA
:101FF000410606BF1046194652EA430619D094EA34
:102000000C0F02D150EA013613D195EA0C0F05D11D
:1020100052EA03361CBF104619460AD181EA030171
:1020200001F0004141F0FE4141F470014FF0000029
:1020300070BD41F0FE4141F4780170BD70B54FF0C4
:10204000FF0C4CF4E06C1CEA11541DBF1CEA135544
:1020500094EA0C0F95EA0C0F00F0A7F8A4EB050426
:1020600081EA030E52EA03354FEA013100F088801D
:102070004FEA03334FF0805545EA131343EA1263E6
:102080004FEA022245EA111545EA10654FEA00269B
:102090000EF000419D4208BF964244F1FD0404F554
:1020A000407402D25B084FEA3202B61A65EB0305B0
:1020B0005B084FEA32024FF480104FF4002CB6EB6D
:1020C000020E75EB030E22BFB61A754640EA0C00ED
:1020D0005B084FEA3202B6EB020E75EB030E22BF2D
:1020E000B61A754640EA5C005B084FEA3202B6EB6E
:1020F000020E75EB030E22BFB61A754640EA9C002D
:102100005B084FEA3202B6EB020E75EB030E22BFFC
:10211000B61A754640EADC0055EA060E18D04FEABA
:10212000051545EA16754FEA06164FEAC30343EA5A
:1021300052734FEAC2025FEA1C1CC0D111F4801F27
:102140000BD141EA00014FF000004FF0004CB6E720
:1021500011F4801F04BF01430020B4F1FD0C88BFBF
:10216000BCF5E06F3FF6AFAEB5EB030C04BFB6EBCA
:10217000020C5FEA500C50F1000041EB045170BDBD
:102180000EF0004E4EEA113114EB5C04C2BFD4EBEA
:102190000C0541EA045170BD41F480114FF0000E6E
:1021A000013C90E645EA060E8DE60CEA135594EAEA
:1021B0000C0F08BF95EA0C0F3FF43BAF94EA0C0FED
:1021C0000AD150EA01347FF434AF95EA0C0F7FF462
:1021D00025AF104619462CE795EA0C0F06D152EAB6
:1021E00003353FF4FDAE1046194622E750EA41069A
:1021F00018BF52EA43067FF4C5AE50EA41047FF4AB
:102200000DAF52EA43057FF4EBAE12E74FF0FF3C0F
:1022100006E0C0464FF0010C02E0C0464FF0010C52
:102220004DF804CC4FEA410C7FEA6C5C4FEA430C5A
:1022300018BF7FEA6C5C1AD050EA410C0CBF52EA1E
:10224000430C91EA030F02BF90EA020F002070478F
:1022500010F1000F91EA030F58BF994208BF904256
:102260002CBFD8176FEAE37040F0010070474FEAC7
:10227000410C7FEA6C5C02D150EA013C07D14FEA85
:10228000430C7FEA6C5CD7D152EA033CD4D05DF8B2
:10229000040C70478446104662468C4619466346D5
:1022A00000E0C04601B5FFF7B9FF002848BF10F1B4
:1022B000000F01BD4DF808EDFFF7F4FF0CBF012042
:1022C00000205DF808FBC0464DF808EDFFF7EAFF77
:1022D00034BF012000205DF808FBC0464DF808ED32
:1022E000FFF7E0FF94BF012000205DF808FBC04627
:1022F0004DF808EDFFF7CEFF94BF012000205DF8F8
:1023000008FBC0464DF808EDFFF7C4FF34BF0120BD
:1023100000205DF808FBC0464FEA410212F50012AA
:1023200015D211D56FF47873B3EB625212D94FEA1C
:10233000C12343F0004343EA505311F0004F23FA06
:1023400002F018BF404270474FF00000704750EA5B
:10235000013005D111F0004008BF6FF00040704718
:102360004FF000007047C0464A0011D212F500122B
:1023700011D20DD56FF47873B3EB62520ED44FEADD
:10238000C12343F0004343EA505323FA02F070475D
:102390004FF00000704750EA013002D14FF0FF309B
:1023A00070474FF0000070474FEA4102B2F1E0433E
:1023B00024BFB3F5001CDCF1FE5C0DD901F0004C2C
:1023C0004FEAC0024CEA5070B2F1004F40EB83007C
:1023D00008BF20F00100704711F0804F21D113F1A8
:1023E0003872BCBF01F00040704741F480114FEAE1
:1023F0005252C2F11802C2F1200C10FA0CF320FA6A
:1024000002F018BF40F001004FEAC1234FEAD32386
:1024100003FA0CFC40EA0C0023FA02F34FEA4303F0
:10242000CCE77FEA625307D150EA01331EBF4FF079
:10243000FE4040F44000704701F0004040F0FE4094
:1024400040F400007047C04680F0004002E0C04603
:1024500081F0004142001FBF5FEA410392EA030F8F
:102460007FEA226C7FEA236C6AD04FEA1262D2EBD9
:102470001363C1BFD218414048404140B8BF5B42DE
:10248000192B88BF704710F0004F40F4000020F077
:102490007F4018BF404211F0004F41F4000121F08D
:1024A0007F4118BF494292EA030F3FD0A2F10102D7
:1024B00041FA03FC10EB0C00C3F1200301FA03F115
:1024C00000F0004302D5494260EB4000B0F5000F38
:1024D00013D3B0F1807F06D340084FEA310102F1F7
:1024E0000102FE2A51D2B1F1004F40EBC25008BFA9
:1024F00020F0010040EA03007047490040EB000073
:1025000010F4000FA2F10102EDD1B0FA80FCACF1A1
:10251000080CB2EB0C0200FA0CF0AABF00EBC250A0
:1025200052421843BCBFD0401843704792F0000F8E
:1025300081F4000106BF80F400000132013BB5E7E1
:102540004FEA41037FEA226C18BF7FEA236C21D057
:1025500092EA030F04D092F0000F08BF08467047BC
:1025600090EA010F1CBF0020704712F07F4F04D18A
:10257000400028BF40F00040704712F100723CBF9D
:1025800000F50000704700F0004343F0FE4040F4C7
:10259000000070477FEA226216BF08467FEA236385
:1025A0000146420206BF5FEA412390EA010F40F470
:1025B000800070474FF0000304E0C04610F0004375
:1025C00048BF40425FEA000C08BF704743F09643A3
:1025D00001464FF000001CE050EA010208BF7047BE
:1025E0004FF000030AE0C04650EA010208BF7047FE
:1025F00011F0004302D5404261EB41015FEA010C5A
:1026000002BF84460146002043F0B64308BFA3F151
:102610008053A3F50003BCFA8CF2083AA3EBC25333
:1026200010DB01FA02FC634400FA02FCC2F1200252
:10263000BCF1004F20FA02F243EB020008BF20F089
:102640000100704702F1200201FA02FCC2F12002EF
:1026500050EA4C0021FA02F243EB020008BF20EAE4
:10266000DC7070474FF0FF0C1CEAD0521EBF1CEA12
:10267000D15392EA0C0F93EA0C0F6FD01A4480EA00
:10268000010C400218BF5FEA41211ED04FF00063E9
:1026900043EA501043EA5111A0FB01310CF0004015
:1026A000B1F5000F3EBF490041EAD3715B0040EA3B
:1026B000010062F17F02FD2A1DD8B3F1004F40EB0B
:1026C000C25008BF20F00100704790F0000F0CF0DE
:1026D000004C08BF49024CEA502040EA51207F3AA2
:1026E000C2BFD2F1FF0340EAC250704740F400007D
:1026F0004FF00003013A5DDC12F1190FDCBF00F06E
:1027000000407047C2F10002410021FA02F1C2F11B
:10271000200200FA02FC5FEA310040F1000053EAB7
:102720004C0308BF20EADC70704792F0000F00F005
:10273000004C02BF400010F4000F013AF9D040EA0B
:102740000C0093F0000F01F0004C02BF490011F49F
:10275000000F013BF9D041EA0C018FE70CEAD1539D
:1027600092EA0C0F18BF93EA0C0F0AD030F0004C1D
:1027700018BF31F0004CD8D180EA010000F00040D1
:10278000704790F0000F17BF90F0004F084691F08F
:10279000000F91F0004F14D092EA0C0F01D14202C9
:1027A0000FD193EA0C0F03D14B0218BF084608D192
:1027B00080EA010000F0004040F0FE4040F40000DC
:1027C000704740F0FE4040F4400070474FF0FF0C6F
:1027D0001CEAD0521EBF1CEAD15392EA0C0F93EAB6
:1027E0000C0F69D0A2EB030280EA010C49024FEA08
:1027F000402037D04FF0805343EA111143EA1013C1
:102800000CF000408B4238BF5B0042F17D024FF478
:10281000000C8B4224BF5B1A40EA0C00B3EB510F53
:1028200024BFA3EB510340EA5C00B3EB910F24BF3C
:10283000A3EB910340EA9C00B3EBD10F24BFA3EBC1
:10284000D10340EADC001B0118BF5FEA1C1CE0D189
:10285000FD2A3FF650AF8B4240EBC25008BF20F03C
:10286000010070470CF0004C4CEA50207F32C2BF90
:10287000D2F1FF0340EAC250704740F400004FF02D
:102880000003013A37E792F0000F00F0004C02BF5E
:10289000400010F4000F013AF9D040EA0C0093F028
:1028A000000F01F0004C02BF490011F4000F013B82
:1028B000F9D041EA0C0195E70CEAD15392EA0C0FEA
:1028C00008D142027FF47DAF93EA0C0F7FF470AF22
:1028D000084676E793EA0C0F04D14B023FF44CAF65
:1028E00008466EE730F0004C18BF31F0004CCAD1FA
:1028F00030F000427FF45CAF31F000437FF43CAF36
:102900005FE7C0464FF0FF3C06E0C0464FF0010CC9
:1029100002E0C0464FF0010C4DF804CC4FEA4002F3
:102920004FEA41037FEA226C18BF7FEA236C10D084
:1029300052EA530C18BF90EA010F58BFB2EB0300E4
:1029400088BFC81738BF6FEAE17018BF40F00100B8
:1029500070477FEA226C02D15FEA402C05D17FEA02
:10296000236CE5D15FEA412CE2D05DF8040C70479E
:10297000844608466146FFE70FB5FFF7CBFF002806
:1029800048BF10F1000F0FBD4DF808EDFFF7F4FF41
:102990000CBF012000205DF808FBC0464DF808ED93
:1029A000FFF7EAFF34BF012000205DF808FBC046B6
:1029B0004DF808EDFFF7E0FF94BF012000205DF81F
:1029C00008FBC0464DF808EDFFF7D2FF94BF012089
:1029D00000205DF808FBC0464DF808EDFFF7C8FF82
:1029E00034BF012000205DF808FBC04640F2000320
:1029F000C0F2FA534EF600521843CEF20002D060F5
:102A00007047C046C37810B4044673B902780121F8
:102A1000500902F01F0291404EF20013CEF2000363
:102A2000203043F8201010BC70474EF60053CEF211
:102A30000003DA684078D24302F4E062120A0F2100
:102A4000C2F10403D1409840A37822781940014391
:102A50004EF200130901CEF20003D318C9B283F875
:102A600000135409012302F01F0293404EF200109C
:102A7000CEF2000040F82430D5E7C04642684FF659
:102A8000FF6330B4CFF6F0730C681A400B79224321
:102A900042EA032242608568CC688A684FF2FD737F
:102AA000CFF6F17322431D404B792A4342EA430299
:102AB00082600B7CC46A013B24F47004DBB244EAFC
:102AC0000354C46230BC704721B9836823F001030A
:102AD00083607047836843F001038360F9E7C04671
:102AE00021B9836823F4807383607047836843F45B
:102AF00080738360F9E7C046836843F0080383600E
:102B00007047C0468068C00800F001007047C046AA
:102B1000836843F0040383607047C0468068800880
:102B200000F001007047C04621B9836823F4A00378
:102B300083607047836843F4A0038360F9E7C0466D
:102B4000092930B4944604461D46084620D942005F
:102B500012181E3A0723934015FA02F2E168DB438C
:102B60000B401343BCF1060FE3601FD9BCF10C0FFF
:102B70002AD94FEA8C026244413A1F23934010FA4B
:102B800002F2E16ADB430B401343E36230BC70475F
:102B9000420012180723934015FA02F22169DB4321
:102BA0000B401343BCF1060F2361DFD84FEA8C02C0
:102BB0006244053A1F23934010FA02F2616BDB4333
:102BC0000B4013436363E1E74FEA8C026244233A0C
:102BD0001F23934010FA02F2216BDB430B40134397
:102BE0002363D3E721B9836823F48013836070479C
:102BF000836843F480138360F9E7C04640B942F22A
:102C00000042C4F20102936823F40003936070470A
:102C100042F20042C4F20102936843F4000393605D
:102C2000F5E7C0460368002223F00103036040F289
:102C30000803C4F202039842026042608260C260EC
:102C400054D040F21C03C4F20203984257D040F221
:102C50003003C4F2020398425AD040F24403C4F253
:102C6000020398425DD040F25803C4F20203984236
:102C700033D040F26C03C4F2020398425AD040F2BF
:102C80008003C4F2020398425DD040F20843C4F2CC
:102C90000203984260D040F21C43C4F202039842FF
:102CA00063D040F23043C4F20203984266D040F24F
:102CB0004443C4F20203984269D040F25843C4F23C
:102CC0000203984201BF40F20042C4F2020253687C
:102CD00043F4702308BF5360704740F20002C4F20F
:102CE0000202536843F470235360F5E740F2000298
:102CF000C4F20202536843F00F035360ECE740F262
:102D00000002C4F20202536843F0F0035360E3E7A9
:102D100040F20002C4F20202536843F4706353604D
:102D2000DAE740F20002C4F20202536843F470434F
:102D30005360D1E740F20002C4F20202536843F448
:102D400070035360C8E740F20002C4F20202536805
:102D500043F070635360BFE740F20042C4F20202E6
:102D6000536843F00F035360B6E740F20042C4F2E9
:102D70000202536843F0F0035360ADE740F20042B3
:102D8000C4F20202536843F470635360A4E740F254
:102D90000042C4F20202536843F4704353609BE75D
:102DA00030B448F20F020568CFF6FF720B6A154087
:102DB0008A680C6913434A6923438C691343CA69BF
:102DC00023434C6A13438A6A234313432B43036010
:102DD000CA6842600B6883604A68C26030BC704752
:102DE0000023036043608360C360036143618361C8
:102DF000C3610362436283627047C04621B90368BE
:102E000023F0010303607047036843F0010303608C
:102E1000F9E7C04622B90268CB431340036070470C
:102E2000036841EA03030360F9E7C046406880B2E3
:102E30007047C04610F0805F15BF40F2004340F27B
:102E40000003C4F20203C4F2020314BF58605860C6
:102E50007047C04610F0805F15BF40F2004340F25B
:102E60000003C4F20203C4F2020314BF1B681B6810
:102E700003420CBF002001207047C046837970B424
:102E8000054643B340F20044C4F2010400682368DD
:102E9000C14301EA03032360626811402A7961603B
:102EA00002F1804202F582321368034313602E68F8
:102EB000A168F34303EA0101A160E2686879134065
:102EC0001028E36013D000F1804202F582321368CB
:102ED0003343136009E00379026803F1804303F58B
:102EE00082331968D2431140196070BC7047A368DF
:102EF0003343A360E2683243E260F6E740F2004306
:102F0000C4F2010319685A6910EA020308BF18469F
:102F100003D008420CBF00200120704740F200435C
:102F2000C4F201035861704742F20003C4F2020385
:102F30001A6802F0380210431860704742F200022B
:102F4000C4F20202136823F01003136011680843EF
:102F50001060704742F2000340F2231248F6AB11B2
:102F6000C4F20203C4F26752CCF6EF515A605960C2
:102F70007047C04642F20002C4F20202136943F0F5
:102F8000800313617047C04642F20003C4F202039B
:102F9000D860704730B442F20002C4F20202D36833
:102FA00082B013F0010F0AD1D36813F0040F32D0AE
:102FB000022300B90523184602B030BC7047002830
:102FC000F8D00025FF24114601950194019B2BB1F7
:102FD000019B013B0193019A002AF9D1CB6842F28F
:102FE000000213F0010FC4F2020208D1D36813F0FB
:102FF000040F08D0022301380028DBD0DBE710F1F2
:10300000FF30E1D1D6E7D36813F0100F0CBF0423D3
:1030100003230138F0E7D36813F0100F0CBF04232B
:103020000323C6E770B5002382B005460F200E4685
:103030000193FFF7AFFF042801D002B070BD42F248
:103040000004C4F202042369B2B243F00103236115
:103050000B302A80FFF79EFF04280AD00528ECD009
:10306000226941F6FE73C0F2000302EA0303236102
:10307000E3E7AB1C0193019A330C0B301380FFF78D
:1030800089FF0528ECD1D8E770B5054640F6FF70FA
:10309000FFF780FF042800D070BD42F20004C4F2A4
:1030A0000204236940F6FF7043F002032361656167
:1030B000236943F040032361FFF76CFF05281FBF1E
:1030C00041F6FD732269C0F20003134018BF23616B
:1030D000E2E7C0462DE9F003CD78064615F0100F63
:1030E00018BF8B78088805F00F0718BF1F4310F032
:1030F000FF0F29D034684FF0000C4FF001084FF05B
:103100000F0904E00CF1010CBCF1080F1BD008FA08
:103110000CF303EA00019942F4D14FEA8C0209FA58
:1031200002F317FA02F2DB432340282D43EA02049C
:1031300008BF7161E6D0482D0CF1010C08BF316168
:10314000BCF1080FE3D13460FF282BD974684FF02D
:10315000000C4FF001084FF00F0904E00CF1010CD6
:10316000BCF1080F1DD00CF1080308FA03F303EAC1
:1031700000019942F2D14FEA8C0209FA02F317FAE0
:1031800002F2DB432340282D43EA020408BF7161A9
:10319000E4D0482D0CF1010C08BF3161BCF1080FDF
:1031A000E1D17460BDE8F0037047C04683681942FE
:1031B0000CBF0020012070470161704741617047DA
:1031C0000AB9416170470161FCE7C04640F2000264
:1031D00000F44013C4F201024FEA004CB3F5401F63
:1031E00010B44FEA1C4C0C46516821D010F4801FDB
:1031F00015D000F47022120C03239340DB430B40E4
:1032000043F0706124B1430D1B010CFA03F3194321
:1032100040F20003C4F20103596010BC7047430D33
:103220001B010CFA03F3DB430B4043F07061E9E749
:10323000536821F0706123F070635360E2E7C04689
:1032400030B401F00305AD000F23AB40A84089085E
:1032500040F20002C4F20102023152F82140DB4385
:10326000234042F8213052F82140204342F8210007
:1032700030BC704731B9038823F001031B041B0CD9
:103280000380704703889BB243F001030380F8E793
:1032900031B9038823F480731B041B0C038070472F
:1032A00003889BB243F480730380F8E731B9038845
:1032B00023F400731B041B0C0380704703889BB22C
:1032C00043F400730380F8E731B9038823F4806383
:1032D0001B041B0C0380704703889BB243F480637C
:1032E0000380F8E701827047008AC0B27047C04689
:1032F0001AB901F0FE010182704741F00101FAE7BD
:103300000346808A1A8B80B240EA024020F07F4058
:10331000884214BF002001207047C04670B586B0B7
:103320000546848801A80E4600F020F903984DF662
:103330008363C4F21B33A3FB001324F03F04240473
:10334000240C4FEA934E4EEA0404AC802B8831687B
:1033500023F001031B041B0C2B8048F2A063C0F276
:103360000103994224D84B00B0FBF3F39BB20EF15A
:1033700001022A84032B8CBF18460420A8832A88C4
:1033800092B242F001022A802B88728923F4806372
:10339000B18823F00A031B040A431B0C13439BB29E
:1033A0002B803289B3891A4392B22A8106B070BD4C
:1033B000F2884BF6FF739A4223D0CA004B019B1A46
:1033C0005B18B0FBF3F39BB243F4804213051B0D73
:1033D0000BB942F0010242F400404FEA8E014FEA7D
:1033E0000E1289180B0144F6D3525B1AC1F2620225
:1033F00082FB0312DB17C3EBA21301339BB22B84B6
:10340000BCE74B005B18B0FBF3F39AB2DEE7C046B3
:1034100041F20001C4F202010B6843F001030B60AA
:103420004A6840F20003CFF2FF031A404A6008687E
:103430004FF6FF73CFF6F663184008600B6823F46D
:1034400080230B604A6822F4FE024A600B684FF446
:103450007F0223F0A0530B6000238A60CB62704789
:1034600041F20001C4F202010B68B0F5803F23F481
:1034700080330B600A6822F480220A6002BF0B6866
:1034800043F480330B6006D0B0F5802F03D10B6876
:1034900043F4A0230B60704782B0002341F2000187
:1034A0000193C4F202010868019B01330193019A60
:1034B000B2F5A06F02D010F4003FF4D041F2000347
:1034C000C4F202031868400C00F0010002B070471B
:1034D00041F20003C4F202035A6822F4741210434A
:1034E000084358607047C04640F26003C4F242236C
:1034F0001860704741F20003C4F202035A6822F0D8
:10350000030210435860704741F20003C4F2020303
:10351000586800F00C00704741F20003C4F2020347
:103520005A6822F0F00210435860704741F20003DD
:10353000C4F202035A6822F4E062104358607047F4
:1035400041F20002C4F20202536823F4605343EADA
:10355000C00353607047C04641F20003C4F2020347
:103560005A6822F4404210435860704741F200020A
:10357000C4F20202536830B403F00C03042B054676
:1035800001D0082B2ED041F20023C0F27A032B6029
:1035900041F20004C4F20204636840F2000003F048
:1035A000F003C2F200001B09C25C2968D1406960C7
:1035B000636803F4E0631B0AC25C31FA02F2AA609A
:1035C000636803F46053DB0AC25CD140E96063685E
:1035D00003F4404300EB9330027CB1FBF2F129612C
:1035E00030BC70475368526803F470139B0C0D2B6A
:1035F00020D0981C12F4803F01BF40F60013C0F2A7
:103600003D0343432B60C3D041F20001C4F20201E9
:10361000CA6ACB6A03F00F035C1C12F4803F0BD123
:1036200041F20023C0F27A03B3FBF4F303FB00F38F
:103630002B60ADE70620DDE7CB6ACA6A03F0F00332
:103640001B0941F2002102F470620133C0F27A01D9
:10365000120AB1FBF3F1023202FB01F2B2FBF4F207
:1036600002FB00F22A6093E741B941F20003C4F281
:1036700002035969C2430A405A61704741F200028D
:10368000C4F20202536940EA03035361F5E7C046FE
:1036900041B941F20003C4F202039969C2430A40EE
:1036A0009A61704741F20002C4F20202936940EA53
:1036B00003039361F5E7C04641B941F20003C4F248
:1036C0000203D969C2430A40DA61704741F200023D
:1036D000C4F20202D36940EA0303D361F5E7C046AE
:1036E0004309012B02BF41F20003C4F202031B682D
:1036F0000CD0022B0BBF41F2000341F20003C4F2D5
:103700000203C4F202030CBF1B6A5B6A00F01F00D5
:1037100033FA00F000F001007047C046028810B490
:1037200002F08F0202800388CA880C469BB2498847
:1037300013430B439BB20380A2888285238842F601
:103740000042038543F20043C4F20103C4F20102C4
:10375000984214BF00230123904208BF43F00103A5
:103760000BB1237A03864FF00103838210BC7047AC
:1037700031B9038823F001039B059B0D038070473B
:1037800003889BB243F001030380F8E72AB98389D9
:10379000CA439BB213408381704783899BB241EA3D
:1037A00003038381F8E7C04681847047808C80B230
:1037B0007047C046038A828919420CBF002001204D
:1037C00011420CBF002000F001007047C94389B2CC
:1037D0000182704731B9838923F400531B041B0C09
:1037E0008381704783899BB243F400538381F8E758
:1037F000CBB24FEA531C01F01F01012310B4144651
:1038000013FA01F29C4511D0BCF1020F07D014301D
:1038100044B90368D2431340036010BC70471030B2
:10382000002CF6D0036813430360F6E70C30EFE793
:103830002AB9838ACA439BB2134083827047838A22
:103840009BB241EA03038382F8E7C046C905C90D6C
:1038500081807047038819420CBF00200120704707
:10386000C94389B201807047CBB24FEA531C01F0C3
:103870001F02012313FA02F29C4502BF83899BB207
:1038800002EA030C0BD0BCF1020F0BBF038A838A40
:103890009BB29BB20CBF02EA030C02EA030C090ABA
:1038A00001228A4003889BB21A420CBF00200120EB
:1038B000BCF1000F0CBF002000F001007047C046B3
:1038C000038ACA8823F440531B041B0C134303824E
:1038D00070B50C468189A3882289064621F4B0512F
:1038E00060891A4321F00C0102430904090C92B2C9
:1038F0000A43B281B38AA28923F440731B041B0CD0
:10390000134386B0B38201A8FFF730FE43F60003ED
:10391000C4F201039E420CBF0499039948F21F555B
:10392000CA004B019B1A22685B189200B3FBF2F3AA
:10393000C5F2EB15A5FB03246409240122099100BB
:1039400012018918880009185B1A1B013233A5FB84
:1039500003235B0903F00F0323439BB2338106B0BB
:1039600070BDC04610B54FF40040FFF7C7FA48B12C
:1039700040F22803C2F200031A7822B94FF4004043
:10398000FFF7CCFA10BD40F27C04C2F200042046DE
:1039900000F0F6FF0028F1D044F22021C2F200012D
:1039A0004FF0010322788B82637843EA02230B8273
:1039B000A278E37843EA0223CB812279637943EA50
:1039C00002235B424B82D9E770B54FF08040012162
:1039D000FFF7F0FE60B144F2B803C2F2000393F8BF
:1039E000B850012D05D04FF080400121FFF7EEFEC9
:1039F00070BD44F2A603C2F200031A88002AF2D076
:103A000040F21C04C2F200042378002BEBD0002308
:103A1000237001F0C9FB2570E5E7C04610B504200E
:103A2000FFF718FA68B90220FFF714FA40B140F224
:103A30002403C2F2000301221A600220FFF7FAF900
:103A400010BD40F22003C2F2000301221A600420DC
:103A5000FFF7F0F9E7E7C0462DE9F04F44F22027E1
:103A60004FF00003C2F2000744F2A608BB81BB82FC
:103A700085B0C2F20008A8F8003002F051FA00F058
:103A8000F7FA002340F27C02C2F200021946D15438
:103A900001330A2BFBD148F280530022C0F22203EB
:103AA000004601329A42FBD14AF2601400250DF122
:103AB0000F06C0F20804304600F0CEFF034640B9BE
:103AC0000A2D06D0184600460130A042FBD1013530
:103AD000F1E74EF220430022C0F219030046013202
:103AE0009A42FBD14FF4004344F2B8040193002200
:103AF0000C23012501A8C2F200048DF809308DF8CD
:103B000008208DF80A50FFF7B9F994F8B730002B68
:103B100040F0A080A8F8005042F200400121C4F219
:103B20000100FFF701F894F8B83044F2B802012B15
:103B3000C2F2000203D192F8B90000F0ADFC40F2ED
:103B40000040C4F200000021FFF72EFE40F20040CA
:103B5000C4F20000012140F26C0640F26F0544F20D
:103B6000682A40F2350940F28604FFF701FEC2F2EE
:103B70000006C2F20005C2F2000AC2F20009C2F257
:103B800000044FF0000B04E003F0B6FC3378002B88
:103B90003AD140F28600C2F2000000F05FF800283F
:103BA000F2D0B8F80030002BEED04FF00103BB810B
:103BB000238844F278105B42FB80638844F2202122
:103BC0003B81A388C2F200005B427B812389C2F261
:103BD00000013B80E3887B806389BB8003F004FAAB
:103BE00040F60040C4F201002021FFF7DFFA48B39D
:103BF00040F60040C4F201002021FFF7DFFA03F095
:103C00007BFC3378002BC4D02B789A001801801AE3
:103C1000C01A8000504401F0BFFC2B780133DBB2A6
:103C20002B702A78132A82BF40F26F03C2F200037E
:103C300083F800B02A7899F800309A4208BF86F8D5
:103C400000B0A6E740F60040C4F201002021FFF7D3
:103C5000B3FA99E700F050F95EE7C0462DE9F04F5E
:103C600040F22002C2F2000213688FB082461BB9F4
:103C70005068002800F0CE80136840F22001C2F2A4
:103C80000001002B40F0C9804B6040F21403C2F2E7
:103C900000035B68002206AC1146A1500432202AC2
:103CA000FBD1069C079D089E099FDDF828C0DDF822
:103CB0002C80184603F5005981890388A4F5006219
:103CC0009BB2D4184388A5F500629BB2D5188388AF
:103CD000A6F500629BB2D618C38889B29BB2DB19E5
:103CE0005F1A038906949BB26344C1EB030C4389BA
:103CF00010309BB24344C1EB030848450795089632
:103D00000997CDF828C0CDF82C80D5D16A11631160
:103D100092B29BB202927A11019397B273114FEA59
:103D200068129BB294B244F2B802C2F2000203934A
:103D300001984FEA6C139DB2138880B2C31AAAF897
:103D40000030029B04909BB20593059853881FFA9C
:103D500087FBC31AAAF80230039B1FFA85F91FFAE2
:103D600083FC93880C99C3EB0C03AAF80430D38A24
:103D70001FFA84F8C3EB0B03AAF80630938A4911A3
:103D8000C3EB0903AAF80830138BAAF80C10C3EB95
:103D90000803AAF80A3040F29603C2F200031A8818
:103DA000DAB144F2B403C2F20003188840F2980179
:103DB000C2F2000101300A6880B218803BB29B1841
:103DC0000B604B682AB2D2184A608A6823B29B18EB
:103DD000B0F5FA7F8B6000F0818040F29403C2F26C
:103DE00000031A88AAB144F2A406C2F2000633887E
:103DF000DBB9019A44F2A803C2F200031A800298C8
:103E0000039A58809A80DF801D815C81338801335A
:103E1000338001200FB0BDE8F08F40F21403002280
:103E2000C2F200030A601B6834E7C82BEED144F2EB
:103E3000A804C2F200042188049B6088C91AA388E0
:103E4000059ACCEB0303801AA3802389218060802C
:103E500001F5F87100F5F870C9EB03030331033085
:103E6000238180B240F2E63389B299428CBF0021AF
:103E70000121E28898429CBF41F0020399B2CBEB4A
:103E80000202A388E280628903F5F873C8EB02029C
:103E9000033395B29BB240F2E6329342E38898BF77
:103EA00041F00401C7339BB2B3F5C77F238998BFA4
:103EB00041F00801C7339BB2B3F5C77F05F1C703D3
:103EC0009BB298BF41F01001B3F5C77F98BF41F096
:103ED00020016581084600F02DFA97E7CDF800C073
:103EE00000F03EFA44F2A603C2F200034FF00100D4
:103EF0001880DDF800C070E744F2B4030021C2F27C
:103F0000000340F29802C2F20002198040F29603C8
:103F1000116051609160C2F200034FF001021A80FB
:103F20007047C04644F2B800C2F200004FF00003F0
:103F30000380438083804FF6867383824FF06A0349
:103F4000C3824FF0230303834FF6EC7343834FF692
:103F5000EA7383834FF6F773C38344F27463C3F643
:103F600094438360C360036140F20003C4F27A4368
:103F700083624DF20A73C3F6234343624FF0FF039B
:103F8000A0F89C304FF000030722A0F89E3040F2CA
:103F90009A2370B4A0F8A03080F820204FF00003DE
:103FA0004CF2AC52C3F22772A0F8A230A0F8A430B1
:103FB0004EF69003C262A0F8A630064604460021E1
:103FC0004FF0000C4FF07E558A000B019B1A3033E6
:103FD000F2180023994207BF25636565C2F800C047
:103FE000C2F824C018BFC2F848C001330432032B02
:103FF000F0D1013110340329E6D14EF29852C3F6C4
:104000009C224AF6C423C3F69F23C0F888204EF2B0
:10401000BA0100228367C3F6A921012380F8B720E3
:104020006432C0F8981080F8A83080F8A93080F881
:10403000AA3080F8AB3080F8AC3080F8AD3080F832
:10404000AE3080F8AF3080F8B03080F8B13080F812
:10405000B23080F8B33080F8B43080F8B53080F8F2
:10406000B63080F8B83080F8B92070BC7047C046D0
:104070004FF20001C0F600010B684FF6FF729BB2D1
:10408000934270B500F03B810A6844F2B805C2F271
:1040900000050B682A804FF20402C0F600021B0CD8
:1040A00011686B8013684FF20802C0F600021B0C07
:1040B000A980AB82116813684FF20C02C0F60002AF
:1040C0001B0CE9822B83116813684FF210021B0C42
:1040D000AB834FF21803C0F60002C0F600036983F9
:1040E00011681A684FF21C03C0F60003AA601A6830
:1040F0004FF22003C0F60003EA601A684FF2900303
:10410000C0F600032A611A684FF29803C0F6000354
:104110006A621A684FF29403C0F60003AA621A6832
:104120004FF24806E983EA624FF0000CC0F6000641
:104130004FEA8C024FEA0C139B1A3033EC183046CE
:10414000002150F8043B0131032944F8043BF8D125
:104150000CF1010C0C36BCF1030FE9D14FF224062F
:10416000ACF1030CC0F600064FEA8C024FEA0C13C8
:104170009B1AEB1803F154043046002150F8043B1D
:104180000131032944F8043BF8D10CF1010C0C3641
:10419000BCF1030FE8D14FF26C06ACF1030CC0F692
:1041A00000064FEA8C024FEA0C139B1A7833EC1886
:1041B0003046002150F8043B0131032944F8043B08
:1041C000F8D10CF1010C0C36BCF1030FE9D14FF220
:1041D0009C02C0F60002116813684FF2A0021B0C8B
:1041E000C0F60002A5F89E3013684FF2A402C0F694
:1041F0000002A5F89C10A5F8A030116813684FF2D2
:10420000A8021B0CC0F60002A5F8A210A5F8A43065
:104210004FF214011368C0F60001A5F8A6300B6830
:104220005B0E03F00F0385F820300A68D20B02F012
:10423000010285F8B7200B6803F0010385F8A83068
:104240000A68520802F0010285F8A9200B689B0851
:1042500003F0010385F8AA300A68D20802F00102CF
:1042600085F8AB200B681B0903F0010385F8AC301F
:104270000A68520902F0010285F8AD200B689B091B
:1042800003F0010385F8AE300A68D20902F001029A
:1042900085F8AF200B681B0A03F0010385F8B030E6
:1042A0000A68520A02F0010285F8B1200B689B0AE5
:1042B00003F0010385F8B2300A68D20A02F0010265
:1042C00085F8B3200B681B0B03F0010385F8B430AD
:1042D0000A68520B02F0010285F8B5200B689B0BAF
:1042E00003F0010385F8B6300A68120C02F00102EF
:1042F00085F8B8200B685B0C85F8B93070BDFFF706
:1043000011FEFBE740F29401C2F20001012244F2E7
:10431000A4030A80C2F200034FF0000140F600003F
:10432000198010B5C4F201004FF40051FEF748FFA8
:1043300010BDC04610B5044640F600000022C4F28D
:1043400001004FF40051FEF73BFF40F29403C2F22C
:1043500000034FF000021A80204600F0E9FD10BD76
:1043600040F29603C2F200034FF000021A8044F2BA
:10437000B402C2F200022DE9F0411088FEF71AF9EA
:1043800040F29804C2F2000405462068FEF716F9D0
:104390002946FEF71BFAFDF7D3FCFBF74FFFFDF7AD
:1043A000BBFF1FFA80F80FFA88F360682360FEF7FE
:1043B00005F92946FEF70AFAFDF7C2FCFBF73EFFB6
:1043C000FDF7AAFF86B233B2A0686360FEF7F6F885
:1043D0002946FEF7FBF9FDF7B3FCFBF72FFFFDF7CE
:1043E0009BFF44F2B803C2F2000380B202B2A3F80A
:1043F00016809E821883A26000F07CFEBDE8F081EA
:1044000044F2B803C2F20003002110B54FF080401F
:1044100083F8B810FFF7ACF910BDC04600000000EB
:1044200000B544F2B803C2F2000385B083F8B900C6
:10443000FEF7C0F8FDF784FC13A3D3E90023FDF7D2
:10444000D3FC40F200030022C4F23403FDF71AFB50
:1044500002460B460EA1D1E90001FDF7EFFDFDF785
:1044600083FF4FF06403ADF80A00ADF806304FF05B
:10447000804000230DF10601ADF80C30ADF8083096
:10448000FFF74CF905B000BD92CF0A909191F13F32
:104490000000000000F9254144F2B80310B5C2F253
:1044A0000003012483F8B840FFF7BAFF21464FF01C
:1044B0008040FFF75DF921464FF08040FFF786F915
:1044C0004FF0804021462246FFF760F910BDC046FC
:1044D0002DE9F047FEF73EFD4FF2000435204FF284
:1044E000B805FEF751FDC0F60004C0F6000502E075
:1044F0000434AC4206D02046FEF7C6FD0428F7D0AF
:10450000BDE8F08744F2B804C2F20004B4F9023006
:10451000B4F900104FF20000C0F6000041EA034178
:10452000FEF780FD0428EBD1B4F91430B4F904107F
:104530004FF20400C0F6000041EA0341FEF772FDAD
:104540000428DDD1B4F91830B4F916104FF2080080
:10455000C0F6000041EA0341FEF764FD0428CFD114
:10456000B4F91C30B4F91A104FF20C00C0F6000078
:1045700041EA0341FEF756FD0428C1D14FF2100075
:10458000C0F60000B4F91E10FEF74CFD0428B7D1A8
:1045900094F8A81094F8A93094F8B9205B0001F0C1
:1045A000010141EA424103F0020394F8AA201943B1
:1045B00094F8AB30920002F00402DB00114303F0E8
:1045C000080394F8AC20194394F8AD30120102F0BE
:1045D00010025B01114303F0200394F8AE2019434D
:1045E00094F8AF30920102F04002DB01114303F076
:1045F000FF0394F8B020194394F8B130120202F48A
:1046000080725B02114303F4007394F8B2201943E3
:1046100094F8B330920202F48062DB02114303F497
:10462000006394F8B420194394F8B530120302F4EF
:1046300080525B03114303F4005394F8B6201943EE
:1046400094F8B730920302F48042DB0311431B0459
:1046500094F8B8201B0C1943120494F8203002F48B
:10466000803211435B0603F0F0534FF214001943FC
:10467000C0F60000FEF7D6FC04287FF441AF4FF2ED
:104680001800C0F60000A168FEF7CCFC04287FF4F7
:1046900037AF4FF21C00C0F60000E168FEF7C2FC25
:1046A00004287FF42DAF4FF22000C0F600002169EE
:1046B000FEF7B8FC042802BF4FF224084FF00009AF
:1046C000C0F600087FF41CAF4FEA89024FEA0913D5
:1046D0009B1AE31803F15406454600272846316823
:1046E000FEF7A0FC04287FF40BAF01370436043535
:1046F000032FF3D109F10109B9F1030F08F10C08F7
:10470000E2D14FF24808A9F10309C0F600084FEAC8
:1047100089024FEA09139B1A3033E71846460025F1
:1047200030463968FEF77EFC04287FF4E9AE013597
:1047300004370436032DF3D109F10109B9F1030F50
:1047400008F10C08E3D14FF26C094FF00008C0F6F5
:1047500000094FEA88024FEA08139B1A7833E718DA
:104760004D46002628463968FEF75CFC04287FF495
:10477000C7AE013604370435032EF3D108F1010822
:10478000B8F1030F09F10C09E3D14FF29000C0F624
:104790000000616AFEF746FC44F2B8050428C2F244
:1047A00000057FF4ADAE4FF29400C0F60000E96A58
:1047B000FEF738FC04287FF4A3AE4FF29800C0F651
:1047C0000000A96AFEF72EFC04287FF499AEB5F923
:1047D0009E30B5F89C104FF29C00C0F6000041EAF4
:1047E0000341FEF71FFC04287FF48AAE4FF2A000BD
:1047F000C0F60000B5F9A010FEF714FC04287FF401
:104800007FAEB5F9A430B5F8A2104FF2A400C0F6FF
:10481000000041EA0341FEF705FC04287FF470AE76
:104820004FF2A800C0F60000B5F9A610FEF7FAFB9B
:1048300004287FF465AEFEF79DFB042060E6C046C9
:1048400070B50546002441F2893602E00134B442D5
:104850000BD045F20040C4F200002946FEF750FD9F
:1048600003460028F2D0012070BD1846FCE7C04680
:104870002DE9F041054645F20040C4F200000F4624
:1048800001211646FEF704FD40F20100C0F20300CC
:10489000FFF7D6FF044600284FD045F20040C4F28F
:1048A000000029460122FEF723FD40F20200C0F27B
:1048B0000300FFF7C5FF044600283ED0002E55D068
:1048C000002442F20F780AE001344445CCBF0023B3
:1048D0000123002E0CBF002503F0010505B3012EB6
:1048E00035D045F2004040F24001C4F20000C0F271
:1048F0000301FEF705FD0028E6D045F20040C4F2B2
:104900000000FEF7F1FC0124731EDEB22346002EE8
:104910000CBF002503F0010507F8010B002DDED1C7
:1049200042F20F739C4221DD45F20040C4F20000C8
:104930000121FEF7BBFC284607E045F20040C4F227
:1049400000000121FEF7B2FC2046BDE8F08145F2EF
:1049500000400021C4F20000FEF7B6FC45F2004022
:10496000C4F200003146FEF7A1FCBAE745F2004070
:10497000C4F200000121FEF7A7FC0120E5E7C046D4
:1049800010B5014607223C20FFF772FF044608B12C
:10499000012010BD45F20040C4F200000121FEF7E5
:1049A00085FC2046F5E7C0462DE9F041054645F275
:1049B0000040C4F200000F4601211646FEF768FCD5
:1049C00040F20100C0F20300FFF73AFF044678B35B
:1049D00045F20040C4F2000029460022FEF788FCA0
:1049E00040F28200C0F20700FFF72AFF0446F8B148
:1049F000002E27D0002402E00134B44222DA45F22E
:104A00000040C4F20000395DFEF76CFC40F2840007
:104A1000C0F20700FFF714FF05460028ECD145F26D
:104A20000040C4F200000121FEF740FC284607E0E8
:104A300045F20040C4F200000121FEF737FC204699
:104A4000BDE8F08145F20040C4F200000121FEF70C
:104A50002DFC0120F4E7C0462DE9F04786B00DF1AA
:104A60000E061823054600273C20314602228DF809
:104A70000E708DF80F30FFF797FF0446F8B13C2019
:104A8000314601228DF80E70FFF78EFF0446B0B15B
:104A90000DF1040801223C204146FFF7E9FE9DF894
:104AA00004209DF80F309A4215D0012145F20040B4
:104AB000C4F200002970FEF7F9FB384608E0012136
:104AC00045F20040C4F200002970FEF7EFFB2046DB
:104AD00006B0BDE8F0874FF002094FF0010A3C2014
:104AE00031464A468DF80EA08DF80F90FFF75CFF17
:104AF0000446F0B13C20314652468DF80EA0FFF737
:104B000053FF0446A8B13C2052464146FFF7B0FE91
:104B10009DF804209DF80F309A4215D0032345F2EA
:104B20000040C4F200002B705146FEF7BFFB384630
:104B3000CEE7032345F20040C4F200002B7051463B
:104B4000FEF7B4FB2046C3E73C2031464A468DF8C9
:104B50000E908DF80F70FFF727FF04460028E8D06D
:104B60003C20314652468DF80E90FFF71DFF04465B
:104B70000028DED03C2052464146FFF779FE9DF8E2
:104B80000F309DF804209A4201BF40F22803C2F280
:104B9000000383F800A050469AD0BFE72DE9F0014A
:104BA000002480460F462646A3002201D21A08EBB5
:104BB0000603BD18181D4FF0000C55F8041B0CF12E
:104BC000010C0B0E03700A0C0B0A42708370C1704B
:104BD0000430BCF1030FF0D101340C36032CE3D1C7
:104BE000BDE8F0017047C04610B544F2B801C2F20A
:104BF000000108698CB06FF046038DF804300C2278
:104C0000030E8DF805208DF80830020C030A8DF88C
:104C10000B00C8688DF80A30030E8DF809208DF856
:104C20000C30020C030A8DF80F0088688DF80E30E6
:104C300001AC030E8DF80D208DF81030020C030A24
:104C40008DF8130020468DF811208DF8123002F0F7
:104C5000E1F9ADF80600204602F008FB0CB010BDEB
:104C600010B56FF045038CB08DF8043044F2B803F2
:104C70000122C2F200038DF8052001AC93F8B720A1
:104C800020468DF8082002F0C5F9ADF80600204650
:104C900002F0ECFA0CB010BD10B56FF03D038CB013
:104CA0008DF8043044F2B8030122C2F200038DF8FB
:104CB000052001AC93F8202020468DF8082002F052
:104CC000A9F9ADF80600204602F0D0FA0CB010BDEC
:104CD00010B56FF041038CB08DF8043044F2B80386
:104CE000C2F20003996A04228DF8052001AC0A0E75
:104CF0008DF808200B0C0A0A20468DF809308DF833
:104D00000A208DF80B1002F085F9ADF80600204658
:104D100002F0ACFA0CB010BD10B56FF040038CB0CF
:104D20008DF8043044F2B803C2F20003D96A0422B9
:104D30008DF8052001AC0A0E8DF808200B0C0A0A2C
:104D400020468DF809308DF80A208DF80B1002F0FE
:104D500061F9ADF80600204602F088FA0CB010BDEB
:104D600010B56FF03F038CB08DF8043044F2B803F7
:104D7000C2F20003596A04228DF8052001AC0A0E24
:104D80008DF808200B0C0A0A20468DF809308DF8A2
:104D90000A208DF80B1002F03DF9ADF80600204610
:104DA00002F064FA0CB010BD10B58CB001AC6FF01D
:104DB0003E032422204608498DF804308DF8052052
:104DC000FFF7ECFE204602F025F9ADF8060020467C
:104DD00002F04CFA0CB010BDFC41002010B58CB0B4
:104DE00001AC6FF03C032422204608498DF80430C2
:104DF0008DF80520FFF7D2FE204602F00BF9ADF842
:104E00000600204602F032FA0CB010BDE840002047
:104E100010B58CB001AC6FF03B032422204608494A
:104E20008DF804308DF80520FFF7B8FE204602F01B
:104E3000F1F8ADF80600204602F018FA0CB010BDEB
:104E40000C41002010B544F2B8018CB0C2F2000150
:104E500006228DF80520B1F8A620B1F8A4006FF065
:104E600043038DF804308DF80920130AB1F8A2200D
:104E70008DF8083001AC030A8DF80A308DF80B006C
:104E8000130A20468DF80C308DF80D2002F0C2F880
:104E9000ADF80600204602F0E9F90CB010BDC0469E
:104EA00010B544F2B8018CB0C2F2000106228DF8B0
:104EB0000520B1F8A020B1F89E006FF03A038DF8FC
:104EC00004308DF80920130AB1F89C208DF80830C1
:104ED00001AC030A8DF80A308DF80B00130A204646
:104EE0008DF80C308DF80D2002F094F8ADF8060026
:104EF000204602F0BBF90CB010BDC04610B58CB016
:104F000001AC6FF039032422204608498DF80430A3
:104F10008DF80520FFF742FE204602F07BF8ADF841
:104F20000600204602F0A2F90CB010BD304100206E
:104F300010B58CB001AC6FF0490301228DF8080068
:104F400020468DF804308DF8052002F063F8ADF8A6
:104F50000600204602F08AF90CB010BD10B544F2EC
:104F6000B8028CB0C2F200026FF037038DF8043043
:104F7000022192F8B8308DF8051001AC92F8B91002
:104F800003F0010320468DF808108DF8093002F077
:104F900041F8ADF80600204602F068F90CB010BDEB
:104FA00010B544F2B802C2F200028CB06FF04203B6
:104FB0008DF8043092F8B23092F8B30002218DF8E7
:104FC00005109B0192F8AF1043EAC01392F8B100AC
:104FD0000B4392F8B61043EA401392F8B50043EA47
:104FE000011392F8B41043EAC00392F8AE0043EA0A
:104FF000810343EA40038DF8083092F8B03092F80C
:10500000AB0092F8AC10DB0143EA801392F8AD00DC
:1050100043EA411392F8A81043EA001392F8A9005A
:1050200043EAC10392F8AA1001AC43EA800343EAC1
:10503000410320468DF8093001F0ECFFADF8060081
:10504000204602F013F90CB010BDC04610B544F272
:10505000B8018CB0C2F200016FF038038DF8043053
:105060004B8B06228DF80D301B0A8DF805208DF82C
:105070000C308A8BCB8B01AC8DF80B208DF809306E
:10508000120A1B0A20468DF80A208DF8083001F01C
:10509000C1FFADF80600204602F0E8F80CB010BDE4
:1050A00010B544F2B8018CB0C2F200016FF04403B5
:1050B0008DF804300B8806228DF80D301B0A8DF810
:1050C00005208DF80C304A888B8801AC8DF80B20B8
:1050D0008DF80930120A1B0A20468DF80A208DF837
:1050E000083001F097FFADF80600204602F0BEF848
:1050F0000CB010BD10B544F2B8018CB0C2F2000182
:105100006FF047038DF804308B8A06228DF80D303E
:105110001B0A8DF805208DF80C30CA8A0B8B01AC68
:105120008DF80B208DF80930120A1B0A20468DF8E5
:105130000A208DF8083001F06DFFADF8060020461A
:1051400002F094F80CB010BD10B58CB001AC6FF04B
:105150004E0302228DF8080020468DF804308DF8A9
:1051600005208DF8091001F055FFADF80600204626
:1051700002F07CF80CB010BD10B58CB001AC6FF033
:105180004F0301228DF8080020468DF804308DF879
:10519000052001F03FFFADF80600204602F066F85A
:1051A0000CB010BD000000002DE9F04F44F2B8082B
:1051B000C2F2000844F2781498F8B320C2F2000456
:1051C00097B020686668D4F808900192002A40F0F1
:1051D000C58117464FF0010A022598F8B2300293B4
:1051E000002B40F0A3815646BA4698F8B13003939D
:1051F000002B40F08281B146564698F8B630E06800
:10520000D4F810A004936469002B40F05F814F46EE
:10521000B14698F8B5300593002B40F040813E46EA
:105220004F4698F8B4300693002B40F02181344665
:105230003E4698F8AE300793002B40F00681A44616
:10524000344698F8AF300893002B40F0EB80E646E8
:10525000A44698F8B0300993002B40F0D1807446F2
:10526000E64698F8ABB0BBF1000F40F0B580A4461D
:10527000744698F8ACA0BAF1000F40F09A80E64668
:10528000A44698F8AD90B9F1000F7FD17446E64678
:1052900098F8A8C0BCF1000F67D12746744698F86B
:1052A000A9E0BEF1000F4ED13E46274698F8AA402D
:1052B0007CB144F22023C2F20003588916AA511986
:1052C000030A01F8283C02EB4702731C02F8250C84
:1052D0005D00029A8DF82D509301019A43EAC213A2
:1052E000089A1343039A43EA4213049A43EA0213C7
:1052F000059A43EAC203069A43EA8203079A43EAFD
:1053000042038DF83030099BDA0142EA8B1242EAFF
:105310004A1242EA091242EACC0242EA8E0242EA08
:1053200044026FF0480316AC04F82C3D20468DF87B
:10533000312001F06FFEADF82E00204601F076FF1F
:1053400017B0BDE8F08F44F22023C2F200031889A1
:1053500016AB5919030A01F8283C16AB03EB4402BB
:105360007E1C02F8250C7500A0E744F22023C2F24F
:105370000003D88816AA5119030A02EB4E02671CD3
:1053800001F8283C7D0002F8250C88E744F2202330
:10539000C2F20003988816AB5919030A01F8283C99
:1053A00016AB03EB4C020EF1010402F8250C65006C
:1053B0006EE744F22023C2F20003588816AA51195E
:1053C000030A02EB44020CF1010E01F8283C4FEAFB
:1053D0004E0502F8250C54E744F22023C2F20003E4
:1053E000188816AB5919030A01F8283C16AB03EBD1
:1053F0004E0204F1010C02F8250C4FEA4C0538E787
:1054000044F22023C2F20003588A16AA5119030A53
:1054100002EB4C020EF1010401F8283C650002F891
:10542000250C1EE744F22023C2F20003188A16AAB4
:105430005119030A02EB44020CF1010E01F8283C59
:105440004FEA4E0502F8250C03E744F22023C2F28E
:105450000003D88916AA5119030A02EB460204F187
:10546000010C01F8283C4FEA4C0502F8250CE8E64F
:105470002046FCF765FC44A3D3E90023FCF7B4FC09
:10548000FCF74AFF16AA80B25119030A02EB470241
:10549000741C01F8283C650002F8250CC9E650464A
:1054A000FCF74EFC38A3D3E90023FCF79DFCFCF786
:1054B00033FF16AA80B25119030A02EB49027E1C7F
:1054C00001F8283C750002F8250CAAE6FCF738FC28
:1054D0002DA3D3E90023FCF787FCFCF71DFF16AAD8
:1054E00080B25119030A02EB460209F1010701F8E3
:1054F000283C7D0002F8250C8BE64846FCF720FC92
:1055000023A3D3E90023FCF76FFCFCF705FF16AAE1
:1055100080B25119030A02EB4A0206F1010901F8AF
:10552000283C4FEA490502F8250C66E63046FCF7B0
:1055300007FC17A3D3E90023FCF756FCFCF7ECFEAD
:1055400016AA80B25119030A02EB47020AF10106BA
:1055500001F8283C750002F8250C46E6FCF7F0FB44
:105560000BA3D3E90023FCF73FFCFCF7D5FE80B288
:10557000030A8DF832308DF8330001274FF0020A0C
:1055800004252AE6C046C046CEAACFD5563452409E
:10559000B7627FD93DC15640F0B501788DB04B1E42
:1055A00005469F2B00F2A280DFE813F042033F0381
:1055B0003C0339033603330330032D032A03270347
:1055C000240321031E031B031803150312030F03F7
:1055D000A000A000A000A000A000A000A000A000CB
:1055E000A000A000A000A000A000A000A000A000BB
:1055F000A000A000A000A000A000A000A000A000AB
:10560000A000A000A000A000A000A000A000A0009A
:10561000A000A000A000A000A000A000A000A0008A
:10562000A000A000A000A000A000A000A000A0007A
:10563000A000A000A000A000A000A000A000A0006A
:10564000A000A000A000A000A000A000A000A0005A
:10565000A000A000A000A000A000A000A000A0004A
:10566000A000A000A000A000A000A000A000A0003A
:10567000A000A000A000A000A000A000A000A0002A
:10568000A000A000A000A000A000A000A000A0001A
:10569000A000A000A000A000A000A000A000A0000A
:1056A000A000A000A000A000A000B202AC02A502D1
:1056B0008E0277025D0249024602430236021C0254
:1056C0000102E701DC01AF018101670153012601FD
:1056D0000F01E600DC00D600A000A000A000A000A2
:1056E000A000A000A000A000A000B40001AC6FF0DA
:1056F0004B03012220468DF804308DF805208DF8EB
:10570000081001F087FCADF80600204601F0AEFD60
:105710000DB0F0BD42F200400021C4F20100FDF7DF
:1057200003FA44F2B803C2F2000393F8B850012D13
:1057300000F08E82FEF7CCFE044642F200400121CA
:10574000C4F20100FDF7F0F9042C00F07D82A020E6
:105750002146FFF7F9FCDBE7FEF7E4FB9620FFF7B5
:105760000BFDD5E744F27810C2F2000000F0A6FD70
:105770009520FFF701FDCBE743790179C2791B043E
:1057800043EA01638179134344F2B800C2F2000096
:1057900043EA012202616B7A297AEA7A1B0443EA1E
:1057A0000163A97A134343EA0122C2606B7B297B20
:1057B000EA7B1B0443EA0163A97B134343EA01220A
:1057C00082609420FFF7D8FCA2E70279437944F283
:1057D000B801C2F2000143EA0223CB838279C37984
:1057E00043EA02238B83027A437A932043EA02231B
:1057F0004B83FFF7C1FC8BE74FF0000E44F2B80774
:10580000F446C2F2000705EB0C03181D4FEA8E02A6
:105810004FEA0E139B1A7833FE1800244378017860
:10582000C2781B0443EA016381781343013443EADD
:1058300001220430032C46F8042BEFD10EF1010EA7
:10584000BEF1030F0CF10C0CDDD19220FFF794FC9C
:105850005EE744F22023C2F20003598A44F2B80200
:10586000C2F20002A2F8A010198ADB89A2F89E10E9
:10587000A2F89C30FFF714FB4AE70279437944F21F
:10588000B801C2F2000143EA0223A1F8A0308279F4
:10589000C37943EA0223A1F89E30027A437A90202A
:1058A00043EA0223A1F89C30FFF766FC30E74FF093
:1058B000000E44F2B807F446C2F2000705EB0C03F1
:1058C000181D4FEA8E024FEA0E139B1AFB1803F1C4
:1058D0005406002443780178C2781B0443EA01632C
:1058E00081781343013443EA01220430032C46F843
:1058F000042BEFD10EF1010EBEF1030F0CF10C0CD5
:10590000DCD18F20FFF738FC02E74FF0000E44F2A5
:10591000B807F446C2F2000705EB0C03181D4FEA66
:105920008E024FEA0E139B1A3033FE180024437880
:105930000178C2781B0443EA016381781343013480
:1059400043EA01220430032C46F8042BEFD10EF178
:10595000010EBEF1030F0CF10C0CDDD18E20FFF710
:105960000BFCD5E6027944F2B803C2F2000383F8D7
:1059700020208D20FFF700FCCAE643790179C27927
:105980001B0443EA01638179134343EA012044F293
:10599000B80244F27813C2F20003C2F2000290622D
:1059A000D863D864D8658C20FFF7E6FBB0E643796E
:1059B0000179C2791B0443EA01638179134343EA05
:1059C000012044F2B80244F27813C2F20003C2F29A
:1059D0000002D06218661867C3F880008B20FFF7BA
:1059E000CBFB95E643790179C2791B0443EA016355
:1059F0008179134343EA012044F2B80244F2781358
:105A0000C2F20003C2F20002506298619862986389
:105A10008A20FFF7B1FB7BE6037944F2B802C2F2B9
:105A2000000203F0010382F8B7308920FFF7A4FBDE
:105A30006EE6FEF767FC6BE6FEF75EFA68E644F298
:105A40002023C2F20003598944F2B802C2F20002D4
:105A5000A2F8A6101989DB88A2F8A410A2F8A23037
:105A6000FFF7F0F954E60279437944F2B801C2F243
:105A7000000143EA0223A1F8A6308279C37943EA00
:105A80000223A1F8A430027A437A852043EA022354
:105A9000A1F8A230FFF770FB3AE60279437944F2AD
:105AA000B801C2F2000143EA02238B808279C379F4
:105AB00043EA02234B80027A437A842043EA02239A
:105AC0000B80FFF759FB23E60279437944F2B801D2
:105AD000C2F2000143EA02230B838279C37943EACD
