:400000000040002011000000E9030000E903000008B5054B1A6803F53F5302331A6001F095FD00F0E9F900BFFA46004010B5054C237833B9044B13B10448AFF300800123D9
:40004000237010BD68C1FF1F00000000D8280000084B10B51BB108490848AFF300800848036803B910BD074B002BFBD0BDE81040184700BF000000006CC1FF1FD828000048
:40008000C8C0FF1F0000000008B562B602F034FB02F092F8002002F033FB55280ED1002002F042FB002002F071FB002002F07AFB012002F083FB4022024B1A7001F0EEFF90
:4000C000002008BDFA46004008B562B60221002000F0E8FA0122014B1A7008BD84C1FF1F08B500F017FB08BD08B500F093FC08BD2DE9F84381460F4690460026168003EB1E
:4001000083035C00A4B223E0BB1B402B01D8DDB200E04025ADB22A4609EB0601022000F089FB04E0012002F017F9013CA4B2022000F062FB08B9002CF4D1022000F05CFB12
:4001400058B1B8F800302B44A8F800302E44B6B2BE42D9D30020BDE8F8831020BDE8F8832DE9F04180460E46174603EB83035C00A4B2402900D94026214B1B7833B916E0D4
:40018000012002F0E9F8013DADB200E0254600F01DFB08B9002DF3D100F018FBA8B100F01BFBFFF7A1FF0022154B1A700DE000F013FB50B100F00AFB38B1FFF795FF04E06D
:4001C000012002F0C9F8013CA4B2032000F014FB012801D0002CF3D1032000F00DFB012808D132464146032000F084FB38800020BDE8F08100233B801020BDE8F08100BF0D
:4002000084C1FF1FFEE700BFF0B40022174611E050F82760F3B226F0FF0608E001EB420511F812406D78A5550132013BDBB2002BF4D101370B2FEBD9F0BC7047064B1B7856
:40024000DBB203F00701054A11701B09013213704422034B1A707047CF0100496E5800407658004008B50A46002102F028FB08BD08B502F019FB08BD08B502F015FB08BD16
:4002800038B506221E4B1A705222A3F580731A701C4B1B78DBB21C4A13704FF4E1621B4B1A8041F25122023B1A80002419250CE0174B1B7803F0010343EA440404F0030490
:4002C0004FF4F07002F088FA013D0DB1032CEFD115B90320FFF796FF0E4A4FF4807313800723137000230C490B704820023108701370053213700222084B1A7038BD00BFBA
:40030000004300400F010049A1460040224200402542004004400040064000400140004038B572B6264A137843F00403137000240CE0244D630019194A0011462A440846A4
:4003400091882858FFF78EFF0134E4B2062CF0D91C4C04F12C0104F16800FFF755FF1A4A137843F0020313701032137843F0020313700A2204F198011448FFF779FF0A2288
:4003800004F1A4011248FFF773FF082204F1B0011048FFF76DFF104A137843F0080313700E4C61232370FFF76BFF81232370FFF745FF0E220A490B48FFF75EFF38BD00BF92
:4003C000E8460040DC28000003500140C0510040F0510040125100402243004000480040A0430040B043004008B502F031FA03680C2B00D1FEE7FEE708B5104E104D16E07A
:4004000029686B68AC68002204E051F8040B43F8040B0432A242F8D1E868002203E0002143F8041B04328242F9D11035013E002EE6D102F013FAFFF727FEFEE701000000BC
:40044000382B000008B5104A104B1A60104A136843F40073136000230AE0032B03D80D4A52F8231000E00C490C4A42F8231001332F2BF2D90A4B1A780A4B1A70074A0A4B94
:400480001A60FFF74DFF08BD0004FA050CED00E014ED00E000000000E903000000C0FF1FBC760040C0C0FF1F08ED00E0F8B502F09BF90746404A137843F0010313701032BE
:4004C000137843F00103137001263C4B1E700225943B1D7002F5E2521B32137803F07F031370002001F04EFF354C237803F0F9032370344A137803F0DF031370237833438F
:400500002370304601F03EFF282001F03BFF2E4B1A7802F07F021A701A7802F0BF021A7023782B432370284601F02CFF237843F0040323700024254B1C7001331C7038464E
:4005400002F056F90721172001F05CFF2049172001F044FF0721182001F054FF1D49182001F03CFF0721152001F04CFF1A49152001F034FF0721204601F044FF1749204670
:4005800001F02CFF0721304601F03CFF1449304601F024FF0721284601F034FF1149284601F01CFF07210C2001F02CFF0E490C2001F014FFF8BD00BFA54300409D60004010
:4005C0009443004012600040F85100408460004015100000FD0D000011100000710F0000A10F0000D50F00001D10000008B5214B18700023204A1370204A1370204A137059
:40060000204A1370204A1370204A1370204A1370204B4FF400021A604FF080721A604FF400121A6001221A6002221A6004221A6011B1012906D00BE0174A137803F0FE03FA
:4006400013700AE0144A137843F00103137004E0114A137843F00103137003220F4B1A708022203B1A70012002F0B6F804220C4B1A7008BDB1C1FF1FB4C1FF1FD0C1FF1FF7
:40068000D3C1FF1FC8C1FF1FD2C1FF1FD5C1FF1FB0C1FF1F00E100E009600040286000401260004038B504460D46064B1B7823B9FFF7FCFE0122034B1A7029462046FFF709
:4006C00095FF38BD85C1FF1F00230A4A13700A4A13700A4A13700A4A13700A4A13700A4A13700A4A13700322094B1A708022203B1A707047B4C1FF1FD0C1FF1FD3C1FF1FD4
:40070000C8C1FF1FD2C1FF1FD5C1FF1FB0C1FF1F2860004008B502F067F8224A137803F07F0313700A32137803F0FB031370A2F5E3520D3A137803F0FE031370103213783C
:4007400003F0FE031370184B1A7842F080021A701A7842F040021A7002F04AF8134B4FF400021A604FF080721A604FF400121A6001221A6002221A6004221A6001F0BEFCEE
:400780004FF480520A4B1A6000230A4A13700A4A13700A4A13700A4A13700A4A13700A4A137008BD08600040F851004080E100E080E200E0D0C1FF1FD3C1FF1FC8C1FF1FA7
:4007C000D2C1FF1FD5C1FF1F85C1FF1F014B1878704700BFD3C1FF1F064B1B7813F0FF0F05D0044B1878C0B200221A7070470020704700BFD0C1FF1F00EB40008300024A6F
:4008000013445878704700BFD8C1FF1F431EDBB2072B0BD8064B00011A18185C00F00F00537843EA0020023880B2704700207047FC5F0040431EDBB2072B3CD8F0B4074698
:4008400000EB4004A3001C4C2344DB889BB2C3F500739A4208D900EB400293002344DA8892B2C2F5007292B200EB4004A300124C2344DB7843EA1223104D04012E192B5590
:40088000D3B2737039B909E0CE5C3D010C4C665501339BB200E000239A42F5D8420002449300054A134400225A705A79D2B20001044B1A54F0BC7047D8C1FF1FFC5F0040D6
:4008C00078600040FE5F0040431EDBB2072B0BD8420002449300054A134400225A705A79D2B20001024B1A54704700BFD8C1FF1FFE5F004070B5D9B1054614460E46C8B195
:40090000082819D8FFF782FFA04203D22846FFF77DFF0446002305E02901094A525CF25401339BB2A342F7D32846FFF7CDFF04E0002402E0002400E00024204670BD00BF01
:400940007860004010B4FF2400230EE0094AD25C02EB42029100084A11448A7AD2B2824201D11C4602230133DBB2012BEED9204610BC7047A0C1FF1FD8C1FF1F10B5204CD4
:400980002079FFF7DFFF237813F0800F0ED06378DBB2212B2FD11B4B07221A80C0EBC000194A1044586000F097FA10BD144B5B78DBB2202B02D0222B10D01EE0114A07232E
:4009C0001380C0EBC00310490B4453600F4A135C43F00103135400F0A7FA10BD084B9B780B4A22F81030094A135C43F00203135400F030F910BD002010BD002010BD00BFE2
:400A000000600040BCC1FF1FCCC0FF1F98C1FF1FACC1FF1F10B500241F4B1C701F4B1C705C700AE01E4B185DC0B2431EDBB2072B01D8FFF749FF0134E4B2012CF2D9194B96
:400A40001B7813F0FF0F1AD0154B1B7813F0FF0F17D0154B1B7813F0FF0F14D0114B1B78DBB2082B11D80E4B1B78DBB2082B0ED80D4B1B78DBB2082B0BD8002010BD01204F
:400A800010BD012010BD012010BD012010BD012010BD012010BD00BF86C1FF1F98C1FF1FA4C1FF1F9CC1FF1FA0C1FF1FC37803F0030390F9020000280FDA032B06D002F0E5
:400AC00001030B48C15442F001020EE0C2F380030848C15442F0040207E0032B05D0C2F340030548C15442F002021046704700BF9CC1FF1FA0C1FF1FA4C1FF1F1D4B1978D6
:400B00001D4A13889BB20B449BB2138000220FE01A494B681B78DBB2194883544B6801334B600132D2B20B889BB2013B9BB20B80124B1B889BB20BB1072AE9D90D4B1B7894
:400B4000DBB2082B00D05AB10E490B7883F080030B700F210C4B197002210C4B197004E0022309490B7009490B70094B1A70014B1A707047B0C1FF1FB2C1FF1FBCC1FF1FB3
:400B80000060004046C2FF1FD1C1FF1FB4C1FF1FD4C1FF1F0222074B1A708022064B1A700F22064B1A700023054A1370054A137001207047B4C1FF1F46C2FF1FD1C1FF1FE8
:400BC000B0C1FF1FD4C1FF1F08B5FFF797FF08BD10B4194B197801F00F010239C9B2174A13889BB20B449BB21380002011E0144A5468144B1B5CDBB22370536801335360FA
:400C00000130C0B20139C9B213889BB2013B9BB213800B4B1B889BB20BB10029E7D10A4B19700A4A137883F0800313700B22084B1A7010BC704700BF29600040B2C1FF1F99
:400C4000BCC1FF1F00600040D4C1FF1F46C2FF1FD1C1FF1F0623064A1370064A13708022054B1A700022054B1A700120704700BFB4C1FF1FD1C1FF1F46C2FF1FD4C1FF1FB6
:400C8000064B9B6843B1054B9A6810709A6804490988518000229A60704700BFBCC1FF1FB2C1FF1F08B5134B1A78D2B21A701B78DBB213F0800F02D00F4A137008BD0220A9
:400CC000FFF7DEFF0D4B1B7803F06003202B05D0402B06D043B900F091FC06E001F08CFD03E000F035FE00E0002010B90322024B1A7008BD28600040D1C1FF1F00600040FE
:400D000008B5094B1978094A13889BB20B449BB213800022064B1A700120FFF7B1FF0322044B1A7008BD00BFB0C1FF1FB2C1FF1FB4C1FF1FD1C1FF1F08B50B4B1B78DBB2CB
:400D4000042B06D0062B07D0022B0BD1FFF7D8FF08BDFFF73DFF08BD0320FFF791FF0322024B1A7008BD00BFB4C1FF1FD1C1FF1F08B50022044B1A700120FFF781FF0322F4
:400D8000024B1A7008BD00BFB4C1FF1FD1C1FF1F08B50B4B1B7813F0FF0F07D0084A137843F0800307490B70002313700022064B1A700120FFF764FF0322044B1A7008BDC9
:400DC000D2C1FF1F08600040B4C1FF1FD1C1FF1F08B5094B1B78DBB2042B06D0062B07D0022B07D1FFF7F0FE08BDFFF7C1FF08BDFFF7CEFF08BD00BFB4C1FF1F08B5284BE6
:400E00001B78DBB213F0100F48D013F0800F0CD003F00F03012B16D1FFF744FF214B1B7813F0800F11D1012312E013F0400F03D0FFF7CEFF01230BE013F0200F07D0FFF71A
:400E40007BFF012304E0002302E0002300E0002323B3134B1B7813F0800F1FD1124B1B78124A12781343124A13701278D2B2934214D10C4B1B78DBB2094A127812F0800FC4
:400E800007D1084B1B78DBB2054A1370137803F00F03044A1278D2B29342EAD108BD00BF28600040D1C1FF1F46C2FF1FD4C1FF1F296000400022064B1A80064B9B682BB1BE
:400EC000044A916800230B7092685380704700BFB2C1FF1FBCC1FF1F08B50F4B1B889BB213B9FFF757FE15E002220C4B1A7000220B4B1A70FFF7DEFF0A4AD179937943EADA
:400F00000123054A128892B2934201D2024A1380FFF7F4FD012008BDBCC1FF1FB4C1FF1F46C2FF1F0060004008B504220B4B1A7080220B4B1A70FFF7BDFF0A4AD179937977
:400F400043EA0123084A128892B2934201D2064A13800B22054B1A70012008BDB4C1FF1F46C2FF1F00600040BCC1FF1FD1C1FF1F0122094B1A700F3B9B7C084B1B7B03F096
:400F80000303934204D0054AD37B83F08003D3730122024B5A7370470B600040D8C1FF1F02220A4B1A700F3B93F82230084B1B7E03F00303012B04D0054AD37E83F08003AE
:400FC000D3760122024B5A76704700BF0B600040D8C1FF1F04220C4B1A700F3B93F832300A4B93F8243003F00303012B06D0074A92F8273083F0800382F827300122034BB9
:4010000083F82520704700BF0B600040D8C1FF1F704700BF08B5FFF757FB08BD08B501F06DF808BD70B588B0054603AC174E0FCE0FC43368237035B322232B7003236B709D
:4010400001A801F0F7F9002402231AE008AA224412F81C2C08A901EB121111F8141CE954581C00212954981C02F00F0208AE324412F8142C2A54DA1CA9540134E4B2043351
:40108000DBB2212BE2D908B070BD00BF9429000010B401233EE019461A010C242148845403EB4300820020480244527912F0FF0F13D003EB430082001B480244127912F042
:4010C000800F04D01801194A024494700AE01801164A02440820907004E01801134A0244802090704800084482000F480244D488E4B208010B4901448C71D088C0F3072040
:40110000C871D088C0B20871D288C2F307224A710133DBB2082BBED9FF22054B1A7010BC704700BF70600040D8C1FF1FFC5F00400A600040074B1A78074B03EBC2035B68C0
:401140001A7C824204D9C000103018444068704700207047B1C1FF1FB0290000F8B5404B1B7813F0FF0F79D03D4B18780138C0B2FFF7E0FF047AC2683A4B1878C0B200232E
:401180006AE01178884264D13749095CC9B25578A9425ED1917801F07F01D67806F00306DFF8C8E04D000D44AF000EEB07054FF0000C85F803C092F802C085F804C092F8DC
:4011C00003C00EF807C097882F8192F90250002D0DDA012E01D1072700E00D274E000E44B500224E35446F7101266E700CE0012E01D1052700E009274E000E44B5001B4E52
:4012000035446F7100266E70DFF868E00F010EEB07060125B57001FA05F529448D00134929440D89C5F307250EF807500D89EDB27570CE88F6B20E4D3D44AE71CE88C6F320
:401240000726EE71CE88F6B22E71C988C1F30721697108320133DBB2A34292D3F8BD00BFD3C1FF1FC8C1FF1F44C2FF1FD8C1FF1F70600040FC5F0040034B1A78034B03EB8A
:40128000C2035868704700BFB1C1FF1FB029000008B5084B18780138C0B2FFF74BFF30B142681279023200EBC203586808BD002008BD00BFD3C1FF1F2DE9F047002310E00A
:4012C000724D5900CA189600AC190022AA55A270E2702281A272627034462C4462710133DBB2082BECD940B90AE000226849CA546849CA540133DBB200E00023012BF4D9B5
:40130000654B1B7813F0FF0F00F0BD80624B18780138C0B2FFF70EFF80464368DB7913F0400F05D05D4A137843F00103137004E05A4A137803F0FE03137098F808704FF098
:40134000000A01266FE0D8F80C50002467E0AB7803F07F039E425FD1314606EB460083004A4803441B899BB2A888834206D206EB460E4FEA8E03454A134418812B78444829
:40138000C35CDBB26878834246D195F802C0DFF8FCE04B000B4498000EEB000383F804C0EB780EF80030EB7803F0030395F90200002813DA012B02D14FF0070901E04FF04E
:4013C0000D09DFF8C8E04B0003EB010C4FEA8C00704480F805900121417012E0012B02D14FF0050901E04FF00909DFF8A0E04B0003EB010C4FEA8C00704480F80590002105
:401400004170AB790A2B01D0022B05D1524631462846FFF74BFB824608350134E4B2BC4295D30136F6B2082E8DD9D8F80C0000220CE0837803F07F0310F8084B03EB43037B
:401440009900124B19448C720132D2B2BA42F0D3FFF71EFF124B1860002301210FE00B4D4A00501884002C44E380228992B213449BB203F0010213449BB20131C9B208291D
:40148000EDD9FFF705FEBDE8F08700BFD8C1FF1F44C2FF1FB8C1FF1FD3C1FF1FD5C1FF1FCCC1FF1F08B5154B1B7903F07F035A1ED2B2072A20D8590019448A0010490A44DD
:4014C000917841F0010191700021D170517841F002015170127912F0800F05D01B01094A1A448D23937004E01B01064A1A4489239370FFF7AFFB08BD002008BD00600040D7
:40150000D8C1FF1FFC5F0040264B1B7903F07F035A1ED2B2072A43D810B5590019448A0021490A44917801F0FE0191700021D17019017F241D484454517801F0FD0151704B
:40154000127912F0800F14D003EB43018A0016490A445278D2B2012A05D11B0102461A440C23937019E01B01104A1A440D23937013E003EB43018A000B490A445278D2B220
:40158000012A05D11B01094A1A440823937004E01B01064A1A4409239370FFF75BFB10BD0020704700600040D8C1FF1FFC5F004010B50E4B1C79E4B20D4B18780138C0B294
:4015C000FFF7B8FD43681B799C4201D9022C0AD8084A135DDBB208490B55044B9B78DBB21355012010BD002010BD00BF00600040D3C1FF1F44C2FF1FB8C1FF1F10B59C4B8F
:401600001B78DBB200219B4A118013F0800F00F0AD80974A5278D2B20A2A00F27481DFE812F06900720172017201720172010B007201920072019A008D4BDB78DBB2012B88
:4016400009D1FFF719FE42688A4B5A6012221A80FFF742FC10BD864BDB78DBB2022B13D1834B9878FFF766FD002800F04E814268804B5A605A68D1785A68927842EA012246
:401680001A80FFF729FC10BD794BDB78DBB2032B05D02CE00A7811440133DBB201E000237549734A9278D2B2934203D20A7812F0FF0FEFD16E4B9B7813F0FF0F0BD06C4BE5
:4016C0009B78DBB26D4A127C934204D16C4C2046FFF7A8FC21460B7813F0FF0F00F017810B78644A13805160FFF7F6FB10BD01F083F810BD13F0030317D0022B40F00981E7
:401700005C490B805A4B1B7903F07F0303EB43039A005C4B1A449278D2B25B4B1A7000225A704B60FFF7D8FB10BD524902230B80564B1A78D2B2544B1A7000225A704B604B
:40174000FFF7CAFB10BD4B4B01221A80504A5A60FFF7C2FB10BD474A01231380444B1B794C490B445360FFF7B7FB10BD404A5278013A0A2A00F2CF80DFE812F04C00CD005D
:401780009800CD000B00CD00CD00CD001300CD003000374B9B78DBB23F4A1370FFF75AFA10BD334B9B7803F0FF041BB1601EC0B2FFF7C0FC04B110B9002C40F0AE80344B81
:4017C0001B78DBB29C4206D0314B1C700120334B1870FFF771FDFFF73DFA10BDFFF7E8FE002800F09C80224A1379DBB21279D2B22B490A702B4AD25CD2B22649CB5CDBB2AC
:401800009A4204D00122254B1A70FFF7A7FCFFF721FA10BD03F00303012B17D04BB1022B7FD1134B9B7813F0FF0F7CD1FFF76CFE10BD0F4B9B78DBB2012B76D1134A13788E
:4018400003F0FD031370FFF705FA10BD084B1B79DBB2012B6BD8064B98781B79DBB21249CA5C22EA0002CA54FFF7F4F910BD00BF00600040BCC1FF1F182A0000002B000007
:4018800050C2FF1FD8C1FF1F88C1FF1FD5C1FF1FD3C1FF1F44C2FF1FD2C1FF1FD0C1FF1FC8C1FF1FB8C1FF1F48C2FF1F03F00303012B17D04BB1022B3BD1224B9B7813F0C6
:4018C000FF0F38D1FFF7EEFD10BD1E4B9B78DBB2012B32D11C4A137843F002031370FFF7B9F910BD174B1B79DBB2012B27D8154B98781B79DBB21549CA5C22EA0002CA54DB
:40190000FFF7A8F910BD002010BD002010BD002010BD002010BD002010BD002010BD002010BD002010BD002010BD002010BD002010BD002010BD002010BD002010BD00202D
:4019400010BD00BF00600040D5C1FF1F48C2FF1F044B1B7813F0800F01D0024B5B780020704700BF00600040002306E0421812F8012C13449BB2013989B20029F6D1584287
:4019800080B27047004700BF08B58022024B1A7000F0DAFC08BD00BFFA4600402DE9F04182B00C46164602AF27F8022D01230B7048701546A270130ACB7002F104081FFADE
:4019C00088F12046FFF7D0FF04F80800731DC0F30720E054063517236355F11D96233A4689B22046FEF784FB02B0BDE8F08100BF70B505460E461446084B984203D010B1B2
:401A0000002000F09FFC002004E0013CAB19E35C1844C0B2002CF8D170BD00BF0080004008B501380B2873D8DFE800F0060F18212A33453C4E576069C1EB01610B0203F570
:401A4000FF3303F5E073012167E0C1EB01610B0203F5FF3303F2C11304215EE0C1EB01610B0203F5FF3303F2C513022155E0C1EB01610B0203F5FF3303F2C91304214CE03E
:401A8000C1EB01610B0203F5FF3303F5E873012143E0C1EB01610B0203F5FF3303F2D11301213AE0C1EB01610B0203F5FF3303F5EB73022131E0C1EB01610B0203F5FF33DB
:401AC00003F5E973022128E0C1EB01610B0203F5FF3303F5EA7302211FE0C1EB01610B0203F5FF3303F5EC73042116E0C1EB01610B0203F5FF3303F5EE7301210DE0C1EB9B
:401B000001610B0203F5FF3303F5F073042104E0002000F017FC02210023012902D11878C0B200E00020022903D11A78587842EA0020042909D11A78587842EA00229878CC
:401B400042EA0042D87842EA006008BD08B50A4B1B7803F0C003802B0CD10021064B19700220FFF75DFF28B100210220FFF758FFFFF708FF08BD00BFFA460040F8B50646A1
:401B800001460320FFF74CFF0130070231460420FFF746FF074431460320FFF741FF013000020024254608E003785A1ED2B2FD2A00D801252344DCB20130B842F4D33146AB
:401BC0000320FFF72DFF01300002C0080F4B9F4201D0FF0808E04FF4804705E000F190431B782344DCB20130B842F7D36442E4B231460120FFF714FF844202D11DB9062008
:401C0000F8BD0620F8BD0020F8BD00BFC0FF01002DE9F04FADF51F7D054600F0CDFA10B1002000F08FFBFEF74FFA62B64FF000094F460A24C8460DB9FF2300E02B460DF229
:401C400076224FF4967152A8FEF78AFA0DB1013CE4B20CB10028EED1002840F01582BDF87632062B26D99DF84821012A24D19DF84B819DF84A2142EA0828414608F10702FA
:401C80009A421BD8B2F5967F1AD84A1D52AB9E5C0A1D9A5C42EA062606315B5C172B11D108F1040189B252A8FFF75EFE86420BD100260AE0042608E0042606E0032604E05A
:401CC000032602E0042600E00826002E40F088819DF84CA19DF84921A2F131030A2B00F25781DFE813F00B001C0055014400B2005501B800CD004400DF004701002F00F051
:401D00007181B8F1000F40F070810020FFF736FFB0FA80F040098DF84C010122ADE1002F00F06681B8F1010F40F06581BAF1010F00F26481C04B1B681B68C3F30742924559
:401D400002D1C3F3072305E0924501D9002301E04FF480738DF84C311B0A8DF84D31FF238DF84E3100238DF84F31042285E1342A15D1002F00F04581B8F1030F40F0448103
:401D8000AAF14003DBB23F2B02D84FF0100901E04FF490794A46002107A800F090FD002F00F03581B8F1020F40F23481A8F103020DF24F1107AB03EB090000F075FDC1448F
:401DC0001FFA89F9A9F103091FFA89F9AAF14003DBB23F2B05D800F075FA80234FF0100803E04FF480734FF49078C84540F015819DF84E919DF84D2142EA09294B4500D888
:401E00000A26002E40F00E81BAF13F0F0FD809EB0A2292B2884B1B681968C1F30F2311F0FF0F01D001339BB2934200F2FD80434607AA4946504600F0C9F900B10A2600F0FD
:401E4000ABFA4FF000094A4617E1002F40F01A810426002211E1002F00F0EB8008EB0903B3F5967F00F2F280424653A907AB03EB090000F019FDC1441FFA89F90022FCE03A
:401E8000B8F1000F40F0E58004AB6C4A92E8030083E8030053AA82E803004FF0000901270822EAE0002F00F0D780B8F1030F40F0D6809DF84EB19DF84D3143EA0B2BAAF15B
:401EC0004003DBB23F2B10D84FEA0B11BBF17F0F01D8334600E00A23002B40F0C38010225748FFF785FD019011E00BEB0A210902BBF1FF0F01D8334600E00A23002B40F0C9
:401F0000B4804FF480720020FFF772FD0190BAF13F0F0FD80AF510320BEB02225201002306E0995C01980144C9B2019101339BB21F2BF6D9BAF1010F16D1BBF1FF0F13D1D1
:401F400000210520FFF76CFDC0B2019BC0EB030A5FFA8AFA00210620FFF762FDC0B2C0EB0A0A5FFA8AF30193019B5B428DF84C31012282E00020FFF701FE10B98022314B26
:401F80001A70FEF7ADF800F0DFF90426002274E02D4B1B68002B6BD0002F6CD08DF80820ADF80A8053AA0392002104910591069204A902A89847BDF81420B2F5937F03D3C9
:401FC000069953AB994205D0069B03B92AB99DF8106052E00E2600224FE00E2600224CE000224AE00426002247E00426002244E00426002241E0042600223EE004260022C4
:402000003BE00426002238E00426002235E00426002232E0042600222FE04FF0000903264A462AE0002228E04FF000090A264A4623E00426002220E0E8C0FF1FA8290000E4
:4020400000800040FA4600408CC1FF1F0326002213E00426002210E0042600220DE0042600220AE01E46002207E01E46002204E00526002201E00526002252A93046FFF713
:402080008DFC01E04FF00009002D3FF4D4AD002F7FF4D1AD0DF51F7DBDE8F08F38B50020FFF76CFD08B1062400E00024114D2B681A6800210846FFF79BFC6B681B78C01AA9
:4020C000C0B24042C0B2834202D12B681B6813B9002000F037F9084B1B7803F0C003402B00D024B10020044B1870FFF791FDFFF74BFC38BDE8C0FF1FFA460040024B187844
:40210000C0F38010704700BF8F45004010B500F0C9F900F095FAD0B900F0D4FA0446072812D102E0012000F02DF90A4B1B7813F0020FF7D0074B1B7813F0020F04D0054B40
:402140001B789B0800D1002400F0A0FA00E00424204610BD2247004010B500F0A3F900F06FFA10BB012000F04DFA072818D102210F4800F0A9F902280AD102E0012000F0DD
:4021800001F90C4B1B7813F0020FF7D0002409E0084B1B7813F0020FE9D04FF0FF3401E04FF0FF3400F072FA00E00424204610BD4CC2FF1F2247004008B5FFF7A7FF0346CD
:4021C00010B9FFF7C9FF0346184608BD2DE9F041C41EE4B23C2C01D9002500E0012510F0800F00D00125412800D901253F2803D8B1F5807F06D808E0802900D90125102B43
:4022000002D102E0012500E0012502B90125002D50D1984616460F46044600F011FA002847D1434632463946204600F067F9064607283AD102E0012000F0A4F81F4B1B7832
:4022400013F0020FF7D01D4B1B7813F0020F06D01A4B1B789B0805D04FF0FF3603E04FF0FF3600E02E4606BB154A537812783946204600F083F9072804D0064615E00120E4
:4022800000F080F80D4B1B7813F0020FF7D00B4B1B7813F0020F06D0084B1B789B0804D04FF0FF3601E04FF0FF3600F0EFF9354600E004252846BDE8F08100BF22470040AF
:4022C0004CC2FF1F08B500F08FFA0F4A137843F0080313701032137843F008031370C8220A4B1A700A4A137843F0100313701032137843F010031370064B1B7813F0200F2C
:40230000FAD000F075FA08BDA043004001470040AC43004000470040054A137843F001031370034B1B7813F0020FFAD0704700BF02470040024A137803F0FE0313707047F7
:402340000247004001BE7047024A137843F0010313707047F646004010B5044605E0084B186800F039FAA4F50044B4F5004FF6D8034B586800FB04F000F02EFA10BD00BF6C
:40238000F0C0FF1F08B5034B1B7A00FB03F000F023FA08BDF0C0FF1F08B500F025FA00BF00BF00BF00BF00BF00BF00BF00BF00BF00BF00BF00BF00BF00BF00BF00BF064A15
:4023C00013889BB243F0040313801388BFF36F8F00F00EFA08BD00BF0048004070B504460E46074B1D681F2802D90020FFF7AAFF04F01F04103455F8240045F8246070BDA4
:4024000008ED00E038B504460D46072902D90020FFF798FF1F2C02D90020FFF793FF04F01F0000F1604000F564406D01EDB2057038BD00BF134B1B78DBB20360124A12787D
:4024400043EA02230360114A127843EA024303600F4A127843EA026303600E4B1B78DBB243600D4A127843EA022343600B4A127843EA024343600A4A127843EA026343601C
:40248000704700BF0301004904010049EC460040020100490101004900010049050100490601004908B500F09FF9064A137843F0080313701032137843F00803137000F0BA
:4024C00097F908BDA043004070B506460D4600240CE00120FFF756FF064B1B7813F0010FF7D0054B1B7833550134E4B2AC42F3D3204670BD224700402047004070B41D4C0C
:40250000247814F0020F2CD01B4CB6252570D5252570022525700234247814F0020F22D1154C2070002404E0165D134D2E700134A4B29C42F8D3B3F5807F16D13F2816D871
:4025400000F5103001EB00214801002305E01A5CD2B209490A7001339BB21F2BF7D9072006E0042004E0092002E0072000E0072070BC7047224700402047004030B4104CA6
:40258000247814F0020F15D00E4CB6252570D8252570052525700234247814F0020F0BD1084C2070080A2070C9B2217022702370072002E0042000E0092030BC704700BF58
:4025C00022470040204700400C4B1B7813F0020F10D00B4BB6221A70DB221A7008221A7002331B7813F0020F06D1054B187019700720704704207047092070472247004064
:40260000204700400C4B1B7813F0020F0FD00B4BB6221A70E1221A700E221A7002331B7813F0020F05D1054B187007207047042070470920704700BF2247004020470040E5
:4026400010B500F0D1F80F4B1B78A3B901220D4B1A700D4B1B6813F0010F0ED00A4A136823F00103136000BF00BF00BF0122054B5A60002402E0042400E0002400F0B8F82D
:40268000204610BD90C1FF1F0400084008B500F0ABF80A4B00221A705B68012B0AD1084A136843F00103136000BF00BF00BF0022024B5A6000F09CF808BD00BF90C1FF1FBD
:4026C00004000840074B1B7813F0020F08D0064BB6221A70E0221A700D221A700720704704207047224700402047004008B5FFF763FDFFF7E7FD08BD08B5FFF7F7FF08BD9C
:4027000038B5044600F070F80546FFF705FE04F1804000F500400478E4B2FFF70BFE284600F066F8204638BD10B50446FFF7BAFE012C23D8FFF784FF10BB21464020FFF7CE
:4027400043FF072810D1104B1B7813F0020FFAD00D4B1B7813F0020F09D00B4B1B789B0808D04FF0FF3406E04FF0FF3403E04FF0FF3400E00024FFF789FF02E0012400E077
:402780000424204610BD00BF22470040044A137803F0BF03800100F04000184310707047C0510040044A137803F0EF03000100F01000184310707047C0510040044A1378B9
:4027C00003F0DF03400100F02000184310707047C0510040000000000230800803D000BF01380046FCD17047EFF3108072B6704780F31088704700BF08B5124B1B7803F00F
:402800000303012B02D0022B04D00FE00D4B1B79DBB20CE00B4B1B7903F07F0303EB43039A00094B1A44937ADBB200E00023074A1268D35C022B02D1FEF7A0F808BD002057
:4028400008BD00BF00600040D8C1FF1FCCC1FF1F014B1868704700BF60C1FF1F0E4B70B51E460E4C0025E41AA410A54204D056F8253098470135F8E700F04CF9084B094C0F
:402880001E46E41AA4100025A54204D056F8253098470135F8E770BD202B0000202B0000202B0000282B000010B5431E0A44914204D011F8014B03F8014FF8E710BD03467A
:4028C0000244934202D003F8011BFAE770470000002C0000C70000000000000000510040100020510040500000000140001000140140000800400140000A004C01400002DF
:4029000000500140200000007E027C40EA02EE0AEA02EE0A33813640CC709F01A640A7809F01A640A7809F01A640A78008080B040F40C20EAE40AF81EA40EE50AC08AF440A
:40294000002A000001450040015200400217014002190140034001400341014003420140034301400447014004480140024C014001510140700000707000000000000000BD
:402980004000000000000000C0000000000B0B000000000030313233343536373839414243444546000000006990152E0032010101000000B829000001000000002B0000E1
:4029C000000000000000000001000000D029000001000000BC2A000003000000FC2900000000000000000000000000000000000000000000F8290000020A0000000081031D
:402A0000080002000100820240000A000100030240000A0002030000040309042C0343007900700072006500730073002000530065006D00690063006F006E006400750075
:402A4000630074006F0072001403550053004200550041005200540042004C003803430044004300200043006F006D006D0075006E00690063006100740069006F006E0058
:402A8000200049006E007400650072006600610063006500260343004400430020004400610074006100200049006E007400650072006600610063006500000009024300D9
:402AC0000201018032090400000102020103052400100104240202052406000105240100010705810308000A09040100020A00000407058202400000070503024000000068
:402B00001201000202000008B40433F20100010280014300F8B500BFF8BC08BC9E4670475100000045040000F8B500BFF8BC08BC9E4670472D000000482B0000C8C0FF1FF3
:402B4000A0000000100100000000000000C2010000000800C201000000080000A12000000000020000000000D0280000D42800000000E02EC05D00001800000000366E016F
:402B80000000000000000000000000000000000000000000000000000000000000000000122B000000000000000000000000000000000000000000000000000000000000D8
:402BC000000000000000000000000000000000000000000000000000000000000000000000C1FF1F00000000000000000000000000000000000000000000000000000000F6
:402C00000000000000000000000000000000000000000000000000000000000000000000000000000000000000000000000000000000000000000000000000000000000094
:402C40000000000000000000000000000000000000000000000000000000000000000000000000000000000000000000000000000000000000000000000000000000000054
:402C80000000000000000000000000000000000000000000000000000000000000000000000000000000000000000000000000000000000000000000000000000000000014
:402CC00000000000000000000000000000000000000000000000000000000000000000000000000000000000000000000000000000000000000000000000000000000000D4
:020000040001F9
:40FFC00000000000000000000000000000000000000000000100010000000000000000000000000000000000000000000000000000000000000000000000000000000000FF
:0200000480007A
:4000000000000000000000000000000000000000000000000000000000000000000000000000000000000000000000000000000000000000000000000000000000000000C0
:400040000000000000000000000000000000000000000000000000000000000000000000000000000000000000000000000000000000000000000000000000000000000080
:400080000000000000000000000000000000000000000000000000000000000000000000000000000000000000000000000000000000000000000000000000000000000040
:4000C0000000000000000000000000000000000000000000000000000000000000000000000000000000000000000000000000000000000000000000000000000000000000
:0200000490006A
:0400000000004005B7
:0200000490105A
:04000000BC90ACAF55
:0200000490303A
:02000000FB0201
:0200000490402A
:4000000000000000000000000000000000000000000000000000000000000000000000000000000000000000000000000000000000000000000000000000000000000000C0
:400040000000000000000000000000000000000000000000000000000000000000000000000000000000000000000000000000000000000000000000000000000000000080
:0200000490501A
:0C00000000012E15906900012E258B6B6D
:00000001FF