:400000000010002011000000D1060000D106000008B500F065FBC04638B51F4C23688025ED022B432360302000F04EFC1B4A1C4B1A6021221B4B1A6010321B4B1A60213AE6
:400040001A4B1A6010321A4B1A601032194B1A601F3A194B1A6082221206184B1A602560174B184A1360184A1360184A184B1A60184A194B1A60194B194A1360194A136070
:400080000920194900F0C6FB092000F0ADFB0022164B1A6038BDC04600010B400600008004010B40080202400C0202402002024024020240340202403C02024008010B4075
:4000C00001000080000002404000024009000080800002400B000080040002401D0000804400024084000240D90A00000C020B4010B572B6002410E03D4863001A1952000C
:40010000821891881B195B001A5AC31858880004104300F047FB0134E4B2012CECD93449081C0C30343100F023FBA0221201314B1A800120304B1870304A314B1A60C02257
:400140009205304B1A60304A304B1A60EE22304B1A6099231B042F4A13602F492F4A1160802149042E4A11608C2109042D4A11602D4A1360802109062C4A11602C4A136073
:4001800050222C4B1A602C4B19784E3A0A431A702A4C22783C218A4328390A432270197816220A431A70264B1860264A264B1A601F22264B1A60B6229201254B1A60032370
:4001C000244A13608021244A1160C0210904234A1160234A13602349234A1160234A13602422234B1A60FFF717FF00F0F1FA10BDBC1A000000600F4002600F406030000020
:400200000400014008000140EEEE00000C0001401000014000500F400400990010500F4014500F4018500F4020500F4028500F4030500F402001054000700F4001700F4027
:4002400000000440B601200008000440000104400801044018010440000204400802044000030440A40D000008030440000404400804044010B5064C2378002B07D1054BB0
:40028000002B02D0044800E000BF0123237010BD4801002000000000B81A000008B5084B002B03D00748084900E000BF07480368002B00D108BD064B002BFBD09847F9E7C9
:4002C00000000000B81A00004C010020C80000200000000038B50D1C141C002100F0DAFC281C00F089FD201C00F086FD00F03EFD38BDC04610B5041C1421AA22FFF7EAFF56
:40030000201C1521AA22FFF7E5FF201C1621AA22FFF7E0FF201C1721AA22FFF7DBFF201C00210022FFF7D6FF10BDC046F0B583B008AC2778602817D001930D1C061C4C009F
:400340000C19E4B2211DC9B2FFF7C4FF013569006D18E9B2301C019AFFF7BCFF0234E1B2301C3A1CFFF7B6FF03B0F0BD70B582B000241CE0104B5B78DBB22341DB0715D521
:40038000E6B20D4DEA78D2B22B79DBB2697900916020311CFFF7CAFFEA78D2B22B79DBB2697900916120311CFFF7C0FF0134042CE0DD02B070BDC046A801002030B583B040
:4003C00062B6962000F05EFA00F0EEFB434C20201021221C00F008FE00F070FD20201021221C00F001FE01F091F801F02DF9782001F03AF901F0D0F801F022F8002000F0BE
:40040000CBFF002000F0A8FF012000F099FF6120FFF770FF002411E0E1B23C23009361203C22FFF783FF2E4D281C00F043FA281C00F040FA281C00F03DFA0134042CEBDDC9
:4004400000250FE0EBB2E1B2009361201A1CFFF76DFF013400E00024042CF3DD214800F029FA0135312DF6DD002407E0E1B20023009361200022FFF759FF0134042CF5DDF4
:40048000164B1B78012B04D1FFF770FF0022134B1A70124B1B78022B04D100F02DF800220E4B1A700D4B1B78032B10D10B4BDC79987924020419A4B200F018F824B2201A6D
:4004C00000F06CF8002802D00022044B1A7000F0A9F8054B1A78014B1A72D1E7A801002050C300001027000064010020014B18687047C046E001002038B5782001F0B4F86C
:40050000322000F049FF012001F010F8134800F0A7FFFA24A40003E0642000F0CBF92C1C00F0A6FF0E4B984203DC651E002CF3D100E0002401340B4B9C42FBDD01F03CF87D
:400540000128F7D1084C00252570002000F024FF064B1D600123637038BDC0461027000017270000B80B000064010020E001002010B50021002200230AE052009B00840F36
:40058000E31880009A4202D2541C1B1B023201310F29F2DD521090B210BDC04610B5041C1A4B1B78002B2DD100282DD0DC2001F05BF8174A13681B191360002C06DD002069
:4005C00000F0B4FFFA2001F04FF806E0012000F0ADFF6442DC2001F047F80E4800F040FF00F046FF0C4B186022180C4B1A60E30F1C19641000190A4B18600122034B1A7081
:40060000012002E0002000E0012010BD64010020E001002010270000CC010020D0010020D801002038B5244B1B78002B41D000F01FFF051C00F0C0FF012807D100221E4BA0
:400640001A70002000F0A8FE002033E01B4B1B689D420ADA1A4B18682B1A9800C0180001FFF786FF3730041C0DE0164B1B685B1B002B07DD9800C0180001FFF779FF373022
:40068000041C00E00024E62C00DDE624E0B200F083FE0C4B1B689D4205DB0022064B1A70002000F079FE084B1C60084B1D60012000E0002038BDC04664010020D8010020C4
:4006C000CC010020D0010020C8010020DC01002008B501F0BDF903680C2B00D1FEE7FEE770B50F4E0F4D13E029686B68AC68002202E001C901C30432A242FAD1E868002263
:4007000002E0002102C304328242FAD11035013E002EE9D101F0A2F9FFF750FEFEE7C04601000000881C000008B500230AE0032B03D89A000A49505800E00A4899000A4AD9
:40074000885001332F2BF2D9FFF7D2FC0022074B1A608022D205116801230B43136008BD00000000D106000000000020C0000020F0B50025002711E0BB00C658F3B2FF22A2
:40078000964308E06A008A181478A419527822700135013BDBB2002BF4D10137092FEBD9F0BDC04608B50A1C002101F07DF908BD064B1B68002803D080221206134301E001
:4007C0005B005B08014A13607047C04680031A4008B582225200034B1A600120FFF7E8FF08BDC046800010401F2318401E3B8340181C014B1860704700E100E01F2318400F
:400800001E3B8340181C014B1860704780E100E001BE704738B5041C0D1C1F2802D90020FFF7F6FFA400034B9C4664442068256038BDC0464000002070B5041C0E1E032E4D
:4008400002D90020FFF7E4FF1F2C02D90020FFF7DFFF03252540ED00063500F01FFFA408A400074B9C46644423680322AA409343AE40351C1D43256000F014FF70BDC046D1
:4008800000E400E010B5041C06E0084B586800F0FBFE074B9C46644480231B029C42F4D8024B9868604300F0EFFE10BDCC0000200080FFFF08B5034B1B7B584300F0E4FE55
:4008C00008BDC046CC000020F0B557464E46C0B483B0041C00F0E2FE0190E71E2D2F74D83F4B1B78DBB2A34208D33E4B1B78DBB29A463D4B1B78DBB2994631E03B4B1B78F2
:40090000DBB2A34208D33A4B1B78DBB29A46394B1B78DBB2994623E0374B1B78DBB2A34208D3364B1B78DBB29A46354B1B78DBB2994615E0334B1B78DBB2A34208D3324B2D
:400940001B78DBB29A46314B1B78DBB2994607E02F4B1B78DBB29A462E4B1B78DBB299462D4BDE5D2F2E09D92A2C07D919222B4B1A60052000F088FE192503E0274B1D681D
:400980003F231D40AE4206D2234BDA5D234B1A60052000F079FE1F4B9C4664442378DBB21F4A13601F4B52461A601F4B4A461A600520FFF77FFFAE420AD9174BDA5D174B48
:4009C0001A60052000F060FE02E00020FFF720FF019800F067FE03B00CBC91469A46F0BDC0F1FF0FC1F1FF0FC2F1FF0FC3F1FF0FC4F1FF0FC5F1FF0FC6F1FF0FC7F1FF0F12
:400A0000C8F1FF0FC9F1FF0FCAF1FF0FCBF1FF0FCCF1FF0FCDF1FF0F301C00002CFF0B4028FF0B401CFF0B4020FF0B40034B1868C0231B02184000D00120704700010B40DF
:400A400008B500F02BFE044A1368C02109020B43136000F027FE08BD00010B4010B500F01DFE08490A68084B1A408024E40122430A600A6813408022120213430B6000F040
:400A800011FE10BD00010B40FF3FFFFF70B5061C00F004FE041CFFF7C9FF002803D0FFF7DDFF012500E000250848331C0340084A106808490840184310601368012D01D138
:400AC000FFF7BEFF201C00F0EDFD70BD0404040010020B40FBFBFBFF10B5244B1B685B0715D5234B1B685B070ED5224BD969042001401F4C22688A432260DA698243DA61D3
:400B00001B69002B00D098470420FFF7BFFF174B1B685B0518D5164B1B685B0510D5154BD9698022D2001140114802688A430260D969114A0A40DA615B69002B00D098470B
:400B40008020C000FFF7A2FF084B1B685B030CD5074B1B685B0304D5064B9B69002B00D098478020C002FFF791FF10BD10020B40E000002068010020FFFBFFFF08B50A20B4
:400B8000FFF732FE08BDC04608B500F01DF808BD08B5044A1368802109060B431360FFF7EDFF08BD0000064008B5064B1B78002B04D1FFF7E9FF0122024B1A70FFF7E8FF83
:400BC00008BDC0468801002010B51D4A11680C230B43136000241B4B1C601B4A1B4B1A601B4B1C4A13601C4A14601C4A14601C4A13601C4B1C600A20FFF700FE0A20032186
:400C0000FFF71AFE0A201849FFF704FE174B1C60174B1C60174B1C601422FF32164B1A60164B1C60164B1C60043AFF3A154B1A70154B1C80154B1C60154B1C6010BDC046A5
:400C40007000064000000640FF08008060000640070100800003064004030640100306400002064004020640B1160000C80E0640880E0640480F0640080F0640C80F06406A
:400C8000880F0640E401002002020020E8010020F001002038B52E4B1B78102B53D12D4B1B68DB0751D40D1C041C0A20FFF7A6FD6000FF231840002D03D12422244B1A7094
:400CC00004E02522224B1A7001231843224B1860224A234B1A600222224B1A60204B1A680823FF331A42F9D01D4B1B685B0714D41B4B1B689B0713D4194B1B68DB0705D556
:400D00001022134B1A70012001210BE01022104B1A7080204000012104E00020002101E0022000210822FF320D4B1A6000290DD00D4A13685B005B081360136880210906A8
:400D40000B43136002E0042000E0082038BDC046E4010020640006404002064017030000000F064068000640000006401D4B1B789B0634D51C4B1B689B0601D5182200E0EF
:400D800010221A4B1A601A4B1A681223FF331A42F9D0174B1B68DB0606D4154B1B68DB0705D50120012105E00020002102E08020400001211222FF320D4B1A60023AFF3A77
:400DC000084B1A7000290BD00A4A13685B005B0813601368802109060B43136000E004207047C046E40100206400064068000640000F064000000640214B1B789B063CD5BC
:400E0000204B1860204B1A680823FF331A42F9D01D4B1B685B0705D56022194B1A700020002119E0184B1B689B0705D56022144B1A70022000210FE0134B1B68DB0705D5F3
:400E400010220F4B1A700120012105E010220C4B1A708020400001210822FF320A4B1A6000290BD0094A13685B005B0813601368802109060B43136000E004207047C04645
:400E8000E401002040020640000F06400000064008B50B20FFF7A8FC08BDC04608B500F03BF808BD08B5044A1368802109060B431360FFF7EDFF08BD0000074008B5064B25
:400EC0001B78002B04D1FFF7E9FF0122024B1A70FFF7E8FF08BDC046900100200A4B1B68DB050DD5094B1B685B0409D4064B1968074A0A401A601A68802149000A431A6067
:400F00000222044B1A6070470000074060000740FFFEFFFF6C00074010B500241C4B1C601C4A1D4B1A601D4A11680C230B4313601B4B1C4A13601C4A14601C491C4A116038
:400F40001C4A13601C4B1C600B20FFF757FC0B200321FFF771FC0B201849FFF75BFC184B1C60184B1C605222FF32174B1A60174B1C60174B1C60174B1C60174B1C70174B8D
:400F80001C70174B1C80174B00221A7010BDC046000007400008004060000740700007400701008000030740040307404400FE00100307400002074004020740191000005E
:400FC000C80E0740880E0740480F0740080F0740C80F0740880F07400E0200200F0200200C0200201002002070B5061C0D1C141E0BD00B20FFF702FC044B1C60044B1E80EA
:40100000044B1D800B20FFF7EFFB70BD08020020140200201202002070B5AA4B1B68002B00D09847A84B1C88A84B1D68A84B1E680223FF331D423FD0A64A13685B005B080B
:401040001360A54B1B789B061DD5A34B1A7820218A431A70197810220A431A709F4B1B68DB060BD49E4B1A78974B1B889A420AD0994A117808230B43137004E0964A11789D
:4010800002230B431370974A1168974B0B4013600023964A1360914A13609549954A116095498A4A1160954A13708A4A1368802109060B43136002E1F30602D50022904B59
:4010C0001A600A23334200D190E08E4B1B685B0756D58D4B1B68894A1278002A16D0012A47D18A4A1288002A0DD00121884A1160884A12681219DBB213700134834A1388A1
:40110000013B138038E0FFF7E9FE35E0824A12889A422BD901217E4A1160804A12889A4202D9D21A92B200E0002278490A80072A03D80121714A117014E0082A09D1694981
:401140000A68A020000202430A600021674A116008E064490A688020800102430A600821624A11605E4A13701C1C05E0FFF7B6FE02E00020FFF74CFB04225E4B1A6035E09D
:40118000584B1B689B0431D5B3070DD5644B1B680F211940534A1068534B03401360012014E00821012011E0584B1988083989B219800829F5D8002008E0564B1B681B199D
:4011C000514A1268D2B21A70013401390029F4D1002808D1434A1368802109020B4313600022424B1A600C22424B1A60B30745D5EB0615D500233D4A1360384A1360384B57
:401200001B78A34201D1022300E00A232B40324A11780B4320218B4313700022374B1A706B0629D52C4A117820230B4313702C4B1B781C1C3B4A1268D20612D5364A128818
:40124000D31A324A1380384B1A68802149020A431A601968354A0A401A6010221F4B1A6002E00422214B1A600123314A13602249164A1160264A1360144B1D60144B1B6803
:401280005B071CD5214B1B88002B0CD0214B1B681B191B78DBB2274A136001341B4A1388013B138002E0FF22224B1A60224B1B680F221340082BE5D10132204B1A60024BEE
:4012C0001C8070BD940100200C020020400F0740000E0740000007400F020020880F07401002002060000740FF5FFFFFC80F0740ED0F0000C00F0740FF0F00000E0200205E
:40130000880E0740CC0F074040030740980100206C000740080200201402002012020020080307406400074004020740FFFFFEFF800E07404002074008020740800F07405A
:4013400004490A68FD231A404000FB3B18401043086070470000044004490A68FB231A408000F73B184010430860704700000440024A117880230B431370704770000F40FA
:40138000014B18707047C04600000F40014B18707047C04640000F40014B18707047C04620000F40014B18707047C04630000F40014B18707047C04680000F40014B1878E1
:4013C000C0B2704760000F40014B1878C0B2704750000F4008B501E0FFF7F6FFFFF7EEFFC306F9D408BDC04610B513490B783F229343343A13430B70104C2278012313431A
:401400002370FF20FFF7BCFFFF20FFF7BFFFFF20FFF7C2FF3F20FFF7C5FF0020FFF7C8FF00F03CF9227810231343237000F03AF9FFF7D0FF10BDC04670000F4090000F4076
:4014400008B5064B1B78002B04D1FFF7CDFF0122024B1A70FFF78CFF08BDC0469A0100200004000C014B18607047C04608010540024B18680004000C7047C0460801054041
:401480000004000C014B18607047C0461401054038B5041C0D1C00F001F9AC40024B1C6000F000F938BDC0460800054008B500F0F5F8064A116801230B43136000F0F2F819
:4014C00001201821FFF7E4FF08BDC04600000540014B18607047C0463801054008B580229204074B1A600822064B1A600020FFF7EFFF0548FFF7C4FF0020FFF7B1FF08BD5F
:401500000001054024010540FFFF000008B5064B1B78002B04D1FFF7E1FF0122024B1A70FFF7C4FF08BDC0469B01002004490A68FB231A408000F73B184010430860704799
:401540000001044008B50222084B1A6080221206074B1A60A8225200064B1A6000F09EF8054B1A681A6000F09DF808BD9C010020000010400400104028001040044A11684F
:40158000044B1B680B43802109010B4313607047040010409C01002008B5064B1B79002B04D1FFF7CFFF0122024B1A71FFF7E6FF08BDC0469C010020024B1B6801201840CA
:4015C0007047C0460C00104010B500F067F80E490B680F2293431A1C0C4B1C780F23234013430B600A4A136813600A4B1C680A492140196011688F24E400214311601A68C7
:401600001A6000F04FF810BD00FF084060F1FF0F0800084004000840FFFFFEFF08B500F03DF8074A1368C02189000B431360054A1368802109060B43136000F033F808BDFB
:40164000080008400400084008B5064B1B68002B04D1FFF7B9FF0122024B1A60FFF7DEFF08BDC046A401002010B5041C00F016F8044A1368FF218B431C43146000F012F8DB
:4016800010BDC046080008400230800804D0C0460138FDD1C046C046C0467047EFF3108072B6704780F310887047C046C046C04610B5C04B1B68002B00D09847BE4B1B68C5
:4016C000DB0702D50022BD4B1A60BD4B1B789B0628D5BC4B1B68DB0507D5BB4A1188C0239B000B431380012300E00023B54A1268D20706D5B44A118890239B000B431380F7
:401700000123002B0FD0AE4A1278D20701D5012200E00222AC49088802430A800021A84A117000E00023A64A1278920600D414E1A44A1268D20611D51022A44B1A60A04BB1
:401740001B78DB0701D5012300E002239E4A11880B43138010229A4B1A7029E1984A1278120720D5974A126892070AD50222974B1A60954A118888239B000B431380012358
:4017800011E08F4A1278D20703D525218C4A117009E024218A4A11708D4A1268002A02D014398C4A1160864A1278520700D4ABE0834A1278D20749D5874A1268120727D563
:4017C000864A1268864909680F240C40854909686418141B082C09D8002C16D1824A1168824B0B401360012308340EE008240CE07C4A11687E48006841187E480068C0B232
:401800000870116801311160013C002CF0D119E0714A1268520715D5724A116874480068411874480068C0B2087011680131116011686A4A1268914203D204216E4A116000
:4018400000E001236D496E4A11605DE05D4A1268920726D502225D4B1A606A4A13680F211940136880221202134000D00123CB18654A1168CB1A13601268644B1A60524A7B
:40188000118884239B000B431380614B1A68802149020A431A6019685E4A0A401A60012332E05D4A1268D20612D424E0564A1168474A1268914211D2534A1168574800688E
:4018C00041180978C9B2564801601168013111604C4A12680F210A40082AE7D14A4A11683B4A1268914202D140213A4A11604D494D4A116008E0484A1268520604D5424BAC
:401900001A68424B1A600123002B51D0364A1168364B0B4013600023444A13602D4A1360434B1B789B070ED5254B1B78DB0701D5092300E00A23244A11880B431380602264
:401940001F4B1A7034E03B4B1B689B0601D5182200E01022284B1A602AE0194B1B78DB0626D4354A13685B005B0813601021144B19701D4B18683149014019601868304971
:4019800001401960002329490B6012490B601B49254B196023491A4B19602A492A4B19602A490A4B19601368802109060B43136010BDC0468C0100208C0E0640880E064046
:4019C000E40100200C0F064002020020000F0640FC010020880F0640CC0F06400402002008030640E801002060000640FFFEFFFFF40100204003064068000640ED0F000084
:401A0000C00F064008020640EC010020F001002004020640FFFFFEFF8C0F0640F801002040020640F3070000800F0640C80F0640000200206400064000000640FF5FFFFF00
:401A4000FFFCFFFFFF0F0000400F064017030000014B18687047C046440100200E4B70B500251E1C0D4CE41AA410A54204D0AB00F35898470135F8E700F0F4F8084B0025E1
:401A80001E1C084CE41AA410A54204D0AB00F35898470135F8E770BD701C0000701C0000701C0000781C0000031C8218934202D019700133FAE770470000000000300F40A8
:401AC000000400400F40000401000F404A300F402A310F4004320F4008330F4002400F400E410F4005420F4008430F4002600F40800F06040B010D0413081702180119044D
:401B00001E021F0220032403250130023102320433043501360137083F014010410645D146504702481F49FF4AFF4BFF4DA04F04501852805407580459045A045B045C11B0
:401B40005D115F01604062C06440654066C068C06AC06CC06EC09102920193049504970299029B04A502A705A902AA02AB0CAD02AF04B002B201B301B506B708BB20D80484
:401B8000D904DC33DF01032009800A080E4010A0172019481A801E401F04204121802214272529082E402F1430283182372538A040014828490150D85320580859415A203B
:401BC000710280488304C004C213C44CCA72CCEFCE0CD008D204D60FE00139283F1459045F01252027208320871089209720AA40EC100F01C2800B405B405F8083808740D7
:401C00009B40AB40B701C210D480D620E280E440EE80610274108204D802DC02760488109A04A410B502DC02E401EC08100A1101030405060708090A0B0C0E0F1011121345
:401C40001415161718191B1C1D1E1F2021222325262728292A2B2E2F303132333435000043000000F8B5C046F8BC08BC9E4670479D02000029070000F8B5C046F8BC08BC1F
:401C80009E46704775020000981C0000C800002080000000D000000000000000010000000000C05D80BB000030000000006CDC020404040000000000000000000000000047
:401CC0000000000000000000000000000000000000000000601C00000000000000000000000000000000000000000000000000000000000000000000000000000000000068
:401D00000000000000000000000000000000000000000000E4000020000000000000000000000000000000000000000000000000000000000000000000000000000000009F
:401D40000000000000000000000000000000000000000000000000000000000000000000000000000000000000000000000000000000000000000000000000000000000063
:401D80000000000000000000000000000000000000000000000000000000000000000000000000000000000000000000000000000000000000000000000000000000000023
:401DC00000000000000000000000000000000000000000000000000000000000000000000000000000000000000000000000000000000000000000000000000000000000E3
:401E000000000000000000000000000000000000000000000000000000000000000000000000000000000000000000000000000000000000000000000000000000000000A2
:0200000490303A
:02000000DD4CD5
:0200000490402A
:200000000000000000000000000000000000000000000000000000000000000000000000E0
:0200000490501A
:0C000000000204B61193110104BEEEDFF3
:0200000490600A
:0100000001FE
:00000001FF