:400000000080002011000000A9000000A900000080B500AF47F2BC63C4F2000344F2FA62C4F2000212681A6000F012FC00F040F810B5054C237833B9044810B10448AFF3CC
:4000400000800121217010BD2881FF1F000000009C23000008B5064B1BB106480649AFF300800648016811B1054A02B1904708BD000000009C2300002C81FF1F0881FF1F19
:400080000000000080B500AF4FF0000001F05AFA4FF0000001F078FA4FF0000001F094FA62B600F053FBFEE780B400AFFEE700BF80B586B000AF40F20103C0F200037B61D5
:4000C00042F2A443C0F200033B6140F20103C0F200037B6142F2A443C0F200033B613BE03B691B68FB603B695B68BB603B699B683B604FF000037B600FE0FB681A68BB68EC
:400100001A60BB6803F10403BB60FB6803F10403FB607B6803F104037B607A683B689A42EBD13B69DB683B604FF000037B600BE0BB684FF000021A60BB6803F10403BB60DC
:400140007B6803F104037B607A683B689A42EFD13B6903F110033B617B69002B0CBF00230123DBB27A6902F1FF327A61002BB7D102F0D8F8FFF786FFFEE700BF80B582B0D3
:4001800000AF4EF60C53CEF200034FF48062C0F2FA521A604EF61453CEF200034EF61452CEF20002126842F400721A604FF000037B6019E07B68032B07D840F20003C0F22A
:4001C00000037A6853F8223003E040F2A903C0F2000348F20002C1F6FF72796842F821307B6803F101037B607B682F2BE2D947F2BC63C4F200031B78DAB248F20413C1F651
:40020000FF731A704EF60853CEF2000348F20002C1F6FF721A6000F037F948F20013C1F6FF734FF000021A6007F10807BD4680BD80B582B000AF7860396078684FF0000143
:400240003A6802F09EF807F10807BD4680BD00BF80B584B000AFF860B9607A60F868B9687A6802F085F807F11007BD4680BD00BF80B584B000AFF860B9607A60F868B96827
:400280007A6802F075F807F11007BD4680BD00BF80B483B000AF0346FB71FEE780B487B000AF786039604FF000033B614FF000037B612CE07B694FEA83037A68D3181B68B9
:4002C000BB60BB68FB73BB6823F0FF03BB6017E03B694FEA43033A68D3181B781A46BB68D3183A694FEA420239688A1852781A703B6903F101033B61FB7B03F1FF33FB735E
:40030000FB7B002BE4D17B6903F101037B617B690C2BCFD907F11C07BD4680BC704700BF80B582B000AF4FF48643C4F200034FF002021A704FF040234FF008021A704FF4BC
:400340008443C4F200034FF003021A7044F2A163C4F200034FF48472C4F600121278D2B21A7044F22223C4F200034FF008021A8044F22023C4F2000341F251221A804FF0D7
:400380000003FB704FF019037B6019E0FB784FEA4303DAB244F22523C4F200031B78DBB203F00103DBB21343DBB203F00303FB704FF4F07001F02CF97B6803F1FF337B6063
:4003C0007B68002B02D0FB78032BDFD17B68002B03D14FF00300FFF75BFF44F20403C4F200034FF480721A8044F20403C4F200034FF007021A7044F20603C4F200034FF094
:4004000000021A7044F20803C4F200034FF048021A7044F20403C4F200034FF000021A7044F20103C4F200034FF002021A7007F10807BD4680BD00BF80B483B000AF40F254
:40044000CF13C4F600131B78FB7145F66E03C4F20003FA7902F00702D2B21A7045F66F03C4F20003FA794FEA1212D2B21A7045F67603C4F200034FF044021A7007F10C0722
:40048000BD4680BC704700BF80B586B000AF72B644F2E863C4F2000344F2E862C4F200021278D2B242F00402D2B21A704FF00003FB7519E0FA7D13464FEA43039B184FEA99
:4004C000430342F2A032C0F200029B183B613B691A683B699B889BB210461946FFF7A8FEFB7D03F10103FB75FB7D082BE2D94FF00003FB7523E0FA7D13464FEA83039B18E5
:400500004FEA430342F2D832C0F200029B18FB60FB681B68BB60FB685B687B60FB681A7A5B7A4FEA032313437B807B88B86879681A46FFF79DFEFB7D03F10103FB75FB7D71
:40054000002BD8D042F2E430C0F2000042F21841C0F20001FFF7A2FE45F20303C4F2010345F20302C4F201021278D2B242F00202D2B21A7045F21303C4F2010345F2130247
:40058000C4F201021278D2B242F00202D2B21A7044F2A033C4F2000344F2A032C4F200021278D2B242F04002D2B21A7044F2C233C4F2000344F2C232C4F200021278D2B24A
:4005C00042F01002D2B21A7045F2C010C4F2000042F25441C0F200014FF00A02FFF748FE45F21210C4F2000042F26041C0F200014FF00802FFF73CFE45F22210C4F20000BA
:4006000042F26841C0F200014FF00802FFF730FE44F22233C4F2000344F22232C4F200021278D2B242F00802D2B21A704FF49043C4F200034FF001021A70FFF771FE4FF49C
:400640009043C4F200034FF081021A704FF00403C4F208034FF001021A70FFF7EDFE44F2B030C4F2000044F2A031C4F200014FF00E02FFF7EDFD07F11807BD4680BD00BF1F
:4006800080B485B000AF78600B467B804FF00003FB810DE07B8803F1FF337A68D3181B781A46FB89D318FB817B8803F1FF337B807B88002BEED1FB89C3F100039BB2184688
:4006C00007F11407BD4680BC704700BF80B485B000AF786039604FF00003FB730AE03B6803F1FF333B607A683B68D3181A78FB7BD318FB733B68002BF1D1FB7B184607F17E
:400700001407BD4680BC704780B485B000AF786039604FF00003FB730EE03B6803F1FF333B607A683B68D31803F1804303F500431A78FB7BD318FB733B68002BEDD1FB7B58
:40074000184607F11407BD4680BC704780B5CAB000AF00F0B9FF0346002B03D04FF0000001F0B2F83B46184600F0C0FF0346002B03D04FF0000001F0A7F848F21013C1F633
:40078000FF731B681B684FF000001946FFF79EFF034687F8273148F20C13C1F6FF731B681B7897F82721D31A87F8273197F82731C3F1000387F8273148F20C13C1F6FF7346
:4007C0001B681B7897F827219A4207D148F21013C1F6FF731B681B68002B03D14FF0000001F072F84FF0000000F05CF8C7F8200144F2FA63C4F200031B78DBB203F0C003AE
:40080000402B03D0D7F82031002B0AD044F2FA63C4F200034FF000021A704FF0000000F0D3F84FF0140000F0CFF800F005F807F59477BD4680BD00BF80B500AF44F2FA63D0
:40084000C4F200034FF080021A7001F049F880BD80B500AF44F2FA63C4F200031B78DBB203F0C003802B19D144F2FA63C4F200034FF000021A704FF001004FF0000100F0E3
:4008800027FC0346002B09D04FF001004FF0000100F01EFC0346184600F002F880BD00BF004700BF90B587B000AF0346FB71FB794FF00200194600F00BFC034603F101037F
:4008C0004FEA0324FB794FF00300194600F000FC0346E318FB604FF00003FB744FF00003BB74FB794FF00200194600F0F1FB034603F101034FEA03237B6113E07B691B7800
:40090000FB72FB7A002B05D0FB7AFF2B02D04FF00103FB74BA7CFB7AD318BB747B6903F101037B617A69FB689A42E7D3FB794FF00200194600F0CCFB034603F101034FEA14
:4009400003234FEAD3037B61FA684FF6C073C0F203039A4203D0FB684FEAD30301E04FF40043FB600BE07B6903F190431B78DAB2BB7CD318BB747B6903F101037B617A6950
:40098000FB689A42EFD3BB7CC3F10003BB74FA7913464FEA03639B1A4FEA032303F57F3303F570731B78DBB2BA7C9A4202D1FB7C002B02D14FF0060301E04FF000031846D2
:4009C00007F11C07BD4690BD80B5ADF56C7D00AF024607F107031A704FF00003A7F8AA334FF00003A7F8A8334FF00A0387F8A7334FF0000387F8A6334FF0000387F8A533F7
:400A000000F058FC62B64FF0000387F8AD3307F107031B78002B03D007F107031B7801E04FF0FF0307F5187107F28E3208464FF4967100F0B3FCC7F89C0307F107031B7807
:400A4000002B05D097F8A73303F1FF3387F8A73397F8A733002B03D0D7F89C33002BD6D1D7F89C33002B40F0CA82B7F88E33062B04D907F518731B78012B04D04FF0040394
:400A800087F8AD334EE007F51873DB784FEA03239AB207F518739B781343A7F8AA33B7F8AA3303F1050307F51872D35C4FEA03239AB2B7F8AA3303F1040307F51871CB5C9D
:400AC0001343A7F89A33B7F8AA3303F10702B7F88E339A4204D94FF0030387F8AD3321E0B7F8AA3303F1060307F51872D35C172B04D04FF0040387F8AD3313E0B7F8AA3365
:400B000003F104039BB207F5187210461946FFF7B7FD0346B7F89A239A4203D04FF0080387F8AD334FF00003A7F8AE3397F8AD33002B40F0588207F518731B7987F89933AF
:400B40004FF0040387F8AD3307F518735B78A3F131030A2B00F2358201A252F823F000BF8D0B0000CF0B0000C30F0000390C0000A30D0000C30F0000B70D0000130E000021
:400B8000390C0000650E0000A10F000097F8A533012B40F01B82B7F8AA33002B40F016824FF00000FFF77EFE0346002B14BF00230123DBB21A4607F518731A714FF001036D
:400BC000A7F8AE334FF0000387F8AD33FEE197F8A533012B40F0FC81B7F8AA33012B40F0F78197F89933032B00F2F2814FF00003A7F89633B7F89633DAB207F518731A71A7
:400C0000B7F896334FEA13239BB2DAB207F518735A7107F518734FF0FF029A7107F518734FF00302DA714FF00403A7F8AE334FF0000387F8AD33CBE107F518735B78342BEE
:400C400025D197F8A533012B40F0CD81B7F8AA33032B40F0C88197F899333F2B09D997F899335BB2002B04DB4FF01003A7F8A83303E04FF49073A7F8A833B7F8A83307F52C
:400C80009A7210464FF000011A4601F07AFB97F8A533012B40F09E81B7F8AA33022B40F29981B7F8A83307F59A72D118B7F8AA33A3F1030307F5187202F10702084611461D
:400CC0001A4601F055FBB7F8A823B7F8AA33D3189BB2A3F10303A7F8A83397F899333F2B0BD997F899335BB2002B06DB00F0CAFD4FF01003A7F8AA3303E04FF49073A7F897
:400D0000AA33B7F8A823B7F8AA339A4240D107F518739B794FEA03239AB207F518735B791343A7F8A83397F899333F2B1BD897F8A633002B17D107F10C0318464FF000019A
:400D40004FF4907201F01DFB07F10C034FF003004FF0FF011A464FF4907300F003FD4FF0010387F8A63397F89903B7F8A81307F59A72B7F8AA3300F0F5FC0346002B02D01C
:400D80004FF00A0301E04FF0000387F8AD3303E04FF0030387F8AD334FF00003A7F8A83318E197F8A533012B40F016814FF00003A7F8A83324E197F8A533012B40F00E81BC
:400DC000B7F8A823B7F8AA33D318B3F5967F1BD84FF0000387F8AD33B7F8A83307F59A72D118B7F8AA3307F5187202F10402084611461A4601F0BCFAB7F8A823B7F8AA3379
:400E0000D318A7F8A833E9E04FF0030387F8AD33E4E0B7F8AA33002B40F0E28007F5967242F27843C0F2000393E8030082E803004FF0010387F8A5334FF00803A7F8AE33DC
:400E4000B7F8AE3307F5187202F1040107F59672084611461A4601F08BFA4FF0000387F8AD33BDE097F8A533012B40F0BB80B7F8AA33032B40F0B68007F518739B794FEAB5
:400E800003239AB207F518735B791343A7F8943397F899333F2B14D997F899335BB2002B0FDBB7F894334FEA0313C7F89033D7F890034FF01001FFF727FC034687F8A433C9
:400EC00013E097F899334FEA0322B7F89433D3184FEA0323C7F89033D7F890034FF48071FFF7F4FB034687F8A43397F899333F2B27D897F8993303F510334FEA0322B7F883
:400F00009433D3184FEA4313C7F890334FF00003A7F8A23311E0B7F8A223D7F89033D3181B78DAB297F8A433D31887F8A433B7F8A23303F10103A7F8A233B7F8A2331F2BD2
:400F4000E9D997F89933032B19D1B7F89433FF2B15D14FF6D073C0F203031B78DBB297F8A423D31A87F8A4334FF6D173C0F203031B78DBB297F8A423D31A87F8A43397F834
:400F8000A433C3F10003DAB207F518731A714FF0000387F8AD334FF00103A7F8AE3321E04FF00000FFF77EFC0346002B06D144F2FA63C4F200034FF080021A7000F090FC93
:400FC00011E04FF0050387F8AD330CE000BF0AE000BF08E000BF06E000BF04E000BF02E000BF00E000BF97F8AD1307F51872B7F8AE33084611461A4600F012F800E000BFD4
:4010000007F107031B78002B3FF4FDAC97F8A533012B3FF4F8AC07F56C77BD4680BD00BF80B584B000AF396013460246FA71BB803B684FF001021A703B6803F10103FA7957
:401040001A703B6803F10203BA88D2B21A703B6803F10303BA884FEA122292B2D2B21A70BB8803F104039BB238681946FFF708FB0346FB81BB8803F104033A68D318FA89C6
:40108000D2B21A70BB8803F105033A68D318FA894FEA122292B2D2B21A70BB8803F106033A68D3184FF017021A70BB8803F107039AB207F10403386811461A464FF09603AA
:4010C00000F00EF90346184607F11007BD4680BD80B586B000AF02460B46FA71BB714FF00203FB74FB7903F1FF33062B74D801A252F823F04B1100006B1100008511000081
:4011000031110000A5110000BF11000011110000BA7913464FEA03639B1A4FEA032303F57F3303F576737B614FF00403FB745BE0BA7913464FEA03639B1A4FEA032303F5F8
:401140007F3303F2D2337B614EE0BA7913464FEA03639B1A4FEA032303F57F3303F2C1337B614FF00403FB743EE0BA7913464FEA03639B1A4FEA032303F57F3303F2C53362
:401180007B6131E0BA7913464FEA03639B1A4FEA032303F57F3303F2C9337B614FF00403FB7421E0BA7913464FEA03639B1A4FEA032303F57F3303F2D6337B6114E0BA79EC
:4011C00013464FEA03639B1A4FEA032303F57F3303F575737B6107E04FF0000000F074FB4FF000037B6100BFFB7C022B0ED17B6903F101031B78DBB2FB607B691B78DBB23D
:401200004FEA0323FA681343FB6021E07B6903F103031B78DBB2FB607B6903F102031B78DBB24FEA0323FA681343FB607B6903F101031B78DBB24FEA0343FA681343FB60E5
:401240007B691B78DBB24FEA0363FA681343FB60FB79022B04D0032B0FD0012B0DD021E0FB689BB24FEA03239AB2FB684FEA13239BB213439BB2FB6015E0FB684FEA1362AE
:40128000FB6803F47F034FEA13231A43FB6803F47F434FEA03231A43FB684FEA03631343FB6000E000BFFB68184607F11807BD4680BD00BF80B500AF48F2C410C1F6FF706D
:4012C0004FF0800100F004F948F24410C1F6FF704FF0000100F0DAF800F0FAFD80BD00BF80B586B000AFF8607A600A467A817B724FF001037B61FB68002B49D07B89002B2F
:4013000046D04FF010037B617B7A9BB21A464FEA8202D3184FEA43037B827B8948F24410C1F6FF70F9681A4601F022F87B687A891A807B89DAB248F26123C1F6FF731A709E
:4013400023E07B89DAB248F26023C1F6FF731B78DBB29A4211D148F26123C1F6FF734FF000021A7048F26023C1F6FF734FF000021A704FF000037B610AE04FF0010000F07B
:40138000C3FA7B8A03F1FF337B827B8A002BD8D17B69184607F11807BD4680BD80B586B000AFF8607A600A467A817B724FF001037B61FB68002B4FD07B89002B4CD04FF0FC
:4013C00010037B617B7A9BB21A464FEA8202D3184FEA43037B823CE048F25A23C1F6FF731B78DBB203F01003002B2AD048F25823C1F6FF731B787B747B7C9AB27B681A80D1
:401400007B7C9AB27B899A4238BF13469BB2F86848F2C411C1F6FF711A4600F0A9FF48F25A23C1F6FF734FF000021A7048F25823C1F6FF734FF000021A704FF000037B61EC
:401440000AE04FF0010000F05FFA7B8A03F1FF337B827B8A002BBFD17B69184607F11807BD4680BD80B483B000AF0346FB7144F6CA13C4F20003FA7902F07F02D2B21A70E9
:4014800007F10C07BD4680BC704700BF80B483B000AF78600B46FB707B68002B12D048F25423C1F6FF737A681A6048F26123C1F6FF73FA781A7048F26023C1F6FF734FF094
:4014C00000021A7007F10C07BD4680BC704700BF80B483B000AF78600B46FB707B68002B12D048F25C23C1F6FF737A681A6048F25923C1F6FF73FA781A7048F25823C1F681
:40150000FF734FF000021A7007F10C07BD4680BC704700BF80B400AF48F26023C1F6FF734FF000021A70BD4680BC704780B400AF48F25823C1F6FF734FF000021A70BD4695
:4015400080BC704780B485B000AF0346FB7145F21013C4F200031B78DBB223F04003FB7345F21013C4F20003FA794FEA8212D2B202F04002D1B2FA7B0A43D2B21A7007F15E
:401580001407BD4680BC704780B485B000AF0346FB7145F21013C4F200031B78DBB203F07F03FB7345F21013C4F20003FA794FEAC212D1B2FA7B0A43D2B21A7007F114073E
:4015C000BD4680BC704700BF80B485B000AF0346FB7145F22013C4F200031B78DBB223F01003FB7345F22013C4F20003FA794FEA0212D2B202F01002D1B2FA7B0A43D2B25E
:401600001A7007F11407BD4680BC7047000000000230800800F0058000BF013800467FF4FCAF7047EFF3108072B6704780F31088704700BFAFF3008080B582B000AF00F0DB
:40164000F1F94FF0FF337B6000F054FB0346002B31D14FF0010000F007FB0346072B27D148F26420C1F6FF704FF0020100F006FA0346022B12D14FF000037B6003E04FF02C
:40168000010000F065F944F22273C4F200031B78DBB203F00203002BF1D009E044F22273C4F200031B78DBB203F00203002BD7D000F064FB02E04FF004037B607B68184669
:4016C00007F10807BD4680BD80B582B000AFFFF7B3FF78607B68002B02D1FFF7ADFF78607B68184607F10807BD4680BD80B584B000AF78604FF00003FB6000F093F97B683E
:40170000002B0DD148F24423C1F6FF731A6848F24423C1F6FF731A604FF00103FB601AE000F0E8FA0346002B0DD048F24423C1F6FF731A6848F24423C1F6FF731A604FF086
:401740000403FB6007E048F24423C1F6FF737A681A6000F013FBFB68184607F11007BD4680BD00BF80B586B000AFBA600246FA730A46BA81FB8000F0BDFA0346002B78D1DA
:40178000FA7BFB881046B9681A4600F0A9F978617B69072B6AD103E04FF0010000F0D8F844F22273C4F200031B78DBB203F00203002BF1D044F22273C4F200031B78DBB28F
:4017C00003F00203002B0ED044F22273C4F200031B78DBB24FEA9303DBB2002B03D14FF000037B6102E04FF0FF337B617B69002B3CD148F26423C1F6FF731A7848F2642343
:40180000C1F6FF735B78F87BB98900F0C7F978617B69072B2AD103E04FF0010000F098F844F22273C4F200031B78DBB203F00203002BF1D044F22273C4F200031B78DBB28E
:4018400003F00203002B0ED044F22273C4F200031B78DBB24FEA9303DBB2002B03D14FF000037B6102E04FF0FF337B6100F086FA02E04FF004037B617B69184607F118074E
:40188000BD4680BD80B400AF44F2AC33C4F2000344F2AC32C4F200021278D2B242F01002D2B21A7044F2BC33C4F2000344F2BC32C4F200021278D2B242F01002D2B21A70F1
:4018C000BD4680BC704700BF80B483B000AF0346FB7101BE07F10C07BD4680BC704700BF80B400AF44F2F663C4F2000344F2F662C4F200021278D2B242F00102D2B21A7027
:40190000BD4680BC704700BF80B582B000AF78600BE048F22013C1F6FF731B681846FFF777FE7B68A3F500437B607B68B3F5004FEFD848F21813C1F6FF731B687A6802FB0D
:4019400003F31846FFF764FE07F10807BD4680BD80B582B000AF0346FB80FA8848F21C13C1F6FF731B7803FB02F31846FFF750FE07F10807BD4680BD80B584B000AF0346B6
:401980003960FB714EF60853CEF200031B68FB60FB791F2B03D94FF00000FFF795FFFB7903F01F0303F110034FEA8303FA68D3181B68BB60FB7903F01F0303F110034FEA7C
:4019C0008303FA68D3183A681A60BB68184607F11007BD4680BD00BF80B582B000AF02460B46FA71BB71BB79072B03D94FF00000FFF76AFFFB791F2B03D94FF00000FFF774
:401A000063FFFB7903F01F0303F1604303F56443BA794FEA4212D2B21A7007F10807BD4680BD00BF80B582B000AFFFF7FBFD0346FB7144F2A033C4F2000344F2A032C4F278
:401A400000021278D2B242F00802D2B21A7044F2B033C4F2000344F2B032C4F200021278D2B242F00802D2B21A70FB791846FFF7DDFD07F10807BD4680BD00BF80B584B001
:401A800000AF78600B46FB704FF00003FB731DE04FF00100FFF75CFF00E000BF44F22273C4F200031B78DBB203F00103002BEFD0FB7B7A68D21844F22073C4F200031B782A
:401AC000DBB21370FB7B03F10103FB73FA7BFB789A42E2D3FB7B184607F11007BD4680BD80B485B000AF396013460246FA71BB804FF00703FB6044F22273C4F200031B78AB
:401B0000DBB203F00203002B3ED044F22073C4F200034FF0B6021A7044F22073C4F200034FF0D5021A7044F22073C4F200034FF002021A7044F22273C4F200031B78DBB2CF
:401B400003F00203002B1BD144F22073C4F20003FA791A704FF000037B810CE044F22073C4F200037A8939688A1812781A707B8903F101037B817A89BB889A42EED306E010
:401B80004FF00903FB6002E04FF00403FB60FB68184607F11407BD4680BC704780B485B000AFF871B980BA71FB704FF00703FB6044F22273C4F200031B78DBB203F00203A2
:401BC000002B46D044F22073C4F200034FF0B6021A7044F22073C4F200034FF0D8021A7044F22073C4F200034FF005021A7044F22273C4F200031B78DBB203F00203002B63
:401C000023D144F22073C4F20003FA791A7044F22073C4F20003BA884FEA122292B2D2B21A7044F22073C4F20003BA88D2B21A7044F22073C4F20003BA791A7044F22073D4
:401C4000C4F20003FA781A7006E04FF00903FB6002E04FF00403FB60FB68184607F11407BD4680BC704700BF80B485B000AF0346FB714FF00703FB6044F22273C4F2000322
:401C80001B78DBB203F00203002B29D044F22073C4F200034FF0B6021A7044F22073C4F200034FF0E1021A7044F22073C4F200034FF00E021A7044F22273C4F200031B7845
:401CC000DBB203F00203002B06D144F22073C4F20003FA791A7006E04FF00903FB6002E04FF00403FB60FB68184607F11407BD4680BC704780B582B000AF4FF004037B60CE
:401D0000FFF790FC0346FB7048F24823C1F6FF731B78002B28D148F24823C1F6FF734FF001021A704FF000037B604FF00403C4F208031B6803F00103002B15D04FF004035A
:401D4000C4F208034FF00402C4F20802126822F001021A6000BF00BF00BF48F24C23C1F6FF734FF001021A60FB781846FFF75EFC7B68184607F10807BD4680BD80B582B0B9
:401D800000AFFFF74FFC0346FB7148F24823C1F6FF734FF000021A7048F24C23C1F6FF731B68012B15D14FF00403C4F208034FF00402C4F20802126842F001021A6000BF8A
:401DC00000BF00BF48F24C23C1F6FF734FF000021A60FB791846FFF729FC07F10807BD4680BD00BF80B500AF44F6D613C4F200034FF001021A7044F6C813C4F200034FF04C
:401E000081021A7044F6DB13C4F200034FF003021A7044F6DC13C4F200034FF000021A704EF28013CEF200034FF400421A604FF00F004FF00701FFF7CFFD4FF00F0041F6C8
:401E40000971C0F20001FFF797FD48F26623C1F6FF734FF010021A70FFF75CFBFFF766FB48F25A23C1F6FF734FF000021A704FF00800FFF7F7FA80BD80B582B000AFFFF71E
:401E8000D1FB0346FB7144F2A533C4F2000344F2A532C4F200021278D2B242F00402D2B21A7044F2B533C4F2000344F2B532C4F200021278D2B242F00402D2B21A70FB794D
:401EC0001846FFF7B3FB07F10807BD4680BD00BF80B500AF48F25023C1F6FF731B78002B08D1FFF77FFF48F25023C1F6FF734FF001021A70FFF7C0FF4FF46143CEF2000314
:401F00004FF400421A6080BD80B582B000AF44F6D713C4F200031B78FB7148F26623C1F6FF731B78DBB203F04003DBB2002B40F0F48148F26623C1F6FF731B78DBB203F0D5
:401F40001003DBB2002B00F0E181FB7903F02003002B09D1FB7903F00103002B3DD0FB7903F00803002B38D048F26623C1F6FF731B78DBB2112B30D144F6D613C4F2000348
:401F800044F6D612C4F200021278D2B222F01002D2B21A7048F25A23C1F6FF731B78DBB223F02003DAB248F25A23C1F6FF731A7048F25A23C1F6FF731B78DBB243F0100395
:401FC000DAB248F25A23C1F6FF731A7048F26623C1F6FF734FF010021A70FB7903F00103002B00F09A81FB7903F00803002B00F09E8044F6D813C4F200031B78DBB203F0E7
:402000000103002B68D048F26023C1F6FF731B78DAB248F26123C1F6FF731B78DBB29A4236D244F6D813C4F2000348F25422C1F6FF72116848F26022C1F6FF721278D2B228
:402040008A181278D2B21A7044F6D713C4F200034FF014021A7048F26023C1F6FF731B78DBB203F10103DAB248F26023C1F6FF731A7048F25A23C1F6FF731B78DBB243F03D
:402080000203DAB248F25A23C1F6FF731A701BE044F6D813C4F200034FF0FF021A7044F6D713C4F200034FF014021A7048F25A23C1F6FF731B78DBB243F00603DAB248F2C4
:4020C0005A23C1F6FF731A7048F26623C1F6FF734FF012021A7020E144F6D713C4F200034FF010021A7048F26623C1F6FF734FF011021A7048F25A23C1F6FF731B78DBB266
:4021000043F02003DAB248F25A23C1F6FF731A7044F6D613C4F2000344F6D612C4F200021278D2B242F01002D2B21A70F5E048F26623C1F6FF731B78DBB2112B4DD148F2C8
:402140005823C1F6FF731B78DAB248F25923C1F6FF731B78DBB29A4229D244F6D813C4F200031B78BB7144F6D713C4F200034FF010021A7048F25C23C1F6FF731A6848F2D3
:402180005823C1F6FF731B78DBB2D318BA791A7048F25823C1F6FF731B78DBB203F10103DAB248F25823C1F6FF731A70B5E044F6D713C4F200034FF000021A7048F25A23D5
:4021C000C1F6FF731B78DBB243F04003DAB248F25A23C1F6FF731A709FE048F26623C1F6FF731B78DBB2122B40F08B80FB7903F00203002B53D148F26023C1F6FF731B78F3
:40220000DAB248F26123C1F6FF731B78DBB29A4228D244F6D813C4F2000348F25422C1F6FF72116848F26022C1F6FF721278D2B28A181278D2B21A7044F6D713C4F20003FD
:402240004FF004021A7048F26023C1F6FF731B78DBB203F10103DAB248F26023C1F6FF731A705AE044F6D813C4F200034FF0FF021A7044F6D713C4F200034FF004021A7007
:4022800048F25A23C1F6FF731B78DBB243F00403DAB248F25A23C1F6FF731A703DE044F6D813C4F200034FF0FF021A7044F6D713C4F200034FF000021A7048F25A23C1F613
:4022C000FF731B78DBB223F00203DAB248F25A23C1F6FF731A7048F25A23C1F6FF731B78DBB243F00103DAB248F25A23C1F6FF731A7048F26623C1F6FF734FF010021A704A
:402300000BE04FF00000FFF7DFFA06E048F26623C1F6FF734FF010021A7007F10807BD4680BD00BF38B50E4D0E4B0024E81A8510AC4205D00B4951F8242090470134F7E707
:4023400000F09EF80849094A541AA5100024AC4205D0054B53F8240080470134F7E738BD8C2400008C2400008C2400009424000010B50023934203D0CC5CC4540133F9E7EF
:4023800010BD82180346934202D003F8011BFAE770470000BE000000D824000000000000C84900401900005100401000305100404000F0510040100000000140001000145B
:4023C0000140000800400140000A004C01400002005001402000000060520040702400000600000001150140011B01400242014001430140034401400145014001460140E8
:40240000014701400148014002490140084C0140064D014001510140EA01EA013E10CE20961010101420C40C9830983098309610AA10EA8010401320148078107C20983040
:40244000C40EDE0378407C8098C0AB20DC01DE0403C0000030000000300030000000000000C0C000000000000010100000000000203000003000000069E0112E0014010102
:40248000F8B500BFF8BC08BC9E467047550000007D010000F8B500BFF8BC08BC9E46704731000000B82400000881FF1F20000000400100000000000000000000942300007F
:4024C0009823000000366E01C05D0000180000000000E02E000000000000000000000000000000000000000000000000000000000000000000000000000000000000000039
:402500000080002011250000D13E0000D13E000080B500AF01F0E0FC10B5054C237833B9044B13B10448AFF300800123237010BD2081FF1F000000000870000008B5064B0F
:402540001BB106480649AFF300800648036813B1054B03B1984708BD00000000087000002481FF1F0881FF1F0000000080B400AF0D4B712283F846200B4B422283F847207E
:40258000094B0A2283F84820074B032283F84320054B012283F84420034B0F2283F84520BD465DF8047B70475C81FF1F80B582B000AF7860002003F0D9FB002003F012FC33
:4025C000012002F0EFF97B68184602F041FC012003F0CCFB012003F005FC002002F0E2F90837BD4680BD00BF80B582B000AF7860002001F025FF002003F0B8FB002003F059
:40260000F1FB012001F01CFF7B68184602F020FC012003F0ABFB012003F0E4FB002001F00FFF0837BD4680BD80B483B000AF00237B6007E0074A7B68134400229A717B6851
:4026400001337B607B68132BF4DD0C37BD465DF8047B70475C81FF1F80B58CB000AF02F04FFA544B1A22DA70524BDB78DB08DBB23B62504BDB7819463A6A13465B079B1AAF
:40268000DB000B44FB613B6AC3F112037B62FB69002B02DD7B6A013B7B620023FB620FE03A1DFB6A134400221A703A1DFB6A13441B784148194601F075FBFB6A0133FB62CA
:4026C000FA6A7B6A9A42EBDB0122FB6902FA03F3DBB2BB74374B9B79DAB2FB69C3F10803FF2101FA03F3DBB21340DBB2FB76FA7EFB69C3F1080342FA03F3FB763A1DFB6A8C
:4027000013441A78FB7E1343DAB2391DFB6A0B441A703A1DFB6A13441B782748194601F041FBFB6A0133FB620123BB6231E0BB6A013B204A13449B791A46FB6902FA03F3EC
:40274000DAB2391DFB6A0B441A701A4ABB6A13449B791A46FB69C3F1080342FA03F3FB763A1DFB6A13441A78FB7E1343DAB2391DFB6A0B441A703A1DFB6A13441B780E488F
:40278000194601F00FFBFB6A0133FB62BB6A0133BB627B6AC3F11202BB6A9A42C7DC02F09FF93A1DFB6A134400221A703037BD4680BD00BF5C81FF1F6482FF1F80B500AF70
:4027C0004FF41C70012102F0E3FE03F025FB00F051FF4FF41C70012103F07EF803F04CFD01F086F8024803F05FF903F0E1F980BDC938000080B582B000AF874B9B78FB71B6
:40280000FB79012B06D0FB79022B03D0824B002283F8CD20FB79013B192B00F2F58001A252F823F08D280000C728000093280000AD2800009F290000BD290000092A0000E7
:40284000092A0000092A0000092A0000092A000081290000092A0000092A0000092A0000092A0000092A0000092A0000092A0000092A0000092A0000092A0000092A0000B1
:40288000092A0000092A0000DB29000002F03AFDBEE0614BDB784FF47A7202FB03F31846FFF784FE5C4B00229A70B1E05A4BDB784FF47A7202FB03F31846FFF795FE564BEA
:4028C00000229A70A4E0544B93F8CD30002B00D09EE0514BDB78192B19D9012003F046FA012002F07DF8FFF79FFE04E04A4B9B78022B00D007E0484BDB78184600F028FA2E
:402900000346002BF2D0002003F030FA37E0424BDB780C2B19D1012003F028FAFFF784FE0C2000F087FE04E03B4B9B78022B00D004E000F035FE0346002BF5D0002003F0F0
:4029400015FA012002F04CF819E0344B01221A70012003F00BFA012002F042F8FFF764FE04E02D4B9B78022B00D004E000F074FB0346002BF5D0002003F0F8F948E047E0D3
:40298000012003F02FFA0C2000F054FE00F0DAFD214B00229A70002003F024FA38E0012003F020FA012002F01BF800F04DFA1A4B00229A70002003F015FA29E0012003F069
:4029C00011FA012002F00CF8FFF746FE124B00229A70002003F006FA1AE00F4BDB78002B11D0002003F0FEF9012001F0F9FF0A4BDB78184600F05CF9074B00229A7001202E
:402A000003F0F0F904E003E0002003F0CDF900BF0837BD4680BD00BF5C81FF1F5881FF1F80B582B000AF3C4B93F8CD30002B34D0394B93F8CD30032B14D801A252F823F0B1
:402A4000992A0000512A0000992A0000572A000001F06EF821E001F039F82F4B012283F8CD201AE000237B6012E0002003F09CF9002003F0B7F94FF4FA7002F0E9F900205F
:402A800003F092F9002003F0ADF97B6801337B607B68022BE9DD00E000BF204B1B789B08DBB203F00103002B12D01C4B1B7823F00403DAB2194B1A70194B1B78002B07D0BF
:402AC000002003F071F900F031FF012003F06CF900F050FF104B93F84930002B16D00E4B93F84930032B11D801A252F823F000BF0D2B0000012B00000D2B0000072B000010
:402B000000F0D6FD02E000F0ABFE00BF00F004FE0837BD4680BD00BF5C81FF1F9D82FF1FA482FF1F80B584B000AF62B602F0BAF8524802F005F9524801F0BEFC01F0D0FF89
:402B4000504802F0CBFC504B00221A604F4802F0E9FD02F069FA4FF480704FF480714C4A02F072FA01F08AFD4A4801210222012301F018F8012003F0F9F8012003F032F9F5
:402B8000012003F011F9424B00229A70404B00221A703F4B00225A703D4B00221A713C4B0022DA703A4B002283F84220384B032283F8CD20364B012283F8CF20082000F0AF
:402BC00033FBFFF7D3FC344B00221A70334B00221A60FFF7F3FD324B00221A70314B00221A70314B00221A6003F048F80023FB600023BB60264B9B78FB71FB79002B06D0FA
:402C0000FB79022B01D10123FB60FFF7F3FDFFF707FFFB68012B14BF00230123DAB2234B1B68012B14BF00230123DBB21340DBB2002B1FD015E00A2002F00AF9BB68013362
:402C4000BB60BB68B3F5FA7F0BDB114B1B7843F00303DAB20E4B1A700023FB600023BB6003E00E4B1B68002BE5D0104B00221A600023FB60322002F0EBF8B7E7654D000031
:402C8000DD440000015500008C82FF1F495700005C81FF1F6482FF1F5881FF1F9082FF1FF482FF1FEC82FF1FF082FF1F6082FF1F80B586B000AF78600023BB7300237B61B9
:402CC0003EE0224A7B6913449B79FB7300233B6130E0BB7B0133BB73BA7B7B689A4206DD022001F07DFE002001F08AFC2BE0FB7B5BB2002B06DA022001F072FE012001F0FC
:402D00007FFC05E0032001F06BFE002001F078FC322002F0BFF8022001F062FE002001F06FFCFB7B5B00FB73022002F091F83B6901333B613B69072BCBDD7B6901337B6185
:402D40007B69132BBDDD1837BD4680BD5C81FF1F80B586B000AF786000237B6100233B6101F06CFC0346FB7301F078FC0346BB73334B00221A60FB7B002B02D0BB7B002B83
:402D800056D13FE001F05AFC0346FB7301F066FC0346BB73FB7B002B0BD103E001F04EFC0346FB73FB7B012BF8D17B6901337B6120E0BB7B002B1DD103E001F04FFC03469D
:402DC000BB73BB7B012BF8D11E4A3B6913449B79DAB27B69C3F10703012101FA03F3DBB21343DBB2DAB217493B690B449A717B6901337B617B69072B04DD00237B613B69DA
:402E000001333B613B69DA007B691A447B689A42B8DB0C4B00229A70094B01221A60094B1B7843F00303DAB2064B1A70012303E0034B00221A60002318461837BD4680BDB4
:402E40006082FF1F5C81FF1F80B58CB000AF002387F821300023FB62BAE07E4AFB6A13449B7987F82330002387F82230FB6A5B0007F130021344002203F82C2CFB6A5B0056
:402E8000013307F130021344002203F82C2C0023BB623DE097F823305BB2002B17DA97F82130002B09D1002387F8213097F8223043F0020387F822301AE097F8223043F0B0
:402EC000010387F82230012387F8213010E097F82130002B09D197F8223043F0030387F82230012387F8213002E0002387F82130BB6A022B04DC97F822309B0087F8223001
:402F000097F823305B0087F82330BB6A0133BB62BB6A032BBEDDFB6A5B0007F13002134497F8222003F82C2C002387F822300023BB623DE097F823305BB2002B17DA97F8CE
:402F40002130002B09D1002387F8213097F8223043F0020387F822301AE097F8223043F0010387F82230012387F8213010E097F82130002B09D197F8223043F0030387F8D9
:402F80002230012387F8213002E0002387F82130BB6A022B04DC97F822309B0087F8223097F823305B0087F82330BB6A0133BB62BB6A032BBEDDFB6A5B00013307F13002E6
:402FC000134497F8222003F82C2CFB6A0133FB62FB6A0D2B7FF741AF002387F8223000237B6231E03A1D7B6A13441B7887F823303A1D7B6A134400221A700023BB621DE0E4
:4030000097F823305BB2002B06DA012001F0DCFA022001F0E5FC05E0032001F0E1FC002001F0D2FA4FF47A7001F034FF97F823305B0087F82330BB6A0133BB62BB6A072BDA
:40304000DEDD7B6A01337B627B6A1B2BCADD3037BD4680BD5C81FF1FB0B586B000AF01237B6100233B6100233B600023FB73664B00221A70654B00221A600023BB600023C9
:40308000FB71002001F0BCFA0023BB6007E0604ABB68134400229A71BB680133BB60BB68132BF4DD11233B6076E0574B1B78002B6DD0554B00221A707B69072B04DD00239B
:4030C0007B613B6901333B61524B1B68184603F063FC04460D46386803F05EFC02460B461046194646A3D3E9002303F0BBFC02460B462046294603F03BFF0346002B08D07F
:40310000FB79012B05D10023FB737B6901337B6142E0404B1B68184603F03EFC04460D46386803F039FC02460B461046194634A3D3E9002303F096FC02460B46204629467D
:4031400003F002FF0346002B00D125E0FB7B0133FB73FB7B012B1FD92D4A3B6913449B79DAB27B69C3F10703012101FA03F3DBB21343DBB2DAB226493B690B449A717B694B
:4031800001337B610023FB730123FB7104E01F4B1B68402B00DD02E03B690A2B85DD02F03BF91A4B00221A601A4B00221A601A4B00221A70194B01221A703B69082B07DCA4
:4031C000134B0022DA70164B00221A60002310E00F4B0A22DA700E4B00229A700C4B1B7843F00303DAB20A4B1A700D4B01221A60012318461837BD46B0BD00BFAFF30080FB
:403200009A9999999999E93F5A81FF1F9482FF1F5C81FF1F8C82FF1F9882FF1F9982FF1F6082FF1FAFF3008080B582B000AF78607B6803F00103002B03D0012001F084FB91
:4032400002E0002001F080FB7B6803F00203002B03D0012001F01CFB02E0002001F018FB7B6803F00403002B03D0012001F006F902E0002001F002F97B6803F00803002BF2
:4032800003D0114B01221A6002E00F4B00221A607B6803F01003002B03D0012001F082FB02E0002001F07EFB7B6803F02003002B03D0012001F0C4F802E0002001F0C0F818
:4032C0000837BD4680BD00BF5481FF1F80B582B000AF0023FB7101F027FB0346012B04D1FB7943F00103FB7103E0FB7923F00103FB7101F0F9FA0346012B04D1FB7943F0D5
:403300000203FB7103E0FB7923F00203FB7101F0DDFA0346012B04D1FB7943F00403FB7103E0FB7923F00403FB7101F0EDFA0346012B04D1FB7943F00803FB7103E0FB79A1
:4033400023F00803FB7101F01DFB0346012B04D1FB7943F01003FB7103E0FB7923F01003FB71FB7943F02003FB712A4B1B78002B47D0284B00221A70274B1A6841F28733E1
:403380009A4208DCFB7943F04003FB71234B002283F8422039E0204B1A6841F287339A4217DD1D4B1A684AF6C7739A4211DC002002F0FAFC002002F0D9FC002002F012FD8A
:4033C000FB7923F04003FB71144B0F2283F842201BE0114B1A684AF6C7739A4215DD002002F0E2FC002002F0C1FC002002F0FAFCFB7923F04003FB71084B992283F8422021
:4034000003E0FB7943F04003FB71FB7918460837BD4680BDEC82FF1FF082FF1F5C81FF1F80B582B000AF134B5B78FB71FB7903F00103002B1BD0FB7903F00203002B04D04C
:403440000C4B5B791846FFF7EFFEFB7903F00403002B01D000F02CF9FB7903F00803002B02D0054B01221A60024B00225A700837BD4680BD5C81FF1F9082FF1F80B582B0BB
:4034800000AF01F07FFA0346002B11D001F03CFA0346002B03D1284B1B68012B08D001F033FA0346012B0AD1234B1B68002B06D1002001F0CFF9002002F076FC05E0012071
:4034C00001F0C8F9012002F06FFCFFF7FFFE0346FB711A4B1B78FA799A4226D0642001F0D9FCFFF7F3FE0346BB71FA79BB799A420DD1134BBA791A71104BBA791A70104B21
:403500001B7843F00503DAB20D4B1A7010E00B4B1B78BA799A4203D1084BBA791A7007E0064B1A78054B1A7002E0044BFA791A700837BD4680BD00BF5481FF1F5981FF1F88
:403540005C81FF1F80B582B000AF002002F00EFC002002F047FC00237B6012E000233B6009E00E4A3B6813449B79184601F058F93B6801333B603B680B2BF2DD7B680133FB
:403580007B607B68132BE9DD012002F0EFFB012002F028FC0837BD4680BD00BF5C81FF1F80B582B000AF00237B600023FB7001F0E3F80346202B34D11FE001F0DDF80346C7
:4035C000202B1AD101F0EAF80346BB70BB78022B08D1164A7B681344BA789A717B6801337B600AE07B68002B07DD104A7B681344BA789A717B6801337B607B680B2BDCDDDB
:4036000001F0EEF8094B00229A70094B01221A60064B1B7843F00303DAB2044B1A700123FB70FB7818460837BD4680BD5C81FF1F6082FF1F80B582B000AF0346FB710C4BC4
:403640001B78FA799A4210D0FB790C2B02D01A2B04D007E0002001F0C3F903E0012001F0BFF900BF024BFA791A700837BD4680BD5C82FF1F80B582B000AF02F0F3FC0023F3
:403680007B6008E0094A7B681344483300225A717B6801337B607B687F2BF3DD034B002283F84B200837BD4680BD00BF5C81FF1F80B500AF012002F0B7F8012002F0D0F8F3
:4036C00002F05CFD012001F0C3FB114B93F8D030532B09D10E4B93F84B300E48194602F019FD052001F0B4FB094B93F84A3043F00103DAB2064B83F84A2002F02BFDFFF72D
:40370000B9FF002002F0ACF8052001F0A1FB80BD5C81FF1FA981FF1F80B584B000AF0023FB600023FB700023FB72012002F07CF802F04EFC0346062B40F28A8000237B60BE
:403740000CE002F0E9FB0346FB70FB78532B02D10123FB7205E07B6801337B607B68062BEFDDFB7A002B1AD002F0D6FB0346FB70394BFA781A7002F0CFFB0346FB70364B55
:40378000FA789A7002F0C8FB0346FB70324BFA78DA70314B5B881BB2062B02DC00E057E056E00023FB602D4AFB681344483353225A71FB680133FB60274B1A782749FB6830
:4037C0000B4448335A71FB680133FB60224B9A782249FB680B4448335A71FB680133FB601D4BDA781D49FB680B4448335A71FB680133FB60184B5B881BB2802B05DDFFF7CE
:4038000039FF154B00225A8022E011E002F0E0FB0346002B0CD002F07FFB0346FB700F4AFB6813444833FA785A71FB680133FB60094B5B881AB2FB689A42E7DC064B5B88CE
:40384000DAB2064B83F84B20044B022283F84A201037BD4680BD00BFA082FF1F5C81FF1F80B582B000AF02F0D7FA164B93F84C30FB71FB79013B032B20D801A252F823F029
:40388000913800009D380000A9380000B33800004FF41C70012101F07BFE0FE040F23710012101F075FE09E09B20012101F070FE04E03320012101F06BFE00BF0837BD467C
:4038C00080BD00BF5C81FF1F80B400AF064B1B78064B1B7843F00403DAB2044B1A70BD465DF8047B704700BF646500409D82FF1F80B582B000AF02F0E5FD00237B6008E024
:40390000094A7B681344D03300221A707B6801337B607B682F2BF3DD034B002283F8CE200837BD4680BD00BF5C81FF1F80B500AF012002F09BF8012001F0B0FF02F04EFEB1
:40394000012001F085FA094B1B78532B08D1084B1B780648194602F00DFE052001F078FA02F028FE002001F099FF80BDAC82FF1FA482FF1F80B584B000AF0023FB60002319
:40398000FB700023FB72012002F070F802F052FD0346042B40F2938000237B600CE002F0EBFC0346FB70FB78532B02D10123FB7205E07B6801337B607B68042BEFDDFB7A9D
:4039C000002B1AD002F0D8FC0346FB703D4BFA781A7002F0D1FC0346FB703A4BFA789A7002F0CAFC0346FB70364BFA78DA70354B5B881BB2042B02DC00E060E05FE00023D8
:403A0000FB60314AFB681344D03353221A70FB680133FB602B4B1A782B49FB680B44D0331A70FB680133FB60264B9A782649FB680B44D0331A70FB680133FB60214BDA7874
:403A40002149FB680B44D0331A70FB680133FB601C4B5B881BB2302B03DD1A4B30225A802DE011E002F0E6FC0346002B0CD002F083FC0346FB70144AFB681344D033FA78F4
:403A80001A70FB680133FB600E4B5B881AB2FB689A42E7DC0B4B5B88DAB20B4B83F8CE20094B93F84A3043F02003DAB2064B83F84A20054B022283F8CD2002F079F8103705
:403AC000BD4680BDA882FF1F5C81FF1F80B582B000AF164B93F8CF30FB71FB79013B032B20D801A252F823F0F93A0000053B0000113B00001B3B00004FF41C70012101F009
:403B0000EBFE0FE040F23710012101F0E5FE09E09B20012101F0E0FE04E03320012101F0DBFE00BF0837BD4680BD00BF5C81FF1F80B483B000AF184B93F8CE30FB70FB78AE
:403B4000302B20D800237B600BE0134A7B681344D0331A7811497B680B441A707B6801337B60FA787B689A42EFDCFB787B6007E00A4A7B68134400221A707B6801337B6078
:403B80007B682F2BF4DD064BFA781A700C37BD465DF8047B704700BF5C81FF1FAC82FF1FA482FF1F80B485B000AFF860B9607A603B60FB68BA681A60FB687A685A60FB6830
:403BC0000022DA82FB6800229A82FB6802229A61FB680022DA61FB6800221A62FB683A689A60FB680822DA601437BD465DF8047B704700BF80B584B000AF78607B689B8A0D
:403C00009BB2002B37D07B68DB69013B7A68D361002B30DC7B685B8A9BB203F00103002B03D0022000F0DCFE02E0032000F0D8FE7B685B8A9BB25B089AB27B685A827B682E
:403C40009B8A9BB2013B9AB27B689A827B689B8A9BB2002B09D07B689B6923F002027B689A617B680322DA6105E07B689B6943F002027B689A6100F0E1FC0346FB737B688B
:403C8000DB8A002B15D1FB7B002B60D17B6804221A627B68DB689AB27B689B689BB213449AB27B685B689BB213449AB27B68DA824DE07B681B6A013B7A681362002B46DCA5
:403CC000FB7B002B08D07B681B8A6FEA43436FEA53439AB27B681A827B681B8A5B089AB27B681A827B68DB8A013B9AB27B68DA827B68DB8A002B27D17B681B8A1A467B682F
:403D00009B68C3F107017B685B68002B0CBF00230123DBB2CB1A42FA03F3DAB27B685A627B689B6903F00103002B06D07B689B6943F004027B689A6109E07B689B6943F032
:403D400001027B689A6102E07B6803221A621037BD4680BD80B483B000AF0346FB71FB791B09DBB2DAB2FB791B01DBB21343DAB2FB795340DBB2FB71FB799B08DAB2FB79E3
:403D80005340FB71FB795B08DAB2FB795340FB71FB7903F00103DBB218460C37BD465DF8047B704780B584B000AF786039600023BB603B689BB25B00FB817B685B68012BA7
:403DC0001FD13B68DBB21846FFF7C4FF0346BB60BB68002B07D07B689B684FF4407202FA03F39BB206E07B689B684FF4007202FA03F39BB2F9891A460B4613439BB2FB81D7
:403E000031E07B685B68022B1FD13B68DBB21846FFF7A0FF0346BB60BB68002B07D07B689B684FF4007202FA03F39BB206E07B689B684FF4407202FA03F39BB2F9891A4646
:403E40000B4613439BB2FB810DE07B68DA687B689B681344012202FA03F39AB2FB8913439BB2FB81FFE700BF7B689B6903F00203002BF9D072B67B689B6923F002027B68FE
:403E80009A6162B67B68FA895A827B680322DA617B685B68002B0CD07B68DB689AB27B689B689BB213449BB202339AB27B689A820BE07B68DB689AB27B689B689BB213440D
:403EC0009BB201339AB27B689A821037BD4680BD80B400AFFEE700BF80B586B000AF224B7B61224B3B61204B7B6135E03B691B68FB603B695B68BB603B699B683B600023B7
:403F00007B600CE0FB681A68BB681A60BB680433BB60FB680433FB607B6804337B607A683B689A42EED13B69DB683B6000237B6008E0BB6800221A60BB680433BB607B683A
:403F400004337B607A683B689A42F2D13B6910333B617B69013B7B617B69002BC6D103F01BF8FEF7DFFDFEE7010000008C70000080B582B000AF174B174A1A60174B174A17
:403F8000126842F400721A6000237B600FE07B68032B04D8124B7A6853F8223000E0114B114A796842F821307B6801337B607B682F2BECD90D4B1B78DAB20D4B1A700D4B07
:403FC000094A1A6000F058F90B4B00221A600837BD4680BD0CED00E00004FA0514ED00E000250000D13E00000080FF1FBC7600400481FF1F08ED00E00081FF1F80B582B0C3
:4040000000AF78603960786800213A6802F0F3FF0837BD4680BD00BF80B584B000AFF860B9607A60F868B9687A6802F0DBFF1037BD4680BD80B483B000AF0346FB71FEE7D2
:4040400080B487B000AF7860396000233B6100237B6126E07B699B007A6813441B68BB60BB68FB73BB6823F0FF03BB6013E03B695B003A6813441B781A46BB6813443A69BC
:40408000520039680A4452781A703B6901333B61FB7B013BFB73FB7B002BE8D17B6901337B617B69262BD5D91C37BD465DF8047B704700BF80B582B000AF444B01221A80A4
:4040C000434B19221A70434B5F221A80424B19221A70424B67221A80414B19221A70414B67221A80404B19221A70404B40F2DF121A803F4B19221A703E4B40F2E1421A8063
:404100003D4B19221A703D4B40F249121A803C4B1B221A703B4B26221A704FF0402304221A70394B04221A70384B394A1278D2B21A70384B4FF471621A80374B41F251225E
:404140001A800023FB7019237B6014E0FB785B00DAB2324B1B78DBB203F00103DBB21343DBB203F00303FB704FF4F07000F040FE7B68013B7B607B68002B02D0FB78032BFE
:40418000E4D17B68002B02D10320FFF753FF244B4FF480721A80224B07221A70214B00221A70214B48221A701D4B00221A701F4B02221A701E4B1E4A1278D2B242F07F026A
:4041C000D2B21A700837BD4680BD00BF80400040824000408440004086400040884000408A4000408C4000408E4000409040004092400040944000409640004098400040D7
:404200009A4000400043004000420040A14600408901004922420040204200402542004004400040064000400840004001400040A243004080B483B000AF0B4B1B78FB71D5
:404240000A4BFA7902F00702D2B21A70084BFA791209D2B21A70074B44221A700C37BD465DF8047B704700BFCF0100496E5800406F5800407658004080B586B000AF72B636
:40428000554B554A1278D2B242F00402D2B21A700023FB7513E0FA7D13465B0013445B004E4A13443B613B691A683B699B889BB210461946FFF7A2FEFB7D0133FB75FB7D64
:4042C000092BE8D90023FB751CE0FA7D13469B0013445B00424A1344FB60FB681B68BB60FB685B687B60FB681A7A5B7A1B0213437B807B88B86879681A46FFF78DFEFB7D46
:404300000133FB75FB7D022BDFD94FF090403549FFF796FE344B344A1278D2B242F00202D2B21A70314B314A1278D2B242F00202D2B21A702E4B2E4A1278D2B242F040025A
:40434000D2B21A702B4B2B4A1278D2B242F01002D2B21A70284829490A22FFF75DFE284828490A22FFF758FE274828490A22FFF753FE274827490A22FFF74EFE26482749AE
:404380000A22FFF749FE264826490A22FFF744FE254B84221A70254B84221A70244B244A1278D2B242F00802D2B21A70214B01221A70FFF77FFE1F4BC1221A701E4B0122EF
:4043C0001A70FFF737FF1D4809490E22FFF724FE1837BD4680BD00BFE84600400C700000487000009C0000480350014013500140A0430040C2430040005100406C0E004841
:40440000C0510040780E0048F0510040840E004810510040900E0048205100409C0E004830510040A80E0048DB0601405B1A0140224300400048004004000840B043004095
:4044400080B485B000AF0346FB710B4B1B78DBB223F00803FB73084BFA79D200D2B202F00802D1B2FA7B0A43D2B21A701437BD465DF8047B704700BF2051004080B485B050
:4044800000AF0346FB710B4B1B78DBB223F01003FB73084BFA791201D2B202F01002D1B2FA7B0A43D2B21A701437BD465DF8047B704700BF0051004080B582B000AF7860C3
:4044C00000F076F8786800F043F8072000F052F800F062F80837BD4680BD00BF80B500AF174B1B78002B17D0164B1B780133DAB2144B1A70134B1B781E2B02D1012000F0C4
:404500007FF8104B1B78232B09D1002000F078F80B4B00221A7002E0002000F071F80A4B1B78002B04D0094B1B685A1C074B1A6000F01AFBFEF774FFFEF7A0FF80BD00BF14
:404540009982FF1F9882FF1FF482FF1FF082FF1F80B485B000AF7860054B1B68FB60FB6884337A681A601437BD465DF8047B704708ED00E080B483B000AF0346FB71054B49
:40458000FA795201D2B21A700C37BD465DF8047B704700BF11E400E080B400AF034B4FF400321A60BD465DF8047B704700E100E080B400AF034B4FF400321A60BD465DF8DB
:4045C000047B704780E100E080B485B000AF0346FB710A4B1B78DBB223F00103FB73074BFA7902F00102D1B2FA7B0A43D2B21A701437BD465DF8047B704700BF0051004047
:4046000080B485B000AF0346FB710B4B1B78DBB223F00203FB73084BFA795200D2B202F00202D1B2FA7B0A43D2B21A701437BD465DF8047B704700BF0051004080B400AFC0
:40464000054B1B78DBB203F002035B08DBB21846BD465DF8047B70472151004080B400AF054B1B78DBB203F00103DBB21846BD465DF8047B704700BF2151004080B500AF2C
:40468000054B1B78002B04D100F008F8024B01221A7000F029F880BD3C81FF1F80B500AF0C4B71221A700C4B00221A700B4B06221A700B4B47221A700A4B00221A7000F067
:4046C0003FF8034623F01803DBB2184600F044F880BD00BF806400408264004021640040316400408164004080B582B000AF00F089FB0346FB710F4B0E4A1278D2B242F0BF
:404700002002D2B21A700C4B0B4A1278D2B242F01002D2B21A70094B084A1278D2B242F01002D2B21A70FB79184600F06FFB0837BD4680BD906400409264004091640040ED
:4047400080B400AF034B1B78DBB21846BD465DF8047B70477164004080B483B000AF0346FB71044BFA791A700C37BD465DF8047B704700BF7164004080B483B000AF064BC4
:404780001B78DBB203F07F03FB71FB7918460C37BD465DF8047B70476264004080B483B000AF0023FB710C4B1B78BB71BB7903F02003002B09D0094B1B78FB71BB7903F0CC
:4047C0001E03002B01D00023FB71FB7918460C37BD465DF8047B7047626400404464004080B582B000AF00F00DFB0346FB710B4B0A4A1278D2B242F00102D2B21A70074B6C
:40480000064A1278D2B222F00102D2B21A70FB79184600F0FBFA0837BD4680BD9464004080B483B000AF0346FB7100BF074B1B78DBB203F00403002BF8D1054BFA791A7052
:404840000C37BD465DF8047B704700BF616400404064004080B485B000AF0346FB710B4B1B78DBB223F00403FB73084BFA799200D2B202F00402D1B2FA7B0A43D2B21A70CD
:404880001437BD465DF8047B704700BF0051004080B485B000AF0346FB710B4B1B78DBB223F00803FB73084BFA79D200D2B202F00802D1B2FA7B0A43D2B21A701437BD4647
:4048C0005DF8047B704700BF0051004080B400AF044B1B78DBB2DB09DBB21846BD465DF8047B70470151004080B400AF054B1B78DBB203F040039B09DBB21846BD465DF82C
:40490000047B70470151004080B400AF054B1B78DBB203F020035B09DBB21846BD465DF8047B70470151004080B400AF054B1B78DBB203F010031B09DBB21846BD465DF817
:40494000047B7047F151004080B485B000AF0346FB710B4B1B78DBB223F02003FB73084BFA795201D2B202F02002D1B2FA7B0A43D2B21A701437BD465DF8047B704700BFFC
:40498000F051004080B400AF054B1B78DBB203F040039B09DBB21846BD465DF8047B70472151004080B485B000AF0346FB710B4B1B78DBB223F00403FB73084BFA799200FB
:4049C000D2B202F00402D1B2FA7B0A43D2B21A701437BD465DF8047B704700BF2051004080B483B000AF0346FB71044BFA791A700C37BD465DF8047B704700BF74640040E0
:404A000080B500AF204B204A1278D2B202F00102D2B21A701D4B1D4A1278D2B222F00302D2B21A701A4B1A4A1278D2B222F03002D2B21A70164B164A1278D2B242F030024E
:404A4000D2B21A70124B124A1278D2B222F00F02D2B21A700E4B0E4A1278D2B242F00F02D2B21A700B4B0B4A1278D2B242F00102D2B21A70632000F083F8632000F092F839
:404A8000082000F061F880BD004F0040024F00400B4F0040014F004080B400AF0D4B0D4A1278D2B242F00102D2B21A700A4B0A4A1278D2B242F00102D2B21A70074B074A7E
:404AC0001278D2B242F00102D2B21A70BD465DF8047B7047A3430040B3430040004F004080B500AF054B1B78002B04D1FFF788FF024B01221A70FFF7CFFF80BD3E81FF1FD0
:404B000080B400AF0D4B0D4A1278D2B222F00102D2B21A700A4B0A4A1278D2B222F00102D2B21A70074B074A1278D2B222F00102D2B21A70BD465DF8047B7047004F0040E7
:404B4000A3430040B343004080B483B000AF0346FB71044BFA791A700C37BD465DF8047B704700BF034F004080B400AF034B1B78DBB21846BD465DF8047B7047034F0040D1
:404B800080B485B000AF0346FB80FB88FB81044BFA891A801437BD465DF8047B704700BF044F004080B483B000AF0346FB80044BFA881A800C37BD465DF8047B704700BFAE
:404BC000064F004080B500AF204B204A1278D2B202F00102D2B21A701D4B1D4A1278D2B222F00302D2B21A701A4B1A4A1278D2B222F03002D2B21A70164B164A1278D2B25C
:404C000042F03002D2B21A70124B124A1278D2B222F00F02D2B21A700E4B0E4A1278D2B242F00F02D2B21A700B4B0B4A1278D2B242F00102D2B21A708B2000F05FF88B2061
:404C400000F06EF8082000F03DF880BD184F00401A4F0040234F0040194F004080B400AF0D4B0D4A1278D2B242F00402D2B21A700A4B0A4A1278D2B242F00402D2B21A70C7
:404C8000074B074A1278D2B242F00102D2B21A70BD465DF8047B7047A3430040B3430040184F004080B500AF054B1B78002B04D1FFF788FF024B01221A70FFF7CFFF80BD30
:404CC0003F81FF1F80B483B000AF0346FB71044BFA791A700C37BD465DF8047B704700BF1B4F004080B400AF034B1B78DBB21846BD465DF8047B70471B4F004080B485B035
:404D000000AF0346FB71FB79FB81044BFA891A801437BD465DF8047B704700BF1C4F004080B483B000AF0346FB71044BFA7992B21A800C37BD465DF8047B70471E4F004087
:404D400080B582B000AF786000F046F8786800F013F8072000F022F800F032F80837BD4680BD00BF80B500AF0248FEF743FFFFF7B9FF80BD6482FF1F80B485B000AF78606F
:404D8000054B1B68FB60FB688C337A681A601437BD465DF8047B704708ED00E080B483B000AF0346FB71054BFA795201D2B21A700C37BD465DF8047B704700BF13E400E043
:404DC00080B400AF034B4FF400221A60BD465DF8047B704700E100E080B400AF034B4FF400221A60BD465DF8047B704780E100E00230800800F0058000BF013800467FF495
:404E0000FCAF7047EFF3108072B6704780F31088704700BFAFF3008080B483B000AF0346FB7101BE0C37BD465DF8047B704700BF80B400AF054B054A1278D2B242F001023D
:404E4000D2B21A70BD465DF8047B7047F646004080B582B000AF786008E00C4B1B681846FFF7C6FF7B68A3F500437B607B68B3F5004FF2D8064B1B687A6802FB03F318460D
:404E8000FFF7B6FF0837BD4680BD00BF1881FF1F1081FF1F80B582B000AF0346FB80FB88044A127802FB03F31846FFF7A1FF0837BD4680BD1481FF1F80B584B000AF0346F4
:404EC0003960FB710F4B1B68FB60FB791F2B02D90020FFF7A1FFFB7903F01F0310339B00FA6813441B68BB60FB7903F01F0310339B00FA6813443A681A60BB681846103764
:404F0000BD4680BD08ED00E080B582B000AF02460B46FA71BB71BB79072B02D90020FFF77BFFFB791F2B02D90020FFF775FFFB7903F01F0303F1604303F56443BA795201DD
:404F4000D2B21A700837BD4680BD00BF80B500AF154B01221A70154B81221A70144B38221A70144B1E221A70134B00221A70134B4FF400421A600F200721FFF7C5FF0F2054
:404F80000F49FFF799FF0F4B00221A700E4B00221A700E4B00221A700D4B00221A700D4B00221A8080BD00BFD6490040C8490040CA490040DB490040DC49004080E100E0DA
:404FC000B5500000E882FF1FE282FF1FDF82FF1FDE82FF1FE082FF1F80B582B000AFFFF711FF0346FB710D4B0C4A1278D2B242F00402D2B21A700A4B094A1278D2B242F06A
:405000000402D2B21A70FB791846FFF7FFFE054B4FF400421A600837BD4680BDA5430040B543004000E100E080B500AF054B1B78002B04D1FFF78AFF024B01221A70FFF772
:40504000CBFF80BD4081FF1F80B483B000AF0B463A600246FA80BB800F4B4FF400421A603B68002B08D00D4B3A681A600C4BFA881A800C4BBA881A800B4B00221A700B4BDB
:4050800000221A700A4B4FF400421A600C37BD465DF8047B704700BF80E100E0E482FF1FDC82FF1FE082FF1FDF82FF1FDE82FF1F00E100E080B400AF864B1B78DAB2864B3D
:4050C0001A70854B1B7803F00803002B42D0834B1B78DBB203F00103002B24D07F4B804A1168804A1278D2B20A441278D2B21A70784B14221A707B4B1B78DAB27A4B1A7002
:40510000794B1B78DBB20133DAB2774B1A70774B1B78DBB243F01103DAB2744B1A70744B08221A70B7E06B4B10221A706F4B1B78DBB243F01203DAB26C4B1A706C4B01223C
:405140001A706C4B6B4A1278D2B242F01002D2B21A70A0E0604B1B7803F00103002B00F09A80634B1B78DBB2042B24D0082B48D0012B40F08380594B1B78DAB25E4B1A705E
:405180005D4B1B781A465D4B1B889BB29A420ED2504B10221A70584B1A78524B1A70564B1A78514B1A70524B04221A7073E0494B00221A706FE04C4B1B78DBB21A46504B13
:4051C0001B889BB29A4218D2444B1B78DAB24A4B1A70404B10221A70414B1A68424B1B78DBB21344444A12781A703F4B1B78DBB20133DAB23C4B1A704DE0364B00221A705C
:4052000049E0354B1B7803F00203002B24D1364B1B78DBB21A46394B1B889BB29A4214D22E4B2F4A1168304A1278D2B20A441278D2B21A70274B04221A702B4B1B78DBB252
:405240000133DAB2284B1A7025E0244BFF221A70204B04221A701EE0204BFF221A701D4B00221A70214B1B78DBB223F01003DAB21E4B1A701E4B00221A700CE01C4B002254
:405280001A70184B00221A70174B00221A70114B00221A7000BF0F4B1B78DBB203F02003002B12D0114B1B78DBB223F01003DAB20E4B1A700E4B00221A700E4B0D4A127893
:4052C000D2B222F01002D2B21A70BD465DF8047B704700BFD74900404181FF1FD8490040E482FF1FDF82FF1FDE82FF1FE282FF1FE882FF1FD64900404281FF1FDC82FF1FC3
:40530000E082FF1F80B500AF024B40221A70FFF78FFD80BDFA46004080B500AF204B204A1278D2B202F00102D2B21A701D4B1D4A1278D2B222F00302D2B21A701A4B1A4AFC
:405340001278D2B222F03002D2B21A70164B164A1278D2B242F03002D2B21A70124B124A1278D2B222F00F02D2B21A700E4B0E4A1278D2B242F00F02D2B21A700B4B0B4AD9
:405380001278D2B242F00102D2B21A70182000F083F8182000F092F8082000F061F880BD0C4F00400E4F0040174F00400D4F004080B400AF0D4B0D4A1278D2B242F0020249
:4053C000D2B21A700A4B0A4A1278D2B242F00202D2B21A70074B074A1278D2B242F00102D2B21A70BD465DF8047B7047A3430040B34300400C4F004080B500AF054B1B7864
:40540000002B04D1FFF788FF024B01221A70FFF7CFFF80BD4381FF1F80B400AF0D4B0D4A1278D2B222F00102D2B21A700A4B0A4A1278D2B222F00202D2B21A70074B074AD1
:405440001278D2B222F00202D2B21A70BD465DF8047B70470C4F0040A3430040B343004080B483B000AF0346FB71044BFA791A700C37BD465DF8047B704700BF0F4F004030
:4054800080B400AF034B1B78DBB21846BD465DF8047B70470F4F004080B485B000AF0346FB80FB88FB81044BFA891A801437BD465DF8047B704700BF104F004080B483B02C
:4054C00000AF0346FB80044BFA881A800C37BD465DF8047B704700BF124F004080B582B000AF786000F048F8786800F015F8072000F024F800F034F80837BD4680BD00BF15
:4055000080B500AFFFF7BCFF024B1B685A1C014B1A6080BD9482FF1F80B485B000AF7860054B1B68FB60FB6888337A681A601437BD465DF8047B704708ED00E080B483B0AC
:4055400000AF0346FB71054BFA795201D2B21A700C37BD465DF8047B704700BF12E400E080B400AF034B4FF480221A60BD465DF8047B704700E100E080B400AF034B4FF4EA
:4055800080221A60BD465DF8047B704780E100E080B584B000AF02460B46FA807B7100F0B1F80346FB7300F0A1F80346BB81FA88BB899A4200F08780444B1B78DBB203F050
:4055C0000403FB72FB7B002B20D1BB89002B02D0FB88002B1AD1BB89002B0BD13C4BFA881A803C4B3B4A1278D2B222F04002D2B21A7068E0374B374A1278D2B242F0400294
:40560000D2B21A70324BFA881A805CE0FB7A002B33D0314B00221A70304B04221A70304B00221A702F4B2F4A1278D2B202F07F02D2B21A70274B1B78DBB203F00803002B2D
:4056400002D0FB88002B18D1274BBA891A80224B07221A7000BF204B1B78DBB203F00103002BF8D1194B194A1278D2B222F00402D2B21A70184B00221A70144B1B78DBB294
:4056800003F00403002B13D0174BFA881A80124A7B79002B01D0032300E00123137000BF0D4B1B78DBB203F00103002BF8D10AE0074BFA881A80054B044A1278D1B2FA7AD2
:4056C0000A43D2B21A701037BD4680BDA2430040884000408A400040014000401040004014400040084000400240004080B400AF034B1B889BB21846BD465DF8047B7047D5
:405700008840004080B400AF054B1B78DBB203F00703DBB21846BD465DF8047B704700BF8A40004080B582B000AF786000F064F8786800F031F8072000F040F800F050F815
:405740000837BD4680BD00BF80B500AF00F060F80D4B1B78012B15D10C4B1B68002B0AD00A4B1B683F2B06DC094B01221A70074B1A68084B1A60FFF74FFE044B00221A60EF
:40578000FFF73AFE80BD00BF5881FF1F9482FF1F5A81FF1F8C82FF1F80B485B000AF7860054B1B68FB60FB6848337A681A601437BD465DF8047B704708ED00E080B483B002
:4057C00000AF0346FB71054BFA795201D2B21A700C37BD465DF8047B704700BF02E400E080B400AF034B04221A60BD465DF8047B704700BF00E100E080B400AF034B042295
:405800001A60BD465DF8047B704700BF80E100E080B400AF034B1B78DBB21846BD465DF8047B70476765004080B485B000AF0346FB710A4B1B78DBB223F00103FB73074BFE
:40584000FA7902F00102D1B2FA7B0A43D2B21A701437BD465DF8047B704700BFF051004080B485B000AF0346FB710B4B1B78DBB223F00403FB73084BFA799200D2B202F0BB
:405880000402D1B2FA7B0A43D2B21A701437BD465DF8047B704700BF3051004080B485B000AF0346FB710B4B1B78DBB223F02003FB73084BFA795201D2B202F02002D1B21B
:4058C000FA7B0A43D2B21A701437BD465DF8047B704700BF3051004080B584B000AF02460B46FA807B7100F0B1F80346FB7300F0A1F80346BB81FA88BB899A4200F0878071
:40590000444B1B78DBB203F00803FB72FB7B002B20D1BB89002B02D0FB88002B1AD1BB89002B0BD13C4BFA881A803C4B3B4A1278D2B222F04002D2B21A7068E0374B374A2C
:405940001278D2B242F04002D2B21A70324BFA881A805CE0FB7A002B33D0314B00221A70304B08221A70304B00221A702F4B2F4A1278D2B202F07F02D2B21A70274B1B781A
:40598000DBB203F00803002B02D0FB88002B18D1274BBA891A80224B07221A7000BF204B1B78DBB203F00103002BF8D1194B194A1278D2B222F00802D2B21A70184B0022A0
:4059C0001A70144B1B78DBB203F00803002B13D0174BFA881A80124A7B79002B01D0032300E00123137000BF0D4B1B78DBB203F00103002BF8D10AE0074BFA881A80054B51
:405A0000044A1278D1B2FA7A0A43D2B21A701037BD4680BDA24300408C4000408E400040014000401040004014400040084000400240004080B400AF034B1B889BB2184648
:405A4000BD465DF8047B70478C40004080B400AF054B1B78DBB203F00703DBB21846BD465DF8047B704700BF8E40004080B485B000AF0346FB710B4B1B78DBB223F002039B
:405A8000FB73084BFA795200D2B202F00202D1B2FA7B0A43D2B21A701437BD465DF8047B704700BFF051004080B582B000AF786000F03CF8786800F009F8072000F018F870
:405AC00000F028F80837BD4680BD00BF80B485B000AF7860054B1B68FB60FB6850337A681A601437BD465DF8047B704708ED00E080B483B000AF0346FB71054BFA79520169
:405B0000D2B21A700C37BD465DF8047B704700BF04E400E080B400AF034B10221A60BD465DF8047B704700BF00E100E080B400AF034B10221A60BD465DF8047B704700BFEA
:405B400080E100E080B582B000AF41F6FF5000F05BF841F6FF5000F073F8FFF753F90346FB710A4B094A1278D2B242F01002D2B21A70FB791846FFF749F900F071F80120A1
:405B800000F026F80837BD4680BD00BF9465004080B400AF054B054A1278D2B262F07F02D2B21A70BD465DF8047B70477765004080B500AF054B1B78002B04D1FFF7C2FFC7
:405BC000024B01221A70FFF7E3FF80BD4481FF1F80B483B000AF0346FB71044BFA791A700C37BD465DF8047B704700BF8465004080B400AF034B1B78DBB21846BD465DF8DC
:405C0000047B70476465004080B483B000AF0346FB80044BFA881A800C37BD465DF8047B704700BF4C6A004080B400AF034B1B889BB21846BD465DF8047B70478C6A004017
:405C400080B483B000AF0346FB80044BFA881A800C37BD465DF8047B704700BF0C6A004080B500AF01E0FFF7DFFFFFF7C1FF034603F00803002BF6D180BD00BF80B500AF31
:405C800000F068F8044800F035F8072000F044F800F054F880BD00BF9D5C000080B582B000AF00F01BFD0346FB71FB7903F00103002B0CD0002000F059F80B4B01221A70FE
:405CC0000A4B00221A700A4B00221A6008E0012000F04CF8044B00221A70044B01221A700837BD4680BD00BFF482FF1FEC82FF1FF082FF1F80B485B000AF7860054B1B68CD
:405D0000FB60FB684C337A681A601437BD465DF8047B704708ED00E080B483B000AF0346FB71054BFA795201D2B21A700C37BD465DF8047B704700BF03E400E080B400AFF3
:405D4000034B08221A60BD465DF8047B704700BF00E100E080B400AF034B08221A60BD465DF8047B704700BF80E100E080B485B000AF0346FB710B4B1B78DBB223F0400327
:405D8000FB73084BFA799201D2B202F04002D1B2FA7B0A43D2B21A701437BD465DF8047B704700BF1051004080B485B000AF0346FB710B4B1B78DBB223F01003FB73084BAE
:405DC000FA791201D2B202F01002D1B2FA7B0A43D2B21A701437BD465DF8047B704700BF2051004080B485B000AF0346FB71094B1B78DBB203F07F03FB73064BFA79D2013E
:405E0000D1B2FA7B0A43D2B21A701437BD465DF8047B70471051004080B500AF054B1B78002B04D100F008F8024B01221A7000F01FF880BD4681FF1F80B500AF0020084966
:405E4000FFF73AF800200721FFF75EF8054B00221A70054B72221A70044B20221A7080BDA56100004781FF1F8B6500408A65004080B582B000AFFEF7C5FF0346FB710D4B7D
:405E80000C4A1278D2B242F02002D2B21A700A4B094A1278D2B242F01002D2B21A70074B01221A60FB791846FEF7B0FF0837BD4680BD00BF9B6500409A65004000E100E031
:405EC00080B400AF034B1B78DBB21846BD465DF8047B70477964004080B483B000AF0346FB71044BFA791A700C37BD465DF8047B704700BF7964004080B483B000AF034625
:405F0000FB71044BFA791A700C37BD465DF8047B704700BF8A65004080B483B000AF0023FB71234B01221A60224B1B88BB80224B1B887B80214B1B78DBB2002B03D1BA8817
:405F40007B889A4218D0BB881D4AD35CFB71BB880133BB80BB88FF2B01D90023BB80154BBA881A80154B1B78DBB2002B03D0134B00221A7012E011E0124B1B787B707B7849
:405F800003F02003002B09D00F4B1B78FB717B7803F01E03002B01D00023FB710B4B01221A60FB7918460C37BD465DF8047B704780E100E04881FF1F4A81FF1F4C81FF1F4A
:405FC000F882FF1F6A6500404964004000E100E080B483B000AF1E4B01221A601D4B1B889AB21D4B1B889BB29A420BD11B4B1B78DBB2002B03D04FF48073FB801EE0002373
:40600000FB801BE0134B1B889AB2134B1B889BB29A4208D2104B1B889AB20E4B1B889BB2D31AFB800AE00C4B1B889AB2094B1B889BB2D31A9BB203F58073FB80084B012214
:406040001A60FB8818460C37BD465DF8047B704780E100E04881FF1F4A81FF1F4C81FF1F00E100E080B582B000AFFEF7CBFE0346FB71144B134A1278D2B242F00102D2B22B
:406080001A70104B0F4A1278D2B222F00102D2B21A70FB791846FEF7B9FE0B4B01221A600A4B00221A800A4B00221A80094B00221A70094B00221A70084B01221A600837AF
:4060C000BD4680BD9964004080E100E04881FF1F4A81FF1F4C81FF1F4D81FF1F00E100E080B483B000AF0346FB7100BF074B1B78DBB203F02003002BF8D1054BFA791A7027
:406100000C37BD465DF8047B704700BF6A6500405964004080B584B000AF78600B46FB700023FB730A4B1B78002B0ED009E0FB7B7A6813441B781846FFF7D2FFFB7B01339B
:40614000FB73FA7BFB789A42F1D31037BD4680BD4681FF1F80B500AFFFF7B2FE034623F00103DBB21846FFF7B7FE034B72221A702020FFF7C1FE80BD8B65004080B500AF8B
:406180000020FFF7B9FEFFF79BFE034643F00103DBB21846FFF7A0FE014B6F221A7080BD8B65004080B483B000AF0023FB712A4B1B78BB71BB797B71BB7903F01E03002B44
:4061C0000BD0BB7903F01E03DAB2244B1B78DBB21343DBB2DAB2214B1A70BB7903F02003002B2FD01E4B1B787B711E4B1B889BB21D4A7979D1540123FB71FB79002B21D0A9
:406200001A4B1B78DBB2002B02D0194B01221A70144B1B889BB201339AB2124B1A80114B1B889BB2FF2B02D90E4B00221A800D4B1B889AB20F4B1B889BB29A4202D10B4B09
:4062400001221A70BB7903F02003002BAFD10C37BD465DF8047B70476A6500404781FF1F496400404A81FF1FF882FF1F4C81FF1F4D81FF1F4881FF1F80B500AF054B1B78C3
:40628000002B04D100F008F8024B01221A7000F01FF880BD4E81FF1F80B500AF01200849FEF70AFE01200721FEF72EFE054B00221A70054B72221A70044B20221A7080BD44
:4062C000056600004F81FF1F856500408764004080B582B000AFFEF795FD0346FB710D4B0C4A1278D2B242F02002D2B21A700A4B094A1278D2B242F01002D2B21A70074B26
:4063000002221A60FB791846FEF780FD0837BD4680BD00BF956500409764004000E100E080B400AF034B1B78DBB21846BD465DF8047B70477865004080B483B000AF03464E
:40634000FB71044BFA791A700C37BD465DF8047B704700BF7865004080B483B000AF0346FB71044BFA791A700C37BD465DF8047B704700BF8764004080B483B000AF0023AD
:40638000FB71244B02221A60234B1B78BB71234B1B787B71224B1B78DBB2002B03D1BA797B799A4219D0BB791E4AD35CFB71BB790133BB71BB795BB2002B01DA0023BB7171
:4063C000154BBA791A70164B1B78DBB2002B03D0134B00221A7012E011E0134B1B783B713B7903F02003002B09D0104B1B78FB713B7903F01E03002B01D00023FB710C4BA5
:4064000002221A60FB7918460C37BD465DF8047B704700BF80E100E05081FF1F5181FF1F5281FF1FF883FF1F676400404764004000E100E080B483B000AF1D4B02221A60DF
:406440001C4B1B78DAB21C4B1B78DBB29A420AD11A4B1B78DBB2002B02D08023FB711DE00023FB711AE0134B1B78DAB2124B1B78DBB29A4208D2104B1B78DAB20D4B1B782C
:40648000DBB2D31AFB7109E00B4B1B78DAB2094B1B78DBB2D31ADBB2803BFB71084B02221A60FB7918460C37BD465DF8047B704780E100E05081FF1F5181FF1F5281FF1FDE
:4064C00000E100E080B582B000AFFEF79BFC0346FB71144B134A1278D2B242F00102D2B21A70104B0F4A1278D2B222F00102D2B21A70FB791846FEF789FC0B4B02221A6052
:406500000A4B00221A700A4B00221A70094B00221A70094B00221A70084B02221A600837BD4680BD9764004080E100E05081FF1F5181FF1F5281FF1F5381FF1F00E100E0EA
:4065400080B483B000AF0346FB7100BF074B1B78DBB203F02003002BF8D1054BFA791A700C37BD465DF8047B704700BF676400405764004080B584B000AF78600B46FB7086
:406580000023FB730A4B1B78002B0ED009E0FB7B7A6813441B781846FFF7D2FFFB7B0133FB73FA7BFB789A42F1D31037BD4680BD4E81FF1F80B500AFFFF7B2FE034623F00F
:4065C0000103DBB21846FFF7B7FE034B72221A702020FFF7C1FE80BD8565004080B500AF0020FFF7B9FEFFF79BFE034643F00103DBB21846FFF7A0FE014B6F221A7080BD56
:406600008565004080B483B000AF0023FB712B4B1B78BB71BB797B71BB7903F01E03002B0BD0BB7903F01E03DAB2254B1B78DBB21343DBB2DAB2224B1A70BB7903F02003D4
:40664000002B31D01F4B1B787B711F4B1B78DBB21E4A7979D1540123FB71FB79002B23D01B4B1B78DBB2002B02D01A4B01221A70154B1B78DBB20133DAB2134B1A70124BC0
:406680001B78DBB2DBB25BB2002B02DA0E4B00221A700D4B1B78DAB20F4B1B78DBB29A4202D10B4B01221A70BB7903F02003002BADD10C37BD465DF8047B704767640040A2
:4066C0004F81FF1F476400405181FF1FF883FF1F5281FF1F5381FF1F5081FF1F80B400AF034B1B78DBB21846BD465DF8047B70476564004081F0004102E000BF83F0004317
:4067000030B54FEA41044FEA430594EA050F08BF90EA020F1FBF54EA000C55EA020C7FEA645C7FEA655C00F0E2804FEA5454D4EB5555B8BF6D420CDD2C4480EA020281EAD5
:40674000030382EA000083EA010180EA020281EA0303362D88BF30BD11F0004F4FEA01314FF4801C4CEA113102D0404261EB410113F0004F4FEA03334CEA133302D052422B
:4067800063EB430394EA050F00F0A780A4F10104D5F1200E0DDB02FA0EFC22FA05F2801841F1000103FA0EF2801843FA05F359410EE0A5F120050EF1200E012A03FA0EFCD6
:4067C00028BF4CF0020C43FA05F3C01851EBE37101F0004507D54FF0000EDCF1000C7EEB00006EEB0101B1F5801F1BD3B1F5001F0CD349085FEA30004FEA3C0C04F10104B3
:406800004FEA445212F5800F80F09A80BCF1004F08BF5FEA500C50F1000041EB045141EA050130BD5FEA4C0C404141EB010111F4801FA4F10104E9D191F0000F04BF01463F
:406840000020B1FA81F308BF2033A3F10B03B3F120020CDA0C3208DD02F1140CC2F10C0201FA0CF021FA02F10CE002F11402D8BFC2F1200C01FA02F120FA0CFCDCBF41EA34
:406880000C019040E41AA2BF01EB0451294330BD6FEA04041F3C1CDA0C340EDC04F11404C4F1200220FA04F001FA02F340EA030021FA04F345EA030130BDC4F10C04C4F16B
:4068C000200220FA02F001FA04F340EA0300294630BD21FA04F0294630BD94F0000F83F4801306BF81F480110134013D4EE77FEA645C18BF7FEA655C29D094EA050F08BFF8
:4069000090EA020F05D054EA000C04BF1946104630BD91EA030F1EBF0021002030BD5FEA545C05D14000494128BF41F0004130BD14F580043CBF01F5801130BD01F000459F
:4069400045F0FE4141F470014FF0000030BD7FEA645C1ABF194610467FEA655C1CBF0B46024650EA013406BF52EA033591EA030F41F4002130BD00BF90F0000F04BF0021D2
:40698000704730B54FF4806404F132044FF000054FF0000150E700BF90F0000F04BF0021704730B54FF4806404F1320410F0004548BF40424FF000013EE700BF42004FEAA1
:4069C000E2014FEA31014FEA02701FBF12F07F4393F07F4F81F06051704792F0000F14BF93F07F4F704730B54FF4607401F0004521F0004120E700BF50EA010208BF704761
:406A000030B54FF000050AE050EA010208BF704730B511F0004502D5404261EB41014FF4806404F132045FEA915C3FF4DCAE4FF003025FEADC0C18BF03325FEADC0C18BFA8
:406A4000033202EBDC02C2F1200300FA03FC20FA02F001FA03FE40EA0E0021FA02F11444C1E600BF70B54FF0FF0C4CF4E06C1CEA11541DBF1CEA135594EA0C0F95EA0C0F58
:406A800000F0DEF82C4481EA030621EA4C5123EA4C5350EA013518BF52EA033541F4801143F4801338D0A0FB02CE4FF00005E1FB02E506F00042E0FB03E54FF00006E1FBF7
:406AC00003569CF0000F18BF4EF0010EA4F1FF04B6F5007F64F5407404D25FEA4E0E6D4146EB060642EAC62141EA55514FEAC52040EA5E504FEACE2EB4F1FD0C88BFBCF594
:406B0000E06F1ED8BEF1004F08BF5FEA500E50F1000041EB045170BD06F0004646EA010140EA020081EA0301B4EB5C04C2BFD4EB0C0541EA045170BD41F480114FF0000E9C
:406B4000013C00F3AB8014F1360FDEBF002001F0004170BDC4F10004203C35DA0C341BDC04F11404C4F1200500FA05F320FA04F001FA05F240EA020001F0004221F000416F
:406B800010EBD37021FA04F642EB06015EEA430E08BF20EAD37070BDC4F10C04C4F1200500FA04F320FA05F001FA04F240EA020001F0004110EBD37041F100015EEA430E7C
:406BC00008BF20EAD37070BDC4F1200500FA05F24EEA020E20FA04F301FA05F243EA020321FA04F001F0004121FA04F220EA020000EBD3705EEA430E08BF20EAD37070BDA6
:406C000094F0000F0FD101F00046400041EB010111F4801F08BF013CF7D041EA060195F0000F18BF704703F00046520043EB030313F4801F08BF013DF7D043EA060370475B
:406C400094EA0C0F0CEA135518BF95EA0C0F0CD050EA410618BF52EA4306D1D181EA030101F000414FF0000070BD50EA410606BF1046194652EA430619D094EA0C0F02D16F
:406C800050EA013613D195EA0C0F05D152EA03361CBF104619460AD181EA030101F0004141F0FE4141F470014FF0000070BD41F0FE4141F4780170BD70B54FF0FF0C4CF412
:406CC000E06C1CEA11541DBF1CEA135594EA0C0F95EA0C0F00F0A7F8A4EB050481EA030E52EA03354FEA013100F088804FEA03334FF0805545EA131343EA12634FEA02220F
:406D000045EA111545EA10654FEA00260EF000419D4208BF964244F1FD0404F5407402D25B084FEA3202B61A65EB03055B084FEA32024FF480104FF4002CB6EB020E75EB6C
:406D4000030E22BFB61A754640EA0C005B084FEA3202B6EB020E75EB030E22BFB61A754640EA5C005B084FEA3202B6EB020E75EB030E22BFB61A754640EA9C005B084FEABC
:406D80003202B6EB020E75EB030E22BFB61A754640EADC0055EA060E18D04FEA051545EA16754FEA06164FEAC30343EA52734FEAC2025FEA1C1CC0D111F4801F0BD141EAC3
:406DC00000014FF000004FF0004CB6E711F4801F04BF01430020B4F1FD0C88BFBCF5E06F3FF6AFAEB5EB030C04BFB6EB020C5FEA500C50F1000041EB045170BD0EF0004ED8
:406E00004EEA113114EB5C04C2BFD4EB0C0541EA045170BD41F480114FF0000E013C90E645EA060E8DE60CEA135594EA0C0F08BF95EA0C0F3FF43BAF94EA0C0F0AD150EADC
:406E400001347FF434AF95EA0C0F7FF425AF104619462CE795EA0C0F06D152EA03353FF4FDAE1046194622E750EA410618BF52EA43067FF4C5AE50EA41047FF40DAF52EAB0
:406E800043057FF4EBAE12E74FF0FF3C06E000BF4FF0010C02E000BF4FF0010C4DF804CD4FEA410C7FEA6C5C4FEA430C18BF7FEA6C5C1BD001B050EA410C0CBF52EA430C57
:406EC00091EA030F02BF90EA020F0020704710F1000F91EA030F58BF994208BF90422CBFD8176FEAE37040F0010070474FEA410C7FEA6C5C02D150EA013C07D14FEA430CEB
:406F00007FEA6C5CD6D152EA033CD3D05DF8040B704700BF8446104662468C461946634600E000BF01B5FFF7B7FF002848BF10F1000F01BD4DF808EDFFF7F4FF0CBF0120D2
:406F400000205DF808FB00BF4DF808EDFFF7EAFF34BF012000205DF808FB00BF4DF808EDFFF7E0FF94BF012000205DF808FB00BF4DF808EDFFF7CEFF94BF012000205DF8D6
:406F800008FB00BF4DF808EDFFF7C4FF34BF012000205DF808FB00BF70B50E4B0E4D0024ED1AAD101E46AC4204D056F8242090470134F8E700F058F8084D094B0024ED1A59
:406FC000AD101E46AC4204D056F8242090470134F8E770BD74700000747000007C7000007470000010B50023934203D0CC5CC4540133F9E710BD02440346934202D003F88A
:40700000011BFAE77047000000000000C84900401900004F0040240040510040300000000140000480040140000200070140000900140140000800400140000A004C0140AC
:407040000002105001401000000401405C0D0048800080060140DC0D00488000005001405C0E004810000000F8B500BFF8BC08BC9E4670473D250000713F0000F8B500BF1F
:40708000F8BC08BC9E46704719250000A07000000881FF1F18000000580300000000000000000000006CDC0280BB0000300000000000C05D00000000000000000000000083
:4070C0000000000000000000000000000000000000000000000000000000000000000000000000000000000000000000000000000000000000000000000000000000000090
:40710000000000000000000000000000000000000000000000000000000000000000000000000000000000000000000000000000000000000000000000000000000000004F
:40714000000000000000000000000000000000000000000000000000000000000000000000000000000000000000000000000000000000000000000000000000000000000F
:4071800000000000000000000000000000000000000000000000000000000000000000000000000000000000000000000000000000000000000000000000000000000000CF
:020000040003F7
:40FFC000931125000024000000A075000000000000000200AB000200CDAB0000000000000000000000000000000000000000000000000000000000000000000000000000D8
:0200000480007A
