:400000000040002011000000C9010000C901000010B500F023FA00F0DFF8C04670B5124D12232B60182000F0B1FE104A104B1A600024104B1C60104A104B1A6080221206EE
:400040000F4B1A600F4B1C6040220F4B1A600F49072000F0C7FD072000F0A4FD0C4B1C6011232B6070BDC046300010400600008004010B400003014040FF00800000014056
:4000800008010B4000010B400C010140CD0E00000C020B4010B572B600240FE019486200131959000B00411889881A5AC31858880004104300F082F80134E4B2012CEDD9B3
:4000C000114A124B1A6099231B04114A1360114A1360114A117806230B43DBB21370C02252000E4B1A607E3AFF3A0D4B1A600D4A0D4B1A60243A0D4B1A60FFF78FFF00F055
:400100004DF810BD3C170000EEEE00000003024010500F4030500F4000700F400801044000030440A40D0000080304400805044010B5064C2378002B07D1054B002B02D015
:40014000044800E000BF0123237010BD580100200000000038170000084B10B5002B03D00749084800E000BF07480368002B00D110BD064B002BFBD09847F9E7000000006A
:400180005C01002038170000C80000200000000010B562B600F0FAFBFEE7C0460323044A1360044A13600022034B1A607047C0463000304030003140000E3F4010B50A00F2
:4001C000002101F0ACFA10BD10B501F073FA03680C2B00D1FEE7FEE770B50F4E0F4D13E029686B68AC68002202E001C901C30432A242FAD1E868002202E0002102C30432EA
:400200008242FAD11035013E002EE9D101F058FAFFF7BEFFFEE7C046010000002418000010B5114A136801218B43136000230AE0032B03D89A000D49505800E00C4899002C
:400240000C4A885001332F2BF2D9FFF723FF0A4B1B68002B02D10022074B1A60024A116801230B43136010BD0000104000000000C901000000000020C0000020002306E081
:400280004218013A12789B189BB2013989B20029F6D1584280B270470047C04610B58022024B1A6000F0D6FC10BDC046C0000020F0B583B00D006B469E1DDA8001230B70FD
:4002C00048701400AA70130ACB70171DB9B22800FFF7D4FFE855631D000AE854A31D1722EA540734A1B296233200280000F0CCFE03B0F0BD70B505000E001400002802D0F5
:40030000002000F06DFC002005E0013CAB19E3181B781818C0B2002CF7D170BD10B50C2863D88000404B1B589F464B06591ACB013E4A9446634401225CE04B06591ACB01CE
:400340003B4A94466344042254E04B06591ACB01384A9446634402224CE04B06591ACB01354A94466344042244E04B06591ACB01324A9446634401223CE04B06591ACB0104
:400380002F4A94466344012234E04B06591ACB012C4A9446634402222CE04B06591ACB01294A94466344022224E04B06591ACB01264A9446634402221CE04B06591ACB0178
:4003C000234A94466344042214E04B06591ACB01204A9446634401220CE04B06591ACB011D4A94466344042204E0002000F0F8FB02220023012A02D11878C0B200E000209F
:40040000022A03D11978587800020843042A09D11A785878000210439A7812041043DB781B06184310BDC04648170000C0FF0100C1FF0100C5FF0100C9FF0100D0FF0100F4
:40044000D1FF0100D6FF0100D2FF0100D4FF0100D8FF0100DCFF0100E0FF010010B50D4B1B68DB0602D400220B4B1A600A4B1B68802B0ED10022084B1A6000210220FFF7C8
:400480004DFF002805D000210220FFF747FFFFF703FF10BD00030B40C000002070B5050001000320FFF73AFF441CE40129000420FFF734FF241829000320FFF72FFF421C3F
:4004C000D2010023002608E01078411EC9B2FD2900D801261B18DBB20132A242F4D35B42DCB229000120FFF719FF844203D1002E03D1062002E0062000E0002070BDC04653
:40050000F0B55F4656464D464446F0B4C64CA544050000F067FD62B600239A4600270A249946002D01D1FF2300E02B00BF4A02A98C4662449621490052A800F06FFD002D96
:4005400001D0013CE4B2002C01D00028E9D1002800D009E2B54B02AA944663441B88062B24D952AA1278012A22D152A9CA78120289780A439146110007329A421AD896232C
:400580005B009A4218D84A1D52AB9E5C3202081D1E5C164306315B5C172B0FD181B252A8FFF76CFE86420BD100260AE0042608E0042606E0032604E0032602E0042600E0F5
:4005C0000826002E00D071E152AB1A7993465A781300313BD9B20B2900D937E18B009449CB589F46012F00D062E14B46012B00D061E15B46002B00D060E15846FFF74EFFD3
:40060000002800D05DE15B465B065A469B1AD901884B9C466144382253A801F077F838229BE1012F00D04FE14B46002B00D04EE10020FFF733FF4342434152AA137101228F
:400640008BE1012F00D045E14B46012B00D044E15B46012B00D943E1774B1B681B681A0CD2B2934503D1DB09DB05DB0D05E0934501D9002301E080239B0052AA13711B0A24
:400680005371FF239371FE3BD371042265E1342A0DD1012F00D026E14B46032B00D025E14C32002107A801F03AF880239A46012F00D01EE14B46022B00D81DE107A85044C5
:4006C000DA1E4821FF3102AB9C46614401F01EF84B4653449BB2832B00D010E152AA93791B02527913439A46544B9A4500D90A26002E00D00AE15B46580280B2504480B2C1
:400700004D4B1B681A68D3099BB2520601D001339BB2834200D9FDE007A900F073F9002800D1FEE000239A46803399460A26002213E1012F00D115E1042600220DE1012FAF
:4007400000D0F4E04B46534496225200934200D9F0E007A850444A4653A900F0D7FF53464B449BB29A460022F7E04B46002B00D0E3E004AA324B03CB03C253AA04AB03CBBB
:4007800003C200239A4601270822E6E0012F00D0D6E04B46032B00D0D5E052AA93791B025279134398465B4659024144C901234B984500D90A26002E00D0C7E08022002035
:4007C000FFF798FD030001905A46520292B2424492B25946012913D11A498A4210D100210520FFF79BFDC0B2019B1B1ADBB2984600210620FFF792FDC3B24246D31ADBB256
:400800005B4252AA13710122A7E00020FFF746FE002802D180220C4B1A6000F0FBFB00F019FA0426002298E084FDFFFF6E0200007C170000C0FF0100CC000020FF0100004E
:40084000AC170000FF030000C00000204E4B1E68002E7DD0012F7ED102AB1A704A465A8053AB03930C22002104A800F058FF04AB9B4653AA0692190002A8B0475B469A88A1
:400880002623FF339A4203D953AB0699994207D0069B002B01D1002A05D1049BDEB25CE00E26002259E00E26002256E0002254E00426002251E0042600224EE00C260022F1
:4008C0004BE00C26002248E00426002245E00426002242E0042600223FE0042600223CE00426002239E00426002236E00426002233E00426002230E0042600222DE00023A1
:400900009A46803399460326002226E080239946002222E000239A46803399460A2600221BE000239A4680339946002215E00426002212E0032600220FE0042600220CE010
:400940000426002209E00426002206E0002204E00526002201E00526002252A93000FFF7A7FC01E000239A46002D00D1D9E5012F00D1D6E59F239B009D443CBC9046994684
:40098000A246AB46F0BDC0467401002070B50020FFF784FD002801D0062400E00024154D2B681A68C03AC0210020FFF7A3FC6B681B78C01AC0B24042C0B2834204D10D4B94
:4009C0001B681B68002B02D1002000F009F90A4B1B68402B01D0002C05D00022064B1A600020FFF78DFD1420FFF78AFDFFF756FC70BDC046CC000020C00000200020704770
:400A00000020704730B5A5B004000023239322933C4B984271D800296FD0802202A800F075FE394B9C4201D9384B00E0384B00937F230193374B6A461A603749374A116049
:400A4000C0461B681B0F1B07F0221206934204D1304B1B68FF2213400DE02E4B1B681B0F1B07A0221206934204D02A4B1B68FF22134000E000232393239B002B3FD100F095
:400A800080FA0500FFF7BAFF2290239B002B25D1234A0092009A2404144300941D4A6946116020481D490860C0461268120F1207F02109068A4204D1164B1B68FF2213403B
:400AC0000BE0144A1268120F1207A02109068A4203D0104B1B68FF2213402393229B002B07D1FFF78DFF2290229B002B01D0229B2393280000F049FA01E00423239323988E
:400B000025B030BDFF030000FF010000B6D70001B6D70000080010400400008004001040B6D800000500008070B5040000F029FA0500102C05D8104A136803218B431360FF
:400B400016E0202C07D80C490B6803229343023A13430B600CE0302C07D807490B6803229343013A13430B6002E0002000F038F8280000F00AFA70BD30001040024A116803
:400B8000024B0B401360704700002240FFFFFFBF034B18688023DB05184000D001207047000022401F2318401E3B8340014A13607047C04600E100E01F2318401E3B8340FA
:400BC000014A13607047C04680E100E01F2318401E3B8340014A13607047C04680E200E001BE704770B504000D001F2802D90020FFF7F6FF1034A40080239B059C46644438
:400C00002068256070BDC04670B504000E00032902D90020FFF7E4FF1F2C02D90020FFF7DFFF03252540ED00063500F0AAF9A408A400074B9C46644421680323AB40994339
:400C40000B003100A9401943216000F09EF970BD00E400E0034A13681B041B0C02490B43136070470CED00E00400FA0510B5040006E0084B586800F07BF9074B9C4664444B
:400C800080231B029C42F4D8024B9868604300F06FF910BDD40000200080FFFF30B583B000F0BEF800285AD000F06BF9040000230AE02C4A12683F210A402B49C95C8A42CF
:400CC00001D1033303E001332D2BF2D90323274A1268D20606D1254802681F218A4313390A430260224A1168224A0A40224959438020C00184466144C90B01394905490DEF
:400D00000A43A021490311430800192B02D81B4B1A430EE01A4A9A1812781A3B1249C9183023CB5CD318FF2B00D9FF239B0502001A430F4B1A60134D2B6801933020FFF7D3
:400D4000F3FE114A13688021C9050B4313601420FFF78CFF019B2B60200000F016F903B030BDC0462CFF0B40B417000034FF0B400800224000F800C040420F000000D43F56
:400D8000CDF1FF0F300010400000224030B587B0040000F0F6F80500FFF7FAFE002803D0FFF7ECFE012100E00021104B1B6800930F4B1B680193033C0E4B1B5D02930E4BB6
:400DC0001B68039304AA0D4B04936B4605930C4B1A600C480C4A10601B68012901D1FFF75DFF280000F0D1F807B030BD08010B4000010B40B417000030001040B6EA000028
:400E0000080010401700008004001040034B1868C0231B02184000D00120704700010B40034B1B68002B01DA012000E0002070470000224010B500F0A4F8044A1368C02149
:400E400009020B43136000F0A0F810BD00010B4010B500F096F808490A68084B1A408024E40122430A600A6813408022120213430B6000F08AF810BD00010B40FF3FFFFFF7
:400E800070B5050000F07DF80400FFF7BFFF002803D0FFF7DDFF012100E0002108482840084A1568084B2B40184310601368012901D1FFF7BFFF200000F067F870BDC0461E
:400EC0000404040010020B40FBFBFBFF10B5244B1B685B0715D5234B5B685B070ED5224B596A042001401F4C62688A4362605A6A82435A629B69002B00D098470420FFF78A
:400F0000BFFF174B1B685B0518D5164B5B685B0510D5154B596A8022D2001140114842688A434260596A114A0A405A62DB69002B00D098478020C000FFF7A2FF084B1B68EF
:400F40005B030CD5074B5B685B0304D5064B1B6A002B00D098478020C002FFF791FF10BD10020B40E800002078010020FFFBFFFF0230800803D00138FDD1C046C046C046E5
:400F80007047EFF3108072B6704780F3108870470F4B1B685B0619D50E4B1B68DB060BD50D4B1B68002B11D00C4A136000230C4A1360094A136009E0094B1A68074B1B68A8
:400FC0009A4203D0054B1A68054B1A607047C0464C0F254064002540A0010020480200202C02002010B5094C201D402100F082F820004430002100F05FF8054800F0D4F8C0
:401000000023236000F0AAF810BDC046A0010020910F000010B500F0B1F810BDF8B507000E001500002825D0002925D09A00D3185C001BE0114B1B78DB0613D5104B1A6896
:401040002A8000220D490A701A602B88321C9E4200D91A1C92B20B490431380000F056FB00200AE00120FFF701FE013C002CE1D1102002E0012000E00120F8BD31020020AD
:4010800040020020A001002070B50C0000280DD000290DD01180074D2B0044330A000100180000F033FB2C60002002E0012000E0012070BDA001002070B504000D0000280D
:4010C0000ED00920FFF778FD064B1C60064B1D600023064A1360064A13600920FFF762FD70BDC04638020020480200202C0200203C02002070B504000D0000280CD00920B6
:40110000FFF75AFD054B1C60054B1D600022054B1A600920FFF746FD70BDC04644020020340200204002002010B50920FFF73AFD10BDC04610B500F0A3F810BD10B500F06A
:4011400039F810BD10B5044A1368802109060B431360FFF7E9FF10BD0000254010B5064B1B78002B04D1FFF7E9FF0122024B1A70FFF7E8FF10BDC0462402002010B50920FD
:40118000FFF71AFDFFF7D6FF054A13685B005B0813600022034B1A600920FFF717FD10BD00002540880F2540014B58607047C0462402002010B500241B4B1C601B4A1C4B73
:4011C0001A601C4B1C4A13601C4A14601C491D4A11601D4A13601D4B1C600920FFF7ECFC03210920FFF710FD19490920FFF7FAFC184B1C60184B1C604C22FF32174B1A6059
:40120000174B1C60174B1C60174B1C603C3AFF3A164B1A70164B1C70164B1C60164B1C60164B1C7010BDC04600002540E9080040600025400701008000032540040325405C
:401240006400FE00100325400002254004022540FD120000C80E2540880E2540480F2540080F2540C80F2540880F25404C020020310200202C02002040020020300200204A
:401280000023044A1360044A13601022034B1A707047C046680025406C0025404C02002010B50E4A13685B005B08136000230C490B600C490B600C4804680C492140016073
:4012C0000B490B600B490B6010210B4B19701368802109060B43136010BDC04600002540680025406C00254060002540FF5CFFFF880F2540C80F25404C02002010B5CA4B00
:401300001B68002B00D09847C84B1B68DB0702D50022C74B1A60C74B1B789B0622D4C64B1A680223FF331A421CD0C24B1B78DB070AD5C24A137802218B43137011780923C4
:401340000B43DBB213700AE0BC4A137820218B431370117870235B420B43DBB213700022B44B1A70B34B1B789B0600D55AE1B14B1B78DB0600D453E1AF4B1B689B0740D552
:401380000222AF4B1A60AF490B681D321A40096880231B020B4000D001239B18AA4A1278D2B2934206D2A54A117804230B43DBB2137006E0A44A12789B1AA4490A68D31A53
:4013C0000B60A24B1A68A24B1A600023A14A13609D4A1370A04B1A68802149020A431A6019689E4A0A401A60944A137802218B431370117801230B43DBB2137010228D4B82
:401400001A708D4B1B681B0739D508228C4B1A60934B1B689B040CD414E0924B1A68924909688A1891490968C9B211701A6801321A608F4B1B68DB06EFD1894A11688D4B63
:401440000B4013608C4B1B689B0605D57B4A117840230B43DBB213700022884B1A60884A854B1A60754A137820218B431370117810230B43DBB213706E4B10221A706E4B1B
:401480001B685B0648D501227E4B1A607E4B1B68DB0610D50F326F4B1A606D4B1A686B4B1A60664A117802230B43DBB213701222604B1A7025E0754B1B686A4A12689B1A84
:4014C000072B03D804226D4B1A6011E0082B06D1634A1368A02109020B43136008E0604A1368802189010B4313600822634B1A60524A117820230B43DBB2137011224D4BFB
:401500001A70634A4E4B1A60624A116808230B4313600122604B1A60604B1B681B072AD55A4B1B684F4A1068181A0838082802D9002408200EE001240CE04A4B1A684A490E
:4015400009688A1849490968C9B211701A6801321A6001380028F0D1002C08D0404A1368802109020B4313600022444B1A600822414B1A6025E0494B1B685B0721D53B4B3D
:401580001B68384A1168414A126891420DD20121414A1160334A1168334800684118DBB20B7013680133136008E002223A4B1A60224A117840230B43DBB2137004222E4B1C
:4015C0001A60374B1B68DB0620D42BE01F4B1A68344B1B689A420CD21C4B1A68324909688A181278D2B231490A601A6801321A600CE0FF222D4B1A60134B1B78DBB20A2B9A
:4016000004D8114A13780133DBB213700D4B1B681F221340082BD9D10F3A254B1A6001E0FFF73EFE10BDC046280200208C0E2540880E25404C0200204C0F2540310200207A
:40164000400F254008022540300200203C0200202C020020880F254004022540FFFFFEFF6000254040020020440200204003254008032540FF5FFFFFC00F2540C80F254076
:40168000ED0F0000800E25406400254034020020FF0F0000480F25406C002540CC0F25408C0F2540480200203802002040022540800F2540014B18687047C04650010020E8
:4016C0000E4B70B500251E000D4CE41AA410A54204D0AB00F35898470135F8E700F090F8084B00251E00084CE41AA410A54204D0AB00F35898470135F8E770BD0C1800006F
:401700000C1800000C18000014180000002310B59A4203D0CC5CC4540133F9E710BD03008218934202D019700133FAE77047000000190000700000000000000000300F40DC
:40174000000400400F400004EA0300002A0300003A0300004A0300005A0300006A0300007A0300009A0300008A030000AA030000BA030000CA030000DA0300002206000081
:40178000420600004C0800008E060000320700004C0800003E0700006A0700008E0600008C0700000A080000E4050000A1112B11003C0101030405060708090A0B0C0E0F00
:4017C000101112131415161718191B1C1D1E1F2021222325262728292A2B2E2F3031323334350000EEDBC9B9AA9B8E82766B60564D443B332C241D17100A04430000000046
:40180000F8B5C046F8BC08BC9E4670475901000021020000F8B5C046F8BC08BC9E4670473101000038180000C800002090000000F800000000000000000000003017000066
:4018400034170000010000000000E02EC05D00001800000000366E01F000000004040400000000000000000000000000000000000000000000000000000000000000000038
:40188000FB17000000000000000000000000000000000000000000000000000000000000000000000000000000000000000000000000000000000000000000000000000016
:4018C000F0000020000000000000000000000000000000000000000000000000000000000000000000000000000000000000000000000000000000000000000000000000D8
:4019000000000000000000000000000000000000000000000000000000000000000000000000000000000000000000000000000000000000000000000000000000000000A7
:401940000000000000000000000000000000000000000000000000000000000000000000000000000000000000000000000000000000000000000000000000000000000067
:401980000000000000000000000000000000000000000000000000000000000000000000000000000000000000000000000000000000000000000000000000000000000027
:4019C00000000000000000000000000000000000000000000000000000000000000000000000000000000000000000000000000000000000000000000000000000000000E7
:401A000000000000000000000000000000000000000000000000000000000000000000000000000000000000000000000000000000000000000000000000000000000000A6
:401A40000000000000000000000000000000000000000000000000000000000000000000000000000000000000000000000000000000000000000000000000000000000066
:401A80000000000000000000000000000000000000000000000000000000000000000000000000000000000000000000000000000000000000000000000000000000000026
:401AC00000000000000000000000000000000000000000000000000000000000000000000000000000000000000000000000000000000000000000000000000000000000E6
:401B000000000000000000000000000000000000000000000000000000000000000000000000000000000000000000000000000000000000000000000000000000000000A5
:401B40000000000000000000000000000000000000000000000000000000000000000000000000000000000000000000000000000000000000000000000000000000000065
:401B80000000000000000000000000000000000000000000000000000000000000000000000000000000000000000000000000000000000000000000000000000000000025
:401BC00000000000000000000000000000000000000000000000000000000000000000000000000000000000000000000000000000000000000000000000000000000000E5
:401C000000000000000000000000000000000000000000000000000000000000000000000000000000000000000000000000000000000000000000000000000000000000A4
:401C40000000000000000000000000000000000000000000000000000000000000000000000000000000000000000000000000000000000000000000000000000000000064
:401C80000000000000000000000000000000000000000000000000000000000000000000000000000000000000000000000000000000000000000000000000000000000024
:401CC00000000000000000000000000000000000000000000000000000000000000000000000000000000000000000000000000000000000000000000000000000000000E4
:401D000000000000000000000000000000000000000000000000000000000000000000000000000000000000000000000000000000000000000000000000000000000000A3
:401D40000000000000000000000000000000000000000000000000000000000000000000000000000000000000000000000000000000000000000000000000000000000063
:401D80000000000000000000000000000000000000000000000000000000000000000000000000000000000000000000000000000000000000000000000000000000000023
:401DC00000000000000000000000000000000000000000000000000000000000000000000000000000000000000000000000000000000000000000000000000000000000E3
:401E000000000000000000000000000000000000000000000000000000000000000000000000000000000000000000000000000000000000000000000000000000000000A2
:401E40000000000000000000000000000000000000000000000000000000000000000000000000000000000000000000000000000000000000000000000000000000000062
:401E80000000000000000000000000000000000000000000000000000000000000000000000000000000000000000000000000000000000000000000000000000000000022
:401EC00000000000000000000000000000000000000000000000000000000000000000000000000000000000000000000000000000000000000000000000000000000000E2
:401F000000000000000000000000000000000000000000000000000000000000000000000000000000000000000000000000000000000000000000000000000000000000A1
:401F40000000000000000000000000000000000000000000000000000000000000000000000000000000000000000000000000000000000000000000000000000000000061
:401F80000000000000000000000000000000000000000000000000000000000000000000000000000000000000000000000000000000000000000000000000000000000021
:401FC00000000000000000000000000000000000000000000000000000000000000000000000000000000000000000000000000000000000000000000000000000000000E1
:402000000040002011200000D1270000D127000010B5024B83F3088800F0E2FB00400020F0B5474680B472B60122714B00211A7080227048D20002F005FC80220021D2000E
:402040006D4802F0FFFB1C2398466C4DE333A84400279C464646634628682A789843002A0ED0013A791CD2B27B0057187C00F31834191A7859781218023311709C42F8D198
:4020800004354545E7D15E4A5E4BAA211A605E4A5E4B09061A60C0235D4ADB0513605D4A1026136099235C4A1B0413605B4A032411605B4A5B4913605B4A302013605B4A0E
:4020C0000025136001235A4A13605A4A13603C220B789343283A13430B701623564A11780B431370FF22554BD8211A60544A554B49001A603023544A1360544A1160544A93
:4021000013604922534B1E60534B1A60534B544A1E60544B1C60544B1A608023534A1360534A1360534A544B1A601222534B1A6000F0F8FE524A534BBC211A60C022524BE4
:4021400092001A60514B524A89011A60514A07201560514A1A60514A1160A021504AC9001A60504A1160504A50491A608222504B12061A6080224F4BD2021A6041224E4B12
:402180001A604E4B013A1A604D4B03321A604D4B013A1A6000F012FF072000F03DFF4A4B81201D60494B4A4A1C604A4B4A491C6080231B061360494A40001460484A0A60FA
:4021C0004849086048490B6048490C6048490A604849494A1160494A49491360494A1660494A15600A6813430B6004BC9046F0BD1C700F4000300F4000400F4058480000B5
:402200003333333300000240EEEE000000030240000402400005024000500F4008500F4010500F4001700F4020500F4030500F402000104000800F4000700F40000004405D
:40224000B66DDB0008000440000104400801044018010440000204400802044018020440A40D000000030440080304400004044018040440B06D0000080504403000104056
:402280000600008004010B40040301400000014041FF00800003014040FF00800C03014043FF00800803014042FF00807D30000008010B4000010B40300101402C010140B0
:4022C000280101400C0101400C020B4000210240000030400421024080003040300030400140200088003040000031403000314080003140104020008800314000003A40C4
:4023000080033A4000033A40000E3F4010B5064C2378002B07D1054B002B02D0044800E000BF0123237010BD580100200000000054480000084B10B5002B03D0074908485A
:4023400000E000BF07480368002B00D110BD064B002BFBD09847F9E7000000005C01002054480000C80000200000000010B5012000F01CFC0122034B1A705A6801325A609C
:4023800010BDC04674010020F0B5474680B4594C01206579012600F07FFC0022564BEDB29A601E73280001F0ABFB02F0ADF9534A534B01F0F9FE534A534B01F0DFFB00228A
:4023C000524B01F0DBFB524B002201F0EDFE02F065F9050000F09CFA280000F081FFE3781E4200D06DE0E3789B0700D572E0E3785B0700D577E0A379002B0ED00123042613
:4024000098462379002502271E424ED123791F4252D1424623791A423AD1062000F070FF00F0A8FA062000F03FFC00F06BFC062000F072FC042500F09DFC022601272379C9
:402440001D4219D123791E421DD123791F420CD1E178E378E278120953400F22134091430B43E37004BC9046F0BD00F08DFC0028EED023791D42E5D000F08EFC0028DED1F7
:4024800023791E42E1D000F08FFC0028DDD0D6E700F07AFC0028C0D06423A279013553439D42BADA23791E42B0D000F075FC0028F2D123791F42ACD000F076FC0028A8D020
:4024C000EAE7002000F0F0FB00F0FAFBE3789B0700D48CE7002000F01FFC00F029FCE3785B0700D487E7002000F00AFF00F020FA81E7C04690030020740100209A9999996A
:402500009999C93F613255302AA9633F000024400000E03FF8B54F4646460400C0B4002000F0CAFA0100002000F0D4FAFA2103012C4E1D1AF7796D0089002800FFB201F058
:40254000F3F9874201DDC0B2F071FA22264F641BBB689200E018B860737A053B5343984203DD707A05385043B860002836DB1F4B9846196801F0D8F94346814659682000DC
:4025800001F0D2F9737A484404009B00984201DD747AA400002C1EDDE3B233725A237372134B1449E81801F0BFF937308000844200DD0400200000F06FFB3B690E4A990039
:4025C00001338C50642B00D1002328003B610CBC90469946F8BD01230124DEE700230020BB60C4E79003002074010020CC00002020D1FFFF7E0400000002002010B5104C53
:4026000023795B070DD423799B0711D42379DB0700D410BD00F0B8FB0028FAD0FFF7B4FEF7E700F0B9FB0028F8D123799B07EDD500F0BAFB0028E9D0FFF7A6FEE9E7C046D3
:4026400090030020F8B54F464646C0B462B600F0DDFA00F01DF900F003FE00F095F900F021FA0023554C63701033A3700B3BA371043BE3702371033363713E3363723B3BD3
:40268000A3725D33E37200F01BFBC82000F040F9062000F009FB062000F03EFB102000F037F9102000F01CFE062000F0FDFA00F029FB062000F030FB00F05CFB062000F057
:4026C0001FFE00F057F900F05FF900F035FA00F075FA3B4800F094FA0A23002239498B5402330132DBB2202AF9D100F06FFB00F08BFB22001021202000F086FE00F00CFE2C
:4027000022001021202000F07FFE2F4BFA27994601235B422D4D00269846BF0006E02079C0B201F037F823780B2B28D02B78002BF5D02E706378002B24D02B7B002B21D159
:40274000A37868697B43834202DAA07878436861A3787B43834209DDE37AC0186861A3787B43984202DDA07878436861FFF7D2FE2079C0B201F00EF823780B2BD6D100F092
:4027800061FCD3E7012000F087FA002000F094F90100002000F09EF90301181A40006861494640462B69AE609A0001332E738850642B01D02B61B2E72E61B0E79003002090
:4027C0006D230000E0010020000200207401002010B502F00BF803680C2B00D0FEE7FEE7F8B5104E002E18D000200F4DA9682C686A68002905D00023E758043380C29942D3
:40280000FAD1E9680023002903D0D05004339942FBD1013E1035002EE8D101F0EDFFFFF711FFFEE701000000F84900000121134A70B51368124C8B4313601248002200238D
:40284000114D04E00133A1500432302B08D00100032BF7D851590133A1500432302BF6D1FFF7DEFB094B1A68002A00D11A600123024A11680B43136070BDC046000010401C
:4028800000000020D127000000200000C000002070B5194C2368002B1DD10F2500F089FF1649174B0A681B78AA432B401343154A0B60136814491360144B1D6829408025AB
:4028C00019601168ED00294311601A681A6000F074FF0123236000F06CFFC021094A890013680B4380211360084A090613680B43136000F062FF70BD8C01002000FF2840F2
:4029000060F1FF0F08002840FFFFFEFF0400284010B5040000F04DFFFF21044A13688B431C43146000F049FF10BDC046080028400C4A1379002B0CD180200B49033300063D
:402940001360086004200949086009490B60023B137113688022054912010868034313430B607047900100200000314004003140080F3140024A034B11680B4013607047CD
:4029800004003140FCF7FFFF70B52C4C2378002B11D02B4B1B68002B0CDB2A4A1368002BFCDB8021264A090613680A200B43136000F054FB70BD0221102000F00BFB2249CB
:4029C000102000F0FBFA0122204B1A60204B1B68002B30DB1F4B1A4A8020116840020B4313601D4A1D4B1E491A601E4A1E4B1A6000231E4A13601E4A0A601E490A601E49A9
:402A00000A6802430A6001211C4A1D4813601D4A13601D4A116005681C4A2A408025AD052A4302601A4A13601A4A217013801A4A1A4B1A60ADE71A4BCDE7C04695010020F5
:402A400000003A4008023A402D2B000020003A4080033A4070020053CC00008004003A4010003A400000FF0718003A401C003A400200020014003A4000033A4028023A406F
:402A800030003A4038023A4018023A40FEFFFFDF80003A40B40300203E180000B0030020700210538021034A490213680B4313607047C04604003A4010B5002803D1044BBA
:402AC000186800B210BD002000F0BAFA0020F9E780013A4070B505000C0000281CD1104A6B00995A0F48611A09B2484300290BDD0D49AD004A59D30F9A185310495918187D
:402B000000F012FF00B270BD0749AD004A59D30F9A1852105342F1E7002000F091FADEE7B403002010270000B0030020014B1A681A60704710023A4010B5134B1A78002A07
:402B40000FD180201149800408600C201049114C08600121104801601048046010480260197000F026FE02230E4A11680B43136000F023FE00F01DFE80220B4B92041A607C
:402B800000F01BFE10BDC046960100204001204064012040881300007801204054012040480120400000204008002040014B18607047C046700120407047C04610B580240A
:402BC0000A4B64031C60902309490A4AD15000F0F0FDC02208490B689343403A13430B6000F0EBFD054B1C6010BDC04680E100E0B92B00000000002014E400E000E100E03A
:402C00009023014AD05070470000002010B5184A1178002919D18020164BC004186018681860154801601968312019600C21134B1960012312490B601249086012498830DA
:402C4000FF30086011490B60137000F0B2FD01230F4A11680B43136000F0AFFD00F0A9FD80220C4B52041A6000F0A7FD10BDC04697010020000120400801204024012040B6
:402C80003801204028012040140120400C0120400000204008002040024B0004000C18607047C0460C012040034A044B116880010B40184310607047080104403FFEFFFF5E
:402CC0000C4A1379002B0CD180200B49033300061360086004200949086009490B60023B137113688022054912010868034313430B6070479801002000003040040030403A
:402D0000080F3040024A034B11680B401360704704003040FCF7FFFF034A044B116840020B4018431060704708050440FFF1FFFF0C4A1379002B0CD180200B4903330006A2
:402D40001360086004200949086009490B60023B137113688022054912010868034313430B607047A00100200000314008003140140F3140024A034B11680B4013607047A9
:402D800008003140FCF7FFFF0120024B1B6818407047C04604020440024B18684007C00F7047C04604020440024B18688007C00F7047C04604020440012210B5024B1A6096
:402DC000FFF71CFC10BDC04680E200E010B50124084B094A1C60094B1A6400F0EAFCC021074A13688B43136000F0E7FC054B1C6010BDC04680E100E0B92D00000000002055
:402E000000E400E000E100E00122014B1A60704700E100E070B582B000F0CBFC364D04000022364E3F2002E001322E2A41D02B68B15C03408B42F7D18021C9018C46304B64
:402E4000033253436344DB0B591E2E4B1B68DB0635D02D4B18682D4B03400B43192A3CD92B495118B218907DA0220978520313434218FF2A34D892051A43234B254D1A60C9
:402E80002B683020019300F09BFC8021224AC90513680B431360214B186883001818800000F07EFC019B20002B6000F086FC02B070BD144B1B68DB0614D15B2103221F2054
:402EC000104D2B688343133803432B600E4B18680E4B03400B43192AC2D8114A1A43CCE7FF22C8E7084B1A68084B13405B2213430B4A1A43C1E7C0462CFF0B4008490000B0
:402F000040420F0034FF0B400800224000F800C0CDF1FF0F3000104000002240D40000200000D43F30B587B0050000F042FC194B04001A68520020D40022174B17481968C8
:402F40004019029116490338096802AB03910178144804911449096805911449009169460193134B1960134908601B68012A0AD0200000F022FC07B030BD19680E4A0A4002
:402F80001A600122D9E700F073F80028F0D0FFF741FFEDE70000224008010B400849000000010B401700008030001040B6EA00000800104004001040FFFFFFBF1F2800D9D5
:402FC00001BE034B8000C318186819607047C04640000020F8B504000E00032900D901BE1F2C00D901BE032700F0E3FB3D00094B25409C46A408A40064442168ED000B00A4
:4030000031000635AF40A940BB431943216000F0D4FBF8BD00E400E01F2318401E3B8340014A13607047C04600E100E01F2318401E3B8340014A13607047C04680E100E0D5
:4030400001BE7047034A044913681B041B0C0B43136070470CED00E00400FA0510B5034B1B7A584300F09CFB10BDC046D4000020014B1868C00F704700002240714B70B505
:403080001A680423134225D06F4A51680B420CD06E494C6A50681C40A04350604A6A9A438B694A62002B00D09847C02500F081FB674C2D02236806002B4200D0A0E0614B36
:4030C000644A19680A4004210A431A601B68300000F073FB5B4B1A688023DB001A4226D0594A516819420DD058494C6A50682340984350604A6A584B13404B62CB69002B1B
:4031000000D09847C02600F054FB514C360223680500334252D14B4A4E4B11680B408021C9000B4313601368280000F046FB454B1A688023DB021A421DD0434A52681A424F
:4031400004D0424B1B6A002B00D09847C02600F030FB3F4C36022368050033420CD1394A3C4B11680B408021C9020B4313601368280000F022FB70BD00F01BFB80212268E0
:40318000364BC9011A400A43226022681340802212021343236000F010FB2A4A2D4B11680B408021C9020B431360136800F001FB23681E43266000F000FBD9E700F0F9FAF0
:4031C00080212268254BC9011A400A43226022681340802212021343236000F0EEFA194A1C4B11680B408021C9000B431360136800F0DFFA23681E43266000F0DEFA93E74C
:4032000000F0D7FA80212268144BC9011A400A43226022681340802212021343236000F0CCFA084B0B4A19680A4004210A431A601B6800F0BEFA23681D43256000F0BDFA8D
:4032400045E7C04610020B40E8000020A801002000010B40FBFBFBFFFFFBFFFFFF3FFFFF70B5194C2368002B1DD10F2500F0A1FA1649174B0A681B78AA432B401343154ABE
:403280000B60136814491360144B1D682940802519601168ED00294311601A681A6000F08CFA0123236000F084FAC021094A890013680B4380211360084A090613680B435F
:4032C000136000F07AFA70BDD001002000FF2940D4F0FF0F08002940FFFFFEFF0400294010B5040000F065FAFF21044A13688B431C43146000F061FA10BDC0460800294095
:40330000034A044B116880010B40184310607047080504403FFEFFFF10B5094C2378002B03D100F011F8012323708021054A0906136809200B431360FFF76EFE10BDC046A1
:40334000D40100200000254010B50024194B1A4A1C601A4B1A491A601A4B1B4A092013601A4A14601A4A11601A4A13601A4B1C60FFF75CFE03210920FFF72CFE1749092073
:40338000FFF71CFE5222164BFF321C60154B1C60154B1A600022154B1C60154B1C60154B1C60154B1C70154B1C70154B1C80154B1A7010BD00002540000800406000254012
:4033C0006400FE0007010080000325400403254010032540000225400402254039340000C80E2540880E2540480F2540080F2540C80F2540880F2540BC030020C0030020F0
:40340000BA030020B803002070B506000D00141E0BD00920FFF70AFE044B09201C60044B1E80044B1D80FFF7F7FD70BDC4030020C8030020BE030020F8B54F464646B64B02
:40344000C0B41B68002B00D09847B44BB44D1E68B44B2C881F680223FF3333402DD02021B14A13685B005B081360B04B1A788A431A70102219780A431A70AD4A1268D20645
:4034800000D48DE0022219780A431A70A94AAA4B11680B40136000238021A84A09061360A34A1360A64A13709F4A13680B4313602C800CBC90469946F8BDFA0601D5A14A51
:4034C00013600A233B424CD102231F40002F1AD0F30614D50023994A1360954A13609A4B1A780A23944200D1FCE0904A334011780B4320218B4313700022914B1A7073066A
:4035000058D4864B1E60874B1B685B07D0D58F4B8F4E98461A888F4BFF271B688E489C4600231F2199460DE063461B191B78013ADBB23360012399460368013492B20B4016
:40354000082B06D0002AEFD1376003680B40082BF8D14B46002B00D0DAE010227F4B1A60A6E77F4B1B685B074FD57E4B74491A680B78002B00D191E0012B7BD173498846F9
:403580000988002900D1A9E07748D2B20360714B01391B681B191A704346013419806CE0694A1278A24200D170E7082219780A431A706BE720235D4A11780B431370624B59
:4035C0001C786A4B1A68102313424FD08020684A5E4912884002121B0A80664A1168014311601068644901401160514A13600122624B63491A60494B1960102361490868BA
:4036000003430B60584B1A607BE74A4A13689B0400D459E702231F4033D14C4B1988083989B2198008295FD800296FD000239846484B4C489C466118634602681B68D2B256
:403640001B1901341A708C42F6D14346002B09D18020384A000213680C00034313600022364B1A600C22484B1A602FE70422334B1A60BCE70020FFF7E3FC0422424B1A607F
:4036800022E71F21414B1B68106819402A4B03401360012398460029CAD1E3E73448008882421BD20124304804603948008882421ED2801A254C80B2208007281AD9082884
:4036C0001BD080201B4980010B6803430B6008211A4B19601C4B14001A70CEE70222224B1A60CAE7083B00E70123082198469FE71648038001230B70ECE7A0240D4824024C
:403700000168214301600D490B60E3E721009FE743461A8021E7C046D8010020400F2540BA030020000E254000002540C0030020880F254060002540FF5FFFFFC80F25405A
:40374000BC030020880E2540B8030020DC01002040022540C403002008022540800F2540CC0F2540400325406C00254064002540C803002004022540FFFFFEFF800E2540E0
:40378000FF0F0000480F2540C00F254008032540BE030020014B18707047C04670000F400230800803D00138FDD1C046C046C0467047EFF3108072B6704780F310887047FA
:4037C00070B50400FFF7F5FF0500102C16D9202C0CD9302C18D803220D490B689343013A13430B602800FFF7E8FF70BD032208490B689343023A13430B60F3E70321044A0F
:4038000013688B431360EDE70020FFF719FCE9E730001040002243088B4274D303098B425FD3030A8B4244D3030B8B4228D3030C8B420DD3FF22090212BA030C8B4202D3C5
:403840001212090265D0030B8B4219D300E0090AC30B8B4201D3CB03C01A5241830B8B4201D38B03C01A5241430B8B4201D34B03C01A5241030B8B4201D30B03C01A524182
:40388000C30A8B4201D3CB02C01A5241830A8B4201D38B02C01A5241430A8B4201D34B02C01A5241030A8B4201D30B02C01A5241CDD2C3098B4201D3CB01C01A5241830997
:4038C0008B4201D38B01C01A524143098B4201D34B01C01A524103098B4201D30B01C01A5241C3088B4201D3CB00C01A524183088B4201D38B00C01A524143088B4201D3AE
:403900004B00C01A5241411A00D20146524110467047FFE701B5002000F0F0F802BDC0460029F7D076E7704703460B437FD4002243088B4274D303098B425FD3030A8B420E
:4039400044D3030B8B4228D3030C8B420DD3FF22090212BA030C8B4202D31212090265D0030B8B4219D300E0090AC30B8B4201D3CB03C01A5241830B8B4201D38B03C01A96
:403980005241430B8B4201D34B03C01A5241030B8B4201D30B03C01A5241C30A8B4201D3CB02C01A5241830A8B4201D38B02C01A5241430A8B4201D34B02C01A5241030A1B
:4039C0008B4201D30B02C01A5241CDD2C3098B4201D3CB01C01A524183098B4201D38B01C01A524143098B4201D34B01C01A524103098B4201D30B01C01A5241C3088B42DD
:403A000001D3CB00C01A524183088B4201D38B00C01A524143088B4201D34B00C01A5241411A00D201465241104670475DE0CA0F00D04942031000D34042534000229C462E
:403A400003098B422DD3030A8B4212D3FC22890112BA030A8B420CD3890192118B4208D3890192118B4204D389013AD0921100E08909C3098B4201D3CB01C01A5241830900
:403A80008B4201D38B01C01A524143098B4201D34B01C01A524103098B4201D30B01C01A5241C3088B4201D3CB00C01A524183088B4201D38B00C01A5241D9D243088B4215
:403AC00001D34B00C01A5241411A00D20146634652415B10104601D34042002B00D54942704763465B1000D3404201B5002000F005F802BD0029F8D016E770477047C046E4
:403B000070B5041E28D000F053FE9E231B1A962B0ADC9622D21A94406202520AD8B25202520AC005104370BD992B18DC9922D21A9440114A2240610704D00F210C40042CD9
:403B400000D00432510103D50B4B1A409F231B1A9201520AD8B2E2E700200022DFE705222500121AB921D5402200C91A8A40541EA2412C001443DCE7FFFFFFFBF0B556461A
:403B80004D4644465F46F0B41D000E034C00CB0F87B0070092468146360B640D98466AD06D4B9C4235D08022430F12041343F6001E43C3009946694B00279C460023644428
:403BC00002932B0368001B0BED0F51469B46400D009500D178E0604B98426CD05B46DA004B0F802109040B4313439B465346D9005A4B9C46002360444246201A6A40924628
:403C000001901F430F2F00D9B0E05548BF00C0598746374300D088E0002399460233082700260293CDE74346B34649460093029B009A9246022B00D0BFE1002153460122F4
:403C4000002689461A40444B002136030C0D2405360B2643434C1B0526401E437600D207760816434846310007B03CBC90469946A246AB46F0BD330003434FD0002E00D144
:403C8000BCE1300000F094FD03000B3B1C2B00DDADE11D220100D31A08393A008F408E40DA40B9461643304B00279C46002360444442029385E753465A4613432CD1002383
:403CC00000219B46023397E70B4320D05B46002B00D19EE1584600F06BFD03000B3B1C2B00DD8FE102005946083A91408B461D21CB1A5146D9400B0059460B4351469B461A
:403D00009140194B9C4660444042002374E7002300219B4601336FE703236DE70023994601330427002602934BE703230C27029347E70122D51A382D00DCB0E153461A405E
:403D400000210023002689467EE700238026994600223603004B77E7FF07000001FCFFFF50490000FFFF0F80F30300005E4500D972E100D16DE1019B4D46013B01930023CC
:403D8000340002935B461E020B0E1E430B020393330C994633041B0C494620000093FFF739FD009B370043430600494620009846FFF7B6FD2C0C09040C43A04509D9E41986
:403DC000731EA74200D95CE1A04500D859E1023EE4194346E41A49462000FFF71BFD0300009A80465343494620009B46FFF798FD2A040904120C0A4393450DD94346D219CF
:403E0000013B974200D93AE1934500D837E102235B429C46D219E0445B46D21A4346360433439B460399180C0B0C1D00059309045B46090C0C001B041B0C444304915943FE
:403E40006B4368431B190D0CEB189C4203D980246402A44660441C0C09041B04090C20185D18824200D2DEE000D1D7E0161A029B9C465D1BAC459B415B42F61AB74200D1EA
:403E800006E149463000FFF7C5FC009B04004343494630009846FFF743FD2E0C09040E43B04509D9F619631EB74200D9F3E0B04500D8F0E0023CF6194346F31A49461800E2
:403EC0000293FFF7A7FC009B06004343494602989846FFF725FD2D0409042D0C0D43A84509D9ED19731EAF4200D9D6E0A84500D8D3E0023EED192404210043463143049EFB
:403F0000059A3000ED1A0B040C0C1B0C58436643534354439A19030C9B189E4203D980225202944664441A0C00041B04000C14191B18A54250D34DD001231943964A019B6B
:403F400094466344002B00DCF3E64A0709D00F220A40042A05D00A1D8A42894149428B4411005A46D20108D55A468C4B1A4093468022D2009446019B6344894A934200DD00
:403F80005BE65A46C908500708435602514601225B058146360B5B0D0A4055E680231B031E4211D05A461A420ED15E461E433603360B2A0089467B4B46E6032B00D1E1E03F
:403FC000012BBBD11A40BBE61E433603360B4246744B39E6002BB1D07D194A1EAF4252D91100A542A8D1039A9A42A5D1A6E703003E00283B9E400023994654E600F0D8FB99
:40400000203041E603005246283B9A400021934677E6504600F0CCFB20305EE6029B0026AB4200D323E7039E0299B44661448846B045B6415B467642F619B218013B0291D6
:40404000974213D290424FD800D18EE0161A9B460DE7894500D28EE674084B46F60735005B081D434B46DB0702938BE69742EDD10399029CA142E5D93E1A9B46F7E6984650
:40408000CAE61E00A5E6AC423ED874D0110053E70121494252E71C000EE71E002BE71F2D3CDC20230A0058465B1B9840EA4099400243481E81415E461143EE404B0709D08F
:4040C0000F230B40042B05D00B00191D99429B415B42F61833023CD55346012200211A40002601238946AFE502235B429C46039CE344A446029B63449846A045B641764268
:40410000F6190293B218B1E603988A1E41008142B6417642F619AD19039161E71F225242D31A5A46DA401300202D29D040225846551BA8400143481E814107200B4318406D
:404140000026002809D00F2200261A401900042ABBD10B0070077602360BDB0803439946012253461A4000236EE502998D42BBD89B4600267BE603989842C5D3110032E729
:404180000020D7E780265B4636031E433603360B009A8946034B57E5FF030000FFFFFFFEFE070000FF070000F0B55F4656464D464446F0B40D0399464E002B0B87B0070073
:4041C000924680469B46760DCC0F002E69D06D4B9E4235D05B468022DD001204430F13432B439B46C3009846674B00279C460023664401934A4615035000D20F53462D0B4A
:40420000400D914600D176E05E4A90426CD080225B0F120413435C4AED0094461D4353460022DB00604449463618701C6140029017430F2F00D9AFE05448BF00C759BF46E2
:404240005B461F4300D088E000239B469846023308270193CEE74946022A6AD0032A00D109E2012A00D0BBE111400022002300259046CCB200212D030A0D12052D0B1543E1
:40428000434A1B0515401D436D00E4076D0825434046290007B03CBC90469946A246AB46F0BD034352D05B46002B00D18AE1584600F07EFA03000B3B1C2B00DD7BE11D2250
:4042C000D31A3A0001005D46DA4008398D4013008F402B439B46B8462E4B00279C46002360444642019385E752462A432CD100250023022297E752462A4321D0002D00D1EB
:4043000054E1280000F054FA03000B3B1C2B00DD46E11D21CB1A51460200D9405346083A954093400D431B4A944660444042002279E7012400220C40124B0025904699E754
:404340000025002301226EE703226CE700239B4698460133042701934CE703230C27019348E700238025984600242D03054B81E75D464346019A6FE75D4643462100019A2A
:404380006AE7C046FF07000001FCFFFF90490000FFFF0F80F30300004246120C91461A0C9446424617044A461B041B0C5A43604690464A4642431000039262461C003F0C71
:4043C0007A437C4342440192220C9246019A5244904506D98246802040028046C24450460390100C049048462404240C1204121905922A0C2D042D0C68432C008246484663
:404400007C4350438146200C8046574357444744BA4503D9802040028046C144380C3F04B84648442404240C01900498A044404404905846000C814658460404200C82468C
:40444000070048465F434C464343604660436446834650464443380C8446E4186444A34203D980235B029C46E34448463F04230C3F0C2404E419574668436F4384464D46D1
:40448000504655434243380C814662444A445B44944503D9802040028446654403983F04834604983F0C8446E344C345804140428246100484460198674484466744A34451
:4044C000BC46A345A4419946D44464428742BF41D4458041E144A04699459B417F424042C8440743120CBA18A045A4415F423B0064422343D71843467D19DB0D6D021D43E8
:404500005B465A02059B1A43531E9A415B46DB0D1A4343465B021343EA0107D501225C0813402343EA07029E13436D08574AB218002A4BDD580709D00F201840042805D033
:40454000181D98429B415B42ED180300E80104D54F4A15408022D200B2184E48824200DDE7E60124DB08680718436D02530580462D0B5B0D0C407DE6802259461203114262
:4045800008D0154206D115432D0398462D0B4C46414B6FE65D4615432D032D0B3E4B69E603005546283B9D400023BCE6504600F0FFF82030A8E60300283B9F400023BB4642
:4045C000984689E600F0F4F8203073E60124A61A382E07DD00220C4000230025904649E6029EA3E71F2E20DC20222C001800921BF040944093400443581E83411C43F5406D
:40460000630709D00F232340042B05D023001C1D9C4292415242AD182B021FD5012400220C4001230025904624E61F202C004042821AD440202E1CD04022961BB5402B430E
:40464000581E83410720234318400025002809D00F2200251A401C00042AD8D1230068076D022D0B0124DB08034398460C40002300E60025E3E780220124120315432D0345
:4046800098462D0B0C40044BF4E5C046FF030000FFFFFFFEFE070000FF0700000B0330B5134D1A0B4B005B0DC90F0024AB4211DD104CA34210DC8024640322430E4CE41A6B
:4046C0001F2C0CDD0D48C31ADA4013005C42002900D11C00200030BD094BCC18FAE7E040084CA44663449A4013000343EEE7C046FE0300001D0400003304000013040000CA
:40470000FFFFFF7FEDFBFFFF4200120E511C4302C9B270B55D0AC40F012915DDE02189008C466D071B0B6244002128000D0D2D052B431C4D52052B40520813435B00E4074D
:404740005B082343190070BD002A15D1002D1FD0280000F02DF80A281DDC0B232A001B1ADA4013000200153295400F4A1B03121A52051B0B520DD7E7002D06D080221B0BB6
:40478000120313436D07094ACEE7084A0023CBE700220023C8E703000B3B9D402B000025E3E7C046FFFF0F8089030000FF0700001C2101231B04984201D3000C10391B0AEA
:4047C000984201D3000A08391B09984201D30009043902A2105C40187047C04604030202010101010000000000000000014B18687047C046500100200E4B70B500251E00B9
:404800000D4CE41AA410A54204D0AB00F35898470135F8E700F0DEF8084B00251E00084CE41AA410A54204D0AB00F35898470135F8E770BDE0490000E0490000E049000019
:40484000E849000003008218934202D019700133FAE770470000000014300F4011310F4008330F4007400F4002410F400B420F4008430F400E041A021E0126022A042E0190
:4048800032073E0458045B045F018301A301B501B802BE01BF10D804D904DF01020208A0102A19081D0124082F803E02682A89088CA0C001C203C407CA80CE80E280820245
:4048C0009E02A804AB80B202B501E604EE045220622069108910D420D840DA40AA20EE800040034006802F0177088C408F40C00ECA04DC02E20A18408040AB01B280B70829
:40490000C608EC02EE040000030405060708090A0B0C0E0F101112131415161718191B1C1D1E1F2021222325262728292A2B2E2F3031323334350000EEDBC9B9AA9B8E8239
:40494000766B60564D443B332C241D17100A04006C3D00003A3C0000403D0000303C0000403D00004A3D0000403D0000303C00003A3C00003A3C00004A3D0000303C00002B
:40498000263C0000263C0000263C00009C3F000098430000584200005842000056420000704300007043000062430000564200007043000062430000704300005642000009
:4049C0007843000078430000784300007845000043000000F8B5C046F8BC08BC9E467047352300002D280000F8B5C046F8BC08BC9E4670470D230000084A0000C8000020E3
:404A0000900000007802000000000000580200002300000080BB000001000000300000000000C05D006CDC02F0000000040404000000000000000000000000000000000020
:404A400000000000000000000000000000000000D049000000000000000000000000000000000000000000000000000000000000000000000000000000000000000000001D
:404A800000000000000000000000000000000000F00000200000000000000000000000000000000000000000000000000000000000000000000000000000000000000000E6
:404AC00000000000000000000000000000000000000000000000000000000000000000000000000000000000000000000000000000000000000000000000000000000000B6
:404B00000000000000000000000000000000000000000000000000000000000000000000000000000000000000000000000000000000000000000000000000000000000075
:404B40000000000000000000000000000000000000000000000000000000000000000000000000000000000000000000000000000000000000000000000000000000000035
:404B800000000000000000000000000000000000000000000000000000000000000000000000000000000000000000000000000000000000000000000000000000000000F5
:020000040001F9
:40FFC00028112000003F000000002B00000000000000000000000000000000000000000000000000000000000000000000000000000000000000000000000000000000003E
:0200000490303A
:02000000B32427
:0200000490402A
:4000000000000000000000000000000000000000000000000000000000000000000000000000000000000000000000000000000000000000000000000000000000000000C0
:400040000000000000000000000000000000000000000000000000000000000000000000000000000000000000000000000000000000000000000000000000000000000080
:0200000490501A
:0C0000000002112B11A10001113FC4C52A
:0200000490600A
:0100000001FE
:00000001FF