:400000000010002011000000910100009101000010B500F013FA00F0C3F8C04670B5124C23688022D20213432360182000F06AFE22680E4B134023600D4A0E4B1A601022E6
:400040000D4B1A6080231B060C4A1360002525600B4A13600B49092000F0EEFD092000F0CBFD094B1D6070BD00010B40FFFFFBFF0600008004010B400C02024008010B40BA
:4000800000000240150F00000C020B4010B572B600240FE016486200131959000B00411889881A5AC31858880004104300F06AF80134E4B2012CEDD90E4A0F4B1A60992349
:4000C0001B040E4A13600E4A13600E4A117806230B43DBB21370C02212010B4B1A6003220A4B1A600A4A0B4B1A60FFF797FF10BDD4170000EEEE00000C00014010500F40EA
:4001000030500F4000700F400801044000030440A40D00000803044010B5064C2378002B07D1054B002B02D0044800E000BF0123237010BD5001002000000000D0170000D4
:40014000084B10B5002B03D00749084800E000BF07480368002B00D110BD064B002BFBD09847F9E70000000054010020D0170000C80000200000000010B562B600F0F8FB9D
:40018000FEE7C04610B50A00002101F014FB10BD10B501F0DBFA03680C2B00D1FEE7FEE770B50F4E0F4D13E029686B68AC68002202E001C901C30432A242FAD1E86800229D
:4001C00002E0002102C304328242FAD11035013E002EE9D101F0C0FAFFF7CEFFFEE7C04601000000C418000010B500230AE0032B03D89A000C49505800E00C4899000C4A3B
:40020000885001332F2BF2D9FFF740FF094B1B68002B02D10022074B1A608022D205116801230B43136010BD000000009101000000000020C0000020002306E04218013AC1
:4002400012789B189BB2013989B20029F6D1584280B2704730B5002307E01C182478E4B2CD5CAC4205D101339BB29342F5D3002000E0022030BDC0460047C04610B58022E3
:40028000024B1A6000F010FD10BDC046C0000020F0B583B00D006B469E1DDA8001230B7048701400AA70130ACB70171DB9B22800FFF7C2FFE855631D000AE854A31D1722C5
:4002C000EA540734A1B296233200280000F002FF03B0F0BD70B505000E001400002802D0002000F0A7FC002005E0013CAB19E3181B781818C0B2002CF7D170BD10B50C2885
:4003000063D88000404B1B589F464B06591ACB013E4A9446634401225CE04B06591ACB013B4A94466344042254E04B06591ACB01384A9446634402224CE04B06591ACB01C4
:40034000354A94466344042244E04B06591ACB01324A9446634401223CE04B06591ACB012F4A94466344012234E04B06591ACB012C4A9446634402222CE04B06591ACB015F
:40038000294A94466344022224E04B06591ACB01264A9446634402221CE04B06591ACB01234A94466344042214E04B06591ACB01204A9446634401220CE04B06591ACB01CE
:4003C0001D4A94466344042204E0002000F032FC02220023012A02D11878C0B200E00020022A03D11978587800020843042A09D11A785878000210439A7812041043DB784B
:400400001B06184310BDC046E0170000C07F0000C17F0000C57F0000C97F0000D07F0000D17F0000D67F0000D27F0000D47F0000D87F0000DC7F0000E07F000010B50D4BA5
:400440001B68DB0602D400220B4B1A600A4B1B68802B0ED10022084B1A6000210220FFF74DFF002805D000210220FFF747FFFFF703FF10BD00030B40C000002070B50500E1
:4004800001000320FFF73AFF441CE40129000420FFF734FF241829000320FFF72FFF421CD2010023002608E01078411EC9B2FD2900D801261B18DBB20132A242F4D35B425E
:4004C000DCB229000120FFF719FF844203D1002E03D1062002E0062000E0002070BDC046F0B55F4656464D464446F0B4CC4CA544050000F09DFD62B600239A4698460A24BB
:400500000027002D01D1FF2300E02B00C54A02A98C4662449621490052A800F0A5FD002D01D0013CE4B2002C01D00028E9D1002800D00AE2BB4B02AA944663441B88062B0F
:4005400024D952AA1278012A22D152A9CA78120289780A431700110007329A421AD896235B009A4218D87A1D52AB9E5C3202381D1E5C164306315B5C172B0FD181B252A805
:40058000FFF75AFE86420BD100260AE0042608E0042606E0032604E0032602E0042600E00826002E00D077E152AB1A7993465A781300313BD9B2142900D93DE18B009A498A
:4005C000CB589F464346012B00D067E1002F00D067E10020FFF752FF4342434152AA13710122ABE14346012B00D05DE1032F02D0832F00D05BE152AA93791B025279134375
:400600009946032F08D0FA1E4821FF3102AB9C46614407A801F0C6F85B46002B00D049E118024844C0014B46FF2B00D90A26002E00D042E1802207A9FFF70CFE0600002202
:400640007CE14346012B00D039E1012F00D039E15B46002B00D038E1744B1B681B68DA0BD2B2934503D1DB09FF22134005E0934501D9002301E080235B0052AA13711B0A3F
:400680005371FF2393710023D371042256E1342A0DD14346012B00D01AE1032F00D01AE14C32002107A801F086F880239A464346012B00D012E1022F00D812E107A85044DC
:4006C000FA1E4821FF3102AB9C46614401F06AF83B0053449BB2832B00D005E152AA93791B02527913439A46FF2B00D90A26002E00D0FFE05B461802504480B24B4B1B686F
:400700001A68D3099BB2520601D001339BB2834200D9F2E007A900F05DF9002800D1F2E000239A4680270A26002207E14346012B00D108E10426002200E14346012B00D02E
:40074000E6E05346FB1896225200934200D9E2E007A850443A0053A901F024F85346FB189BB29A460022E9E0002F00D0D6E004AA2F4B03CB03C253AA04AB03CB03C2002371
:400780009A46013398460822D8E04346012B00D0C7E0032F00D0C7E052AA93791B025279134399465B4619024944C9014B46FF2B00D90A26002E00D0B9E080220020FFF745
:4007C00089FD030001905A4612024A4492B25946002911D1FF2A0FD10520FFF78FFDC0B2019B1B1ADBB2994600210620FFF786FDC3B24A46D31ADBB25B4252AA13710122D1
:400800009CE00020FFF73AFE002802D18022094B1A6000F025FC00F047FA042600228DE084FDFFFF6E02000014180000CC00002068180000C00000204C4B1E68002E78D08E
:400840004346012B78D102AB1A705F8053AB03930C22002104A800F0AEFF04AB9B4653AA0692190002A8B0475B469A882623FF339A4203D953AB0699994207D0069B002B48
:4008800001D1002A05D1049BDEB257E00E26002254E00E26002251E000224FE0042600224CE00426002249E00426002246E00426002243E00926002240E000223EE00426F5
:4008C00000223BE00426002238E00426002235E00426002232E0042600222FE0042600222CE00426002229E000239A4680270326002223E08027002220E000239A46802725
:400900000A2600221AE000239A468027002215E00426002212E0032600220FE0042600220CE00426002209E00426002206E0002204E00526002201E00526002252A93000E7
:40094000FFF7A6FC01E000239A46002D00D1D8E54346012B00D1D4E59F239B009D443CBC90469946A246AB46F0BDC0466C01002010B50020FFF782FD002801D0062200E0A2
:400980000022094B1B68402B01D0002A05D00022054B1A600020FFF7A3FD3C20FFF7A0FDFFF76CFC10BDC046C0000020024B1A68024B1A600020704708010B40700100200F
:4009C000024B1A68024B1A60002070477001002008010B40F0B5474680B4A6B00500002325932493FF2800D9EFE0002900D1ECE0802204A800F0D6FE022300200021002421
:400A000008E09A0002AE9259002A02D0891810431C000133212BF4D9002903D1002803D1002602E0002600E00126002E06D0A30002AA9F58002202A95A5000E00027664B99
:400A400002937F230393654B02AA1A606449654A1160C0461B681B0F1B07F0221206934204D15E4B1B68FF2213400DE05B4B1B681B0F1B07A0221206934204D0574B1B68B3
:400A8000FF22134000E000232593259B002B00D09DE000F09BFA0190FFF788FF2490259B002B25D1504A029202992A040A4302924A4A02A911604D484A490860C04612680F
:400AC000120F1207F02109068A4204D1434B1B68FF2213400BE0414A1268120F1207A02109068A4203D03D4B1B68FF2213402593259B9846002B59D1002E57D0802200219B
:400B000004A800F058FEA40002ABE750324B02937F230393314B02AA1A603149314A1160C0461B681B0F1B07F0221206934205D12A4B1B68FF221A4090460CE0274B1B6815
:400B40001B0F1B07A0221206934204D0234B1B68FF221A40904643462593259B002B25D1234A0292029A2D04154302951B4A02A9116020481B490860C0461268120F120716
:400B8000F02109068A4204D1144B1B68FF2213400BE0124A1268120F1207A02109068A4203D00E4B1B68FF2213402593249B002B07D1FFF705FF2490249B002B01D0249BC2
:400BC0002593019800F006FA01E004232593259826B004BC9046F0BDB6D70000080000400400008004000040B6D8000005000080B6D90000060000801F2318401E3B8340A3
:400C0000014A13607047C04600E100E01F2318401E3B8340014A13607047C04680E100E01F2318401E3B8340014A13607047C04680E200E001BE704770B504000D001F28A0
:400C400002D90020FFF7F6FF1034A40080239B059C4664442068256070BDC04670B504000E00032902D90020FFF7E4FF1F2C02D90020FFF7DFFF03252540ED00063500F0A3
:400C8000A5F9A408A400074B9C46644421680323AB4099430B003100A9401943216000F099F970BD00E400E0034A13681B041B0C02490B43136070470CED00E00400FA05D2
:400CC00010B5040006E0084B586800F075F9074B9C46644480231B029C42F4D8024B9868604300F069F910BDD40000200080FFFF10B5034B1B7B584300F05EF910BDC046AF
:400D0000D4000020F0B557464E46C0B483B0040000F05CF90190E71E2D2F74D83F4B1B78DBB29C4208D83E4B1B78DBB29A463D4B1B78DBB2994631E03B4B1B78DBB29C42AE
:400D400008D83A4B1B78DBB29A46394B1B78DBB2994623E0374B1B78DBB29C4208D8364B1B78DBB29A46354B1B78DBB2994615E0334B1B78DBB29C4208D8324B1B78DBB23A
:400D80009A46314B1B78DBB2994607E02F4B1B78DBB29A462E4B1B78DBB299462D4BDE5D2F2E09D92A2C07D919222B4B1A60052000F002F9192503E0274B1D683F231D40C5
:400DC000B54206D9234BDA5D234B1A60052000F0F3F81F4B9C4664442378DBB21F4A13601F4B52461A601F4B4A461A600520FFF77FFFB5420AD2174BDA5D174B1A600520A2
:400E000000F0DAF802E00020FFF714FF019800F0E1F803B00CBC91469A46F0BDC0F1FF0FC1F1FF0FC2F1FF0FC3F1FF0FC4F1FF0FC5F1FF0FC6F1FF0FC7F1FF0FC8F1FF0FC9
:400E4000C9F1FF0FCAF1FF0FCBF1FF0FCCF1FF0FCDF1FF0F701800002CFF0B4028FF0B401CFF0B4020FF0B40034B1868C0231B02184000D00120704700010B4010B500F071
:400E8000A5F8044A1368C02109020B43136000F0A1F810BD00010B4010B500F097F808490A68084B1A408024E40122430A600A6813408022120213430B6000F08BF810BDF5
:400EC00000010B40FF3FFFFF70B5050000F07EF80400FFF7C9FF002803D0FFF7DDFF012100E0002108482840084A1568084B2B40184310601368012901D1FFF7BFFF2000CD
:400F000000F068F870BDC0460404040010020B40FBFBFBFF10B5244B1B685B0715D5234B1B685B070ED5224BD969042001401F4C22688A432260DA698243DA611B69002B52
:400F400000D098470420FFF7BFFF174B1B685B0518D5164B1B685B0510D5154BD9698022D2001140114802688A430260D969114A0A40DA615B69002B00D098478020C00016
:400F8000FFF7A2FF084B1B685B030CD5074B1B685B0304D5064B9B69002B00D098478020C002FFF791FF10BD10020B40E800002074010020FFFBFFFF0230800804D0C0460F
:400FC0000138FDD1C046C046C0467047EFF3108072B6704780F310887047C0460F4B1B685B0619D50E4B1B68DB060BD50D4B1B68002B11D00C4A136000230C4A1360094A50
:40100000136009E0094B1A68074B1B689A4203D0054B1A68054B1A607047C0464C0F074064000740940100203C0200202802002010B5094C201D402100F082F82000443041
:40104000002100F05FF8054800F0D4F80023236000F0AAF810BDC04694010020DD0F000010B500F0B1F810BDF8B507000E001500002825D0002925D09A00D3185C001BE03A
:40108000114B1B78DB0613D5104B1A682A8000220D490A701A602B88321C9E4200D91A1C92B20B490431380000F07CFB00200AE00120FFF705FE013C002CE1D1102002E0D8
:4010C000012000E00120F8BD30020020200200209401002070B50C0000280DD000290DD01180074D2B0044330A000100180000F059FB2C60002002E0012000E0012070BDC9
:401100009401002070B504000D0000280ED00B20FFF77CFD064B1C60064B1D600023064A1360064A13600B20FFF766FD70BDC0462C0200203C0200202802002024020020ED
:4011400070B504000D0000280CD00B20FFF75EFD054B1C60054B1D600022054B1A600B20FFF74AFD70BDC04638020020340200202002002010B50B20FFF73EFD10BDC046B3
:4011800010B500F0C7F810BD10B500F057F810BD10B5044A1368802109060B431360FFF7E9FF10BD0000074010B5064B1B78002B04D1FFF7E9FF0122024B1A70FFF7E8FFCE
:4011C00010BDC0461802002010B50B20FFF71EFDFFF7D6FF054A13685B005B0813600022034B1A600B20FFF71BFD10BD00000740880F0740014B58607047C046180200200B
:401200000A4B1B68DB050DD5094B1B685B0409D4064B1968074A0A401A601A68802149000A431A600222044B1A6070470000074060000740FFFEFFFF6C00074010B51E4A7A
:4012400011680C230B43136000241C4B1C601C4A1C4B1A601C4B1D4A13601D4A14601D491D4A11601D4A13601D4B1C600B20FFF7CDFC03210B20FFF7F1FC1A490B20FFF7FF
:40128000DBFC194B1C60194B1C604C22FF32184B1A60184B1C60184B1C60184B1C603C3AFF3A174B1A70174B1C70174B1C60174B1C60174B1C7010BD700007400000074080
:4012C00077080040600007400701008000030740040307406400FE0010030740000207400402074021130000C80E0740880E0740480F0740080F0740C80F0740880F0740F0
:4013000041020020300200202802002020020020400200201022014B1A7070474102002010B5C54B1B68002B00D09847C34B1B68DB0702D50022C24B1A60C24B1B789B0682
:4013400022D4C14B1A680223FF331A421CD0BD4B1B78DB070AD5BD4A137802218B431370117809230B43DBB213700AE0B74A137820218B431370117870235B420B43DBB239
:4013800013700022AF4B1A70AE4B1B789B0600D5BDE1AC4B1B78DB0600D491E1AA4B1B689B0740D50222AA4B1A60AA490B680D321A40096880231B020B4000D001239B18CF
:4013C000A54A1278D2B2934206D2A04A117804230B43DBB2137006E09F4A12789B1A9F490A68D31A0B609D4B1A689D4B1A6000239C4A1360984A13709B4B1A68802149028A
:401400000A431A601968994A0A401A608F4A137802218B431370117801230B43DBB213701022884B1A70884B1B681B0739D50822874B1A608E4B1B689B040CD414E08D4BA8
:401440001A688D4909688A188C490968C9B211701A6801321A608A4B1B681B07EFD1844A1168884B0B401360874B1B689B0605D5764A117840230B43DBB213700022834BB4
:401480001A60834A804B1A60704A137820218B431370117810230B43DBB21370694B10221A70694B1B685B0643D50122794B1A60794B1B68DB0610D50F326A4B1A60684BFE
:4014C0001A68664B1A60614A117802230B43DBB2137012225B4B1A7025E0704B1B68654A12689B1A072B03D80422684B1A6011E0082B06D15E4A1368A02109020B431360F8
:4015000008E05B4A1368802189010B43136008225E4B1A604D4A117820230B43DBB213701122484B1A705E4A494B1A6001225D4B1A605D4B1B681B072AD5584B1B684D4A55
:401540001068181A0838082802D9002408200EE001240CE0474B1A68474909688A1847490968C9B211701A6801321A6001380028F0D1002C08D03E4A1368802109020B4325
:4015800013600022414B1A6008223F4B1A6024E0454B1B685B0720D5384B1B68354A11683E4A126891420DD201213E4A1160314A1168314800684118DBB20B701368013342
:4015C000136007E0FFF71CFE204A117840230B43DBB2137004222C4B1A60344B1B68DB0620D494E01D4B1A68314B1B689A420CD21A4B1A682F4909688A181278D2B22E49D1
:401600000A601A6801321A600CE0FF222A4B1A60114B1B78DBB20A2B04D80F4A13780133DBB213700B4B1B680F221340082BD9D10132224B1A606AE01C0200208C0E0740A3
:40164000880E0740410200204C0F074030020020400F074008020740400200202402002028020020880F074004020740FFFFFEFF600007402002002038020020400307406A
:4016800008030740FF5FFFFFC00F0740C80F0740ED0F0000800E07406400074034020020FF0F00006C000740CC0F07408C0F07403C0200202C02002040020740800F0740A6
:4016C000134A13685B005B0813601021114B1970114B1868114901401960186810490140196000230F490B600F490B600F49104B19601049104B19601049114B19601149BE
:40170000114B19601368802109060B43136010BD000007404102002060000740FF5FFFFFFFFCFFFFC80F0740880F0740ED0F0000800F0740F3070000C00F0740FF0F000089
:40174000400F074017030000000F0740014B18687047C0464C0100200E4B70B500251E000D4CE41AA410A54204D0AB00F35898470135F8E700F094F8084B00251E00084C96
:40178000E41AA410A54204D0AB00F35898470135F8E770BDAC180000AC180000AC180000B4180000002310B59A4203D0CC5CC4540133F9E710BD03008218934202D0197008
:4017C0000133FAE77047000080190000300000000000000000300F40000400400F400004CA0300000A0300001A0300002A0300003A0300004A0300005A0300007A030000B6
:401800006A0300008A0300009A030000AA030000BA030000C405000042060000380800008E0600002C070000380800003A070000680700008E0600008A0700000208000070
:40184000380800003808000038080000380800003808000038080000380800003808000038080000E40500009311B604113C0101030405060708090A0B0C0E0F10111213E4
:401880001415161718191B1C1D1E1F2021222325262728292A2B2E2F3031323334354300F8B5C046F8BC08BC9E46704741010000E9010000F8B5C046F8BC08BC9E467047EB
:4018C00019010000D8180000C800002088000000F80000000000000000000000C8170000CC170000010000000000E02EC05D00001800000000366E010404040000000000BF
:40190000000000000000000000000000000000000000000000000000000000009E1800000000000000000000000000000000000000000000000000000000000000000000F1
:4019400000000000000000000000000000000000000000000000000000000000EC00002000000000000000000000000000000000000000000000000000000000000000005B
:401980000000000000000000000000000000000000000000000000000000000000000000000000000000000000000000000000000000000000000000000000000000000027
:4019C00000000000000000000000000000000000000000000000000000000000000000000000000000000000000000000000000000000000000000000000000000000000E7
:401A000000000000000000000000000000000000000000000000000000000000000000000000000000000000000000000000000000000000000000000000000000000000A6
:401A40000000000000000000000000000000000000000000000000000000000000000000000000000000000000000000000000000000000000000000000000000000000066
:401A80000000000000000000000000000000000000000000000000000000000000000000000000000000000000000000000000000000000000000000000000000000000026
:401AC00000000000000000000000000000000000000000000000000000000000000000000000000000000000000000000000000000000000000000000000000000000000E6
:401B000000000000000000000000000000000000000000000000000000000000000000000000000000000000000000000000000000000000000000000000000000000000A5
:401B40000000000000000000000000000000000000000000000000000000000000000000000000000000000000000000000000000000000000000000000000000000000065
:401B80000000000000000000000000000000000000000000000000000000000000000000000000000000000000000000000000000000000000000000000000000000000025
:401BC00000000000000000000000000000000000000000000000000000000000000000000000000000000000000000000000000000000000000000000000000000000000E5
:401C000000000000000000000000000000000000000000000000000000000000000000000000000000000000000000000000000000000000000000000000000000000000A4
:401C40000000000000000000000000000000000000000000000000000000000000000000000000000000000000000000000000000000000000000000000000000000000064
:401C80000000000000000000000000000000000000000000000000000000000000000000000000000000000000000000000000000000000000000000000000000000000024
:401CC00000000000000000000000000000000000000000000000000000000000000000000000000000000000000000000000000000000000000000000000000000000000E4
:401D000000000000000000000000000000000000000000000000000000000000000000000000000000000000000000000000000000000000000000000000000000000000A3
:401D40000000000000000000000000000000000000000000000000000000000000000000000000000000000000000000000000000000000000000000000000000000000063
:401D80000000000000000000000000000000000000000000000000000000000000000000000000000000000000000000000000000000000000000000000000000000000023
:401DC00000000000000000000000000000000000000000000000000000000000000000000000000000000000000000000000000000000000000000000000000000000000E3
:401E000000000000000000000000000000000000000000000000000000000000000000000000000000000000000000000000000000000000000000000000000000000000A2
:401E40000000000000000000000000000000000000000000000000000000000000000000000000000000000000000000000000000000000000000000000000000000000062
:401E80000000000000000000000000000000000000000000000000000000000000000000000000000000000000000000000000000000000000000000000000000000000022
:401EC00000000000000000000000000000000000000000000000000000000000000000000000000000000000000000000000000000000000000000000000000000000000E2
:401F000000000000000000000000000000000000000000000000000000000000000000000000000000000000000000000000000000000000000000000000000000000000A1
:401F40000000000000000000000000000000000000000000000000000000000000000000000000000000000000000000000000000000000000000000000000000000000061
:401F80000000000000000000000000000000000000000000000000000000000000000000000000000000000000000000000000000000000000000000000000000000000021
:401FC00000000000000000000000000000000000000000000000000000000000000000000000000000000000000000000000000000000000000000000000000000000000E1
:4020000000100020112000008D3000008D30000080B500AF024B83F3088801F041F8C0460010002080B500AF294B294A12688021C9020A431A60302001F0BAF8254B264AE3
:402040001A60264B21221A60254B22221A60254B11221A60244B20221A60244B30221A60234B10221A60234B31221A60224B12221A60224B822212061A60154B8022D2021E
:402080001A601F4B802212061A601E4B1E4A1A601E4B1D4A1A601E4B1B4A1A601D4B1E4A1A601E4B1E4A1A601E4B1F4A1A601F4B1F4A1A601F4B1900092001F06FF90920CF
:4020C00001F0E6F91C4B00221A60C046BD4680BD00010B4004010B4006000080080202400C0202402002024024020240280202402C020240340202403C02024008010B4015
:40210000000002404000024001000080800002400400024044000240020000808400024009000080080002400B000080480002401D000080AD3600000C020B4080B582B05C
:4021400000AF72B6FB1D00221A7022E0FB1D1A7813005B009B185B004A4A9B183B603B681A78597809020A43997809040A43DB781B06134318003B681A795B791B02134392
:402180009BB2190000F002FFFB1D1A78FB1D01321A70FB1D1B78012BD8D93B4A3B4B1100180000F003FF3A4BA02212011A80394B01221A70384B394A1A60394BC022D205B9
:4021C0001A60384B384A1A60384BEE221A60384B992212041A60374B374A1A60374B802252041A60364BC82252031A60354B992212041A60344B8022D2051A60334B9922EA
:4022000012041A60324B50221A60324B324A1A60324A324B1B78DBB23C218B43DBB214210B43DBB213702E4A2D4B1B78DBB216210B43DBB213702B4B2B4A1A602B4B1F220D
:402240001A602B4BB62292011A602A4B03221A60294B80221A60294B80221A60284B03221A60284B284A1A60284B0F221A60284B284A1A60FFF7D6FE00F0DAFEC046BD46CC
:4022800002B080BDFC5A0000305B0000085B000000600F4002600F400400014070300000080001400C000140EEEE00001000014000500F4010500F400400990014500F4045
:4022C00018500F4020500F4028500F4030500F4060010540E0010540EE0E000001700F4000700F4008000440B6016C00000104400801044018010440000204401802044089
:402300000003044008030440A40D000000040440080404402409000010B5064C2378002B07D1054B002B02D0044800E000BF0123237010BD5801002000000000F85A000055
:40234000084B10B5002B03D00749084800E000BF07480368002B00D110BD064B002BFBD09847F9E7000000005C010020F85A0000D00000200000000090B585B000AF040093
:4023800008001100FB1D221C1A70BB1D021C1A707B1D0A1C1A70FB1D1B780021180001F0B5FA02000F23FB181A700F23FB181B78002B02D001F032FB0BE0BB1D1B781800A6
:4023C00001F08AFB7B1D1B78180001F085FB01F025FBBD4605B090BD80B582B000AF0200FB1D1A70FB1D1B78AA2214211800FFF7C3FFFB1D1B78AA2215211800FFF7BCFFF1
:40240000FB1D1B78AA2216211800FFF7B5FFFB1D1B78AA2217211800FFF7AEFFFB1D1B78002200211800FFF7A7FFC046BD4602B080BDC046B0B582B000AF05000C001000BB
:402440001900FB1D2A1C1A70BB1D221C1A707B1D021C1A703B1D0A1C1A70BB1D1B781A1C9218D318DBB20433D9B27B1D1A78FB1D1B781800FFF780FFBB1D1B780133DBB260
:402480001A1C131CDB189B18D9B23B1D1A78FB1D1B781800FFF770FFBB1D1B781A1C9218D318DBB20233D9B21823FB181A78FB1D1B781800FFF760FFC046BD4602B0B0BDD1
:4024C00080B584B002AF00237B604FE02B4B5B78DBB21A007B681A4113000122134042D07B68D9B2254BDB78DAB2244B1B79D8B2224B5B79DBB2009303006020FFF79AFF0F
:402500007B68D9B21D4BDB78DAB21C4B1B79D8B21A4B5B79DBB2009303006420FFF78AFF7B68DBB20422D31AD9B2144BDB78DAB2124B1B79D8B2114B5B79DBB200930300E8
:402540006120FFF777FF7B68D9B20C4BDB78DAB20A4B1B79D8B2094B5B79DBB2009303006520FFF767FF7B6801337B607B68042BACDDC046BD4602B080BDC046040200207A
:4025800080B582B000AF786002F08CFA02007B68134003D1052000F0EBFFF5E7C046C046BD4602B080BDC04680B584B000AF0200FB1D1A70BB1D0A1C1A700C23FB18FA1D2D
:4025C00012781A700C23FB18BA1D12785A700C23F918002302221E2002F0CAF90220FFF7CFFFC046BD4604B080BDC04680B584B000AF0200FB1D1A700C23FB1800221A7050
:40260000F91D002301221E2002F0B2F90220FFF7B7FF0C23F918002301221E2002F0F4F90120FFF7ADFF0C23FB181B781800BD4604B080BD80B586B000AFB9607A600F230F
:40264000FB18021C1A701423FB1800221A700F23FB181B78802252421343DAB20F23FB181A700F23F918002301221E2002F080F90220FFF785FF7A68B96800231E2002F0C6
:40268000C3F90120FFF77CFF1423FB181B781800BD4606B080BDC04680B500AFEC212020FFF782FF60212120FFF77EFF00212220FFF77AFFC046BD4680BDC04680B584B077
:4026C00000AF78600823FB18062219002020FFF7B1FF0823FB18062219002820FFF7AAFF0823FB181B781AB20823FB185B781B021BB213431AB27B681A807B68023308220F
:40270000BA18927811B20822BA18D278120212B20A4312B21A807B6804330822BA18127911B20822BA185279120212B20A4312B21A80C046BD4604B080BDC04680B584B01A
:4027400002AF00237B6014E07B68D9B23C23009300233C226020FFF76DFE7B68D9B23C23009300233C226120FFF764FE7B6801337B607B68042BE7DDC046BD4602B080BD7A
:4027800080B582B000AF1C4B180002F08BFC1B4B1B881A001A4B00215B5ED3181A11BB1D1A80BB1D00229B5EFF2B02DDBB1DFF221A80BB1D00229B5E002B02DABB1D00229E
:4027C0001A800F4B00229B5E9AB2BB1D1B881B019BB2D31A9AB2094B1B88D3189AB2074B1A80BB1D00229B5E180002F09FF8C046BD4602B080BDC046FFFF00007601002020
:40280000F801002080B500AF02F02EFD03000C4A944663449AB20B4B1B689BB253439BB2FA22D200944663449BB21AB2064B1A80064B180002F050FDC046BD4680BDC046E8
:40284000F8F8FFFFD4000020F8010020FFFF000080B588B002AFF860B9607A6000237B6136E07B69D9B2FB68DAB2BB68D8B27B68DBB2009303006020FFF7DCFD7B69D9B212
:40288000FB68DAB2BB68D8B27B68DBB2009303006120FFF7CFFD7B69D9B2FB68DAB2BB68D8B27B68DBB2009303006420FFF7C2FD7B69D9B2FB68DAB2BB68D8B27B68DBB26E
:4028C000009303006520FFF7B5FD7B6901337B617B69042BC5DDC046BD4606B080BDC04680B500AF002200216420FFF7B1FFFA235B00180000F016FE002264210020FFF7C8
:40290000A7FFFA235B00180000F00CFE642200210020FFF79DFFFA235B00180000F002FE002232213220FFF793FFC046BD4680BD90B589B002AFB34B7B6162B6962000F032
:40294000F1FD00F043FFB04B1A001021202001F005FA01F041F9AC4B1A001021202001F0FDF901F0D3FD01F023FF782001F032FF01F0CAFF002001F0D9FF01F095FE01F087
:40298000B1FC02F021FB002001F042FD002001F045FF002001F030FC002001F07BFC012001F050FCFFF778FE0F20FFF71FFE02F029FC02F09FFC02F083FB02F005FB924B03
:4029C00007229A72904B64221A738F4B32225A738D4B32229A73C0466120FFF7FDFC6020FFF7FAFC6520FFF7F7FC6420FFF7F4FCFFF776FF844B1B78DBB2002B4CD1834B56
:402A00001B78002B48D17B695A1C7A617D4A934242DD3B1D1800FFF751FE3B1D00229B5E1A003B1D00215B5E53430A21180002F043FF03001C003B1D02229B5E1A003B1D48
:402A400002215B5E53430A21180002F035FF0300E4183B1D04229B5E1A003B1D04215B5E53430A21180002F027FF0300E3183B613B69674A934203DD634B0122DA7209E01A
:402A8000614BDB7ADBB2002B01D0FFF757FE5E4B0022DA7200237B615B4B1B78DBB2012B04D1FFF70DFD584B00221A70564B1B78DBB2022B04D100F0D3F8534B00221A704D
:402AC000514B1B78DBB2032B1ED14F4BDB79DBB29BB21B029AB24C4B9B79DBB29BB2D3189AB20E23FB181A800E23FB1800241C5F00F094F80300E31A180000F051F9031E60
:402B000002D0414B00221A703F4B1B78DBB2042B1AD13D4BDB79DBB29BB21B029AB23A4B9B79DBB29BB2D3189AB20C23FB181A800C23FB1800229B5E180000F031F9031E72
:402B400002D0314B00221A702F4B1B78DBB2052B3FD1002001F09EFB002001F073FB2A4B5B7ADBB21A00012313405A1E9341DBB2180001F041FB244B5B7ADBB21A000123C3
:402B8000134003D0234B180000F0F2FC1E4B5B7ADBB21A00022313405A1E9341DBB2180001F078FB184B5B7ADBB21A00042313405A1E9341DBB2180001F044FB124B5B7A2D
:402BC000DBB21B09DBB25A1C134B1A600E4B00221A700D4B1B78DBB2062B0CD1002300930023642200216020FFF724FC064B00221A7000F085FC00F03BF9044B1A78024BE8
:402C00001A72F7E6400D0300040200208001002040420F0088130000D400002080B500AF024B1B681800BD4680BDC0464802002080B584B000AF78607B68FF2B00DDFF237C
:402C4000FB60FB68180001F0C5FD7A68FB68D31A180001F06BFEC046BD4604B080BDC04680B584B000AF0023FB602E4BBB606420FFF7DEFFFF2001F0CBFB012001F0B0FC12
:402C8000FA239B00180001F053FC01F061FC03000A331A00244B1A60BB68013BBB60214B180000F065FCFB680133FB60FB68022B2BDD01F00BFD0300012B0CD11B4B00220D
:402CC0001A70002001F0A4FB194B00221A60194B01221A7022E001F03BFC03007B60124B1B687A68D31A092B0CDC104B00221A70002001F08DFB0E4B00221A600D4B0122A6
:402D00001A700BE0084B7A681A60BB68002BC3DA074B00221A60002001F07AFBC046BD4604B080BD50C300003402002080010020480200208101002080B586B000AF78600E
:402D400000237B6100233B610023FB601EE03B695B003B617B699B007B617B689B0F7A69D3187B617B689B007B603A697B699A4209D23B6901333B613B697A69D31A7B6191
:402D80003B6901333B61FB680133FB60FB680F2BDDDD3B695B109BB21800BD4606B080BD80B582B000AF78602A4B1B78002B01D000234BE07B68002B01D1012346E0264B11
:402DC00000221A60BF235B00180001F003FD234B1A687B68D218214B1A607B68002B08DD002001F0FDFBBF235B001800FFF720FF0AE0012001F0F4FB7B685B427B60BF23C0
:402E00005B001800FFF714FF154B180001F090FB01F09EFB03001A00124B1A60114B1A687B68D218104B1A607B68002B00DA01335B101A000B4B1B68D2180C4B1A60064B9E
:402E400000221A60034B01221A7001231800BD4602B080BD8001002084010020480200201027000030020020380200204002002080B582B000AF3C4B1B78002B6FD03B4B78
:402E80001B685A1C394B1A6001F062FB03003B60364B1B68364A934207DD334B00221A70002001F0B5FA00235AE0324B1B683A689A4217DA304B1B683A68D21A2F4B9B7B20
:402EC000DBB219000B009B005B189B0053431800FFF732FF03001A00284B1B7BDBB2D3187B601FE0264B1A683B68D31A002B17DD234B1A683B68D21A204B9B7BDBB21900E3
:402F00000B009B005B189B0053431800FFF714FF03001A00194B5B7BDBB2D3187B6001E000237B607B68FA2B01DDFA237B607B68DBB2180001F06CFA114B1B683A689A4283
:402F400005DB094B00221A70002001F061FA0D4B7A681A600C4B3A681A60012300E000231800BD4602B080BD800100208401002020A10700400200203002002004020020C5
:402F8000380200202C0200204402002080B582B000AF786039603A687B680021180002F0A3FDC046BD4602B080BDC04680B586B000AF7860396000233B6100237B612FE0D6
:402FC0007B699B007A68D3181B68BB600F23FB18BA681A70BB68FF229343BB6018E03B695B003A68D3181B781A00BB68D31819003B695B003A68D3185B780B703B690133B7
:403000003B610F23FB181A780F23FB18013A1A700F23FB181B78002BE1D17B6901337B617B69092BCCD9C046BD4606B080BDC04680B500AF044B822252001A60012000F0F7
:4030400005F8C046BD4680BD8000104080B584B000AF0200FB1D1A700B4B1B68FB60FB1D1B78002B05D0FB68802212061343FB6003E0FB685B005B08FB60034BFA681A604B
:40308000C046BD4604B080BD80031A4080B500AF02F0FEFC03001B680C2B00D1FEE7FEE780B586B000AF224B7B61224B3B61204B7B6135E03B691B68FB603B695B68BB6045
:4030C0003B699B683B6000237B600CE0FB681A68BB681A60BB680433BB60FB680433FB607B6804337B607A683B689A42EED13B69DB683B6000237B6008E0BB6800221A607C
:40310000BB680433BB607B6804337B607A683B689A42F2D13B6910333B617B69013B7B617B69002BC6D102F0B9FCFFF701FCFEE701000000205D000080B582B000AF0023A6
:403140007B600FE07B68032B04D8144B7A689200D35800E0124B134A796889008B507B6801337B607B682F2BECD9FEF7E7FF0E4B00221A600D4B1B68002B02D10B4B0022A6
:403180001A608023DB058022D205126801210A431A60C046BD4602B080BDC046002000008D30000000000020C8000020C000002090B585B000AF78600C23FC1802F00AF93A
:4031C000030023707B68022B00D8B3E07B68302B00D9AFE05E4B1B78DBB21A007B689A420AD35C4A0F23FB1812781A705A4A0E23FB1812781A703FE0584B1B78DBB21A00A2
:403200007B689A420AD3564A0F23FB1812781A70544A0E23FB1812781A702DE0524B1B78DBB21A007B689A420AD3504A0F23FB1812781A704E4A0E23FB1812781A701BE0A5
:403240004C4B1B78DBB21A007B689A420AD34A4A0F23FB1812781A70484A0E23FB1812781A7009E0464A0F23FB1812781A70454A0E23FB1812781A707B68DA1E0B23FB1835
:4032800041498A5C1A700B23FB181B782F2B0DD97B682A2B0AD93D4B19221A60052002F08FF80D23FB1819221A7007E0374B1B68DAB20D23FB183F210A401A700B23FA18D3
:4032C0000D23FB1812781B789A4208D22F4B7A68033A2D498A5C1A60052002F071F87B68284A9A180A23FB1812781A70284B0A22BA1812781A60274B0F22BA1812781A6080
:40330000254B0E22BA1812781A60052000F030F90B23FA180D23FB1812781B789A420CD91A4B7A68033A18498A5C1A60052002F047F802E0002000F0D7F80C23FB181B7847
:40334000180002F04BF8C046BD4605B090BDC046C0F1FF0FC1F1FF0FC2F1FF0FC3F1FF0FC4F1FF0FC5F1FF0FC6F1FF0FC7F1FF0FC8F1FF0FC9F1FF0FCAF1FF0FCBF1FF0FB9
:40338000CCF1FF0FCDF1FF0F885C00002CFF0B4028FF0B401CFF0B4020FF0B4080B584B000AF02003960FB1D1A7080239B05FB60FB1D1B781F2B02D9002000F095F8FB1D62
:4033C0001B7810339B00FA68D3181B68BB60FB1D1B7810339B00FA68D3183A681A60BB681800BD4604B080BD90B587B000AF0200FB1D1A70BB1D0A1C1A70BB1D1B78032B60
:4034000002D9002000F070F8FB1D1B781F2B02D9002000F069F8FB1D1B7803221340DB0006337B611323FC1801F0D4FF03002370FB1D1B789B08DBB29B00144A94466344EC
:403440001B68FB6003227B699A401300DA43FB681340FB60BB1D1A787B699A401300FA681343FB60FB1D1B789B08DBB29B00074A94466344FA681A601323FB181B781800E4
:4034800001F0ACFFC046BD4607B090BD00E400E080B582B000AF0200FB1D1A70064BFA1D12781F210A40012191400A001A60C046BD4602B080BDC04600E100E080B582B0CC
:4034C00000AF0200FB1D1A70064BFA1D12781F210A40012191400A001A60C046BD4602B080BDC04680E100E080B582B000AF0200FB1D1A7001BEC046BD4602B080BDC046D0
:4035000080B500AF054B054A12681204120C04490A431A60C046BD4680BDC0460CED00E00400FA0580B582B000AF786009E00D4B1B68180001F044FF7B680B4A9446634467
:403540007B607A6880231B029A42F0D8074B1B687A685343180001F033FFC046BD4602B080BDC046E40000200080FFFFDC00002080B582B000AF0200BB1D1A80BB1D1B8821
:40358000044A12785343180001F01AFFC046BD4602B080BDE000002090B583B000AFFC1D01F018FF03002370074B074A1268C02109020A431A60FB1D1B78180001F00EFF14
:4035C000C046BD4603B090BD00010B4080B500AF054B1A68C0231B02134001D0012300E000231800BD4680BD00010B4090B583B000AFFC1D01F0EEFE030023700D4B0D4A6F
:4036000012680D490A408021C9010A431A60094B084A126808490A40802109020A431A60FB1D1B78180001F0D9FEC046BD4603B090BDC04600010B40FF3FFFFF90B585B074
:4036400000AF78600B23FC1801F0C4FE03002370FFF7BCFF031E04D00123FB60FFF7C6FF01E00023FB607B680D4A13407B600D4B0C4A12680C4911407A680A431A60094BC6
:403680001B68FB68012B01D1FFF786FF0B23FB181B78180001F0A2FEC046BD4605B090BD0404040010020B40FBFBFBFF80B500AF344B1B68042213401FD0334B1B68042255
:4036C000134017D0314B1B6804221340DA432E4B1B681A402C4B1A602C4B1B68042293431A002A4B1A602A4B1B68002B02D0284B1B6898470420FFF7A1FF224B1A6880239F
:40370000DB00134022D0204B1A688023DB00134017D01E4B1A688023DB001340DA431A4B1B681A40184B1A60184B1B68194A1A40164B1A60164B5B68002B02D0144B5B680B
:4037400098478023DB001800FFF778FF0D4B1A688023DB02134011D00B4B1A688023DB02134006D00A4B9B68002B02D0084B9B6898478023DB021800FFF760FFC046BD46D8
:4037800080BDC04610020B40EC0000209001002094010020FFFBFFFF80B500AF00F036F8C046BD4680BDC04680B500AF064B064A1268802109060A431A6000F019F800F04A
:4037C0001FF8C046BD4680BD0000064080B500AF064B1B78002B04D1FFF7DEFF034B01221A70FFF7E1FFC046BD4680BDA801002080B500AF0A20FFF74BFEC046BD4680BD18
:4038000080B500AFC046BD4680BDC04680B500AF274B274A12680C210A431A60244B244A126824490A401A60234B00221A60234B234A1A60234B244A1A60244B00221A60DB
:40384000234B00221A60234B234A1A60234B00221A600A20FFF732FE03210A20FFF7C4FD1F4B19000A20FFF799FD1E4B00221A601D4B00221A601D4B00221A601C4B1422A7
:40388000FF321A601B4B00221A601B4B00221A601A4B10221A701A4B00221A80194B00221A60194B00221A60C046BD4680BDC04670000640FFFFFDFD000006406000064031
:4038C0009608008000030640070300800403064010030640000206400701008004020640E5530000C80E0640880E0640480F0640080F0640C80F0640880F06404C02002083
:403900006A020020500200205802002080B584B000AF786039600023FB600423BB60384B1B78DBB2102B66D1364B1B680122134002D00823BB605EE00A20FFF7BFFD7B6822
:403940005B00FF2213407B603B68002B03D12C4B24221A7006E02A4B25221A707B68012213437B60284B7A681A60284B284A1A60284B02221A60C046244B1A680823FF33BE
:403980001340F9D0214B1B680422134002D00023BB601CE01D4B1B680222134002D00223BB6014E0194B1B680122134007D0144B10221A700123BB600123FB6007E0104BC0
:4039C00010221A7080235B00BB600123FB600F4B0822FF321A60FB68002B0CD00E4B0E4A1268520052081A600B4B0B4A1268802109060A431A60BB681800BD4604B080BDBE
:403A00004C0200206400064040020640000F064017030000680006400000064080B582B000AF00237B6004233B60264B1B78DBB220221340DBB2002B3ED0234B234A12686C
:403A400020210A4001D0182200E010221A60C0461F4B1A681223FF331340F9D01C4B1B681022134002D000233B600EE0184B1B680122134004D001233B6001237B6004E0F0
:403A800080235B003B6001237B60114B1222FF321A600C4B10221A707B68002B0CD00D4B0C4A1268520052081A600A4B094A1268802109060A431A603B681800BD4602B0DF
:403AC00080BDC0464C0200206800064064000640000F06400000064080B584B000AF78600023FB600423BB602A4B1B78DBB220221340DBB2002B48D0274B7A681A60C046A4
:403B0000264B1A680823FF331340F9D0234B1B680422134005D01F4B60221A700023BB601FE01E4B1B680222134005D0194B60221A700223BB6014E0184B1B6801221340EF
:403B400007D0144B10221A700123BB600123FB6007E0104B10221A7080235B00BB600123FB600E4B0822FF321A60FB68002B0CD00B4B0B4A1268520052081A60084B084A77
:403B80001268802109060A431A60BB681800BD4604B080BD4C02002040020640000F06400000064080B500AF00F060F8C046BD4680BDC04680B500AF064B064A126880213C
:403BC00009060A431A6000F019F800F01FF8C046BD4680BD0000074080B500AF064B1B78002B04D1FFF7DEFF034B01221A70FFF7E1FFC046BD4680BDB001002080B500AFF3
:403C00000B20FFF745FCC046BD4680BD80B500AFC046BD4680BDC04680B500AF0F4B1A6880235B00134012D00D4B1A688023DB0113400CD1094B094A12680A490A401A60F8
:403C4000064B064A1268802149000A431A60064B02221A60C046BD4680BDC0460000074060000740FFFEFFFF6C00074080B500AF244B00221A60244B244A1A60244B244A7E
:403C800012680C210A431A60224B234A1A60234B00221A60224B234A1A60234B1E4A1A60224B00221A600B20FFF708FC03210B20FFF79AFB1E4B19000B20FFF76FFB1D4B17
:403CC00000221A601C4B00221A601C4B5222FF321A601B4B00221A601A4B00221A601A4B00221A60194B00221A70194B00221A70184B00221A80184B00221A70C046BD4644
:403D000080BDC04600000740600007400008004070000740000307400701008004030740100307404400FE000002074004020740A53D0000C80E0740880E0740480F074087
:403D4000080F0740C80F0740880F07407602002077020020740200207802002080B584B000AFF860B9607A607B68002B10D00B20FFF7A4FB084B7A681A60FB689AB2074BC7
:403D80001A80BB689AB2064B1A800B20FFF780FBC046BD4604B080BD700200207C0200207A02002080B588B000AFCD4B1B68002B02D0CB4B1B689847CA4B1B88FB61CA4B58
:403DC0001B68FB60C94B1B68BB60FA680223FF33134057D0C64BC64A1268520052081A60C44B1B78DBB220221340DBB2002B2CD0C04B1B78DBB220229343DAB2BD4B1A7066
:403E0000BC4B1B78DBB210221343DAB2B94B1A70B94B1B68102213400FD1B84B1B789AB2B04B1B889A4210D0B24B1B78DBB208221343DAB2AF4B1A7007E0AE4B1B78DBB2E4
:403E400002221343DAB2AB4B1A70AD4BAC4A1268AC490A401A60AC4B00221A60A64B00221A60AA4BAA4A1A609F4BAA4A1A60AA4B00221A709E4B9E4A1268802109060A43D7
:403E80001A6099E1BB681022134002D0A34B00221A60BB680A22134000D1C3E0A04B1B680422134000D16FE09E4B1B687B609A4B1B78002B1CD0012B5ED19B4B1B88002B08
:403EC00013D09A4B01221A60994B1A68FB69D3187A68D2B21A70FB690133FB61924B1B88013B9AB2904B1A804AE0FFF795FE47E0904B1B881A007B689A423AD98B4B01220A
:403F00001A607B68FB618C4B1B881A007B689A4206D9894B1A887B689BB2D31A9AB200E00022814B1A80804B1B88072B03D87A4B01221A7018E07C4B1B88082B0AD1704B37
:403F40006F4A1268A02109020A431A606E4B00221A6009E06A4B6A4A1268802189010A431A60694B08221A60FB69DAB2634B1A7006E0FFF751FE03E00020FFF7B5FAC0460F
:403F8000624B04221A604DE05D4B1A6880239B01134047D0BB68022213400DD0674B1B680F2213403B61564B554A126855490A401A6001237B6122E05B4B1B88083B9AB2F2
:403FC000594B1A80584B1B88082B05D8564B1B883B6100237B6112E008233B6101237B610DE0534B1A68FB69D2184E4B1B68DBB21370FB690133FB613B69013B3B613B69FA
:40400000002BEED17B69002B09D13D4B3C4A1268802109020A431A603B4B00221A603B4B0C221A60BB680222134000D19DE0FB681022134027D0344B00221A602E4B0022E5
:404040001A600223BB612D4B1B781A00FB699A4203D0BB6908221343BB61BB69FA681340BB61244B1B78DBB21A00BB691343BB61BB6920229343BB61BB69DAB21D4B1A705F
:40408000254B00221A70FB68402213406AD0194B1B78DBB220221343DAB2164B1A70174B1B78FB61264B1B68102213404ED0214B1A88FB699BB2D31A9AB21B4B1A80214BB3
:4040C000204A1268802149020A431A601D4B1D4A12681D490A401A60074B10221A6038E0B401002074020020400F0740000E07400000074077020020880F074078020020F2
:4041000060000740FF5FFFFFC80F0740C00F0740ED0F0000FF0F000076020020880E0740CC0F074040030740B80100206C000740700200207C0200207A0200200803074073
:404140006400074004020740FFFFFEFF1E4B04221A601E4B01221A601D4B1E4A1A601E4B01221A601A4BFA681A601C4B1B680422134021D01A4B1B88002B11D0194A1A4B7C
:404180001968FB69CB181B78DBB21360FB690133FB61134B1B88013B9AB2114B1A8002E0104BFF221A60114B1B680F221340082BE0D10F4B10221A60FB699AB20D4B1A806A
:4041C000C046BD4608B080BDC80F0740800E0740400F0740FF0F00006C000740000E0740B8010020400207407002002008020740800F07407402002080B584B000AF020057
:40420000FB1D1A700E4B1B68DAB20F23FB1801218A431A70FB1D1B7801221340D9B20F23FB180F22BA1812780A431A70044B0F22BA1812781A60C046BD4604B080BDC0460B
:404240000000044080B584B000AF0200FB1D1A700F4B1B68DAB20F23FB1802218A431A70FB1D1B78DB18DBB202221340D9B20F23FB180F22BA1812780A431A70044B0F22C0
:40428000BA1812781A60C046BD4604B080BDC0460000044080B584B000AF0200FB1D1A700F4B1B68DAB20F23FB1804218A431A70FB1D1B789B00DBB204221340D9B20F23F5
:4042C000FB180F22BA1812780A431A70044B0F22BA1812781A60C046BD4604B080BDC0460000044080B500AF064B1B78002B04D100F00AF8034B01221A7000F049F8C046C1
:40430000BD4680BDBA01002090B583B000AF1E4B1B78DAB2FB1D3F218A431A701A4AFB1D1B780B210B43DBB21370184A174B1B78DBB201210B43DBB21370FF2000F038F8A8
:40434000FF2000F055F8002000F062F83F2000F06FF8002000F07CF8BC1D01F03BF8030023700A4A094B1B78DBB210210B43DBB21370BB1D1B78180001F030F800F028F8A7
:40438000C046BD4603B090BD70000F4093000F4080B500AF0549054B1B78DBB2802252421343DBB20B70C046BD4680BD70000F4080B582B000AF0200FB1D1A70034AFB1DF9
:4043C0001B781370C046BD4602B080BD03000F4080B500AF01E000F055F800F049F803001A0010231340F6D1C046BD4680BDC04680B582B000AF0200FB1D1A70034AFB1D55
:404400001B781370C046BD4602B080BD43000F4080B582B000AF0200FB1D1A70034AFB1D1B781370C046BD4602B080BD23000F4080B582B000AF0200FB1D1A70034AFB1D1E
:404440001B781370C046BD4602B080BD33000F4080B582B000AF0200FB1D1A70034AFB1D1B781370C046BD4602B080BD83000F4080B500AF024B1B78DBB21800BD4680BD04
:4044800063000F4080B500AF024B1B78DBB21800BD4680BD53000F4080B500AF094B802292041A60084B08221A60002000F08AF8064B180000F058F8002000F039F8C0469C
:4044C000BD4680BD4001054064010540FFFF000090B583B000AFFC1D00F07CFF03002370094B094A126802210A431A60FB1D1B78180000F073FF1821022000F045F8C0464F
:40450000BD4603B090BDC0460000054080B500AF064B1B78002B04D1FFF7BEFF034B01221A70FFF7D5FFC046BD4680BDBB01002080B582B000AF7860044B7A681204120C78
:404540001A60C046BD4602B080BDC0464801054080B500AF034B1B681B041B0C1800BD4680BDC0464801054080B582B000AF7860044B7A681204120C1A60C046BD4602B0C6
:4045800080BDC0465401054090B585B000AF786039600F23FC1800F01DFF03002370084B79683A6891400A001A600F23FB181B78180000F013FFC046BD4605B090BDC0466E
:4045C0000800054080B582B000AF7860034B7A681A60C046BD4602B080BDC0467801054080B584B000AF0200FB1D1A700F4B1B68DAB20F23FB1804218A431A70FB1D1B7889
:404600009B00DBB204221340D9B20F23FB180F22BA1812780A431A70044B0F22BA1812781A60C046BD4604B080BDC0460001044090B583B000AF0E4B02221A600D4B8022F2
:4046400012061A600C4BA82252001A60FC1D00F0C1FE03002370094B084A12681A60FB1D1B78180000F0BAFEC046BD4603B090BDC001002000001040040010402800104052
:4046800080B500AF064A064B1968064B1B680B43802109010B431360C046BD4680BDC04604001040C001002080B500AF064B1B78002B04D1FFF7BCFF034B01221A70FFF77B
:4046C000DFFFC046BD4680BDBC01002080B500AF034B1B68012213401800BD4680BDC0460C00104090B583B000AFFC1D00F072FE03002370174B1B68F02293433B60164BD5
:404700001B78DBB21A00F02313403A6813433B60104B3A681A60114B104A12681A60104B0F4A12680F490A401A600C4B0B4A12688F21C9040A431A60094B094A12681A60D6
:40474000FB1D1B78180000F049FEC046BD4603B090BDC04600FF084060F1FF0F0800084004000840FFFFFDFF90B583B000AFFC1D00F030FE030023700B4B0B4A1268C021FA
:4047800089040A431A60094B084A1268802109060A431A60FB1D1B78180000F01FFEC046BD4603B090BDC046080008400400084080B500AF064B1B68002B04D1FFF792FF54
:4047C000034B01221A60FFF7CFFFC046BD4680BDC401002090B585B000AF78600F23FC1800F0F8FD030023700A4B1B680A4A1A407B681B041343BB60064BBA681A600F2305
:40480000FB181B78180000F0E9FDC046BD4605B090BDC04608000840FFFF80FF80B582B000AF0200FB1D1A70034AFB1D1B781370C046BD4602B080BD73000F4090B583B09F
:4048400000AFFC1D00F0C6FD03002370174B1B680F2293433B60164B1B78DBB21A000F2313403A6813433B60104B3A681A60114B104A12681A60104B0F4A12680F490A40FC
:404880001A600C4B0B4A12688F21C9000A431A60094B094A12681A60FB1D1B78180000F09DFDC046BD4603B090BDC04600FF084060F1FF0F0800084004000840FFFFFEFFE4
:4048C00090B583B000AFFC1D00F084FD030023700B4B0B4A1268C02189000A431A60094B084A1268802109060A431A60FB1D1B78180000F073FDC046BD4603B090BDC04652
:40490000080008400400084080B500AF064B1B68002B04D1FFF792FF034B01221A60FFF7CFFFC046BD4680BDC801002090B585B000AF78600F23FC1800F04CFD03002370A8
:404940000A4B1B68FF2293431A007B681343BB60064BBA681A600F23FB181B78180000F03DFDC046BD4605B090BDC0460800084080B586B000AFF860B9607A603B6000236F
:404980007B61194B1B680422134025D1174B1B68042213401DD0154B1B680822134018D03B6804221A43124B1A60124B7A681A60114B00221A60114B00221A60104BBA680F
:4049C0001A60FB685A000F4B1A60074B00221A6004E008237B6101E004237B617B691800BD4606B080BDC046D801002004040440DC010020D4010020CC010020D0010020E2
:404A0000E4010020F001002080B586B000AFF860B9607A603B6000237B611A4B1B680422134027D1184B1B68042213401FD0164B1B68082213401AD03B6808221A43134BE7
:404A40001A60134B7A681A60124B00221A60124B00221A60114BBA681A60FB685B0001221A430F4B1A60074B00221A6004E008237B6101E004237B617B691800BD4606B094
:404A800080BDC046D801002004040440DC010020D4010020CC010020D0010020E8010020F001002080B500AFCE4B1B680F2B00D92AE29A00CC4BD3181B689F46CB4B1B6848
:404AC000002B00D11DE2CA4BC94A126804210A431A60C74BC64A126808210A431A60C54B04221A60BF4B01221A600AE2C24B1B68042213400ED0C04B1B680822134009D093
:404B0000BB4BBB4A126804218A431A60B54B02221A60F9E1B54B1B680422134003D0B54B02221A6002E0B34B01221A60B14B1B68042293431A00AF4B1A60AE4B1B688022FB
:404B400052001A43AB4B1A60A84B00221A60A54B00221A60D8E1A64BA54A126808218A431A60A04B03221A60CEE1A44B1B68072B25D8A34B1B688022134006D09C4B9C4A95
:404B8000126804210A431A6005E0994B984A126804218A431A609A4B1B685A00984B1A60934B934A126808210A431A60934B1B685A1C924B1A608B4B04221A60A4E18C4BBA
:404BC0008B4A126804210A431A60884B1B6810221A43864B1A60834B07221A6094E1844B834A126808218A431A607E4B03221A608AE17F4B7E4A126808210A431A607B4B49
:404C00001B680422134004D1784B1B681022134018D0794B1B680822134017D0734B1B68102293431A00714B1A60734B1B680422134003D06B4B09221A6007E0694B0822FF
:404C40001A6003E0674B08221A605DE15CE1684B674A126808218A431A606A4B1A686A4B1B689A4212D1614B1B680222134003D05C4B0F221A6047E15D4B5D4A12680421A9
:404C80008A431A60574B0D221A603DE15B4B00221A605E4B00221A70524B0B221A6033E1534B534A126808218A431A60504B504A126804218A431A604E4B1B6820221A435A
:404CC0004C4B1A60474B0D221A601DE1474B1B680422134054D04B4B1A684B4B1B689A423ED2464B1B68072B2BD8494B1A68454B1B68D3181B781900404B1B680722134008
:404D000080221A4113000B4006D0394B384A126804210A431A6005E0354B354A126804218A431A60354B1B685A1C344B1A60304B2F4A126808210A431A602A4B0C221A601F
:404D4000E1E02B4B2A4A126804210A431A602D4B1B685A1C2B4B1A60224B07221A60D2E0234B234A126808218A431A60204B204A126804218A431A601A4B0D221A60C2E0CF
:404D80001B4B1B4A126804210A431A601D4B1A681D4B1B689A4200D3B5E0184B1B68072B38D81A4B1B78DB18DAB2184B1A70104B0F4A126808210A431A600F4B1B680422FC
:404DC000134006D0114B1B7801221343DAB20F4B1A700A4B1B685A1C084B1A60014B0C221A6090E0E0010020B85C0000DC01002000040440D801002004040440CC010020A7
:404E0000F0010020D0010020D4010020EC010020E40100203F4B1A683F4B1B68D3183F4A12781A703C4B1B685A1C3B4B1A603A4B1A683B4B1B689A4209D13A4B394A126800
:404E400004210A431A60384B07221A605BE0354B344A126804218A431A60334B07221A6051E0304B2F4A126808218A431A602E4B0B221A6048E02B4B2A4A126808210A43AF
:404E80001A60294B0E221A603EE0264B254A126804210A431A60254B1B680422134006D0234B1B6802221A43214B1A6005E0204B1B6801221A431E4B1A601D4B1B68042215
:404EC00093431A001A4B1A60184B00221A60164B00221A6018E0134B124A126804210A431A60104B0F4A126808210A431A60104B08221A600D4B00221A600B4B00221A60CC
:404F000002E0C04600E0C046094B1B681800BD4680BDC046E8010020D0010020EC010020D401002000040440E0010020DC010020D801002080B500AF114B8022D2041A6001
:404F40000F4B0F4A12681A60002000F04FF80C4B0B4A12681A600B4B0C221A60012000F093F8094B31221A6096239B00180000F04DF8052000F05AF8C046BD4680BDC04684
:404F800080010540A4010540A801054090B583B000AFFC1D00F01EFA03002370094B094A126804210A431A60FB1D1B78180000F015FA1821042000F049F8C046BD4603B05C
:404FC00090BDC0460000054080B500AF064B1B78002B04D1FFF7AEFF034B01221A70FFF7D5FFC046BD4680BDF401002080B582B000AF7860044B7A681204120C1A60C046BB
:40500000BD4602B080BDC0468801054080B582B000AF7860044B7A681204120C1A60C046BD4602B080BDC0469401054080B582B000AF7860044B7A681204120C1A60C04632
:40504000BD4602B080BDC0468C01054090B585B000AF786039600F23FC1800F0BBF903002370084B79683A6891400A001A600F23FB181B78180000F0B1F9C046BD4605B0D9
:4050800090BDC0460800054080B582B000AF7860034B7A681A60C046BD4602B080BDC046B801054080B582B000AF7860034B7A681A60C046BD4602B080BDC046B001054030
:4050C00080B500AF00F058F8054B180000F012F8032000F01DF800F043F8C046BD4680BDE550000080B500AFFDF74AFBC046BD4680BDC04680B582B000AF7860034B88210E
:405100007A685A50C046BD4602B080BD0000002090B585B000AF0200FB1D1A701623FB600B23FC1800F056F9030023700A4B0A4A12680A491140FA1D1078FA6890400200B9
:405140000A431A600B23FB181B78180000F046F9C046BD4605B090BD10E400E0FFFF3FFF80B500AF034B8022D2021A60C046BD4680BDC04600E100E080B500AF034B80222F
:40518000D2021A60C046BD4680BDC04680E100E080B500AF094B802292041A60084B0D221A60022000F08AF8064B180000F04CF8002000F039F8C046BD4680BDC001054070
:4051C000E4010540FFFF000090B583B000AFFC1D00F000F903002370094B094A126808210A431A60FB1D1B78180000F0F7F81821082000F045F8C046BD4603B090BDC04678
:405200000000054080B500AF064B1B78002B04D1FFF7BEFF034B01221A70FFF7D5FFC046BD4680BDF501002080B582B000AF7860044B7A681204120C1A60C046BD4602B005
:4052400080BDC046C801054080B582B000AF7860044B7A681204120C1A60C046BD4602B080BDC046D401054080B500AF034B1B681B041B0C1800BD4680BDC046D001054089
:4052800090B585B000AF786039600F23FC1800F0A1F803002370084B79683A6891400A001A600F23FB181B78180000F097F8C046BD4605B090BDC0460800054080B582B090
:4052C00000AF7860034B7A681A60C046BD4602B080BDC046F801054080B582B000AF7860034B7A681A60C046BD4602B080BDC046F001054080B500AF00F056F8054B1800EB
:4053000000F012F8032000F01DF800F041F8C046BD4680BD1953000080B500AFFDF772FAC046BD4680BDC04680B582B000AF7860034B8C217A685A50C046BD4602B080BD73
:405340000000002090B585B000AF0200FB1D1A701E23FB600B23FC1800F03CF8030023700A4B0A4A126892009108FA1D1078FA68904002000A431A600B23FB181B781800D4
:4053800000F02CF8C046BD4605B090BD10E400E080B500AF034B802212031A60C046BD4680BDC04600E100E080B500AF034B802212031A60C046BD4680BDC04680E100E09A
:4053C0000230800804D0C0460138FDD1C046C046C0467047EFF3108072B6704780F310887047C04680B582B000AF00233B60BE4B1B68002B02D0BC4B1B689847BB4B1B68E1
:405400000122134002D0BA4B00221A60B94B1B78DBB220221340DBB2002B38D0B64B1A6880235B0013400AD0B44B1B889BB2C022920013439AB2B14B1A8001233B60AE4B09
:405440001B68012213400AD0AC4B1B889BB29022920013439AB2A94B1A8001233B603B68002B14D0A34B1B78DBB201221340DBB2002B01D0012300E00223A04A128892B28F
:4054800013439AB29D4B1A809A4B00221A70994B1B78DBB220221340DBB2002B00D1A2E1954B1B681022134018D0954B10221A60904B1B78DBB201221340DBB2002B01D03C
:4054C000012300E002238D4A128892B213439AB28A4B1A80874B10221A70BAE1854B1B78DBB208221340DBB2002B29D0824B1B68022213400ED0824B02221A607F4B1B88F9
:405500009BB28822920013439AB27C4B1A8001233B6015E0774B1B78DBB201221340DBB2002B03D0734B25221A7009E0714B24221A70744B1B68002B02D0734B10221A609B
:405540006C4B1B78DBB204221340DBB2002B00D111E1684B1B78DBB201221340DBB2002B5BD06A4B1B680822134033D0684B1A68684B1B680F211940674B1B68CB18D31A83
:405580007B607B68082B02D908237B601EE07B68002B1BD1614B614A126861490A401A6008237B6001233B6010E05E4B1A685A4B1B68D2185C4B1B68DBB21370564B1B6892
:4055C0005A1C554B1A607B68013B7B607B68002BEBD11EE04D4B1B680422134019D0514B1A684D4B1B68D2184F4B1B68DBB21370494B1B685A1C484B1A60474B1A68444B4F
:405600001B689A4203D2494B04221A6001E001233B60474B474A1A60ADE0374B1B680222134032D0364B02221A60434B1B680F221A40414B196880231B020B4001D00123F2
:4056400000E00023D2183D4B1B689A1A3B4B1A603A4B1A683A4B1A60284B1B889BB28422920013439AB2254B1A80364B354A1268802149020A431A60324B324A1268324916
:405680000A401A6001233B6075E0304B1B681022134065D013E0294B1A681A4B1B689A4214D22B4A2B4B1968244B1B68CB181B78DBB21360214B1B685A1C204B1A601E4B40
:4056C0001B680F221340082BE5D100E0C0461B4B1A680C4B1B689A4202D10B4B40221A601D4B1E4A1A6046E0AC0100208C0E0640880E06404C0200200C0F06406A020020DD
:40570000000F064064020020880F0640CC0F06406C020020080306405002002060000640FFFEFFFF5C0200204003064068000640C00F0640ED0F0000080206405402002012
:405740005802002004020640FFFFFEFF8C0F06404002064060020020800F0640F30700003E4B1B684022134005D03D4B1A683D4B1A6001233B603B68002B6AD03A4B3A4A3C
:4057800012683A490A401A60394B00221A60394B00221A60384B1B78DBB202221340DBB2002B15D0354B1B78DBB201221340DBB2002B01D0092300E00A23314A128892B200
:4057C00013439AB22E4B1A802C4B60221A7040E02C4B2D4A126820210A4001D0182200E010221A6035E0254B1B78DBB210221340DBB2002B2DD1254B244A126852005208E3
:405800001A601E4B10221A70174B174A126820490A401A60144B144A12681E490A401A60134B00221A60134B00221A601A4B1B4A1A601B4B1B4A1A601B4B1C4A1A601C4BD3
:405840001C4A1A60114B114A1268802109060A431A60C046BD4602B080BDC0468C0F0640540200205802002060000640FFFEFFFFC80F0640880F0640680200204C0200203E
:405880006A020020680006406400064000000640FF5FFFFFFFFCFFFF800F0640ED0F0000C00F0640F3070000400F0640FF0F0000000F06401703000003460B437FD400226B
:4058C00043088B4274D303098B425FD3030A8B4244D3030B8B4228D3030C8B420DD3FF22090212BA030C8B4202D31212090265D0030B8B4219D300E0090AC30B8B4201D385
:40590000CB03C01A5241830B8B4201D38B03C01A5241430B8B4201D34B03C01A5241030B8B4201D30B03C01A5241C30A8B4201D3CB02C01A5241830A8B4201D38B02C01AF1
:405940005241430A8B4201D34B02C01A5241030A8B4201D30B02C01A5241CDD2C3098B4201D3CB01C01A524183098B4201D38B01C01A524143098B4201D34B01C01A5241B3
:4059800003098B4201D30B01C01A5241C3088B4201D3CB00C01A524183088B4201D38B00C01A524143088B4201D34B00C01A5241411A00D201465241104670475DE0CA0F2B
:4059C00000D04942031000D34042534000229C4603098B422DD3030A8B4212D3FC22890112BA030A8B420CD3890192118B4208D3890192118B4204D389013AD0921100E0CB
:405A00008909C3098B4201D3CB01C01A524183098B4201D38B01C01A524143098B4201D34B01C01A524103098B4201D30B01C01A5241C3088B4201D3CB00C01A524183080D
:405A40008B4201D38B00C01A5241D9D243088B4201D34B00C01A5241411A00D20146634652415B10104601D34042002B00D54942704763465B1000D3404201B5002000F006
:405A800005F802BD0029F8D016E770477047C046014B18687047C046500100200E4B70B500251E000D4CE41AA410A54204D0AB00F35898470135F8E700F020F9084B0025DC
:405AC0001E00084CE41AA410A54204D0AB00F35898470135F8E770BD085D0000085D0000085D0000105D000003008218934202D019700133FAE770470000000000300F40FC
:405B0000000400400F40000402000F401C300F400C310F4039320F402D330F4002400F400C410F4005420F4007430F4002600F407301830F2E013401528058045B045C018C
:405B40005D105F01800182028C018E12900192029402960198019A0A9C019E06B004B203B410B608BA08D804DC03DF01050107020E160F80100218041D011E167002C0900A
:405B8000C2F0C4010F01370138083E04580459045C305F01860187028B049608970298049D01A007A104A407A901B008B201B302B402B504B604B701B980BF44C020C1066A
:405BC000C5D1C650C702C81FC9FFCAFFCBFFCDA0CF04D018D407D804D904DA04DB04DC11DD11DF01E040E2C0E440E540E6C0E8C0EAC0ECC0EEC000040A040B2010A0194215
:405C00001A041B041D082294270229022B043008324038043B203F804004482849015088531059415A286A8083408A808D0890049F02A508A740B108B610C004C206C40C84
:405C4000CA05CC0ACE16D004D204D60FE280E6100E08C2800A404A0453045B2082408B048F20A204C210D210D4A0E0205E0470087440D601DC0376049A04B048B204B60460
:405C8000DC02EC0C100A1101030405060708090A0B0C0E0F101112131415161718191B1C1D1E1F2021222325262728292A2B2E2F3031323334350000BC4A0000EC4A0000B6
:405CC000564B00006A4B0000DE4B0000084F0000084F0000F24B00004E4C0000A04C0000084F0000CC4C0000624E0000764E00008A4E0000D64E000043000000F8B5C046DF
:405D0000F8BC08BC9E4670474123000039310000F8B5C046F8BC08BC9E46704719230000305D0000D000002088000000280100000000000001000000006CDC0280BB0000CC
:405D4000300000000000C05D01000000040404000000000000000000000000000000000000000000000000000000000000000000F85C000000000000000000000000000075
:405D8000000000000000000000000000000000000000000000000000000000000000000000000000000000000000000000000000F0000020000000000000000000000000D3
:405DC00000000000000000000000000000000000000000000000000000000000000000000000000000000000000000000000000000000000000000000000000000000000A3
:405E00000000000000000000000000000000000000000000000000000000000000000000000000000000000000000000000000000000000000000000000000000000000062
:405E40000000000000000000000000000000000000000000000000000000000000000000000000000000000000000000000000000000000000000000000000000000000022
:405E800000000000000000000000000000000000000000000000000000000000000000000000000000000000000000000000000000000000000000000000000000000000E2
:407FC000E1112000003F000000003E0000000000000001000000000000000000000000000000000000000000000000000000000000000000000000000000000000000000F1
:0200000490303A
:020000006F4649
:0200000490402A
:20000000FFFFFFFFFFFFFFFF000000000000000000000000000000000000000000000000E8
:0200000490501A
:0C000000000204B61193110104D280D953
:0200000490600A
:0100000001FE
:00000001FF