:400000000010002011000000AD010000AD01000010B500F021FA00F0D1F8C04670B5124C23688022D20213432360182000F078FE22680E4B134023600D4A0E4B1A60102284
:400040000D4B1A6080231B060C4A1360002525600B4A13600B49092000F0FCFD092000F0D9FD094B1D6070BD00010B40FFFFFBFF0600008004010B400C02024008010B409E
:4000800000000240310F00000C020B4010B572B600240FE01A486200131959000B00411889881A5AC31858880004104300F078F80134E4B2012CEDD9124A134B1A60992313
:4000C0001B04124A1360124A1360124A1360124A117806230B43DBB21370104B06221A6002320F4B1A60C02212010E4B1A6003220D4B1A600D4A0E4B1A60FFF78FFF10BDC9
:40010000F4170000EEEE00000C00014000500F4010500F4030500F4000700F4008000440000104400801044000030440A40D00000803044010B5064C2378002B07D1054B85
:40014000002B02D0044800E000BF0123237010BD5001002000000000F0170000084B10B5002B03D00749084800E000BF07480368002B00D110BD064B002BFBD09847F9E7BD
:400180000000000054010020F0170000C80000200000000010B562B600F0F8FBFEE7C04610B50A00002101F016FB10BD10B501F0DDFA03680C2B00D1FEE7FEE770B50F4E25
:4001C0000F4D13E029686B68AC68002202E001C901C30432A242FAD1E868002202E0002102C304328242FAD11035013E002EE9D101F0C2FAFFF7CEFFFEE7C04601000000FA
:40020000E418000010B500230AE0032B03D89A000C49505800E00C4899000C4A885001332F2BF2D9FFF732FF094B1B68002B02D10022074B1A608022D205116801230B43AE
:40024000136010BD00000000AD01000000000020C0000020002306E04218013A12789B189BB2013989B20029F6D1584280B2704730B5002307E01C182478E4B2CD5CAC4214
:4002800005D101339BB29342F5D3002000E0022030BDC0460047C04610B58022024B1A6000F010FD10BDC046C0000020F0B583B00D006B469E1DDA8001230B7048701400F4
:4002C000AA70130ACB70171DB9B22800FFF7C2FFE855631D000AE854A31D1722EA540734A1B296233200280000F004FF03B0F0BD70B505000E001400002802D0002000F08A
:40030000A7FC002005E0013CAB19E3181B781818C0B2002CF7D170BD10B50C2863D88000404B1B589F464B06591ACB013E4A9446634401225CE04B06591ACB013B4A944645
:400340006344042254E04B06591ACB01384A9446634402224CE04B06591ACB01354A94466344042244E04B06591ACB01324A9446634401223CE04B06591ACB012F4A944610
:400380006344012234E04B06591ACB012C4A9446634402222CE04B06591ACB01294A94466344022224E04B06591ACB01264A9446634402221CE04B06591ACB01234A944684
:4003C0006344042214E04B06591ACB01204A9446634401220CE04B06591ACB011D4A94466344042204E0002000F032FC02220023012A02D11878C0B200E00020022A03D1AB
:400400001978587800020843042A09D11A785878000210439A7812041043DB781B06184310BDC04600180000C07F0000C17F0000C57F0000C97F0000D07F0000D17F000070
:40044000D67F0000D27F0000D47F0000D87F0000DC7F0000E07F000010B50D4B1B68DB0602D400220B4B1A600A4B1B68802B0ED10022084B1A6000210220FFF74DFF00282B
:4004800005D000210220FFF747FFFFF703FF10BD00030B40C000002070B5050001000320FFF73AFF441CE40129000420FFF734FF241829000320FFF72FFF421CD2010023BD
:4004C000002608E01078411EC9B2FD2900D801261B18DBB20132A242F4D35B42DCB229000120FFF719FF844203D1002E03D1062002E0062000E0002070BDC046F0B55F46FF
:4005000056464D464446F0B4CC4CA544050000F09FFD62B600239A4698460A240027002D01D1FF2300E02B00C54A02A98C4662449621490052A800F0A7FD002D01D0013C57
:40054000E4B2002C01D00028E9D1002800D00AE2BB4B02AA944663441B88062B24D952AA1278012A22D152A9CA78120289780A431700110007329A421AD896235B009A42BC
:4005800018D87A1D52AB9E5C3202381D1E5C164306315B5C172B0FD181B252A8FFF75AFE86420BD100260AE0042608E0042606E0032604E0032602E0042600E00826002E82
:4005C00000D077E152AB1A7993465A781300313BD9B2142900D93DE18B009A49CB589F464346012B00D067E1002F00D067E10020FFF752FF4342434152AA13710122ABE131
:400600004346012B00D05DE1032F02D0832F00D05BE152AA93791B02527913439946032F08D0FA1E4821FF3102AB9C46614407A801F0C8F85B46002B00D049E11802484455
:40064000C0014B46FF2B00D90A26002E00D042E1802207A9FFF70CFE060000227CE14346012B00D039E1012F00D039E15B46002B00D038E1744B1B681B68DA0BD2B2934589
:4006800003D1DB09FF22134005E0934501D9002301E080235B0052AA13711B0A5371FF2393710023D371042256E1342A0DD14346012B00D01AE1032F00D01AE14C320021CA
:4006C00007A801F088F880239A464346012B00D012E1022F00D812E107A85044FA1E4821FF3102AB9C46614401F06CF83B0053449BB2832B00D005E152AA93791B025279F3
:4007000013439A46FF2B00D90A26002E00D0FFE05B461802504480B24B4B1B681A68D3099BB2520601D001339BB2834200D9F2E007A900F05DF9002800D1F2E000239A4650
:4007400080270A26002207E14346012B00D108E10426002200E14346012B00D0E6E05346FB1896225200934200D9E2E007A850443A0053A901F026F85346FB189BB29A462A
:400780000022E9E0002F00D0D6E004AA2F4B03CB03C253AA04AB03CB03C200239A46013398460822D8E04346012B00D0C7E0032F00D0C7E052AA93791B02527913439946AE
:4007C0005B4619024944C9014B46FF2B00D90A26002E00D0B9E080220020FFF789FD030001905A4612024A4492B25946002911D1FF2A0FD10520FFF78FFDC0B2019B1B1A96
:40080000DBB2994600210620FFF786FDC3B24A46D31ADBB25B4252AA137101229CE00020FFF73AFE002802D18022094B1A6000F027FC00F047FA042600228DE084FDFFFF1C
:400840006E02000034180000CC00002088180000C00000204C4B1E68002E78D04346012B78D102AB1A705F8053AB03930C22002104A800F0B0FF04AB9B4653AA069219003D
:4008800002A8B0475B469A882623FF339A4203D953AB0699994207D0069B002B01D1002A05D1049BDEB257E00E26002254E00E26002251E000224FE0042600224CE004264A
:4008C000002249E00426002246E00426002243E00926002240E000223EE0042600223BE00426002238E00426002235E00426002232E0042600222FE0042600222CE00426B4
:40090000002229E000239A4680270326002223E08027002220E000239A4680270A2600221AE000239A468027002215E00426002212E0032600220FE0042600220CE004263A
:40094000002209E00426002206E0002204E00526002201E00526002252A93000FFF7A6FC01E000239A46002D00D1D8E54346012B00D1D4E59F239B009D443CBC904699462D
:40098000A246AB46F0BDC0466C01002010B50020FFF782FD002801D0062200E00022094B1B68402B01D0002A05D00022054B1A600020FFF7A3FD1E20FFF7A0FDFFF76CFCBE
:4009C00010BDC046C0000020024B1A68024B1A600020704708010B4070010020024B1A68024B1A60002070477001002008010B40F0B5474680B4A6B005000023259324934D
:400A0000FF2800D9EFE0002900D1ECE0802204A800F0D8FE022300200021002408E09A0002AE9259002A02D0891810431C000133212BF4D9002903D1002803D1002602E00C
:400A4000002600E00126002E06D0A30002AA9F58002202A95A5000E00027664B02937F230393654B02AA1A606449654A1160C0461B681B0F1B07F0221206934204D15E4B0E
:400A80001B68FF2213400DE05B4B1B681B0F1B07A0221206934204D0574B1B68FF22134000E000232593259B002B00D09DE000F09DFA0190FFF788FF2490259B002B25D1A4
:400AC000504A029202992A040A4302924A4A02A911604D484A490860C0461268120F1207F02109068A4204D1434B1B68FF2213400BE0414A1268120F1207A02109068A4218
:400B000003D03D4B1B68FF2213402593259B9846002B59D1002E57D08022002104A800F05AFEA40002ABE750324B02937F230393314B02AA1A603149314A1160C0461B6849
:400B40001B0F1B07F0221206934205D12A4B1B68FF221A4090460CE0274B1B681B0F1B07A0221206934204D0234B1B68FF221A40904643462593259B002B25D1234A0292F6
:400B8000029A2D04154302951B4A02A9116020481B490860C0461268120F1207F02109068A4204D1144B1B68FF2213400BE0124A1268120F1207A02109068A4203D00E4B30
:400BC0001B68FF2213402593249B002B07D1FFF705FF2490249B002B01D0249B2593019800F008FA01E004232593259826B004BC9046F0BDB6D7000008000040040000802A
:400C000004000040B6D8000005000080B6D90000060000801F2318401E3B8340014A13607047C04600E100E01F2318401E3B8340014A13607047C04680E100E01F2318404A
:400C40001E3B8340014A13607047C04680E200E001BE704770B504000D001F2802D90020FFF7F6FF1034A40080239B059C4664442068256070BDC04670B504000E0003296A
:400C800002D90020FFF7E4FF1F2C02D90020FFF7DFFF03252540ED00063500F0A7F9A408A400074B9C46644421680323AB4099430B003100A9401943216000F09BF970BDAC
:400CC00000E400E0034A13681B041B0C02490B43136070470CED00E00400FA0510B5040006E0084B586800F077F9074B9C46644480231B029C42F4D8024B9868604300F03B
:400D00006BF910BDD40000200080FFFF10B5034B1B7B584300F060F910BDC046D4000020F0B557464E46C0B483B0040000F05EF90190E71E2D2F74D83F4B1B78DBB29C422E
:400D400008D83E4B1B78DBB29A463D4B1B78DBB2994631E03B4B1B78DBB29C4208D83A4B1B78DBB29A46394B1B78DBB2994623E0374B1B78DBB29C4208D8364B1B78DBB202
:400D80009A46354B1B78DBB2994615E0334B1B78DBB29C4208D8324B1B78DBB29A46314B1B78DBB2994607E02F4B1B78DBB29A462E4B1B78DBB299462D4BDE5D2F2E09D9C0
:400DC0002A2C07D919222B4B1A60052000F004F9192503E0274B1D683F231D40B54206D9234BDA5D234B1A60052000F0F5F81F4B9C4664442378DBB21F4A13601F4B52464A
:400E00001A601F4B4A461A600520FFF77FFFB5420AD2174BDA5D174B1A60052000F0DCF802E00020FFF714FF019800F0E3F803B00CBC91469A46F0BDC0F1FF0FC1F1FF0F2D
:400E4000C2F1FF0FC3F1FF0FC4F1FF0FC5F1FF0FC6F1FF0FC7F1FF0FC8F1FF0FC9F1FF0FCAF1FF0FCBF1FF0FCCF1FF0FCDF1FF0F901800002CFF0B4028FF0B401CFF0B402E
:400E800020FF0B40034B1868C0231B02184000D00120704700010B4010B500F0A7F8044A1368C02109020B43136000F0A3F810BD00010B4010B500F099F808490A68084BE4
:400EC0001A408024E40122430A600A6813408022120213430B6000F08DF810BD00010B40FF3FFFFF70B5050000F080F80400FFF7C9FF002803D0FFF7DDFF012100E00021F6
:400F000008482840084A1568084B2B40184310601368012901D1FFF7BFFF200000F06AF870BDC0460404040010020B40FBFBFBFF10B5244B1B685B0715D5234B1B685B0722
:400F40000ED5224BD969042001401F4C22688A432260DA698243DA611B69002B00D098470420FFF7BFFF174B1B685B0518D5164B1B685B0510D5154BD9698022D2001140FB
:400F8000114802688A430260D969114A0A40DA615B69002B00D098478020C000FFF7A2FF084B1B685B030CD5074B1B685B0304D5064B9B69002B00D098478020C002FFF7E0
:400FC00091FF10BD10020B40E800002074010020FFFBFFFF000000000230800804D0C0460138FDD1C046C046C0467047EFF3108072B6704780F310887047C0460F4B1B6848
:401000005B0619D50E4B1B68DB060BD50D4B1B68002B11D00C4A136000230C4A1360094A136009E0094B1A68074B1B689A4203D0054B1A68054B1A607047C0464C0F074024
:4010400064000740940100203C0200202802002010B5094C201D402100F082F820004430002100F05FF8054800F0D4F80023236000F0AAF810BDC04694010020FD0F000075
:4010800010B500F0B1F810BDF8B507000E001500002825D0002925D09A00D3185C001BE0114B1B78DB0613D5104B1A682A8000220D490A701A602B88321C9E4200D91A1C7C
:4010C00092B20B490431380000F07CFB00200AE00120FFF703FE013C002CE1D1102002E0012000E00120F8BD30020020200200209401002070B50C0000280DD000290DD0D9
:401100001180074D2B0044330A000100180000F059FB2C60002002E0012000E0012070BD9401002070B504000D0000280ED00B20FFF77AFD064B1C60064B1D600023064A4D
:401140001360064A13600B20FFF764FD70BDC0462C0200203C020020280200202402002070B504000D0000280CD00B20FFF75CFD054B1C60054B1D600022054B1A600B20E4
:40118000FFF748FD70BDC04638020020340200202002002010B50B20FFF73CFD10BDC04610B500F0C7F810BD10B500F057F810BD10B5044A1368802109060B431360FFF7D6
:4011C000E9FF10BD0000074010B5064B1B78002B04D1FFF7E9FF0122024B1A70FFF7E8FF10BDC0461802002010B50B20FFF71CFDFFF7D6FF054A13685B005B0813600022A1
:40120000034B1A600B20FFF719FD10BD00000740880F0740014B58607047C046180200200A4B1B68DB050DD5094B1B685B0409D4064B1968074A0A401A601A6880214900C2
:401240000A431A600222044B1A6070470000074060000740FFFEFFFF6C00074010B51E4A11680C230B43136000241C4B1C601C4A1C4B1A601C4B1D4A13601D4A14601D4901
:401280001D4A11601D4A13601D4B1C600B20FFF7CBFC03210B20FFF7EFFC1A490B20FFF7D9FC194B1C60194B1C604C22FF32184B1A60184B1C60184B1C60184B1C603C3AD8
:4012C000FF3A174B1A70174B1C70174B1C60174B1C60174B1C7010BD700007400000074077080040600007400701008000030740040307404400FE001003074000020740FB
:401300000402074041130000C80E0740880E0740480F0740080F0740C80F0740880F074041020020300200202802002020020020400200201022014B1A7070474102002055
:4013400010B5C54B1B68002B00D09847C34B1B68DB0702D50022C24B1A60C24B1B789B0622D4C14B1A680223FF331A421CD0BD4B1B78DB070AD5BD4A137802218B43137082
:40138000117809230B43DBB213700AE0B74A137820218B431370117870235B420B43DBB213700022AF4B1A70AE4B1B789B0600D5BDE1AC4B1B78DB0600D491E1AA4B1B688C
:4013C0009B0740D50222AA4B1A60AA490B680D321A40096880231B020B4000D001239B18A54A1278D2B2934206D2A04A117804230B43DBB2137006E09F4A12789B1A9F49E9
:401400000A68D31A0B609D4B1A689D4B1A6000239C4A1360984A13709B4B1A68802149020A431A601968994A0A401A608F4A137802218B431370117801230B43DBB213700F
:401440001022884B1A70884B1B681B0739D50822874B1A608E4B1B689B040CD414E08D4B1A688D4909688A188C490968C9B211701A6801321A608A4B1B681B07EFD1844A56
:401480001168884B0B401360874B1B689B0605D5764A117840230B43DBB213700022834B1A60834A804B1A60704A137820218B431370117810230B43DBB21370694B1022F5
:4014C0001A70694B1B685B0643D50122794B1A60794B1B68DB0610D50F326A4B1A60684B1A68664B1A60614A117802230B43DBB2137012225B4B1A7025E0704B1B68654A67
:4015000012689B1A072B03D80422684B1A6011E0082B06D15E4A1368A02109020B43136008E05B4A1368802189010B43136008225E4B1A604D4A117820230B43DBB213706F
:401540001122484B1A705E4A494B1A6001225D4B1A605D4B1B681B072AD5584B1B684D4A1068181A0838082802D9002408200EE001240CE0474B1A68474909688A18474990
:401580000968C9B211701A6801321A6001380028F0D1002C08D03E4A1368802109020B4313600022414B1A6008223F4B1A6024E0454B1B685B0720D5384B1B68354A116837
:4015C0003E4A126891420DD201213E4A1160314A1168314800684118DBB20B7013680133136007E0FFF71CFE204A117840230B43DBB2137004222C4B1A60344B1B68DB061F
:4016000020D494E01D4B1A68314B1B689A420CD21A4B1A682F4909688A181278D2B22E490A601A6801321A600CE0FF222A4B1A60114B1B78DBB20A2B04D80F4A137801336E
:40164000DBB213700B4B1B680F221340082BD9D10132224B1A606AE01C0200208C0E0740880E0740410200204C0F074030020020400F0740080207404002002024020020DA
:4016800028020020880F074004020740FFFFFEFF6000074020020020380200204003074008030740FF5FFFFFC00F0740C80F0740ED0F0000800E0740640007403402002039
:4016C000FF0F00006C000740CC0F07408C0F07403C0200202C02002040020740800F0740134A13685B005B0813601021114B1970114B1868114901401960186810490140F1
:40170000196000230F490B600F490B600F49104B19601049104B19601049114B19601149114B19601368802109060B43136010BD000007404102002060000740FF5FFFFF6B
:40174000FFFCFFFFC80F0740880F0740ED0F0000800F0740F3070000C00F0740FF0F0000400F074017030000000F0740014B18687047C0464C0100200E4B70B500251E00C7
:401780000D4CE41AA410A54204D0AB00F35898470135F8E700F094F8084B00251E00084CE41AA410A54204D0AB00F35898470135F8E770BDCC180000CC180000CC180000E3
:4017C000D4180000002310B59A4203D0CC5CC4540133F9E710BD03008218934202D019700133FAE77047000080190000D30000000000000000300F40000400400F4000042A
:40180000E60300002603000036030000460300005603000066030000760300009603000086030000A6030000B6030000C6030000D6030000E00500005E060000540800000E
:40184000AA06000048070000540800005607000084070000AA060000A60700001E0800005408000054080000540800005408000054080000540800005408000054080000C2
:4018800054080000000600009311B604113C0101030405060708090A0B0C0E0F101112131415161718191B1C1D1E1F2021222325262728292A2B2E2F3031323334354300E6
:4018C000F8B5C046F8BC08BC9E4670475D01000005020000F8B5C046F8BC08BC9E46704735010000F8180000C800002088000000F80000000000000000000000E81700004A
:40190000EC170000010000000000E02EC05D00001800000000366E01040404000000000000000000000000000000000000000000000000000000000000000000BE180000D9
:40194000000000000000000000000000000000000000000000000000000000000000000000000000000000000000000000000000000000000000000000000000EC0000205B
:401980000000000000000000000000000000000000000000000000000000000000000000000000000000000000000000000000000000000000000000000000000000000027
:4019C00000000000000000000000000000000000000000000000000000000000000000000000000000000000000000000000000000000000000000000000000000000000E7
:401A000000000000000000000000000000000000000000000000000000000000000000000000000000000000000000000000000000000000000000000000000000000000A6
:401A40000000000000000000000000000000000000000000000000000000000000000000000000000000000000000000000000000000000000000000000000000000000066
:407FC000000000000000000000000000000000000000010001000000000000000000000000000000000000000000000000000000000000000000000000000000000000007F
:0200000490303A
:02000000F04DC1
:0200000490402A
:20000000FFFFFFFFFFFFFFFF000000000000000000000000000000000000000000000000E8
:0200000490501A
:0C000000000204B61193110104BE01E0DF
:0200000490600A
:0100000001FE
:00000001FF