:400000000040002011000000B1070000B107000010B500F0D5FBC046F0B5474680B472B60122714B00211A7080227048D20002F0E5FB80220021D2006D4802F0DFFB1C23E9
:4000400098466C4DE333A84400279C464646634628682A789843002A0ED0013A791CD2B27B0057187C00F31834191A7859781218023311709C42F8D104354545E7D15E4A75
:400080005E4BAA211A605E4A5E4B09061A60C0235D4ADB0513605D4A1026136099235C4A1B0413605B4A032411605B4A5B4913605B4A302013605B4A0025136001235A4AF1
:4000C00013605A4A13603C220B789343283A13430B701623564A11780B431370FF22554BD8211A60544A554B49001A603023544A1360544A1160544A13604922534B1E6019
:40010000534B1A60534B544A1E60544B1C60544B1A608023534A1360534A1360534A544B1A601222534B1A6000F0E4FE524A534BBC211A60C022524B92001A60514B524ACE
:4001400089011A60514A07201560514A1A60514A1160E821504A49011A60504A1160504A50491A608222504B12061A6080224F4BD2021A6041224E4B1A604E4B013A1A60E5
:400180004D4B03321A604D4B013A1A6000F0FEFE072000F029FF4A4B81201D60494B4A4A1C604A4B4A491C6080231B061360494A40001460484A0A604849086048490B6016
:4001C00048490C6048490A604849494A1160494A49491360494A1660494A15600A6813430B6004BC9046F0BD1C700F4000300F4000400F4010280000333333330000024024
:40020000EEEE000000030240000402400005024000500F4008500F4010500F4001700F4020500F4030500F402000104000800F4000700F4000000440B66DDB000800044041
:40024000000104400801044018010440000204400802044018020440A40D000000030440080304400004044018040440B06D000008050440300010400600008004010B40EA
:40028000040301400000014041FF00800003014040FF00800C03014043FF00800803014042FF00803510000008010B4000010B40300101402C010140280101400C01014056
:4002C0000C020B4000210240000030400421024080003040300030400140200088003040000031403000314080003140104020008800314000003A4080033A4000033A4022
:40030000000E3F4010B5064C2378002B07D1054B002B02D0044800E000BF0123237010BD50010020000000000C280000084B10B5002B03D00749084800E000BF074803680B
:40034000002B00D110BD064B002BFBD09847F9E700000000540100200C280000C00000200000000010B5012000F008FC0122034B1A705A6801325A6010BDC0466C01002041
:40038000F0B5474680B4594C01206579012600F06BFC0022564BEDB29A601E73280001F08BFB02F08DF9534A534B01F0D9FE534A534B01F0BFFB0022524B01F0BBFB524BC5
:4003C000002201F0CDFE02F045F9050000F088FA280000F061FFE3781E4200D06DE0E3789B0700D572E0E3785B0700D577E0A379002B0ED0012304269846237900250227E0
:400400001E424ED123791F4252D1424623791A423AD1062000F050FF00F094FA062000F02BFC00F057FC062000F05EFC042500F089FC0226012723791D4219D123791E42F0
:400440001DD123791F420CD1E178E378E278120953400F22134091430B43E37004BC9046F0BD00F079FC0028EED023791D42E5D000F07AFC0028DED123791E42E1D000F0E7
:400480007BFC0028DDD0D6E700F066FC0028C0D06423A279013553439D42BADA23791E42B0D000F061FC0028F2D123791F42ACD000F062FC0028A8D0EAE7002000F0DCFB75
:4004C00000F0E6FBE3789B0700D48CE7002000F00BFC00F015FCE3785B0700D487E7002000F0EAFE00F00CFA81E7C046880300206C0100209A9999999999C93F6132553085
:400500002AA9633F000024400000E03FF8B54F4646460400C0B4002000F0B6FA0100002000F0C0FAFA2103012C4E1D1AF7796D0089002800FFB201F0D3F9874201DDC0B20D
:40054000F071FA22264F641BBB689200E018B860737A053B5343984203DD707A05385043B860002836DB1F4B9846196801F0B8F9434681465968200001F0B2F9737A48440C
:4005800004009B00984201DD747AA400002C1EDDE3B233725A237372134B1449E81801F09FF937308000844200DD0400200000F05BFB3B690E4A990001338C50642B00D152
:4005C000002328003B610CBC90469946F8BD01230124DEE700230020BB60C4E7880300206C010020C400002020D1FFFF7E040000F801002010B5104C23795B070DD4237989
:400600009B0711D42379DB0700D410BD00F0A4FB0028FAD0FFF7B4FEF7E700F0A5FB0028F8D123799B07EDD500F0A6FB0028E9D0FFF7A6FEE9E7C04688030020F8B54F46BD
:400640004646C0B462B600F0C9FA00F009F900F0E3FD00F081F900F00DFA00234F4D6B701033AB700B3BAB71043BEB702B7103336B713E336B723C3BAB725E33EB7200F02A
:4006800007FBC82000F02CF9062000F0F5FA062000F02AFB102000F023F9102000F0FCFD062000F0E9FA00F015FB062000F01CFB00F048FB062000F0FFFD00F043F900F01F
:4006C0004BF900F021FA00F061FA354800F080FA0A23002233498B5402330132DBB2202AF9D100F05BFB00F077FB2A001021202000F066FE00F0ECFD2A001021202000F0CB
:400700005FFE294BFA27994601235B42274C00269846BF0003E02879C0B201F017F82378002BF8D026706B78002B1BD0237B002B18D1AB7860697B43834202DAA878784306
:400740006061AB787B43834209DDEB7AC0186061AB787B43984202DDA87878436061FFF7D5FED8E7012000F07FFA002000F08CF90100002000F096F90301181A400060617A
:40078000494640462369A6609A00013326738850642B01D02361BEE72661BCE78803002065030000D8010020F80100206C01002010B501F0F7FF03680C2B00D0FEE7FEE706
:4007C000F8B5104E002E18D000200F4DA9682C686A68002905D00023E758043380C29942FAD1E9680023002903D0D05004339942FBD1013E1035002EE8D101F0D9FFFFF7CE
:400800001DFFFEE701000000B02900000121104A70B513680F4C8B4313600F48002200230E4D04E00133A1500432302B08D00100032BF7D851590133A1500432302BF6D197
:40084000FFF7EAFB0123024A11680B43136070BD0000104000000020B10700000000000070B5194C2368002B1DD10F2500F07DFF1649174B0A681B78AA432B401343154AFD
:400880000B60136814491360144B1D682940802519601168ED00294311601A681A6000F068FF0123236000F060FFC021094A890013680B4380211360084A090613680B43C7
:4008C000136000F056FF70BD8401002000FF284060F1FF0F08002840FFFFFEFF0400284010B5040000F041FFFF21044A13688B431C43146000F03DFF10BDC04608002840DF
:400900000C4A1379002B0CD180200B49033300061360086004200949086009490B60023B137113688022054912010868034313430B6070478801002000003140040031402B
:40094000080F3140024A034B11680B401360704704003140FCF7FFFF70B52C4C2378002B11D02B4B1B68002B0CDB2A4A1368002BFCDB8021264A090613680A200B4313603B
:4009800000F048FB70BD0221102000F00BFB2249102000F0FBFA0122204B1A60204B1B68002B30DB1F4B1A4A8020116840020B4313601D4A1D4B1E491A601E4A1E4B1A60FD
:4009C00000231E4A13601E4A0A601E490A601E490A6802430A6001211C4A1D4813601D4A13601D4A116005681C4A2A408025AD052A4302601A4A13601A4A217013801A4A96
:400A00001A4B1A60ADE71A4BCDE7C0468D01002000003A4008023A40FD0A000020003A4080033A4070020053CC00008004003A4010003A400000FF0718003A401C003A4093
:400A40000200020014003A4000033A4028023A4030003A4038023A4018023A40FEFFFFDF80003A40AC0300203E180000A8030020700210538021034A490213680B431360C2
:400A80007047C04604003A4010B5002803D1044B186800B210BD002000F0BAFA0020F9E780013A4070B505000C0000281CD1104A6B00995A0F48611A09B2484300290BDD01
:400AC0000D49AD004A59D30F9A1853104959181800F006FF00B270BD0749AD004A59D30F9A1852105342F1E7002000F091FADEE7AC03002010270000A8030020014B1A68B1
:400B00001A60704710023A4010B5134B1A78002A0FD180201149800408600C201049114C08600121104801601048046010480260197000F01AFE02230E4A11680B43136070
:400B400000F017FE00F011FE80220B4B92041A6000F00FFE10BDC0468E0100204001204064012040881300007801204054012040480120400000204008002040014B186026
:400B80007047C046700120407047C04610B580240A4B64031C60902309490A4AD15000F0E4FDC02208490B689343403A13430B6000F0DFFD054B1C6010BDC04680E100E09B
:400BC000890B00000000002014E400E000E100E09023014AD05070470000002010B5184A1178002919D18020164BC004186018681860154801601968312019600C21134B27
:400C00001960012312490B601249086012498830FF30086011490B60137000F0A6FD01230F4A11680B43136000F0A3FD00F09DFD80220C4B52041A6000F09BFD10BDC04614
:400C40008F0100200001204008012040240120403801204028012040140120400C0120400000204008002040024B0004000C18607047C0460C012040034A044B1168800114
:400C80000B40184310607047080104403FFEFFFF0C4A1379002B0CD180200B49033300061360086004200949086009490B60023B1371136880220549120108680343134304
:400CC0000B607047900100200000304004003040080F3040024A034B11680B401360704704003040FCF7FFFF034A044B116840020B4018431060704708050440FFF1FFFF66
:400D00000C4A1379002B0CD180200B49033300061360086004200949086009490B60023B137113688022054912010868034313430B60704798010020000031400800314013
:400D4000140F3140024A034B11680B401360704708003140FCF7FFFF0120024B1B6818407047C04604020440024B18684007C00F7047C04604020440024B18688007C00F90
:400D80007047C04604020440012210B5024B1A60FFF730FC10BDC04680E200E010B50124084B094A1C60094B1A6400F0DEFCC021074A13688B43136000F0DBFC054B1C601D
:400DC00010BDC04680E100E0890D00000000002000E400E000E100E00122014B1A60704700E100E070B582B000F0BFFC364D04000022364E3F2002E001322E2A41D02B68A4
:400E0000B15C03408B42F7D18021C9018C46304B033253436344DB0B591E2E4B1B68DB0635D02D4B18682D4B03400B43192A3CD92B495118B218907DA02209785203134369
:400E40004218FF2A34D892051A43234B254D1A602B683020019300F08FFC8021224AC90513680B431360214B186883001818800000F072FC019B20002B6000F07AFC02B0B0
:400E800070BD144B1B68DB0614D15B2103221F20104D2B688343133803432B600E4B18680E4B03400B43192AC2D8114A1A43CCE7FF22C8E7084B1A68084B13405B22134382
:400EC0000B4A1A43C1E7C0462CFF0B40C028000040420F0034FF0B400800224000F800C0CDF1FF0F3000104000002240CC0000200000D43F30B587B0050000F036FC194BAF
:400F000004001A68520020D40022174B174819684019029116490338096802AB03910178144804911449096805911449009169460193134B1960134908601B68012A0AD027
:400F4000200000F016FC07B030BD19680E4A0A401A600122D9E700F067F80028F0D0FFF741FFEDE70000224008010B40C028000000010B401700008030001040B6EA000049
:400F80000800104004001040FFFFFFBF1F2800D901BE034B8000C318186819607047C04640000020F8B504000E00032900D901BE1F2C00D901BE032700F0D7FB3D00094B48
:400FC00025409C46A408A40064442168ED000B0031000635AF40A940BB431943216000F0C8FBF8BD00E400E01F2318401E3B8340014A13607047C04600E100E01F2318405A
:401000001E3B8340014A13607047C04680E100E001BE704710B5034B1B7A584300F09CFB10BDC046CC000020014B1868C00F704700002240714B70B51A680423134225D051
:401040006F4A51680B420CD06E494C6A50681C40A04350604A6A9A438B694A62002B00D09847C02500F081FB674C2D02236806002B4200D0A0E0614B644A19680A400421EB
:401080000A431A601B68300000F073FB5B4B1A688023DB001A4226D0594A516819420DD058494C6A50682340984350604A6A584B13404B62CB69002B00D09847C02600F094
:4010C00054FB514C360223680500334252D14B4A4E4B11680B408021C9000B4313601368280000F046FB454B1A688023DB021A421DD0434A52681A4204D0424B1B6A002B24
:4011000000D09847C02600F030FB3F4C36022368050033420CD1394A3C4B11680B408021C9020B4313601368280000F022FB70BD00F01BFB80212268364BC9011A400A435F
:40114000226022681340802212021343236000F010FB2A4A2D4B11680B408021C9020B431360136800F001FB23681E43266000F000FBD9E700F0F9FA80212268254BC901DD
:401180001A400A43226022681340802212021343236000F0EEFA194A1C4B11680B408021C9000B431360136800F0DFFA23681E43266000F0DEFA93E700F0D7FA8021226825
:4011C000144BC9011A400A43226022681340802212021343236000F0CCFA084B0B4A19680A4004210A431A601B6800F0BEFA23681D43256000F0BDFA45E7C04610020B404B
:40120000E0000020A001002000010B40FBFBFBFFFFFBFFFFFF3FFFFF70B5194C2368002B1DD10F2500F0A1FA1649174B0A681B78AA432B401343154A0B6013681449136007
:40124000144B1D682940802519601168ED00294311601A681A6000F08CFA0123236000F084FAC021094A890013680B4380211360084A090613680B43136000F07AFA70BD71
:40128000C801002000FF2940D4F0FF0F08002940FFFFFEFF0400294010B5040000F065FAFF21044A13688B431C43146000F061FA10BDC04608002940034A044B116880016B
:4012C0000B40184310607047080504403FFEFFFF10B5094C2378002B03D100F011F8012323708021054A0906136809200B431360FFF77AFE10BDC046CC010020000025403A
:4013000010B50024194B1A4A1C601A4B1A491A601A4B1B4A092013601A4A14601A4A11601A4A13601A4B1C60FFF768FE03210920FFF738FE17490920FFF728FE5222164B24
:40134000FF321C60154B1C60154B1A600022154B1C60154B1C60154B1C60154B1C70154B1C70154B1C80154B1A7010BD0000254000080040600025406400FE00070100806D
:401380000003254004032540100325400002254004022540F1130000C80E2540880E2540480F2540080F2540C80F2540880F2540B4030020B8030020B2030020B00300200B
:4013C00070B506000D00141E0BD00920FFF716FE044B09201C60044B1E80044B1D80FFF703FE70BDBC030020C0030020B6030020F8B54F464646B64BC0B41B68002B00D028
:401400009847B44BB44D1E68B44B2C881F680223FF3333402DD02021B14A13685B005B081360B04B1A788A431A70102219780A431A70AD4A1268D20600D48DE002221978A1
:401440000A431A70A94AAA4B11680B40136000238021A84A09061360A34A1360A64A13709F4A13680B4313602C800CBC90469946F8BDFA0601D5A14A13600A233B424CD16D
:4014800002231F40002F1AD0F30614D50023994A1360954A13609A4B1A780A23944200D1FCE0904A334011780B4320218B4313700022914B1A70730658D4864B1E60874BB7
:4014C0001B685B07D0D58F4B8F4E98461A888F4BFF271B688E489C4600231F2199460DE063461B191B78013ADBB23360012399460368013492B20B40082B06D0002AEFD1D1
:40150000376003680B40082BF8D14B46002B00D0DAE010227F4B1A60A6E77F4B1B685B074FD57E4B74491A680B78002B00D191E0012B7BD1734988460988002900D1A9E038
:401540007748D2B20360714B01391B681B191A704346013419806CE0694A1278A24200D170E7082219780A431A706BE720235D4A11780B431370624B1C786A4B1A681023CF
:4015800013424FD08020684A5E4912884002121B0A80664A1168014311601068644901401160514A13600122624B63491A60494B196010236149086803430B60584B1A604A
:4015C0007BE74A4A13689B0400D459E702231F4033D14C4B1988083989B2198008295FD800296FD000239846484B4C489C466118634602681B68D2B21B1901341A708C42C4
:40160000F6D14346002B09D18020384A000213680C00034313600022364B1A600C22484B1A602FE70422334B1A60BCE70020FFF7EFFC0422424B1A6022E71F21414B1B683C
:40164000106819402A4B03401360012398460029CAD1E3E73448008882421BD20124304804603948008882421ED2801A254C80B2208007281AD908281BD080201B498001CC
:401680000B6803430B6008211A4B19601C4B14001A70CEE70222224B1A60CAE7083B00E70123082198469FE71648038001230B70ECE7A0240D4824020168214301600D4998
:4016C0000B60E3E721009FE743461A8021E7C046D0010020400F2540B2030020000E254000002540B8030020880F254060002540FF5FFFFFC80F2540B4030020880E254085
:40170000B0030020D401002040022540BC03002008022540800F2540CC0F2540400325406C00254064002540C003002004022540FFFFFEFF800E2540FF0F0000480F254070
:40174000C00F254008032540B6030020014B18707047C04670000F400230800803D00138FDD1C046C046C0467047EFF3108072B6704780F31088704770B50400FFF7F5FF19
:401780000500102C16D9202C0CD9302C18D803220D490B689343013A13430B602800FFF7E8FF70BD032208490B689343023A13430B60F3E70321044A13688B431360EDE7F2
:4017C0000020FFF725FCE9E730001040002243088B4274D303098B425FD3030A8B4244D3030B8B4228D3030C8B420DD3FF22090212BA030C8B4202D31212090265D0030B38
:401800008B4219D300E0090AC30B8B4201D3CB03C01A5241830B8B4201D38B03C01A5241430B8B4201D34B03C01A5241030B8B4201D30B03C01A5241C30A8B4201D3CB0219
:40184000C01A5241830A8B4201D38B02C01A5241430A8B4201D34B02C01A5241030A8B4201D30B02C01A5241CDD2C3098B4201D3CB01C01A524183098B4201D38B01C01A2B
:40188000524143098B4201D34B01C01A524103098B4201D30B01C01A5241C3088B4201D3CB00C01A524183088B4201D38B00C01A524143088B4201D34B00C01A5241411A02
:4018C00000D20146524110467047FFE701B5002000F0F0F802BDC0460029F7D076E7704703460B437FD4002243088B4274D303098B425FD3030A8B4244D3030B8B4228D395
:40190000030C8B420DD3FF22090212BA030C8B4202D31212090265D0030B8B4219D300E0090AC30B8B4201D3CB03C01A5241830B8B4201D38B03C01A5241430B8B4201D361
:401940004B03C01A5241030B8B4201D30B03C01A5241C30A8B4201D3CB02C01A5241830A8B4201D38B02C01A5241430A8B4201D34B02C01A5241030A8B4201D30B02C01A75
:401980005241CDD2C3098B4201D3CB01C01A524183098B4201D38B01C01A524143098B4201D34B01C01A524103098B4201D30B01C01A5241C3088B4201D3CB00C01A5241B9
:4019C00083088B4201D38B00C01A524143088B4201D34B00C01A5241411A00D201465241104670475DE0CA0F00D04942031000D34042534000229C4603098B422DD3030AB5
:401A00008B4212D3FC22890112BA030A8B420CD3890192118B4208D3890192118B4204D389013AD0921100E08909C3098B4201D3CB01C01A524183098B4201D38B01C01A3F
:401A4000524143098B4201D34B01C01A524103098B4201D30B01C01A5241C3088B4201D3CB00C01A524183088B4201D38B00C01A5241D9D243088B4201D34B00C01A5241F0
:401A8000411A00D20146634652415B10104601D34042002B00D54942704763465B1000D3404201B5002000F005F802BD0029F8D016E770477047C04670B5041E28D000F0A1
:401AC00053FE9E231B1A962B0ADC9622D21A94406202520AD8B25202520AC005104370BD992B18DC9922D21A9440114A2240610704D00F210C40042C00D00432510103D539
:401B00000B4B1A409F231B1A9201520AD8B2E2E700200022DFE705222500121AB921D5402200C91A8A40541EA2412C001443DCE7FFFFFFFBF0B556464D4644465F46F0B444
:401B40001D000E034C00CB0F87B0070092468146360B640D98466AD06D4B9C4235D08022430F12041343F6001E43C3009946694B00279C460023644402932B0368001B0B9D
:401B8000ED0F51469B46400D009500D178E0604B98426CD05B46DA004B0F802109040B4313439B465346D9005A4B9C46002360444246201A6A40924601901F430F2F00D9CF
:401BC000B0E05548BF00C0598746374300D088E0002399460233082700260293CDE74346B34649460093029B009A9246022B00D0BFE1002153460122002689461A40444B81
:401C0000002136030C0D2405360B2643434C1B0526401E437600D207760816434846310007B03CBC90469946A246AB46F0BD330003434FD0002E00D1BCE1300000F094FD34
:401C400003000B3B1C2B00DDADE11D220100D31A08393A008F408E40DA40B9461643304B00279C46002360444442029385E753465A4613432CD1002300219B46023397E77C
:401C80000B4320D05B46002B00D19EE1584600F06BFD03000B3B1C2B00DD8FE102005946083A91408B461D21CB1A5146D9400B0059460B4351469B469140194B9C46604474
:401CC0004042002374E7002300219B4601336FE703236DE70023994601330427002602934BE703230C27029347E70122D51A382D00DCB0E153461A40002100230026894641
:401D00007EE700238026994600223603004B77E7FF07000001FCFFFF08290000FFFF0F80F30300005E4500D972E100D16DE1019B4D46013B01930023340002935B461E0243
:401D40000B0E1E430B020393330C994633041B0C494620000093FFF739FD009B370043430600494620009846FFF7B6FD2C0C09040C43A04509D9E419731EA74200D95CE1E0
:401D8000A04500D859E1023EE4194346E41A49462000FFF71BFD0300009A80465343494620009B46FFF798FD2A040904120C0A4393450DD94346D219013B974200D93AE1B6
:401DC000934500D837E102235B429C46D219E0445B46D21A4346360433439B460399180C0B0C1D00059309045B46090C0C001B041B0C4443049159436B4368431B190D0CC2
:401E0000EB189C4203D980246402A44660441C0C09041B04090C20185D18824200D2DEE000D1D7E0161A029B9C465D1BAC459B415B42F61AB74200D106E149463000FFF754
:401E4000C5FC009B04004343494630009846FFF743FD2E0C09040E43B04509D9F619631EB74200D9F3E0B04500D8F0E0023CF6194346F31A494618000293FFF7A7FC009B15
:401E800006004343494602989846FFF725FD2D0409042D0C0D43A84509D9ED19731EAF4200D9D6E0A84500D8D3E0023EED192404210043463143049E059A3000ED1A0B043F
:401EC0000C0C1B0C58436643534354439A19030C9B189E4203D980225202944664441A0C00041B04000C14191B18A54250D34DD001231943964A019B94466344002B00DC29
:401F0000F3E64A0709D00F220A40042A05D00A1D8A42894149428B4411005A46D20108D55A468C4B1A4093468022D2009446019B6344894A934200DD5BE65A46C9085007DF
:401F400008435602514601225B058146360B5B0D0A4055E680231B031E4211D05A461A420ED15E461E433603360B2A0089467B4B46E6032B00D1E1E0012BBBD11A40BBE6F5
:401F80001E433603360B4246744B39E6002BB1D07D194A1EAF4252D91100A542A8D1039A9A42A5D1A6E703003E00283B9E400023994654E600F0D8FB203041E6030052469A
:401FC000283B9A400021934677E6504600F0CCFB20305EE6029B0026AB4200D323E7039E0299B44661448846B045B6415B467642F619B218013B0291974213D290424FD892
:4020000000D18EE0161A9B460DE7894500D28EE674084B46F60735005B081D434B46DB0702938BE69742EDD10399029CA142E5D93E1A9B46F7E69846CAE61E00A5E6AC4220
:402040003ED874D0110053E70121494252E71C000EE71E002BE71F2D3CDC20230A0058465B1B9840EA4099400243481E81415E461143EE404B0709D00F230B40042B05D0B5
:402080000B00191D99429B415B42F61833023CD55346012200211A40002601238946AFE502235B429C46039CE344A446029B63449846A045B6417642F6190293B218B1E644
:4020C00003988A1E41008142B6417642F619AD19039161E71F225242D31A5A46DA401300202D29D040225846551BA8400143481E814107200B4318400026002809D00F227B
:4021000000261A401900042ABBD10B0070077602360BDB0803439946012253461A4000236EE502998D42BBD89B4600267BE603989842C5D3110032E70020D7E780265B46BC
:4021400036031E433603360B009A8946034B57E5FF030000FFFFFFFEFE070000FF070000F0B55F4656464D464446F0B40D0399464E002B0B87B00700924680469B46760DF6
:40218000CC0F002E69D06D4B9E4235D05B468022DD001204430F13432B439B46C3009846674B00279C460023664401934A4615035000D20F53462D0B400D914600D176E061
:4021C0005E4A90426CD080225B0F120413435C4AED0094461D4353460022DB00604449463618701C6140029017430F2F00D9AFE05448BF00C759BF465B461F4300D088E053
:4022000000239B469846023308270193CEE74946022A6AD0032A00D109E2012A00D0BBE111400022002300259046CCB200212D030A0D12052D0B1543434A1B0515401D431A
:402240006D00E4076D0825434046290007B03CBC90469946A246AB46F0BD034352D05B46002B00D18AE1584600F07EFA03000B3B1C2B00DD7BE11D22D31A3A0001005D4647
:40228000DA4008398D4013008F402B439B46B8462E4B00279C46002360444642019385E752462A432CD100250023022297E752462A4321D0002D00D154E1280000F054FA7B
:4022C00003000B3B1C2B00DD46E11D21CB1A51460200D9405346083A954093400D431B4A944660444042002279E7012400220C40124B0025904699E70025002301226EE790
:4023000003226CE700239B4698460133042701934CE703230C27019348E700238025984600242D03054B81E75D464346019A6FE75D4643462100019A6AE7C046FF070000ED
:4023400001FCFFFF48290000FFFF0F80F30300004246120C91461A0C9446424617044A461B041B0C5A43604690464A4642431000039262461C003F0C7A437C434244019201
:40238000220C9246019A5244904506D98246802040028046C24450460390100C049048462404240C1204121905922A0C2D042D0C68432C00824648467C4350438146200C13
:4023C0008046574357444744BA4503D9802040028046C144380C3F04B84648442404240C01900498A044404404905846000C814658460404200C8246070048465F434C4669
:402400004343604660436446834650464443380C8446E4186444A34203D980235B029C46E34448463F04230C3F0C2404E419574668436F4384464D46504655434243380C03
:40244000814662444A445B44944503D9802040028446654403983F04834604983F0C8446E344C345804140428246100484460198674484466744A344BC46A345A4419946FA
:40248000D44464428742BF41D4458041E144A04699459B417F424042C8440743120CBA18A045A4415F423B0064422343D71843467D19DB0D6D021D435B465A02059B1A43FC
:4024C000531E9A415B46DB0D1A4343465B021343EA0107D501225C0813402343EA07029E13436D08574AB218002A4BDD580709D00F201840042805D0181D98429B415B4206
:40250000ED180300E80104D54F4A15408022D200B2184E48824200DDE7E60124DB08680718436D02530580462D0B5B0D0C407DE6802259461203114208D0154206D11543EC
:402540002D0398462D0B4C46414B6FE65D4615432D032D0B3E4B69E603005546283B9D400023BCE6504600F0FFF82030A8E60300283B9F400023BB46984689E600F0F4F8D7
:40258000203073E60124A61A382E07DD00220C4000230025904649E6029EA3E71F2E20DC20222C001800921BF040944093400443581E83411C43F540630709D00F2323401E
:4025C000042B05D023001C1D9C4292415242AD182B021FD5012400220C4001230025904624E61F202C004042821AD440202E1CD04022961BB5402B43581E83410720234380
:4026000018400025002809D00F2200251A401C00042AD8D1230068076D022D0B0124DB08034398460C40002300E60025E3E780220124120315432D0398462D0B0C40044BBB
:40264000F4E5C046FF030000FFFFFFFEFE070000FF0700000B0330B5134D1A0B4B005B0DC90F0024AB4211DD104CA34210DC8024640322430E4CE41A1F2C0CDD0D48C31A16
:40268000DA4013005C42002900D11C00200030BD094BCC18FAE7E040084CA44663449A4013000343EEE7C046FE0300001D0400003304000013040000FFFFFF7FEDFBFFFF2E
:4026C0004200120E511C4302C9B270B55D0AC40F012915DDE02189008C466D071B0B6244002128000D0D2D052B431C4D52052B40520813435B00E4075B082343190070BD01
:40270000002A15D1002D1FD0280000F02DF80A281DDC0B232A001B1ADA4013000200153295400F4A1B03121A52051B0B520DD7E7002D06D080221B0B120313436D07094AF3
:40274000CEE7084A0023CBE700220023C8E703000B3B9D402B000025E3E7C046FFFF0F8089030000FF0700001C2101231B04984201D3000C10391B0A984201D3000A083983
:402780001B09984201D30009043902A2105C40187047C04604030202010101010000000000000000014B18687047C046480100200E4B70B500251E000D4CE41AA410A54228
:4027C00004D0AB00F35898470135F8E700F0DEF8084B00251E00084CE41AA410A54204D0AB00F35898470135F8E770BD982900009829000098290000A0290000030082183E
:40280000934202D019700133FAE770470000000014300F4011310F4008330F4007400F4002410F400B420F4008430F400E041A021E0126022A042E0132073E0458045B0488
:402840005F018301A301B501B802BE01BF10D804D904DF01020208A0102A19081D0124082F803E02682A89088CA0C001C203C407CA80CE80E28082029E02A804AB80B202B0
:40288000B501E604EE045220622069108910D420D840DA40AA20EE800040034006802F0177088C408F40C00ECA04DC02E20A18408040AB01B280B708C608EC02EE04000006
:4028C000030405060708090A0B0C0E0F101112131415161718191B1C1D1E1F2021222325262728292A2B2E2F3031323334350000EEDBC9B9AA9B8E82766B60564D443B33B2
:402900002C241D17100A0400241D0000F21B0000F81C0000E81B0000F81C0000021D0000F81C0000E81B0000F21B0000F21B0000021D0000E81B0000DE1B0000DE1B000018
:40294000DE1B0000541F00005023000010220000102200000E22000028230000282300001A2300000E220000282300001A230000282300000E220000302300003023000038
:40298000302300003025000043000000F8B5C046F8BC08BC9E4670472D0300000D080000F8B5C046F8BC08BC9E46704705030000C0290000C0000020900000007802000080
:4029C00000000000580200002300000080BB000001000000300000000000C05D006CDC02F0000000040404000000000000000000000000000000000000000000000000008B
:402A000000000000000000008829000000000000000000000000000000000000000000000000000000000000000000000000000000000000000000000000000000000000E5
:402A40000000000000000000E8000020000000000000000000000000000000000000000000000000000000000000000000000000000000000000000000000000000000004E
:402A80000000000000000000000000000000000000000000000000000000000000000000000000000000000000000000000000000000000000000000000000000000000016
:402AC00000000000000000000000000000000000000000000000000000000000000000000000000000000000000000000000000000000000000000000000000000000000D6
:402B00000000000000000000000000000000000000000000000000000000000000000000000000000000000000000000000000000000000000000000000000000000000095
:402B40000000000000000000000000000000000000000000000000000000000000000000000000000000000000000000000000000000000000000000000000000000000055
:020000040001F9
:0200000490303A
:020000000409F1
:0200000490402A
:4000000000000000000000000000000000000000000000000000000000000000000000000000000000000000000000000000000000000000000000000000000000000000C0
:400040000000000000000000000000000000000000000000000000000000000000000000000000000000000000000000000000000000000000000000000000000000000080
:0200000490501A
:0C0000000002112B11A10001113815AAFB
:0200000490600A
:0100000001FE
:00000001FF