:400000000040002011000000E9030000E903000008B5054B1A6803F53F5302331A6001F095FD00F0E9F900BFFA46004010B5054C237833B9044B13B10448AFF300800123D9
:40004000237010BD68C1FF1F00000000D8280000084B10B51BB108490848AFF300800848036803B910BD074B002BFBD0BDE81040184700BF000000006CC1FF1FD828000048
:40008000C8C0FF1F0000000008B562B602F034FB02F092F8002002F033FB55280ED1002002F042FB002002F071FB002002F07AFB012002F083FB4022024B1A7001F0EEFF90
:4000C000002008BDFA46004008B562B60221002000F0E8FA0122014B1A7008BD84C1FF1F08B500F017FB08BD08B500F093FC08BD2DE9F84381460F4690460026168003EB1E
:4001000083035C00A4B223E0BB1B402B01D8DDB200E04025ADB22A4609EB0601022000F089FB04E0012002F017F9013CA4B2022000F062FB08B9002CF4D1022000F05CFB12
:4001400058B1B8F800302B44A8F800302E44B6B2BE42D9D30020BDE8F8831020BDE8F8832DE9F04180460E46174603EB83035C00A4B2402900D94026214B1B7833B916E0D4
:40018000012002F0E9F8013DADB200E0254600F01DFB08B9002DF3D100F018FBA8B100F01BFBFFF7A1FF0022154B1A700DE000F013FB50B100F00AFB38B1FFF795FF04E06D
:4001C000012002F0C9F8013CA4B2032000F014FB012801D0002CF3D1032000F00DFB012808D132464146032000F084FB38800020BDE8F08100233B801020BDE8F08100BF0D
:4002000084C1FF1FFEE700BFF0B40022174611E050F82760F3B226F0FF0608E001EB420511F812406D78A5550132013BDBB2002BF4D101370B2FEBD9F0BC7047064B1B7856
:40024000DBB203F00701054A11701B09013213704422034B1A707047CF0100496E5800407658004008B50A46002102F028FB08BD08B502F019FB08BD08B502F015FB08BD16
:4002800038B506221E4B1A705222A3F580731A701C4B1B78DBB21C4A13704FF4E1621B4B1A8041F25122023B1A80002419250CE0174B1B7803F0010343EA440404F0030490
:4002C0004FF4F07002F088FA013D0DB1032CEFD115B90320FFF796FF0E4A4FF4807313800723137000230C490B704820023108701370053213700222084B1A7038BD00BFBA
:40030000004300400F010049A1460040224200402542004004400040064000400140004038B572B6264A137843F00403137000240CE0244D630019194A0011462A440846A4
:4003400091882858FFF78EFF0134E4B2062CF0D91C4C04F12C0104F16800FFF755FF1A4A137843F0020313701032137843F0020313700A2204F198011448FFF779FF0A2288
:4003800004F1A4011248FFF773FF082204F1B0011048FFF76DFF104A137843F0080313700E4C61232370FFF76BFF81232370FFF745FF0E220A490B48FFF75EFF38BD00BF92
:4003C000E8460040DC28000003500140C0510040F0510040125100402243004000480040A0430040B043004008B502F031FA03680C2B00D1FEE7FEE708B5104E104D16E07A
:4004000029686B68AC68002204E051F8040B43F8040B0432A242F8D1E868002203E0002143F8041B04328242F9D11035013E002EE6D102F013FAFFF727FEFEE701000000BC
:40044000382B000008B5104A104B1A60104A136843F40073136000230AE0032B03D80D4A52F8231000E00C490C4A42F8231001332F2BF2D90A4B1A780A4B1A70074A0A4B94
:400480001A60FFF74DFF08BD0004FA050CED00E014ED00E000000000E903000000C0FF1FBC760040C0C0FF1F08ED00E0F8B502F09BF90746404A137843F0010313701032BE
:4004C000137843F00103137001263C4B1E700225943B1D7002F5E2521B32137803F07F031370002001F04EFF354C237803F0F9032370344A137803F0DF031370237833438F
:400500002370304601F03EFF282001F03BFF2E4B1A7802F07F021A701A7802F0BF021A7023782B432370284601F02CFF237843F0040323700024254B1C7001331C7038464E
:4005400002F056F90721172001F05CFF2049172001F044FF0721182001F054FF1D49182001F03CFF0721152001F04CFF1A49152001F034FF0721204601F044FF1749204670
:4005800001F02CFF0721304601F03CFF1449304601F024FF0721284601F034FF1149284601F01CFF07210C2001F02CFF0E490C2001F014FFF8BD00BFA54300409D60004010
:4005C0009443004012600040F85100408460004015100000FD0D000011100000710F0000A10F0000D50F00001D10000008B5214B18700023204A1370204A1370204A137059
:40060000204A1370204A1370204A1370204A1370204B4FF400021A604FF080721A604FF400121A6001221A6002221A6004221A6011B1012906D00BE0174A137803F0FE03FA
:4006400013700AE0144A137843F00103137004E0114A137843F00103137003220F4B1A708022203B1A70012002F0B6F804220C4B1A7008BDB1C1FF1FB4C1FF1FD0C1FF1FF7
:40068000D3C1FF1FC8C1FF1FD2C1FF1FD5C1FF1FB0C1FF1F00E100E009600040286000401260004038B504460D46064B1B7823B9FFF7FCFE0122034B1A7029462046FFF709
:4006C00095FF38BD85C1FF1F00230A4A13700A4A13700A4A13700A4A13700A4A13700A4A13700A4A13700322094B1A708022203B1A707047B4C1FF1FD0C1FF1FD3C1FF1FD4
:40070000C8C1FF1FD2C1FF1FD5C1FF1FB0C1FF1F2860004008B502F067F8224A137803F07F0313700A32137803F0FB031370A2F5E3520D3A137803F0FE031370103213783C
:4007400003F0FE031370184B1A7842F080021A701A7842F040021A7002F04AF8134B4FF400021A604FF080721A604FF400121A6001221A6002221A6004221A6001F0BEFCEE
:400780004FF480520A4B1A6000230A4A13700A4A13700A4A13700A4A13700A4A13700A4A137008BD08600040F851004080E100E080E200E0D0C1FF1FD3C1FF1FC8C1FF1FA7
:4007C000D2C1FF1FD5C1FF1F85C1FF1F014B1878704700BFD3C1FF1F064B1B7813F0FF0F05D0044B1878C0B200221A7070470020704700BFD0C1FF1F00EB40008300024A6F
:4008000013445878704700BFD8C1FF1F431EDBB2072B0BD8064B00011A18185C00F00F00537843EA0020023880B2704700207047FC5F0040431EDBB2072B3CD8F0B4074698
:4008400000EB4004A3001C4C2344DB889BB2C3F500739A4208D900EB400293002344DA8892B2C2F5007292B200EB4004A300124C2344DB7843EA1223104D04012E192B5590
:40088000D3B2737039B909E0CE5C3D010C4C665501339BB200E000239A42F5D8420002449300054A134400225A705A79D2B20001044B1A54F0BC7047D8C1FF1FFC5F0040D6
:4008C00078600040FE5F0040431EDBB2072B0BD8420002449300054A134400225A705A79D2B20001024B1A54704700BFD8C1FF1FFE5F004070B5D9B1054614460E46C8B195
:40090000082819D8FFF782FFA04203D22846FFF77DFF0446002305E02901094A525CF25401339BB2A342F7D32846FFF7CDFF04E0002402E0002400E00024204670BD00BF01
:400940007860004010B4FF2400230EE0094AD25C02EB42029100084A11448A7AD2B2824201D11C4602230133DBB2012BEED9204610BC7047A0C1FF1FD8C1FF1F10B5204CD4
:400980002079FFF7DFFF237813F0800F0ED06378DBB2212B2FD11B4B07221A80C0EBC000194A1044586000F097FA10BD144B5B78DBB2202B02D0222B10D01EE0114A07232E
:4009C0001380C0EBC00310490B4453600F4A135C43F00103135400F0A7FA10BD084B9B780B4A22F81030094A135C43F00203135400F030F910BD002010BD002010BD00BFE2
:400A000000600040BCC1FF1FCCC0FF1F98C1FF1FACC1FF1F10B500241F4B1C701F4B1C705C700AE01E4B185DC0B2431EDBB2072B01D8FFF749FF0134E4B2012CF2D9194B96
:400A40001B7813F0FF0F1AD0154B1B7813F0FF0F17D0154B1B7813F0FF0F14D0114B1B78DBB2082B11D80E4B1B78DBB2082B0ED80D4B1B78DBB2082B0BD8002010BD01204F
:400A800010BD012010BD012010BD012010BD012010BD012010BD00BF86C1FF1F98C1FF1FA4C1FF1F9CC1FF1FA0C1FF1FC37803F0030390F9020000280FDA032B06D002F0E5
:400AC00001030B48C15442F001020EE0C2F380030848C15442F0040207E0032B05D0C2F340030548C15442F002021046704700BF9CC1FF1FA0C1FF1FA4C1FF1F1D4B1978D6
:400B00001D4A13889BB20B449BB2138000220FE01A494B681B78DBB2194883544B6801334B600132D2B20B889BB2013B9BB20B80124B1B889BB20BB1072AE9D90D4B1B7894
:400B4000DBB2082B00D05AB10E490B7883F080030B700F210C4B197002210C4B197004E0022309490B7009490B70094B1A70014B1A707047B0C1FF1FB2C1FF1FBCC1FF1FB3
:400B80000060004046C2FF1FD1C1FF1FB4C1FF1FD4C1FF1F0222074B1A708022064B1A700F22064B1A700023054A1370054A137001207047B4C1FF1F46C2FF1FD1C1FF1FE8
:400BC000B0C1FF1FD4C1FF1F08B5FFF797FF08BD10B4194B197801F00F010239C9B2174A13889BB20B449BB21380002011E0144A5468144B1B5CDBB22370536801335360FA
:400C00000130C0B20139C9B213889BB2013B9BB213800B4B1B889BB20BB10029E7D10A4B19700A4A137883F0800313700B22084B1A7010BC704700BF29600040B2C1FF1F99
:400C4000BCC1FF1F00600040D4C1FF1F46C2FF1FD1C1FF1F0623064A1370064A13708022054B1A700022054B1A700120704700BFB4C1FF1FD1C1FF1F46C2FF1FD4C1FF1FB6
:400C8000064B9B6843B1054B9A6810709A6804490988518000229A60704700BFBCC1FF1FB2C1FF1F08B5134B1A78D2B21A701B78DBB213F0800F02D00F4A137008BD0220A9
:400CC000FFF7DEFF0D4B1B7803F06003202B05D0402B06D043B900F091FC06E001F08CFD03E000F035FE00E0002010B90322024B1A7008BD28600040D1C1FF1F00600040FE
:400D000008B5094B1978094A13889BB20B449BB213800022064B1A700120FFF7B1FF0322044B1A7008BD00BFB0C1FF1FB2C1FF1FB4C1FF1FD1C1FF1F08B50B4B1B78DBB2CB
:400D4000042B06D0062B07D0022B0BD1FFF7D8FF08BDFFF73DFF08BD0320FFF791FF0322024B1A7008BD00BFB4C1FF1FD1C1FF1F08B50022044B1A700120FFF781FF0322F4
:400D8000024B1A7008BD00BFB4C1FF1FD1C1FF1F08B50B4B1B7813F0FF0F07D0084A137843F0800307490B70002313700022064B1A700120FFF764FF0322044B1A7008BDC9
:400DC000D2C1FF1F08600040B4C1FF1FD1C1FF1F08B5094B1B78DBB2042B06D0062B07D0022B07D1FFF7F0FE08BDFFF7C1FF08BDFFF7CEFF08BD00BFB4C1FF1F08B5284BE6
:400E00001B78DBB213F0100F48D013F0800F0CD003F00F03012B16D1FFF744FF214B1B7813F0800F11D1012312E013F0400F03D0FFF7CEFF01230BE013F0200F07D0FFF71A
:400E40007BFF012304E0002302E0002300E0002323B3134B1B7813F0800F1FD1124B1B78124A12781343124A13701278D2B2934214D10C4B1B78DBB2094A127812F0800FC4
:400E800007D1084B1B78DBB2054A1370137803F00F03044A1278D2B29342EAD108BD00BF28600040D1C1FF1F46C2FF1FD4C1FF1F296000400022064B1A80064B9B682BB1BE
:400EC000044A916800230B7092685380704700BFB2C1FF1FBCC1FF1F08B50F4B1B889BB213B9FFF757FE15E002220C4B1A7000220B4B1A70FFF7DEFF0A4AD179937943EADA
:400F00000123054A128892B2934201D2024A1380FFF7F4FD012008BDBCC1FF1FB4C1FF1F46C2FF1F0060004008B504220B4B1A7080220B4B1A70FFF7BDFF0A4AD179937977
:400F400043EA0123084A128892B2934201D2064A13800B22054B1A70012008BDB4C1FF1F46C2FF1F00600040BCC1FF1FD1C1FF1F0122094B1A700F3B9B7C084B1B7B03F096
:400F80000303934204D0054AD37B83F08003D3730122024B5A7370470B600040D8C1FF1F02220A4B1A700F3B93F82230084B1B7E03F00303012B04D0054AD37E83F08003AE
:400FC000D3760122024B5A76704700BF0B600040D8C1FF1F04220C4B1A700F3B93F832300A4B93F8243003F00303012B06D0074A92F8273083F0800382F827300122034BB9
:4010000083F82520704700BF0B600040D8C1FF1F704700BF08B5FFF757FB08BD08B501F06DF808BD70B588B0054603AC174E0FCE0FC43368237035B322232B7003236B709D
:4010400001A801F0F7F9002402231AE008AA224412F81C2C08A901EB121111F8141CE954581C00212954981C02F00F0208AE324412F8142C2A54DA1CA9540134E4B2043351
:40108000DBB2212BE2D908B070BD00BF9429000010B401233EE019461A010C242148845403EB4300820020480244527912F0FF0F13D003EB430082001B480244127912F042
:4010C000800F04D01801194A024494700AE01801164A02440820907004E01801134A0244802090704800084482000F480244D488E4B208010B4901448C71D088C0F3072040
:40110000C871D088C0B20871D288C2F307224A710133DBB2082BBED9FF22054B1A7010BC704700BF70600040D8C1FF1FFC5F00400A600040074B1A78074B03EBC2035B68C0
:401140001A7C824204D9C000103018444068704700207047B1C1FF1FB0290000F8B5404B1B7813F0FF0F79D03D4B18780138C0B2FFF7E0FF047AC2683A4B1878C0B200232E
:401180006AE01178884264D13749095CC9B25578A9425ED1917801F07F01D67806F00306DFF8C8E04D000D44AF000EEB07054FF0000C85F803C092F802C085F804C092F8DC
:4011C00003C00EF807C097882F8192F90250002D0DDA012E01D1072700E00D274E000E44B500224E35446F7101266E700CE0012E01D1052700E009274E000E44B5001B4E52
:4012000035446F7100266E70DFF868E00F010EEB07060125B57001FA05F529448D00134929440D89C5F307250EF807500D89EDB27570CE88F6B20E4D3D44AE71CE88C6F320
:401240000726EE71CE88F6B22E71C988C1F30721697108320133DBB2A34292D3F8BD00BFD3C1FF1FC8C1FF1F44C2FF1FD8C1FF1F70600040FC5F0040034B1A78034B03EB8A
:40128000C2035868704700BFB1C1FF1FB029000008B5084B18780138C0B2FFF74BFF30B142681279023200EBC203586808BD002008BD00BFD3C1FF1F2DE9F047002310E00A
:4012C000724D5900CA189600AC190022AA55A270E2702281A272627034462C4462710133DBB2082BECD940B90AE000226849CA546849CA540133DBB200E00023012BF4D9B5
:40130000654B1B7813F0FF0F00F0BD80624B18780138C0B2FFF70EFF80464368DB7913F0400F05D05D4A137843F00103137004E05A4A137803F0FE03137098F808704FF098
:40134000000A01266FE0D8F80C50002467E0AB7803F07F039E425FD1314606EB460083004A4803441B899BB2A888834206D206EB460E4FEA8E03454A134418812B78444829
:40138000C35CDBB26878834246D195F802C0DFF8FCE04B000B4498000EEB000383F804C0EB780EF80030EB7803F0030395F90200002813DA012B02D14FF0070901E04FF04E
:4013C0000D09DFF8C8E04B0003EB010C4FEA8C00704480F805900121417012E0012B02D14FF0050901E04FF00909DFF8A0E04B0003EB010C4FEA8C00704480F80590002105
:401400004170AB790A2B01D0022B05D1524631462846FFF74BFB824608350134E4B2BC4295D30136F6B2082E8DD9D8F80C0000220CE0837803F07F0310F8084B03EB43037B
:401440009900124B19448C720132D2B2BA42F0D3FFF71EFF124B1860002301210FE00B4D4A00501884002C44E380228992B213449BB203F0010213449BB20131C9B208291D
:40148000EDD9FFF705FEBDE8F08700BFD8C1FF1F44C2FF1FB8C1FF1FD3C1FF1FD5C1FF1FCCC1FF1F08B5154B1B7903F07F035A1ED2B2072A20D8590019448A0010490A44DD
:4014C000917841F0010191700021D170517841F002015170127912F0800F05D01B01094A1A448D23937004E01B01064A1A4489239370FFF7AFFB08BD002008BD00600040D7
:40150000D8C1FF1FFC5F0040264B1B7903F07F035A1ED2B2072A43D810B5590019448A0021490A44917801F0FE0191700021D17019017F241D484454517801F0FD0151704B
:40154000127912F0800F14D003EB43018A0016490A445278D2B2012A05D11B0102461A440C23937019E01B01104A1A440D23937013E003EB43018A000B490A445278D2B220
:40158000012A05D11B01094A1A440823937004E01B01064A1A4409239370FFF75BFB10BD0020704700600040D8C1FF1FFC5F004010B50E4B1C79E4B20D4B18780138C0B294
:4015C000FFF7B8FD43681B799C4201D9022C0AD8084A135DDBB208490B55044B9B78DBB21355012010BD002010BD00BF00600040D3C1FF1F44C2FF1FB8C1FF1F10B59C4B8F
:401600001B78DBB200219B4A118013F0800F00F0AD80974A5278D2B20A2A00F27481DFE812F06900720172017201720172010B007201920072019A008D4BDB78DBB2012B88
:4016400009D1FFF719FE42688A4B5A6012221A80FFF742FC10BD864BDB78DBB2022B13D1834B9878FFF766FD002800F04E814268804B5A605A68D1785A68927842EA012246
:401680001A80FFF729FC10BD794BDB78DBB2032B05D02CE00A7811440133DBB201E000237549734A9278D2B2934203D20A7812F0FF0FEFD16E4B9B7813F0FF0F0BD06C4BE5
:4016C0009B78DBB26D4A127C934204D16C4C2046FFF7A8FC21460B7813F0FF0F00F017810B78644A13805160FFF7F6FB10BD01F083F810BD13F0030317D0022B40F00981E7
:401700005C490B805A4B1B7903F07F0303EB43039A005C4B1A449278D2B25B4B1A7000225A704B60FFF7D8FB10BD524902230B80564B1A78D2B2544B1A7000225A704B604B
:40174000FFF7CAFB10BD4B4B01221A80504A5A60FFF7C2FB10BD474A01231380444B1B794C490B445360FFF7B7FB10BD404A5278013A0A2A00F2CF80DFE812F04C00CD005D
:401780009800CD000B00CD00CD00CD001300CD003000374B9B78DBB23F4A1370FFF75AFA10BD334B9B7803F0FF041BB1601EC0B2FFF7C0FC04B110B9002C40F0AE80344B81
:4017C0001B78DBB29C4206D0314B1C700120334B1870FFF771FDFFF73DFA10BDFFF7E8FE002800F09C80224A1379DBB21279D2B22B490A702B4AD25CD2B22649CB5CDBB2AC
:401800009A4204D00122254B1A70FFF7A7FCFFF721FA10BD03F00303012B17D04BB1022B7FD1134B9B7813F0FF0F7CD1FFF76CFE10BD0F4B9B78DBB2012B76D1134A13788E
:4018400003F0FD031370FFF705FA10BD084B1B79DBB2012B6BD8064B98781B79DBB21249CA5C22EA0002CA54FFF7F4F910BD00BF00600040BCC1FF1F182A0000002B000007
:4018800050C2FF1FD8C1FF1F88C1FF1FD5C1FF1FD3C1FF1F44C2FF1FD2C1FF1FD0C1FF1FC8C1FF1FB8C1FF1F48C2FF1F03F00303012B17D04BB1022B3BD1224B9B7813F0C6
:4018C000FF0F38D1FFF7EEFD10BD1E4B9B78DBB2012B32D11C4A137843F002031370FFF7B9F910BD174B1B79DBB2012B27D8154B98781B79DBB21549CA5C22EA0002CA54DB
:40190000FFF7A8F910BD002010BD002010BD002010BD002010BD002010BD002010BD002010BD002010BD002010BD002010BD002010BD002010BD002010BD002010BD00202D
:4019400010BD00BF00600040D5C1FF1F48C2FF1F044B1B7813F0800F01D0024B5B780020704700BF00600040002306E0421812F8012C13449BB2013989B20029F6D1584287
:4019800080B27047004700BF08B58022024B1A7000F0DAFC08BD00BFFA4600402DE9F04182B00C46164602AF27F8022D01230B7048701546A270130ACB7002F104081FFADE
:4019C00088F12046FFF7D0FF04F80800731DC0F30720E054063517236355F11D96233A4689B22046FEF784FB02B0BDE8F08100BF70B505460E461446084B984203D010B1B2
:401A0000002000F09FFC002004E0013CAB19E35C1844C0B2002CF8D170BD00BF0080004008B501380B2873D8DFE800F0060F18212A33453C4E576069C1EB01610B0203F570
:401A4000FF3303F5E073012167E0C1EB01610B0203F5FF3303F2C11304215EE0C1EB01610B0203F5FF3303F2C513022155E0C1EB01610B0203F5FF3303F2C91304214CE03E
:401A8000C1EB01610B0203F5FF3303F5E873012143E0C1EB01610B0203F5FF3303F2D11301213AE0C1EB01610B0203F5FF3303F5EB73022131E0C1EB01610B0203F5FF33DB
:401AC00003F5E973022128E0C1EB01610B0203F5FF3303F5EA7302211FE0C1EB01610B0203F5FF3303F5EC73042116E0C1EB01610B0203F5FF3303F5EE7301210DE0C1EB9B
:401B000001610B0203F5FF3303F5F073042104E0002000F017FC02210023012902D11878C0B200E00020022903D11A78587842EA0020042909D11A78587842EA00229878CC
:401B400042EA0042D87842EA006008BD08B50A4B1B7803F0C003802B0CD10021064B19700220FFF75DFF28B100210220FFF758FFFFF708FF08BD00BFFA460040F8B50646A1
:401B800001460320FFF74CFF0130070231460420FFF746FF074431460320FFF741FF013000020024254608E003785A1ED2B2FD2A00D801252344DCB20130B842F4D33146AB
:401BC0000320FFF72DFF01300002C0080F4B9F4201D0FF0808E04FF4804705E000F190431B782344DCB20130B842F7D36442E4B231460120FFF714FF844202D11DB9062008
:401C0000F8BD0620F8BD0020F8BD00BFC0FF01002DE9F04FADF51F7D054600F0CDFA10B1002000F08FFBFEF74FFA62B64FF000094F460A24C8460DB9FF2300E02B460DF229
:401C400076224FF4967152A8FEF78AFA0DB1013CE4B20CB10028EED1002840F01582BDF87632062B26D99DF84821012A24D19DF84B819DF84A2142EA0828414608F10702FA
:401C80009A421BD8B2F5967F1AD84A1D52AB9E5C0A1D9A5C42EA062606315B5C172B11D108F1040189B252A8FFF75EFE86420BD100260AE0042608E0042606E0032604E05A
:401CC000032602E0042600E00826002E40F088819DF84CA19DF84921A2F131030A2B00F25781DFE813F00B001C0055014400B2005501B800CD004400DF004701002F00F051
:401D00007181B8F1000F40F070810020FFF736FFB0FA80F040098DF84C010122ADE1002F00F06681B8F1010F40F06581BAF1010F00F26481C04B1B681B68C3F30742924559
:401D400002D1C3F3072305E0924501D9002301E04FF480738DF84C311B0A8DF84D31FF238DF84E3100238DF84F31042285E1342A15D1002F00F04581B8F1030F40F0448103
:401D8000AAF14003DBB23F2B02D84FF0100901E04FF490794A46002107A800F090FD002F00F03581B8F1020F40F23481A8F103020DF24F1107AB03EB090000F075FDC1448F
:401DC0001FFA89F9A9F103091FFA89F9AAF14003DBB23F2B05D800F075FA80234FF0100803E04FF480734FF49078C84540F015819DF84E919DF84D2142EA09294B4500D888
:401E00000A26002E40F00E81BAF13F0F0FD809EB0A2292B2884B1B681968C1F30F2311F0FF0F01D001339BB2934200F2FD80434607AA4946504600F0C9F900B10A2600F0FD
:401E4000ABFA4FF000094A4617E1002F40F01A810426002211E1002F00F0EB8008EB0903B3F5967F00F2F280424653A907AB03EB090000F019FDC1441FFA89F90022FCE03A
:401E8000B8F1000F40F0E58004AB6C4A92E8030083E8030053AA82E803004FF0000901270822EAE0002F00F0D780B8F1030F40F0D6809DF84EB19DF84D3143EA0B2BAAF15B
:401EC0004003DBB23F2B10D84FEA0B11BBF17F0F01D8334600E00A23002B40F0C38010225748FFF785FD019011E00BEB0A210902BBF1FF0F01D8334600E00A23002B40F0C9
:401F0000B4804FF480720020FFF772FD0190BAF13F0F0FD80AF510320BEB02225201002306E0995C01980144C9B2019101339BB21F2BF6D9BAF1010F16D1BBF1FF0F13D1D1
:401F400000210520FFF76CFDC0B2019BC0EB030A5FFA8AFA00210620FFF762FDC0B2C0EB0A0A5FFA8AF30193019B5B428DF84C31012282E00020FFF701FE10B98022314B26
:401F80001A70FEF7ADF800F0DFF90426002274E02D4B1B68002B6BD0002F6CD08DF80820ADF80A8053AA0392002104910591069204A902A89847BDF81420B2F5937F03D3C9
:401FC000069953AB994205D0069B03B92AB99DF8106052E00E2600224FE00E2600224CE000224AE00426002247E00426002244E00426002241E0042600223EE004260022C4
:402000003BE00426002238E00426002235E00426002232E0042600222FE04FF0000903264A462AE0002228E04FF000090A264A4623E00426002220E0E8C0FF1FA8290000E4
:4020400000800040FA4600408CC1FF1F0326002213E00426002210E0042600220DE0042600220AE01E46002207E01E46002204E00526002201E00526002252A93046FFF713
:402080008DFC01E04FF00009002D3FF4D4AD002F7FF4D1AD0DF51F7DBDE8F08F38B50020FFF76CFD08B1062400E00024114D2B681A6800210846FFF79BFC6B681B78C01AA9
:4020C000C0B24042C0B2834202D12B681B6813B9002000F037F9084B1B7803F0C003402B00D024B10020044B1870FFF791FDFFF74BFC38BDE8C0FF1FFA460040024B187844
:40210000C0F38010704700BF8F45004010B500F0C9F900F095FAD0B900F0D4FA0446072812D102E0012000F02DF90A4B1B7813F0020FF7D0074B1B7813F0020F04D0054B40
:402140001B789B0800D1002400F0A0FA00E00424204610BD2247004010B500F0A3F900F06FFA10BB012000F04DFA072818D102210F4800F0A9F902280AD102E0012000F0DD
:4021800001F90C4B1B7813F0020FF7D0002409E0084B1B7813F0020FE9D04FF0FF3401E04FF0FF3400F072FA00E00424204610BD4CC2FF1F2247004008B5FFF7A7FF0346CD
:4021C00010B9FFF7C9FF0346184608BD2DE9F041C41EE4B23C2C01D9002500E0012510F0800F00D00125412800D901253F2803D8B1F5807F06D808E0802900D90125102B43
:4022000002D102E0012500E0012502B90125002D50D1984616460F46044600F011FA002847D1434632463946204600F067F9064607283AD102E0012000F0A4F81F4B1B7832
:4022400013F0020FF7D01D4B1B7813F0020F06D01A4B1B789B0805D04FF0FF3603E04FF0FF3600E02E4606BB154A537812783946204600F083F9072804D0064615E00120E4
:4022800000F080F80D4B1B7813F0020FF7D00B4B1B7813F0020F06D0084B1B789B0804D04FF0FF3601E04FF0FF3600F0EFF9354600E004252846BDE8F08100BF22470040AF
:4022C0004CC2FF1F08B500F08FFA0F4A137843F0080313701032137843F008031370C8220A4B1A700A4A137843F0100313701032137843F010031370064B1B7813F0200F2C
:40230000FAD000F075FA08BDA043004001470040AC43004000470040054A137843F001031370034B1B7813F0020FFAD0704700BF02470040024A137803F0FE0313707047F7
:402340000247004001BE7047024A137843F0010313707047F646004010B5044605E0084B186800F039FAA4F50044B4F5004FF6D8034B586800FB04F000F02EFA10BD00BF6C
:40238000F0C0FF1F08B5034B1B7A00FB03F000F023FA08BDF0C0FF1F08B500F025FA00BF00BF00BF00BF00BF00BF00BF00BF00BF00BF00BF00BF00BF00BF00BF00BF064A15
:4023C00013889BB243F0040313801388BFF36F8F00F00EFA08BD00BF0048004070B504460E46074B1D681F2802D90020FFF7AAFF04F01F04103455F8240045F8246070BDA4
:4024000008ED00E038B504460D46072902D90020FFF798FF1F2C02D90020FFF793FF04F01F0000F1604000F564406D01EDB2057038BD00BF134B1B78DBB20360124A12787D
:4024400043EA02230360114A127843EA024303600F4A127843EA026303600E4B1B78DBB243600D4A127843EA022343600B4A127843EA024343600A4A127843EA026343601C
:40248000704700BF0301004904010049EC460040020100490101004900010049050100490601004908B500F09FF9064A137843F0080313701032137843F00803137000F0BA
:4024C00097F908BDA043004070B506460D4600240CE00120FFF756FF064B1B7813F0010FF7D0054B1B7833550134E4B2AC42F3D3204670BD224700402047004070B41D4C0C
:40250000247814F0020F2CD01B4CB6252570D5252570022525700234247814F0020F22D1154C2070002404E0165D134D2E700134A4B29C42F8D3B3F5807F16D13F2816D871
:4025400000F5103001EB00214801002305E01A5CD2B209490A7001339BB21F2BF7D9072006E0042004E0092002E0072000E0072070BC7047224700402047004030B4104CA6
:40258000247814F0020F15D00E4CB6252570D8252570052525700234247814F0020F0BD1084C2070080A2070C9B2217022702370072002E0042000E0092030BC704700BF58
:4025C00022470040204700400C4B1B7813F0020F10D00B4BB6221A70DB221A7008221A7002331B7813F0020F06D1054B187019700720704704207047092070472247004064
:40260000204700400C4B1B7813F0020F0FD00B4BB6221A70E1221A700E221A7002331B7813F0020F05D1054B187007207047042070470920704700BF2247004020470040E5
:4026400010B500F0D1F80F4B1B78A3B901220D4B1A700D4B1B6813F0010F0ED00A4A136823F00103136000BF00BF00BF0122054B5A60002402E0042400E0002400F0B8F82D
:40268000204610BD90C1FF1F0400084008B500F0ABF80A4B00221A705B68012B0AD1084A136843F00103136000BF00BF00BF0022024B5A6000F09CF808BD00BF90C1FF1FBD
:4026C00004000840074B1B7813F0020F08D0064BB6221A70E0221A700D221A700720704704207047224700402047004008B5FFF763FDFFF7E7FD08BD08B5FFF7F7FF08BD9C
:4027000038B5044600F070F80546FFF705FE04F1804000F500400478E4B2FFF70BFE284600F066F8204638BD10B50446FFF7BAFE012C23D8FFF784FF10BB21464020FFF7CE
:4027400043FF072810D1104B1B7813F0020FFAD00D4B1B7813F0020F09D00B4B1B789B0808D04FF0FF3406E04FF0FF3403E04FF0FF3400E00024FFF789FF02E0012400E077
:402780000424204610BD00BF22470040044A137803F0BF03800100F04000184310707047C0510040044A137803F0EF03000100F01000184310707047C0510040044A1378B9
:4027C00003F0DF03400100F02000184310707047C0510040000000000230800803D000BF01380046FCD17047EFF3108072B6704780F31088704700BF08B5124B1B7803F00F
:402800000303012B02D0022B04D00FE00D4B1B79DBB20CE00B4B1B7903F07F0303EB43039A00094B1A44937ADBB200E00023074A1268D35C022B02D1FEF7A0F808BD002057
:4028400008BD00BF00600040D8C1FF1FCCC1FF1F014B1868704700BF60C1FF1F0E4B70B51E460E4C0025E41AA410A54204D056F8253098470135F8E700F04CF9084B094C0F
:402880001E46E41AA4100025A54204D056F8253098470135F8E770BD202B0000202B0000202B0000282B000010B5431E0A44914204D011F8014B03F8014FF8E710BD03467A
:4028C0000244934202D003F8011BFAE770470000002C0000C70000000000000000510040100020510040500000000140001000140140000800400140000A004C01400002DF
:4029000000500140200000007E027C40EA02EE0AEA02EE0A33813640CC709F01A640A7809F01A640A7809F01A640A78008080B040F40C20EAE40AF81EA40EE50AC08AF440A
:40294000002A000001450040015200400217014002190140034001400341014003420140034301400447014004480140024C014001510140700000707000000000000000BD
:402980004000000000000000C0000000000B0B000000000030313233343536373839414243444546000000006990152E0032010101000000B829000001000000002B0000E1
:4029C000000000000000000001000000D029000001000000BC2A000003000000FC2900000000000000000000000000000000000000000000F8290000020A0000000081031D
:402A0000080002000100820240000A000100030240000A0002030000040309042C0343007900700072006500730073002000530065006D00690063006F006E006400750075
:402A4000630074006F0072001403550053004200550041005200540042004C003803430044004300200043006F006D006D0075006E00690063006100740069006F006E0058
:402A8000200049006E007400650072006600610063006500260343004400430020004400610074006100200049006E007400650072006600610063006500000009024300D9
:402AC0000201018032090400000102020103052400100104240202052406000105240100010705810308000A09040100020A00000407058202400000070503024000000068
:402B00001201000202000008B40433F20100010280014300F8B500BFF8BC08BC9E4670475100000045040000F8B500BFF8BC08BC9E4670472D000000482B0000C8C0FF1FF3
:402B4000A0000000100100000000000000C2010000000800C201000000080000A12000000000020000000000D0280000D42800000000E02EC05D00001800000000366E016F
:402B80000000000000000000000000000000000000000000000000000000000000000000122B000000000000000000000000000000000000000000000000000000000000D8
:402BC000000000000000000000000000000000000000000000000000000000000000000000C1FF1F00000000000000000000000000000000000000000000000000000000F6
:402C000000400020112C00009D5C00009D5C000080B500AF03F04CF810B5054C237833B9044B13B10448AFF300800123237010BD78C1FF1F0000000054BF0000084B10B5C6
:402C40001BB108490848AFF300800848036803B910BD074B002BFBD0BDE81040184700BF000000007CC1FF1F54BF0000C8C0FF1F0000000080B400AF0D4B712283F8462063
:402C80000B4B422283F84720094B0A2283F84820074B062283F84320054B002283F84420034B042283F8452000BFBD4680BC704724DCFF1F80B582B000AF012005F080FC9D
:402CC000002005F097FC62B6012008F075FA012008F090FA012008F0ABFA012005F056FC07F0A6FE08F0BEFB0221252002F030F80021282002F02CF8002008F07BFA0822BF
:402D00005A49002002F062F8012008F073FA08225749002002F05AF807F08CFD07F030FD002008F067FA4FF4FA7003F0D3FD012008F060FA002008F07BFA4FF4FA7003F0A3
:402D4000C9FD012008F074FA002008F035FA4FF4FA7003F0BFFD012008F02EFA002008F067FA002008F046FA0121002005F060FC08F084FA03F012FD002008F00FFB0346DB
:402D8000552B05D1002008F027FB012008F050FA012001F0B7FF03F0C9FB364803F02EFC03F01CFB344803F053F804F085F9334804F0D2F905F0BCFA314805F069FB3148A0
:402DC00004F034FB03F01EF90123022201212E4800F03EFC012004F08BFE012004F0C4FE012004F0A3FE294B00229A71082000F087F9FFF73FFF264B00221A70254B002255
:402E00001A70254B00221A70244B00221A6000F0B7FD234B00221A70224B00221A70224B00221A6004F0ECFD05F076F804F094FF0346002B03D004F035FF03467B60012086
:402E400001F060FF01F0F6FF02F02EF90F4B1B78002BF7D1154B1B78002BF3D00B4B1B7843F00303DAB2094B1A70EBE788DDFF1F04C2FF1F21660000755E00007D71000035
:402E8000B12E0000517400002CC2FF1F24DCFF1F18C2FF1F58C2FF1F00C2FF1F54C2FF1F38DFFF1F30DFFF1F34DFFF1F30E1FF1F80B500AF022003F00FFA002005F048FBE4
:402EC00005F028FB05F078FA05F0CCFA05F030FA00BF80BD80B500AF032003F0FDF905F04BFA00BF80BD00BF80B500AF012005F02FFB05F041FA00BF80BD00BF80B483B022
:402F000000AF00237B6007E0074A7B68134400221A707B6801337B607B681D2BF4DD00BF0C37BD4680BC704700E1FF1F80B586B000AF786039600023BB733B68F02B3EDC2D
:402F4000022003F0C9F9002005F002FB052003F0C1FC00237B612EE07B697A6813441B78FB7300233B6120E0BB7B0133BB73BA7B3B689A4206DD022003F0AEF9002005F0A9
:402F8000E7FA1DE097F90F30002B02DAFFF7ACFF01E0FFF79FFFFB7B5B00FB7340F2064003F0BAFC3B6901333B613B69072BDBDD7B6901337B617B691D2BCDDD00E000BF7C
:402FC0001837BD4680BD00BF80B584B000AF78603960424B1B78002B7BD008F007FB404B1B681B12DAB23F4B83F852203C4B1B68DAB23C4B83F85320394B1B68002B56D0C9
:403000003B68002B0BD1384B1B789C2B0ED1344B1B68082B03D0324B1B68042B06D1304B1B6819463148FFF781FF40E02C4B1B68DAB22C4B5A722A4B1B681B12DAB2294BC2
:40304000DA71274B1B68DAB2264B1A720023FB6010E0264AFB6813441978224AFB68134403F5B2730A461A70012003F055FCFB680133FB601E4B1B68FA689A42E9DD1D4B92
:4030800000221A601C4B01221A60164B1B7843F00303DAB2134B1A70124B00229A70114B93F855300133DAB20E4B83F855200B4B00221A70114B00221A600D4B00221A60E3
:4030C000074B00221A60FFF719FF08F071FA012300E0002318461037BD4680BD30E1FF1F24E1FF1F24DCFF1F18DCFF1F00E1FF1F2CE1FF1F54C2FF1F28C2FF1F20E1FF1F5E
:4031000080B582B000AF0346FB71FB7903F00103002B03D0012003F0A3F802E0002003F09FF8FB7903F00203002B03D0012003F079F802E0002003F075F8FB7903F0040361
:40314000002B03D0012002F065FE02E0002002F061FEFB7903F00803002B03D0174B01221A6002E0154B00221A60FB7903F01003002B03D0012003F091F802E0002003F031
:403180008DF8FB7903F02003002B03D0012002F023FE02E0002002F01FFEFB7903F04003002B03D0064B00221A6002E0044B01221A6000BF0837BD4680BD00BF1CC2FF1F61
:4031C00014C2FF1F80B582B000AF08F01BFA0346DB43DBB203F00703DBB2DB43FB71FB7918460837BD4680BD80B582B000AF0023FB71234B1B78002B3DD0214B00221A7069
:40320000204B1B6841F28732934205DC0023FB711D4B00229A712EE01A4B1B6841F28732934214DD174B1B684AF6C77293420EDC002004F07BFC002004F05AFC002004F00C
:4032400093FC0323FB71104BC6229A7113E00D4B1B684AF6C77293420DDD002004F066FC002004F045FC002004F07EFC0523FB71054B99229A71FB7918460837BD4680BD85
:4032800030DFFF1F34DFFF1F24DCFF1F80B483B000AF0023FB71FB7918460C37BD4680BC704700BF80B582B000AF174B5B78FB71FB7903F00103002B21D0FB7903F0020379
:4032C000002B04D0104B5B791846FFF719FFFB7903F00803002B0FD00B4B00225A700B4B01221A60084B93F859300133DAB2064B83F8592001F038FA034B00225A7000BFFB
:403300000837BD4680BD00BF24DCFF1F54C2FF1F80B582B000AF0023FB71FFF7B7FF034603F00303FB71FB7903F00203002B11D1FB7903F00103002B03D0254B1B68012BFD
:4033400008D0FB7903F00103002B12D1204B1B68002B0ED11F4B1B68002B03D0002002F043FF02E0012002F03FFF002004F0DEFB0DE0184B1B68002B03D0012002F034FF8E
:4033800002E0002002F030FF012004F0CFFBFB79BB71114B1B78BA799A4215D0642003F0BBFAFB797B71BA797B799A420CD10B4A7B799372084A7B791370084B1B7843F0EC
:4033C0000903DAB2054B1A7000BF0837BD4680BD1CC2FF1F14C2FF1F58C2FF1F24DCFF1F80B582B000AFFFF793FFFFF7EBFE0346FB71154B1B78FA799A4217D0642003F005
:403400008BFAFFF7DFFE0346BB71FA79BB799A420CD10E4ABB7913710B4ABB7913700B4B1B7843F00503DAB2084B1A70FFF7DCFE0346FB71FB79002B02D0044AFB79D372B9
:4034400000BF0837BD4680BD18C2FF1F24DCFF1F80B582B000AF00237B600CE0094A7B68134403F5B27300221A70012003F054FA7B6801337B607B68132BEFDD00BF083763
:40348000BD4680BD24DCFF1F80B584B000AF7860002004F02DFB002004F066FB0023FB6012E00023BB6009E0BB687A6813441B78184602F07FFEBB680133BB60BB680B2BEF
:4034C000F2DDFB680133FB60FB68132BE9DD012004F00EFB012004F047FB00BF1037BD4680BD00BF80B58CB000AF78600023FB62002387F82B3002F007FE0346202B76D1E3
:4035000003F0A2FE3D4B00221A6003F091FE2CE002F0FAFD0346202B20D102F007FE034687F8233097F82330022B0AD107F10C02FB6A134497F823201A70FB6A0133FB62C8
:403540000CE0FB6A002B09DD07F10C02FB6A134497F823201A70FB6A0133FB62274B1B68B3F5FA6F01DD002343E0FB6A0B2BCFDD234B0022DA71FB6ADBB2DB00DAB2204BC5
:403580001A727B68002B05D007F10C031846FFF77BFF2CE000237B6211E007F10C027B6A13441978164A7B6A134403F5B2730A461A70012003F0B0F97B6A01337B627B6ACC
:4035C0000B2BEADD02F0D4FD0E4B01221A600E4B00221A600A4B1B7843F00303DAB2084B1A70074B00229A70012387F82B3097F82B3018463037BD4680BD00BF14DCFF1F5E
:4036000024DCFF1F28C2FF1F54C2FF1F80B582B000AF0346FB710D4B1B78FA799A4210D0FB790C2B02D01A2B04D007E0002002F053FE03E0012002F04FFE00BF034AFB79A8
:40364000137000BF0837BD4680BD00BF24C2FF1F80B485B000AFF860B9607A603B60FB68BA681A60FB687A685A60FB680022DA82FB6800229A82FB6802229A61FB68002241
:40368000DA61FB6800221A62FB683A689A60FB680822DA6000BF1437BD4680BC704700BF80B584B000AF78607B689B8A9BB2002B37D07B68DB69013B7A68D361002B30DC22
:4036C0007B685B8A9BB203F00103002B03D0022002F002FE02E0032002F0FEFD7B685B8A9BB25B089AB27B685A827B689B8A9BB2013B9AB27B689A827B689B8A9BB2002BDB
:4037000009D07B689B6923F002027B689A617B680322DA6105E07B689B6943F002027B689A6102F05FFC0346FB737B68DB8A002B15D1FB7B002B60D17B6804221A627B6819
:40374000DB689AB27B689B689BB213449AB27B685B689BB213449AB27B68DA824DE07B681B6A013B7A681362002B46DCFB7B002B08D07B681B8A6FEA43436FEA53439AB27F
:403780007B681A827B681B8A5B089AB27B681A827B68DB8A013B9AB27B68DA827B68DB8A002B27D17B681B8A19467B689B68C3F107037A685268002A14BF01220022D2B26D
:4037C0009B1A41FA03F3DAB27B685A627B689B6903F00103002B06D07B689B6943F004027B689A6109E07B689B6943F001027B689A6102E07B6803221A6200BF1037BD4688
:4038000080BD00BF80B483B000AF0346FB71FB791B09DBB25AB2FB791B015BB213435AB297F9073053405BB2FB71FB799B08DAB2FB795340FB71FB795B08DAB2FB7953403E
:40384000FB71FB7903F00103DBB218460C37BD4680BC704780B584B000AF786039600023BB603B689BB25B00FB817B685B68012B1ED13B68DBB21846FFF7C4FF0346BB6053
:40388000BB68002B07D07B689B684FF4407202FA03F31BB206E07B689B684FF4007202FA03F31BB2B7F90E2013431BB2FB8130E07B685B68022B1ED13B68DBB21846FFF736
:4038C000A1FF0346BB60BB68002B07D07B689B684FF4007202FA03F31BB206E07B689B684FF4407202FA03F31BB2B7F90E2013431BB2FB810DE07B68DA687B689B681344F9
:40390000012202FA03F31AB2B7F90E3013431BB2FB8100BF7B689B6903F00203002BF9D072B67B689B6923F002027B689A6162B67B68FA895A827B680322DA617B685B6840
:40394000002B0CD07B68DB689AB27B689B689BB213449BB202339AB27B689A820BE07B68DB689AB27B689B689BB213449BB201339AB27B689A8200BF1037BD4680BD00BFBF
:4039800080B500AF0E4B93F86030184600F06AFA04F004F900F090F803F030FE01214FF41C7003F045FE04F04FFB00F09DFB054803F028FF03F0BCFF00F0A0FA00BF80BDEB
:4039C00024DCFF1FD540000080B584B000AF78607B6893F88020154B83F85F207B6893F88030802B03D97B68802283F880200023FB600FE07A68FB68134419780B4AFB68A5
:403A0000134461330A461A70012002F085FFFB680133FB607B6893F880301A46FB689A42E8DC00BF1037BD4680BD00BF24DCFF1F80B582B000AF1E4B93F85F201D4B83F828
:403A400080201C4B93F88030802B03D9194B802283F8802000237B600CE0154A7B68134461331978134A7B6813440A461A707B6801337B600F4B93F880301A467B689A429D
:403A8000EBDC0C4B012283F8812000F037F8094B002283F88120064B93F84A300133DAB2034B83F84A2000BF0837BD4680BD00BF24DCFF1FFCC3FF1F80B582B000AF04F0AD
:403AC00095F900237B600BE00B4A7B681344613300221A70012002F01FFF7B6801337B607B687F2BF0DD044B002283F85F2000BF0837BD4680BD00BF24DCFF1F80B5A2B0F6
:403B000000AF012003F022FD012003F03BFD04F019FA0A2002F0DEFE00233B7100237B71022387F8843097F884203B1D1146184604F0B6F9124B1B78532B0AD1104B93F810
:403B4000803019460E4804F0ABF93B79184604F0C9F9322002F0BEFE002003F013FD012003F0F4FC04F0D8F90A2002F0B3FE054B032283F85D2000BF8837BD4680BD00BFDD
:403B8000FCC3FF1F24DCFF1F80B582B000AF04F0C3F904F0E1F80346002B00F04C81AD4B93F84B300133DAB2AA4B83F84B2000237B600023FB700023BB7003F045FBA64BAF
:403BC00000221A6003F034FB04F0C6F80346062B40F23C819F4B93F84C300133DAB29D4B83F84C2004F05EF80346FB700DE0994AFB7882F8513004F0AFF80346002B00F031
:403C00001C8104F04FF80346FB70FB78532BEED1904B93F850300133DAB28E4B83F850200123BB7006E08C4B1B6842F21072934200F3058104F090F80346042BF3D9BB7858
:403C4000002B00F0FE8004F02DF80346FB70834AFB78137004F026F80346FB707F4AFB78937004F01FF80346FB707C4AFB78D37004F018F80346FB70784AFB781371FB78F7
:403C800003F00303DAB2754B5A71724B93F84E300133DAB26F4B83F84E20704BB3F90230062B40F3D08000237B606D4A7B68134453221A706A4A7B6813441978654A7B687F
:403CC000134403F5B2730A461A707B6801337B60624B1978624A7B6813440A461A70604A7B68134419785B4A7B68134403F5B2730A461A707B6801337B60584B9978584AF3
:403D00007B6813440A461A70554A7B6813441978504A7B68134403F5B2730A461A707B6801337B604D4BD9784D4A7B6813440A461A704B4A7B6813441978464A7B6813448A
:403D400003F5B2730A461A707B6801337B60434B1979434A7B6813440A461A70404A7B68134419783B4A7B68134403F5B2730A461A707B6801337B60384BB3F90230802B90
:403D800005DDFFF799FE354B00225A805EE0334BB3F90230DAB2324B83F880202CE003F0DBFF0346002B21D003F07CFF0346FB702B4A7B681344FA781A70294A7B681344A2
:403DC0001978244A7B68134403F5B2730A461A70224BB3F902305A1E7B689A4203D11F4AFB7893710FE07B6801337B601A4B1B6844F62062934228DC184BB3F902301A465E
:403E00007B689A42CBDC1648FFF7DEFD142002F061FD104B93F85E3043F00203DAB20D4B83F85E200B4B93F84F300133DAB2094B83F84F200AE000BF08E000BF06E000BF8D
:403E400004E000BF02E000BF00E000BF0837BD4680BD00BF24DCFF1F20C2FF1FE4C2FF1F60C2FF1F80B582B000AF0346FB71FB79013B062B35D801A252F823F0993E00006F
:403E8000A53E0000B13E0000BB3E0000C53E0000CF3E0000D93E0000012140F2712003F0F9F924E001214FF49C7003F0F3F91EE001219C2003F0EEF919E00121342003F0DA
:403EC000E9F914E00121192003F0E4F90FE001210C2003F0DFF90AE00121052003F0DAF905E001214FF41C7003F0D4F900BF03F0B7F900BF0837BD4680BD00BF80B500AFE9
:403F00000E4804F0D9F90D4804F0C4F9012000F06DF904F099F804F099F9002003F050FB012003F051FC064B00221A70054B00221A70054B00221A6000BF80BD4D3F0000B1
:403F4000E3C2FF1FF1C3FF1F5CC2FF1F80B582B000AF75E004F0DAF80346FB713E4B1B687F2B0EDC3D4B1B78012B0AD13A4B1B683B49FA79CA54384B1B680133364A13607E
:403F800002E0354B00221A60334B1B68002B0ED1FB79532B0BD1314B01221A702E4B1B682F4A5321D1542C4B01221A6048E02B4B1B78012B44D1284B1B68022B03D1294A03
:403FC000FB7913703CE0244B1B68032B03D1254AFB79937034E0204B1B68042B1ED1214AFB79D3701F4BB3F90230042B04DD1D4BB3F90230802B09DD1A4B00225A80164BA1
:4040000000221A60154B00221A7019E0154BB3F90230DAB2124B83F8802011E00E4B1B68042B0DDD0F4BB3F902301A460A4B1B689A4205DC0C4B01221A70084B00221A7087
:4040400004F072F8034603F02003002B82D100BF0837BD4680BD00BF5CC2FF1FF1C3FF1FECC2FF1FF4C3FF1FE3C2FF1F80B584B000AF78607B6893F88020154B83F8E220BB
:404080000023FB600FE07A68FB6813441978104AFB681344E4330A461A70022002F03CFCFB680133FB607B6893F880301A46FB689A42E8DC064B93F85E3043F02003DAB256
:4040C000034B83F85E2000BF1037BD4680BD00BF24DCFF1F80B400AF024B1B7800BFBD4680BC70476F64004080B582B000AF04F02DF8114B002283F8E2200F4B93F85E302E
:4041000023F02003DAB20C4B83F85E2000237B600BE0094A7B681344E43300221A70012002F0FAFB7B6801337B607B687F2BF0DD00BF0837BD4680BD24DCFF1F80B500AFA0
:40414000012003F041FB012003F03AFA04F090F8134B032283F8E120032002F0BBFB114B1B78532B09D10F4B93F8803019460D4804F028F8052002F0ADFB0B4B00221A70FC
:404180000A4B00221A700A4B00221A6004F05EF8002003F015FA012003F016FB00BF80BD24DCFF1F70C3FF1FE3C2FF1FF1C3FF1F5CC2FF1F80B500AF094B1B78012B0DD16B
:4041C000084B1B78662B03D1074800F027F902E00548FFF74BFF024B00221A7000BF80BDE3C2FF1F18DCFF1FECC2FF1F80B582B000AF0346FB71FB79013B062B35D801A2B4
:4042000052F823F0214200002D42000039420000434200004D420000574200006142000001214FF41C7003F003FA1EE0012140F2371003F0FDF918E001219B2003F0F8F968
:4042400013E00121332003F0F3F90EE00121192003F0EEF909E001210C2003F0E9F904E00121052003F0E4F900BF03F0C7F900BF0837BD4680BD00BF80B582B000AF1F4BDE
:4042800093F8E230FB70FB78802B25D800237B600CE01A4A7B681344E4331978184A7B6813440A461A707B6801337B60FA787B689A42EEDCFB787B6007E0114A7B6813447E
:4042C00000221A707B6801337B607B687F2BF4DD0B4AFB7882F88030094B93F88030002B07D0002003F004FCFFF728FF012003F0FFFB00BF0837BD4680BD00BF24DCFF1FE6
:4043000070C3FF1F80B582B000AF00237B6003F073F803467B607B68DAB23F4B83F857207B681B12DAB23C4B83F856203A4B93F8E130002B2ED0384B93F8E130042B1BD80C
:4043400001A252F823F000BF79430000794300005D4300007943000063430000FFF78CFF0AE02D4B93F8E3301846FFF73FFF2A4B032283F8E12000BF274B93F85E3003F09E
:404380002003002B06D1244B93F8E130022B01D0FFF710FF204B93F85D30002B38D01E4B93F85D30042B23D801A252F823F000BFF1430000F1430000C5430000F143000006
:4043C000DB430000144B93F854300133DAB2124B83F85420FFF72CFB0BE00F4B93F860301846FFF73FFD0C4B032283F85D2000E000BF094B93F85E3003F00203002B07D19D
:40440000054B93F85D30022B02D0FFF7BDFB00BF00BF0837BD4680BD24DCFF1F80B584B000AF78607B6893F88020184B83F88020164B93F88030802B03D9144B802283F831
:4044400080200023FB600BE07A68FB68134419780E4AFB6813440A461A70FB680133FB600A4B93F880301A46FB689A42ECDC074B012283F88120FFF741FB044B002283F882
:40448000812000BF1037BD4680BD00BFFCC3FF1F80B582B000AF304B1B78012B58D12E4B00221A702D4B1B68002B50D02B4B1B6841F2F442934246DC00237B6010E0284ADC
:4044C0007B6813441978274A7B68134403F5B2730A461A70012002F01FFA7B6801337B601E4B1B687A689A42E9DB1C4B00221A607B681B12DAB21B4BDA717B68DAB2194BA0
:404500001A727B681B12DAB2164B9A737B68DAB2144BDA73144B00221A60144B01221A60104B1B7843F00303DAB20E4B1A700D4B00229A700B4B93F853300133DAB2094B41
:4045400083F8532004E0054B00221A6000E000BF0837BD4680BD00BF08DCFF1F8CC4FF1F98C4FF1F24DCFF1F54C2FF1F28C2FF1F80B500AF0D4B00221A600D4803F09CFEA2
:404580000B4803F087FE0620FFF730FE03F05CFD03F05CFE002003F013F8012003F014F9044B00221A7000BF80BD00BF8CC4FF1FB945000008DCFF1F80B582B000AFB6E03E
:4045C00003F0A4FD0346FB715F4B1B6841F2F342934204DC5C4B1B685C49FA79CA545A4B1B68002B17D1594B1A78594B1A70584B1B78202B0ED0202B04DC0C2B0AD00E2B55
:4046000008D09DE0382BC0F29B803A2B02DD5C2B00D095E000BF4C4B1B68012B35D14A4B1B684A4AD35C5BB2002B18DA494B01221A70454B1B68454AD35C03F07F03464ABE
:404640001360464B00221A60434B1B680233444A13603D4B1B6801333B4A136071E03D4B00221A70384B1B68384AD35C03F07F033A4A1360394B1B680233384A1360324BC6
:404680001B680133304A13605BE0324B1B78012B29D1314B1B68002B25DD2B4B1B68012B21DD2E4B1B681B02274A126827498A5C13442A4A1360284B1B68013B264A1360E9
:4046C000254B1B68002B0ED1244B1A68244B1B681344224A1360214B1B68002B03D11A4B00221A602DE0184B1A681C4B1B689A420ADC154B1B6841F2F442934204DC124BB9
:404700001B680133104A1360144B1B68002B0ED00D4B1A68114B1B689A4205DA0A4B1B6841F2F342934202DD0E4B01221A7003F0FBFC034603F02003002B7FF441AF00E0E5
:4047400000BF0837BD4680BD8CC4FF1F98C4FF1F80C4FF1F88C4FF1F84C4FF1F90C4FF1F94C4FF1F08DCFF1F80B400AF074B00221A60074B00221A70064B00221A60064BEA
:4047800000221A6000BFBD4680BC70478CC4FF1F08DCFF1F28C2FF1F90C4FF1F80B582B000AF78603960012002F00AFF03F02CFD03F05EFD142002F0AFF83B68DBB2194655
:4047C000786803F0FFFC782002F0A6F803F03EFD002002F0F5FEFFF7C7FF03F0B7FC00BF0837BD4680BD00BF80B582B000AF01F0EBFB0346FB71FB79002B03D0022001F00A
:404800006BFD02E0032001F067FD4FF4C87002F083F800BF0837BD4680BD00BF80B586B000AF786039603B680333FB60FB68142B01DD1423FB6001F0BBFB204B00221A7042
:404840001F4B00221A6001F0A7FB012001F044FD022001F041FD00237B6120E07B697A6813441B78FB7200233B6112E0FFF7BCFF97F90B30002B02DAFFF7B6FF03E04FF4DA
:40488000C87002F049F8FB7A5B00FB723B6901333B613B69072BE9DD7B6901337B617A69FB689A42DADB022001F016FDA52002F011F800BF1837BD4680BD00BF0CDCFF1F7C
:4048C00010DCFF1F90B595B000AF78603960002003F03EFE1523BB630023BB64002387F847300123FB64002387F83F308F4B00221A6000233B6408E007F120023B6C134438
:4049000000221A703B6C01333B643B6C132BF3DD3B68002B00F09C8002F096FC844B00221A6002F085FC93E000F084FA3B68012B09D17F4B1B68B3F5FA6F04DD7C4B0022AE
:404940001A600023EEE002F0E9FD7A4B1B687B6302F0D8FD7B6B002B7ADD3B68002B06D002F072FC724B00221A6002F061FC02F0D5FD704B00221A6002F0C4FDFB6C072B8C
:4049800004DD0023FB64BB6C0133BB6497F83F30012B1BD1B86B06F0FDFF4FF00002664B07F05EF803460C461846214607F06AFA02467B6B9A4209DC7B6B3F2B06DC0023B1
:4049C00087F84730FB6C0133FB6441E0B86B06F0E1FF4FF00002584B07F042F803460C461846214607F04EFA02467B6B9A4228DD97F84730013387F8473097F84730012B88
:404A000026D907F12002BB6C13441B785AB2FB6CC3F10703012101FA03F35BB213435BB2D9B207F12002BB6C13440A461A70FB6C0133FB64002387F84730012387F83F3076
:404A400006E07B6B3F2B03DD97F83F30012B08D0BB6CDA00FB6C1A447B689A427FF764AF00E000BF7B681B12DAB2344BDA717B68DAB2324B1A723B68002B20D0BB6C042B7F
:404A80004FDD00233B7200233B640EE03B6C013307F120013A6C0A44127807F150010B4403F8482C3B6C01333B643B6C132BEDDD07F10803B96C1846FFF7B0FE31E000234A
:404AC0003B6411E007F120023B6C134419781B4A3B6C134403F5B2730A461A70012001F01BFF3B6C01333B643B6C132BEADD134B1B7843F00303DAB2104B1A700B4B0122BD
:404B00001A600F4B00221A600C4B00229A700B4B93F857300133DAB2084B83F85720012300E0002318465437BD4690BD28C2FF1F14DCFF1F28DFFF1F0000E83F24DCFF1F35
:404B400054C2FF1F80B584B000AF7860396018E03B68402BA8BF4023FB6000BF04F0C4F90346002BFAD0FB689BB21946786804F05BF9FB687A6813447B603A68FB68D31AFF
:404B80003B603B68002BE3D100BF1037BD4680BD80B58CB000AF01F033FC584B0022DA71564B1A221A72554B1B7ADB08DBB23B62524B1B7A1A463B6ADB00D31AFB613B6A97
:404BC000C3F112037B62FB69002B02DD7B6A013B7B620023FB620FE03A1DFB6A134400221A703A1DFB6A13441B7819464448FEF731FEFB6A0133FB62FA6A7B6A9A42EBDBDF
:404C00000122FB6902FA03F3DBB2BB743B4B93F864315AB2FB69C3F10803FF2101FA03F35BB213405BB2FB76FA7EFB69C3F1080342FA03F3FB763A1DFB6A13441A78FB7E1F
:404C40001343D9B23A1DFB6A13440A461A703A1DFB6A13441B7819462948FEF7FBFDFB6A0133FB620123BB6236E0BB6A013B234A134493F864311A46FB6902FA03F3D9B230
:404C80003A1DFB6A13440A461A701C4ABB6A134403F5B2731B781A46FB69C3F1080342FA03F3FB763A1DFB6A13441A78FB7E1343D9B23A1DFB6A13440A461A703A1DFB6AA7
:404CC00013441B7819460E48FEF7C4FDFB6A0133FB62BB6A0133BB627B6AC3F11202BB6A9A42C2DC01F07AFB3A1DFB6A134400221A7000BF3037BD4680BD00BF24DCFF1F3F
:404D00002CC2FF1F80B582B000AF0346FB710F4B1B78FA799A4215D0002003F06BFC002003F04EFC4FF47A7001F0D4FDFB79184603F046FCFB79184603F05CFC034AFB79D0
:404D4000137000E000BF0837BD4680BDCCC0FF1F80B582B000AF03460A46FB711346BB710021512006F07EF8FB79184606F07CF9BB79184606F078F906F03EF900BF0837E9
:404D8000BD4680BD80B582B000AF03463960FB711346BB710021512006F064F8FB79184606F062F906E03B685A1C3A601B78184606F05AF9BB795A1EBA71002BF3D106F034
:404DC0001BF900BF0837BD4680BD00BF90B587B000AFF860B9607A600021512006F042F8FB68DBB2184606F03FF90121512006F0A5F800237B610AE0BC68631CBB60012000
:404E000006F082F9034623707B6901337B617B685A1E7B699A42EFDCBC68631CBB60002006F072F90346237006F0E6F800BF1C37BD4690BD80B586B000AF03F0A9FD0346FE
:404E4000002B06D003F098FD0346002B01D003F097FF04F01FF803467B617B69002B77D03D4B1A683D4B1B68D31A642B02DD3C4B00221A60384B1B68384A1360384B1B68C1
:404E8000384A1344184604F041F8354B1A687B691344334A1360334BDB783B61304B1B68032B55DD2F4B5B781B022E4A92781343FB602C4B1B783A2B12D12A4B5B78552BDF
:404EC0000BD1284BAA229A70002006F085FA0021552006F0D9F901F0EDFC214B00221A60204B1B78382B12D11F4BBB60FB68BA6813443A6919461D4807F018F83B690433CA
:404F000019461848FFF71EFE154B00221A60154B1B78392B1CD1124B1B681A1D3B699A4216DB114B7B60FB687A6813443A690F49184606F0FBFF00BF03F0D6FF0346002BC1
:404F4000FAD00421074803F06FFF054B00221A6000BF1837BD4680BD20DCFF1F04DFFF1F94C1FF1F00DEFF1F24DCFF1F04DEFF1F80B582B000AF7860012002F0F5FD7968DC
:404F80000648FFF74BFC064B00229A70002002F0EBFD00BF0837BD4680BD00BF88DDFF1F24DCFF1F80B500AF002002F0DDFD074B5B7A19460648FDF7B9FF044B00229A7086
:404FC000012002F0D1FD00BF80BD00BF24DCFF1F88DDFF1F80B582B000AF78600F4B01221A600F4B00221A700E4B1B78002B04D1FFF7BEFA0B4B01221A7079680A48FFF7C3
:40500000CDFB0A4B00221A60094B00221A70044B02229A7000BF0837BD4680BD54C2FF1F24DCFF1F00C2FF1F88DDFF1F8CC4FF1F08DCFF1F80B500AF012002F095FD0C2022
:40504000FEF7E4FA0548FEF71FFA054B00229A70002002F089FD00BF80BD00BF88DDFF1F24DCFF1F80B500AF0C4B1B68002B08D10B4B1B68012B04D1094B00221A60FFF710
:4050800073FB084B1B78002B04D1FFF771FA054B01221A70FFF7FCF900BF80BD28C2FF1F54C2FF1F00C2FF1F80B584B000AFDE4B9B78FB72DC4BDA78DC4B1A70DA4BDB79D7
:4050C0001B02D94A127A13447B60FB7A032B0DD1D64B1B78002B02D1D44B06221A70D24B5B7A002B02D1D04B1A225A72CF4B1B78062B07D0CD4B1B786A2B03D0CB4B1B782A
:405100009C2B02D106F054FA01E006F06FFAC74B1B78052B03D0C54B1B78692B02D102F0F1F901E002F0FAF9C04B1B78023B9A2B00F2C78201A252F823F000BFA953000067
:4051400089560000ED550000F7530000FF540000C3560000C3560000C3560000C3560000C3560000C3560000C3560000C3560000C3560000C3560000C3560000C356000045
:40518000C3560000C3560000C3560000C3560000C3560000C3560000C3560000C3560000C3560000C3560000C3560000C3560000C3560000C3560000C3560000C35600005F
:4051C000C3560000C3560000C3560000C3560000C3560000C3560000C3560000C3560000C3560000C3560000C3560000C3560000C3560000C3560000C3560000C35600001F
:40520000C3560000CD5300008956000037560000D954000043550000C3560000C3560000C3560000C3560000C3560000C3560000C3560000C3560000C3560000C35600000A
:40524000C3560000C3560000C3560000C3560000C3560000C3560000C3560000C3560000C3560000C3560000C3560000C3560000C3560000C3560000C3560000C35600009E
:40528000C3560000C3560000C3560000C3560000C3560000C3560000C3560000C3560000C3560000C3560000C3560000C3560000C3560000C3560000C3560000C35600005E
:4052C000C3560000C3560000C3560000A95300009F560000595600007554000067550000C3560000C3560000C3560000C3560000C3560000C3560000C3560000C356000076
:40530000C3560000C3560000C3560000C3560000C3560000C3560000C3560000C3560000C3560000C3560000C3560000C3560000C3560000C3560000C3560000C3560000DD
:40534000C3560000C3560000C3560000C3560000C3560000C3560000C3560000C3560000C3560000C3560000C3560000C3560000C3560000C3560000C3560000C35600009D
:40538000C3560000C3560000C3560000C3560000C3560000C3560000C3560000C3560000C35600009955000002F06EFA0346002B01D1FEF7E5FA1C4B93F855300133DAB273
:4053C000194B83F85520FEF79DFF91E1FB7A042B02D17868FFF7FEFDFB7A022B01D1FFF741FE02F051FA0346002B01D1FEF7C8FAFEF788FF7CE10E4B1B78002B0DD0052138
:405400000C48FFF70BFA00F0D3FD094B00221A70094B00221A6000F0BFFDFB7A022B21D1012002F065FB0FE024DCFF1F18DCFF1F0CDCFF1FD0C0FF1F10DCFF1FBB4B9B78C4
:40544000022B0BD1FFF7F6FCB84B5B7A00211846FFF738FA0346002BF0D000E000BF002002F046FBFB7A032B40F02D817868FFF77FFD28E1AE4B1B78002B0DD00521AD480B
:40548000FFF7CCF900F094FDA94B00221A70AA4B00221A6000F080FDFB7A002B14D1012002F026FB0023FB6008E0A04B5B7A01211846FFF707FAFB680133FB60FB68092B33
:4054C000F3DD002002F014FBFB7A032B40F0FD807868FFF74DFDF8E0FB7A032B02D17868FFF746FDFB7A022B01D1FFF7BBFDFB7A042B40F0EC807868FFF76CFDE7E0FB7A07
:40550000022B17D1012002F0F3FA05E0874B9B78022B0BD1FFF78EFC844B5B7A00211846FDF752FD0346002BF0D000E000BF002002F0DEFAFB7A032B40F0CB80FFF732FD9D
:40554000C7E0FB7A042B02D17868FFF743FDFB7A022B01D1FFF786FDFB7A032B40F0BB80FFF720FDB7E0FB7A002B0ED1012002F0BFFA6E4B5B7A01211846FDF725FD03469A
:40558000012B02D1002002F0B3FAFB7A032B40F0A480FFF707FDA0E0FB7A022B17D1012002F0A6FA05E0614B9B78022B0BD1FFF741FC5E4B5B7A00211846FDF705FD034663
:4055C000002BF0D000E000BF002002F091FAFB7A002B05D1554B5B7A01211846FDF7F4FCFB7A032B7BD1FFF7DDFC78E0FB7A022B1BD1012002F07CFAFDF72AFF0C20FEF7CA
:4056000005F804E0FB7A022B08D1FFF713FC0020FDF768FF0346002BF4D000E000BF002002F066FA012000F057FEFB7A032B58D1FFF700FD55E0FB7A032B01D1FFF7FAFC8A
:40564000FB7A022B01D1FFF70DFDFB7A042B4AD17868FFF7BFFC46E0FB7A002B0ED1012002F046FA0C20FDF7D1FF0120FDF73AFF002002F03DFA012000F02EFEFB7A032B07
:4056800033D1FFF7D7FC30E0FB7A022B01D1FFF7E9FCFB7A042B02D17868FFF79BFCFB7A032B24D1012002F05FFA012000F014FEFFF76EFA1D4B00229A70002002F054FA61
:4056C00015E000BF14E000BF12E000BF10E000BF0EE000BF0CE000BF0AE000BF08E000BF06E000BF04E000BF02E000BF00E000BFFB7A053B032B62D801A252F823F000BFD7
:4057000095570000AD5700003D57000011570000064B93F864311846FFF7F4FA034B01221A70024B00229A7049E000BF24DCFF1F0CDCFF1FD0C0FF1F10DCFF1F284B93F894
:405740006431FB70FB7803F00103002B0CBF01230023DBB2184605F02FFDFB7803F00203002B0CBF01230023DBB2184605F042FDFB7803F00403002B0CBF01230023DBB278
:40578000184605F055FD164B01221A70144B00229A7014E0082213490020FFF717FB104B01221A700E4B00229A7008E008220D490020FFF7E7FA0A4B00229A7000BFFB7A68
:4057C000012B09D1064B93F864310133DAB2044B83F8642101F07AFB00BF1037BD4680BD24DCFF1F88DDFF1F80B582B000AF786039603A680021786806F0A3FB00BF08371A
:40580000BD4680BD80B584B000AFF860B9607A607A68B968F86806F089FB00BF1037BD4680BD00BF80B483B000AF0346FB71FEE780B487B000AF7860396000233B610023C6
:405840007B6127E07B699B007A6813441B68BB60BB68FB73BB6823F0FF03BB6014E03B695B003A6813441B781A46BB68134419463B695B003A6813445B780B703B69013335
:405880003B61FB7B013BFB73FB7B002BE7D17B6901337B617B69282BD4D900BF1C37BD4680BC704780B582B000AF524B01221A80514B18221A70514B07221A80504B1822EF
:4058C0001A70504B5F221A804F4B18221A704F4B40F2DF121A804E4B18221A704D4B4FF41C721A804C4B18221A704C4B40F2E1421A804B4B18221A704A4B4FF6FF721A8033
:40590000494B18221A70494A494B1344042219464848FFF777FF484B06221A70474B52221A70474B474A1278D2B21A70464B4FF4E2621A80454B41F251221A800023FB7070
:4059400019237B6014E0FB785B00DAB2404B1B78DBB203F00103DBB21343DBB203F00303FB704FF4F07005F05BFE7B68013B7B607B68002B02D0FB78032BE4D17B68002B1D
:4059800002D10320FFF74EFF324B4FF480721A80304B07221A70304B00221A702F4B48221A702C4B00221A702D4B00221A702D4B02221A702C4B04221A702C4A2B4B1B788C
:4059C000DBB243F07F03DBB21370294A284B1B78DBB243F00103DBB21370264A254B1B78DBB263F07F03DBB2137000BF0837BD4680BD00BF80400040824000408440004020
:405A000086400040884000408A4000408C4000408E40004090400040924000409440004096400040984000409A400040800500007C140048004100400043004000420040D3
:405A4000A14600400F01004922420040204200402542004004400040064000400840004009400040014000400B400040A2430040A1430040A043004080B483B000AF0B4BBA
:405A80001B78FB710A4AFB7903F00703DBB21370084AFB791B09DBB21370074B44221A7000BF0C37BD4680BC704700BFCF0100496E5800406F5800407658004080B586B080
:405AC00000AF72B60023FB7513E0FA7D13465B0013445B00594A13443B613B691A683B699B889BB219461046FFF77EFEFB7D0133FB75FB7D0F2BE8D90023FB751CE0FA7DE0
:405B000013469B0013445B004D4A1344FB60FB681B68BB60FB685B687B60FB681A7A5B7A1B0213437B807B881A467968B868FFF769FEFB7D0133FB75FB7D0A2BDFD9414B6C
:405B400003F190431A463F4B03F19043A43319461046FFF76DFE3C4A3B4B1B78DBB243F00203DBB21370394A384B1B78DBB243F00203DBB21370364A354B1B78DBB243F08B
:405B80004003DBB21370334A324B1B78DBB243F01003DBB213702B4A2F4B13440A2219462E48FFF72FFE274A2D4B13440A2219462C48FFF727FE234A2B4B1344052219469E
:405BC0002A48FFF71FFE1F4A294B13440A2219462848FFF717FE1B4A274B13440A2219462648FFF70FFE174A254B13440A2219462448FFF707FE134A234B13440A221946F5
:405C00002248FFF7FFFD224A214B1B78DBB243F00803DBB213701F4B61221A70FFF742FE1C4BC1221A70FFF727FF0E2208491A48FFF7E8FD00BF1837BD4680BD58BF000002
:405C4000B8BF0000800500000350014013500140A0430040C24300402C1400480051004038140048C051004044140048CB5100404C140048F0510040581400481051004010
:405C8000641400482051004070140048305100402243004000480040B043004080B500AF06F018F903461B680C2B00D1FEE7FEE780B586B000AF224B7B61224B3B61204B26
:405CC0007B6135E03B691B68FB603B695B68BB603B699B683B6000237B600CE0FB681A68BB681A60BB680433BB60FB680433FB607B6804337B607A683B689A42EED13B69DE
:405D0000DB683B6000237B6008E0BB6800221A60BB680433BB607B6804337B607A683B689A42F2D13B6910333B617B69013B7B617B69002BC6D106F0D3F8FCF7BBFFFEE7DA
:405D400001000000C0C1000080B582B000AF184B184A1A60184A184B1B6843F40073136000237B600FE07B68032B04D8134A7B6852F8233000E0124B12497A6841F822302B
:405D80007B6801337B607B682F2BECD90E4B1B78DAB20E4B1A700E4B0A4A1A60FFF78EFE0C4B00221A6000BF0837BD4680BD00BF0CED00E00004FA0514ED00E0002C000012
:405DC0009D5C000000C0FF1FBC760040C4C0FF1F08ED00E0C0C0FF1F80B485B000AF0346FB710B4B1B78DBB223F00803FB730849FB79DB00DBB203F00803DAB2FB7B1343F3
:405E0000DBB20B7000BF1437BD4680BC704700BF2051004080B485B000AF0346FB710B4B1B78DBB223F01003FB730849FB791B01DBB203F01003DAB2FB7B1343DBB20B703F
:405E400000BF1437BD4680BC704700BF0051004080B582B000AF786000F0AAF8786800F077F8072000F086F800F096F800BF0837BD4680BD80B500AF00F0F6FA2C4B1B78F4
:405E8000362B04DC342B32DA052B06D041E0382B2DD0382B01DB692B3BD1264B1B78002B16D0254B1B780133DAB2234B1A70224B1B781E2B02D1012002F04AFB1E4B1B7890
:405EC000232B05D9002002F043FB1A4B00221A701A4B1B680133194A1360184B1B6841F28832934212D1164B01221A700EE0154B1B680133134A1360124B1B6841F28732E9
:405F0000934205DD0F4B00221A6001E000BF00E000BF0D4B1B78002B04D00C4B1B6801330A4A1360FDF7BEF9FDF75AFA00BF80BD18DCFF1F2CDFFF1F20DFFF1F10DCFF1F65
:405F40000CDCFF1F1CDCFF1F38DFFF1F34DFFF1F80B485B000AF7860054B1B68FB60FB6884337A681A6000BF1437BD4680BC704708ED00E080B483B000AF0346FB71054A1C
:405F8000FB795B01DBB2137000BF0C37BD4680BC704700BF11E400E080B400AF034B4FF400321A6000BFBD4680BC704700E100E080B400AF034B4FF400321A6000BFBD46FD
:405FC00080BC704780E100E080B400AF044B1B78DBB203F00103DBB21846BD4680BC70470151004080B400AF054B1B78DBB203F002035B08DBB21846BD4680BC704700BF63
:406000002151004080B500AF064B1B78002B04D100F00AF8034B01221A7000F02BF800BF80BD00BF98C1FF1F80B500AF0C4B71221A700C4B00221A700B4B06221A700B4BFB
:4060400047221A700A4B00221A7000F041F8034623F01803DBB2184600F046F800BF80BD81640040856400402F6400403F6400408E64004080B582B000AF05F0D9FA03461A
:40608000FB71104A0F4B1B78DBB243F02003DBB213700D4A0C4B1B78DBB243F01003DBB213700A4A094B1B78DBB243F01003DBB21370FB79184605F0BFFA00BF0837BD4677
:4060C00080BD00BF91640040956400409E64004080B400AF034B1B78DBB21846BD4680BC704700BF7B64004080B483B000AF0346FB71044AFB79137000BF0C37BD4680BC20
:40610000704700BF7B64004080B483B000AF064B1B78DBB203F07F03FB71FB7918460C37BD4680BC704700BF6564004080B483B000AF0023FB710C4B1B78BB71BB7903F0AD
:406140002003002B09D0094B1B78FB71BB7903F01E03002B01D00023FB71FB7918460C37BD4680BC704700BF656400404564004080B582B000AF05F05BFA0346FB710C4AAB
:406180000B4B1B78DBB243F00103DBB21370084A074B1B78DBB223F00103DBB21370FB79184605F049FA00BF0837BD4680BD00BF9564004080B483B000AF0346FB7100BF6D
:4061C000074B1B78DBB203F00403002BF8D1054AFB79137000BF0C37BD4680BC704700BF6E6400404E64004080B485B000AF0346FB710B4B1B78DBB223F00403FB73084922
:40620000FB799B00DBB203F00403DAB2FB7B1343DBB20B7000BF1437BD4680BC704700BF0051004080B485B000AF0346FB710B4B1B78DBB223F00803FB730849FB79DB00A9
:40624000DBB203F00803DAB2FB7B1343DBB20B7000BF1437BD4680BC704700BF0051004080B485B000AF0346FB710B4B1B78DBB223F02003FB730849FB795B01DBB203F05B
:406280002003DAB2FB7B1343DBB20B7000BF1437BD4680BC704700BFF051004080B485B000AF0346FB710B4B1B78DBB223F00403FB730849FB799B00DBB203F00403DAB2DD
:4062C000FB7B1343DBB20B7000BF1437BD4680BC704700BF2051004080B483B000AF0346FB71044AFB79137000BF0C37BD4680BC704700BF7264004080B500AF214A214BC2
:406300001B78DBB203F00103DBB213701E4A1E4B1B78DBB223F00303DBB213701B4A1B4B1B78DBB223F03003DBB21370174A174B1B78DBB243F03003DBB21370134A134BC7
:406340001B78DBB223F00F03DBB213700F4A0F4B1B78DBB243F00F03DBB213700C4A0C4B1B78DBB243F00103DBB213706A2000F087F86A2000F096F8082000F065F800BF57
:4063800080BD00BF004F0040024F00400B4F0040014F004080B400AF0D4A0D4B1B78DBB243F00103DBB213700A4A0A4B1B78DBB243F00103DBB21370074A074B1B78DBB2CB
:4063C00043F00103DBB2137000BFBD4680BC7047A3430040B3430040004F004080B500AF064B1B78002B04D1FFF786FF034B01221A70FFF7CFFF00BF80BD00BF9AC1FF1F80
:4064000080B400AF0D4A0D4B1B78DBB223F00103DBB213700A4A0A4B1B78DBB223F00103DBB21370074A074B1B78DBB223F00103DBB2137000BFBD4680BC7047004F004065
:40644000A3430040B343004080B483B000AF0346FB71044AFB79137000BF0C37BD4680BC704700BF034F004080B400AF034B1B78DBB21846BD4680BC704700BF034F004071
:4064800080B485B000AF0346FB80FB88FB81044AFB89138000BF1437BD4680BC704700BF044F004080B483B000AF0346FB80044AFB88138000BF0C37BD4680BC704700BF55
:4064C000064F004080B582B000AF8B2000F05CF88B2000F075F805F0ABF80346FB710A4A094B1B78DBB243F01003DBB21370FB79184605F0A1F800F073F8012000F028F8A3
:4065000000BF0837BD4680BD9064004080B400AF054A054B1B78DBB263F07F03DBB2137000BFBD4680BC70477464004080B500AF064B1B78002B04D1FFF7C4FF034B0122A3
:406540001A70FFF7E3FF00BF80BD00BF9BC1FF1F80B483B000AF0346FB71044AFB79137000BF0C37BD4680BC704700BF8064004080B400AF034B1B78DBB21846BD4680BCAB
:40658000704700BF6064004080B483B000AF0346FB71044AFB79137000BF0C37BD4680BC704700BF2364004080B400AF034B1B78DBB21846BD4680BC704700BF4364004088
:4065C00080B483B000AF0346FB71044AFB79137000BF0C37BD4680BC704700BF0364004080B500AF01E0FFF7DFFFFFF7C1FF034603F00803002BF6D100BF80BD80B582B042
:4066000000AF786000F048F8786800F015F8072000F024F800F034F800BF0837BD4680BD80B500AF0348FDF73BF8FFF7A1FF00BF80BD00BF2CC2FF1F80B485B000AF786096
:40664000054B1B68FB60FB6840337A681A6000BF1437BD4680BC704708ED00E080B483B000AF0346FB71054AFB795B01DBB2137000BF0C37BD4680BC704700BF00E400E070
:4066800080B400AF034B01221A6000BFBD4680BC704700BF00E100E080B400AF034B01221A6000BFBD4680BC704700BF80E100E080B582B000AF00F01FFA4FF0FF337B60E9
:4066C00000F086FB0346002B24D1012000F04EFB0346072B1BD10221124800F031FA0346022B0DD100237B6002E0012000F014F90D4B1B78DBB203F00203002BF5D006E0CF
:40670000094B1B78DBB203F00203002BE3D000F093FB01E004237B607B6818460837BD4680BD00BF08DFFF1F2247004080B582B000AF00F0E1F900F04BFB0346002B23D103
:4067400000F0A2FB78607B68072B1AD102E0012000F0E2F8104B1B78DBB203F00203002BF5D00D4B1B78DBB203F00203002B08D0094B1B78DBB29B08DBB2002B01D100234D
:406780007B6000F059FB01E004237B607B6818460837BD4680BD00BF2247004080B582B000AFFFF7C3FF78607B68002B02D1FFF77FFF78607B6818460837BD4680BD00BF5D
:4067C00080B582B000AF04F033FF0346FB71194A184B1B78DBB243F00803DBB21370164A154B1B78DBB243F00803DBB21370134BC8221A70124A124B1B78DBB243F0100355
:40680000DBB213700F4A0F4B1B78DBB243F01003DBB2137000BF0C4B1B78DBB203F02003002BF8D0FB79184604F006FF00BF0837BD4680BDA0430040B043004001470040F9
:40684000AC430040BC4300400047004080B400AF094A094B1B78DBB243F00103DBB2137000BF054B1B78DBB203F00203002BF8D000BFBD4680BC70470247004080B400AFF7
:40688000054A054B1B78DBB223F00103DBB2137000BFBD4680BC70470247004080B483B000AF0346FB7101BE00BF0C37BD4680BC704700BF80B400AF054A054B1B78DBB2D1
:4068C00043F00103DBB2137000BFBD4680BC7047F646004080B582B000AF786008E00C4B1B68184604F09CFE7B68A3F500437B607B68B3F5004FF2D8064B1B687A6802FB94
:4069000003F3184604F08CFE00BF0837BD4680BDE8C0FF1FE0C0FF1F80B582B000AF0346FB80FB88054A127802FB03F3184604F077FE00BF0837BD4680BD00BFE4C0FF1F14
:4069400080B584B000AF03463960FB710F4B1B68FB60FB791F2B02D90020FFF79FFFFB7903F01F0310339B00FA6813441B68BB60FB7903F01F0310339B00FA6813443A68AC
:406980001A60BB6818461037BD4680BD08ED00E080B582B000AF03460A46FB711346BB71BB79072B02D90020FFF778FFFB791F2B02D90020FFF772FFFB7903F01F0303F175
:4069C000604303F56443BA795201D2B21A7000BF0837BD4680BD00BF80B483B000AF7860264B1B78DBB21A467B681A60244B1B78DBB21B027A6812681A437B681A60214B5A
:406A00001B78DBB21B047A6812681A437B681A601D4B1B78DBB21B067A6812681A437B681A607B680433194A1278D2B21A60184B1B78DBB21A027B680433796804310968FD
:406A40000A431A60134B1B78DBB21A047B6804337968043109680A431A600F4B1B78DBB21A067B6804337968043109680A431A6000BF0C37BD4680BC704700BF0301004945
:406A800004010049EC460040020100490101004900010049050100490601004980B584B000AF0346FB7104F0C3FD0346FB73104B1B78DAB20F4B1B781343DAB20D4B1A7033
:406AC0000C4B1B7803F00703BB73FB79DB43DAB2084B1B781340DAB2064B1A70FB7B184604F0AAFDBB7B18461037BD4680BD00BF90430040DEC1FF1F80B582B000AF04F0A0
:406B000097FD0346FB710C4A0B4B1B78DBB243F00803DBB21370094A084B1B78DBB243F00803DBB21370FB79184604F085FD00BF0837BD4680BD00BFA0430040B043004043
:406B400080B584B000AF78600B46FB700023FB7313E00120FFF7E0FE0C4B1B78DBB203F00103002BF5D0FB7B7A681344084A1278D2B21A70FB7B0133FB73FA7BFB789A421D
:406B8000EAD3FB7B18461037BD4680BD224700402047004080B485B000AF3A601A460346FB710B46BB801346BB710723FB60FB793E2B02D8BB791F2B05D9FB793F2B45D901
:406BC000BB790F2B42D8254B1B78DBB203F00203002B38D0224BB6221A70214BD4221A701F4B01221A701D4B1B78DBB203F00203002B25D11A4AFB791370194ABB881B0AB9
:406C00009BB2DBB203F00103DBB21370144BBA88D2B21A70124ABB79013BDBB213700023FB7208E00E49FB7A3A6813441B780B70FB7A0133FB72FA7ABB799A42F2D307E057
:406C40000923FB6004E00423FB6001E00123FB60FB6818461437BD4680BC7047224700402047004090B484B000AF0446084611461A462346FB710346BB800B46BB711346D0
:406C8000FB700723FB601B4B1B78DBB203F00203002B26D0184BB6221A70174BD8221A70154B05221A70134B1B78DBB203F00203002B13D1104AFB7913700F4ABB881B0AF2
:406CC0009BB2DBB213700C4BBA88D2B21A700A4ABB791370084AFB78137004E00923FB6001E00423FB60FB6818461037BD4690BC704700BF224700402047004080B485B0E9
:406D000000AF03460A46FB711346BB710723FB60144B1B78DBB203F00203002B19D0124BB6221A70104BDB221A700F4B08221A700C4B1B78DBB203F00203002B06D10A4A96
:406D4000FB791370084ABB79137004E00923FB6001E00423FB60FB6818461437BD4680BC704700BF224700402047004080B485B000AF0346FB710723FB60134B1B78DBB264
:406D800003F00203002B16D0104BB6221A700F4BE1221A700D4B0E221A700B4B1B78DBB203F00203002B03D1084AFB79137004E00923FB6001E00423FB60FB681846143784
:406DC000BD4680BC704700BF224700402047004080B582B000AF04237B6004F029FC0346FB70124B1B78002B16D1104B01221A7000237B600E4B1B6803F00103002B0BD0C8
:406E00000B4A0B4B1B6823F00103136000BF00BF00BF084B01221A60FB78184604F00CFC7B6818460837BD4680BD00BFE0C1FF1F04000840E4C1FF1F80B582B000AF04F049
:406E4000F7FB0346FB710D4B00221A700C4B1B68012B0BD10B4A0B4B1B6843F00103136000BF00BF00BF064B00221A60FB79184604F0E2FB00BF0837BD4680BDE0C1FF1FE3
:406E8000E4C1FF1F0400084080B483B000AF07237B600C4B1B78DBB203F00203002B09D0094BB6221A70084BE0221A70064B0D221A7001E004237B607B6818460C37BD462C
:406EC00080BC7047224700402047004080B582B000AF354B4FF400421A60344B1B78DAB2334B9A70334B1B78DAB2314B1A71324B1B78DAB22E4B5A712F4B1B78DBB29BB229
:406F00001B029AB22B4B1B78DBB29BB213439BB20133FB80294A294B1B78DBB223F00103DBB21370FB88184604F07AFB04F080FB03467B71224A224B1B78DBB223F0040384
:406F4000DBB213701F4A1F4B1B78DBB223F00403DBB213707B79184604F06EFB174A174B1B78DBB243F00103DBB213700F4B104A92781A700D4B0E4A92781A700D4B0C4AD1
:406F800012791A700C4B0A4A52791A700E4B4FF400421A600D4B00221A700D4B00221A7000BF0837BD4680BD80E100E0CA490040ECC0FF1FDB490040DC490040D649004098
:406FC000A5430040B543004080E200E01CDFFF1F14DFFF1F80B500AF214A214B1B78DBB203F00103DBB213701E4A1E4B1B78DBB223F00303DBB213701B4A1B4B1B78DBB2DE
:4070000023F03003DBB21370174A174B1B78DBB243F03003DBB21370134A134B1B78DBB223F00F03DBB213700F4A0F4B1B78DBB243F00F03DBB213700C4A0C4B1B78DBB29C
:4070400043F00103DBB21370182000F063F8182000F072F8082000F041F800BF80BD00BF0C4F00400E4F0040174F00400D4F004080B400AF0D4A0D4B1B78DBB243F0020344
:40708000DBB213700A4A0A4B1B78DBB243F00203DBB21370074A074B1B78DBB243F00103DBB2137000BFBD4680BC7047A3430040B34300400C4F004080B500AF064B1B7831
:4070C000002B04D1FFF786FF034B01221A70FFF7CFFF00BF80BD00BFE8C1FF1F80B483B000AF0346FB71044AFB79137000BF0C37BD4680BC704700BF0F4F004080B400AF8C
:40710000034B1B78DBB21846BD4680BC704700BF0F4F004080B485B000AF0346FB80FB88FB81044AFB89138000BF1437BD4680BC704700BF104F004080B483B000AF034633
:40714000FB80044AFB88138000BF0C37BD4680BC704700BF124F004080B582B000AF786000F072F8786800F03FF8072000F04EF800F05EF800BF0837BD4680BD80B500AFC4
:40718000FFF7BCFF134B1B680133124A1360124B1B680133104A1360104B1B6801330F4A136004F011FA0346002B11D00C4B1B78002B0DD0094B1B68502B09DD04F016FAF9
:4071C000074B00221A70074B01221A7004F0F0F900BF80BD20C2FF1F24DFFF1F14DCFF1F28E1FF1F30E1FF1F80B485B000AF7860054B1B68FB60FB6888337A681A6000BFDD
:407200001437BD4680BC704708ED00E080B483B000AF0346FB71054AFB795B01DBB2137000BF0C37BD4680BC704700BF12E400E080B400AF034B4FF480221A6000BFBD465F
