:4000000000100020110000002D0A00002D0A000010B500F013FDC04670B5224C23688025ED022B432360302000F0BCFD1E4A1F4B1A6011221E4B1A6001321E4B1A60023AF6
:400040001D4B1A6020321D4B1A60103A1C4B1A6001321C4B1A6010321B4B1A60822212061A4B1A6025601A4B1A4A13601A4A13601A4A13601A4A1B4B1A601B4A1B4B1A6076
:400080001B4A1C4B1A601C4A1C4B1A601C49092000F02EFD092000F015FD0022194B1A6070BDC04600010B400600008004010B40080202400C020240200202402402024022
:4000C00028020240340202403C02024008010B4001000080000002404000024080000240020000800400024009000080440002400B000080840002401D0000800800024032
:40010000B50D00000C020B4010B572B600240FE03B486200131959000B00411889881A5AC31858880004104300F058FC0134E4B2012CEDD932490C3132486C3000F034FC4F
:40014000A0221201304B1A800122304B1A70304A304B1A60C02292052F4B1A602F4A304B1A60EE222F4B1A6099231B042E4A13602E492F4A1160802149042E4A1160902170
:40018000C9032D4A11602D4A1360802109062C4A11602C4A136050222B4B1A602B490B78143A934314221343DBB20B70284A117816230B43DBB21370264A274B1A601F22E1
:4001C000264B1A60B6229201254B1A600323254A13608021244A1160C0210904234A1160234A1360234A244B1A600F22234B1A60234A244B1A60FFF70FFF00F005FC10BD04
:40020000682500006826000000600F4002600F40603000000400014008000140EEEE00000C0001401000014000500F400400990010500F4014500F4018500F4020500F4097
:4002400028500F4030500F402001054001700F4000700F40B601200008000440000104400801044018010440000204400802044000030440A40D00000803044000040440CE
:40028000240900000804044010B5064C2378002B07D1054B002B02D0044800E000BF0123237010BD400100200000000064250000084B10B5002B03D00749084800E000BF11
:4002C00007480368002B00D110BD064B002BFBD09847F9E7000000004401002064250000C00000200000000070B50D001400002100F046FEC0B2002807D1280000F0F2FE92
:40030000200000F0EFFE00F0A7FE70BD10B50400AA221421FFF7E8FFAA2215212000FFF7E3FFAA2216212000FFF7DEFFAA2217212000FFF7D9FF002200212000FFF7D4FF49
:4003400010BDC046F0B583B005000E00019308AB1F784C000C19E4B2211DC9B2FFF7C4FF013671007618F1B2019A2800FFF7BCFF0234E1B23A002800FFF7B6FF03B0F0BDE5
:4003800070B582B000241EE0114B5B78DBB22341DB0717D5E6B20E4DEA78D2B22B79DBB26979009131006020FFF7CCFFEA78D2B22B79DBB268790421891BC9B2009061209A
:4003C000FFF7C0FF0134042CDEDD02B070BDC046D401002010B5040001F00AFC204203D1052000F0D5FBF7E710BDC04610B582B001AC207061700023022221001E2001F026
:40040000A9FB0220FFF7E6FF02B010BD10B584B06B46D91D087003AC0023237001221E2001F098FB0220FFF7D5FF0023012221001E2001F0B5FB0120FFF7CCFF207804B0DA
:4004400010BDC04630B583B00C0015006B46D91D80235B4218430870002301221E2001F079FB0220FFF7B6FF00232A0021001E2001F096FB0120FFF7ADFF002003B030BD4F
:4004800010B5EC212020FFF7B1FF60212120FFF7ADFF00212220FFF7A9FF10BD10B582B00400062269462020FFF7CCFF062269462820FFF7C7FF6B461A785B781B0213431B
:4004C00023806B469A78DB781B02134363806B461A795B791B021343A38002B010BDC04670B582B0002410E0E5B23C26009600233C2229006020FFF725FF009600233C2265
:4005000029006120FFF71EFF0134042CECDD02B070BDC046F0B585B062B6962000F020FB00F0B0FC844C22001021202000F0D2FE00F03AFE22001021202000F0CBFE01F014
:400540006FF901F00BFA782001F018FA01F06CFA002001F079FA01F0A9F901F0FBF801F0E9FA002001F0A0F8002001F017FA002001F060F8002001F075F8012001F066F83A
:40058000FFF77EFF0F20FFF741FF0523A3725F332373323B6373A3736120FFF7B7FE6020FFF7B4FE00241AE0E5B23C2600963C233C2229006020FFF7C5FE00963C233C2232
:4005C00029006120FFF7BEFE5C4D280000F0E0FA280000F0DDFA280000F0DAFA0134042CE2DD002718E0EEB2FCB200942300220031006020FFF7A6FE00942300220031006A
:400600006120FFF79FFE013500E00025042DEADD4B4800F0BDFA0137312FF6DD494C464B1B78002B33D1484B1B78002B2FD1621C444B9C422ADD02AC2000FFF72FFF00238E
:40064000E05E40430A2101F06DFE05000223E05E40430A2101F066FE2D180423E05E40430A2101F05FFE2818384B984203DD0122314BDA7208E0304BDB7A002B01D0FFF70F
:400680002FFF00222C4BDA72002400E014002A4B1B78012B04D1FFF773FE0022264B1A70254B1B78022B04D100F066F80022224B1A70214B1B78032B0FD11F4BDD79987938
:4006C0002D0245192DB200F043F8281A00F0BAF8002802D00022184B1A70174B1B78042B0CD1154BD8799B790002181800B200F0A9F8002802D000220F4B1A700E4B1B784F
:40070000052B11D10C4D687A0126304000F092FF687A4008304000F0A5FF687A8008304000F094FF00232B7000F0D8F8064B1A78014B1A7273E7C046D401002050C3000028
:4007400010270000400D03005C01002040420F00014B18687047C0461402002070B504000500FF2800DDFF25280001F007F9601B01F06AF970BDC04670B56420FFF7EEFF28
:40078000FF2000F091FF012001F05AF8FA20800000F0F0FF00F0F6FF0A301B4B18601B4D0024013D194800F0F3F90134022C22DD01F08CF801280AD1154C002525700020A3
:4007C00000F072FF134B1D60012363701BE000F0D9FF0D4B1B68C31A092B0ADC0C4C00252570002000F060FF0A4B1D600123637009E0054B1860002DD3DA0022054B1A6070
:40080000002000F051FF70BD0002002050C300005C0100201402002010B50021002200230AE052009B00840F1B198000934202D9541C1B1B023201310F29F2DD521090B293
:4008400010BDC04610B504001E4B1B78002B35D1002835D000221B4B5A60BF20400001F08DF8194A13681B191360002C07DD002000F0E6FFBF204000FFF770FF07E0012095
:4008800000F0DEFF6442BF204000FFF767FF0F4800F070FF00F076FF0D4B186022180D4B1A60E30F1C19641000190B4B1860054B00225A6001321A70012002E0002000E0E5
:4008C000012010BD5C0100201402002010270000FC010020040200200C02002070B52A4B1B78002B4DD0284C63680133636000F049FF05006268254B9A4207DD0022224B3E
:400900001A70002000F0D0FE00203BE0204B1B6898420EDA1F4B18682A1A1F4CA37BDBB29900CB1898005043FFF776FF247B241811E01A4B1868401B00280BDD164CA37B72
:40094000DBB29A00D3189A005043FFF765FF647B241800E00024FA2C00DDFA24E0B200F0A3FE0E4B1B689D4205DB0022064B1A70002000F099FE0A4B1C600A4B1D60012078
:4009800000E0002070BDC0465C01002020A107000C020020FC010020D401002004020020F801002010020020F0B50025002711E0BB00C658F3B2FF22964308E06A008A18C0
:4009C0001478A419527822700135013BDBB2002BF4D10137092FEBD9F0BDC04610B50A00002101F0B7FD10BD064B1B68002803D080221206134301E05B005B08014A1360DE
:400A00007047C04680031A4010B582225200054B1A60C0229203044B1A600120FFF7E4FF10BDC0468000104000031A4010B501F065FD03680C2B00D1FEE7FEE770B50F4E86
:400A40000F4D13E029686B68AC68002202E001C901C30432A242FAD1E868002202E0002102C304328242FAD11035013E002EE9D101F04AFDFFF74EFDFEE7C0460100000068
:400A80009427000010B500230AE0032B03D89A000949505800E009489900094A885001332F2BF2D9FFF730FB8022D205116801230B43136010BDC046000000002D0A0000BC
:400AC000000000201F2318401E3B8340014A13607047C04600E100E01F2318401E3B8340014A13607047C04680E100E001BE704770B504000D001F2802D90020FFF7F6FF99
:400B00001034A40080239B059C4664442068256070BDC04670B504000E00032902D90020FFF7E4FF1F2C02D90020FFF7DFFF03252540ED00063501F01DFAA408A400074B10
:400B40009C46644421680323AB4099430B003100A9401943216001F011FA70BD00E400E010B5040006E0084B586801F0F9F9074B9C46644480231B029C42F4D8024B98684E
:400B8000604301F0EDF910BDC40000200080FFFF10B5034B1B7B584301F0E2F910BDC046C4000020F0B557464E46C0B483B0040001F0E0F90190E71E2D2F74D83F4B1B781F
:400BC000DBB29C4208D83E4B1B78DBB29A463D4B1B78DBB2994631E03B4B1B78DBB29C4208D83A4B1B78DBB29A46394B1B78DBB2994623E0374B1B78DBB29C4208D8364B39
:400C00001B78DBB29A46354B1B78DBB2994615E0334B1B78DBB29C4208D8324B1B78DBB29A46314B1B78DBB2994607E02F4B1B78DBB29A462E4B1B78DBB299462D4BDE5D60
:400C40002F2E09D92A2C07D919222B4B1A60052001F086F9192503E0274B1D683F231D40B54206D9234BDA5D234B1A60052001F077F91F4B9C4664442378DBB21F4A136087
:400C80001F4B52461A601F4B4A461A600520FFF77FFFB5420AD2174BDA5D174B1A60052001F05EF902E00020FFF720FF019801F065F903B00CBC91469A46F0BDC0F1FF0F59
:400CC000C1F1FF0FC2F1FF0FC3F1FF0FC4F1FF0FC5F1FF0FC6F1FF0FC7F1FF0FC8F1FF0FC9F1FF0FCAF1FF0FCBF1FF0FCCF1FF0FCDF1FF0FFC2600002CFF0B4028FF0B40DC
:400D00001CFF0B4020FF0B40034B1868C0231B02184000D00120704700010B4010B501F029F9044A1368C02109020B43136001F025F910BD00010B4010B501F01BF9084938
:400D40000A68084B1A408024E40122430A600A6813408022120213430B6001F00FF910BD00010B40FF3FFFFF70B5050001F002F90400FFF7C9FF002803D0FFF7DDFF0121AB
:400D800000E0002108482840084A1568084B2B40184310601368012901D1FFF7BFFF200001F0ECF870BDC0460404040010020B40FBFBFBFF10B5244B1B685B0715D5234B05
:400DC0001B685B070ED5224BD969042001401F4C22688A432260DA698243DA611B69002B00D098470420FFF7BFFF174B1B685B0518D5164B1B685B0510D5154BD9698022BB
:400E0000D2001140114802688A430260D969114A0A40DA615B69002B00D098478020C000FFF7A2FF084B1B685B030CD5074B1B685B0304D5064B9B69002B00D098478020F6
:400E4000C002FFF791FF10BD10020B40D800002064010020FFFBFFFF10B50A20FFF732FE10BDC04610B500F01DF810BD10B5044A1368802109060B431360FFF7EDFF10BD5E
:400E80000000064010B5064B1B78002B04D1FFF7E9FF0122024B1A70FFF7E8FF10BDC0468401002010B51F4B19680C220A431A6019681D4A0A401A6000241C4B1C601C4A58
:400EC0001C4B1A601C4A1D4B1A601D4B1C601D4B1C601D4A1D4B1A601D4B1C600A20FFF7FBFD03210A20FFF715FE1A490A20FFF7FFFD194B1C60194B1C60194B1C60142210
:400F0000FF32184B1A60184B1C60184B1C60043AFF3A174B1A70174B1C80174B1C60174B1C6010BD70000640FFFFFDFD000006409608008060000640070300800003064070
:400F40000403064010030640070100800002064004020640851F0000C80E0640880E0640480F0640080F0640C80F0640880F064018020020360200201C0200202402002009
:400F800070B504000D002D4B1B78102B51D12C4B1B68DB074FD40A20FFF79EFD6400FF231C40002D03D12422244B1A7004E02522224B1A7001231C43224B1C60224A234B4F
:400FC0001A600222224B1A60204B1A680823FF331A42F9D01D4B1B685B0714D41B4B1B689B0713D4194B1B68DB0705D51022134B1A70012001210BE01022104B1A708020B4
:401000004000012104E00020002101E0022000210822FF320D4B1A6000290DD00D4A13685B005B0813601368802109060B43136002E0042000E0082070BDC0461802002068
:40104000640006404002064017030000000F064068000640000006401D4B1B789B0634D51C4B1B689B0601D5182200E010221A4B1A601A4B1A681223FF331A42F9D0174BD5
:401080001B68DB0606D4154B1B68DB0705D50120012105E00020002102E08020400001211222FF320D4B1A60023AFF3A084B1A7000290BD00A4A13685B005B0813601368FE
:4010C000802109060B43136000E004207047C046180200206400064068000640000F064000000640214B1B789B063CD5204B1860204B1A680823FF331A42F9D01D4B1B68A3
:401100005B0705D56022194B1A700020002119E0184B1B689B0705D56022144B1A70022000210FE0134B1B68DB0705D510220F4B1A700120012105E010220C4B1A7080203C
:40114000400001210822FF320A4B1A6000290BD0094A13685B005B0813601368802109060B43136000E004207047C0461802002040020640000F06400000064010B50B20E6
:40118000FFF7A0FC10BDC04610B500F03BF810BD10B5044A1368802109060B431360FFF7EDFF10BD0000074010B5064B1B78002B04D1FFF7E9FF0122024B1A70FFF7E8FFC2
:4011C00010BDC0468C0100200A4B1B68DB050DD5094B1B685B0409D4064B1968074A0A401A601A68802149000A431A600222044B1A6070470000074060000740FFFEFFFF1B
:401200006C00074010B500241C4B1C601C4A1D4B1A601D4A11680C230B4313601B4B1C4A13601C4A14601C491C4A11601C4A13601C4B1C600B20FFF74FFC03210B20FFF755
:4012400069FC19490B20FFF753FC184B1C60184B1C605222FF32174B1A60174B1C60174B1C60174B1C60174B1C70174B1C70174B1C80174B00221A7010BDC046000007405C
:401280000008004060000740700007400701008000030740040307404400FE0010030740000207400402074005130000C80E0740880E0740480F0740080F0740C80F07400A
:4012C000880F07404202002043020020400200204402002070B506000D00141E0BD00B20FFF7FAFB044B1C60044B1E80044B1D800B20FFF7E7FB70BD3C0200204802002088
:401300004602002070B5AC4B1B68002B00D09847AA4B1C88AA4B1D68AA4B1E680223FF331D4242D0A84A13685B005B081360A74B1B789B0620D5A54A137820218B431370B1
:40134000117810230B43DBB21370A14B1B68DB060CD4A04B1A78994B1B889A420CD09B4A117808230B43DBB2137005E0974A117802230B43DBB21370974A1168974B0B4017
:4013800013600023964A1360914A13609549964A116096498A4A1160954A13708A4A1368802109060B43136003E1F30602D50022904B1A600A23334200D190E08E4B1B6817
:4013C0005B0756D58D4B1B68894A1278002A16D0012A47D18A4A1288002A0DD00121894A1160894A12681219DBB213700134844A1388013B138038E0FFF7E6FE35E0834AB1
:40140000128893422BD201217E4A1160804A1288934202D2D21A92B200E0002278490A80072A03D80121724A117014E0082A09D169490A68A020000202430A600021684A88
:40144000116008E064490A688020800102430A600821634A11605F4A13701C0005E0FFF7B3FE02E00020FFF741FB04225E4B1A6035E0594B1B689B0431D5B3070DD5654B5F
:401480001B680F211940544A1068544B03401360012014E00821012011E0594B1988083989B219800829F5D8002008E0564B1B681B19524A1268D2B21A70013401390029F1
:4014C000F4D1002808D1444A1368802109020B4313600022424B1A600C22434B1A60B30746D5EB0615D500233D4A1360384A1360384B1B789C4201D1022300E00A232B402C
:40150000324A11780B4320218B4313700022384B1A706B062AD52D4A117820230B43DBB213702C4B1B781C003B4A1268D20612D5364A1288D31A324A1380384B1A688021E6
:4015400049020A431A601968354A0A401A6010221F4B1A6002E00422214B1A600123314A13602249164A1160264A1360144B1D60144B1B685B071CD5214B1B88002B0CD039
:40158000214B1B681B191B78DBB2274A136001341B4A1388013B138002E0FF22224B1A60224B1B680F221340082BE5D10132204B1A60024B1C8070BD900100204002002078
:4015C000400F0740000E07400000074043020020880F07404402002060000740FF5FFFFFC80F0740ED0F0000C00F0740FF0F000042020020880E0740CC0F074040030740E2
:40160000940100206C0007403C0200204802002046020020080307406400074004020740FFFFFEFF800E07404002074008020740800F0740044A1368DBB201218B430840BA
:40164000184310607047C0460000044004490A68D2B202239A43400018401043086070470000044004490A68D2B204239A438000184010430860704700000440034A117860
:4016800080235B420B43DBB21370704772000F40014B18707047C04602000F40014B18707047C04642000F40014B18707047C04622000F40014B18707047C04632000F40FC
:4016C000014B18707047C04682000F40014B1878C0B2704762000F40014B1878C0B2704752000F4010B501E0FFF7F6FFFFF7EEFFC306F9D410BDC04610B514490B783F2249
:4017000093430B221343DBB20B70114C227801231343DBB22370FF20FFF7BAFFFF20FFF7BDFF0020FFF7C0FF3F20FFF7C3FF0020FFF7C6FF00F01EFC227810231343DBB297
:40174000237000F01BFCFFF7CDFF10BD72000F4092000F4010B5064B1B78002B04D1FFF7CBFF0122024B1A70FFF788FF10BDC046960100200004000C014B18607047C046A3
:4017800008010540024B18680004000C7047C046080105400004000C014B18607047C0461401054070B504000D0000F0E3FBAC40024B1C6000F0E2FB70BDC0460800054002
:4017C00010B500F0D7FB064A116801230B43136000F0D4FB18210120FFF7E4FF10BDC04600000540014B18607047C0463801054010B580229204074B1A600822064B1A60ED
:401800000020FFF7EFFF0548FFF7C4FF0020FFF7B1FF10BD0001054024010540FFFF000010B5064B1B78002B04D1FFF7E1FF0122024B1A70FFF7C4FF10BDC04697010020A0
:4018400004490A68D2B204239A43800018401043086070470001044010B50222084B1A6080221206074B1A60A8225200064B1A6000F080FB054B1A681A6000F07FFB10BD81
:4018800098010020000010400400104028001040044A1168044B1B680B43802109010B4313607047040010409801002010B5064B1B79002B04D1FFF7CFFF0122024B1A71D3
:4018C000FFF7E6FF10BDC04698010020024B1B68012018407047C0460C00104010B500F049FB0E4C23680F22934319000C4B1B7813400B4323600B4A136813600A4B1C68F7
:401900000A492140196011688F24E400214311601A681A6000F032FB10BDC04600FF084060F1FF0F0800084004000840FFFFFEFF10B500F01FFB074A1368C02189000B4319
:401940001360054A1368802109060B43136000F015FB10BD080008400400084010B5064B1B68002B04D1FFF7B9FF0122024B1A60FFF7DEFF10BDC046A001002010B50400EF
:4019800000F0F8FA044A1368FF218B431C43146000F0F4FA10BDC04608000840014B18707047C04673000F4010B500F0E3FA0E490B68F02293431A000C4B1B780F24A34306
:4019C00013430B600A4A136813600A4B1C680A492140196011688F24E404214311601A681A6000F0CBFA10BD00FF084060F1FF0F0800084004000840FFFFFDFF10B500F086
:401A0000B9FA074A1368C02189040B431360054A1368802109060B43136000F0AFFA10BD080008400400084010B5064B1B68002B04D1FFF7B9FF0122024B1A60FFF7DEFFB7
:401A400010BDC046A401002010B5040000F092FA044A1168044B0B4024041C43146000F08DFA10BD08000840FFFF80FF0004000C014B18607047C046880105400004000CAD
:401A8000014B18607047C046940105400004000C014B18607047C0468C01054070B504000D0000F067FAAC40024B1C6000F066FA70BDC0460800054010B500F05BFA064A02
:401AC000116804230B43136000F058FA18210420FFF7E4FF10BDC04600000540014B18607047C046B801054010B50D4C8023DB042360236823600020FFF7B8FF236823606A
:401B00000C22084B1A600120FFF7E8FF3122064B1A600648FFF7B2FF0548FFF7B7FF10BD80010540A4010540A8010540FFFF00003075000010B5064B1B78002B04D1FFF7F3
:401B4000D3FF0122024B1A70FFF7B6FF10BDC046A801002010B5104C2468640715D40F4C2468640713D50D4C2468240711D504242343094C6360A2600023E36023616161CD
:401B80004000A0612360002004E0042002E0082000E0082010BDC046AC0100200404044010B5114C2468640717D4104C2468640715D50E4C2468240713D5082423430A4C19
:401BC0006360A2600023E3602361E161400001221043A0612360002004E0042002E0082000E0082010BDC046AC0100200404044010B5CB4B1A6A0F2A00D9A7E19300C94AF5
:401C0000D3589F46C64B5B68002B00D19EE1C64B1A6804210A431A601868082202431A60BF4B196001221A6290E1C04B1B685B070CD5BE4B1B681B0708D5BB4A13680421C9
:401C40008B4313600222B64B1A627FE1B44B5B685B0703D50222B24B1A6002E00122B04B1A60AF4A0423116899430B00802149000B43136000235360136267E1AA4A1368E4
:401C800008218B4313600322A54B1A625EE1A44BDB68072B1DD8A24B9B691B0605D5A24A116804230B43136004E09F4A136804218B4313609A4B9A6952009A619A49086822
:401CC000082202430A60DA680132DA6004221A623CE1954A116804230B431360904B102259680A435A6007221A622FE18E4A136808218B4313600322894B1A6226E18A4AC6
:401D0000116808230B431360854B5B6814221A4214D0864A1268120700D417E1102293437F4A5360814B1B685B0703D509227C4B1A620BE108227A4B1A6207E10822784B5F
:401D40001A6203E1784A136808218B431360744B1A699B689A4210D1714B5B689B0703D50F226F4B1A62F1E06F4A136804218B4313600D226A4B1A62E8E0694B0022DA6057
:401D800024215A540B321A62E0E0674B1A6808218A431A601A6804398A431A60604B202219680A431A600D221A62CFE05C4B5B685B0741D55A4B1A699B689A422FD2584BF1
:401DC000DB68072B1FD856494969895C0722134079321A410A4205D0534A116804230B43136004E0504A136804218B4313604C4BDA680132DA604C490868082202430A601D
:401E00000C221A62A2E0484A116804230B431360434B1A6901321A6107221A6296E0424B1A6808218A431A601A6804398A431A600D223B4B1A6289E03B4A116804230B4317
:401E40001360374A13699268934200D37EE03449C96807291AD8324924228B5C5B008B54314A116808230B431360304B1B685B0705D52B492422885C012303438B54284BCC
:401E8000DA680132DA600C221A625FE024492420085CCC69E05401330B619A4208D1224A116804230B43136007221D4B1A624DE01D4A136804218B4313600722184B1A6260
:401EC00044E0194A136808218B4313600B22144B1A623BE0144A116808230B4313600E220F4B1A6232E010490B68042213430B600B4B5B68134205D0094A022311680B4343
:401F0000136004E0064A012311680B431360044B042219689143196000225A601A6215E0AC0100202C2700000004044004040440084B196804220A431A601A6808210A439F
:401F40001A60054B196000225A601A62024B186810BDC04600040440AC010020000000000230800804D0C0460138FDD1C046C046C0467047EFF3108072B6704780F3108851
:401F80007047C04610B5C04B1B68002B00D09847BE4B1B68DB0702D50022BD4B1A60BD4B1B789B0628D5BC4B1B68DB0507D5BB4A1188C0239B000B431380012300E00023AB
:401FC000B54A1268D20706D5B44A118890239B000B4313800123002B0FD0AE4A1278D20701D5012200E00222AC49088802430A800021A84A117000E00023A64A127892066B
:4020000000D414E1A44A1268D20611D51022A44B1A60A04B1B78DB0701D5012300E002239E4A11880B43138010229A4B1A7029E1984A1278120720D5974A126892070AD55D
:402040000222974B1A60954A118888239B000B431380012311E08F4A1278D20703D525218C4A117009E024218A4A11708D4A1268002A02D014398C4A1160864A1278520764
:4020800000D4ABE0834A1278D20749D5874A1268120727D5864A1268864909680F240C40854909686418141B082C09D8002C16D1824A1168824B0B401360012308340EE0DA
:4020C00008240CE07C4A11687E48006841187E480068C0B20870116801311160013C002CF0D119E0714A1268520715D5724A116874480068411874480068C0B208701168FA
:402100000131116011686A4A1268914203D204216E4A116000E001236D496E4A11605DE05D4A1268920726D502225D4B1A606A490B680D321A40096880231B020B4000D039
:4021400001239B18654A1168CB1A13601268644B1A60524A118884239B000B431380614B1A68802149020A431A6019685E4A0A401A60012332E05D4A1268D20612D424E026
:40218000564A1168474A1268914211D2534A11685748006841180978C9B2564801601168013111604C4A12680F210A40082AE7D14A4A11683B4A1268914202D140213A4AAD
:4021C00011604D494D4A116008E0484A1268520604D5424B1A68424B1A600123002B51D0364A1168364B0B4013600023444A13602D4A1360434B1B789B070ED5254B1B7836
:40220000DB0701D5092300E00A23244A11880B43138060221F4B1A7034E03B4B1B689B0601D5182200E01022284B1A602AE0194B1B78DB0626D4354A13685B005B0813607B
:402240001021144B19701D4B18683149014019601868304901401960002329490B6012490B601B49254B196023491A4B19602A492A4B19602A490A4B19601368802109064C
:402280000B43136010BDC046880100208C0E0640880E0640180200200C0F064036020020000F064030020020880F0640CC0F064038020020080306401C02002060000640FE
:4022C000FFFEFFFF280200204003064068000640ED0F0000C00F064008020640200200202402002004020640FFFFFEFF8C0F06402C02002040020640F3070000800F0640AC
:40230000C80F0640340200206400064000000640FF5FFFFFFFFCFFFFFF0F0000400F06401703000003460B437FD4002243088B4274D303098B425FD3030A8B4244D3030BB3
:402340008B4228D3030C8B420DD3FF22090212BA030C8B4202D31212090265D0030B8B4219D300E0090AC30B8B4201D3CB03C01A5241830B8B4201D38B03C01A5241430BF0
:402380008B4201D34B03C01A5241030B8B4201D30B03C01A5241C30A8B4201D3CB02C01A5241830A8B4201D38B02C01A5241430A8B4201D34B02C01A5241030A8B4201D371
:4023C0000B02C01A5241CDD2C3098B4201D3CB01C01A524183098B4201D38B01C01A524143098B4201D34B01C01A524103098B4201D30B01C01A5241C3088B4201D3CB00F5
:40240000C01A524183088B4201D38B00C01A524143088B4201D34B00C01A5241411A00D201465241104670475DE0CA0F00D04942031000D34042534000229C4603098B420A
:402440002DD3030A8B4212D3FC22890112BA030A8B420CD3890192118B4208D3890192118B4204D389013AD0921100E08909C3098B4201D3CB01C01A524183098B4201D34E
:402480008B01C01A524143098B4201D34B01C01A524103098B4201D30B01C01A5241C3088B4201D3CB00C01A524183088B4201D38B00C01A5241D9D243088B4201D34B00AD
:4024C000C01A5241411A00D20146634652415B10104601D34042002B00D54942704763465B1000D3404201B5002000F005F802BD0029F8D016E770477047C046014B18684D
:402500007047C0463C0100200E4B70B500251E000D4CE41AA410A54204D0AB00F35898470135F8E700F024F9084B00251E00084CE41AA410A54204D0AB00F35898470135A1
:40254000F8E770BD7C2700007C2700007C2700008427000003008218934202D019700133FAE770470000000000300F40000400400F4000047301820F000202010401060AED
:402580000C010E021401160618011A021C011E022F0130033301340436083A02580459045C335F010004018209080A0519421A05210829408910C00DC207CA0801020502AC
:4025C00008010B040C0411011B081C031D0122082306260428033001310232043301340235043608370839083F144010410645D546204710483B49FF4AFF4BFF4DA04F043F
:40260000501852805407580459045A045B045C115D115F01604062C06440654066C068C06AC06CC06EC08E01B401B920BF10D804D904DB04DC03DF010180051007010F0285
:402640001504168818041D901E601F8020082110260427492F80362037423E083F2245804D044E204F21560857115E605F096B027680818084048E04940495209D80B50226
:40268000C0C1C280C470CA80CCB0CEE0D010D220D6F0E240EC100F01C2800A4057805810824084108F80B701C210D4C0E020E64061027380742088208B80D802DC03E40437
:4026C00076029A02B502B602DC02E802EC08100A1101000002000F4016300F400C310F403E320F402F330F4002400F400B410F4008420F4007430F4002600F40030405066C
:402700000708090A0B0C0E0F101112131415161718191B1C1D1E1F2021222325262728292A2B2E2F3031323334350000041C00002A1C00007C1C00008E1C0000EC1C00000B
:402740004C1F00004C1F0000FE1C0000441D00008A1D00004C1F0000AC1D0000C21E0000D41E0000E61E0000301F000043000000F8B5C046F8BC08BC9E467047B10200004C
:40278000850A0000F8B5C046F8BC08BC9E46704789020000A8270000C000002080000000100100000000000000000000010000000000C05D80BB000030000000006CDC0226
:4027C0000404040000000000000000000000000000000000000000000000000000000000000000006C2700000000000000000000000000000000000000000000000000003A
:40280000000000000000000000000000000000000000000000000000000000000000000000000000DC0000200000000000000000000000000000000000000000000000009C
:402840000000000000000000000000000000000000000000000000000000000000000000000000000000000000000000000000000000000000000000000000000000000058
:402880000000000000000000000000000000000000000000000000000000000000000000000000000000000000000000000000000000000000000000000000000000000018
:4028C00000000000000000000000000000000000000000000000000000000000000000000000000000000000000000000000000000000000000000000000000000000000D8
:402900000000000000000000000000000000000000000000000000000000000000000000000000000000000000000000000000000000000000000000000000000000000097
:0200000490303A
:0200000060BDE1
:0200000490402A
:200000000000000000000000000000000000000000000000000000000000000000000000E0
:0200000490501A
:0C000000000204B61193110104C27250FA
:0200000490600A
:0100000001FE
:00000001FF