:400000000080002011000000A9000000A900000080B500AF47F2BC63C4F2000344F2FA62C4F2000212681A6000F012FC00F040F810B5054C237833B9044810B10448AFF3CC
:4000400000800121217010BD2881FF1F000000009C23000008B5064B1BB106480649AFF300800648016811B1054A02B1904708BD000000009C2300002C81FF1F0881FF1F19
:400080000000000080B500AF4FF0000001F05AFA4FF0000001F078FA4FF0000001F094FA62B600F053FBFEE780B400AFFEE700BF80B586B000AF40F20103C0F200037B61D5
:4000C00042F2A443C0F200033B6140F20103C0F200037B6142F2A443C0F200033B613BE03B691B68FB603B695B68BB603B699B683B604FF000037B600FE0FB681A68BB68EC
:400100001A60BB6803F10403BB60FB6803F10403FB607B6803F104037B607A683B689A42EBD13B69DB683B604FF000037B600BE0BB684FF000021A60BB6803F10403BB60DC
:400140007B6803F104037B607A683B689A42EFD13B6903F110033B617B69002B0CBF00230123DBB27A6902F1FF327A61002BB7D102F0D8F8FFF786FFFEE700BF80B582B0D3
:4001800000AF4EF60C53CEF200034FF48062C0F2FA521A604EF61453CEF200034EF61452CEF20002126842F400721A604FF000037B6019E07B68032B07D840F20003C0F22A
:4001C00000037A6853F8223003E040F2A903C0F2000348F20002C1F6FF72796842F821307B6803F101037B607B682F2BE2D947F2BC63C4F200031B78DAB248F20413C1F651
:40020000FF731A704EF60853CEF2000348F20002C1F6FF721A6000F037F948F20013C1F6FF734FF000021A6007F10807BD4680BD80B582B000AF7860396078684FF0000143
:400240003A6802F09EF807F10807BD4680BD00BF80B584B000AFF860B9607A60F868B9687A6802F085F807F11007BD4680BD00BF80B584B000AFF860B9607A60F868B96827
:400280007A6802F075F807F11007BD4680BD00BF80B483B000AF0346FB71FEE780B487B000AF786039604FF000033B614FF000037B612CE07B694FEA83037A68D3181B68B9
:4002C000BB60BB68FB73BB6823F0FF03BB6017E03B694FEA43033A68D3181B781A46BB68D3183A694FEA420239688A1852781A703B6903F101033B61FB7B03F1FF33FB735E
:40030000FB7B002BE4D17B6903F101037B617B690C2BCFD907F11C07BD4680BC704700BF80B582B000AF4FF48643C4F200034FF002021A704FF040234FF008021A704FF4BC
:400340008443C4F200034FF003021A7044F2A163C4F200034FF48472C4F600121278D2B21A7044F22223C4F200034FF008021A8044F22023C4F2000341F251221A804FF0D7
:400380000003FB704FF019037B6019E0FB784FEA4303DAB244F22523C4F200031B78DBB203F00103DBB21343DBB203F00303FB704FF4F07001F02CF97B6803F1FF337B6063
:4003C0007B68002B02D0FB78032BDFD17B68002B03D14FF00300FFF75BFF44F20403C4F200034FF480721A8044F20403C4F200034FF007021A7044F20603C4F200034FF094
:4004000000021A7044F20803C4F200034FF048021A7044F20403C4F200034FF000021A7044F20103C4F200034FF002021A7007F10807BD4680BD00BF80B483B000AF40F254
:40044000CF13C4F600131B78FB7145F66E03C4F20003FA7902F00702D2B21A7045F66F03C4F20003FA794FEA1212D2B21A7045F67603C4F200034FF044021A7007F10C0722
:40048000BD4680BC704700BF80B586B000AF72B644F2E863C4F2000344F2E862C4F200021278D2B242F00402D2B21A704FF00003FB7519E0FA7D13464FEA43039B184FEA99
:4004C000430342F2A032C0F200029B183B613B691A683B699B889BB210461946FFF7A8FEFB7D03F10103FB75FB7D082BE2D94FF00003FB7523E0FA7D13464FEA83039B18E5
:400500004FEA430342F2D832C0F200029B18FB60FB681B68BB60FB685B687B60FB681A7A5B7A4FEA032313437B807B88B86879681A46FFF79DFEFB7D03F10103FB75FB7D71
:40054000002BD8D042F2E430C0F2000042F21841C0F20001FFF7A2FE45F20303C4F2010345F20302C4F201021278D2B242F00202D2B21A7045F21303C4F2010345F2130247
:40058000C4F201021278D2B242F00202D2B21A7044F2A033C4F2000344F2A032C4F200021278D2B242F04002D2B21A7044F2C233C4F2000344F2C232C4F200021278D2B24A
:4005C00042F01002D2B21A7045F2C010C4F2000042F25441C0F200014FF00A02FFF748FE45F21210C4F2000042F26041C0F200014FF00802FFF73CFE45F22210C4F20000BA
:4006000042F26841C0F200014FF00802FFF730FE44F22233C4F2000344F22232C4F200021278D2B242F00802D2B21A704FF49043C4F200034FF001021A70FFF771FE4FF49C
:400640009043C4F200034FF081021A704FF00403C4F208034FF001021A70FFF7EDFE44F2B030C4F2000044F2A031C4F200014FF00E02FFF7EDFD07F11807BD4680BD00BF1F
:4006800080B485B000AF78600B467B804FF00003FB810DE07B8803F1FF337A68D3181B781A46FB89D318FB817B8803F1FF337B807B88002BEED1FB89C3F100039BB2184688
:4006C00007F11407BD4680BC704700BF80B485B000AF786039604FF00003FB730AE03B6803F1FF333B607A683B68D3181A78FB7BD318FB733B68002BF1D1FB7B184607F17E
:400700001407BD4680BC704780B485B000AF786039604FF00003FB730EE03B6803F1FF333B607A683B68D31803F1804303F500431A78FB7BD318FB733B68002BEDD1FB7B58
:40074000184607F11407BD4680BC704780B5CAB000AF00F0B9FF0346002B03D04FF0000001F0B2F83B46184600F0C0FF0346002B03D04FF0000001F0A7F848F21013C1F633
:40078000FF731B681B684FF000001946FFF79EFF034687F8273148F20C13C1F6FF731B681B7897F82721D31A87F8273197F82731C3F1000387F8273148F20C13C1F6FF7346
:4007C0001B681B7897F827219A4207D148F21013C1F6FF731B681B68002B03D14FF0000001F072F84FF0000000F05CF8C7F8200144F2FA63C4F200031B78DBB203F0C003AE
:40080000402B03D0D7F82031002B0AD044F2FA63C4F200034FF000021A704FF0000000F0D3F84FF0140000F0CFF800F005F807F59477BD4680BD00BF80B500AF44F2FA63D0
:40084000C4F200034FF080021A7001F049F880BD80B500AF44F2FA63C4F200031B78DBB203F0C003802B19D144F2FA63C4F200034FF000021A704FF001004FF0000100F0E3
:4008800027FC0346002B09D04FF001004FF0000100F01EFC0346184600F002F880BD00BF004700BF90B587B000AF0346FB71FB794FF00200194600F00BFC034603F101037F
:4008C0004FEA0324FB794FF00300194600F000FC0346E318FB604FF00003FB744FF00003BB74FB794FF00200194600F0F1FB034603F101034FEA03237B6113E07B691B7800
:40090000FB72FB7A002B05D0FB7AFF2B02D04FF00103FB74BA7CFB7AD318BB747B6903F101037B617A69FB689A42E7D3FB794FF00200194600F0CCFB034603F101034FEA14
:4009400003234FEAD3037B61FA684FF6C073C0F203039A4203D0FB684FEAD30301E04FF40043FB600BE07B6903F190431B78DAB2BB7CD318BB747B6903F101037B617A6950
:40098000FB689A42EFD3BB7CC3F10003BB74FA7913464FEA03639B1A4FEA032303F57F3303F570731B78DBB2BA7C9A4202D1FB7C002B02D14FF0060301E04FF000031846D2
:4009C00007F11C07BD4690BD80B5ADF56C7D00AF024607F107031A704FF00003A7F8AA334FF00003A7F8A8334FF00A0387F8A7334FF0000387F8A6334FF0000387F8A533F7
:400A000000F058FC62B64FF0000387F8AD3307F107031B78002B03D007F107031B7801E04FF0FF0307F5187107F28E3208464FF4967100F0B3FCC7F89C0307F107031B7807
:400A4000002B05D097F8A73303F1FF3387F8A73397F8A733002B03D0D7F89C33002BD6D1D7F89C33002B40F0CA82B7F88E33062B04D907F518731B78012B04D04FF0040394
:400A800087F8AD334EE007F51873DB784FEA03239AB207F518739B781343A7F8AA33B7F8AA3303F1050307F51872D35C4FEA03239AB2B7F8AA3303F1040307F51871CB5C9D
:400AC0001343A7F89A33B7F8AA3303F10702B7F88E339A4204D94FF0030387F8AD3321E0B7F8AA3303F1060307F51872D35C172B04D04FF0040387F8AD3313E0B7F8AA3365
:400B000003F104039BB207F5187210461946FFF7B7FD0346B7F89A239A4203D04FF0080387F8AD334FF00003A7F8AE3397F8AD33002B40F0588207F518731B7987F89933AF
:400B40004FF0040387F8AD3307F518735B78A3F131030A2B00F2358201A252F823F000BF8D0B0000CF0B0000C30F0000390C0000A30D0000C30F0000B70D0000130E000021
:400B8000390C0000650E0000A10F000097F8A533012B40F01B82B7F8AA33002B40F016824FF00000FFF77EFE0346002B14BF00230123DBB21A4607F518731A714FF001036D
:400BC000A7F8AE334FF0000387F8AD33FEE197F8A533012B40F0FC81B7F8AA33012B40F0F78197F89933032B00F2F2814FF00003A7F89633B7F89633DAB207F518731A71A7
:400C0000B7F896334FEA13239BB2DAB207F518735A7107F518734FF0FF029A7107F518734FF00302DA714FF00403A7F8AE334FF0000387F8AD33CBE107F518735B78342BEE
:400C400025D197F8A533012B40F0CD81B7F8AA33032B40F0C88197F899333F2B09D997F899335BB2002B04DB4FF01003A7F8A83303E04FF49073A7F8A833B7F8A83307F52C
:400C80009A7210464FF000011A4601F07AFB97F8A533012B40F09E81B7F8AA33022B40F29981B7F8A83307F59A72D118B7F8AA33A3F1030307F5187202F10702084611461D
:400CC0001A4601F055FBB7F8A823B7F8AA33D3189BB2A3F10303A7F8A83397F899333F2B0BD997F899335BB2002B06DB00F0CAFD4FF01003A7F8AA3303E04FF49073A7F897
:400D0000AA33B7F8A823B7F8AA339A4240D107F518739B794FEA03239AB207F518735B791343A7F8A83397F899333F2B1BD897F8A633002B17D107F10C0318464FF000019A
:400D40004FF4907201F01DFB07F10C034FF003004FF0FF011A464FF4907300F003FD4FF0010387F8A63397F89903B7F8A81307F59A72B7F8AA3300F0F5FC0346002B02D01C
:400D80004FF00A0301E04FF0000387F8AD3303E04FF0030387F8AD334FF00003A7F8A83318E197F8A533012B40F016814FF00003A7F8A83324E197F8A533012B40F00E81BC
:400DC000B7F8A823B7F8AA33D318B3F5967F1BD84FF0000387F8AD33B7F8A83307F59A72D118B7F8AA3307F5187202F10402084611461A4601F0BCFAB7F8A823B7F8AA3379
:400E0000D318A7F8A833E9E04FF0030387F8AD33E4E0B7F8AA33002B40F0E28007F5967242F27843C0F2000393E8030082E803004FF0010387F8A5334FF00803A7F8AE33DC
:400E4000B7F8AE3307F5187202F1040107F59672084611461A4601F08BFA4FF0000387F8AD33BDE097F8A533012B40F0BB80B7F8AA33032B40F0B68007F518739B794FEAB5
:400E800003239AB207F518735B791343A7F8943397F899333F2B14D997F899335BB2002B0FDBB7F894334FEA0313C7F89033D7F890034FF01001FFF727FC034687F8A433C9
:400EC00013E097F899334FEA0322B7F89433D3184FEA0323C7F89033D7F890034FF48071FFF7F4FB034687F8A43397F899333F2B27D897F8993303F510334FEA0322B7F883
:400F00009433D3184FEA4313C7F890334FF00003A7F8A23311E0B7F8A223D7F89033D3181B78DAB297F8A433D31887F8A433B7F8A23303F10103A7F8A233B7F8A2331F2BD2
:400F4000E9D997F89933032B19D1B7F89433FF2B15D14FF6D073C0F203031B78DBB297F8A423D31A87F8A4334FF6D173C0F203031B78DBB297F8A423D31A87F8A43397F834
:400F8000A433C3F10003DAB207F518731A714FF0000387F8AD334FF00103A7F8AE3321E04FF00000FFF77EFC0346002B06D144F2FA63C4F200034FF080021A7000F090FC93
:400FC00011E04FF0050387F8AD330CE000BF0AE000BF08E000BF06E000BF04E000BF02E000BF00E000BF97F8AD1307F51872B7F8AE33084611461A4600F012F800E000BFD4
:4010000007F107031B78002B3FF4FDAC97F8A533012B3FF4F8AC07F56C77BD4680BD00BF80B584B000AF396013460246FA71BB803B684FF001021A703B6803F10103FA7957
:401040001A703B6803F10203BA88D2B21A703B6803F10303BA884FEA122292B2D2B21A70BB8803F104039BB238681946FFF708FB0346FB81BB8803F104033A68D318FA89C6
:40108000D2B21A70BB8803F105033A68D318FA894FEA122292B2D2B21A70BB8803F106033A68D3184FF017021A70BB8803F107039AB207F10403386811461A464FF09603AA
:4010C00000F00EF90346184607F11007BD4680BD80B586B000AF02460B46FA71BB714FF00203FB74FB7903F1FF33062B74D801A252F823F04B1100006B1100008511000081
:4011000031110000A5110000BF11000011110000BA7913464FEA03639B1A4FEA032303F57F3303F576737B614FF00403FB745BE0BA7913464FEA03639B1A4FEA032303F5F8
:401140007F3303F2D2337B614EE0BA7913464FEA03639B1A4FEA032303F57F3303F2C1337B614FF00403FB743EE0BA7913464FEA03639B1A4FEA032303F57F3303F2C53362
:401180007B6131E0BA7913464FEA03639B1A4FEA032303F57F3303F2C9337B614FF00403FB7421E0BA7913464FEA03639B1A4FEA032303F57F3303F2D6337B6114E0BA79EC
:4011C00013464FEA03639B1A4FEA032303F57F3303F575737B6107E04FF0000000F074FB4FF000037B6100BFFB7C022B0ED17B6903F101031B78DBB2FB607B691B78DBB23D
:401200004FEA0323FA681343FB6021E07B6903F103031B78DBB2FB607B6903F102031B78DBB24FEA0323FA681343FB607B6903F101031B78DBB24FEA0343FA681343FB60E5
:401240007B691B78DBB24FEA0363FA681343FB60FB79022B04D0032B0FD0012B0DD021E0FB689BB24FEA03239AB2FB684FEA13239BB213439BB2FB6015E0FB684FEA1362AE
:40128000FB6803F47F034FEA13231A43FB6803F47F434FEA03231A43FB684FEA03631343FB6000E000BFFB68184607F11807BD4680BD00BF80B500AF48F2C410C1F6FF706D
:4012C0004FF0800100F004F948F24410C1F6FF704FF0000100F0DAF800F0FAFD80BD00BF80B586B000AFF8607A600A467A817B724FF001037B61FB68002B49D07B89002B2F
:4013000046D04FF010037B617B7A9BB21A464FEA8202D3184FEA43037B827B8948F24410C1F6FF70F9681A4601F022F87B687A891A807B89DAB248F26123C1F6FF731A709E
:4013400023E07B89DAB248F26023C1F6FF731B78DBB29A4211D148F26123C1F6FF734FF000021A7048F26023C1F6FF734FF000021A704FF000037B610AE04FF0010000F07B
:40138000C3FA7B8A03F1FF337B827B8A002BD8D17B69184607F11807BD4680BD80B586B000AFF8607A600A467A817B724FF001037B61FB68002B4FD07B89002B4CD04FF0FC
:4013C00010037B617B7A9BB21A464FEA8202D3184FEA43037B823CE048F25A23C1F6FF731B78DBB203F01003002B2AD048F25823C1F6FF731B787B747B7C9AB27B681A80D1
:401400007B7C9AB27B899A4238BF13469BB2F86848F2C411C1F6FF711A4600F0A9FF48F25A23C1F6FF734FF000021A7048F25823C1F6FF734FF000021A704FF000037B61EC
:401440000AE04FF0010000F05FFA7B8A03F1FF337B827B8A002BBFD17B69184607F11807BD4680BD80B483B000AF0346FB7144F6CA13C4F20003FA7902F07F02D2B21A70E9
:4014800007F10C07BD4680BC704700BF80B483B000AF78600B46FB707B68002B12D048F25423C1F6FF737A681A6048F26123C1F6FF73FA781A7048F26023C1F6FF734FF094
:4014C00000021A7007F10C07BD4680BC704700BF80B483B000AF78600B46FB707B68002B12D048F25C23C1F6FF737A681A6048F25923C1F6FF73FA781A7048F25823C1F681
:40150000FF734FF000021A7007F10C07BD4680BC704700BF80B400AF48F26023C1F6FF734FF000021A70BD4680BC704780B400AF48F25823C1F6FF734FF000021A70BD4695
:4015400080BC704780B485B000AF0346FB7145F21013C4F200031B78DBB223F04003FB7345F21013C4F20003FA794FEA8212D2B202F04002D1B2FA7B0A43D2B21A7007F15E
:401580001407BD4680BC704780B485B000AF0346FB7145F21013C4F200031B78DBB203F07F03FB7345F21013C4F20003FA794FEAC212D1B2FA7B0A43D2B21A7007F114073E
:4015C000BD4680BC704700BF80B485B000AF0346FB7145F22013C4F200031B78DBB223F01003FB7345F22013C4F20003FA794FEA0212D2B202F01002D1B2FA7B0A43D2B25E
:401600001A7007F11407BD4680BC7047000000000230800800F0058000BF013800467FF4FCAF7047EFF3108072B6704780F31088704700BFAFF3008080B582B000AF00F0DB
:40164000F1F94FF0FF337B6000F054FB0346002B31D14FF0010000F007FB0346072B27D148F26420C1F6FF704FF0020100F006FA0346022B12D14FF000037B6003E04FF02C
:40168000010000F065F944F22273C4F200031B78DBB203F00203002BF1D009E044F22273C4F200031B78DBB203F00203002BD7D000F064FB02E04FF004037B607B68184669
:4016C00007F10807BD4680BD80B582B000AFFFF7B3FF78607B68002B02D1FFF7ADFF78607B68184607F10807BD4680BD80B584B000AF78604FF00003FB6000F093F97B683E
:40170000002B0DD148F24423C1F6FF731A6848F24423C1F6FF731A604FF00103FB601AE000F0E8FA0346002B0DD048F24423C1F6FF731A6848F24423C1F6FF731A604FF086
:401740000403FB6007E048F24423C1F6FF737A681A6000F013FBFB68184607F11007BD4680BD00BF80B586B000AFBA600246FA730A46BA81FB8000F0BDFA0346002B78D1DA
:40178000FA7BFB881046B9681A4600F0A9F978617B69072B6AD103E04FF0010000F0D8F844F22273C4F200031B78DBB203F00203002BF1D044F22273C4F200031B78DBB28F
:4017C00003F00203002B0ED044F22273C4F200031B78DBB24FEA9303DBB2002B03D14FF000037B6102E04FF0FF337B617B69002B3CD148F26423C1F6FF731A7848F2642343
:40180000C1F6FF735B78F87BB98900F0C7F978617B69072B2AD103E04FF0010000F098F844F22273C4F200031B78DBB203F00203002BF1D044F22273C4F200031B78DBB28E
:4018400003F00203002B0ED044F22273C4F200031B78DBB24FEA9303DBB2002B03D14FF000037B6102E04FF0FF337B6100F086FA02E04FF004037B617B69184607F118074E
:40188000BD4680BD80B400AF44F2AC33C4F2000344F2AC32C4F200021278D2B242F01002D2B21A7044F2BC33C4F2000344F2BC32C4F200021278D2B242F01002D2B21A70F1
:4018C000BD4680BC704700BF80B483B000AF0346FB7101BE07F10C07BD4680BC704700BF80B400AF44F2F663C4F2000344F2F662C4F200021278D2B242F00102D2B21A7027
:40190000BD4680BC704700BF80B582B000AF78600BE048F22013C1F6FF731B681846FFF777FE7B68A3F500437B607B68B3F5004FEFD848F21813C1F6FF731B687A6802FB0D
:4019400003F31846FFF764FE07F10807BD4680BD80B582B000AF0346FB80FA8848F21C13C1F6FF731B7803FB02F31846FFF750FE07F10807BD4680BD80B584B000AF0346B6
:401980003960FB714EF60853CEF200031B68FB60FB791F2B03D94FF00000FFF795FFFB7903F01F0303F110034FEA8303FA68D3181B68BB60FB7903F01F0303F110034FEA7C
:4019C0008303FA68D3183A681A60BB68184607F11007BD4680BD00BF80B582B000AF02460B46FA71BB71BB79072B03D94FF00000FFF76AFFFB791F2B03D94FF00000FFF774
:401A000063FFFB7903F01F0303F1604303F56443BA794FEA4212D2B21A7007F10807BD4680BD00BF80B582B000AFFFF7FBFD0346FB7144F2A033C4F2000344F2A032C4F278
:401A400000021278D2B242F00802D2B21A7044F2B033C4F2000344F2B032C4F200021278D2B242F00802D2B21A70FB791846FFF7DDFD07F10807BD4680BD00BF80B584B001
:401A800000AF78600B46FB704FF00003FB731DE04FF00100FFF75CFF00E000BF44F22273C4F200031B78DBB203F00103002BEFD0FB7B7A68D21844F22073C4F200031B782A
:401AC000DBB21370FB7B03F10103FB73FA7BFB789A42E2D3FB7B184607F11007BD4680BD80B485B000AF396013460246FA71BB804FF00703FB6044F22273C4F200031B78AB
:401B0000DBB203F00203002B3ED044F22073C4F200034FF0B6021A7044F22073C4F200034FF0D5021A7044F22073C4F200034FF002021A7044F22273C4F200031B78DBB2CF
:401B400003F00203002B1BD144F22073C4F20003FA791A704FF000037B810CE044F22073C4F200037A8939688A1812781A707B8903F101037B817A89BB889A42EED306E010
:401B80004FF00903FB6002E04FF00403FB60FB68184607F11407BD4680BC704780B485B000AFF871B980BA71FB704FF00703FB6044F22273C4F200031B78DBB203F00203A2
:401BC000002B46D044F22073C4F200034FF0B6021A7044F22073C4F200034FF0D8021A7044F22073C4F200034FF005021A7044F22273C4F200031B78DBB203F00203002B63
:401C000023D144F22073C4F20003FA791A7044F22073C4F20003BA884FEA122292B2D2B21A7044F22073C4F20003BA88D2B21A7044F22073C4F20003BA791A7044F22073D4
:401C4000C4F20003FA781A7006E04FF00903FB6002E04FF00403FB60FB68184607F11407BD4680BC704700BF80B485B000AF0346FB714FF00703FB6044F22273C4F2000322
:401C80001B78DBB203F00203002B29D044F22073C4F200034FF0B6021A7044F22073C4F200034FF0E1021A7044F22073C4F200034FF00E021A7044F22273C4F200031B7845
:401CC000DBB203F00203002B06D144F22073C4F20003FA791A7006E04FF00903FB6002E04FF00403FB60FB68184607F11407BD4680BC704780B582B000AF4FF004037B60CE
:401D0000FFF790FC0346FB7048F24823C1F6FF731B78002B28D148F24823C1F6FF734FF001021A704FF000037B604FF00403C4F208031B6803F00103002B15D04FF004035A
:401D4000C4F208034FF00402C4F20802126822F001021A6000BF00BF00BF48F24C23C1F6FF734FF001021A60FB781846FFF75EFC7B68184607F10807BD4680BD80B582B0B9
:401D800000AFFFF74FFC0346FB7148F24823C1F6FF734FF000021A7048F24C23C1F6FF731B68012B15D14FF00403C4F208034FF00402C4F20802126842F001021A6000BF8A
:401DC00000BF00BF48F24C23C1F6FF734FF000021A60FB791846FFF729FC07F10807BD4680BD00BF80B500AF44F6D613C4F200034FF001021A7044F6C813C4F200034FF04C
:401E000081021A7044F6DB13C4F200034FF003021A7044F6DC13C4F200034FF000021A704EF28013CEF200034FF400421A604FF00F004FF00701FFF7CFFD4FF00F0041F6C8
:401E40000971C0F20001FFF797FD48F26623C1F6FF734FF010021A70FFF75CFBFFF766FB48F25A23C1F6FF734FF000021A704FF00800FFF7F7FA80BD80B582B000AFFFF71E
:401E8000D1FB0346FB7144F2A533C4F2000344F2A532C4F200021278D2B242F00402D2B21A7044F2B533C4F2000344F2B532C4F200021278D2B242F00402D2B21A70FB794D
:401EC0001846FFF7B3FB07F10807BD4680BD00BF80B500AF48F25023C1F6FF731B78002B08D1FFF77FFF48F25023C1F6FF734FF001021A70FFF7C0FF4FF46143CEF2000314
:401F00004FF400421A6080BD80B582B000AF44F6D713C4F200031B78FB7148F26623C1F6FF731B78DBB203F04003DBB2002B40F0F48148F26623C1F6FF731B78DBB203F0D5
:401F40001003DBB2002B00F0E181FB7903F02003002B09D1FB7903F00103002B3DD0FB7903F00803002B38D048F26623C1F6FF731B78DBB2112B30D144F6D613C4F2000348
:401F800044F6D612C4F200021278D2B222F01002D2B21A7048F25A23C1F6FF731B78DBB223F02003DAB248F25A23C1F6FF731A7048F25A23C1F6FF731B78DBB243F0100395
:401FC000DAB248F25A23C1F6FF731A7048F26623C1F6FF734FF010021A70FB7903F00103002B00F09A81FB7903F00803002B00F09E8044F6D813C4F200031B78DBB203F0E7
:402000000103002B68D048F26023C1F6FF731B78DAB248F26123C1F6FF731B78DBB29A4236D244F6D813C4F2000348F25422C1F6FF72116848F26022C1F6FF721278D2B228
:402040008A181278D2B21A7044F6D713C4F200034FF014021A7048F26023C1F6FF731B78DBB203F10103DAB248F26023C1F6FF731A7048F25A23C1F6FF731B78DBB243F03D
:402080000203DAB248F25A23C1F6FF731A701BE044F6D813C4F200034FF0FF021A7044F6D713C4F200034FF014021A7048F25A23C1F6FF731B78DBB243F00603DAB248F2C4
:4020C0005A23C1F6FF731A7048F26623C1F6FF734FF012021A7020E144F6D713C4F200034FF010021A7048F26623C1F6FF734FF011021A7048F25A23C1F6FF731B78DBB266
:4021000043F02003DAB248F25A23C1F6FF731A7044F6D613C4F2000344F6D612C4F200021278D2B242F01002D2B21A70F5E048F26623C1F6FF731B78DBB2112B4DD148F2C8
:402140005823C1F6FF731B78DAB248F25923C1F6FF731B78DBB29A4229D244F6D813C4F200031B78BB7144F6D713C4F200034FF010021A7048F25C23C1F6FF731A6848F2D3
:402180005823C1F6FF731B78DBB2D318BA791A7048F25823C1F6FF731B78DBB203F10103DAB248F25823C1F6FF731A70B5E044F6D713C4F200034FF000021A7048F25A23D5
:4021C000C1F6FF731B78DBB243F04003DAB248F25A23C1F6FF731A709FE048F26623C1F6FF731B78DBB2122B40F08B80FB7903F00203002B53D148F26023C1F6FF731B78F3
:40220000DAB248F26123C1F6FF731B78DBB29A4228D244F6D813C4F2000348F25422C1F6FF72116848F26022C1F6FF721278D2B28A181278D2B21A7044F6D713C4F20003FD
:402240004FF004021A7048F26023C1F6FF731B78DBB203F10103DAB248F26023C1F6FF731A705AE044F6D813C4F200034FF0FF021A7044F6D713C4F200034FF004021A7007
:4022800048F25A23C1F6FF731B78DBB243F00403DAB248F25A23C1F6FF731A703DE044F6D813C4F200034FF0FF021A7044F6D713C4F200034FF000021A7048F25A23C1F613
:4022C000FF731B78DBB223F00203DAB248F25A23C1F6FF731A7048F25A23C1F6FF731B78DBB243F00103DAB248F25A23C1F6FF731A7048F26623C1F6FF734FF010021A704A
:402300000BE04FF00000FFF7DFFA06E048F26623C1F6FF734FF010021A7007F10807BD4680BD00BF38B50E4D0E4B0024E81A8510AC4205D00B4951F8242090470134F7E707
:4023400000F09EF80849094A541AA5100024AC4205D0054B53F8240080470134F7E738BD8C2400008C2400008C2400009424000010B50023934203D0CC5CC4540133F9E7EF
:4023800010BD82180346934202D003F8011BFAE770470000BE000000D824000000000000C84900401900005100401000305100404000F0510040100000000140001000145B
:4023C0000140000800400140000A004C01400002005001402000000060520040702400000600000001150140011B01400242014001430140034401400145014001460140E8
:40240000014701400148014002490140084C0140064D014001510140EA01EA013E10CE20961010101420C40C9830983098309610AA10EA8010401320148078107C20983040
:40244000C40EDE0378407C8098C0AB20DC01DE0403C0000030000000300030000000000000C0C000000000000010100000000000203000003000000069E0112E0014010102
:40248000F8B500BFF8BC08BC9E467047550000007D010000F8B500BFF8BC08BC9E46704731000000B82400000881FF1F20000000400100000000000000000000942300007F
:4024C0009823000000366E01C05D0000180000000000E02E000000000000000000000000000000000000000000000000000000000000000000000000000000000000000039
:40250000000000000000000000000000000000000000000000000000000000000000000000000000000000000000000000000000000000000000000000000000000000009B
:40254000000000000000000000000000000000000000000000000000000000000000000000000000000000000000000000000000000000000000000000000000000000005B
:40258000000000000000000000000000000000000000000000000000000000000000000000000000000000000000000000000000000000000000000000000000000000001B
:4025C00000000000000000000000000000000000000000000000000000000000000000000000000000000000000000000000000000000000000000000000000000000000DB
:020000040003F7
:40FFC00000000000000000000000000000000000000002000100010000000000000000000000000000000000000000000000000000000000000000000000000000000000FD
:0200000480007A
:4000000000000000000000000000000000000000000000000000000000000000000000000000000000000000000000000000000000000000000000000000000000000000C0
:400040000000000000000000000000000000000000000000000000000000000000000000000000000000000000000000000000000000000000000000000000000000000080
:400080000000000000000000000000000000000000000000000000000000000000000000000000000000000000000000000000000000000000000000000000000000000040
:4000C0000000000000000000000000000000000000000000000000000000000000000000000000000000000000000000000000000000000000000000000000000000000000
:0200000490006A
:0400000000004005B7
:0200000490105A
:04000000BC90ACAF55
:0200000490303A
:02000000680492
:0200000490402A
:4000000000000000000000000000000000000000000000000000000000000000000000000000000000000000000000000000000000000000000000000000000000000000C0
:400040000000000000000000000000000000000000000000000000000000000000000000000000000000000000000000000000000000000000000000000000000000000080
:400080000000000000000000000000000000000000000000000000000000000000000000000000000000000000000000000000000000000000000000000000000000000040
:4000C0000000000000000000000000000000000000000000000000000000000000000000000000000000000000000000000000000000000000000000000000000000000000
:0200000490501A
:0C00000000012E11E06900012E22486D65
:00000001FF